{
	"contracts/tokenICO.sol": {
		"CryptosICO": {
			"abi": [
				{
					"inputs": [
						{
							"internalType": "address payable",
							"name": "_deposit",
							"type": "address"
						},
						{
							"internalType": "address",
							"name": "tokenAddress",
							"type": "address"
						}
					],
					"stateMutability": "nonpayable",
					"type": "constructor"
				},
				{
					"anonymous": false,
					"inputs": [
						{
							"indexed": true,
							"internalType": "address",
							"name": "tokenOwner",
							"type": "address"
						},
						{
							"indexed": true,
							"internalType": "address",
							"name": "spender",
							"type": "address"
						},
						{
							"indexed": false,
							"internalType": "uint256",
							"name": "tokens",
							"type": "uint256"
						}
					],
					"name": "Approval",
					"type": "event"
				},
				{
					"anonymous": false,
					"inputs": [
						{
							"indexed": false,
							"internalType": "address",
							"name": "investor",
							"type": "address"
						},
						{
							"indexed": false,
							"internalType": "uint256",
							"name": "value",
							"type": "uint256"
						},
						{
							"indexed": false,
							"internalType": "uint256",
							"name": "tokens",
							"type": "uint256"
						}
					],
					"name": "Invest",
					"type": "event"
				},
				{
					"anonymous": false,
					"inputs": [
						{
							"indexed": true,
							"internalType": "address",
							"name": "from",
							"type": "address"
						},
						{
							"indexed": true,
							"internalType": "address",
							"name": "to",
							"type": "address"
						},
						{
							"indexed": false,
							"internalType": "uint256",
							"name": "tokens",
							"type": "uint256"
						}
					],
					"name": "Transfer",
					"type": "event"
				},
				{
					"inputs": [],
					"name": "admin",
					"outputs": [
						{
							"internalType": "address",
							"name": "",
							"type": "address"
						}
					],
					"stateMutability": "view",
					"type": "function"
				},
				{
					"inputs": [
						{
							"internalType": "address",
							"name": "tokenOwner",
							"type": "address"
						},
						{
							"internalType": "address",
							"name": "spender",
							"type": "address"
						}
					],
					"name": "allowance",
					"outputs": [
						{
							"internalType": "uint256",
							"name": "",
							"type": "uint256"
						}
					],
					"stateMutability": "view",
					"type": "function"
				},
				{
					"inputs": [
						{
							"internalType": "address",
							"name": "spender",
							"type": "address"
						},
						{
							"internalType": "uint256",
							"name": "tokens",
							"type": "uint256"
						}
					],
					"name": "approve",
					"outputs": [
						{
							"internalType": "bool",
							"name": "success",
							"type": "bool"
						}
					],
					"stateMutability": "nonpayable",
					"type": "function"
				},
				{
					"inputs": [
						{
							"internalType": "address",
							"name": "tokenOwner",
							"type": "address"
						}
					],
					"name": "balanceOf",
					"outputs": [
						{
							"internalType": "uint256",
							"name": "balance",
							"type": "uint256"
						}
					],
					"stateMutability": "view",
					"type": "function"
				},
				{
					"inputs": [
						{
							"internalType": "address",
							"name": "",
							"type": "address"
						}
					],
					"name": "balances",
					"outputs": [
						{
							"internalType": "uint256",
							"name": "",
							"type": "uint256"
						}
					],
					"stateMutability": "view",
					"type": "function"
				},
				{
					"inputs": [],
					"name": "burn",
					"outputs": [
						{
							"internalType": "bool",
							"name": "",
							"type": "bool"
						}
					],
					"stateMutability": "nonpayable",
					"type": "function"
				},
				{
					"inputs": [
						{
							"internalType": "address payable",
							"name": "newDeposit",
							"type": "address"
						}
					],
					"name": "changeDepositAddress",
					"outputs": [],
					"stateMutability": "nonpayable",
					"type": "function"
				},
				{
					"inputs": [],
					"name": "decimals",
					"outputs": [
						{
							"internalType": "uint256",
							"name": "",
							"type": "uint256"
						}
					],
					"stateMutability": "view",
					"type": "function"
				},
				{
					"inputs": [],
					"name": "deposit",
					"outputs": [
						{
							"internalType": "address payable",
							"name": "",
							"type": "address"
						}
					],
					"stateMutability": "view",
					"type": "function"
				},
				{
					"inputs": [],
					"name": "endSale",
					"outputs": [],
					"stateMutability": "nonpayable",
					"type": "function"
				},
				{
					"inputs": [],
					"name": "founder",
					"outputs": [
						{
							"internalType": "address",
							"name": "",
							"type": "address"
						}
					],
					"stateMutability": "view",
					"type": "function"
				},
				{
					"inputs": [],
					"name": "getCurrentState",
					"outputs": [
						{
							"internalType": "enum CryptosICO.State",
							"name": "",
							"type": "uint8"
						}
					],
					"stateMutability": "view",
					"type": "function"
				},
				{
					"inputs": [],
					"name": "halt",
					"outputs": [],
					"stateMutability": "nonpayable",
					"type": "function"
				},
				{
					"inputs": [],
					"name": "hardCap",
					"outputs": [
						{
							"internalType": "uint256",
							"name": "",
							"type": "uint256"
						}
					],
					"stateMutability": "view",
					"type": "function"
				},
				{
					"inputs": [],
					"name": "icoState",
					"outputs": [
						{
							"internalType": "enum CryptosICO.State",
							"name": "",
							"type": "uint8"
						}
					],
					"stateMutability": "view",
					"type": "function"
				},
				{
					"inputs": [],
					"name": "invest",
					"outputs": [
						{
							"internalType": "bool",
							"name": "",
							"type": "bool"
						}
					],
					"stateMutability": "payable",
					"type": "function"
				},
				{
					"inputs": [],
					"name": "maxInvestment",
					"outputs": [
						{
							"internalType": "uint256",
							"name": "",
							"type": "uint256"
						}
					],
					"stateMutability": "view",
					"type": "function"
				},
				{
					"inputs": [],
					"name": "minInvestment",
					"outputs": [
						{
							"internalType": "uint256",
							"name": "",
							"type": "uint256"
						}
					],
					"stateMutability": "view",
					"type": "function"
				},
				{
					"inputs": [],
					"name": "name",
					"outputs": [
						{
							"internalType": "string",
							"name": "",
							"type": "string"
						}
					],
					"stateMutability": "view",
					"type": "function"
				},
				{
					"inputs": [],
					"name": "raisedAmount",
					"outputs": [
						{
							"internalType": "uint256",
							"name": "",
							"type": "uint256"
						}
					],
					"stateMutability": "view",
					"type": "function"
				},
				{
					"inputs": [],
					"name": "resume",
					"outputs": [],
					"stateMutability": "nonpayable",
					"type": "function"
				},
				{
					"inputs": [],
					"name": "saleEnd",
					"outputs": [
						{
							"internalType": "uint256",
							"name": "",
							"type": "uint256"
						}
					],
					"stateMutability": "view",
					"type": "function"
				},
				{
					"inputs": [],
					"name": "saleStart",
					"outputs": [
						{
							"internalType": "uint256",
							"name": "",
							"type": "uint256"
						}
					],
					"stateMutability": "view",
					"type": "function"
				},
				{
					"inputs": [],
					"name": "symbol",
					"outputs": [
						{
							"internalType": "string",
							"name": "",
							"type": "string"
						}
					],
					"stateMutability": "view",
					"type": "function"
				},
				{
					"inputs": [],
					"name": "tokenContract",
					"outputs": [
						{
							"internalType": "contract ERC20Interface",
							"name": "",
							"type": "address"
						}
					],
					"stateMutability": "view",
					"type": "function"
				},
				{
					"inputs": [],
					"name": "tokenTradeStart",
					"outputs": [
						{
							"internalType": "uint256",
							"name": "",
							"type": "uint256"
						}
					],
					"stateMutability": "view",
					"type": "function"
				},
				{
					"inputs": [],
					"name": "totalSupply",
					"outputs": [
						{
							"internalType": "uint256",
							"name": "",
							"type": "uint256"
						}
					],
					"stateMutability": "view",
					"type": "function"
				},
				{
					"inputs": [
						{
							"internalType": "address",
							"name": "to",
							"type": "address"
						},
						{
							"internalType": "uint256",
							"name": "tokens",
							"type": "uint256"
						}
					],
					"name": "transfer",
					"outputs": [
						{
							"internalType": "bool",
							"name": "success",
							"type": "bool"
						}
					],
					"stateMutability": "nonpayable",
					"type": "function"
				},
				{
					"inputs": [
						{
							"internalType": "address",
							"name": "from",
							"type": "address"
						},
						{
							"internalType": "address",
							"name": "to",
							"type": "address"
						},
						{
							"internalType": "uint256",
							"name": "tokens",
							"type": "uint256"
						}
					],
					"name": "transferFrom",
					"outputs": [
						{
							"internalType": "bool",
							"name": "success",
							"type": "bool"
						}
					],
					"stateMutability": "nonpayable",
					"type": "function"
				},
				{
					"stateMutability": "payable",
					"type": "receive"
				}
			],
			"devdoc": {
				"kind": "dev",
				"methods": {},
				"version": 1
			},
			"evm": {
				"assembly": "    /* \"contracts/tokenICO.sol\":3204:7639  contract CryptosICO is Cryptos {\r... */\n  mstore(0x40, 0x80)\n    /* \"contracts/tokenICO.sol\":1245:1275  string public name = \"Cryptos\" */\n  mload(0x40)\n  dup1\n  0x40\n  add\n  0x40\n  mstore\n  dup1\n  0x07\n  dup2\n  mstore\n  0x20\n  add\n  0x43727970746f7300000000000000000000000000000000000000000000000000\n  dup2\n  mstore\n  pop\n  0x00\n  swap1\n  dup1\n  mload\n  swap1\n  0x20\n  add\n  swap1\n  tag_1\n  swap3\n  swap2\n  swap1\n  tag_2\n  jump\t// in\ntag_1:\n  pop\n    /* \"contracts/tokenICO.sol\":1282:1311  string public symbol = \"CRPT\" */\n  mload(0x40)\n  dup1\n  0x40\n  add\n  0x40\n  mstore\n  dup1\n  0x04\n  dup2\n  mstore\n  0x20\n  add\n  0x4352505400000000000000000000000000000000000000000000000000000000\n  dup2\n  mstore\n  pop\n  0x01\n  swap1\n  dup1\n  mload\n  swap1\n  0x20\n  add\n  swap1\n  tag_3\n  swap3\n  swap2\n  swap1\n  tag_2\n  jump\t// in\ntag_3:\n  pop\n    /* \"contracts/tokenICO.sol\":1344:1345  0 */\n  0x00\n    /* \"contracts/tokenICO.sol\":1318:1345  uint256 public decimals = 0 */\n  0x02\n  sstore\n    /* \"contracts/tokenICO.sol\":3327:3338  0.001 ether */\n  0x038d7ea4c68000\n    /* \"contracts/tokenICO.sol\":3306:3338  uint256 tokenPrice = 0.001 ether */\n  0x09\n  sstore\n    /* \"contracts/tokenICO.sol\":3407:3416  300 ether */\n  0x1043561a8829300000\n    /* \"contracts/tokenICO.sol\":3382:3416  uint256 public hardCap = 300 ether */\n  0x0a\n  sstore\n    /* \"contracts/tokenICO.sol\":3513:3528  block.timestamp */\n  timestamp\n    /* \"contracts/tokenICO.sol\":3486:3528  uint256 public saleStart = block.timestamp */\n  0x0c\n  sstore\n    /* \"contracts/tokenICO.sol\":3578:3584  604800 */\n  0x093a80\n    /* \"contracts/tokenICO.sol\":3560:3575  block.timestamp */\n  timestamp\n    /* \"contracts/tokenICO.sol\":3560:3584  block.timestamp + 604800 */\n  tag_4\n  swap2\n  swap1\n  tag_5\n  jump\t// in\ntag_4:\n    /* \"contracts/tokenICO.sol\":3535:3584  uint256 public saleEnd = block.timestamp + 604800 */\n  0x0d\n  sstore\n    /* \"contracts/tokenICO.sol\":3687:3693  604800 */\n  0x093a80\n    /* \"contracts/tokenICO.sol\":3677:3684  saleEnd */\n  sload(0x0d)\n    /* \"contracts/tokenICO.sol\":3677:3693  saleEnd + 604800 */\n  tag_6\n  swap2\n  swap1\n  tag_5\n  jump\t// in\ntag_6:\n    /* \"contracts/tokenICO.sol\":3644:3693  uint256 public tokenTradeStart = saleEnd + 604800 */\n  0x0f\n  sstore\n    /* \"contracts/tokenICO.sol\":3770:3777  5 ether */\n  0x4563918244f40000\n    /* \"contracts/tokenICO.sol\":3739:3777  uint256 public maxInvestment = 5 ether */\n  0x10\n  sstore\n    /* \"contracts/tokenICO.sol\":3815:3824  0.1 ether */\n  0x016345785d8a0000\n    /* \"contracts/tokenICO.sol\":3784:3824  uint256 public minInvestment = 0.1 ether */\n  0x11\n  sstore\n    /* \"contracts/tokenICO.sol\":3977:4197  constructor(address payable _deposit, address tokenAddress) {\r... */\n  callvalue\n  dup1\n  iszero\n  tag_7\n  jumpi\n  0x00\n  dup1\n  revert\ntag_7:\n  pop\n  mload(0x40)\n  sub(codesize, bytecodeSize)\n  dup1\n  bytecodeSize\n  dup4\n  codecopy\n  dup2\n  dup2\n  add\n  0x40\n  mstore\n  dup2\n  add\n  swap1\n  tag_8\n  swap2\n  swap1\n  tag_9\n  jump\t// in\ntag_8:\n    /* \"contracts/tokenICO.sol\":1654:1661  1000000 */\n  0x0f4240\n    /* \"contracts/tokenICO.sol\":1640:1651  totalSupply */\n  0x03\n    /* \"contracts/tokenICO.sol\":1640:1661  totalSupply = 1000000 */\n  dup2\n  swap1\n  sstore\n  pop\n    /* \"contracts/tokenICO.sol\":1682:1692  msg.sender */\n  caller\n    /* \"contracts/tokenICO.sol\":1672:1679  founder */\n  0x04\n  0x00\n    /* \"contracts/tokenICO.sol\":1672:1692  founder = msg.sender */\n  0x0100\n  exp\n  dup2\n  sload\n  dup2\n  0xffffffffffffffffffffffffffffffffffffffff\n  mul\n  not\n  and\n  swap1\n  dup4\n  0xffffffffffffffffffffffffffffffffffffffff\n  and\n  mul\n  or\n  swap1\n  sstore\n  pop\n    /* \"contracts/tokenICO.sol\":1723:1734  totalSupply */\n  sload(0x03)\n    /* \"contracts/tokenICO.sol\":1703:1711  balances */\n  0x05\n    /* \"contracts/tokenICO.sol\":1703:1720  balances[founder] */\n  0x00\n    /* \"contracts/tokenICO.sol\":1712:1719  founder */\n  0x04\n  0x00\n  swap1\n  sload\n  swap1\n  0x0100\n  exp\n  swap1\n  div\n  0xffffffffffffffffffffffffffffffffffffffff\n  and\n    /* \"contracts/tokenICO.sol\":1703:1720  balances[founder] */\n  0xffffffffffffffffffffffffffffffffffffffff\n  and\n  0xffffffffffffffffffffffffffffffffffffffff\n  and\n  dup2\n  mstore\n  0x20\n  add\n  swap1\n  dup2\n  mstore\n  0x20\n  add\n  0x00\n  keccak256\n    /* \"contracts/tokenICO.sol\":1703:1734  balances[founder] = totalSupply */\n  dup2\n  swap1\n  sstore\n  pop\n    /* \"contracts/tokenICO.sol\":4058:4066  _deposit */\n  dup2\n    /* \"contracts/tokenICO.sol\":4048:4055  deposit */\n  0x08\n  0x00\n    /* \"contracts/tokenICO.sol\":4048:4066  deposit = _deposit */\n  0x0100\n  exp\n  dup2\n  sload\n  dup2\n  0xffffffffffffffffffffffffffffffffffffffff\n  mul\n  not\n  and\n  swap1\n  dup4\n  0xffffffffffffffffffffffffffffffffffffffff\n  and\n  mul\n  or\n  swap1\n  sstore\n  pop\n    /* \"contracts/tokenICO.sol\":4085:4095  msg.sender */\n  caller\n    /* \"contracts/tokenICO.sol\":4077:4082  admin */\n  0x07\n  0x00\n    /* \"contracts/tokenICO.sol\":4077:4095  admin = msg.sender */\n  0x0100\n  exp\n  dup2\n  sload\n  dup2\n  0xffffffffffffffffffffffffffffffffffffffff\n  mul\n  not\n  and\n  swap1\n  dup4\n  0xffffffffffffffffffffffffffffffffffffffff\n  and\n  mul\n  or\n  swap1\n  sstore\n  pop\n    /* \"contracts/tokenICO.sol\":4117:4134  State.beforeStart */\n  0x00\n    /* \"contracts/tokenICO.sol\":4106:4114  icoState */\n  0x12\n  0x00\n    /* \"contracts/tokenICO.sol\":4106:4134  icoState = State.beforeStart */\n  0x0100\n  exp\n  dup2\n  sload\n  dup2\n  0xff\n  mul\n  not\n  and\n  swap1\n  dup4\n  0x03\n  dup2\n  gt\n  iszero\n  tag_14\n  jumpi\n  mstore(0x00, 0x4e487b7100000000000000000000000000000000000000000000000000000000)\n  mstore(0x04, 0x21)\n  revert(0x00, 0x24)\ntag_14:\n  mul\n  or\n  swap1\n  sstore\n  pop\n    /* \"contracts/tokenICO.sol\":4176:4188  tokenAddress */\n  dup1\n    /* \"contracts/tokenICO.sol\":4145:4158  tokenContract */\n  0x0e\n  0x00\n    /* \"contracts/tokenICO.sol\":4145:4189  tokenContract = ERC20Interface(tokenAddress) */\n  0x0100\n  exp\n  dup2\n  sload\n  dup2\n  0xffffffffffffffffffffffffffffffffffffffff\n  mul\n  not\n  and\n  swap1\n  dup4\n  0xffffffffffffffffffffffffffffffffffffffff\n  and\n  mul\n  or\n  swap1\n  sstore\n  pop\n    /* \"contracts/tokenICO.sol\":3977:4197  constructor(address payable _deposit, address tokenAddress) {\r... */\n  pop\n  pop\n    /* \"contracts/tokenICO.sol\":3204:7639  contract CryptosICO is Cryptos {\r... */\n  jump(tag_15)\ntag_2:\n  dup3\n  dup1\n  sload\n  tag_16\n  swap1\n  tag_17\n  jump\t// in\ntag_16:\n  swap1\n  0x00\n  mstore\n  keccak256(0x00, 0x20)\n  swap1\n  0x1f\n  add\n  0x20\n  swap1\n  div\n  dup2\n  add\n  swap3\n  dup3\n  tag_19\n  jumpi\n  0x00\n  dup6\n  sstore\n  jump(tag_18)\ntag_19:\n  dup3\n  0x1f\n  lt\n  tag_20\n  jumpi\n  dup1\n  mload\n  not(0xff)\n  and\n  dup4\n  dup1\n  add\n  or\n  dup6\n  sstore\n  jump(tag_18)\ntag_20:\n  dup3\n  dup1\n  add\n  0x01\n  add\n  dup6\n  sstore\n  dup3\n  iszero\n  tag_18\n  jumpi\n  swap2\n  dup3\n  add\ntag_21:\n  dup3\n  dup2\n  gt\n  iszero\n  tag_22\n  jumpi\n  dup3\n  mload\n  dup3\n  sstore\n  swap2\n  0x20\n  add\n  swap2\n  swap1\n  0x01\n  add\n  swap1\n  jump(tag_21)\ntag_22:\ntag_18:\n  pop\n  swap1\n  pop\n  tag_23\n  swap2\n  swap1\n  tag_24\n  jump\t// in\ntag_23:\n  pop\n  swap1\n  jump\t// out\ntag_24:\ntag_25:\n  dup1\n  dup3\n  gt\n  iszero\n  tag_26\n  jumpi\n  0x00\n  dup2\n  0x00\n  swap1\n  sstore\n  pop\n  0x01\n  add\n  jump(tag_25)\ntag_26:\n  pop\n  swap1\n  jump\t// out\n    /* \"#utility.yul\":7:150   */\ntag_28:\n  0x00\n    /* \"#utility.yul\":95:101   */\n  dup2\n    /* \"#utility.yul\":89:102   */\n  mload\n    /* \"#utility.yul\":80:102   */\n  swap1\n  pop\n    /* \"#utility.yul\":111:144   */\n  tag_30\n    /* \"#utility.yul\":138:143   */\n  dup2\n    /* \"#utility.yul\":111:144   */\n  tag_31\n  jump\t// in\ntag_30:\n    /* \"#utility.yul\":70:150   */\n  swap3\n  swap2\n  pop\n  pop\n  jump\t// out\n    /* \"#utility.yul\":156:315   */\ntag_32:\n  0x00\n    /* \"#utility.yul\":252:258   */\n  dup2\n    /* \"#utility.yul\":246:259   */\n  mload\n    /* \"#utility.yul\":237:259   */\n  swap1\n  pop\n    /* \"#utility.yul\":268:309   */\n  tag_34\n    /* \"#utility.yul\":303:308   */\n  dup2\n    /* \"#utility.yul\":268:309   */\n  tag_35\n  jump\t// in\ntag_34:\n    /* \"#utility.yul\":227:315   */\n  swap3\n  swap2\n  pop\n  pop\n  jump\t// out\n    /* \"#utility.yul\":321:777   */\ntag_9:\n  0x00\n  dup1\n    /* \"#utility.yul\":465:467   */\n  0x40\n    /* \"#utility.yul\":453:462   */\n  dup4\n    /* \"#utility.yul\":444:451   */\n  dup6\n    /* \"#utility.yul\":440:463   */\n  sub\n    /* \"#utility.yul\":436:468   */\n  slt\n    /* \"#utility.yul\":433:435   */\n  iszero\n  tag_37\n  jumpi\n    /* \"#utility.yul\":481:482   */\n  0x00\n    /* \"#utility.yul\":478:479   */\n  dup1\n    /* \"#utility.yul\":471:483   */\n  revert\n    /* \"#utility.yul\":433:435   */\ntag_37:\n    /* \"#utility.yul\":524:525   */\n  0x00\n    /* \"#utility.yul\":549:621   */\n  tag_38\n    /* \"#utility.yul\":613:620   */\n  dup6\n    /* \"#utility.yul\":604:610   */\n  dup3\n    /* \"#utility.yul\":593:602   */\n  dup7\n    /* \"#utility.yul\":589:611   */\n  add\n    /* \"#utility.yul\":549:621   */\n  tag_32\n  jump\t// in\ntag_38:\n    /* \"#utility.yul\":539:621   */\n  swap3\n  pop\n    /* \"#utility.yul\":495:631   */\n  pop\n    /* \"#utility.yul\":670:672   */\n  0x20\n    /* \"#utility.yul\":696:760   */\n  tag_39\n    /* \"#utility.yul\":752:759   */\n  dup6\n    /* \"#utility.yul\":743:749   */\n  dup3\n    /* \"#utility.yul\":732:741   */\n  dup7\n    /* \"#utility.yul\":728:750   */\n  add\n    /* \"#utility.yul\":696:760   */\n  tag_28\n  jump\t// in\ntag_39:\n    /* \"#utility.yul\":686:760   */\n  swap2\n  pop\n    /* \"#utility.yul\":641:770   */\n  pop\n    /* \"#utility.yul\":423:777   */\n  swap3\n  pop\n  swap3\n  swap1\n  pop\n  jump\t// out\n    /* \"#utility.yul\":783:1088   */\ntag_5:\n  0x00\n    /* \"#utility.yul\":842:862   */\n  tag_41\n    /* \"#utility.yul\":860:861   */\n  dup3\n    /* \"#utility.yul\":842:862   */\n  tag_42\n  jump\t// in\ntag_41:\n    /* \"#utility.yul\":837:862   */\n  swap2\n  pop\n    /* \"#utility.yul\":876:896   */\n  tag_43\n    /* \"#utility.yul\":894:895   */\n  dup4\n    /* \"#utility.yul\":876:896   */\n  tag_42\n  jump\t// in\ntag_43:\n    /* \"#utility.yul\":871:896   */\n  swap3\n  pop\n    /* \"#utility.yul\":1030:1031   */\n  dup3\n    /* \"#utility.yul\":962:1028   */\n  0xffffffffffffffffffffffffffffffffffffffffffffffffffffffffffffffff\n    /* \"#utility.yul\":958:1032   */\n  sub\n    /* \"#utility.yul\":955:956   */\n  dup3\n    /* \"#utility.yul\":952:1033   */\n  gt\n    /* \"#utility.yul\":949:951   */\n  iszero\n  tag_44\n  jumpi\n    /* \"#utility.yul\":1036:1054   */\n  tag_45\n  tag_46\n  jump\t// in\ntag_45:\n    /* \"#utility.yul\":949:951   */\ntag_44:\n    /* \"#utility.yul\":1080:1081   */\n  dup3\n    /* \"#utility.yul\":1077:1078   */\n  dup3\n    /* \"#utility.yul\":1073:1082   */\n  add\n    /* \"#utility.yul\":1066:1082   */\n  swap1\n  pop\n    /* \"#utility.yul\":827:1088   */\n  swap3\n  swap2\n  pop\n  pop\n  jump\t// out\n    /* \"#utility.yul\":1094:1190   */\ntag_47:\n  0x00\n    /* \"#utility.yul\":1160:1184   */\n  tag_49\n    /* \"#utility.yul\":1178:1183   */\n  dup3\n    /* \"#utility.yul\":1160:1184   */\n  tag_50\n  jump\t// in\ntag_49:\n    /* \"#utility.yul\":1149:1184   */\n  swap1\n  pop\n    /* \"#utility.yul\":1139:1190   */\n  swap2\n  swap1\n  pop\n  jump\t// out\n    /* \"#utility.yul\":1196:1300   */\ntag_51:\n  0x00\n    /* \"#utility.yul\":1270:1294   */\n  tag_53\n    /* \"#utility.yul\":1288:1293   */\n  dup3\n    /* \"#utility.yul\":1270:1294   */\n  tag_50\n  jump\t// in\ntag_53:\n    /* \"#utility.yul\":1259:1294   */\n  swap1\n  pop\n    /* \"#utility.yul\":1249:1300   */\n  swap2\n  swap1\n  pop\n  jump\t// out\n    /* \"#utility.yul\":1306:1432   */\ntag_50:\n  0x00\n    /* \"#utility.yul\":1383:1425   */\n  0xffffffffffffffffffffffffffffffffffffffff\n    /* \"#utility.yul\":1376:1381   */\n  dup3\n    /* \"#utility.yul\":1372:1426   */\n  and\n    /* \"#utility.yul\":1361:1426   */\n  swap1\n  pop\n    /* \"#utility.yul\":1351:1432   */\n  swap2\n  swap1\n  pop\n  jump\t// out\n    /* \"#utility.yul\":1438:1515   */\ntag_42:\n  0x00\n    /* \"#utility.yul\":1504:1509   */\n  dup2\n    /* \"#utility.yul\":1493:1509   */\n  swap1\n  pop\n    /* \"#utility.yul\":1483:1515   */\n  swap2\n  swap1\n  pop\n  jump\t// out\n    /* \"#utility.yul\":1521:1841   */\ntag_17:\n  0x00\n    /* \"#utility.yul\":1602:1603   */\n  0x02\n    /* \"#utility.yul\":1596:1600   */\n  dup3\n    /* \"#utility.yul\":1592:1604   */\n  div\n    /* \"#utility.yul\":1582:1604   */\n  swap1\n  pop\n    /* \"#utility.yul\":1649:1650   */\n  0x01\n    /* \"#utility.yul\":1643:1647   */\n  dup3\n    /* \"#utility.yul\":1639:1651   */\n  and\n    /* \"#utility.yul\":1670:1688   */\n  dup1\n    /* \"#utility.yul\":1660:1662   */\n  tag_57\n  jumpi\n    /* \"#utility.yul\":1726:1730   */\n  0x7f\n    /* \"#utility.yul\":1718:1724   */\n  dup3\n    /* \"#utility.yul\":1714:1731   */\n  and\n    /* \"#utility.yul\":1704:1731   */\n  swap2\n  pop\n    /* \"#utility.yul\":1660:1662   */\ntag_57:\n    /* \"#utility.yul\":1788:1790   */\n  0x20\n    /* \"#utility.yul\":1780:1786   */\n  dup3\n    /* \"#utility.yul\":1777:1791   */\n  lt\n    /* \"#utility.yul\":1757:1775   */\n  dup2\n    /* \"#utility.yul\":1754:1792   */\n  eq\n    /* \"#utility.yul\":1751:1753   */\n  iszero\n  tag_58\n  jumpi\n    /* \"#utility.yul\":1807:1825   */\n  tag_59\n  tag_60\n  jump\t// in\ntag_59:\n    /* \"#utility.yul\":1751:1753   */\ntag_58:\n    /* \"#utility.yul\":1572:1841   */\n  pop\n  swap2\n  swap1\n  pop\n  jump\t// out\n    /* \"#utility.yul\":1847:2027   */\ntag_46:\n    /* \"#utility.yul\":1895:1972   */\n  0x4e487b7100000000000000000000000000000000000000000000000000000000\n    /* \"#utility.yul\":1892:1893   */\n  0x00\n    /* \"#utility.yul\":1885:1973   */\n  mstore\n    /* \"#utility.yul\":1992:1996   */\n  0x11\n    /* \"#utility.yul\":1989:1990   */\n  0x04\n    /* \"#utility.yul\":1982:1997   */\n  mstore\n    /* \"#utility.yul\":2016:2020   */\n  0x24\n    /* \"#utility.yul\":2013:2014   */\n  0x00\n    /* \"#utility.yul\":2006:2021   */\n  revert\n    /* \"#utility.yul\":2033:2213   */\ntag_60:\n    /* \"#utility.yul\":2081:2158   */\n  0x4e487b7100000000000000000000000000000000000000000000000000000000\n    /* \"#utility.yul\":2078:2079   */\n  0x00\n    /* \"#utility.yul\":2071:2159   */\n  mstore\n    /* \"#utility.yul\":2178:2182   */\n  0x22\n    /* \"#utility.yul\":2175:2176   */\n  0x04\n    /* \"#utility.yul\":2168:2183   */\n  mstore\n    /* \"#utility.yul\":2202:2206   */\n  0x24\n    /* \"#utility.yul\":2199:2200   */\n  0x00\n    /* \"#utility.yul\":2192:2207   */\n  revert\n    /* \"#utility.yul\":2219:2341   */\ntag_31:\n    /* \"#utility.yul\":2292:2316   */\n  tag_64\n    /* \"#utility.yul\":2310:2315   */\n  dup2\n    /* \"#utility.yul\":2292:2316   */\n  tag_47\n  jump\t// in\ntag_64:\n    /* \"#utility.yul\":2285:2290   */\n  dup2\n    /* \"#utility.yul\":2282:2317   */\n  eq\n    /* \"#utility.yul\":2272:2274   */\n  tag_65\n  jumpi\n    /* \"#utility.yul\":2331:2332   */\n  0x00\n    /* \"#utility.yul\":2328:2329   */\n  dup1\n    /* \"#utility.yul\":2321:2333   */\n  revert\n    /* \"#utility.yul\":2272:2274   */\ntag_65:\n    /* \"#utility.yul\":2262:2341   */\n  pop\n  jump\t// out\n    /* \"#utility.yul\":2347:2485   */\ntag_35:\n    /* \"#utility.yul\":2428:2460   */\n  tag_67\n    /* \"#utility.yul\":2454:2459   */\n  dup2\n    /* \"#utility.yul\":2428:2460   */\n  tag_51\n  jump\t// in\ntag_67:\n    /* \"#utility.yul\":2421:2426   */\n  dup2\n    /* \"#utility.yul\":2418:2461   */\n  eq\n    /* \"#utility.yul\":2408:2410   */\n  tag_68\n  jumpi\n    /* \"#utility.yul\":2475:2476   */\n  0x00\n    /* \"#utility.yul\":2472:2473   */\n  dup1\n    /* \"#utility.yul\":2465:2477   */\n  revert\n    /* \"#utility.yul\":2408:2410   */\ntag_68:\n    /* \"#utility.yul\":2398:2485   */\n  pop\n  jump\t// out\n    /* \"contracts/tokenICO.sol\":3204:7639  contract CryptosICO is Cryptos {\r... */\ntag_15:\n  dataSize(sub_0)\n  dup1\n  dataOffset(sub_0)\n  0x00\n  codecopy\n  0x00\n  return\nstop\n\nsub_0: assembly {\n        /* \"contracts/tokenICO.sol\":3204:7639  contract CryptosICO is Cryptos {\r... */\n      mstore(0x40, 0x80)\n      jumpi(tag_1, lt(calldatasize, 0x04))\n      shr(0xe0, calldataload(0x00))\n      dup1\n      0x5ed7ca5b\n      gt\n      tag_32\n      jumpi\n      dup1\n      0xc10b9358\n      gt\n      tag_33\n      jumpi\n      dup1\n      0xdd62ed3e\n      gt\n      tag_34\n      jumpi\n      dup1\n      0xdd62ed3e\n      eq\n      tag_28\n      jumpi\n      dup1\n      0xe8b5e51f\n      eq\n      tag_29\n      jumpi\n      dup1\n      0xf851a440\n      eq\n      tag_30\n      jumpi\n      dup1\n      0xfb86a404\n      eq\n      tag_31\n      jumpi\n      jump(tag_2)\n    tag_34:\n      dup1\n      0xc10b9358\n      eq\n      tag_24\n      jumpi\n      dup1\n      0xc59ee1dc\n      eq\n      tag_25\n      jumpi\n      dup1\n      0xcc9ba583\n      eq\n      tag_26\n      jumpi\n      dup1\n      0xd0e30db0\n      eq\n      tag_27\n      jumpi\n      jump(tag_2)\n    tag_33:\n      dup1\n      0x8ac2c680\n      gt\n      tag_35\n      jumpi\n      dup1\n      0x8ac2c680\n      eq\n      tag_20\n      jumpi\n      dup1\n      0x95d89b41\n      eq\n      tag_21\n      jumpi\n      dup1\n      0xa9059cbb\n      eq\n      tag_22\n      jumpi\n      dup1\n      0xab0bcc41\n      eq\n      tag_23\n      jumpi\n      jump(tag_2)\n    tag_35:\n      dup1\n      0x5ed7ca5b\n      eq\n      tag_17\n      jumpi\n      dup1\n      0x6d58c88f\n      eq\n      tag_18\n      jumpi\n      dup1\n      0x70a08231\n      eq\n      tag_19\n      jumpi\n      jump(tag_2)\n    tag_32:\n      dup1\n      0x313ce567\n      gt\n      tag_36\n      jumpi\n      dup1\n      0x44df8e70\n      gt\n      tag_37\n      jumpi\n      dup1\n      0x44df8e70\n      eq\n      tag_13\n      jumpi\n      dup1\n      0x44f38756\n      eq\n      tag_14\n      jumpi\n      dup1\n      0x4d853ee5\n      eq\n      tag_15\n      jumpi\n      dup1\n      0x55a373d6\n      eq\n      tag_16\n      jumpi\n      jump(tag_2)\n    tag_37:\n      dup1\n      0x313ce567\n      eq\n      tag_10\n      jumpi\n      dup1\n      0x378aa701\n      eq\n      tag_11\n      jumpi\n      dup1\n      0x380d831b\n      eq\n      tag_12\n      jumpi\n      jump(tag_2)\n    tag_36:\n      dup1\n      0x095ea7b3\n      gt\n      tag_38\n      jumpi\n      dup1\n      0x095ea7b3\n      eq\n      tag_6\n      jumpi\n      dup1\n      0x18160ddd\n      eq\n      tag_7\n      jumpi\n      dup1\n      0x23b872dd\n      eq\n      tag_8\n      jumpi\n      dup1\n      0x27e235e3\n      eq\n      tag_9\n      jumpi\n      jump(tag_2)\n    tag_38:\n      dup1\n      0x2e1316\n      eq\n      tag_3\n      jumpi\n      dup1\n      0x046f7da2\n      eq\n      tag_4\n      jumpi\n      dup1\n      0x06fdde03\n      eq\n      tag_5\n      jumpi\n      jump(tag_2)\n    tag_1:\n      jumpi(tag_2, calldatasize)\n        /* \"contracts/tokenICO.sol\":6053:6061  invest() */\n      tag_41\n        /* \"contracts/tokenICO.sol\":6053:6059  invest */\n      tag_42\n        /* \"contracts/tokenICO.sol\":6053:6061  invest() */\n      jump\t// in\n    tag_41:\n      pop\n        /* \"contracts/tokenICO.sol\":3204:7639  contract CryptosICO is Cryptos {\r... */\n      stop\n    tag_2:\n      0x00\n      dup1\n      revert\n        /* \"contracts/tokenICO.sol\":3739:3777  uint256 public maxInvestment = 5 ether */\n    tag_3:\n      callvalue\n      dup1\n      iszero\n      tag_43\n      jumpi\n      0x00\n      dup1\n      revert\n    tag_43:\n      pop\n      tag_44\n      tag_45\n      jump\t// in\n    tag_44:\n      mload(0x40)\n      tag_46\n      swap2\n      swap1\n      tag_47\n      jump\t// in\n    tag_46:\n      mload(0x40)\n      dup1\n      swap2\n      sub\n      swap1\n      return\n        /* \"contracts/tokenICO.sol\":4399:4477  function resume() public onlyAdmin {\r... */\n    tag_4:\n      callvalue\n      dup1\n      iszero\n      tag_48\n      jumpi\n      0x00\n      dup1\n      revert\n    tag_48:\n      pop\n      tag_49\n      tag_50\n      jump\t// in\n    tag_49:\n      stop\n        /* \"contracts/tokenICO.sol\":1245:1275  string public name = \"Cryptos\" */\n    tag_5:\n      callvalue\n      dup1\n      iszero\n      tag_51\n      jumpi\n      0x00\n      dup1\n      revert\n    tag_51:\n      pop\n      tag_52\n      tag_53\n      jump\t// in\n    tag_52:\n      mload(0x40)\n      tag_54\n      swap2\n      swap1\n      tag_55\n      jump\t// in\n    tag_54:\n      mload(0x40)\n      dup1\n      swap2\n      sub\n      swap1\n      return\n        /* \"contracts/tokenICO.sol\":2477:2813  function approve(address spender, uint256 tokens)\r... */\n    tag_6:\n      callvalue\n      dup1\n      iszero\n      tag_56\n      jumpi\n      0x00\n      dup1\n      revert\n    tag_56:\n      pop\n      tag_57\n      0x04\n      dup1\n      calldatasize\n      sub\n      dup2\n      add\n      swap1\n      tag_58\n      swap2\n      swap1\n      tag_59\n      jump\t// in\n    tag_58:\n      tag_60\n      jump\t// in\n    tag_57:\n      mload(0x40)\n      tag_61\n      swap2\n      swap1\n      tag_62\n      jump\t// in\n    tag_61:\n      mload(0x40)\n      dup1\n      swap2\n      sub\n      swap1\n      return\n        /* \"contracts/tokenICO.sol\":1352:1387  uint256 public override totalSupply */\n    tag_7:\n      callvalue\n      dup1\n      iszero\n      tag_63\n      jumpi\n      0x00\n      dup1\n      revert\n    tag_63:\n      pop\n      tag_64\n      tag_65\n      jump\t// in\n    tag_64:\n      mload(0x40)\n      tag_66\n      swap2\n      swap1\n      tag_47\n      jump\t// in\n    tag_66:\n      mload(0x40)\n      dup1\n      swap2\n      sub\n      swap1\n      return\n        /* \"contracts/tokenICO.sol\":7261:7636  function transferFrom(\r... */\n    tag_8:\n      callvalue\n      dup1\n      iszero\n      tag_67\n      jumpi\n      0x00\n      dup1\n      revert\n    tag_67:\n      pop\n      tag_68\n      0x04\n      dup1\n      calldatasize\n      sub\n      dup2\n      add\n      swap1\n      tag_69\n      swap2\n      swap1\n      tag_70\n      jump\t// in\n    tag_69:\n      tag_71\n      jump\t// in\n    tag_68:\n      mload(0x40)\n      tag_72\n      swap2\n      swap1\n      tag_62\n      jump\t// in\n    tag_72:\n      mload(0x40)\n      dup1\n      swap2\n      sub\n      swap1\n      return\n        /* \"contracts/tokenICO.sol\":1425:1468  mapping(address => uint256) public balances */\n    tag_9:\n      callvalue\n      dup1\n      iszero\n      tag_73\n      jumpi\n      0x00\n      dup1\n      revert\n    tag_73:\n      pop\n      tag_74\n      0x04\n      dup1\n      calldatasize\n      sub\n      dup2\n      add\n      swap1\n      tag_75\n      swap2\n      swap1\n      tag_76\n      jump\t// in\n    tag_75:\n      tag_77\n      jump\t// in\n    tag_74:\n      mload(0x40)\n      tag_78\n      swap2\n      swap1\n      tag_47\n      jump\t// in\n    tag_78:\n      mload(0x40)\n      dup1\n      swap2\n      sub\n      swap1\n      return\n        /* \"contracts/tokenICO.sol\":1318:1345  uint256 public decimals = 0 */\n    tag_10:\n      callvalue\n      dup1\n      iszero\n      tag_79\n      jumpi\n      0x00\n      dup1\n      revert\n    tag_79:\n      pop\n      tag_80\n      tag_81\n      jump\t// in\n    tag_80:\n      mload(0x40)\n      tag_82\n      swap2\n      swap1\n      tag_47\n      jump\t// in\n    tag_82:\n      mload(0x40)\n      dup1\n      swap2\n      sub\n      swap1\n      return\n        /* \"contracts/tokenICO.sol\":4607:5017  function getCurrentState() public view returns (State) {\r... */\n    tag_11:\n      callvalue\n      dup1\n      iszero\n      tag_83\n      jumpi\n      0x00\n      dup1\n      revert\n    tag_83:\n      pop\n      tag_84\n      tag_85\n      jump\t// in\n    tag_84:\n      mload(0x40)\n      tag_86\n      swap2\n      swap1\n      tag_87\n      jump\t// in\n    tag_86:\n      mload(0x40)\n      dup1\n      swap2\n      sub\n      swap1\n      return\n        /* \"contracts/tokenICO.sol\":6852:7253  function endSale() public {\r... */\n    tag_12:\n      callvalue\n      dup1\n      iszero\n      tag_88\n      jumpi\n      0x00\n      dup1\n      revert\n    tag_88:\n      pop\n      tag_89\n      tag_90\n      jump\t// in\n    tag_89:\n      stop\n        /* \"contracts/tokenICO.sol\":6107:6292  function burn() public returns (bool) {\r... */\n    tag_13:\n      callvalue\n      dup1\n      iszero\n      tag_91\n      jumpi\n      0x00\n      dup1\n      revert\n    tag_91:\n      pop\n      tag_92\n      tag_93\n      jump\t// in\n    tag_92:\n      mload(0x40)\n      tag_94\n      swap2\n      swap1\n      tag_62\n      jump\t// in\n    tag_94:\n      mload(0x40)\n      dup1\n      swap2\n      sub\n      swap1\n      return\n        /* \"contracts/tokenICO.sol\":3947:3968  State public icoState */\n    tag_14:\n      callvalue\n      dup1\n      iszero\n      tag_95\n      jumpi\n      0x00\n      dup1\n      revert\n    tag_95:\n      pop\n      tag_96\n      tag_97\n      jump\t// in\n    tag_96:\n      mload(0x40)\n      tag_98\n      swap2\n      swap1\n      tag_87\n      jump\t// in\n    tag_98:\n      mload(0x40)\n      dup1\n      swap2\n      sub\n      swap1\n      return\n        /* \"contracts/tokenICO.sol\":1396:1418  address public founder */\n    tag_15:\n      callvalue\n      dup1\n      iszero\n      tag_99\n      jumpi\n      0x00\n      dup1\n      revert\n    tag_99:\n      pop\n      tag_100\n      tag_101\n      jump\t// in\n    tag_100:\n      mload(0x40)\n      tag_102\n      swap2\n      swap1\n      tag_103\n      jump\t// in\n    tag_102:\n      mload(0x40)\n      dup1\n      swap2\n      sub\n      swap1\n      return\n        /* \"contracts/tokenICO.sol\":3602:3637  ERC20Interface public tokenContract */\n    tag_16:\n      callvalue\n      dup1\n      iszero\n      tag_104\n      jumpi\n      0x00\n      dup1\n      revert\n    tag_104:\n      pop\n      tag_105\n      tag_106\n      jump\t// in\n    tag_105:\n      mload(0x40)\n      tag_107\n      swap2\n      swap1\n      tag_108\n      jump\t// in\n    tag_107:\n      mload(0x40)\n      dup1\n      swap2\n      sub\n      swap1\n      return\n        /* \"contracts/tokenICO.sol\":4316:4391  function halt() public onlyAdmin {\r... */\n    tag_17:\n      callvalue\n      dup1\n      iszero\n      tag_109\n      jumpi\n      0x00\n      dup1\n      revert\n    tag_109:\n      pop\n      tag_110\n      tag_111\n      jump\t// in\n    tag_110:\n      stop\n        /* \"contracts/tokenICO.sol\":4485:4599  function changeDepositAddress(address payable newDeposit) public onlyAdmin {\r... */\n    tag_18:\n      callvalue\n      dup1\n      iszero\n      tag_112\n      jumpi\n      0x00\n      dup1\n      revert\n    tag_112:\n      pop\n      tag_113\n      0x04\n      dup1\n      calldatasize\n      sub\n      dup2\n      add\n      swap1\n      tag_114\n      swap2\n      swap1\n      tag_115\n      jump\t// in\n    tag_114:\n      tag_116\n      jump\t// in\n    tag_113:\n      stop\n        /* \"contracts/tokenICO.sol\":1750:1923  function balanceOf(address tokenOwner)\r... */\n    tag_19:\n      callvalue\n      dup1\n      iszero\n      tag_117\n      jumpi\n      0x00\n      dup1\n      revert\n    tag_117:\n      pop\n      tag_118\n      0x04\n      dup1\n      calldatasize\n      sub\n      dup2\n      add\n      swap1\n      tag_119\n      swap2\n      swap1\n      tag_76\n      jump\t// in\n    tag_119:\n      tag_120\n      jump\t// in\n    tag_118:\n      mload(0x40)\n      tag_121\n      swap2\n      swap1\n      tag_47\n      jump\t// in\n    tag_121:\n      mload(0x40)\n      dup1\n      swap2\n      sub\n      swap1\n      return\n        /* \"contracts/tokenICO.sol\":3784:3824  uint256 public minInvestment = 0.1 ether */\n    tag_20:\n      callvalue\n      dup1\n      iszero\n      tag_122\n      jumpi\n      0x00\n      dup1\n      revert\n    tag_122:\n      pop\n      tag_123\n      tag_124\n      jump\t// in\n    tag_123:\n      mload(0x40)\n      tag_125\n      swap2\n      swap1\n      tag_47\n      jump\t// in\n    tag_125:\n      mload(0x40)\n      dup1\n      swap2\n      sub\n      swap1\n      return\n        /* \"contracts/tokenICO.sol\":1282:1311  string public symbol = \"CRPT\" */\n    tag_21:\n      callvalue\n      dup1\n      iszero\n      tag_126\n      jumpi\n      0x00\n      dup1\n      revert\n    tag_126:\n      pop\n      tag_127\n      tag_128\n      jump\t// in\n    tag_127:\n      mload(0x40)\n      tag_129\n      swap2\n      swap1\n      tag_55\n      jump\t// in\n    tag_129:\n      mload(0x40)\n      dup1\n      swap2\n      sub\n      swap1\n      return\n        /* \"contracts/tokenICO.sol\":6440:6844  function transfer(address to, uint256 tokens)\r... */\n    tag_22:\n      callvalue\n      dup1\n      iszero\n      tag_130\n      jumpi\n      0x00\n      dup1\n      revert\n    tag_130:\n      pop\n      tag_131\n      0x04\n      dup1\n      calldatasize\n      sub\n      dup2\n      add\n      swap1\n      tag_132\n      swap2\n      swap1\n      tag_59\n      jump\t// in\n    tag_132:\n      tag_133\n      jump\t// in\n    tag_131:\n      mload(0x40)\n      tag_134\n      swap2\n      swap1\n      tag_62\n      jump\t// in\n    tag_134:\n      mload(0x40)\n      dup1\n      swap2\n      sub\n      swap1\n      return\n        /* \"contracts/tokenICO.sol\":3486:3528  uint256 public saleStart = block.timestamp */\n    tag_23:\n      callvalue\n      dup1\n      iszero\n      tag_135\n      jumpi\n      0x00\n      dup1\n      revert\n    tag_135:\n      pop\n      tag_136\n      tag_137\n      jump\t// in\n    tag_136:\n      mload(0x40)\n      tag_138\n      swap2\n      swap1\n      tag_47\n      jump\t// in\n    tag_138:\n      mload(0x40)\n      dup1\n      swap2\n      sub\n      swap1\n      return\n        /* \"contracts/tokenICO.sol\":3535:3584  uint256 public saleEnd = block.timestamp + 604800 */\n    tag_24:\n      callvalue\n      dup1\n      iszero\n      tag_139\n      jumpi\n      0x00\n      dup1\n      revert\n    tag_139:\n      pop\n      tag_140\n      tag_141\n      jump\t// in\n    tag_140:\n      mload(0x40)\n      tag_142\n      swap2\n      swap1\n      tag_47\n      jump\t// in\n    tag_142:\n      mload(0x40)\n      dup1\n      swap2\n      sub\n      swap1\n      return\n        /* \"contracts/tokenICO.sol\":3423:3450  uint256 public raisedAmount */\n    tag_25:\n      callvalue\n      dup1\n      iszero\n      tag_143\n      jumpi\n      0x00\n      dup1\n      revert\n    tag_143:\n      pop\n      tag_144\n      tag_145\n      jump\t// in\n    tag_144:\n      mload(0x40)\n      tag_146\n      swap2\n      swap1\n      tag_47\n      jump\t// in\n    tag_146:\n      mload(0x40)\n      dup1\n      swap2\n      sub\n      swap1\n      return\n        /* \"contracts/tokenICO.sol\":3644:3693  uint256 public tokenTradeStart = saleEnd + 604800 */\n    tag_26:\n      callvalue\n      dup1\n      iszero\n      tag_147\n      jumpi\n      0x00\n      dup1\n      revert\n    tag_147:\n      pop\n      tag_148\n      tag_149\n      jump\t// in\n    tag_148:\n      mload(0x40)\n      tag_150\n      swap2\n      swap1\n      tag_47\n      jump\t// in\n    tag_150:\n      mload(0x40)\n      dup1\n      swap2\n      sub\n      swap1\n      return\n        /* \"contracts/tokenICO.sol\":3269:3299  address payable public deposit */\n    tag_27:\n      callvalue\n      dup1\n      iszero\n      tag_151\n      jumpi\n      0x00\n      dup1\n      revert\n    tag_151:\n      pop\n      tag_152\n      tag_153\n      jump\t// in\n    tag_152:\n      mload(0x40)\n      tag_154\n      swap2\n      swap1\n      tag_155\n      jump\t// in\n    tag_154:\n      mload(0x40)\n      dup1\n      swap2\n      sub\n      swap1\n      return\n        /* \"contracts/tokenICO.sol\":2279:2469  function allowance(address tokenOwner, address spender)\r... */\n    tag_28:\n      callvalue\n      dup1\n      iszero\n      tag_156\n      jumpi\n      0x00\n      dup1\n      revert\n    tag_156:\n      pop\n      tag_157\n      0x04\n      dup1\n      calldatasize\n      sub\n      dup2\n      add\n      swap1\n      tag_158\n      swap2\n      swap1\n      tag_159\n      jump\t// in\n    tag_158:\n      tag_160\n      jump\t// in\n    tag_157:\n      mload(0x40)\n      tag_161\n      swap2\n      swap1\n      tag_47\n      jump\t// in\n    tag_161:\n      mload(0x40)\n      dup1\n      swap2\n      sub\n      swap1\n      return\n        /* \"contracts/tokenICO.sol\":5152:5912  function invest() public payable returns (bool) {\r... */\n    tag_29:\n      tag_162\n      tag_42\n      jump\t// in\n    tag_162:\n      mload(0x40)\n      tag_163\n      swap2\n      swap1\n      tag_62\n      jump\t// in\n    tag_163:\n      mload(0x40)\n      dup1\n      swap2\n      sub\n      swap1\n      return\n        /* \"contracts/tokenICO.sol\":3242:3262  address public admin */\n    tag_30:\n      callvalue\n      dup1\n      iszero\n      tag_164\n      jumpi\n      0x00\n      dup1\n      revert\n    tag_164:\n      pop\n      tag_165\n      tag_166\n      jump\t// in\n    tag_165:\n      mload(0x40)\n      tag_167\n      swap2\n      swap1\n      tag_103\n      jump\t// in\n    tag_167:\n      mload(0x40)\n      dup1\n      swap2\n      sub\n      swap1\n      return\n        /* \"contracts/tokenICO.sol\":3382:3416  uint256 public hardCap = 300 ether */\n    tag_31:\n      callvalue\n      dup1\n      iszero\n      tag_168\n      jumpi\n      0x00\n      dup1\n      revert\n    tag_168:\n      pop\n      tag_169\n      tag_170\n      jump\t// in\n    tag_169:\n      mload(0x40)\n      tag_171\n      swap2\n      swap1\n      tag_47\n      jump\t// in\n    tag_171:\n      mload(0x40)\n      dup1\n      swap2\n      sub\n      swap1\n      return\n        /* \"contracts/tokenICO.sol\":5152:5912  function invest() public payable returns (bool) {\r... */\n    tag_42:\n        /* \"contracts/tokenICO.sol\":5194:5198  bool */\n      0x00\n        /* \"contracts/tokenICO.sol\":5222:5239  getCurrentState() */\n      tag_173\n        /* \"contracts/tokenICO.sol\":5222:5237  getCurrentState */\n      tag_85\n        /* \"contracts/tokenICO.sol\":5222:5239  getCurrentState() */\n      jump\t// in\n    tag_173:\n        /* \"contracts/tokenICO.sol\":5211:5219  icoState */\n      0x12\n      0x00\n        /* \"contracts/tokenICO.sol\":5211:5239  icoState = getCurrentState() */\n      0x0100\n      exp\n      dup2\n      sload\n      dup2\n      0xff\n      mul\n      not\n      and\n      swap1\n      dup4\n      0x03\n      dup2\n      gt\n      iszero\n      tag_174\n      jumpi\n      mstore(0x00, 0x4e487b7100000000000000000000000000000000000000000000000000000000)\n      mstore(0x04, 0x21)\n      revert(0x00, 0x24)\n    tag_174:\n      mul\n      or\n      swap1\n      sstore\n      pop\n        /* \"contracts/tokenICO.sol\":5270:5283  State.running */\n      0x01\n        /* \"contracts/tokenICO.sol\":5258:5283  icoState == State.running */\n      0x03\n      dup2\n      gt\n      iszero\n      tag_175\n      jumpi\n      mstore(0x00, 0x4e487b7100000000000000000000000000000000000000000000000000000000)\n      mstore(0x04, 0x21)\n      revert(0x00, 0x24)\n    tag_175:\n        /* \"contracts/tokenICO.sol\":5258:5266  icoState */\n      0x12\n      0x00\n      swap1\n      sload\n      swap1\n      0x0100\n      exp\n      swap1\n      div\n      0xff\n      and\n        /* \"contracts/tokenICO.sol\":5258:5283  icoState == State.running */\n      0x03\n      dup2\n      gt\n      iszero\n      tag_176\n      jumpi\n      mstore(0x00, 0x4e487b7100000000000000000000000000000000000000000000000000000000)\n      mstore(0x04, 0x21)\n      revert(0x00, 0x24)\n    tag_176:\n      eq\n        /* \"contracts/tokenICO.sol\":5250:5284  require(icoState == State.running) */\n      tag_177\n      jumpi\n      0x00\n      dup1\n      revert\n    tag_177:\n        /* \"contracts/tokenICO.sol\":5316:5329  minInvestment */\n      sload(0x11)\n        /* \"contracts/tokenICO.sol\":5303:5312  msg.value */\n      callvalue\n        /* \"contracts/tokenICO.sol\":5303:5329  msg.value >= minInvestment */\n      lt\n      iszero\n        /* \"contracts/tokenICO.sol\":5303:5359  msg.value >= minInvestment && msg.value <= maxInvestment */\n      dup1\n      iszero\n      tag_178\n      jumpi\n      pop\n        /* \"contracts/tokenICO.sol\":5346:5359  maxInvestment */\n      sload(0x10)\n        /* \"contracts/tokenICO.sol\":5333:5342  msg.value */\n      callvalue\n        /* \"contracts/tokenICO.sol\":5333:5359  msg.value <= maxInvestment */\n      gt\n      iszero\n        /* \"contracts/tokenICO.sol\":5303:5359  msg.value >= minInvestment && msg.value <= maxInvestment */\n    tag_178:\n        /* \"contracts/tokenICO.sol\":5295:5360  require(msg.value >= minInvestment && msg.value <= maxInvestment) */\n      tag_179\n      jumpi\n      0x00\n      dup1\n      revert\n    tag_179:\n        /* \"contracts/tokenICO.sol\":5389:5398  msg.value */\n      callvalue\n        /* \"contracts/tokenICO.sol\":5373:5385  raisedAmount */\n      0x0b\n      0x00\n        /* \"contracts/tokenICO.sol\":5373:5398  raisedAmount += msg.value */\n      dup3\n      dup3\n      sload\n      tag_180\n      swap2\n      swap1\n      tag_181\n      jump\t// in\n    tag_180:\n      swap3\n      pop\n      pop\n      dup2\n      swap1\n      sstore\n      pop\n        /* \"contracts/tokenICO.sol\":5433:5440  hardCap */\n      sload(0x0a)\n        /* \"contracts/tokenICO.sol\":5417:5429  raisedAmount */\n      sload(0x0b)\n        /* \"contracts/tokenICO.sol\":5417:5440  raisedAmount <= hardCap */\n      gt\n      iszero\n        /* \"contracts/tokenICO.sol\":5409:5441  require(raisedAmount <= hardCap) */\n      tag_182\n      jumpi\n      0x00\n      dup1\n      revert\n    tag_182:\n        /* \"contracts/tokenICO.sol\":5452:5466  uint256 tokens */\n      0x00\n        /* \"contracts/tokenICO.sol\":5481:5491  tokenPrice */\n      sload(0x09)\n        /* \"contracts/tokenICO.sol\":5469:5478  msg.value */\n      callvalue\n        /* \"contracts/tokenICO.sol\":5469:5491  msg.value / tokenPrice */\n      tag_183\n      swap2\n      swap1\n      tag_184\n      jump\t// in\n    tag_183:\n        /* \"contracts/tokenICO.sol\":5452:5491  uint256 tokens = msg.value / tokenPrice */\n      swap1\n      pop\n        /* \"contracts/tokenICO.sol\":5510:5523  tokenContract */\n      0x0e\n      0x00\n      swap1\n      sload\n      swap1\n      0x0100\n      exp\n      swap1\n      div\n      0xffffffffffffffffffffffffffffffffffffffff\n      and\n        /* \"contracts/tokenICO.sol\":5510:5532  tokenContract.transfer */\n      0xffffffffffffffffffffffffffffffffffffffff\n      and\n      0xa9059cbb\n        /* \"contracts/tokenICO.sol\":5533:5543  msg.sender */\n      caller\n        /* \"contracts/tokenICO.sol\":5554:5560  10**18 */\n      0x0de0b6b3a7640000\n        /* \"contracts/tokenICO.sol\":5545:5551  tokens */\n      dup5\n        /* \"contracts/tokenICO.sol\":5545:5560  tokens * 10**18 */\n      tag_185\n      swap2\n      swap1\n      tag_186\n      jump\t// in\n    tag_185:\n        /* \"contracts/tokenICO.sol\":5510:5561  tokenContract.transfer(msg.sender, tokens * 10**18) */\n      mload(0x40)\n      dup4\n      0xffffffff\n      and\n      0xe0\n      shl\n      dup2\n      mstore\n      0x04\n      add\n      tag_187\n      swap3\n      swap2\n      swap1\n      tag_188\n      jump\t// in\n    tag_187:\n      0x20\n      mload(0x40)\n      dup1\n      dup4\n      sub\n      dup2\n      0x00\n      dup8\n      dup1\n      extcodesize\n      iszero\n      dup1\n      iszero\n      tag_189\n      jumpi\n      0x00\n      dup1\n      revert\n    tag_189:\n      pop\n      gas\n      call\n      iszero\n      dup1\n      iszero\n      tag_191\n      jumpi\n      returndatasize\n      0x00\n      dup1\n      returndatacopy\n      revert(0x00, returndatasize)\n    tag_191:\n      pop\n      pop\n      pop\n      pop\n      mload(0x40)\n      returndatasize\n      not(0x1f)\n      0x1f\n      dup3\n      add\n      and\n      dup3\n      add\n      dup1\n      0x40\n      mstore\n      pop\n      dup2\n      add\n      swap1\n      tag_192\n      swap2\n      swap1\n      tag_193\n      jump\t// in\n    tag_192:\n        /* \"contracts/tokenICO.sol\":5502:5562  require(tokenContract.transfer(msg.sender, tokens * 10**18)) */\n      tag_194\n      jumpi\n      0x00\n      dup1\n      revert\n    tag_194:\n        /* \"contracts/tokenICO.sol\":5679:5685  tokens */\n      dup1\n        /* \"contracts/tokenICO.sol\":5655:5663  balances */\n      0x05\n        /* \"contracts/tokenICO.sol\":5655:5675  balances[msg.sender] */\n      0x00\n        /* \"contracts/tokenICO.sol\":5664:5674  msg.sender */\n      caller\n        /* \"contracts/tokenICO.sol\":5655:5675  balances[msg.sender] */\n      0xffffffffffffffffffffffffffffffffffffffff\n      and\n      0xffffffffffffffffffffffffffffffffffffffff\n      and\n      dup2\n      mstore\n      0x20\n      add\n      swap1\n      dup2\n      mstore\n      0x20\n      add\n      0x00\n      keccak256\n      0x00\n        /* \"contracts/tokenICO.sol\":5655:5685  balances[msg.sender] += tokens */\n      dup3\n      dup3\n      sload\n      tag_195\n      swap2\n      swap1\n      tag_181\n      jump\t// in\n    tag_195:\n      swap3\n      pop\n      pop\n      dup2\n      swap1\n      sstore\n      pop\n        /* \"contracts/tokenICO.sol\":5717:5723  tokens */\n      dup1\n        /* \"contracts/tokenICO.sol\":5696:5704  balances */\n      0x05\n        /* \"contracts/tokenICO.sol\":5696:5713  balances[founder] */\n      0x00\n        /* \"contracts/tokenICO.sol\":5705:5712  founder */\n      0x04\n      0x00\n      swap1\n      sload\n      swap1\n      0x0100\n      exp\n      swap1\n      div\n      0xffffffffffffffffffffffffffffffffffffffff\n      and\n        /* \"contracts/tokenICO.sol\":5696:5713  balances[founder] */\n      0xffffffffffffffffffffffffffffffffffffffff\n      and\n      0xffffffffffffffffffffffffffffffffffffffff\n      and\n      dup2\n      mstore\n      0x20\n      add\n      swap1\n      dup2\n      mstore\n      0x20\n      add\n      0x00\n      keccak256\n      0x00\n        /* \"contracts/tokenICO.sol\":5696:5723  balances[founder] -= tokens */\n      dup3\n      dup3\n      sload\n      tag_196\n      swap2\n      swap1\n      tag_197\n      jump\t// in\n    tag_196:\n      swap3\n      pop\n      pop\n      dup2\n      swap1\n      sstore\n      pop\n        /* \"contracts/tokenICO.sol\":5734:5741  deposit */\n      0x08\n      0x00\n      swap1\n      sload\n      swap1\n      0x0100\n      exp\n      swap1\n      div\n      0xffffffffffffffffffffffffffffffffffffffff\n      and\n        /* \"contracts/tokenICO.sol\":5734:5750  deposit.transfer */\n      0xffffffffffffffffffffffffffffffffffffffff\n      and\n        /* \"contracts/tokenICO.sol\":5734:5761  deposit.transfer(msg.value) */\n      0x08fc\n        /* \"contracts/tokenICO.sol\":5751:5760  msg.value */\n      callvalue\n        /* \"contracts/tokenICO.sol\":5734:5761  deposit.transfer(msg.value) */\n      swap1\n      dup2\n      iszero\n      mul\n      swap1\n      mload(0x40)\n      0x00\n      mload(0x40)\n      dup1\n      dup4\n      sub\n      dup2\n      dup6\n      dup9\n      dup9\n      call\n      swap4\n      pop\n      pop\n      pop\n      pop\n      iszero\n      dup1\n      iszero\n      tag_199\n      jumpi\n      returndatasize\n      0x00\n      dup1\n      returndatacopy\n      revert(0x00, returndatasize)\n    tag_199:\n      pop\n        /* \"contracts/tokenICO.sol\":5843:5880  Invest(msg.sender, msg.value, tokens) */\n      0x4ae4bd7655e0d350876a23cd90c4227b13db560e34435c6a488150a9c844bf5f\n        /* \"contracts/tokenICO.sol\":5850:5860  msg.sender */\n      caller\n        /* \"contracts/tokenICO.sol\":5862:5871  msg.value */\n      callvalue\n        /* \"contracts/tokenICO.sol\":5873:5879  tokens */\n      dup4\n        /* \"contracts/tokenICO.sol\":5843:5880  Invest(msg.sender, msg.value, tokens) */\n      mload(0x40)\n      tag_200\n      swap4\n      swap3\n      swap2\n      swap1\n      tag_201\n      jump\t// in\n    tag_200:\n      mload(0x40)\n      dup1\n      swap2\n      sub\n      swap1\n      log1\n        /* \"contracts/tokenICO.sol\":5900:5904  true */\n      0x01\n        /* \"contracts/tokenICO.sol\":5893:5904  return true */\n      swap2\n      pop\n      pop\n        /* \"contracts/tokenICO.sol\":5152:5912  function invest() public payable returns (bool) {\r... */\n      swap1\n      jump\t// out\n        /* \"contracts/tokenICO.sol\":3739:3777  uint256 public maxInvestment = 5 ether */\n    tag_45:\n      sload(0x10)\n      dup2\n      jump\t// out\n        /* \"contracts/tokenICO.sol\":4399:4477  function resume() public onlyAdmin {\r... */\n    tag_50:\n        /* \"contracts/tokenICO.sol\":4259:4264  admin */\n      0x07\n      0x00\n      swap1\n      sload\n      swap1\n      0x0100\n      exp\n      swap1\n      div\n      0xffffffffffffffffffffffffffffffffffffffff\n      and\n        /* \"contracts/tokenICO.sol\":4245:4264  msg.sender == admin */\n      0xffffffffffffffffffffffffffffffffffffffff\n      and\n        /* \"contracts/tokenICO.sol\":4245:4255  msg.sender */\n      caller\n        /* \"contracts/tokenICO.sol\":4245:4264  msg.sender == admin */\n      0xffffffffffffffffffffffffffffffffffffffff\n      and\n      eq\n        /* \"contracts/tokenICO.sol\":4237:4265  require(msg.sender == admin) */\n      tag_203\n      jumpi\n      0x00\n      dup1\n      revert\n    tag_203:\n        /* \"contracts/tokenICO.sol\":4456:4469  State.running */\n      0x01\n        /* \"contracts/tokenICO.sol\":4445:4453  icoState */\n      0x12\n      0x00\n        /* \"contracts/tokenICO.sol\":4445:4469  icoState = State.running */\n      0x0100\n      exp\n      dup2\n      sload\n      dup2\n      0xff\n      mul\n      not\n      and\n      swap1\n      dup4\n      0x03\n      dup2\n      gt\n      iszero\n      tag_205\n      jumpi\n      mstore(0x00, 0x4e487b7100000000000000000000000000000000000000000000000000000000)\n      mstore(0x04, 0x21)\n      revert(0x00, 0x24)\n    tag_205:\n      mul\n      or\n      swap1\n      sstore\n      pop\n        /* \"contracts/tokenICO.sol\":4399:4477  function resume() public onlyAdmin {\r... */\n      jump\t// out\n        /* \"contracts/tokenICO.sol\":1245:1275  string public name = \"Cryptos\" */\n    tag_53:\n      0x00\n      dup1\n      sload\n      tag_206\n      swap1\n      tag_207\n      jump\t// in\n    tag_206:\n      dup1\n      0x1f\n      add\n      0x20\n      dup1\n      swap2\n      div\n      mul\n      0x20\n      add\n      mload(0x40)\n      swap1\n      dup2\n      add\n      0x40\n      mstore\n      dup1\n      swap3\n      swap2\n      swap1\n      dup2\n      dup2\n      mstore\n      0x20\n      add\n      dup3\n      dup1\n      sload\n      tag_208\n      swap1\n      tag_207\n      jump\t// in\n    tag_208:\n      dup1\n      iszero\n      tag_209\n      jumpi\n      dup1\n      0x1f\n      lt\n      tag_210\n      jumpi\n      0x0100\n      dup1\n      dup4\n      sload\n      div\n      mul\n      dup4\n      mstore\n      swap2\n      0x20\n      add\n      swap2\n      jump(tag_209)\n    tag_210:\n      dup3\n      add\n      swap2\n      swap1\n      0x00\n      mstore\n      keccak256(0x00, 0x20)\n      swap1\n    tag_211:\n      dup2\n      sload\n      dup2\n      mstore\n      swap1\n      0x01\n      add\n      swap1\n      0x20\n      add\n      dup1\n      dup4\n      gt\n      tag_211\n      jumpi\n      dup3\n      swap1\n      sub\n      0x1f\n      and\n      dup3\n      add\n      swap2\n    tag_209:\n      pop\n      pop\n      pop\n      pop\n      pop\n      dup2\n      jump\t// out\n        /* \"contracts/tokenICO.sol\":2477:2813  function approve(address spender, uint256 tokens)\r... */\n    tag_60:\n        /* \"contracts/tokenICO.sol\":2579:2591  bool success */\n      0x00\n        /* \"contracts/tokenICO.sol\":2641:2647  tokens */\n      dup2\n        /* \"contracts/tokenICO.sol\":2617:2625  balances */\n      0x05\n        /* \"contracts/tokenICO.sol\":2617:2637  balances[msg.sender] */\n      0x00\n        /* \"contracts/tokenICO.sol\":2626:2636  msg.sender */\n      caller\n        /* \"contracts/tokenICO.sol\":2617:2637  balances[msg.sender] */\n      0xffffffffffffffffffffffffffffffffffffffff\n      and\n      0xffffffffffffffffffffffffffffffffffffffff\n      and\n      dup2\n      mstore\n      0x20\n      add\n      swap1\n      dup2\n      mstore\n      0x20\n      add\n      0x00\n      keccak256\n      sload\n        /* \"contracts/tokenICO.sol\":2617:2647  balances[msg.sender] >= tokens */\n      lt\n      iszero\n        /* \"contracts/tokenICO.sol\":2609:2648  require(balances[msg.sender] >= tokens) */\n      tag_213\n      jumpi\n      0x00\n      dup1\n      revert\n    tag_213:\n        /* \"contracts/tokenICO.sol\":2676:2677  0 */\n      0x00\n        /* \"contracts/tokenICO.sol\":2667:2673  tokens */\n      dup3\n        /* \"contracts/tokenICO.sol\":2667:2677  tokens > 0 */\n      gt\n        /* \"contracts/tokenICO.sol\":2659:2678  require(tokens > 0) */\n      tag_214\n      jumpi\n      0x00\n      dup1\n      revert\n    tag_214:\n        /* \"contracts/tokenICO.sol\":2722:2728  tokens */\n      dup2\n        /* \"contracts/tokenICO.sol\":2691:2698  allowed */\n      0x06\n        /* \"contracts/tokenICO.sol\":2691:2710  allowed[msg.sender] */\n      0x00\n        /* \"contracts/tokenICO.sol\":2699:2709  msg.sender */\n      caller\n        /* \"contracts/tokenICO.sol\":2691:2710  allowed[msg.sender] */\n      0xffffffffffffffffffffffffffffffffffffffff\n      and\n      0xffffffffffffffffffffffffffffffffffffffff\n      and\n      dup2\n      mstore\n      0x20\n      add\n      swap1\n      dup2\n      mstore\n      0x20\n      add\n      0x00\n      keccak256\n        /* \"contracts/tokenICO.sol\":2691:2719  allowed[msg.sender][spender] */\n      0x00\n        /* \"contracts/tokenICO.sol\":2711:2718  spender */\n      dup6\n        /* \"contracts/tokenICO.sol\":2691:2719  allowed[msg.sender][spender] */\n      0xffffffffffffffffffffffffffffffffffffffff\n      and\n      0xffffffffffffffffffffffffffffffffffffffff\n      and\n      dup2\n      mstore\n      0x20\n      add\n      swap1\n      dup2\n      mstore\n      0x20\n      add\n      0x00\n      keccak256\n        /* \"contracts/tokenICO.sol\":2691:2728  allowed[msg.sender][spender] = tokens */\n      dup2\n      swap1\n      sstore\n      pop\n        /* \"contracts/tokenICO.sol\":2767:2774  spender */\n      dup3\n        /* \"contracts/tokenICO.sol\":2746:2783  Approval(msg.sender, spender, tokens) */\n      0xffffffffffffffffffffffffffffffffffffffff\n      and\n        /* \"contracts/tokenICO.sol\":2755:2765  msg.sender */\n      caller\n        /* \"contracts/tokenICO.sol\":2746:2783  Approval(msg.sender, spender, tokens) */\n      0xffffffffffffffffffffffffffffffffffffffff\n      and\n      0x8c5be1e5ebec7d5bd14f71427d1e84f3dd0314c0f7b2291e5b200ac8c7c3b925\n        /* \"contracts/tokenICO.sol\":2776:2782  tokens */\n      dup5\n        /* \"contracts/tokenICO.sol\":2746:2783  Approval(msg.sender, spender, tokens) */\n      mload(0x40)\n      tag_215\n      swap2\n      swap1\n      tag_47\n      jump\t// in\n    tag_215:\n      mload(0x40)\n      dup1\n      swap2\n      sub\n      swap1\n      log3\n        /* \"contracts/tokenICO.sol\":2801:2805  true */\n      0x01\n        /* \"contracts/tokenICO.sol\":2794:2805  return true */\n      swap1\n      pop\n        /* \"contracts/tokenICO.sol\":2477:2813  function approve(address spender, uint256 tokens)\r... */\n      swap3\n      swap2\n      pop\n      pop\n      jump\t// out\n        /* \"contracts/tokenICO.sol\":1352:1387  uint256 public override totalSupply */\n    tag_65:\n      sload(0x03)\n      dup2\n      jump\t// out\n        /* \"contracts/tokenICO.sol\":7261:7636  function transferFrom(\r... */\n    tag_71:\n        /* \"contracts/tokenICO.sol\":7384:7396  bool success */\n      0x00\n        /* \"contracts/tokenICO.sol\":7435:7450  tokenTradeStart */\n      sload(0x0f)\n        /* \"contracts/tokenICO.sol\":7417:7432  block.timestamp */\n      timestamp\n        /* \"contracts/tokenICO.sol\":7417:7450  block.timestamp > tokenTradeStart */\n      gt\n        /* \"contracts/tokenICO.sol\":7409:7451  require(block.timestamp > tokenTradeStart) */\n      tag_217\n      jumpi\n      0x00\n      dup1\n      revert\n    tag_217:\n        /* \"contracts/tokenICO.sol\":7525:7563  Cryptos.transferFrom(from, to, tokens) */\n      tag_218\n        /* \"contracts/tokenICO.sol\":7546:7550  from */\n      dup5\n        /* \"contracts/tokenICO.sol\":7552:7554  to */\n      dup5\n        /* \"contracts/tokenICO.sol\":7556:7562  tokens */\n      dup5\n        /* \"contracts/tokenICO.sol\":7525:7545  Cryptos.transferFrom */\n      tag_219\n        /* \"contracts/tokenICO.sol\":7525:7563  Cryptos.transferFrom(from, to, tokens) */\n      jump\t// in\n    tag_218:\n      pop\n        /* \"contracts/tokenICO.sol\":7624:7628  true */\n      0x01\n        /* \"contracts/tokenICO.sol\":7617:7628  return true */\n      swap1\n      pop\n        /* \"contracts/tokenICO.sol\":7261:7636  function transferFrom(\r... */\n      swap4\n      swap3\n      pop\n      pop\n      pop\n      jump\t// out\n        /* \"contracts/tokenICO.sol\":1425:1468  mapping(address => uint256) public balances */\n    tag_77:\n      mstore(0x20, 0x05)\n      dup1\n      0x00\n      mstore\n      keccak256(0x00, 0x40)\n      0x00\n      swap2\n      pop\n      swap1\n      pop\n      sload\n      dup2\n      jump\t// out\n        /* \"contracts/tokenICO.sol\":1318:1345  uint256 public decimals = 0 */\n    tag_81:\n      sload(0x02)\n      dup2\n      jump\t// out\n        /* \"contracts/tokenICO.sol\":4607:5017  function getCurrentState() public view returns (State) {\r... */\n    tag_85:\n        /* \"contracts/tokenICO.sol\":4655:4660  State */\n      0x00\n        /* \"contracts/tokenICO.sol\":4689:4701  State.halted */\n      0x03\n        /* \"contracts/tokenICO.sol\":4677:4701  icoState == State.halted */\n      dup1\n      dup2\n      gt\n      iszero\n      tag_221\n      jumpi\n      mstore(0x00, 0x4e487b7100000000000000000000000000000000000000000000000000000000)\n      mstore(0x04, 0x21)\n      revert(0x00, 0x24)\n    tag_221:\n        /* \"contracts/tokenICO.sol\":4677:4685  icoState */\n      0x12\n      0x00\n      swap1\n      sload\n      swap1\n      0x0100\n      exp\n      swap1\n      div\n      0xff\n      and\n        /* \"contracts/tokenICO.sol\":4677:4701  icoState == State.halted */\n      0x03\n      dup2\n      gt\n      iszero\n      tag_222\n      jumpi\n      mstore(0x00, 0x4e487b7100000000000000000000000000000000000000000000000000000000)\n      mstore(0x04, 0x21)\n      revert(0x00, 0x24)\n    tag_222:\n      eq\n        /* \"contracts/tokenICO.sol\":4673:5010  if (icoState == State.halted) {\r... */\n      iszero\n      tag_223\n      jumpi\n        /* \"contracts/tokenICO.sol\":4725:4737  State.halted */\n      0x03\n        /* \"contracts/tokenICO.sol\":4718:4737  return State.halted */\n      swap1\n      pop\n      jump(tag_220)\n        /* \"contracts/tokenICO.sol\":4673:5010  if (icoState == State.halted) {\r... */\n    tag_223:\n        /* \"contracts/tokenICO.sol\":4777:4786  saleStart */\n      sload(0x0c)\n        /* \"contracts/tokenICO.sol\":4759:4774  block.timestamp */\n      timestamp\n        /* \"contracts/tokenICO.sol\":4759:4786  block.timestamp < saleStart */\n      lt\n        /* \"contracts/tokenICO.sol\":4755:5010  if (block.timestamp < saleStart) {\r... */\n      iszero\n      tag_225\n      jumpi\n        /* \"contracts/tokenICO.sol\":4810:4827  State.beforeStart */\n      0x00\n        /* \"contracts/tokenICO.sol\":4803:4827  return State.beforeStart */\n      swap1\n      pop\n      jump(tag_220)\n        /* \"contracts/tokenICO.sol\":4755:5010  if (block.timestamp < saleStart) {\r... */\n    tag_225:\n        /* \"contracts/tokenICO.sol\":4868:4877  saleStart */\n      sload(0x0c)\n        /* \"contracts/tokenICO.sol\":4849:4864  block.timestamp */\n      timestamp\n        /* \"contracts/tokenICO.sol\":4849:4877  block.timestamp >= saleStart */\n      lt\n      iszero\n        /* \"contracts/tokenICO.sol\":4849:4907  block.timestamp >= saleStart && block.timestamp <= saleEnd */\n      dup1\n      iszero\n      tag_227\n      jumpi\n      pop\n        /* \"contracts/tokenICO.sol\":4900:4907  saleEnd */\n      sload(0x0d)\n        /* \"contracts/tokenICO.sol\":4881:4896  block.timestamp */\n      timestamp\n        /* \"contracts/tokenICO.sol\":4881:4907  block.timestamp <= saleEnd */\n      gt\n      iszero\n        /* \"contracts/tokenICO.sol\":4849:4907  block.timestamp >= saleStart && block.timestamp <= saleEnd */\n    tag_227:\n        /* \"contracts/tokenICO.sol\":4845:5010  if (block.timestamp >= saleStart && block.timestamp <= saleEnd) {\r... */\n      iszero\n      tag_228\n      jumpi\n        /* \"contracts/tokenICO.sol\":4931:4944  State.running */\n      0x01\n        /* \"contracts/tokenICO.sol\":4924:4944  return State.running */\n      swap1\n      pop\n      jump(tag_220)\n        /* \"contracts/tokenICO.sol\":4845:5010  if (block.timestamp >= saleStart && block.timestamp <= saleEnd) {\r... */\n    tag_228:\n        /* \"contracts/tokenICO.sol\":4984:4998  State.afterEnd */\n      0x02\n        /* \"contracts/tokenICO.sol\":4977:4998  return State.afterEnd */\n      swap1\n      pop\n        /* \"contracts/tokenICO.sol\":4607:5017  function getCurrentState() public view returns (State) {\r... */\n    tag_220:\n      swap1\n      jump\t// out\n        /* \"contracts/tokenICO.sol\":6852:7253  function endSale() public {\r... */\n    tag_90:\n        /* \"contracts/tokenICO.sol\":6911:6916  admin */\n      0x07\n      0x00\n      swap1\n      sload\n      swap1\n      0x0100\n      exp\n      swap1\n      div\n      0xffffffffffffffffffffffffffffffffffffffff\n      and\n        /* \"contracts/tokenICO.sol\":6897:6916  msg.sender == admin */\n      0xffffffffffffffffffffffffffffffffffffffff\n      and\n        /* \"contracts/tokenICO.sol\":6897:6907  msg.sender */\n      caller\n        /* \"contracts/tokenICO.sol\":6897:6916  msg.sender == admin */\n      0xffffffffffffffffffffffffffffffffffffffff\n      and\n      eq\n        /* \"contracts/tokenICO.sol\":6889:6917  require(msg.sender == admin) */\n      tag_231\n      jumpi\n      0x00\n      dup1\n      revert\n    tag_231:\n        /* \"contracts/tokenICO.sol\":6950:6963  tokenContract */\n      0x0e\n      0x00\n      swap1\n      sload\n      swap1\n      0x0100\n      exp\n      swap1\n      div\n      0xffffffffffffffffffffffffffffffffffffffff\n      and\n        /* \"contracts/tokenICO.sol\":6950:6972  tokenContract.transfer */\n      0xffffffffffffffffffffffffffffffffffffffff\n      and\n      0xa9059cbb\n        /* \"contracts/tokenICO.sol\":6991:6996  admin */\n      0x07\n      0x00\n      swap1\n      sload\n      swap1\n      0x0100\n      exp\n      swap1\n      div\n      0xffffffffffffffffffffffffffffffffffffffff\n      and\n        /* \"contracts/tokenICO.sol\":7015:7028  tokenContract */\n      0x0e\n      0x00\n      swap1\n      sload\n      swap1\n      0x0100\n      exp\n      swap1\n      div\n      0xffffffffffffffffffffffffffffffffffffffff\n      and\n        /* \"contracts/tokenICO.sol\":7015:7038  tokenContract.balanceOf */\n      0xffffffffffffffffffffffffffffffffffffffff\n      and\n      0x70a08231\n        /* \"contracts/tokenICO.sol\":7047:7051  this */\n      address\n        /* \"contracts/tokenICO.sol\":7015:7053  tokenContract.balanceOf(address(this)) */\n      mload(0x40)\n      dup3\n      0xffffffff\n      and\n      0xe0\n      shl\n      dup2\n      mstore\n      0x04\n      add\n      tag_232\n      swap2\n      swap1\n      tag_103\n      jump\t// in\n    tag_232:\n      0x20\n      mload(0x40)\n      dup1\n      dup4\n      sub\n      dup2\n      dup7\n      dup1\n      extcodesize\n      iszero\n      dup1\n      iszero\n      tag_233\n      jumpi\n      0x00\n      dup1\n      revert\n    tag_233:\n      pop\n      gas\n      staticcall\n      iszero\n      dup1\n      iszero\n      tag_235\n      jumpi\n      returndatasize\n      0x00\n      dup1\n      returndatacopy\n      revert(0x00, returndatasize)\n    tag_235:\n      pop\n      pop\n      pop\n      pop\n      mload(0x40)\n      returndatasize\n      not(0x1f)\n      0x1f\n      dup3\n      add\n      and\n      dup3\n      add\n      dup1\n      0x40\n      mstore\n      pop\n      dup2\n      add\n      swap1\n      tag_236\n      swap2\n      swap1\n      tag_237\n      jump\t// in\n    tag_236:\n        /* \"contracts/tokenICO.sol\":6950:7068  tokenContract.transfer(\r... */\n      mload(0x40)\n      dup4\n      0xffffffff\n      and\n      0xe0\n      shl\n      dup2\n      mstore\n      0x04\n      add\n      tag_238\n      swap3\n      swap2\n      swap1\n      tag_188\n      jump\t// in\n    tag_238:\n      0x20\n      mload(0x40)\n      dup1\n      dup4\n      sub\n      dup2\n      0x00\n      dup8\n      dup1\n      extcodesize\n      iszero\n      dup1\n      iszero\n      tag_239\n      jumpi\n      0x00\n      dup1\n      revert\n    tag_239:\n      pop\n      gas\n      call\n      iszero\n      dup1\n      iszero\n      tag_241\n      jumpi\n      returndatasize\n      0x00\n      dup1\n      returndatacopy\n      revert(0x00, returndatasize)\n    tag_241:\n      pop\n      pop\n      pop\n      pop\n      mload(0x40)\n      returndatasize\n      not(0x1f)\n      0x1f\n      dup3\n      add\n      and\n      dup3\n      add\n      dup1\n      0x40\n      mstore\n      pop\n      dup2\n      add\n      swap1\n      tag_242\n      swap2\n      swap1\n      tag_193\n      jump\t// in\n    tag_242:\n        /* \"contracts/tokenICO.sol\":6928:7079  require(\r... */\n      tag_243\n      jumpi\n      0x00\n      dup1\n      revert\n    tag_243:\n        /* \"contracts/tokenICO.sol\":7207:7212  admin */\n      0x07\n      0x00\n      swap1\n      sload\n      swap1\n      0x0100\n      exp\n      swap1\n      div\n      0xffffffffffffffffffffffffffffffffffffffff\n      and\n        /* \"contracts/tokenICO.sol\":7199:7222  payable(admin).transfer */\n      0xffffffffffffffffffffffffffffffffffffffff\n      and\n        /* \"contracts/tokenICO.sol\":7199:7245  payable(admin).transfer(address(this).balance) */\n      0x08fc\n        /* \"contracts/tokenICO.sol\":7223:7244  address(this).balance */\n      selfbalance\n        /* \"contracts/tokenICO.sol\":7199:7245  payable(admin).transfer(address(this).balance) */\n      swap1\n      dup2\n      iszero\n      mul\n      swap1\n      mload(0x40)\n      0x00\n      mload(0x40)\n      dup1\n      dup4\n      sub\n      dup2\n      dup6\n      dup9\n      dup9\n      call\n      swap4\n      pop\n      pop\n      pop\n      pop\n      iszero\n      dup1\n      iszero\n      tag_245\n      jumpi\n      returndatasize\n      0x00\n      dup1\n      returndatacopy\n      revert(0x00, returndatasize)\n    tag_245:\n      pop\n        /* \"contracts/tokenICO.sol\":6852:7253  function endSale() public {\r... */\n      jump\t// out\n        /* \"contracts/tokenICO.sol\":6107:6292  function burn() public returns (bool) {\r... */\n    tag_93:\n        /* \"contracts/tokenICO.sol\":6139:6143  bool */\n      0x00\n        /* \"contracts/tokenICO.sol\":6167:6184  getCurrentState() */\n      tag_247\n        /* \"contracts/tokenICO.sol\":6167:6182  getCurrentState */\n      tag_85\n        /* \"contracts/tokenICO.sol\":6167:6184  getCurrentState() */\n      jump\t// in\n    tag_247:\n        /* \"contracts/tokenICO.sol\":6156:6164  icoState */\n      0x12\n      0x00\n        /* \"contracts/tokenICO.sol\":6156:6184  icoState = getCurrentState() */\n      0x0100\n      exp\n      dup2\n      sload\n      dup2\n      0xff\n      mul\n      not\n      and\n      swap1\n      dup4\n      0x03\n      dup2\n      gt\n      iszero\n      tag_248\n      jumpi\n      mstore(0x00, 0x4e487b7100000000000000000000000000000000000000000000000000000000)\n      mstore(0x04, 0x21)\n      revert(0x00, 0x24)\n    tag_248:\n      mul\n      or\n      swap1\n      sstore\n      pop\n        /* \"contracts/tokenICO.sol\":6215:6229  State.afterEnd */\n      0x02\n        /* \"contracts/tokenICO.sol\":6203:6229  icoState == State.afterEnd */\n      0x03\n      dup2\n      gt\n      iszero\n      tag_249\n      jumpi\n      mstore(0x00, 0x4e487b7100000000000000000000000000000000000000000000000000000000)\n      mstore(0x04, 0x21)\n      revert(0x00, 0x24)\n    tag_249:\n        /* \"contracts/tokenICO.sol\":6203:6211  icoState */\n      0x12\n      0x00\n      swap1\n      sload\n      swap1\n      0x0100\n      exp\n      swap1\n      div\n      0xff\n      and\n        /* \"contracts/tokenICO.sol\":6203:6229  icoState == State.afterEnd */\n      0x03\n      dup2\n      gt\n      iszero\n      tag_250\n      jumpi\n      mstore(0x00, 0x4e487b7100000000000000000000000000000000000000000000000000000000)\n      mstore(0x04, 0x21)\n      revert(0x00, 0x24)\n    tag_250:\n      eq\n        /* \"contracts/tokenICO.sol\":6195:6230  require(icoState == State.afterEnd) */\n      tag_251\n      jumpi\n      0x00\n      dup1\n      revert\n    tag_251:\n        /* \"contracts/tokenICO.sol\":6261:6262  0 */\n      0x00\n        /* \"contracts/tokenICO.sol\":6241:6249  balances */\n      0x05\n        /* \"contracts/tokenICO.sol\":6241:6258  balances[founder] */\n      0x00\n        /* \"contracts/tokenICO.sol\":6250:6257  founder */\n      0x04\n      0x00\n      swap1\n      sload\n      swap1\n      0x0100\n      exp\n      swap1\n      div\n      0xffffffffffffffffffffffffffffffffffffffff\n      and\n        /* \"contracts/tokenICO.sol\":6241:6258  balances[founder] */\n      0xffffffffffffffffffffffffffffffffffffffff\n      and\n      0xffffffffffffffffffffffffffffffffffffffff\n      and\n      dup2\n      mstore\n      0x20\n      add\n      swap1\n      dup2\n      mstore\n      0x20\n      add\n      0x00\n      keccak256\n        /* \"contracts/tokenICO.sol\":6241:6262  balances[founder] = 0 */\n      dup2\n      swap1\n      sstore\n      pop\n        /* \"contracts/tokenICO.sol\":6280:6284  true */\n      0x01\n        /* \"contracts/tokenICO.sol\":6273:6284  return true */\n      swap1\n      pop\n        /* \"contracts/tokenICO.sol\":6107:6292  function burn() public returns (bool) {\r... */\n      swap1\n      jump\t// out\n        /* \"contracts/tokenICO.sol\":3947:3968  State public icoState */\n    tag_97:\n      0x12\n      0x00\n      swap1\n      sload\n      swap1\n      0x0100\n      exp\n      swap1\n      div\n      0xff\n      and\n      dup2\n      jump\t// out\n        /* \"contracts/tokenICO.sol\":1396:1418  address public founder */\n    tag_101:\n      0x04\n      0x00\n      swap1\n      sload\n      swap1\n      0x0100\n      exp\n      swap1\n      div\n      0xffffffffffffffffffffffffffffffffffffffff\n      and\n      dup2\n      jump\t// out\n        /* \"contracts/tokenICO.sol\":3602:3637  ERC20Interface public tokenContract */\n    tag_106:\n      0x0e\n      0x00\n      swap1\n      sload\n      swap1\n      0x0100\n      exp\n      swap1\n      div\n      0xffffffffffffffffffffffffffffffffffffffff\n      and\n      dup2\n      jump\t// out\n        /* \"contracts/tokenICO.sol\":4316:4391  function halt() public onlyAdmin {\r... */\n    tag_111:\n        /* \"contracts/tokenICO.sol\":4259:4264  admin */\n      0x07\n      0x00\n      swap1\n      sload\n      swap1\n      0x0100\n      exp\n      swap1\n      div\n      0xffffffffffffffffffffffffffffffffffffffff\n      and\n        /* \"contracts/tokenICO.sol\":4245:4264  msg.sender == admin */\n      0xffffffffffffffffffffffffffffffffffffffff\n      and\n        /* \"contracts/tokenICO.sol\":4245:4255  msg.sender */\n      caller\n        /* \"contracts/tokenICO.sol\":4245:4264  msg.sender == admin */\n      0xffffffffffffffffffffffffffffffffffffffff\n      and\n      eq\n        /* \"contracts/tokenICO.sol\":4237:4265  require(msg.sender == admin) */\n      tag_253\n      jumpi\n      0x00\n      dup1\n      revert\n    tag_253:\n        /* \"contracts/tokenICO.sol\":4371:4383  State.halted */\n      0x03\n        /* \"contracts/tokenICO.sol\":4360:4368  icoState */\n      0x12\n      0x00\n        /* \"contracts/tokenICO.sol\":4360:4383  icoState = State.halted */\n      0x0100\n      exp\n      dup2\n      sload\n      dup2\n      0xff\n      mul\n      not\n      and\n      swap1\n      dup4\n      0x03\n      dup2\n      gt\n      iszero\n      tag_255\n      jumpi\n      mstore(0x00, 0x4e487b7100000000000000000000000000000000000000000000000000000000)\n      mstore(0x04, 0x21)\n      revert(0x00, 0x24)\n    tag_255:\n      mul\n      or\n      swap1\n      sstore\n      pop\n        /* \"contracts/tokenICO.sol\":4316:4391  function halt() public onlyAdmin {\r... */\n      jump\t// out\n        /* \"contracts/tokenICO.sol\":4485:4599  function changeDepositAddress(address payable newDeposit) public onlyAdmin {\r... */\n    tag_116:\n        /* \"contracts/tokenICO.sol\":4259:4264  admin */\n      0x07\n      0x00\n      swap1\n      sload\n      swap1\n      0x0100\n      exp\n      swap1\n      div\n      0xffffffffffffffffffffffffffffffffffffffff\n      and\n        /* \"contracts/tokenICO.sol\":4245:4264  msg.sender == admin */\n      0xffffffffffffffffffffffffffffffffffffffff\n      and\n        /* \"contracts/tokenICO.sol\":4245:4255  msg.sender */\n      caller\n        /* \"contracts/tokenICO.sol\":4245:4264  msg.sender == admin */\n      0xffffffffffffffffffffffffffffffffffffffff\n      and\n      eq\n        /* \"contracts/tokenICO.sol\":4237:4265  require(msg.sender == admin) */\n      tag_257\n      jumpi\n      0x00\n      dup1\n      revert\n    tag_257:\n        /* \"contracts/tokenICO.sol\":4581:4591  newDeposit */\n      dup1\n        /* \"contracts/tokenICO.sol\":4571:4578  deposit */\n      0x08\n      0x00\n        /* \"contracts/tokenICO.sol\":4571:4591  deposit = newDeposit */\n      0x0100\n      exp\n      dup2\n      sload\n      dup2\n      0xffffffffffffffffffffffffffffffffffffffff\n      mul\n      not\n      and\n      swap1\n      dup4\n      0xffffffffffffffffffffffffffffffffffffffff\n      and\n      mul\n      or\n      swap1\n      sstore\n      pop\n        /* \"contracts/tokenICO.sol\":4485:4599  function changeDepositAddress(address payable newDeposit) public onlyAdmin {\r... */\n      pop\n      jump\t// out\n        /* \"contracts/tokenICO.sol\":1750:1923  function balanceOf(address tokenOwner)\r... */\n    tag_120:\n        /* \"contracts/tokenICO.sol\":1855:1870  uint256 balance */\n      0x00\n        /* \"contracts/tokenICO.sol\":1895:1903  balances */\n      0x05\n        /* \"contracts/tokenICO.sol\":1895:1915  balances[tokenOwner] */\n      0x00\n        /* \"contracts/tokenICO.sol\":1904:1914  tokenOwner */\n      dup4\n        /* \"contracts/tokenICO.sol\":1895:1915  balances[tokenOwner] */\n      0xffffffffffffffffffffffffffffffffffffffff\n      and\n      0xffffffffffffffffffffffffffffffffffffffff\n      and\n      dup2\n      mstore\n      0x20\n      add\n      swap1\n      dup2\n      mstore\n      0x20\n      add\n      0x00\n      keccak256\n      sload\n        /* \"contracts/tokenICO.sol\":1888:1915  return balances[tokenOwner] */\n      swap1\n      pop\n        /* \"contracts/tokenICO.sol\":1750:1923  function balanceOf(address tokenOwner)\r... */\n      swap2\n      swap1\n      pop\n      jump\t// out\n        /* \"contracts/tokenICO.sol\":3784:3824  uint256 public minInvestment = 0.1 ether */\n    tag_124:\n      sload(0x11)\n      dup2\n      jump\t// out\n        /* \"contracts/tokenICO.sol\":1282:1311  string public symbol = \"CRPT\" */\n    tag_128:\n      0x01\n      dup1\n      sload\n      tag_260\n      swap1\n      tag_207\n      jump\t// in\n    tag_260:\n      dup1\n      0x1f\n      add\n      0x20\n      dup1\n      swap2\n      div\n      mul\n      0x20\n      add\n      mload(0x40)\n      swap1\n      dup2\n      add\n      0x40\n      mstore\n      dup1\n      swap3\n      swap2\n      swap1\n      dup2\n      dup2\n      mstore\n      0x20\n      add\n      dup3\n      dup1\n      sload\n      tag_261\n      swap1\n      tag_207\n      jump\t// in\n    tag_261:\n      dup1\n      iszero\n      tag_262\n      jumpi\n      dup1\n      0x1f\n      lt\n      tag_263\n      jumpi\n      0x0100\n      dup1\n      dup4\n      sload\n      div\n      mul\n      dup4\n      mstore\n      swap2\n      0x20\n      add\n      swap2\n      jump(tag_262)\n    tag_263:\n      dup3\n      add\n      swap2\n      swap1\n      0x00\n      mstore\n      keccak256(0x00, 0x20)\n      swap1\n    tag_264:\n      dup2\n      sload\n      dup2\n      mstore\n      swap1\n      0x01\n      add\n      swap1\n      0x20\n      add\n      dup1\n      dup4\n      gt\n      tag_264\n      jumpi\n      dup3\n      swap1\n      sub\n      0x1f\n      and\n      dup3\n      add\n      swap2\n    tag_262:\n      pop\n      pop\n      pop\n      pop\n      pop\n      dup2\n      jump\t// out\n        /* \"contracts/tokenICO.sol\":6440:6844  function transfer(address to, uint256 tokens)\r... */\n    tag_133:\n        /* \"contracts/tokenICO.sol\":6538:6550  bool success */\n      0x00\n        /* \"contracts/tokenICO.sol\":6594:6609  tokenTradeStart */\n      sload(0x0f)\n        /* \"contracts/tokenICO.sol\":6576:6591  block.timestamp */\n      timestamp\n        /* \"contracts/tokenICO.sol\":6576:6609  block.timestamp > tokenTradeStart */\n      gt\n        /* \"contracts/tokenICO.sol\":6568:6610  require(block.timestamp > tokenTradeStart) */\n      tag_266\n      jumpi\n      0x00\n      dup1\n      revert\n    tag_266:\n        /* \"contracts/tokenICO.sol\":6747:6773  super.transfer(to, tokens) */\n      tag_267\n        /* \"contracts/tokenICO.sol\":6762:6764  to */\n      dup4\n        /* \"contracts/tokenICO.sol\":6766:6772  tokens */\n      dup4\n        /* \"contracts/tokenICO.sol\":6747:6761  super.transfer */\n      tag_268\n        /* \"contracts/tokenICO.sol\":6747:6773  super.transfer(to, tokens) */\n      jump\t// in\n    tag_267:\n      pop\n        /* \"contracts/tokenICO.sol\":6832:6836  true */\n      0x01\n        /* \"contracts/tokenICO.sol\":6825:6836  return true */\n      swap1\n      pop\n        /* \"contracts/tokenICO.sol\":6440:6844  function transfer(address to, uint256 tokens)\r... */\n      swap3\n      swap2\n      pop\n      pop\n      jump\t// out\n        /* \"contracts/tokenICO.sol\":3486:3528  uint256 public saleStart = block.timestamp */\n    tag_137:\n      sload(0x0c)\n      dup2\n      jump\t// out\n        /* \"contracts/tokenICO.sol\":3535:3584  uint256 public saleEnd = block.timestamp + 604800 */\n    tag_141:\n      sload(0x0d)\n      dup2\n      jump\t// out\n        /* \"contracts/tokenICO.sol\":3423:3450  uint256 public raisedAmount */\n    tag_145:\n      sload(0x0b)\n      dup2\n      jump\t// out\n        /* \"contracts/tokenICO.sol\":3644:3693  uint256 public tokenTradeStart = saleEnd + 604800 */\n    tag_149:\n      sload(0x0f)\n      dup2\n      jump\t// out\n        /* \"contracts/tokenICO.sol\":3269:3299  address payable public deposit */\n    tag_153:\n      0x08\n      0x00\n      swap1\n      sload\n      swap1\n      0x0100\n      exp\n      swap1\n      div\n      0xffffffffffffffffffffffffffffffffffffffff\n      and\n      dup2\n      jump\t// out\n        /* \"contracts/tokenICO.sol\":2279:2469  function allowance(address tokenOwner, address spender)\r... */\n    tag_160:\n        /* \"contracts/tokenICO.sol\":2401:2408  uint256 */\n      0x00\n        /* \"contracts/tokenICO.sol\":2433:2440  allowed */\n      0x06\n        /* \"contracts/tokenICO.sol\":2433:2452  allowed[tokenOwner] */\n      0x00\n        /* \"contracts/tokenICO.sol\":2441:2451  tokenOwner */\n      dup5\n        /* \"contracts/tokenICO.sol\":2433:2452  allowed[tokenOwner] */\n      0xffffffffffffffffffffffffffffffffffffffff\n      and\n      0xffffffffffffffffffffffffffffffffffffffff\n      and\n      dup2\n      mstore\n      0x20\n      add\n      swap1\n      dup2\n      mstore\n      0x20\n      add\n      0x00\n      keccak256\n        /* \"contracts/tokenICO.sol\":2433:2461  allowed[tokenOwner][spender] */\n      0x00\n        /* \"contracts/tokenICO.sol\":2453:2460  spender */\n      dup4\n        /* \"contracts/tokenICO.sol\":2433:2461  allowed[tokenOwner][spender] */\n      0xffffffffffffffffffffffffffffffffffffffff\n      and\n      0xffffffffffffffffffffffffffffffffffffffff\n      and\n      dup2\n      mstore\n      0x20\n      add\n      swap1\n      dup2\n      mstore\n      0x20\n      add\n      0x00\n      keccak256\n      sload\n        /* \"contracts/tokenICO.sol\":2426:2461  return allowed[tokenOwner][spender] */\n      swap1\n      pop\n        /* \"contracts/tokenICO.sol\":2279:2469  function allowance(address tokenOwner, address spender)\r... */\n      swap3\n      swap2\n      pop\n      pop\n      jump\t// out\n        /* \"contracts/tokenICO.sol\":3242:3262  address public admin */\n    tag_166:\n      0x07\n      0x00\n      swap1\n      sload\n      swap1\n      0x0100\n      exp\n      swap1\n      div\n      0xffffffffffffffffffffffffffffffffffffffff\n      and\n      dup2\n      jump\t// out\n        /* \"contracts/tokenICO.sol\":3382:3416  uint256 public hardCap = 300 ether */\n    tag_170:\n      sload(0x0a)\n      dup2\n      jump\t// out\n        /* \"contracts/tokenICO.sol\":2821:3197  function transferFrom(\r... */\n    tag_219:\n        /* \"contracts/tokenICO.sol\":2952:2964  bool success */\n      0x00\n        /* \"contracts/tokenICO.sol\":3006:3012  tokens */\n      dup2\n        /* \"contracts/tokenICO.sol\":2985:2992  allowed */\n      0x06\n        /* \"contracts/tokenICO.sol\":2985:2998  allowed[from] */\n      0x00\n        /* \"contracts/tokenICO.sol\":2993:2997  from */\n      dup7\n        /* \"contracts/tokenICO.sol\":2985:2998  allowed[from] */\n      0xffffffffffffffffffffffffffffffffffffffff\n      and\n      0xffffffffffffffffffffffffffffffffffffffff\n      and\n      dup2\n      mstore\n      0x20\n      add\n      swap1\n      dup2\n      mstore\n      0x20\n      add\n      0x00\n      keccak256\n        /* \"contracts/tokenICO.sol\":2985:3002  allowed[from][to] */\n      0x00\n        /* \"contracts/tokenICO.sol\":2999:3001  to */\n      dup6\n        /* \"contracts/tokenICO.sol\":2985:3002  allowed[from][to] */\n      0xffffffffffffffffffffffffffffffffffffffff\n      and\n      0xffffffffffffffffffffffffffffffffffffffff\n      and\n      dup2\n      mstore\n      0x20\n      add\n      swap1\n      dup2\n      mstore\n      0x20\n      add\n      0x00\n      keccak256\n      sload\n        /* \"contracts/tokenICO.sol\":2985:3012  allowed[from][to] >= tokens */\n      lt\n      iszero\n        /* \"contracts/tokenICO.sol\":2977:3013  require(allowed[from][to] >= tokens) */\n      tag_271\n      jumpi\n      0x00\n      dup1\n      revert\n    tag_271:\n        /* \"contracts/tokenICO.sol\":3050:3056  tokens */\n      dup2\n        /* \"contracts/tokenICO.sol\":3032:3040  balances */\n      0x05\n        /* \"contracts/tokenICO.sol\":3032:3046  balances[from] */\n      0x00\n        /* \"contracts/tokenICO.sol\":3041:3045  from */\n      dup7\n        /* \"contracts/tokenICO.sol\":3032:3046  balances[from] */\n      0xffffffffffffffffffffffffffffffffffffffff\n      and\n      0xffffffffffffffffffffffffffffffffffffffff\n      and\n      dup2\n      mstore\n      0x20\n      add\n      swap1\n      dup2\n      mstore\n      0x20\n      add\n      0x00\n      keccak256\n      sload\n        /* \"contracts/tokenICO.sol\":3032:3056  balances[from] >= tokens */\n      lt\n      iszero\n        /* \"contracts/tokenICO.sol\":3024:3057  require(balances[from] >= tokens) */\n      tag_272\n      jumpi\n      0x00\n      dup1\n      revert\n    tag_272:\n        /* \"contracts/tokenICO.sol\":3088:3094  tokens */\n      dup2\n        /* \"contracts/tokenICO.sol\":3070:3078  balances */\n      0x05\n        /* \"contracts/tokenICO.sol\":3070:3084  balances[from] */\n      0x00\n        /* \"contracts/tokenICO.sol\":3079:3083  from */\n      dup7\n        /* \"contracts/tokenICO.sol\":3070:3084  balances[from] */\n      0xffffffffffffffffffffffffffffffffffffffff\n      and\n      0xffffffffffffffffffffffffffffffffffffffff\n      and\n      dup2\n      mstore\n      0x20\n      add\n      swap1\n      dup2\n      mstore\n      0x20\n      add\n      0x00\n      keccak256\n      0x00\n        /* \"contracts/tokenICO.sol\":3070:3094  balances[from] -= tokens */\n      dup3\n      dup3\n      sload\n      tag_273\n      swap2\n      swap1\n      tag_197\n      jump\t// in\n    tag_273:\n      swap3\n      pop\n      pop\n      dup2\n      swap1\n      sstore\n      pop\n        /* \"contracts/tokenICO.sol\":3121:3127  tokens */\n      dup2\n        /* \"contracts/tokenICO.sol\":3105:3113  balances */\n      0x05\n        /* \"contracts/tokenICO.sol\":3105:3117  balances[to] */\n      0x00\n        /* \"contracts/tokenICO.sol\":3114:3116  to */\n      dup6\n        /* \"contracts/tokenICO.sol\":3105:3117  balances[to] */\n      0xffffffffffffffffffffffffffffffffffffffff\n      and\n      0xffffffffffffffffffffffffffffffffffffffff\n      and\n      dup2\n      mstore\n      0x20\n      add\n      swap1\n      dup2\n      mstore\n      0x20\n      add\n      0x00\n      keccak256\n      0x00\n        /* \"contracts/tokenICO.sol\":3105:3127  balances[to] += tokens */\n      dup3\n      dup3\n      sload\n      tag_274\n      swap2\n      swap1\n      tag_181\n      jump\t// in\n    tag_274:\n      swap3\n      pop\n      pop\n      dup2\n      swap1\n      sstore\n      pop\n        /* \"contracts/tokenICO.sol\":3159:3165  tokens */\n      dup2\n        /* \"contracts/tokenICO.sol\":3138:3145  allowed */\n      0x06\n        /* \"contracts/tokenICO.sol\":3138:3151  allowed[from] */\n      0x00\n        /* \"contracts/tokenICO.sol\":3146:3150  from */\n      dup7\n        /* \"contracts/tokenICO.sol\":3138:3151  allowed[from] */\n      0xffffffffffffffffffffffffffffffffffffffff\n      and\n      0xffffffffffffffffffffffffffffffffffffffff\n      and\n      dup2\n      mstore\n      0x20\n      add\n      swap1\n      dup2\n      mstore\n      0x20\n      add\n      0x00\n      keccak256\n        /* \"contracts/tokenICO.sol\":3138:3155  allowed[from][to] */\n      0x00\n        /* \"contracts/tokenICO.sol\":3152:3154  to */\n      dup6\n        /* \"contracts/tokenICO.sol\":3138:3155  allowed[from][to] */\n      0xffffffffffffffffffffffffffffffffffffffff\n      and\n      0xffffffffffffffffffffffffffffffffffffffff\n      and\n      dup2\n      mstore\n      0x20\n      add\n      swap1\n      dup2\n      mstore\n      0x20\n      add\n      0x00\n      keccak256\n      0x00\n        /* \"contracts/tokenICO.sol\":3138:3165  allowed[from][to] -= tokens */\n      dup3\n      dup3\n      sload\n      tag_275\n      swap2\n      swap1\n      tag_197\n      jump\t// in\n    tag_275:\n      swap3\n      pop\n      pop\n      dup2\n      swap1\n      sstore\n      pop\n        /* \"contracts/tokenICO.sol\":3185:3189  true */\n      0x01\n        /* \"contracts/tokenICO.sol\":3178:3189  return true */\n      swap1\n      pop\n        /* \"contracts/tokenICO.sol\":2821:3197  function transferFrom(\r... */\n      swap4\n      swap3\n      pop\n      pop\n      pop\n      jump\t// out\n        /* \"contracts/tokenICO.sol\":1931:2271  function transfer(address to, uint256 tokens)\r... */\n    tag_268:\n        /* \"contracts/tokenICO.sol\":2046:2058  bool success */\n      0x00\n        /* \"contracts/tokenICO.sol\":2108:2114  tokens */\n      dup2\n        /* \"contracts/tokenICO.sol\":2084:2092  balances */\n      0x05\n        /* \"contracts/tokenICO.sol\":2084:2104  balances[msg.sender] */\n      0x00\n        /* \"contracts/tokenICO.sol\":2093:2103  msg.sender */\n      caller\n        /* \"contracts/tokenICO.sol\":2084:2104  balances[msg.sender] */\n      0xffffffffffffffffffffffffffffffffffffffff\n      and\n      0xffffffffffffffffffffffffffffffffffffffff\n      and\n      dup2\n      mstore\n      0x20\n      add\n      swap1\n      dup2\n      mstore\n      0x20\n      add\n      0x00\n      keccak256\n      sload\n        /* \"contracts/tokenICO.sol\":2084:2114  balances[msg.sender] >= tokens */\n      lt\n      iszero\n        /* \"contracts/tokenICO.sol\":2076:2115  require(balances[msg.sender] >= tokens) */\n      tag_277\n      jumpi\n      0x00\n      dup1\n      revert\n    tag_277:\n        /* \"contracts/tokenICO.sol\":2144:2150  tokens */\n      dup2\n        /* \"contracts/tokenICO.sol\":2128:2136  balances */\n      0x05\n        /* \"contracts/tokenICO.sol\":2128:2140  balances[to] */\n      0x00\n        /* \"contracts/tokenICO.sol\":2137:2139  to */\n      dup6\n        /* \"contracts/tokenICO.sol\":2128:2140  balances[to] */\n      0xffffffffffffffffffffffffffffffffffffffff\n      and\n      0xffffffffffffffffffffffffffffffffffffffff\n      and\n      dup2\n      mstore\n      0x20\n      add\n      swap1\n      dup2\n      mstore\n      0x20\n      add\n      0x00\n      keccak256\n      0x00\n        /* \"contracts/tokenICO.sol\":2128:2150  balances[to] += tokens */\n      dup3\n      dup3\n      sload\n      tag_278\n      swap2\n      swap1\n      tag_181\n      jump\t// in\n    tag_278:\n      swap3\n      pop\n      pop\n      dup2\n      swap1\n      sstore\n      pop\n        /* \"contracts/tokenICO.sol\":2185:2191  tokens */\n      dup2\n        /* \"contracts/tokenICO.sol\":2161:2169  balances */\n      0x05\n        /* \"contracts/tokenICO.sol\":2161:2181  balances[msg.sender] */\n      0x00\n        /* \"contracts/tokenICO.sol\":2170:2180  msg.sender */\n      caller\n        /* \"contracts/tokenICO.sol\":2161:2181  balances[msg.sender] */\n      0xffffffffffffffffffffffffffffffffffffffff\n      and\n      0xffffffffffffffffffffffffffffffffffffffff\n      and\n      dup2\n      mstore\n      0x20\n      add\n      swap1\n      dup2\n      mstore\n      0x20\n      add\n      0x00\n      keccak256\n      0x00\n        /* \"contracts/tokenICO.sol\":2161:2191  balances[msg.sender] -= tokens */\n      dup3\n      dup3\n      sload\n      tag_279\n      swap2\n      swap1\n      tag_197\n      jump\t// in\n    tag_279:\n      swap3\n      pop\n      pop\n      dup2\n      swap1\n      sstore\n      pop\n        /* \"contracts/tokenICO.sol\":2228:2230  to */\n      dup3\n        /* \"contracts/tokenICO.sol\":2207:2239  Transfer(msg.sender, to, tokens) */\n      0xffffffffffffffffffffffffffffffffffffffff\n      and\n        /* \"contracts/tokenICO.sol\":2216:2226  msg.sender */\n      caller\n        /* \"contracts/tokenICO.sol\":2207:2239  Transfer(msg.sender, to, tokens) */\n      0xffffffffffffffffffffffffffffffffffffffff\n      and\n      0xddf252ad1be2c89b69c2b068fc378daa952ba7f163c4a11628f55a4df523b3ef\n        /* \"contracts/tokenICO.sol\":2232:2238  tokens */\n      dup5\n        /* \"contracts/tokenICO.sol\":2207:2239  Transfer(msg.sender, to, tokens) */\n      mload(0x40)\n      tag_280\n      swap2\n      swap1\n      tag_47\n      jump\t// in\n    tag_280:\n      mload(0x40)\n      dup1\n      swap2\n      sub\n      swap1\n      log3\n        /* \"contracts/tokenICO.sol\":2259:2263  true */\n      0x01\n        /* \"contracts/tokenICO.sol\":2252:2263  return true */\n      swap1\n      pop\n        /* \"contracts/tokenICO.sol\":1931:2271  function transfer(address to, uint256 tokens)\r... */\n      swap3\n      swap2\n      pop\n      pop\n      jump\t// out\n        /* \"#utility.yul\":7:146   */\n    tag_282:\n      0x00\n        /* \"#utility.yul\":91:97   */\n      dup2\n        /* \"#utility.yul\":78:98   */\n      calldataload\n        /* \"#utility.yul\":69:98   */\n      swap1\n      pop\n        /* \"#utility.yul\":107:140   */\n      tag_284\n        /* \"#utility.yul\":134:139   */\n      dup2\n        /* \"#utility.yul\":107:140   */\n      tag_285\n      jump\t// in\n    tag_284:\n        /* \"#utility.yul\":59:146   */\n      swap3\n      swap2\n      pop\n      pop\n      jump\t// out\n        /* \"#utility.yul\":152:307   */\n    tag_286:\n      0x00\n        /* \"#utility.yul\":244:250   */\n      dup2\n        /* \"#utility.yul\":231:251   */\n      calldataload\n        /* \"#utility.yul\":222:251   */\n      swap1\n      pop\n        /* \"#utility.yul\":260:301   */\n      tag_288\n        /* \"#utility.yul\":295:300   */\n      dup2\n        /* \"#utility.yul\":260:301   */\n      tag_289\n      jump\t// in\n    tag_288:\n        /* \"#utility.yul\":212:307   */\n      swap3\n      swap2\n      pop\n      pop\n      jump\t// out\n        /* \"#utility.yul\":313:450   */\n    tag_290:\n      0x00\n        /* \"#utility.yul\":398:404   */\n      dup2\n        /* \"#utility.yul\":392:405   */\n      mload\n        /* \"#utility.yul\":383:405   */\n      swap1\n      pop\n        /* \"#utility.yul\":414:444   */\n      tag_292\n        /* \"#utility.yul\":438:443   */\n      dup2\n        /* \"#utility.yul\":414:444   */\n      tag_293\n      jump\t// in\n    tag_292:\n        /* \"#utility.yul\":373:450   */\n      swap3\n      swap2\n      pop\n      pop\n      jump\t// out\n        /* \"#utility.yul\":456:595   */\n    tag_294:\n      0x00\n        /* \"#utility.yul\":540:546   */\n      dup2\n        /* \"#utility.yul\":527:547   */\n      calldataload\n        /* \"#utility.yul\":518:547   */\n      swap1\n      pop\n        /* \"#utility.yul\":556:589   */\n      tag_296\n        /* \"#utility.yul\":583:588   */\n      dup2\n        /* \"#utility.yul\":556:589   */\n      tag_297\n      jump\t// in\n    tag_296:\n        /* \"#utility.yul\":508:595   */\n      swap3\n      swap2\n      pop\n      pop\n      jump\t// out\n        /* \"#utility.yul\":601:744   */\n    tag_298:\n      0x00\n        /* \"#utility.yul\":689:695   */\n      dup2\n        /* \"#utility.yul\":683:696   */\n      mload\n        /* \"#utility.yul\":674:696   */\n      swap1\n      pop\n        /* \"#utility.yul\":705:738   */\n      tag_300\n        /* \"#utility.yul\":732:737   */\n      dup2\n        /* \"#utility.yul\":705:738   */\n      tag_297\n      jump\t// in\n    tag_300:\n        /* \"#utility.yul\":664:744   */\n      swap3\n      swap2\n      pop\n      pop\n      jump\t// out\n        /* \"#utility.yul\":750:1012   */\n    tag_76:\n      0x00\n        /* \"#utility.yul\":858:860   */\n      0x20\n        /* \"#utility.yul\":846:855   */\n      dup3\n        /* \"#utility.yul\":837:844   */\n      dup5\n        /* \"#utility.yul\":833:856   */\n      sub\n        /* \"#utility.yul\":829:861   */\n      slt\n        /* \"#utility.yul\":826:828   */\n      iszero\n      tag_302\n      jumpi\n        /* \"#utility.yul\":874:875   */\n      0x00\n        /* \"#utility.yul\":871:872   */\n      dup1\n        /* \"#utility.yul\":864:876   */\n      revert\n        /* \"#utility.yul\":826:828   */\n    tag_302:\n        /* \"#utility.yul\":917:918   */\n      0x00\n        /* \"#utility.yul\":942:995   */\n      tag_303\n        /* \"#utility.yul\":987:994   */\n      dup5\n        /* \"#utility.yul\":978:984   */\n      dup3\n        /* \"#utility.yul\":967:976   */\n      dup6\n        /* \"#utility.yul\":963:985   */\n      add\n        /* \"#utility.yul\":942:995   */\n      tag_282\n      jump\t// in\n    tag_303:\n        /* \"#utility.yul\":932:995   */\n      swap2\n      pop\n        /* \"#utility.yul\":888:1005   */\n      pop\n        /* \"#utility.yul\":816:1012   */\n      swap3\n      swap2\n      pop\n      pop\n      jump\t// out\n        /* \"#utility.yul\":1018:1296   */\n    tag_115:\n      0x00\n        /* \"#utility.yul\":1134:1136   */\n      0x20\n        /* \"#utility.yul\":1122:1131   */\n      dup3\n        /* \"#utility.yul\":1113:1120   */\n      dup5\n        /* \"#utility.yul\":1109:1132   */\n      sub\n        /* \"#utility.yul\":1105:1137   */\n      slt\n        /* \"#utility.yul\":1102:1104   */\n      iszero\n      tag_305\n      jumpi\n        /* \"#utility.yul\":1150:1151   */\n      0x00\n        /* \"#utility.yul\":1147:1148   */\n      dup1\n        /* \"#utility.yul\":1140:1152   */\n      revert\n        /* \"#utility.yul\":1102:1104   */\n    tag_305:\n        /* \"#utility.yul\":1193:1194   */\n      0x00\n        /* \"#utility.yul\":1218:1279   */\n      tag_306\n        /* \"#utility.yul\":1271:1278   */\n      dup5\n        /* \"#utility.yul\":1262:1268   */\n      dup3\n        /* \"#utility.yul\":1251:1260   */\n      dup6\n        /* \"#utility.yul\":1247:1269   */\n      add\n        /* \"#utility.yul\":1218:1279   */\n      tag_286\n      jump\t// in\n    tag_306:\n        /* \"#utility.yul\":1208:1279   */\n      swap2\n      pop\n        /* \"#utility.yul\":1164:1289   */\n      pop\n        /* \"#utility.yul\":1092:1296   */\n      swap3\n      swap2\n      pop\n      pop\n      jump\t// out\n        /* \"#utility.yul\":1302:1709   */\n    tag_159:\n      0x00\n      dup1\n        /* \"#utility.yul\":1427:1429   */\n      0x40\n        /* \"#utility.yul\":1415:1424   */\n      dup4\n        /* \"#utility.yul\":1406:1413   */\n      dup6\n        /* \"#utility.yul\":1402:1425   */\n      sub\n        /* \"#utility.yul\":1398:1430   */\n      slt\n        /* \"#utility.yul\":1395:1397   */\n      iszero\n      tag_308\n      jumpi\n        /* \"#utility.yul\":1443:1444   */\n      0x00\n        /* \"#utility.yul\":1440:1441   */\n      dup1\n        /* \"#utility.yul\":1433:1445   */\n      revert\n        /* \"#utility.yul\":1395:1397   */\n    tag_308:\n        /* \"#utility.yul\":1486:1487   */\n      0x00\n        /* \"#utility.yul\":1511:1564   */\n      tag_309\n        /* \"#utility.yul\":1556:1563   */\n      dup6\n        /* \"#utility.yul\":1547:1553   */\n      dup3\n        /* \"#utility.yul\":1536:1545   */\n      dup7\n        /* \"#utility.yul\":1532:1554   */\n      add\n        /* \"#utility.yul\":1511:1564   */\n      tag_282\n      jump\t// in\n    tag_309:\n        /* \"#utility.yul\":1501:1564   */\n      swap3\n      pop\n        /* \"#utility.yul\":1457:1574   */\n      pop\n        /* \"#utility.yul\":1613:1615   */\n      0x20\n        /* \"#utility.yul\":1639:1692   */\n      tag_310\n        /* \"#utility.yul\":1684:1691   */\n      dup6\n        /* \"#utility.yul\":1675:1681   */\n      dup3\n        /* \"#utility.yul\":1664:1673   */\n      dup7\n        /* \"#utility.yul\":1660:1682   */\n      add\n        /* \"#utility.yul\":1639:1692   */\n      tag_282\n      jump\t// in\n    tag_310:\n        /* \"#utility.yul\":1629:1692   */\n      swap2\n      pop\n        /* \"#utility.yul\":1584:1702   */\n      pop\n        /* \"#utility.yul\":1385:1709   */\n      swap3\n      pop\n      swap3\n      swap1\n      pop\n      jump\t// out\n        /* \"#utility.yul\":1715:2267   */\n    tag_70:\n      0x00\n      dup1\n      0x00\n        /* \"#utility.yul\":1857:1859   */\n      0x60\n        /* \"#utility.yul\":1845:1854   */\n      dup5\n        /* \"#utility.yul\":1836:1843   */\n      dup7\n        /* \"#utility.yul\":1832:1855   */\n      sub\n        /* \"#utility.yul\":1828:1860   */\n      slt\n        /* \"#utility.yul\":1825:1827   */\n      iszero\n      tag_312\n      jumpi\n        /* \"#utility.yul\":1873:1874   */\n      0x00\n        /* \"#utility.yul\":1870:1871   */\n      dup1\n        /* \"#utility.yul\":1863:1875   */\n      revert\n        /* \"#utility.yul\":1825:1827   */\n    tag_312:\n        /* \"#utility.yul\":1916:1917   */\n      0x00\n        /* \"#utility.yul\":1941:1994   */\n      tag_313\n        /* \"#utility.yul\":1986:1993   */\n      dup7\n        /* \"#utility.yul\":1977:1983   */\n      dup3\n        /* \"#utility.yul\":1966:1975   */\n      dup8\n        /* \"#utility.yul\":1962:1984   */\n      add\n        /* \"#utility.yul\":1941:1994   */\n      tag_282\n      jump\t// in\n    tag_313:\n        /* \"#utility.yul\":1931:1994   */\n      swap4\n      pop\n        /* \"#utility.yul\":1887:2004   */\n      pop\n        /* \"#utility.yul\":2043:2045   */\n      0x20\n        /* \"#utility.yul\":2069:2122   */\n      tag_314\n        /* \"#utility.yul\":2114:2121   */\n      dup7\n        /* \"#utility.yul\":2105:2111   */\n      dup3\n        /* \"#utility.yul\":2094:2103   */\n      dup8\n        /* \"#utility.yul\":2090:2112   */\n      add\n        /* \"#utility.yul\":2069:2122   */\n      tag_282\n      jump\t// in\n    tag_314:\n        /* \"#utility.yul\":2059:2122   */\n      swap3\n      pop\n        /* \"#utility.yul\":2014:2132   */\n      pop\n        /* \"#utility.yul\":2171:2173   */\n      0x40\n        /* \"#utility.yul\":2197:2250   */\n      tag_315\n        /* \"#utility.yul\":2242:2249   */\n      dup7\n        /* \"#utility.yul\":2233:2239   */\n      dup3\n        /* \"#utility.yul\":2222:2231   */\n      dup8\n        /* \"#utility.yul\":2218:2240   */\n      add\n        /* \"#utility.yul\":2197:2250   */\n      tag_294\n      jump\t// in\n    tag_315:\n        /* \"#utility.yul\":2187:2250   */\n      swap2\n      pop\n        /* \"#utility.yul\":2142:2260   */\n      pop\n        /* \"#utility.yul\":1815:2267   */\n      swap3\n      pop\n      swap3\n      pop\n      swap3\n      jump\t// out\n        /* \"#utility.yul\":2273:2680   */\n    tag_59:\n      0x00\n      dup1\n        /* \"#utility.yul\":2398:2400   */\n      0x40\n        /* \"#utility.yul\":2386:2395   */\n      dup4\n        /* \"#utility.yul\":2377:2384   */\n      dup6\n        /* \"#utility.yul\":2373:2396   */\n      sub\n        /* \"#utility.yul\":2369:2401   */\n      slt\n        /* \"#utility.yul\":2366:2368   */\n      iszero\n      tag_317\n      jumpi\n        /* \"#utility.yul\":2414:2415   */\n      0x00\n        /* \"#utility.yul\":2411:2412   */\n      dup1\n        /* \"#utility.yul\":2404:2416   */\n      revert\n        /* \"#utility.yul\":2366:2368   */\n    tag_317:\n        /* \"#utility.yul\":2457:2458   */\n      0x00\n        /* \"#utility.yul\":2482:2535   */\n      tag_318\n        /* \"#utility.yul\":2527:2534   */\n      dup6\n        /* \"#utility.yul\":2518:2524   */\n      dup3\n        /* \"#utility.yul\":2507:2516   */\n      dup7\n        /* \"#utility.yul\":2503:2525   */\n      add\n        /* \"#utility.yul\":2482:2535   */\n      tag_282\n      jump\t// in\n    tag_318:\n        /* \"#utility.yul\":2472:2535   */\n      swap3\n      pop\n        /* \"#utility.yul\":2428:2545   */\n      pop\n        /* \"#utility.yul\":2584:2586   */\n      0x20\n        /* \"#utility.yul\":2610:2663   */\n      tag_319\n        /* \"#utility.yul\":2655:2662   */\n      dup6\n        /* \"#utility.yul\":2646:2652   */\n      dup3\n        /* \"#utility.yul\":2635:2644   */\n      dup7\n        /* \"#utility.yul\":2631:2653   */\n      add\n        /* \"#utility.yul\":2610:2663   */\n      tag_294\n      jump\t// in\n    tag_319:\n        /* \"#utility.yul\":2600:2663   */\n      swap2\n      pop\n        /* \"#utility.yul\":2555:2673   */\n      pop\n        /* \"#utility.yul\":2356:2680   */\n      swap3\n      pop\n      swap3\n      swap1\n      pop\n      jump\t// out\n        /* \"#utility.yul\":2686:2964   */\n    tag_193:\n      0x00\n        /* \"#utility.yul\":2802:2804   */\n      0x20\n        /* \"#utility.yul\":2790:2799   */\n      dup3\n        /* \"#utility.yul\":2781:2788   */\n      dup5\n        /* \"#utility.yul\":2777:2800   */\n      sub\n        /* \"#utility.yul\":2773:2805   */\n      slt\n        /* \"#utility.yul\":2770:2772   */\n      iszero\n      tag_321\n      jumpi\n        /* \"#utility.yul\":2818:2819   */\n      0x00\n        /* \"#utility.yul\":2815:2816   */\n      dup1\n        /* \"#utility.yul\":2808:2820   */\n      revert\n        /* \"#utility.yul\":2770:2772   */\n    tag_321:\n        /* \"#utility.yul\":2861:2862   */\n      0x00\n        /* \"#utility.yul\":2886:2947   */\n      tag_322\n        /* \"#utility.yul\":2939:2946   */\n      dup5\n        /* \"#utility.yul\":2930:2936   */\n      dup3\n        /* \"#utility.yul\":2919:2928   */\n      dup6\n        /* \"#utility.yul\":2915:2937   */\n      add\n        /* \"#utility.yul\":2886:2947   */\n      tag_290\n      jump\t// in\n    tag_322:\n        /* \"#utility.yul\":2876:2947   */\n      swap2\n      pop\n        /* \"#utility.yul\":2832:2957   */\n      pop\n        /* \"#utility.yul\":2760:2964   */\n      swap3\n      swap2\n      pop\n      pop\n      jump\t// out\n        /* \"#utility.yul\":2970:3254   */\n    tag_237:\n      0x00\n        /* \"#utility.yul\":3089:3091   */\n      0x20\n        /* \"#utility.yul\":3077:3086   */\n      dup3\n        /* \"#utility.yul\":3068:3075   */\n      dup5\n        /* \"#utility.yul\":3064:3087   */\n      sub\n        /* \"#utility.yul\":3060:3092   */\n      slt\n        /* \"#utility.yul\":3057:3059   */\n      iszero\n      tag_324\n      jumpi\n        /* \"#utility.yul\":3105:3106   */\n      0x00\n        /* \"#utility.yul\":3102:3103   */\n      dup1\n        /* \"#utility.yul\":3095:3107   */\n      revert\n        /* \"#utility.yul\":3057:3059   */\n    tag_324:\n        /* \"#utility.yul\":3148:3149   */\n      0x00\n        /* \"#utility.yul\":3173:3237   */\n      tag_325\n        /* \"#utility.yul\":3229:3236   */\n      dup5\n        /* \"#utility.yul\":3220:3226   */\n      dup3\n        /* \"#utility.yul\":3209:3218   */\n      dup6\n        /* \"#utility.yul\":3205:3227   */\n      add\n        /* \"#utility.yul\":3173:3237   */\n      tag_298\n      jump\t// in\n    tag_325:\n        /* \"#utility.yul\":3163:3237   */\n      swap2\n      pop\n        /* \"#utility.yul\":3119:3247   */\n      pop\n        /* \"#utility.yul\":3047:3254   */\n      swap3\n      swap2\n      pop\n      pop\n      jump\t// out\n        /* \"#utility.yul\":3260:3402   */\n    tag_326:\n        /* \"#utility.yul\":3363:3395   */\n      tag_328\n        /* \"#utility.yul\":3389:3394   */\n      dup2\n        /* \"#utility.yul\":3363:3395   */\n      tag_329\n      jump\t// in\n    tag_328:\n        /* \"#utility.yul\":3358:3361   */\n      dup3\n        /* \"#utility.yul\":3351:3396   */\n      mstore\n        /* \"#utility.yul\":3341:3402   */\n      pop\n      pop\n      jump\t// out\n        /* \"#utility.yul\":3408:3526   */\n    tag_330:\n        /* \"#utility.yul\":3495:3519   */\n      tag_332\n        /* \"#utility.yul\":3513:3518   */\n      dup2\n        /* \"#utility.yul\":3495:3519   */\n      tag_333\n      jump\t// in\n    tag_332:\n        /* \"#utility.yul\":3490:3493   */\n      dup3\n        /* \"#utility.yul\":3483:3520   */\n      mstore\n        /* \"#utility.yul\":3473:3526   */\n      pop\n      pop\n      jump\t// out\n        /* \"#utility.yul\":3532:3641   */\n    tag_334:\n        /* \"#utility.yul\":3613:3634   */\n      tag_336\n        /* \"#utility.yul\":3628:3633   */\n      dup2\n        /* \"#utility.yul\":3613:3634   */\n      tag_337\n      jump\t// in\n    tag_336:\n        /* \"#utility.yul\":3608:3611   */\n      dup3\n        /* \"#utility.yul\":3601:3635   */\n      mstore\n        /* \"#utility.yul\":3591:3641   */\n      pop\n      pop\n      jump\t// out\n        /* \"#utility.yul\":3647:3820   */\n    tag_338:\n        /* \"#utility.yul\":3755:3813   */\n      tag_340\n        /* \"#utility.yul\":3807:3812   */\n      dup2\n        /* \"#utility.yul\":3755:3813   */\n      tag_341\n      jump\t// in\n    tag_340:\n        /* \"#utility.yul\":3750:3753   */\n      dup3\n        /* \"#utility.yul\":3743:3814   */\n      mstore\n        /* \"#utility.yul\":3733:3820   */\n      pop\n      pop\n      jump\t// out\n        /* \"#utility.yul\":3826:3971   */\n    tag_342:\n        /* \"#utility.yul\":3920:3964   */\n      tag_344\n        /* \"#utility.yul\":3958:3963   */\n      dup2\n        /* \"#utility.yul\":3920:3964   */\n      tag_345\n      jump\t// in\n    tag_344:\n        /* \"#utility.yul\":3915:3918   */\n      dup3\n        /* \"#utility.yul\":3908:3965   */\n      mstore\n        /* \"#utility.yul\":3898:3971   */\n      pop\n      pop\n      jump\t// out\n        /* \"#utility.yul\":3977:4341   */\n    tag_346:\n      0x00\n        /* \"#utility.yul\":4093:4132   */\n      tag_348\n        /* \"#utility.yul\":4126:4131   */\n      dup3\n        /* \"#utility.yul\":4093:4132   */\n      tag_349\n      jump\t// in\n    tag_348:\n        /* \"#utility.yul\":4148:4219   */\n      tag_350\n        /* \"#utility.yul\":4212:4218   */\n      dup2\n        /* \"#utility.yul\":4207:4210   */\n      dup6\n        /* \"#utility.yul\":4148:4219   */\n      tag_351\n      jump\t// in\n    tag_350:\n        /* \"#utility.yul\":4141:4219   */\n      swap4\n      pop\n        /* \"#utility.yul\":4228:4280   */\n      tag_352\n        /* \"#utility.yul\":4273:4279   */\n      dup2\n        /* \"#utility.yul\":4268:4271   */\n      dup6\n        /* \"#utility.yul\":4261:4265   */\n      0x20\n        /* \"#utility.yul\":4254:4259   */\n      dup7\n        /* \"#utility.yul\":4250:4266   */\n      add\n        /* \"#utility.yul\":4228:4280   */\n      tag_353\n      jump\t// in\n    tag_352:\n        /* \"#utility.yul\":4305:4334   */\n      tag_354\n        /* \"#utility.yul\":4327:4333   */\n      dup2\n        /* \"#utility.yul\":4305:4334   */\n      tag_355\n      jump\t// in\n    tag_354:\n        /* \"#utility.yul\":4300:4303   */\n      dup5\n        /* \"#utility.yul\":4296:4335   */\n      add\n        /* \"#utility.yul\":4289:4335   */\n      swap2\n      pop\n        /* \"#utility.yul\":4069:4341   */\n      pop\n      swap3\n      swap2\n      pop\n      pop\n      jump\t// out\n        /* \"#utility.yul\":4347:4465   */\n    tag_356:\n        /* \"#utility.yul\":4434:4458   */\n      tag_358\n        /* \"#utility.yul\":4452:4457   */\n      dup2\n        /* \"#utility.yul\":4434:4458   */\n      tag_359\n      jump\t// in\n    tag_358:\n        /* \"#utility.yul\":4429:4432   */\n      dup3\n        /* \"#utility.yul\":4422:4459   */\n      mstore\n        /* \"#utility.yul\":4412:4465   */\n      pop\n      pop\n      jump\t// out\n        /* \"#utility.yul\":4471:4693   */\n    tag_103:\n      0x00\n        /* \"#utility.yul\":4602:4604   */\n      0x20\n        /* \"#utility.yul\":4591:4600   */\n      dup3\n        /* \"#utility.yul\":4587:4605   */\n      add\n        /* \"#utility.yul\":4579:4605   */\n      swap1\n      pop\n        /* \"#utility.yul\":4615:4686   */\n      tag_361\n        /* \"#utility.yul\":4683:4684   */\n      0x00\n        /* \"#utility.yul\":4672:4681   */\n      dup4\n        /* \"#utility.yul\":4668:4685   */\n      add\n        /* \"#utility.yul\":4659:4665   */\n      dup5\n        /* \"#utility.yul\":4615:4686   */\n      tag_330\n      jump\t// in\n    tag_361:\n        /* \"#utility.yul\":4569:4693   */\n      swap3\n      swap2\n      pop\n      pop\n      jump\t// out\n        /* \"#utility.yul\":4699:4953   */\n    tag_155:\n      0x00\n        /* \"#utility.yul\":4846:4848   */\n      0x20\n        /* \"#utility.yul\":4835:4844   */\n      dup3\n        /* \"#utility.yul\":4831:4849   */\n      add\n        /* \"#utility.yul\":4823:4849   */\n      swap1\n      pop\n        /* \"#utility.yul\":4859:4946   */\n      tag_363\n        /* \"#utility.yul\":4943:4944   */\n      0x00\n        /* \"#utility.yul\":4932:4941   */\n      dup4\n        /* \"#utility.yul\":4928:4945   */\n      add\n        /* \"#utility.yul\":4919:4925   */\n      dup5\n        /* \"#utility.yul\":4859:4946   */\n      tag_326\n      jump\t// in\n    tag_363:\n        /* \"#utility.yul\":4813:4953   */\n      swap3\n      swap2\n      pop\n      pop\n      jump\t// out\n        /* \"#utility.yul\":4959:5291   */\n    tag_188:\n      0x00\n        /* \"#utility.yul\":5118:5120   */\n      0x40\n        /* \"#utility.yul\":5107:5116   */\n      dup3\n        /* \"#utility.yul\":5103:5121   */\n      add\n        /* \"#utility.yul\":5095:5121   */\n      swap1\n      pop\n        /* \"#utility.yul\":5131:5202   */\n      tag_365\n        /* \"#utility.yul\":5199:5200   */\n      0x00\n        /* \"#utility.yul\":5188:5197   */\n      dup4\n        /* \"#utility.yul\":5184:5201   */\n      add\n        /* \"#utility.yul\":5175:5181   */\n      dup6\n        /* \"#utility.yul\":5131:5202   */\n      tag_330\n      jump\t// in\n    tag_365:\n        /* \"#utility.yul\":5212:5284   */\n      tag_366\n        /* \"#utility.yul\":5280:5282   */\n      0x20\n        /* \"#utility.yul\":5269:5278   */\n      dup4\n        /* \"#utility.yul\":5265:5283   */\n      add\n        /* \"#utility.yul\":5256:5262   */\n      dup5\n        /* \"#utility.yul\":5212:5284   */\n      tag_356\n      jump\t// in\n    tag_366:\n        /* \"#utility.yul\":5085:5291   */\n      swap4\n      swap3\n      pop\n      pop\n      pop\n      jump\t// out\n        /* \"#utility.yul\":5297:5739   */\n    tag_201:\n      0x00\n        /* \"#utility.yul\":5484:5486   */\n      0x60\n        /* \"#utility.yul\":5473:5482   */\n      dup3\n        /* \"#utility.yul\":5469:5487   */\n      add\n        /* \"#utility.yul\":5461:5487   */\n      swap1\n      pop\n        /* \"#utility.yul\":5497:5568   */\n      tag_368\n        /* \"#utility.yul\":5565:5566   */\n      0x00\n        /* \"#utility.yul\":5554:5563   */\n      dup4\n        /* \"#utility.yul\":5550:5567   */\n      add\n        /* \"#utility.yul\":5541:5547   */\n      dup7\n        /* \"#utility.yul\":5497:5568   */\n      tag_330\n      jump\t// in\n    tag_368:\n        /* \"#utility.yul\":5578:5650   */\n      tag_369\n        /* \"#utility.yul\":5646:5648   */\n      0x20\n        /* \"#utility.yul\":5635:5644   */\n      dup4\n        /* \"#utility.yul\":5631:5649   */\n      add\n        /* \"#utility.yul\":5622:5628   */\n      dup6\n        /* \"#utility.yul\":5578:5650   */\n      tag_356\n      jump\t// in\n    tag_369:\n        /* \"#utility.yul\":5660:5732   */\n      tag_370\n        /* \"#utility.yul\":5728:5730   */\n      0x40\n        /* \"#utility.yul\":5717:5726   */\n      dup4\n        /* \"#utility.yul\":5713:5731   */\n      add\n        /* \"#utility.yul\":5704:5710   */\n      dup5\n        /* \"#utility.yul\":5660:5732   */\n      tag_356\n      jump\t// in\n    tag_370:\n        /* \"#utility.yul\":5451:5739   */\n      swap5\n      swap4\n      pop\n      pop\n      pop\n      pop\n      jump\t// out\n        /* \"#utility.yul\":5745:5955   */\n    tag_62:\n      0x00\n        /* \"#utility.yul\":5870:5872   */\n      0x20\n        /* \"#utility.yul\":5859:5868   */\n      dup3\n        /* \"#utility.yul\":5855:5873   */\n      add\n        /* \"#utility.yul\":5847:5873   */\n      swap1\n      pop\n        /* \"#utility.yul\":5883:5948   */\n      tag_372\n        /* \"#utility.yul\":5945:5946   */\n      0x00\n        /* \"#utility.yul\":5934:5943   */\n      dup4\n        /* \"#utility.yul\":5930:5947   */\n      add\n        /* \"#utility.yul\":5921:5927   */\n      dup5\n        /* \"#utility.yul\":5883:5948   */\n      tag_334\n      jump\t// in\n    tag_372:\n        /* \"#utility.yul\":5837:5955   */\n      swap3\n      swap2\n      pop\n      pop\n      jump\t// out\n        /* \"#utility.yul\":5961:6225   */\n    tag_108:\n      0x00\n        /* \"#utility.yul\":6113:6115   */\n      0x20\n        /* \"#utility.yul\":6102:6111   */\n      dup3\n        /* \"#utility.yul\":6098:6116   */\n      add\n        /* \"#utility.yul\":6090:6116   */\n      swap1\n      pop\n        /* \"#utility.yul\":6126:6218   */\n      tag_374\n        /* \"#utility.yul\":6215:6216   */\n      0x00\n        /* \"#utility.yul\":6204:6213   */\n      dup4\n        /* \"#utility.yul\":6200:6217   */\n      add\n        /* \"#utility.yul\":6191:6197   */\n      dup5\n        /* \"#utility.yul\":6126:6218   */\n      tag_338\n      jump\t// in\n    tag_374:\n        /* \"#utility.yul\":6080:6225   */\n      swap3\n      swap2\n      pop\n      pop\n      jump\t// out\n        /* \"#utility.yul\":6231:6467   */\n    tag_87:\n      0x00\n        /* \"#utility.yul\":6369:6371   */\n      0x20\n        /* \"#utility.yul\":6358:6367   */\n      dup3\n        /* \"#utility.yul\":6354:6372   */\n      add\n        /* \"#utility.yul\":6346:6372   */\n      swap1\n      pop\n        /* \"#utility.yul\":6382:6460   */\n      tag_376\n        /* \"#utility.yul\":6457:6458   */\n      0x00\n        /* \"#utility.yul\":6446:6455   */\n      dup4\n        /* \"#utility.yul\":6442:6459   */\n      add\n        /* \"#utility.yul\":6433:6439   */\n      dup5\n        /* \"#utility.yul\":6382:6460   */\n      tag_342\n      jump\t// in\n    tag_376:\n        /* \"#utility.yul\":6336:6467   */\n      swap3\n      swap2\n      pop\n      pop\n      jump\t// out\n        /* \"#utility.yul\":6473:6786   */\n    tag_55:\n      0x00\n        /* \"#utility.yul\":6624:6626   */\n      0x20\n        /* \"#utility.yul\":6613:6622   */\n      dup3\n        /* \"#utility.yul\":6609:6627   */\n      add\n        /* \"#utility.yul\":6601:6627   */\n      swap1\n      pop\n        /* \"#utility.yul\":6673:6682   */\n      dup2\n        /* \"#utility.yul\":6667:6671   */\n      dup2\n        /* \"#utility.yul\":6663:6683   */\n      sub\n        /* \"#utility.yul\":6659:6660   */\n      0x00\n        /* \"#utility.yul\":6648:6657   */\n      dup4\n        /* \"#utility.yul\":6644:6661   */\n      add\n        /* \"#utility.yul\":6637:6684   */\n      mstore\n        /* \"#utility.yul\":6701:6779   */\n      tag_378\n        /* \"#utility.yul\":6774:6778   */\n      dup2\n        /* \"#utility.yul\":6765:6771   */\n      dup5\n        /* \"#utility.yul\":6701:6779   */\n      tag_346\n      jump\t// in\n    tag_378:\n        /* \"#utility.yul\":6693:6779   */\n      swap1\n      pop\n        /* \"#utility.yul\":6591:6786   */\n      swap3\n      swap2\n      pop\n      pop\n      jump\t// out\n        /* \"#utility.yul\":6792:7014   */\n    tag_47:\n      0x00\n        /* \"#utility.yul\":6923:6925   */\n      0x20\n        /* \"#utility.yul\":6912:6921   */\n      dup3\n        /* \"#utility.yul\":6908:6926   */\n      add\n        /* \"#utility.yul\":6900:6926   */\n      swap1\n      pop\n        /* \"#utility.yul\":6936:7007   */\n      tag_380\n        /* \"#utility.yul\":7004:7005   */\n      0x00\n        /* \"#utility.yul\":6993:7002   */\n      dup4\n        /* \"#utility.yul\":6989:7006   */\n      add\n        /* \"#utility.yul\":6980:6986   */\n      dup5\n        /* \"#utility.yul\":6936:7007   */\n      tag_356\n      jump\t// in\n    tag_380:\n        /* \"#utility.yul\":6890:7014   */\n      swap3\n      swap2\n      pop\n      pop\n      jump\t// out\n        /* \"#utility.yul\":7020:7119   */\n    tag_349:\n      0x00\n        /* \"#utility.yul\":7106:7111   */\n      dup2\n        /* \"#utility.yul\":7100:7112   */\n      mload\n        /* \"#utility.yul\":7090:7112   */\n      swap1\n      pop\n        /* \"#utility.yul\":7079:7119   */\n      swap2\n      swap1\n      pop\n      jump\t// out\n        /* \"#utility.yul\":7125:7294   */\n    tag_351:\n      0x00\n        /* \"#utility.yul\":7243:7249   */\n      dup3\n        /* \"#utility.yul\":7238:7241   */\n      dup3\n        /* \"#utility.yul\":7231:7250   */\n      mstore\n        /* \"#utility.yul\":7283:7287   */\n      0x20\n        /* \"#utility.yul\":7278:7281   */\n      dup3\n        /* \"#utility.yul\":7274:7288   */\n      add\n        /* \"#utility.yul\":7259:7288   */\n      swap1\n      pop\n        /* \"#utility.yul\":7221:7294   */\n      swap3\n      swap2\n      pop\n      pop\n      jump\t// out\n        /* \"#utility.yul\":7300:7605   */\n    tag_181:\n      0x00\n        /* \"#utility.yul\":7359:7379   */\n      tag_384\n        /* \"#utility.yul\":7377:7378   */\n      dup3\n        /* \"#utility.yul\":7359:7379   */\n      tag_359\n      jump\t// in\n    tag_384:\n        /* \"#utility.yul\":7354:7379   */\n      swap2\n      pop\n        /* \"#utility.yul\":7393:7413   */\n      tag_385\n        /* \"#utility.yul\":7411:7412   */\n      dup4\n        /* \"#utility.yul\":7393:7413   */\n      tag_359\n      jump\t// in\n    tag_385:\n        /* \"#utility.yul\":7388:7413   */\n      swap3\n      pop\n        /* \"#utility.yul\":7547:7548   */\n      dup3\n        /* \"#utility.yul\":7479:7545   */\n      0xffffffffffffffffffffffffffffffffffffffffffffffffffffffffffffffff\n        /* \"#utility.yul\":7475:7549   */\n      sub\n        /* \"#utility.yul\":7472:7473   */\n      dup3\n        /* \"#utility.yul\":7469:7550   */\n      gt\n        /* \"#utility.yul\":7466:7468   */\n      iszero\n      tag_386\n      jumpi\n        /* \"#utility.yul\":7553:7571   */\n      tag_387\n      tag_388\n      jump\t// in\n    tag_387:\n        /* \"#utility.yul\":7466:7468   */\n    tag_386:\n        /* \"#utility.yul\":7597:7598   */\n      dup3\n        /* \"#utility.yul\":7594:7595   */\n      dup3\n        /* \"#utility.yul\":7590:7599   */\n      add\n        /* \"#utility.yul\":7583:7599   */\n      swap1\n      pop\n        /* \"#utility.yul\":7344:7605   */\n      swap3\n      swap2\n      pop\n      pop\n      jump\t// out\n        /* \"#utility.yul\":7611:7796   */\n    tag_184:\n      0x00\n        /* \"#utility.yul\":7668:7688   */\n      tag_390\n        /* \"#utility.yul\":7686:7687   */\n      dup3\n        /* \"#utility.yul\":7668:7688   */\n      tag_359\n      jump\t// in\n    tag_390:\n        /* \"#utility.yul\":7663:7688   */\n      swap2\n      pop\n        /* \"#utility.yul\":7702:7722   */\n      tag_391\n        /* \"#utility.yul\":7720:7721   */\n      dup4\n        /* \"#utility.yul\":7702:7722   */\n      tag_359\n      jump\t// in\n    tag_391:\n        /* \"#utility.yul\":7697:7722   */\n      swap3\n      pop\n        /* \"#utility.yul\":7741:7742   */\n      dup3\n        /* \"#utility.yul\":7731:7733   */\n      tag_392\n      jumpi\n        /* \"#utility.yul\":7746:7764   */\n      tag_393\n      tag_394\n      jump\t// in\n    tag_393:\n        /* \"#utility.yul\":7731:7733   */\n    tag_392:\n        /* \"#utility.yul\":7788:7789   */\n      dup3\n        /* \"#utility.yul\":7785:7786   */\n      dup3\n        /* \"#utility.yul\":7781:7790   */\n      div\n        /* \"#utility.yul\":7776:7790   */\n      swap1\n      pop\n        /* \"#utility.yul\":7653:7796   */\n      swap3\n      swap2\n      pop\n      pop\n      jump\t// out\n        /* \"#utility.yul\":7802:8150   */\n    tag_186:\n      0x00\n        /* \"#utility.yul\":7865:7885   */\n      tag_396\n        /* \"#utility.yul\":7883:7884   */\n      dup3\n        /* \"#utility.yul\":7865:7885   */\n      tag_359\n      jump\t// in\n    tag_396:\n        /* \"#utility.yul\":7860:7885   */\n      swap2\n      pop\n        /* \"#utility.yul\":7899:7919   */\n      tag_397\n        /* \"#utility.yul\":7917:7918   */\n      dup4\n        /* \"#utility.yul\":7899:7919   */\n      tag_359\n      jump\t// in\n    tag_397:\n        /* \"#utility.yul\":7894:7919   */\n      swap3\n      pop\n        /* \"#utility.yul\":8087:8088   */\n      dup2\n        /* \"#utility.yul\":8019:8085   */\n      0xffffffffffffffffffffffffffffffffffffffffffffffffffffffffffffffff\n        /* \"#utility.yul\":8015:8089   */\n      div\n        /* \"#utility.yul\":8012:8013   */\n      dup4\n        /* \"#utility.yul\":8009:8090   */\n      gt\n        /* \"#utility.yul\":8004:8005   */\n      dup3\n        /* \"#utility.yul\":7997:8006   */\n      iszero\n        /* \"#utility.yul\":7990:8007   */\n      iszero\n        /* \"#utility.yul\":7986:8091   */\n      and\n        /* \"#utility.yul\":7983:7985   */\n      iszero\n      tag_398\n      jumpi\n        /* \"#utility.yul\":8094:8112   */\n      tag_399\n      tag_388\n      jump\t// in\n    tag_399:\n        /* \"#utility.yul\":7983:7985   */\n    tag_398:\n        /* \"#utility.yul\":8142:8143   */\n      dup3\n        /* \"#utility.yul\":8139:8140   */\n      dup3\n        /* \"#utility.yul\":8135:8144   */\n      mul\n        /* \"#utility.yul\":8124:8144   */\n      swap1\n      pop\n        /* \"#utility.yul\":7850:8150   */\n      swap3\n      swap2\n      pop\n      pop\n      jump\t// out\n        /* \"#utility.yul\":8156:8347   */\n    tag_197:\n      0x00\n        /* \"#utility.yul\":8216:8236   */\n      tag_401\n        /* \"#utility.yul\":8234:8235   */\n      dup3\n        /* \"#utility.yul\":8216:8236   */\n      tag_359\n      jump\t// in\n    tag_401:\n        /* \"#utility.yul\":8211:8236   */\n      swap2\n      pop\n        /* \"#utility.yul\":8250:8270   */\n      tag_402\n        /* \"#utility.yul\":8268:8269   */\n      dup4\n        /* \"#utility.yul\":8250:8270   */\n      tag_359\n      jump\t// in\n    tag_402:\n        /* \"#utility.yul\":8245:8270   */\n      swap3\n      pop\n        /* \"#utility.yul\":8289:8290   */\n      dup3\n        /* \"#utility.yul\":8286:8287   */\n      dup3\n        /* \"#utility.yul\":8283:8291   */\n      lt\n        /* \"#utility.yul\":8280:8282   */\n      iszero\n      tag_403\n      jumpi\n        /* \"#utility.yul\":8294:8312   */\n      tag_404\n      tag_388\n      jump\t// in\n    tag_404:\n        /* \"#utility.yul\":8280:8282   */\n    tag_403:\n        /* \"#utility.yul\":8339:8340   */\n      dup3\n        /* \"#utility.yul\":8336:8337   */\n      dup3\n        /* \"#utility.yul\":8332:8341   */\n      sub\n        /* \"#utility.yul\":8324:8341   */\n      swap1\n      pop\n        /* \"#utility.yul\":8201:8347   */\n      swap3\n      swap2\n      pop\n      pop\n      jump\t// out\n        /* \"#utility.yul\":8353:8449   */\n    tag_333:\n      0x00\n        /* \"#utility.yul\":8419:8443   */\n      tag_406\n        /* \"#utility.yul\":8437:8442   */\n      dup3\n        /* \"#utility.yul\":8419:8443   */\n      tag_407\n      jump\t// in\n    tag_406:\n        /* \"#utility.yul\":8408:8443   */\n      swap1\n      pop\n        /* \"#utility.yul\":8398:8449   */\n      swap2\n      swap1\n      pop\n      jump\t// out\n        /* \"#utility.yul\":8455:8559   */\n    tag_329:\n      0x00\n        /* \"#utility.yul\":8529:8553   */\n      tag_409\n        /* \"#utility.yul\":8547:8552   */\n      dup3\n        /* \"#utility.yul\":8529:8553   */\n      tag_407\n      jump\t// in\n    tag_409:\n        /* \"#utility.yul\":8518:8553   */\n      swap1\n      pop\n        /* \"#utility.yul\":8508:8559   */\n      swap2\n      swap1\n      pop\n      jump\t// out\n        /* \"#utility.yul\":8565:8655   */\n    tag_337:\n      0x00\n        /* \"#utility.yul\":8642:8647   */\n      dup2\n        /* \"#utility.yul\":8635:8648   */\n      iszero\n        /* \"#utility.yul\":8628:8649   */\n      iszero\n        /* \"#utility.yul\":8617:8649   */\n      swap1\n      pop\n        /* \"#utility.yul\":8607:8655   */\n      swap2\n      swap1\n      pop\n      jump\t// out\n        /* \"#utility.yul\":8661:8790   */\n    tag_411:\n      0x00\n        /* \"#utility.yul\":8736:8741   */\n      dup2\n        /* \"#utility.yul\":8725:8741   */\n      swap1\n      pop\n        /* \"#utility.yul\":8742:8784   */\n      tag_413\n        /* \"#utility.yul\":8778:8783   */\n      dup3\n        /* \"#utility.yul\":8742:8784   */\n      tag_414\n      jump\t// in\n    tag_413:\n        /* \"#utility.yul\":8715:8790   */\n      swap2\n      swap1\n      pop\n      jump\t// out\n        /* \"#utility.yul\":8796:8922   */\n    tag_407:\n      0x00\n        /* \"#utility.yul\":8873:8915   */\n      0xffffffffffffffffffffffffffffffffffffffff\n        /* \"#utility.yul\":8866:8871   */\n      dup3\n        /* \"#utility.yul\":8862:8916   */\n      and\n        /* \"#utility.yul\":8851:8916   */\n      swap1\n      pop\n        /* \"#utility.yul\":8841:8922   */\n      swap2\n      swap1\n      pop\n      jump\t// out\n        /* \"#utility.yul\":8928:9005   */\n    tag_359:\n      0x00\n        /* \"#utility.yul\":8994:8999   */\n      dup2\n        /* \"#utility.yul\":8983:8999   */\n      swap1\n      pop\n        /* \"#utility.yul\":8973:9005   */\n      swap2\n      swap1\n      pop\n      jump\t// out\n        /* \"#utility.yul\":9011:9179   */\n    tag_341:\n      0x00\n        /* \"#utility.yul\":9115:9173   */\n      tag_418\n        /* \"#utility.yul\":9167:9172   */\n      dup3\n        /* \"#utility.yul\":9115:9173   */\n      tag_419\n      jump\t// in\n    tag_418:\n        /* \"#utility.yul\":9102:9173   */\n      swap1\n      pop\n        /* \"#utility.yul\":9092:9179   */\n      swap2\n      swap1\n      pop\n      jump\t// out\n        /* \"#utility.yul\":9185:9319   */\n    tag_419:\n      0x00\n        /* \"#utility.yul\":9289:9313   */\n      tag_421\n        /* \"#utility.yul\":9307:9312   */\n      dup3\n        /* \"#utility.yul\":9289:9313   */\n      tag_407\n      jump\t// in\n    tag_421:\n        /* \"#utility.yul\":9276:9313   */\n      swap1\n      pop\n        /* \"#utility.yul\":9266:9319   */\n      swap2\n      swap1\n      pop\n      jump\t// out\n        /* \"#utility.yul\":9325:9454   */\n    tag_345:\n      0x00\n        /* \"#utility.yul\":9415:9448   */\n      tag_423\n        /* \"#utility.yul\":9442:9447   */\n      dup3\n        /* \"#utility.yul\":9415:9448   */\n      tag_411\n      jump\t// in\n    tag_423:\n        /* \"#utility.yul\":9402:9448   */\n      swap1\n      pop\n        /* \"#utility.yul\":9392:9454   */\n      swap2\n      swap1\n      pop\n      jump\t// out\n        /* \"#utility.yul\":9460:9767   */\n    tag_353:\n        /* \"#utility.yul\":9528:9529   */\n      0x00\n        /* \"#utility.yul\":9538:9651   */\n    tag_425:\n        /* \"#utility.yul\":9552:9558   */\n      dup4\n        /* \"#utility.yul\":9549:9550   */\n      dup2\n        /* \"#utility.yul\":9546:9559   */\n      lt\n        /* \"#utility.yul\":9538:9651   */\n      iszero\n      tag_427\n      jumpi\n        /* \"#utility.yul\":9637:9638   */\n      dup1\n        /* \"#utility.yul\":9632:9635   */\n      dup3\n        /* \"#utility.yul\":9628:9639   */\n      add\n        /* \"#utility.yul\":9622:9640   */\n      mload\n        /* \"#utility.yul\":9618:9619   */\n      dup2\n        /* \"#utility.yul\":9613:9616   */\n      dup5\n        /* \"#utility.yul\":9609:9620   */\n      add\n        /* \"#utility.yul\":9602:9641   */\n      mstore\n        /* \"#utility.yul\":9574:9576   */\n      0x20\n        /* \"#utility.yul\":9571:9572   */\n      dup2\n        /* \"#utility.yul\":9567:9577   */\n      add\n        /* \"#utility.yul\":9562:9577   */\n      swap1\n      pop\n        /* \"#utility.yul\":9538:9651   */\n      jump(tag_425)\n    tag_427:\n        /* \"#utility.yul\":9669:9675   */\n      dup4\n        /* \"#utility.yul\":9666:9667   */\n      dup2\n        /* \"#utility.yul\":9663:9676   */\n      gt\n        /* \"#utility.yul\":9660:9662   */\n      iszero\n      tag_428\n      jumpi\n        /* \"#utility.yul\":9749:9750   */\n      0x00\n        /* \"#utility.yul\":9740:9746   */\n      dup5\n        /* \"#utility.yul\":9735:9738   */\n      dup5\n        /* \"#utility.yul\":9731:9747   */\n      add\n        /* \"#utility.yul\":9724:9751   */\n      mstore\n        /* \"#utility.yul\":9660:9662   */\n    tag_428:\n        /* \"#utility.yul\":9509:9767   */\n      pop\n      pop\n      pop\n      pop\n      jump\t// out\n        /* \"#utility.yul\":9773:10093   */\n    tag_207:\n      0x00\n        /* \"#utility.yul\":9854:9855   */\n      0x02\n        /* \"#utility.yul\":9848:9852   */\n      dup3\n        /* \"#utility.yul\":9844:9856   */\n      div\n        /* \"#utility.yul\":9834:9856   */\n      swap1\n      pop\n        /* \"#utility.yul\":9901:9902   */\n      0x01\n        /* \"#utility.yul\":9895:9899   */\n      dup3\n        /* \"#utility.yul\":9891:9903   */\n      and\n        /* \"#utility.yul\":9922:9940   */\n      dup1\n        /* \"#utility.yul\":9912:9914   */\n      tag_430\n      jumpi\n        /* \"#utility.yul\":9978:9982   */\n      0x7f\n        /* \"#utility.yul\":9970:9976   */\n      dup3\n        /* \"#utility.yul\":9966:9983   */\n      and\n        /* \"#utility.yul\":9956:9983   */\n      swap2\n      pop\n        /* \"#utility.yul\":9912:9914   */\n    tag_430:\n        /* \"#utility.yul\":10040:10042   */\n      0x20\n        /* \"#utility.yul\":10032:10038   */\n      dup3\n        /* \"#utility.yul\":10029:10043   */\n      lt\n        /* \"#utility.yul\":10009:10027   */\n      dup2\n        /* \"#utility.yul\":10006:10044   */\n      eq\n        /* \"#utility.yul\":10003:10005   */\n      iszero\n      tag_431\n      jumpi\n        /* \"#utility.yul\":10059:10077   */\n      tag_432\n      tag_433\n      jump\t// in\n    tag_432:\n        /* \"#utility.yul\":10003:10005   */\n    tag_431:\n        /* \"#utility.yul\":9824:10093   */\n      pop\n      swap2\n      swap1\n      pop\n      jump\t// out\n        /* \"#utility.yul\":10099:10279   */\n    tag_388:\n        /* \"#utility.yul\":10147:10224   */\n      0x4e487b7100000000000000000000000000000000000000000000000000000000\n        /* \"#utility.yul\":10144:10145   */\n      0x00\n        /* \"#utility.yul\":10137:10225   */\n      mstore\n        /* \"#utility.yul\":10244:10248   */\n      0x11\n        /* \"#utility.yul\":10241:10242   */\n      0x04\n        /* \"#utility.yul\":10234:10249   */\n      mstore\n        /* \"#utility.yul\":10268:10272   */\n      0x24\n        /* \"#utility.yul\":10265:10266   */\n      0x00\n        /* \"#utility.yul\":10258:10273   */\n      revert\n        /* \"#utility.yul\":10285:10465   */\n    tag_394:\n        /* \"#utility.yul\":10333:10410   */\n      0x4e487b7100000000000000000000000000000000000000000000000000000000\n        /* \"#utility.yul\":10330:10331   */\n      0x00\n        /* \"#utility.yul\":10323:10411   */\n      mstore\n        /* \"#utility.yul\":10430:10434   */\n      0x12\n        /* \"#utility.yul\":10427:10428   */\n      0x04\n        /* \"#utility.yul\":10420:10435   */\n      mstore\n        /* \"#utility.yul\":10454:10458   */\n      0x24\n        /* \"#utility.yul\":10451:10452   */\n      0x00\n        /* \"#utility.yul\":10444:10459   */\n      revert\n        /* \"#utility.yul\":10471:10651   */\n    tag_436:\n        /* \"#utility.yul\":10519:10596   */\n      0x4e487b7100000000000000000000000000000000000000000000000000000000\n        /* \"#utility.yul\":10516:10517   */\n      0x00\n        /* \"#utility.yul\":10509:10597   */\n      mstore\n        /* \"#utility.yul\":10616:10620   */\n      0x21\n        /* \"#utility.yul\":10613:10614   */\n      0x04\n        /* \"#utility.yul\":10606:10621   */\n      mstore\n        /* \"#utility.yul\":10640:10644   */\n      0x24\n        /* \"#utility.yul\":10637:10638   */\n      0x00\n        /* \"#utility.yul\":10630:10645   */\n      revert\n        /* \"#utility.yul\":10657:10837   */\n    tag_433:\n        /* \"#utility.yul\":10705:10782   */\n      0x4e487b7100000000000000000000000000000000000000000000000000000000\n        /* \"#utility.yul\":10702:10703   */\n      0x00\n        /* \"#utility.yul\":10695:10783   */\n      mstore\n        /* \"#utility.yul\":10802:10806   */\n      0x22\n        /* \"#utility.yul\":10799:10800   */\n      0x04\n        /* \"#utility.yul\":10792:10807   */\n      mstore\n        /* \"#utility.yul\":10826:10830   */\n      0x24\n        /* \"#utility.yul\":10823:10824   */\n      0x00\n        /* \"#utility.yul\":10816:10831   */\n      revert\n        /* \"#utility.yul\":10843:10945   */\n    tag_355:\n      0x00\n        /* \"#utility.yul\":10935:10937   */\n      0x1f\n        /* \"#utility.yul\":10931:10938   */\n      not\n        /* \"#utility.yul\":10926:10928   */\n      0x1f\n        /* \"#utility.yul\":10919:10924   */\n      dup4\n        /* \"#utility.yul\":10915:10929   */\n      add\n        /* \"#utility.yul\":10911:10939   */\n      and\n        /* \"#utility.yul\":10901:10939   */\n      swap1\n      pop\n        /* \"#utility.yul\":10891:10945   */\n      swap2\n      swap1\n      pop\n      jump\t// out\n        /* \"#utility.yul\":10951:11065   */\n    tag_414:\n        /* \"#utility.yul\":11033:11034   */\n      0x04\n        /* \"#utility.yul\":11026:11031   */\n      dup2\n        /* \"#utility.yul\":11023:11035   */\n      lt\n        /* \"#utility.yul\":11013:11015   */\n      tag_441\n      jumpi\n        /* \"#utility.yul\":11039:11057   */\n      tag_442\n      tag_436\n      jump\t// in\n    tag_442:\n        /* \"#utility.yul\":11013:11015   */\n    tag_441:\n        /* \"#utility.yul\":11003:11065   */\n      pop\n      jump\t// out\n        /* \"#utility.yul\":11071:11193   */\n    tag_285:\n        /* \"#utility.yul\":11144:11168   */\n      tag_444\n        /* \"#utility.yul\":11162:11167   */\n      dup2\n        /* \"#utility.yul\":11144:11168   */\n      tag_333\n      jump\t// in\n    tag_444:\n        /* \"#utility.yul\":11137:11142   */\n      dup2\n        /* \"#utility.yul\":11134:11169   */\n      eq\n        /* \"#utility.yul\":11124:11126   */\n      tag_445\n      jumpi\n        /* \"#utility.yul\":11183:11184   */\n      0x00\n        /* \"#utility.yul\":11180:11181   */\n      dup1\n        /* \"#utility.yul\":11173:11185   */\n      revert\n        /* \"#utility.yul\":11124:11126   */\n    tag_445:\n        /* \"#utility.yul\":11114:11193   */\n      pop\n      jump\t// out\n        /* \"#utility.yul\":11199:11337   */\n    tag_289:\n        /* \"#utility.yul\":11280:11312   */\n      tag_447\n        /* \"#utility.yul\":11306:11311   */\n      dup2\n        /* \"#utility.yul\":11280:11312   */\n      tag_329\n      jump\t// in\n    tag_447:\n        /* \"#utility.yul\":11273:11278   */\n      dup2\n        /* \"#utility.yul\":11270:11313   */\n      eq\n        /* \"#utility.yul\":11260:11262   */\n      tag_448\n      jumpi\n        /* \"#utility.yul\":11327:11328   */\n      0x00\n        /* \"#utility.yul\":11324:11325   */\n      dup1\n        /* \"#utility.yul\":11317:11329   */\n      revert\n        /* \"#utility.yul\":11260:11262   */\n    tag_448:\n        /* \"#utility.yul\":11250:11337   */\n      pop\n      jump\t// out\n        /* \"#utility.yul\":11343:11459   */\n    tag_293:\n        /* \"#utility.yul\":11413:11434   */\n      tag_450\n        /* \"#utility.yul\":11428:11433   */\n      dup2\n        /* \"#utility.yul\":11413:11434   */\n      tag_337\n      jump\t// in\n    tag_450:\n        /* \"#utility.yul\":11406:11411   */\n      dup2\n        /* \"#utility.yul\":11403:11435   */\n      eq\n        /* \"#utility.yul\":11393:11395   */\n      tag_451\n      jumpi\n        /* \"#utility.yul\":11449:11450   */\n      0x00\n        /* \"#utility.yul\":11446:11447   */\n      dup1\n        /* \"#utility.yul\":11439:11451   */\n      revert\n        /* \"#utility.yul\":11393:11395   */\n    tag_451:\n        /* \"#utility.yul\":11383:11459   */\n      pop\n      jump\t// out\n        /* \"#utility.yul\":11465:11587   */\n    tag_297:\n        /* \"#utility.yul\":11538:11562   */\n      tag_453\n        /* \"#utility.yul\":11556:11561   */\n      dup2\n        /* \"#utility.yul\":11538:11562   */\n      tag_359\n      jump\t// in\n    tag_453:\n        /* \"#utility.yul\":11531:11536   */\n      dup2\n        /* \"#utility.yul\":11528:11563   */\n      eq\n        /* \"#utility.yul\":11518:11520   */\n      tag_454\n      jumpi\n        /* \"#utility.yul\":11577:11578   */\n      0x00\n        /* \"#utility.yul\":11574:11575   */\n      dup1\n        /* \"#utility.yul\":11567:11579   */\n      revert\n        /* \"#utility.yul\":11518:11520   */\n    tag_454:\n        /* \"#utility.yul\":11508:11587   */\n      pop\n      jump\t// out\n\n    auxdata: 0xa264697066735822122049df13cc0f7273a7471bdb8a6f71fc6eb2444a1685c7dd925471379b8f022db264736f6c63430008000033\n}\n",
				"bytecode": {
					"linkReferences": {},
					"object": "60806040526040518060400160405280600781526020017f43727970746f7300000000000000000000000000000000000000000000000000815250600090805190602001906200005192919062000306565b506040518060400160405280600481526020017f4352505400000000000000000000000000000000000000000000000000000000815250600190805190602001906200009f92919062000306565b50600060025566038d7ea4c68000600955681043561a8829300000600a5542600c5562093a8042620000d2919062000425565b600d5562093a80600d54620000e8919062000425565b600f55674563918244f4000060105567016345785d8a00006011553480156200011057600080fd5b50604051620025a9380380620025a98339818101604052810190620001369190620003e4565b620f424060038190555033600460006101000a81548173ffffffffffffffffffffffffffffffffffffffff021916908373ffffffffffffffffffffffffffffffffffffffff16021790555060035460056000600460009054906101000a900473ffffffffffffffffffffffffffffffffffffffff1673ffffffffffffffffffffffffffffffffffffffff1673ffffffffffffffffffffffffffffffffffffffff1681526020019081526020016000208190555081600860006101000a81548173ffffffffffffffffffffffffffffffffffffffff021916908373ffffffffffffffffffffffffffffffffffffffff16021790555033600760006101000a81548173ffffffffffffffffffffffffffffffffffffffff021916908373ffffffffffffffffffffffffffffffffffffffff1602179055506000601260006101000a81548160ff02191690836003811115620002b8577f4e487b7100000000000000000000000000000000000000000000000000000000600052602160045260246000fd5b021790555080600e60006101000a81548173ffffffffffffffffffffffffffffffffffffffff021916908373ffffffffffffffffffffffffffffffffffffffff16021790555050506200059c565b8280546200031490620004d4565b90600052602060002090601f01602090048101928262000338576000855562000384565b82601f106200035357805160ff191683800117855562000384565b8280016001018555821562000384579182015b828111156200038357825182559160200191906001019062000366565b5b50905062000393919062000397565b5090565b5b80821115620003b257600081600090555060010162000398565b5090565b600081519050620003c78162000568565b92915050565b600081519050620003de8162000582565b92915050565b60008060408385031215620003f857600080fd5b60006200040885828601620003cd565b92505060206200041b85828601620003b6565b9150509250929050565b60006200043282620004ca565b91506200043f83620004ca565b9250827fffffffffffffffffffffffffffffffffffffffffffffffffffffffffffffffff038211156200047757620004766200050a565b5b828201905092915050565b60006200048f82620004aa565b9050919050565b6000620004a382620004aa565b9050919050565b600073ffffffffffffffffffffffffffffffffffffffff82169050919050565b6000819050919050565b60006002820490506001821680620004ed57607f821691505b6020821081141562000504576200050362000539565b5b50919050565b7f4e487b7100000000000000000000000000000000000000000000000000000000600052601160045260246000fd5b7f4e487b7100000000000000000000000000000000000000000000000000000000600052602260045260246000fd5b620005738162000482565b81146200057f57600080fd5b50565b6200058d8162000496565b81146200059957600080fd5b50565b611ffd80620005ac6000396000f3fe6080604052600436106101c55760003560e01c80635ed7ca5b116100f7578063c10b935811610095578063dd62ed3e11610064578063dd62ed3e14610629578063e8b5e51f14610666578063f851a44014610684578063fb86a404146106af576101d5565b8063c10b93581461057d578063c59ee1dc146105a8578063cc9ba583146105d3578063d0e30db0146105fe576101d5565b80638ac2c680116100d15780638ac2c680146104bf57806395d89b41146104ea578063a9059cbb14610515578063ab0bcc4114610552576101d5565b80635ed7ca5b146104425780636d58c88f1461045957806370a0823114610482576101d5565b8063313ce5671161016457806344df8e701161013e57806344df8e701461039657806344f38756146103c15780634d853ee5146103ec57806355a373d614610417576101d5565b8063313ce56714610329578063378aa70114610354578063380d831b1461037f576101d5565b8063095ea7b3116101a0578063095ea7b31461024757806318160ddd1461028457806323b872dd146102af57806327e235e3146102ec576101d5565b80622e1316146101da578063046f7da21461020557806306fdde031461021c576101d5565b366101d5576101d26106da565b50005b600080fd5b3480156101e657600080fd5b506101ef610a5d565b6040516101fc9190611c36565b60405180910390f35b34801561021157600080fd5b5061021a610a63565b005b34801561022857600080fd5b50610231610b10565b60405161023e9190611c14565b60405180910390f35b34801561025357600080fd5b5061026e60048036038101906102699190611a0c565b610b9e565b60405161027b9190611bc3565b60405180910390f35b34801561029057600080fd5b50610299610ce9565b6040516102a69190611c36565b60405180910390f35b3480156102bb57600080fd5b506102d660048036038101906102d191906119bd565b610cef565b6040516102e39190611bc3565b60405180910390f35b3480156102f857600080fd5b50610313600480360381019061030e919061192f565b610d16565b6040516103209190611c36565b60405180910390f35b34801561033557600080fd5b5061033e610d2e565b60405161034b9190611c36565b60405180910390f35b34801561036057600080fd5b50610369610d34565b6040516103769190611bf9565b60405180910390f35b34801561038b57600080fd5b50610394610e03565b005b3480156103a257600080fd5b506103ab61104c565b6040516103b89190611bc3565b60405180910390f35b3480156103cd57600080fd5b506103d661119f565b6040516103e39190611bf9565b60405180910390f35b3480156103f857600080fd5b506104016111b2565b60405161040e9190611b2d565b60405180910390f35b34801561042357600080fd5b5061042c6111d8565b6040516104399190611bde565b60405180910390f35b34801561044e57600080fd5b506104576111fe565b005b34801561046557600080fd5b50610480600480360381019061047b9190611958565b6112ab565b005b34801561048e57600080fd5b506104a960048036038101906104a4919061192f565b611349565b6040516104b69190611c36565b60405180910390f35b3480156104cb57600080fd5b506104d4611392565b6040516104e19190611c36565b60405180910390f35b3480156104f657600080fd5b506104ff611398565b60405161050c9190611c14565b60405180910390f35b34801561052157600080fd5b5061053c60048036038101906105379190611a0c565b611426565b6040516105499190611bc3565b60405180910390f35b34801561055e57600080fd5b5061056761144b565b6040516105749190611c36565b60405180910390f35b34801561058957600080fd5b50610592611451565b60405161059f9190611c36565b60405180910390f35b3480156105b457600080fd5b506105bd611457565b6040516105ca9190611c36565b60405180910390f35b3480156105df57600080fd5b506105e861145d565b6040516105f59190611c36565b60405180910390f35b34801561060a57600080fd5b50610613611463565b6040516106209190611b48565b60405180910390f35b34801561063557600080fd5b50610650600480360381019061064b9190611981565b611489565b60405161065d9190611c36565b60405180910390f35b61066e6106da565b60405161067b9190611bc3565b60405180910390f35b34801561069057600080fd5b50610699611510565b6040516106a69190611b2d565b60405180910390f35b3480156106bb57600080fd5b506106c4611536565b6040516106d19190611c36565b60405180910390f35b60006106e4610d34565b601260006101000a81548160ff0219169083600381111561072e577f4e487b7100000000000000000000000000000000000000000000000000000000600052602160045260246000fd5b02179055506001600381111561076d577f4e487b7100000000000000000000000000000000000000000000000000000000600052602160045260246000fd5b601260009054906101000a900460ff1660038111156107b5577f4e487b7100000000000000000000000000000000000000000000000000000000600052602160045260246000fd5b146107bf57600080fd5b60115434101580156107d357506010543411155b6107dc57600080fd5b34600b60008282546107ee9190611c6d565b92505081905550600a54600b54111561080657600080fd5b6000600954346108169190611cc3565b9050600e60009054906101000a900473ffffffffffffffffffffffffffffffffffffffff1673ffffffffffffffffffffffffffffffffffffffff1663a9059cbb33670de0b6b3a76400008461086b9190611cf4565b6040518363ffffffff1660e01b8152600401610888929190611b63565b602060405180830381600087803b1580156108a257600080fd5b505af11580156108b6573d6000803e3d6000fd5b505050506040513d601f19601f820116820180604052508101906108da9190611a48565b6108e357600080fd5b80600560003373ffffffffffffffffffffffffffffffffffffffff1673ffffffffffffffffffffffffffffffffffffffff16815260200190815260200160002060008282546109329190611c6d565b925050819055508060056000600460009054906101000a900473ffffffffffffffffffffffffffffffffffffffff1673ffffffffffffffffffffffffffffffffffffffff1673ffffffffffffffffffffffffffffffffffffffff16815260200190815260200160002060008282546109aa9190611d4e565b92505081905550600860009054906101000a900473ffffffffffffffffffffffffffffffffffffffff1673ffffffffffffffffffffffffffffffffffffffff166108fc349081150290604051600060405180830381858888f19350505050158015610a19573d6000803e3d6000fd5b507f4ae4bd7655e0d350876a23cd90c4227b13db560e34435c6a488150a9c844bf5f333483604051610a4d93929190611b8c565b60405180910390a1600191505090565b60105481565b600760009054906101000a900473ffffffffffffffffffffffffffffffffffffffff1673ffffffffffffffffffffffffffffffffffffffff163373ffffffffffffffffffffffffffffffffffffffff1614610abd57600080fd5b6001601260006101000a81548160ff02191690836003811115610b09577f4e487b7100000000000000000000000000000000000000000000000000000000600052602160045260246000fd5b0217905550565b60008054610b1d90611e58565b80601f0160208091040260200160405190810160405280929190818152602001828054610b4990611e58565b8015610b965780601f10610b6b57610100808354040283529160200191610b96565b820191906000526020600020905b815481529060010190602001808311610b7957829003601f168201915b505050505081565b600081600560003373ffffffffffffffffffffffffffffffffffffffff1673ffffffffffffffffffffffffffffffffffffffff168152602001908152602001600020541015610bec57600080fd5b60008211610bf957600080fd5b81600660003373ffffffffffffffffffffffffffffffffffffffff1673ffffffffffffffffffffffffffffffffffffffff16815260200190815260200160002060008573ffffffffffffffffffffffffffffffffffffffff1673ffffffffffffffffffffffffffffffffffffffff168152602001908152602001600020819055508273ffffffffffffffffffffffffffffffffffffffff163373ffffffffffffffffffffffffffffffffffffffff167f8c5be1e5ebec7d5bd14f71427d1e84f3dd0314c0f7b2291e5b200ac8c7c3b92584604051610cd79190611c36565b60405180910390a36001905092915050565b60035481565b6000600f544211610cff57600080fd5b610d0a84848461153c565b50600190509392505050565b60056020528060005260406000206000915090505481565b60025481565b6000600380811115610d6f577f4e487b7100000000000000000000000000000000000000000000000000000000600052602160045260246000fd5b601260009054906101000a900460ff166003811115610db7577f4e487b7100000000000000000000000000000000000000000000000000000000600052602160045260246000fd5b1415610dc65760039050610e00565b600c54421015610dd95760009050610e00565b600c544210158015610ded5750600d544211155b15610dfb5760019050610e00565b600290505b90565b600760009054906101000a900473ffffffffffffffffffffffffffffffffffffffff1673ffffffffffffffffffffffffffffffffffffffff163373ffffffffffffffffffffffffffffffffffffffff1614610e5d57600080fd5b600e60009054906101000a900473ffffffffffffffffffffffffffffffffffffffff1673ffffffffffffffffffffffffffffffffffffffff1663a9059cbb600760009054906101000a900473ffffffffffffffffffffffffffffffffffffffff16600e60009054906101000a900473ffffffffffffffffffffffffffffffffffffffff1673ffffffffffffffffffffffffffffffffffffffff166370a08231306040518263ffffffff1660e01b8152600401610f199190611b2d565b60206040518083038186803b158015610f3157600080fd5b505afa158015610f45573d6000803e3d6000fd5b505050506040513d601f19601f82011682018060405250810190610f699190611a71565b6040518363ffffffff1660e01b8152600401610f86929190611b63565b602060405180830381600087803b158015610fa057600080fd5b505af1158015610fb4573d6000803e3d6000fd5b505050506040513d601f19601f82011682018060405250810190610fd89190611a48565b610fe157600080fd5b600760009054906101000a900473ffffffffffffffffffffffffffffffffffffffff1673ffffffffffffffffffffffffffffffffffffffff166108fc479081150290604051600060405180830381858888f19350505050158015611049573d6000803e3d6000fd5b50565b6000611056610d34565b601260006101000a81548160ff021916908360038111156110a0577f4e487b7100000000000000000000000000000000000000000000000000000000600052602160045260246000fd5b0217905550600260038111156110df577f4e487b7100000000000000000000000000000000000000000000000000000000600052602160045260246000fd5b601260009054906101000a900460ff166003811115611127577f4e487b7100000000000000000000000000000000000000000000000000000000600052602160045260246000fd5b1461113157600080fd5b600060056000600460009054906101000a900473ffffffffffffffffffffffffffffffffffffffff1673ffffffffffffffffffffffffffffffffffffffff1673ffffffffffffffffffffffffffffffffffffffff168152602001908152602001600020819055506001905090565b601260009054906101000a900460ff1681565b600460009054906101000a900473ffffffffffffffffffffffffffffffffffffffff1681565b600e60009054906101000a900473ffffffffffffffffffffffffffffffffffffffff1681565b600760009054906101000a900473ffffffffffffffffffffffffffffffffffffffff1673ffffffffffffffffffffffffffffffffffffffff163373ffffffffffffffffffffffffffffffffffffffff161461125857600080fd5b6003601260006101000a81548160ff021916908360038111156112a4577f4e487b7100000000000000000000000000000000000000000000000000000000600052602160045260246000fd5b0217905550565b600760009054906101000a900473ffffffffffffffffffffffffffffffffffffffff1673ffffffffffffffffffffffffffffffffffffffff163373ffffffffffffffffffffffffffffffffffffffff161461130557600080fd5b80600860006101000a81548173ffffffffffffffffffffffffffffffffffffffff021916908373ffffffffffffffffffffffffffffffffffffffff16021790555050565b6000600560008373ffffffffffffffffffffffffffffffffffffffff1673ffffffffffffffffffffffffffffffffffffffff168152602001908152602001600020549050919050565b60115481565b600180546113a590611e58565b80601f01602080910402602001604051908101604052809291908181526020018280546113d190611e58565b801561141e5780601f106113f35761010080835404028352916020019161141e565b820191906000526020600020905b81548152906001019060200180831161140157829003601f168201915b505050505081565b6000600f54421161143657600080fd5b611440838361175d565b506001905092915050565b600c5481565b600d5481565b600b5481565b600f5481565b600860009054906101000a900473ffffffffffffffffffffffffffffffffffffffff1681565b6000600660008473ffffffffffffffffffffffffffffffffffffffff1673ffffffffffffffffffffffffffffffffffffffff16815260200190815260200160002060008373ffffffffffffffffffffffffffffffffffffffff1673ffffffffffffffffffffffffffffffffffffffff16815260200190815260200160002054905092915050565b600760009054906101000a900473ffffffffffffffffffffffffffffffffffffffff1681565b600a5481565b600081600660008673ffffffffffffffffffffffffffffffffffffffff1673ffffffffffffffffffffffffffffffffffffffff16815260200190815260200160002060008573ffffffffffffffffffffffffffffffffffffffff1673ffffffffffffffffffffffffffffffffffffffff1681526020019081526020016000205410156115c757600080fd5b81600560008673ffffffffffffffffffffffffffffffffffffffff1673ffffffffffffffffffffffffffffffffffffffff16815260200190815260200160002054101561161357600080fd5b81600560008673ffffffffffffffffffffffffffffffffffffffff1673ffffffffffffffffffffffffffffffffffffffff16815260200190815260200160002060008282546116629190611d4e565b9250508190555081600560008573ffffffffffffffffffffffffffffffffffffffff1673ffffffffffffffffffffffffffffffffffffffff16815260200190815260200160002060008282546116b89190611c6d565b9250508190555081600660008673ffffffffffffffffffffffffffffffffffffffff1673ffffffffffffffffffffffffffffffffffffffff16815260200190815260200160002060008573ffffffffffffffffffffffffffffffffffffffff1673ffffffffffffffffffffffffffffffffffffffff168152602001908152602001600020600082825461174b9190611d4e565b92505081905550600190509392505050565b600081600560003373ffffffffffffffffffffffffffffffffffffffff1673ffffffffffffffffffffffffffffffffffffffff1681526020019081526020016000205410156117ab57600080fd5b81600560008573ffffffffffffffffffffffffffffffffffffffff1673ffffffffffffffffffffffffffffffffffffffff16815260200190815260200160002060008282546117fa9190611c6d565b9250508190555081600560003373ffffffffffffffffffffffffffffffffffffffff1673ffffffffffffffffffffffffffffffffffffffff16815260200190815260200160002060008282546118509190611d4e565b925050819055508273ffffffffffffffffffffffffffffffffffffffff163373ffffffffffffffffffffffffffffffffffffffff167fddf252ad1be2c89b69c2b068fc378daa952ba7f163c4a11628f55a4df523b3ef846040516118b49190611c36565b60405180910390a36001905092915050565b6000813590506118d581611f6b565b92915050565b6000813590506118ea81611f82565b92915050565b6000815190506118ff81611f99565b92915050565b60008135905061191481611fb0565b92915050565b60008151905061192981611fb0565b92915050565b60006020828403121561194157600080fd5b600061194f848285016118c6565b91505092915050565b60006020828403121561196a57600080fd5b6000611978848285016118db565b91505092915050565b6000806040838503121561199457600080fd5b60006119a2858286016118c6565b92505060206119b3858286016118c6565b9150509250929050565b6000806000606084860312156119d257600080fd5b60006119e0868287016118c6565b93505060206119f1868287016118c6565b9250506040611a0286828701611905565b9150509250925092565b60008060408385031215611a1f57600080fd5b6000611a2d858286016118c6565b9250506020611a3e85828601611905565b9150509250929050565b600060208284031215611a5a57600080fd5b6000611a68848285016118f0565b91505092915050565b600060208284031215611a8357600080fd5b6000611a918482850161191a565b91505092915050565b611aa381611d94565b82525050565b611ab281611d82565b82525050565b611ac181611da6565b82525050565b611ad081611def565b82525050565b611adf81611e13565b82525050565b6000611af082611c51565b611afa8185611c5c565b9350611b0a818560208601611e25565b611b1381611f46565b840191505092915050565b611b2781611de5565b82525050565b6000602082019050611b426000830184611aa9565b92915050565b6000602082019050611b5d6000830184611a9a565b92915050565b6000604082019050611b786000830185611aa9565b611b856020830184611b1e565b9392505050565b6000606082019050611ba16000830186611aa9565b611bae6020830185611b1e565b611bbb6040830184611b1e565b949350505050565b6000602082019050611bd86000830184611ab8565b92915050565b6000602082019050611bf36000830184611ac7565b92915050565b6000602082019050611c0e6000830184611ad6565b92915050565b60006020820190508181036000830152611c2e8184611ae5565b905092915050565b6000602082019050611c4b6000830184611b1e565b92915050565b600081519050919050565b600082825260208201905092915050565b6000611c7882611de5565b9150611c8383611de5565b9250827fffffffffffffffffffffffffffffffffffffffffffffffffffffffffffffffff03821115611cb857611cb7611e8a565b5b828201905092915050565b6000611cce82611de5565b9150611cd983611de5565b925082611ce957611ce8611eb9565b5b828204905092915050565b6000611cff82611de5565b9150611d0a83611de5565b9250817fffffffffffffffffffffffffffffffffffffffffffffffffffffffffffffffff0483118215151615611d4357611d42611e8a565b5b828202905092915050565b6000611d5982611de5565b9150611d6483611de5565b925082821015611d7757611d76611e8a565b5b828203905092915050565b6000611d8d82611dc5565b9050919050565b6000611d9f82611dc5565b9050919050565b60008115159050919050565b6000819050611dc082611f57565b919050565b600073ffffffffffffffffffffffffffffffffffffffff82169050919050565b6000819050919050565b6000611dfa82611e01565b9050919050565b6000611e0c82611dc5565b9050919050565b6000611e1e82611db2565b9050919050565b60005b83811015611e43578082015181840152602081019050611e28565b83811115611e52576000848401525b50505050565b60006002820490506001821680611e7057607f821691505b60208210811415611e8457611e83611f17565b5b50919050565b7f4e487b7100000000000000000000000000000000000000000000000000000000600052601160045260246000fd5b7f4e487b7100000000000000000000000000000000000000000000000000000000600052601260045260246000fd5b7f4e487b7100000000000000000000000000000000000000000000000000000000600052602160045260246000fd5b7f4e487b7100000000000000000000000000000000000000000000000000000000600052602260045260246000fd5b6000601f19601f8301169050919050565b60048110611f6857611f67611ee8565b5b50565b611f7481611d82565b8114611f7f57600080fd5b50565b611f8b81611d94565b8114611f9657600080fd5b50565b611fa281611da6565b8114611fad57600080fd5b50565b611fb981611de5565b8114611fc457600080fd5b5056fea264697066735822122049df13cc0f7273a7471bdb8a6f71fc6eb2444a1685c7dd925471379b8f022db264736f6c63430008000033",
					"opcodes": "PUSH1 0x80 PUSH1 0x40 MSTORE PUSH1 0x40 MLOAD DUP1 PUSH1 0x40 ADD PUSH1 0x40 MSTORE DUP1 PUSH1 0x7 DUP2 MSTORE PUSH1 0x20 ADD PUSH32 0x43727970746F7300000000000000000000000000000000000000000000000000 DUP2 MSTORE POP PUSH1 0x0 SWAP1 DUP1 MLOAD SWAP1 PUSH1 0x20 ADD SWAP1 PUSH3 0x51 SWAP3 SWAP2 SWAP1 PUSH3 0x306 JUMP JUMPDEST POP PUSH1 0x40 MLOAD DUP1 PUSH1 0x40 ADD PUSH1 0x40 MSTORE DUP1 PUSH1 0x4 DUP2 MSTORE PUSH1 0x20 ADD PUSH32 0x4352505400000000000000000000000000000000000000000000000000000000 DUP2 MSTORE POP PUSH1 0x1 SWAP1 DUP1 MLOAD SWAP1 PUSH1 0x20 ADD SWAP1 PUSH3 0x9F SWAP3 SWAP2 SWAP1 PUSH3 0x306 JUMP JUMPDEST POP PUSH1 0x0 PUSH1 0x2 SSTORE PUSH7 0x38D7EA4C68000 PUSH1 0x9 SSTORE PUSH9 0x1043561A8829300000 PUSH1 0xA SSTORE TIMESTAMP PUSH1 0xC SSTORE PUSH3 0x93A80 TIMESTAMP PUSH3 0xD2 SWAP2 SWAP1 PUSH3 0x425 JUMP JUMPDEST PUSH1 0xD SSTORE PUSH3 0x93A80 PUSH1 0xD SLOAD PUSH3 0xE8 SWAP2 SWAP1 PUSH3 0x425 JUMP JUMPDEST PUSH1 0xF SSTORE PUSH8 0x4563918244F40000 PUSH1 0x10 SSTORE PUSH8 0x16345785D8A0000 PUSH1 0x11 SSTORE CALLVALUE DUP1 ISZERO PUSH3 0x110 JUMPI PUSH1 0x0 DUP1 REVERT JUMPDEST POP PUSH1 0x40 MLOAD PUSH3 0x25A9 CODESIZE SUB DUP1 PUSH3 0x25A9 DUP4 CODECOPY DUP2 DUP2 ADD PUSH1 0x40 MSTORE DUP2 ADD SWAP1 PUSH3 0x136 SWAP2 SWAP1 PUSH3 0x3E4 JUMP JUMPDEST PUSH3 0xF4240 PUSH1 0x3 DUP2 SWAP1 SSTORE POP CALLER PUSH1 0x4 PUSH1 0x0 PUSH2 0x100 EXP DUP2 SLOAD DUP2 PUSH20 0xFFFFFFFFFFFFFFFFFFFFFFFFFFFFFFFFFFFFFFFF MUL NOT AND SWAP1 DUP4 PUSH20 0xFFFFFFFFFFFFFFFFFFFFFFFFFFFFFFFFFFFFFFFF AND MUL OR SWAP1 SSTORE POP PUSH1 0x3 SLOAD PUSH1 0x5 PUSH1 0x0 PUSH1 0x4 PUSH1 0x0 SWAP1 SLOAD SWAP1 PUSH2 0x100 EXP SWAP1 DIV PUSH20 0xFFFFFFFFFFFFFFFFFFFFFFFFFFFFFFFFFFFFFFFF AND PUSH20 0xFFFFFFFFFFFFFFFFFFFFFFFFFFFFFFFFFFFFFFFF AND PUSH20 0xFFFFFFFFFFFFFFFFFFFFFFFFFFFFFFFFFFFFFFFF AND DUP2 MSTORE PUSH1 0x20 ADD SWAP1 DUP2 MSTORE PUSH1 0x20 ADD PUSH1 0x0 KECCAK256 DUP2 SWAP1 SSTORE POP DUP2 PUSH1 0x8 PUSH1 0x0 PUSH2 0x100 EXP DUP2 SLOAD DUP2 PUSH20 0xFFFFFFFFFFFFFFFFFFFFFFFFFFFFFFFFFFFFFFFF MUL NOT AND SWAP1 DUP4 PUSH20 0xFFFFFFFFFFFFFFFFFFFFFFFFFFFFFFFFFFFFFFFF AND MUL OR SWAP1 SSTORE POP CALLER PUSH1 0x7 PUSH1 0x0 PUSH2 0x100 EXP DUP2 SLOAD DUP2 PUSH20 0xFFFFFFFFFFFFFFFFFFFFFFFFFFFFFFFFFFFFFFFF MUL NOT AND SWAP1 DUP4 PUSH20 0xFFFFFFFFFFFFFFFFFFFFFFFFFFFFFFFFFFFFFFFF AND MUL OR SWAP1 SSTORE POP PUSH1 0x0 PUSH1 0x12 PUSH1 0x0 PUSH2 0x100 EXP DUP2 SLOAD DUP2 PUSH1 0xFF MUL NOT AND SWAP1 DUP4 PUSH1 0x3 DUP2 GT ISZERO PUSH3 0x2B8 JUMPI PUSH32 0x4E487B7100000000000000000000000000000000000000000000000000000000 PUSH1 0x0 MSTORE PUSH1 0x21 PUSH1 0x4 MSTORE PUSH1 0x24 PUSH1 0x0 REVERT JUMPDEST MUL OR SWAP1 SSTORE POP DUP1 PUSH1 0xE PUSH1 0x0 PUSH2 0x100 EXP DUP2 SLOAD DUP2 PUSH20 0xFFFFFFFFFFFFFFFFFFFFFFFFFFFFFFFFFFFFFFFF MUL NOT AND SWAP1 DUP4 PUSH20 0xFFFFFFFFFFFFFFFFFFFFFFFFFFFFFFFFFFFFFFFF AND MUL OR SWAP1 SSTORE POP POP POP PUSH3 0x59C JUMP JUMPDEST DUP3 DUP1 SLOAD PUSH3 0x314 SWAP1 PUSH3 0x4D4 JUMP JUMPDEST SWAP1 PUSH1 0x0 MSTORE PUSH1 0x20 PUSH1 0x0 KECCAK256 SWAP1 PUSH1 0x1F ADD PUSH1 0x20 SWAP1 DIV DUP2 ADD SWAP3 DUP3 PUSH3 0x338 JUMPI PUSH1 0x0 DUP6 SSTORE PUSH3 0x384 JUMP JUMPDEST DUP3 PUSH1 0x1F LT PUSH3 0x353 JUMPI DUP1 MLOAD PUSH1 0xFF NOT AND DUP4 DUP1 ADD OR DUP6 SSTORE PUSH3 0x384 JUMP JUMPDEST DUP3 DUP1 ADD PUSH1 0x1 ADD DUP6 SSTORE DUP3 ISZERO PUSH3 0x384 JUMPI SWAP2 DUP3 ADD JUMPDEST DUP3 DUP2 GT ISZERO PUSH3 0x383 JUMPI DUP3 MLOAD DUP3 SSTORE SWAP2 PUSH1 0x20 ADD SWAP2 SWAP1 PUSH1 0x1 ADD SWAP1 PUSH3 0x366 JUMP JUMPDEST JUMPDEST POP SWAP1 POP PUSH3 0x393 SWAP2 SWAP1 PUSH3 0x397 JUMP JUMPDEST POP SWAP1 JUMP JUMPDEST JUMPDEST DUP1 DUP3 GT ISZERO PUSH3 0x3B2 JUMPI PUSH1 0x0 DUP2 PUSH1 0x0 SWAP1 SSTORE POP PUSH1 0x1 ADD PUSH3 0x398 JUMP JUMPDEST POP SWAP1 JUMP JUMPDEST PUSH1 0x0 DUP2 MLOAD SWAP1 POP PUSH3 0x3C7 DUP2 PUSH3 0x568 JUMP JUMPDEST SWAP3 SWAP2 POP POP JUMP JUMPDEST PUSH1 0x0 DUP2 MLOAD SWAP1 POP PUSH3 0x3DE DUP2 PUSH3 0x582 JUMP JUMPDEST SWAP3 SWAP2 POP POP JUMP JUMPDEST PUSH1 0x0 DUP1 PUSH1 0x40 DUP4 DUP6 SUB SLT ISZERO PUSH3 0x3F8 JUMPI PUSH1 0x0 DUP1 REVERT JUMPDEST PUSH1 0x0 PUSH3 0x408 DUP6 DUP3 DUP7 ADD PUSH3 0x3CD JUMP JUMPDEST SWAP3 POP POP PUSH1 0x20 PUSH3 0x41B DUP6 DUP3 DUP7 ADD PUSH3 0x3B6 JUMP JUMPDEST SWAP2 POP POP SWAP3 POP SWAP3 SWAP1 POP JUMP JUMPDEST PUSH1 0x0 PUSH3 0x432 DUP3 PUSH3 0x4CA JUMP JUMPDEST SWAP2 POP PUSH3 0x43F DUP4 PUSH3 0x4CA JUMP JUMPDEST SWAP3 POP DUP3 PUSH32 0xFFFFFFFFFFFFFFFFFFFFFFFFFFFFFFFFFFFFFFFFFFFFFFFFFFFFFFFFFFFFFFFF SUB DUP3 GT ISZERO PUSH3 0x477 JUMPI PUSH3 0x476 PUSH3 0x50A JUMP JUMPDEST JUMPDEST DUP3 DUP3 ADD SWAP1 POP SWAP3 SWAP2 POP POP JUMP JUMPDEST PUSH1 0x0 PUSH3 0x48F DUP3 PUSH3 0x4AA JUMP JUMPDEST SWAP1 POP SWAP2 SWAP1 POP JUMP JUMPDEST PUSH1 0x0 PUSH3 0x4A3 DUP3 PUSH3 0x4AA JUMP JUMPDEST SWAP1 POP SWAP2 SWAP1 POP JUMP JUMPDEST PUSH1 0x0 PUSH20 0xFFFFFFFFFFFFFFFFFFFFFFFFFFFFFFFFFFFFFFFF DUP3 AND SWAP1 POP SWAP2 SWAP1 POP JUMP JUMPDEST PUSH1 0x0 DUP2 SWAP1 POP SWAP2 SWAP1 POP JUMP JUMPDEST PUSH1 0x0 PUSH1 0x2 DUP3 DIV SWAP1 POP PUSH1 0x1 DUP3 AND DUP1 PUSH3 0x4ED JUMPI PUSH1 0x7F DUP3 AND SWAP2 POP JUMPDEST PUSH1 0x20 DUP3 LT DUP2 EQ ISZERO PUSH3 0x504 JUMPI PUSH3 0x503 PUSH3 0x539 JUMP JUMPDEST JUMPDEST POP SWAP2 SWAP1 POP JUMP JUMPDEST PUSH32 0x4E487B7100000000000000000000000000000000000000000000000000000000 PUSH1 0x0 MSTORE PUSH1 0x11 PUSH1 0x4 MSTORE PUSH1 0x24 PUSH1 0x0 REVERT JUMPDEST PUSH32 0x4E487B7100000000000000000000000000000000000000000000000000000000 PUSH1 0x0 MSTORE PUSH1 0x22 PUSH1 0x4 MSTORE PUSH1 0x24 PUSH1 0x0 REVERT JUMPDEST PUSH3 0x573 DUP2 PUSH3 0x482 JUMP JUMPDEST DUP2 EQ PUSH3 0x57F JUMPI PUSH1 0x0 DUP1 REVERT JUMPDEST POP JUMP JUMPDEST PUSH3 0x58D DUP2 PUSH3 0x496 JUMP JUMPDEST DUP2 EQ PUSH3 0x599 JUMPI PUSH1 0x0 DUP1 REVERT JUMPDEST POP JUMP JUMPDEST PUSH2 0x1FFD DUP1 PUSH3 0x5AC PUSH1 0x0 CODECOPY PUSH1 0x0 RETURN INVALID PUSH1 0x80 PUSH1 0x40 MSTORE PUSH1 0x4 CALLDATASIZE LT PUSH2 0x1C5 JUMPI PUSH1 0x0 CALLDATALOAD PUSH1 0xE0 SHR DUP1 PUSH4 0x5ED7CA5B GT PUSH2 0xF7 JUMPI DUP1 PUSH4 0xC10B9358 GT PUSH2 0x95 JUMPI DUP1 PUSH4 0xDD62ED3E GT PUSH2 0x64 JUMPI DUP1 PUSH4 0xDD62ED3E EQ PUSH2 0x629 JUMPI DUP1 PUSH4 0xE8B5E51F EQ PUSH2 0x666 JUMPI DUP1 PUSH4 0xF851A440 EQ PUSH2 0x684 JUMPI DUP1 PUSH4 0xFB86A404 EQ PUSH2 0x6AF JUMPI PUSH2 0x1D5 JUMP JUMPDEST DUP1 PUSH4 0xC10B9358 EQ PUSH2 0x57D JUMPI DUP1 PUSH4 0xC59EE1DC EQ PUSH2 0x5A8 JUMPI DUP1 PUSH4 0xCC9BA583 EQ PUSH2 0x5D3 JUMPI DUP1 PUSH4 0xD0E30DB0 EQ PUSH2 0x5FE JUMPI PUSH2 0x1D5 JUMP JUMPDEST DUP1 PUSH4 0x8AC2C680 GT PUSH2 0xD1 JUMPI DUP1 PUSH4 0x8AC2C680 EQ PUSH2 0x4BF JUMPI DUP1 PUSH4 0x95D89B41 EQ PUSH2 0x4EA JUMPI DUP1 PUSH4 0xA9059CBB EQ PUSH2 0x515 JUMPI DUP1 PUSH4 0xAB0BCC41 EQ PUSH2 0x552 JUMPI PUSH2 0x1D5 JUMP JUMPDEST DUP1 PUSH4 0x5ED7CA5B EQ PUSH2 0x442 JUMPI DUP1 PUSH4 0x6D58C88F EQ PUSH2 0x459 JUMPI DUP1 PUSH4 0x70A08231 EQ PUSH2 0x482 JUMPI PUSH2 0x1D5 JUMP JUMPDEST DUP1 PUSH4 0x313CE567 GT PUSH2 0x164 JUMPI DUP1 PUSH4 0x44DF8E70 GT PUSH2 0x13E JUMPI DUP1 PUSH4 0x44DF8E70 EQ PUSH2 0x396 JUMPI DUP1 PUSH4 0x44F38756 EQ PUSH2 0x3C1 JUMPI DUP1 PUSH4 0x4D853EE5 EQ PUSH2 0x3EC JUMPI DUP1 PUSH4 0x55A373D6 EQ PUSH2 0x417 JUMPI PUSH2 0x1D5 JUMP JUMPDEST DUP1 PUSH4 0x313CE567 EQ PUSH2 0x329 JUMPI DUP1 PUSH4 0x378AA701 EQ PUSH2 0x354 JUMPI DUP1 PUSH4 0x380D831B EQ PUSH2 0x37F JUMPI PUSH2 0x1D5 JUMP JUMPDEST DUP1 PUSH4 0x95EA7B3 GT PUSH2 0x1A0 JUMPI DUP1 PUSH4 0x95EA7B3 EQ PUSH2 0x247 JUMPI DUP1 PUSH4 0x18160DDD EQ PUSH2 0x284 JUMPI DUP1 PUSH4 0x23B872DD EQ PUSH2 0x2AF JUMPI DUP1 PUSH4 0x27E235E3 EQ PUSH2 0x2EC JUMPI PUSH2 0x1D5 JUMP JUMPDEST DUP1 PUSH3 0x2E1316 EQ PUSH2 0x1DA JUMPI DUP1 PUSH4 0x46F7DA2 EQ PUSH2 0x205 JUMPI DUP1 PUSH4 0x6FDDE03 EQ PUSH2 0x21C JUMPI PUSH2 0x1D5 JUMP JUMPDEST CALLDATASIZE PUSH2 0x1D5 JUMPI PUSH2 0x1D2 PUSH2 0x6DA JUMP JUMPDEST POP STOP JUMPDEST PUSH1 0x0 DUP1 REVERT JUMPDEST CALLVALUE DUP1 ISZERO PUSH2 0x1E6 JUMPI PUSH1 0x0 DUP1 REVERT JUMPDEST POP PUSH2 0x1EF PUSH2 0xA5D JUMP JUMPDEST PUSH1 0x40 MLOAD PUSH2 0x1FC SWAP2 SWAP1 PUSH2 0x1C36 JUMP JUMPDEST PUSH1 0x40 MLOAD DUP1 SWAP2 SUB SWAP1 RETURN JUMPDEST CALLVALUE DUP1 ISZERO PUSH2 0x211 JUMPI PUSH1 0x0 DUP1 REVERT JUMPDEST POP PUSH2 0x21A PUSH2 0xA63 JUMP JUMPDEST STOP JUMPDEST CALLVALUE DUP1 ISZERO PUSH2 0x228 JUMPI PUSH1 0x0 DUP1 REVERT JUMPDEST POP PUSH2 0x231 PUSH2 0xB10 JUMP JUMPDEST PUSH1 0x40 MLOAD PUSH2 0x23E SWAP2 SWAP1 PUSH2 0x1C14 JUMP JUMPDEST PUSH1 0x40 MLOAD DUP1 SWAP2 SUB SWAP1 RETURN JUMPDEST CALLVALUE DUP1 ISZERO PUSH2 0x253 JUMPI PUSH1 0x0 DUP1 REVERT JUMPDEST POP PUSH2 0x26E PUSH1 0x4 DUP1 CALLDATASIZE SUB DUP2 ADD SWAP1 PUSH2 0x269 SWAP2 SWAP1 PUSH2 0x1A0C JUMP JUMPDEST PUSH2 0xB9E JUMP JUMPDEST PUSH1 0x40 MLOAD PUSH2 0x27B SWAP2 SWAP1 PUSH2 0x1BC3 JUMP JUMPDEST PUSH1 0x40 MLOAD DUP1 SWAP2 SUB SWAP1 RETURN JUMPDEST CALLVALUE DUP1 ISZERO PUSH2 0x290 JUMPI PUSH1 0x0 DUP1 REVERT JUMPDEST POP PUSH2 0x299 PUSH2 0xCE9 JUMP JUMPDEST PUSH1 0x40 MLOAD PUSH2 0x2A6 SWAP2 SWAP1 PUSH2 0x1C36 JUMP JUMPDEST PUSH1 0x40 MLOAD DUP1 SWAP2 SUB SWAP1 RETURN JUMPDEST CALLVALUE DUP1 ISZERO PUSH2 0x2BB JUMPI PUSH1 0x0 DUP1 REVERT JUMPDEST POP PUSH2 0x2D6 PUSH1 0x4 DUP1 CALLDATASIZE SUB DUP2 ADD SWAP1 PUSH2 0x2D1 SWAP2 SWAP1 PUSH2 0x19BD JUMP JUMPDEST PUSH2 0xCEF JUMP JUMPDEST PUSH1 0x40 MLOAD PUSH2 0x2E3 SWAP2 SWAP1 PUSH2 0x1BC3 JUMP JUMPDEST PUSH1 0x40 MLOAD DUP1 SWAP2 SUB SWAP1 RETURN JUMPDEST CALLVALUE DUP1 ISZERO PUSH2 0x2F8 JUMPI PUSH1 0x0 DUP1 REVERT JUMPDEST POP PUSH2 0x313 PUSH1 0x4 DUP1 CALLDATASIZE SUB DUP2 ADD SWAP1 PUSH2 0x30E SWAP2 SWAP1 PUSH2 0x192F JUMP JUMPDEST PUSH2 0xD16 JUMP JUMPDEST PUSH1 0x40 MLOAD PUSH2 0x320 SWAP2 SWAP1 PUSH2 0x1C36 JUMP JUMPDEST PUSH1 0x40 MLOAD DUP1 SWAP2 SUB SWAP1 RETURN JUMPDEST CALLVALUE DUP1 ISZERO PUSH2 0x335 JUMPI PUSH1 0x0 DUP1 REVERT JUMPDEST POP PUSH2 0x33E PUSH2 0xD2E JUMP JUMPDEST PUSH1 0x40 MLOAD PUSH2 0x34B SWAP2 SWAP1 PUSH2 0x1C36 JUMP JUMPDEST PUSH1 0x40 MLOAD DUP1 SWAP2 SUB SWAP1 RETURN JUMPDEST CALLVALUE DUP1 ISZERO PUSH2 0x360 JUMPI PUSH1 0x0 DUP1 REVERT JUMPDEST POP PUSH2 0x369 PUSH2 0xD34 JUMP JUMPDEST PUSH1 0x40 MLOAD PUSH2 0x376 SWAP2 SWAP1 PUSH2 0x1BF9 JUMP JUMPDEST PUSH1 0x40 MLOAD DUP1 SWAP2 SUB SWAP1 RETURN JUMPDEST CALLVALUE DUP1 ISZERO PUSH2 0x38B JUMPI PUSH1 0x0 DUP1 REVERT JUMPDEST POP PUSH2 0x394 PUSH2 0xE03 JUMP JUMPDEST STOP JUMPDEST CALLVALUE DUP1 ISZERO PUSH2 0x3A2 JUMPI PUSH1 0x0 DUP1 REVERT JUMPDEST POP PUSH2 0x3AB PUSH2 0x104C JUMP JUMPDEST PUSH1 0x40 MLOAD PUSH2 0x3B8 SWAP2 SWAP1 PUSH2 0x1BC3 JUMP JUMPDEST PUSH1 0x40 MLOAD DUP1 SWAP2 SUB SWAP1 RETURN JUMPDEST CALLVALUE DUP1 ISZERO PUSH2 0x3CD JUMPI PUSH1 0x0 DUP1 REVERT JUMPDEST POP PUSH2 0x3D6 PUSH2 0x119F JUMP JUMPDEST PUSH1 0x40 MLOAD PUSH2 0x3E3 SWAP2 SWAP1 PUSH2 0x1BF9 JUMP JUMPDEST PUSH1 0x40 MLOAD DUP1 SWAP2 SUB SWAP1 RETURN JUMPDEST CALLVALUE DUP1 ISZERO PUSH2 0x3F8 JUMPI PUSH1 0x0 DUP1 REVERT JUMPDEST POP PUSH2 0x401 PUSH2 0x11B2 JUMP JUMPDEST PUSH1 0x40 MLOAD PUSH2 0x40E SWAP2 SWAP1 PUSH2 0x1B2D JUMP JUMPDEST PUSH1 0x40 MLOAD DUP1 SWAP2 SUB SWAP1 RETURN JUMPDEST CALLVALUE DUP1 ISZERO PUSH2 0x423 JUMPI PUSH1 0x0 DUP1 REVERT JUMPDEST POP PUSH2 0x42C PUSH2 0x11D8 JUMP JUMPDEST PUSH1 0x40 MLOAD PUSH2 0x439 SWAP2 SWAP1 PUSH2 0x1BDE JUMP JUMPDEST PUSH1 0x40 MLOAD DUP1 SWAP2 SUB SWAP1 RETURN JUMPDEST CALLVALUE DUP1 ISZERO PUSH2 0x44E JUMPI PUSH1 0x0 DUP1 REVERT JUMPDEST POP PUSH2 0x457 PUSH2 0x11FE JUMP JUMPDEST STOP JUMPDEST CALLVALUE DUP1 ISZERO PUSH2 0x465 JUMPI PUSH1 0x0 DUP1 REVERT JUMPDEST POP PUSH2 0x480 PUSH1 0x4 DUP1 CALLDATASIZE SUB DUP2 ADD SWAP1 PUSH2 0x47B SWAP2 SWAP1 PUSH2 0x1958 JUMP JUMPDEST PUSH2 0x12AB JUMP JUMPDEST STOP JUMPDEST CALLVALUE DUP1 ISZERO PUSH2 0x48E JUMPI PUSH1 0x0 DUP1 REVERT JUMPDEST POP PUSH2 0x4A9 PUSH1 0x4 DUP1 CALLDATASIZE SUB DUP2 ADD SWAP1 PUSH2 0x4A4 SWAP2 SWAP1 PUSH2 0x192F JUMP JUMPDEST PUSH2 0x1349 JUMP JUMPDEST PUSH1 0x40 MLOAD PUSH2 0x4B6 SWAP2 SWAP1 PUSH2 0x1C36 JUMP JUMPDEST PUSH1 0x40 MLOAD DUP1 SWAP2 SUB SWAP1 RETURN JUMPDEST CALLVALUE DUP1 ISZERO PUSH2 0x4CB JUMPI PUSH1 0x0 DUP1 REVERT JUMPDEST POP PUSH2 0x4D4 PUSH2 0x1392 JUMP JUMPDEST PUSH1 0x40 MLOAD PUSH2 0x4E1 SWAP2 SWAP1 PUSH2 0x1C36 JUMP JUMPDEST PUSH1 0x40 MLOAD DUP1 SWAP2 SUB SWAP1 RETURN JUMPDEST CALLVALUE DUP1 ISZERO PUSH2 0x4F6 JUMPI PUSH1 0x0 DUP1 REVERT JUMPDEST POP PUSH2 0x4FF PUSH2 0x1398 JUMP JUMPDEST PUSH1 0x40 MLOAD PUSH2 0x50C SWAP2 SWAP1 PUSH2 0x1C14 JUMP JUMPDEST PUSH1 0x40 MLOAD DUP1 SWAP2 SUB SWAP1 RETURN JUMPDEST CALLVALUE DUP1 ISZERO PUSH2 0x521 JUMPI PUSH1 0x0 DUP1 REVERT JUMPDEST POP PUSH2 0x53C PUSH1 0x4 DUP1 CALLDATASIZE SUB DUP2 ADD SWAP1 PUSH2 0x537 SWAP2 SWAP1 PUSH2 0x1A0C JUMP JUMPDEST PUSH2 0x1426 JUMP JUMPDEST PUSH1 0x40 MLOAD PUSH2 0x549 SWAP2 SWAP1 PUSH2 0x1BC3 JUMP JUMPDEST PUSH1 0x40 MLOAD DUP1 SWAP2 SUB SWAP1 RETURN JUMPDEST CALLVALUE DUP1 ISZERO PUSH2 0x55E JUMPI PUSH1 0x0 DUP1 REVERT JUMPDEST POP PUSH2 0x567 PUSH2 0x144B JUMP JUMPDEST PUSH1 0x40 MLOAD PUSH2 0x574 SWAP2 SWAP1 PUSH2 0x1C36 JUMP JUMPDEST PUSH1 0x40 MLOAD DUP1 SWAP2 SUB SWAP1 RETURN JUMPDEST CALLVALUE DUP1 ISZERO PUSH2 0x589 JUMPI PUSH1 0x0 DUP1 REVERT JUMPDEST POP PUSH2 0x592 PUSH2 0x1451 JUMP JUMPDEST PUSH1 0x40 MLOAD PUSH2 0x59F SWAP2 SWAP1 PUSH2 0x1C36 JUMP JUMPDEST PUSH1 0x40 MLOAD DUP1 SWAP2 SUB SWAP1 RETURN JUMPDEST CALLVALUE DUP1 ISZERO PUSH2 0x5B4 JUMPI PUSH1 0x0 DUP1 REVERT JUMPDEST POP PUSH2 0x5BD PUSH2 0x1457 JUMP JUMPDEST PUSH1 0x40 MLOAD PUSH2 0x5CA SWAP2 SWAP1 PUSH2 0x1C36 JUMP JUMPDEST PUSH1 0x40 MLOAD DUP1 SWAP2 SUB SWAP1 RETURN JUMPDEST CALLVALUE DUP1 ISZERO PUSH2 0x5DF JUMPI PUSH1 0x0 DUP1 REVERT JUMPDEST POP PUSH2 0x5E8 PUSH2 0x145D JUMP JUMPDEST PUSH1 0x40 MLOAD PUSH2 0x5F5 SWAP2 SWAP1 PUSH2 0x1C36 JUMP JUMPDEST PUSH1 0x40 MLOAD DUP1 SWAP2 SUB SWAP1 RETURN JUMPDEST CALLVALUE DUP1 ISZERO PUSH2 0x60A JUMPI PUSH1 0x0 DUP1 REVERT JUMPDEST POP PUSH2 0x613 PUSH2 0x1463 JUMP JUMPDEST PUSH1 0x40 MLOAD PUSH2 0x620 SWAP2 SWAP1 PUSH2 0x1B48 JUMP JUMPDEST PUSH1 0x40 MLOAD DUP1 SWAP2 SUB SWAP1 RETURN JUMPDEST CALLVALUE DUP1 ISZERO PUSH2 0x635 JUMPI PUSH1 0x0 DUP1 REVERT JUMPDEST POP PUSH2 0x650 PUSH1 0x4 DUP1 CALLDATASIZE SUB DUP2 ADD SWAP1 PUSH2 0x64B SWAP2 SWAP1 PUSH2 0x1981 JUMP JUMPDEST PUSH2 0x1489 JUMP JUMPDEST PUSH1 0x40 MLOAD PUSH2 0x65D SWAP2 SWAP1 PUSH2 0x1C36 JUMP JUMPDEST PUSH1 0x40 MLOAD DUP1 SWAP2 SUB SWAP1 RETURN JUMPDEST PUSH2 0x66E PUSH2 0x6DA JUMP JUMPDEST PUSH1 0x40 MLOAD PUSH2 0x67B SWAP2 SWAP1 PUSH2 0x1BC3 JUMP JUMPDEST PUSH1 0x40 MLOAD DUP1 SWAP2 SUB SWAP1 RETURN JUMPDEST CALLVALUE DUP1 ISZERO PUSH2 0x690 JUMPI PUSH1 0x0 DUP1 REVERT JUMPDEST POP PUSH2 0x699 PUSH2 0x1510 JUMP JUMPDEST PUSH1 0x40 MLOAD PUSH2 0x6A6 SWAP2 SWAP1 PUSH2 0x1B2D JUMP JUMPDEST PUSH1 0x40 MLOAD DUP1 SWAP2 SUB SWAP1 RETURN JUMPDEST CALLVALUE DUP1 ISZERO PUSH2 0x6BB JUMPI PUSH1 0x0 DUP1 REVERT JUMPDEST POP PUSH2 0x6C4 PUSH2 0x1536 JUMP JUMPDEST PUSH1 0x40 MLOAD PUSH2 0x6D1 SWAP2 SWAP1 PUSH2 0x1C36 JUMP JUMPDEST PUSH1 0x40 MLOAD DUP1 SWAP2 SUB SWAP1 RETURN JUMPDEST PUSH1 0x0 PUSH2 0x6E4 PUSH2 0xD34 JUMP JUMPDEST PUSH1 0x12 PUSH1 0x0 PUSH2 0x100 EXP DUP2 SLOAD DUP2 PUSH1 0xFF MUL NOT AND SWAP1 DUP4 PUSH1 0x3 DUP2 GT ISZERO PUSH2 0x72E JUMPI PUSH32 0x4E487B7100000000000000000000000000000000000000000000000000000000 PUSH1 0x0 MSTORE PUSH1 0x21 PUSH1 0x4 MSTORE PUSH1 0x24 PUSH1 0x0 REVERT JUMPDEST MUL OR SWAP1 SSTORE POP PUSH1 0x1 PUSH1 0x3 DUP2 GT ISZERO PUSH2 0x76D JUMPI PUSH32 0x4E487B7100000000000000000000000000000000000000000000000000000000 PUSH1 0x0 MSTORE PUSH1 0x21 PUSH1 0x4 MSTORE PUSH1 0x24 PUSH1 0x0 REVERT JUMPDEST PUSH1 0x12 PUSH1 0x0 SWAP1 SLOAD SWAP1 PUSH2 0x100 EXP SWAP1 DIV PUSH1 0xFF AND PUSH1 0x3 DUP2 GT ISZERO PUSH2 0x7B5 JUMPI PUSH32 0x4E487B7100000000000000000000000000000000000000000000000000000000 PUSH1 0x0 MSTORE PUSH1 0x21 PUSH1 0x4 MSTORE PUSH1 0x24 PUSH1 0x0 REVERT JUMPDEST EQ PUSH2 0x7BF JUMPI PUSH1 0x0 DUP1 REVERT JUMPDEST PUSH1 0x11 SLOAD CALLVALUE LT ISZERO DUP1 ISZERO PUSH2 0x7D3 JUMPI POP PUSH1 0x10 SLOAD CALLVALUE GT ISZERO JUMPDEST PUSH2 0x7DC JUMPI PUSH1 0x0 DUP1 REVERT JUMPDEST CALLVALUE PUSH1 0xB PUSH1 0x0 DUP3 DUP3 SLOAD PUSH2 0x7EE SWAP2 SWAP1 PUSH2 0x1C6D JUMP JUMPDEST SWAP3 POP POP DUP2 SWAP1 SSTORE POP PUSH1 0xA SLOAD PUSH1 0xB SLOAD GT ISZERO PUSH2 0x806 JUMPI PUSH1 0x0 DUP1 REVERT JUMPDEST PUSH1 0x0 PUSH1 0x9 SLOAD CALLVALUE PUSH2 0x816 SWAP2 SWAP1 PUSH2 0x1CC3 JUMP JUMPDEST SWAP1 POP PUSH1 0xE PUSH1 0x0 SWAP1 SLOAD SWAP1 PUSH2 0x100 EXP SWAP1 DIV PUSH20 0xFFFFFFFFFFFFFFFFFFFFFFFFFFFFFFFFFFFFFFFF AND PUSH20 0xFFFFFFFFFFFFFFFFFFFFFFFFFFFFFFFFFFFFFFFF AND PUSH4 0xA9059CBB CALLER PUSH8 0xDE0B6B3A7640000 DUP5 PUSH2 0x86B SWAP2 SWAP1 PUSH2 0x1CF4 JUMP JUMPDEST PUSH1 0x40 MLOAD DUP4 PUSH4 0xFFFFFFFF AND PUSH1 0xE0 SHL DUP2 MSTORE PUSH1 0x4 ADD PUSH2 0x888 SWAP3 SWAP2 SWAP1 PUSH2 0x1B63 JUMP JUMPDEST PUSH1 0x20 PUSH1 0x40 MLOAD DUP1 DUP4 SUB DUP2 PUSH1 0x0 DUP8 DUP1 EXTCODESIZE ISZERO DUP1 ISZERO PUSH2 0x8A2 JUMPI PUSH1 0x0 DUP1 REVERT JUMPDEST POP GAS CALL ISZERO DUP1 ISZERO PUSH2 0x8B6 JUMPI RETURNDATASIZE PUSH1 0x0 DUP1 RETURNDATACOPY RETURNDATASIZE PUSH1 0x0 REVERT JUMPDEST POP POP POP POP PUSH1 0x40 MLOAD RETURNDATASIZE PUSH1 0x1F NOT PUSH1 0x1F DUP3 ADD AND DUP3 ADD DUP1 PUSH1 0x40 MSTORE POP DUP2 ADD SWAP1 PUSH2 0x8DA SWAP2 SWAP1 PUSH2 0x1A48 JUMP JUMPDEST PUSH2 0x8E3 JUMPI PUSH1 0x0 DUP1 REVERT JUMPDEST DUP1 PUSH1 0x5 PUSH1 0x0 CALLER PUSH20 0xFFFFFFFFFFFFFFFFFFFFFFFFFFFFFFFFFFFFFFFF AND PUSH20 0xFFFFFFFFFFFFFFFFFFFFFFFFFFFFFFFFFFFFFFFF AND DUP2 MSTORE PUSH1 0x20 ADD SWAP1 DUP2 MSTORE PUSH1 0x20 ADD PUSH1 0x0 KECCAK256 PUSH1 0x0 DUP3 DUP3 SLOAD PUSH2 0x932 SWAP2 SWAP1 PUSH2 0x1C6D JUMP JUMPDEST SWAP3 POP POP DUP2 SWAP1 SSTORE POP DUP1 PUSH1 0x5 PUSH1 0x0 PUSH1 0x4 PUSH1 0x0 SWAP1 SLOAD SWAP1 PUSH2 0x100 EXP SWAP1 DIV PUSH20 0xFFFFFFFFFFFFFFFFFFFFFFFFFFFFFFFFFFFFFFFF AND PUSH20 0xFFFFFFFFFFFFFFFFFFFFFFFFFFFFFFFFFFFFFFFF AND PUSH20 0xFFFFFFFFFFFFFFFFFFFFFFFFFFFFFFFFFFFFFFFF AND DUP2 MSTORE PUSH1 0x20 ADD SWAP1 DUP2 MSTORE PUSH1 0x20 ADD PUSH1 0x0 KECCAK256 PUSH1 0x0 DUP3 DUP3 SLOAD PUSH2 0x9AA SWAP2 SWAP1 PUSH2 0x1D4E JUMP JUMPDEST SWAP3 POP POP DUP2 SWAP1 SSTORE POP PUSH1 0x8 PUSH1 0x0 SWAP1 SLOAD SWAP1 PUSH2 0x100 EXP SWAP1 DIV PUSH20 0xFFFFFFFFFFFFFFFFFFFFFFFFFFFFFFFFFFFFFFFF AND PUSH20 0xFFFFFFFFFFFFFFFFFFFFFFFFFFFFFFFFFFFFFFFF AND PUSH2 0x8FC CALLVALUE SWAP1 DUP2 ISZERO MUL SWAP1 PUSH1 0x40 MLOAD PUSH1 0x0 PUSH1 0x40 MLOAD DUP1 DUP4 SUB DUP2 DUP6 DUP9 DUP9 CALL SWAP4 POP POP POP POP ISZERO DUP1 ISZERO PUSH2 0xA19 JUMPI RETURNDATASIZE PUSH1 0x0 DUP1 RETURNDATACOPY RETURNDATASIZE PUSH1 0x0 REVERT JUMPDEST POP PUSH32 0x4AE4BD7655E0D350876A23CD90C4227B13DB560E34435C6A488150A9C844BF5F CALLER CALLVALUE DUP4 PUSH1 0x40 MLOAD PUSH2 0xA4D SWAP4 SWAP3 SWAP2 SWAP1 PUSH2 0x1B8C JUMP JUMPDEST PUSH1 0x40 MLOAD DUP1 SWAP2 SUB SWAP1 LOG1 PUSH1 0x1 SWAP2 POP POP SWAP1 JUMP JUMPDEST PUSH1 0x10 SLOAD DUP2 JUMP JUMPDEST PUSH1 0x7 PUSH1 0x0 SWAP1 SLOAD SWAP1 PUSH2 0x100 EXP SWAP1 DIV PUSH20 0xFFFFFFFFFFFFFFFFFFFFFFFFFFFFFFFFFFFFFFFF AND PUSH20 0xFFFFFFFFFFFFFFFFFFFFFFFFFFFFFFFFFFFFFFFF AND CALLER PUSH20 0xFFFFFFFFFFFFFFFFFFFFFFFFFFFFFFFFFFFFFFFF AND EQ PUSH2 0xABD JUMPI PUSH1 0x0 DUP1 REVERT JUMPDEST PUSH1 0x1 PUSH1 0x12 PUSH1 0x0 PUSH2 0x100 EXP DUP2 SLOAD DUP2 PUSH1 0xFF MUL NOT AND SWAP1 DUP4 PUSH1 0x3 DUP2 GT ISZERO PUSH2 0xB09 JUMPI PUSH32 0x4E487B7100000000000000000000000000000000000000000000000000000000 PUSH1 0x0 MSTORE PUSH1 0x21 PUSH1 0x4 MSTORE PUSH1 0x24 PUSH1 0x0 REVERT JUMPDEST MUL OR SWAP1 SSTORE POP JUMP JUMPDEST PUSH1 0x0 DUP1 SLOAD PUSH2 0xB1D SWAP1 PUSH2 0x1E58 JUMP JUMPDEST DUP1 PUSH1 0x1F ADD PUSH1 0x20 DUP1 SWAP2 DIV MUL PUSH1 0x20 ADD PUSH1 0x40 MLOAD SWAP1 DUP2 ADD PUSH1 0x40 MSTORE DUP1 SWAP3 SWAP2 SWAP1 DUP2 DUP2 MSTORE PUSH1 0x20 ADD DUP3 DUP1 SLOAD PUSH2 0xB49 SWAP1 PUSH2 0x1E58 JUMP JUMPDEST DUP1 ISZERO PUSH2 0xB96 JUMPI DUP1 PUSH1 0x1F LT PUSH2 0xB6B JUMPI PUSH2 0x100 DUP1 DUP4 SLOAD DIV MUL DUP4 MSTORE SWAP2 PUSH1 0x20 ADD SWAP2 PUSH2 0xB96 JUMP JUMPDEST DUP3 ADD SWAP2 SWAP1 PUSH1 0x0 MSTORE PUSH1 0x20 PUSH1 0x0 KECCAK256 SWAP1 JUMPDEST DUP2 SLOAD DUP2 MSTORE SWAP1 PUSH1 0x1 ADD SWAP1 PUSH1 0x20 ADD DUP1 DUP4 GT PUSH2 0xB79 JUMPI DUP3 SWAP1 SUB PUSH1 0x1F AND DUP3 ADD SWAP2 JUMPDEST POP POP POP POP POP DUP2 JUMP JUMPDEST PUSH1 0x0 DUP2 PUSH1 0x5 PUSH1 0x0 CALLER PUSH20 0xFFFFFFFFFFFFFFFFFFFFFFFFFFFFFFFFFFFFFFFF AND PUSH20 0xFFFFFFFFFFFFFFFFFFFFFFFFFFFFFFFFFFFFFFFF AND DUP2 MSTORE PUSH1 0x20 ADD SWAP1 DUP2 MSTORE PUSH1 0x20 ADD PUSH1 0x0 KECCAK256 SLOAD LT ISZERO PUSH2 0xBEC JUMPI PUSH1 0x0 DUP1 REVERT JUMPDEST PUSH1 0x0 DUP3 GT PUSH2 0xBF9 JUMPI PUSH1 0x0 DUP1 REVERT JUMPDEST DUP2 PUSH1 0x6 PUSH1 0x0 CALLER PUSH20 0xFFFFFFFFFFFFFFFFFFFFFFFFFFFFFFFFFFFFFFFF AND PUSH20 0xFFFFFFFFFFFFFFFFFFFFFFFFFFFFFFFFFFFFFFFF AND DUP2 MSTORE PUSH1 0x20 ADD SWAP1 DUP2 MSTORE PUSH1 0x20 ADD PUSH1 0x0 KECCAK256 PUSH1 0x0 DUP6 PUSH20 0xFFFFFFFFFFFFFFFFFFFFFFFFFFFFFFFFFFFFFFFF AND PUSH20 0xFFFFFFFFFFFFFFFFFFFFFFFFFFFFFFFFFFFFFFFF AND DUP2 MSTORE PUSH1 0x20 ADD SWAP1 DUP2 MSTORE PUSH1 0x20 ADD PUSH1 0x0 KECCAK256 DUP2 SWAP1 SSTORE POP DUP3 PUSH20 0xFFFFFFFFFFFFFFFFFFFFFFFFFFFFFFFFFFFFFFFF AND CALLER PUSH20 0xFFFFFFFFFFFFFFFFFFFFFFFFFFFFFFFFFFFFFFFF AND PUSH32 0x8C5BE1E5EBEC7D5BD14F71427D1E84F3DD0314C0F7B2291E5B200AC8C7C3B925 DUP5 PUSH1 0x40 MLOAD PUSH2 0xCD7 SWAP2 SWAP1 PUSH2 0x1C36 JUMP JUMPDEST PUSH1 0x40 MLOAD DUP1 SWAP2 SUB SWAP1 LOG3 PUSH1 0x1 SWAP1 POP SWAP3 SWAP2 POP POP JUMP JUMPDEST PUSH1 0x3 SLOAD DUP2 JUMP JUMPDEST PUSH1 0x0 PUSH1 0xF SLOAD TIMESTAMP GT PUSH2 0xCFF JUMPI PUSH1 0x0 DUP1 REVERT JUMPDEST PUSH2 0xD0A DUP5 DUP5 DUP5 PUSH2 0x153C JUMP JUMPDEST POP PUSH1 0x1 SWAP1 POP SWAP4 SWAP3 POP POP POP JUMP JUMPDEST PUSH1 0x5 PUSH1 0x20 MSTORE DUP1 PUSH1 0x0 MSTORE PUSH1 0x40 PUSH1 0x0 KECCAK256 PUSH1 0x0 SWAP2 POP SWAP1 POP SLOAD DUP2 JUMP JUMPDEST PUSH1 0x2 SLOAD DUP2 JUMP JUMPDEST PUSH1 0x0 PUSH1 0x3 DUP1 DUP2 GT ISZERO PUSH2 0xD6F JUMPI PUSH32 0x4E487B7100000000000000000000000000000000000000000000000000000000 PUSH1 0x0 MSTORE PUSH1 0x21 PUSH1 0x4 MSTORE PUSH1 0x24 PUSH1 0x0 REVERT JUMPDEST PUSH1 0x12 PUSH1 0x0 SWAP1 SLOAD SWAP1 PUSH2 0x100 EXP SWAP1 DIV PUSH1 0xFF AND PUSH1 0x3 DUP2 GT ISZERO PUSH2 0xDB7 JUMPI PUSH32 0x4E487B7100000000000000000000000000000000000000000000000000000000 PUSH1 0x0 MSTORE PUSH1 0x21 PUSH1 0x4 MSTORE PUSH1 0x24 PUSH1 0x0 REVERT JUMPDEST EQ ISZERO PUSH2 0xDC6 JUMPI PUSH1 0x3 SWAP1 POP PUSH2 0xE00 JUMP JUMPDEST PUSH1 0xC SLOAD TIMESTAMP LT ISZERO PUSH2 0xDD9 JUMPI PUSH1 0x0 SWAP1 POP PUSH2 0xE00 JUMP JUMPDEST PUSH1 0xC SLOAD TIMESTAMP LT ISZERO DUP1 ISZERO PUSH2 0xDED JUMPI POP PUSH1 0xD SLOAD TIMESTAMP GT ISZERO JUMPDEST ISZERO PUSH2 0xDFB JUMPI PUSH1 0x1 SWAP1 POP PUSH2 0xE00 JUMP JUMPDEST PUSH1 0x2 SWAP1 POP JUMPDEST SWAP1 JUMP JUMPDEST PUSH1 0x7 PUSH1 0x0 SWAP1 SLOAD SWAP1 PUSH2 0x100 EXP SWAP1 DIV PUSH20 0xFFFFFFFFFFFFFFFFFFFFFFFFFFFFFFFFFFFFFFFF AND PUSH20 0xFFFFFFFFFFFFFFFFFFFFFFFFFFFFFFFFFFFFFFFF AND CALLER PUSH20 0xFFFFFFFFFFFFFFFFFFFFFFFFFFFFFFFFFFFFFFFF AND EQ PUSH2 0xE5D JUMPI PUSH1 0x0 DUP1 REVERT JUMPDEST PUSH1 0xE PUSH1 0x0 SWAP1 SLOAD SWAP1 PUSH2 0x100 EXP SWAP1 DIV PUSH20 0xFFFFFFFFFFFFFFFFFFFFFFFFFFFFFFFFFFFFFFFF AND PUSH20 0xFFFFFFFFFFFFFFFFFFFFFFFFFFFFFFFFFFFFFFFF AND PUSH4 0xA9059CBB PUSH1 0x7 PUSH1 0x0 SWAP1 SLOAD SWAP1 PUSH2 0x100 EXP SWAP1 DIV PUSH20 0xFFFFFFFFFFFFFFFFFFFFFFFFFFFFFFFFFFFFFFFF AND PUSH1 0xE PUSH1 0x0 SWAP1 SLOAD SWAP1 PUSH2 0x100 EXP SWAP1 DIV PUSH20 0xFFFFFFFFFFFFFFFFFFFFFFFFFFFFFFFFFFFFFFFF AND PUSH20 0xFFFFFFFFFFFFFFFFFFFFFFFFFFFFFFFFFFFFFFFF AND PUSH4 0x70A08231 ADDRESS PUSH1 0x40 MLOAD DUP3 PUSH4 0xFFFFFFFF AND PUSH1 0xE0 SHL DUP2 MSTORE PUSH1 0x4 ADD PUSH2 0xF19 SWAP2 SWAP1 PUSH2 0x1B2D JUMP JUMPDEST PUSH1 0x20 PUSH1 0x40 MLOAD DUP1 DUP4 SUB DUP2 DUP7 DUP1 EXTCODESIZE ISZERO DUP1 ISZERO PUSH2 0xF31 JUMPI PUSH1 0x0 DUP1 REVERT JUMPDEST POP GAS STATICCALL ISZERO DUP1 ISZERO PUSH2 0xF45 JUMPI RETURNDATASIZE PUSH1 0x0 DUP1 RETURNDATACOPY RETURNDATASIZE PUSH1 0x0 REVERT JUMPDEST POP POP POP POP PUSH1 0x40 MLOAD RETURNDATASIZE PUSH1 0x1F NOT PUSH1 0x1F DUP3 ADD AND DUP3 ADD DUP1 PUSH1 0x40 MSTORE POP DUP2 ADD SWAP1 PUSH2 0xF69 SWAP2 SWAP1 PUSH2 0x1A71 JUMP JUMPDEST PUSH1 0x40 MLOAD DUP4 PUSH4 0xFFFFFFFF AND PUSH1 0xE0 SHL DUP2 MSTORE PUSH1 0x4 ADD PUSH2 0xF86 SWAP3 SWAP2 SWAP1 PUSH2 0x1B63 JUMP JUMPDEST PUSH1 0x20 PUSH1 0x40 MLOAD DUP1 DUP4 SUB DUP2 PUSH1 0x0 DUP8 DUP1 EXTCODESIZE ISZERO DUP1 ISZERO PUSH2 0xFA0 JUMPI PUSH1 0x0 DUP1 REVERT JUMPDEST POP GAS CALL ISZERO DUP1 ISZERO PUSH2 0xFB4 JUMPI RETURNDATASIZE PUSH1 0x0 DUP1 RETURNDATACOPY RETURNDATASIZE PUSH1 0x0 REVERT JUMPDEST POP POP POP POP PUSH1 0x40 MLOAD RETURNDATASIZE PUSH1 0x1F NOT PUSH1 0x1F DUP3 ADD AND DUP3 ADD DUP1 PUSH1 0x40 MSTORE POP DUP2 ADD SWAP1 PUSH2 0xFD8 SWAP2 SWAP1 PUSH2 0x1A48 JUMP JUMPDEST PUSH2 0xFE1 JUMPI PUSH1 0x0 DUP1 REVERT JUMPDEST PUSH1 0x7 PUSH1 0x0 SWAP1 SLOAD SWAP1 PUSH2 0x100 EXP SWAP1 DIV PUSH20 0xFFFFFFFFFFFFFFFFFFFFFFFFFFFFFFFFFFFFFFFF AND PUSH20 0xFFFFFFFFFFFFFFFFFFFFFFFFFFFFFFFFFFFFFFFF AND PUSH2 0x8FC SELFBALANCE SWAP1 DUP2 ISZERO MUL SWAP1 PUSH1 0x40 MLOAD PUSH1 0x0 PUSH1 0x40 MLOAD DUP1 DUP4 SUB DUP2 DUP6 DUP9 DUP9 CALL SWAP4 POP POP POP POP ISZERO DUP1 ISZERO PUSH2 0x1049 JUMPI RETURNDATASIZE PUSH1 0x0 DUP1 RETURNDATACOPY RETURNDATASIZE PUSH1 0x0 REVERT JUMPDEST POP JUMP JUMPDEST PUSH1 0x0 PUSH2 0x1056 PUSH2 0xD34 JUMP JUMPDEST PUSH1 0x12 PUSH1 0x0 PUSH2 0x100 EXP DUP2 SLOAD DUP2 PUSH1 0xFF MUL NOT AND SWAP1 DUP4 PUSH1 0x3 DUP2 GT ISZERO PUSH2 0x10A0 JUMPI PUSH32 0x4E487B7100000000000000000000000000000000000000000000000000000000 PUSH1 0x0 MSTORE PUSH1 0x21 PUSH1 0x4 MSTORE PUSH1 0x24 PUSH1 0x0 REVERT JUMPDEST MUL OR SWAP1 SSTORE POP PUSH1 0x2 PUSH1 0x3 DUP2 GT ISZERO PUSH2 0x10DF JUMPI PUSH32 0x4E487B7100000000000000000000000000000000000000000000000000000000 PUSH1 0x0 MSTORE PUSH1 0x21 PUSH1 0x4 MSTORE PUSH1 0x24 PUSH1 0x0 REVERT JUMPDEST PUSH1 0x12 PUSH1 0x0 SWAP1 SLOAD SWAP1 PUSH2 0x100 EXP SWAP1 DIV PUSH1 0xFF AND PUSH1 0x3 DUP2 GT ISZERO PUSH2 0x1127 JUMPI PUSH32 0x4E487B7100000000000000000000000000000000000000000000000000000000 PUSH1 0x0 MSTORE PUSH1 0x21 PUSH1 0x4 MSTORE PUSH1 0x24 PUSH1 0x0 REVERT JUMPDEST EQ PUSH2 0x1131 JUMPI PUSH1 0x0 DUP1 REVERT JUMPDEST PUSH1 0x0 PUSH1 0x5 PUSH1 0x0 PUSH1 0x4 PUSH1 0x0 SWAP1 SLOAD SWAP1 PUSH2 0x100 EXP SWAP1 DIV PUSH20 0xFFFFFFFFFFFFFFFFFFFFFFFFFFFFFFFFFFFFFFFF AND PUSH20 0xFFFFFFFFFFFFFFFFFFFFFFFFFFFFFFFFFFFFFFFF AND PUSH20 0xFFFFFFFFFFFFFFFFFFFFFFFFFFFFFFFFFFFFFFFF AND DUP2 MSTORE PUSH1 0x20 ADD SWAP1 DUP2 MSTORE PUSH1 0x20 ADD PUSH1 0x0 KECCAK256 DUP2 SWAP1 SSTORE POP PUSH1 0x1 SWAP1 POP SWAP1 JUMP JUMPDEST PUSH1 0x12 PUSH1 0x0 SWAP1 SLOAD SWAP1 PUSH2 0x100 EXP SWAP1 DIV PUSH1 0xFF AND DUP2 JUMP JUMPDEST PUSH1 0x4 PUSH1 0x0 SWAP1 SLOAD SWAP1 PUSH2 0x100 EXP SWAP1 DIV PUSH20 0xFFFFFFFFFFFFFFFFFFFFFFFFFFFFFFFFFFFFFFFF AND DUP2 JUMP JUMPDEST PUSH1 0xE PUSH1 0x0 SWAP1 SLOAD SWAP1 PUSH2 0x100 EXP SWAP1 DIV PUSH20 0xFFFFFFFFFFFFFFFFFFFFFFFFFFFFFFFFFFFFFFFF AND DUP2 JUMP JUMPDEST PUSH1 0x7 PUSH1 0x0 SWAP1 SLOAD SWAP1 PUSH2 0x100 EXP SWAP1 DIV PUSH20 0xFFFFFFFFFFFFFFFFFFFFFFFFFFFFFFFFFFFFFFFF AND PUSH20 0xFFFFFFFFFFFFFFFFFFFFFFFFFFFFFFFFFFFFFFFF AND CALLER PUSH20 0xFFFFFFFFFFFFFFFFFFFFFFFFFFFFFFFFFFFFFFFF AND EQ PUSH2 0x1258 JUMPI PUSH1 0x0 DUP1 REVERT JUMPDEST PUSH1 0x3 PUSH1 0x12 PUSH1 0x0 PUSH2 0x100 EXP DUP2 SLOAD DUP2 PUSH1 0xFF MUL NOT AND SWAP1 DUP4 PUSH1 0x3 DUP2 GT ISZERO PUSH2 0x12A4 JUMPI PUSH32 0x4E487B7100000000000000000000000000000000000000000000000000000000 PUSH1 0x0 MSTORE PUSH1 0x21 PUSH1 0x4 MSTORE PUSH1 0x24 PUSH1 0x0 REVERT JUMPDEST MUL OR SWAP1 SSTORE POP JUMP JUMPDEST PUSH1 0x7 PUSH1 0x0 SWAP1 SLOAD SWAP1 PUSH2 0x100 EXP SWAP1 DIV PUSH20 0xFFFFFFFFFFFFFFFFFFFFFFFFFFFFFFFFFFFFFFFF AND PUSH20 0xFFFFFFFFFFFFFFFFFFFFFFFFFFFFFFFFFFFFFFFF AND CALLER PUSH20 0xFFFFFFFFFFFFFFFFFFFFFFFFFFFFFFFFFFFFFFFF AND EQ PUSH2 0x1305 JUMPI PUSH1 0x0 DUP1 REVERT JUMPDEST DUP1 PUSH1 0x8 PUSH1 0x0 PUSH2 0x100 EXP DUP2 SLOAD DUP2 PUSH20 0xFFFFFFFFFFFFFFFFFFFFFFFFFFFFFFFFFFFFFFFF MUL NOT AND SWAP1 DUP4 PUSH20 0xFFFFFFFFFFFFFFFFFFFFFFFFFFFFFFFFFFFFFFFF AND MUL OR SWAP1 SSTORE POP POP JUMP JUMPDEST PUSH1 0x0 PUSH1 0x5 PUSH1 0x0 DUP4 PUSH20 0xFFFFFFFFFFFFFFFFFFFFFFFFFFFFFFFFFFFFFFFF AND PUSH20 0xFFFFFFFFFFFFFFFFFFFFFFFFFFFFFFFFFFFFFFFF AND DUP2 MSTORE PUSH1 0x20 ADD SWAP1 DUP2 MSTORE PUSH1 0x20 ADD PUSH1 0x0 KECCAK256 SLOAD SWAP1 POP SWAP2 SWAP1 POP JUMP JUMPDEST PUSH1 0x11 SLOAD DUP2 JUMP JUMPDEST PUSH1 0x1 DUP1 SLOAD PUSH2 0x13A5 SWAP1 PUSH2 0x1E58 JUMP JUMPDEST DUP1 PUSH1 0x1F ADD PUSH1 0x20 DUP1 SWAP2 DIV MUL PUSH1 0x20 ADD PUSH1 0x40 MLOAD SWAP1 DUP2 ADD PUSH1 0x40 MSTORE DUP1 SWAP3 SWAP2 SWAP1 DUP2 DUP2 MSTORE PUSH1 0x20 ADD DUP3 DUP1 SLOAD PUSH2 0x13D1 SWAP1 PUSH2 0x1E58 JUMP JUMPDEST DUP1 ISZERO PUSH2 0x141E JUMPI DUP1 PUSH1 0x1F LT PUSH2 0x13F3 JUMPI PUSH2 0x100 DUP1 DUP4 SLOAD DIV MUL DUP4 MSTORE SWAP2 PUSH1 0x20 ADD SWAP2 PUSH2 0x141E JUMP JUMPDEST DUP3 ADD SWAP2 SWAP1 PUSH1 0x0 MSTORE PUSH1 0x20 PUSH1 0x0 KECCAK256 SWAP1 JUMPDEST DUP2 SLOAD DUP2 MSTORE SWAP1 PUSH1 0x1 ADD SWAP1 PUSH1 0x20 ADD DUP1 DUP4 GT PUSH2 0x1401 JUMPI DUP3 SWAP1 SUB PUSH1 0x1F AND DUP3 ADD SWAP2 JUMPDEST POP POP POP POP POP DUP2 JUMP JUMPDEST PUSH1 0x0 PUSH1 0xF SLOAD TIMESTAMP GT PUSH2 0x1436 JUMPI PUSH1 0x0 DUP1 REVERT JUMPDEST PUSH2 0x1440 DUP4 DUP4 PUSH2 0x175D JUMP JUMPDEST POP PUSH1 0x1 SWAP1 POP SWAP3 SWAP2 POP POP JUMP JUMPDEST PUSH1 0xC SLOAD DUP2 JUMP JUMPDEST PUSH1 0xD SLOAD DUP2 JUMP JUMPDEST PUSH1 0xB SLOAD DUP2 JUMP JUMPDEST PUSH1 0xF SLOAD DUP2 JUMP JUMPDEST PUSH1 0x8 PUSH1 0x0 SWAP1 SLOAD SWAP1 PUSH2 0x100 EXP SWAP1 DIV PUSH20 0xFFFFFFFFFFFFFFFFFFFFFFFFFFFFFFFFFFFFFFFF AND DUP2 JUMP JUMPDEST PUSH1 0x0 PUSH1 0x6 PUSH1 0x0 DUP5 PUSH20 0xFFFFFFFFFFFFFFFFFFFFFFFFFFFFFFFFFFFFFFFF AND PUSH20 0xFFFFFFFFFFFFFFFFFFFFFFFFFFFFFFFFFFFFFFFF AND DUP2 MSTORE PUSH1 0x20 ADD SWAP1 DUP2 MSTORE PUSH1 0x20 ADD PUSH1 0x0 KECCAK256 PUSH1 0x0 DUP4 PUSH20 0xFFFFFFFFFFFFFFFFFFFFFFFFFFFFFFFFFFFFFFFF AND PUSH20 0xFFFFFFFFFFFFFFFFFFFFFFFFFFFFFFFFFFFFFFFF AND DUP2 MSTORE PUSH1 0x20 ADD SWAP1 DUP2 MSTORE PUSH1 0x20 ADD PUSH1 0x0 KECCAK256 SLOAD SWAP1 POP SWAP3 SWAP2 POP POP JUMP JUMPDEST PUSH1 0x7 PUSH1 0x0 SWAP1 SLOAD SWAP1 PUSH2 0x100 EXP SWAP1 DIV PUSH20 0xFFFFFFFFFFFFFFFFFFFFFFFFFFFFFFFFFFFFFFFF AND DUP2 JUMP JUMPDEST PUSH1 0xA SLOAD DUP2 JUMP JUMPDEST PUSH1 0x0 DUP2 PUSH1 0x6 PUSH1 0x0 DUP7 PUSH20 0xFFFFFFFFFFFFFFFFFFFFFFFFFFFFFFFFFFFFFFFF AND PUSH20 0xFFFFFFFFFFFFFFFFFFFFFFFFFFFFFFFFFFFFFFFF AND DUP2 MSTORE PUSH1 0x20 ADD SWAP1 DUP2 MSTORE PUSH1 0x20 ADD PUSH1 0x0 KECCAK256 PUSH1 0x0 DUP6 PUSH20 0xFFFFFFFFFFFFFFFFFFFFFFFFFFFFFFFFFFFFFFFF AND PUSH20 0xFFFFFFFFFFFFFFFFFFFFFFFFFFFFFFFFFFFFFFFF AND DUP2 MSTORE PUSH1 0x20 ADD SWAP1 DUP2 MSTORE PUSH1 0x20 ADD PUSH1 0x0 KECCAK256 SLOAD LT ISZERO PUSH2 0x15C7 JUMPI PUSH1 0x0 DUP1 REVERT JUMPDEST DUP2 PUSH1 0x5 PUSH1 0x0 DUP7 PUSH20 0xFFFFFFFFFFFFFFFFFFFFFFFFFFFFFFFFFFFFFFFF AND PUSH20 0xFFFFFFFFFFFFFFFFFFFFFFFFFFFFFFFFFFFFFFFF AND DUP2 MSTORE PUSH1 0x20 ADD SWAP1 DUP2 MSTORE PUSH1 0x20 ADD PUSH1 0x0 KECCAK256 SLOAD LT ISZERO PUSH2 0x1613 JUMPI PUSH1 0x0 DUP1 REVERT JUMPDEST DUP2 PUSH1 0x5 PUSH1 0x0 DUP7 PUSH20 0xFFFFFFFFFFFFFFFFFFFFFFFFFFFFFFFFFFFFFFFF AND PUSH20 0xFFFFFFFFFFFFFFFFFFFFFFFFFFFFFFFFFFFFFFFF AND DUP2 MSTORE PUSH1 0x20 ADD SWAP1 DUP2 MSTORE PUSH1 0x20 ADD PUSH1 0x0 KECCAK256 PUSH1 0x0 DUP3 DUP3 SLOAD PUSH2 0x1662 SWAP2 SWAP1 PUSH2 0x1D4E JUMP JUMPDEST SWAP3 POP POP DUP2 SWAP1 SSTORE POP DUP2 PUSH1 0x5 PUSH1 0x0 DUP6 PUSH20 0xFFFFFFFFFFFFFFFFFFFFFFFFFFFFFFFFFFFFFFFF AND PUSH20 0xFFFFFFFFFFFFFFFFFFFFFFFFFFFFFFFFFFFFFFFF AND DUP2 MSTORE PUSH1 0x20 ADD SWAP1 DUP2 MSTORE PUSH1 0x20 ADD PUSH1 0x0 KECCAK256 PUSH1 0x0 DUP3 DUP3 SLOAD PUSH2 0x16B8 SWAP2 SWAP1 PUSH2 0x1C6D JUMP JUMPDEST SWAP3 POP POP DUP2 SWAP1 SSTORE POP DUP2 PUSH1 0x6 PUSH1 0x0 DUP7 PUSH20 0xFFFFFFFFFFFFFFFFFFFFFFFFFFFFFFFFFFFFFFFF AND PUSH20 0xFFFFFFFFFFFFFFFFFFFFFFFFFFFFFFFFFFFFFFFF AND DUP2 MSTORE PUSH1 0x20 ADD SWAP1 DUP2 MSTORE PUSH1 0x20 ADD PUSH1 0x0 KECCAK256 PUSH1 0x0 DUP6 PUSH20 0xFFFFFFFFFFFFFFFFFFFFFFFFFFFFFFFFFFFFFFFF AND PUSH20 0xFFFFFFFFFFFFFFFFFFFFFFFFFFFFFFFFFFFFFFFF AND DUP2 MSTORE PUSH1 0x20 ADD SWAP1 DUP2 MSTORE PUSH1 0x20 ADD PUSH1 0x0 KECCAK256 PUSH1 0x0 DUP3 DUP3 SLOAD PUSH2 0x174B SWAP2 SWAP1 PUSH2 0x1D4E JUMP JUMPDEST SWAP3 POP POP DUP2 SWAP1 SSTORE POP PUSH1 0x1 SWAP1 POP SWAP4 SWAP3 POP POP POP JUMP JUMPDEST PUSH1 0x0 DUP2 PUSH1 0x5 PUSH1 0x0 CALLER PUSH20 0xFFFFFFFFFFFFFFFFFFFFFFFFFFFFFFFFFFFFFFFF AND PUSH20 0xFFFFFFFFFFFFFFFFFFFFFFFFFFFFFFFFFFFFFFFF AND DUP2 MSTORE PUSH1 0x20 ADD SWAP1 DUP2 MSTORE PUSH1 0x20 ADD PUSH1 0x0 KECCAK256 SLOAD LT ISZERO PUSH2 0x17AB JUMPI PUSH1 0x0 DUP1 REVERT JUMPDEST DUP2 PUSH1 0x5 PUSH1 0x0 DUP6 PUSH20 0xFFFFFFFFFFFFFFFFFFFFFFFFFFFFFFFFFFFFFFFF AND PUSH20 0xFFFFFFFFFFFFFFFFFFFFFFFFFFFFFFFFFFFFFFFF AND DUP2 MSTORE PUSH1 0x20 ADD SWAP1 DUP2 MSTORE PUSH1 0x20 ADD PUSH1 0x0 KECCAK256 PUSH1 0x0 DUP3 DUP3 SLOAD PUSH2 0x17FA SWAP2 SWAP1 PUSH2 0x1C6D JUMP JUMPDEST SWAP3 POP POP DUP2 SWAP1 SSTORE POP DUP2 PUSH1 0x5 PUSH1 0x0 CALLER PUSH20 0xFFFFFFFFFFFFFFFFFFFFFFFFFFFFFFFFFFFFFFFF AND PUSH20 0xFFFFFFFFFFFFFFFFFFFFFFFFFFFFFFFFFFFFFFFF AND DUP2 MSTORE PUSH1 0x20 ADD SWAP1 DUP2 MSTORE PUSH1 0x20 ADD PUSH1 0x0 KECCAK256 PUSH1 0x0 DUP3 DUP3 SLOAD PUSH2 0x1850 SWAP2 SWAP1 PUSH2 0x1D4E JUMP JUMPDEST SWAP3 POP POP DUP2 SWAP1 SSTORE POP DUP3 PUSH20 0xFFFFFFFFFFFFFFFFFFFFFFFFFFFFFFFFFFFFFFFF AND CALLER PUSH20 0xFFFFFFFFFFFFFFFFFFFFFFFFFFFFFFFFFFFFFFFF AND PUSH32 0xDDF252AD1BE2C89B69C2B068FC378DAA952BA7F163C4A11628F55A4DF523B3EF DUP5 PUSH1 0x40 MLOAD PUSH2 0x18B4 SWAP2 SWAP1 PUSH2 0x1C36 JUMP JUMPDEST PUSH1 0x40 MLOAD DUP1 SWAP2 SUB SWAP1 LOG3 PUSH1 0x1 SWAP1 POP SWAP3 SWAP2 POP POP JUMP JUMPDEST PUSH1 0x0 DUP2 CALLDATALOAD SWAP1 POP PUSH2 0x18D5 DUP2 PUSH2 0x1F6B JUMP JUMPDEST SWAP3 SWAP2 POP POP JUMP JUMPDEST PUSH1 0x0 DUP2 CALLDATALOAD SWAP1 POP PUSH2 0x18EA DUP2 PUSH2 0x1F82 JUMP JUMPDEST SWAP3 SWAP2 POP POP JUMP JUMPDEST PUSH1 0x0 DUP2 MLOAD SWAP1 POP PUSH2 0x18FF DUP2 PUSH2 0x1F99 JUMP JUMPDEST SWAP3 SWAP2 POP POP JUMP JUMPDEST PUSH1 0x0 DUP2 CALLDATALOAD SWAP1 POP PUSH2 0x1914 DUP2 PUSH2 0x1FB0 JUMP JUMPDEST SWAP3 SWAP2 POP POP JUMP JUMPDEST PUSH1 0x0 DUP2 MLOAD SWAP1 POP PUSH2 0x1929 DUP2 PUSH2 0x1FB0 JUMP JUMPDEST SWAP3 SWAP2 POP POP JUMP JUMPDEST PUSH1 0x0 PUSH1 0x20 DUP3 DUP5 SUB SLT ISZERO PUSH2 0x1941 JUMPI PUSH1 0x0 DUP1 REVERT JUMPDEST PUSH1 0x0 PUSH2 0x194F DUP5 DUP3 DUP6 ADD PUSH2 0x18C6 JUMP JUMPDEST SWAP2 POP POP SWAP3 SWAP2 POP POP JUMP JUMPDEST PUSH1 0x0 PUSH1 0x20 DUP3 DUP5 SUB SLT ISZERO PUSH2 0x196A JUMPI PUSH1 0x0 DUP1 REVERT JUMPDEST PUSH1 0x0 PUSH2 0x1978 DUP5 DUP3 DUP6 ADD PUSH2 0x18DB JUMP JUMPDEST SWAP2 POP POP SWAP3 SWAP2 POP POP JUMP JUMPDEST PUSH1 0x0 DUP1 PUSH1 0x40 DUP4 DUP6 SUB SLT ISZERO PUSH2 0x1994 JUMPI PUSH1 0x0 DUP1 REVERT JUMPDEST PUSH1 0x0 PUSH2 0x19A2 DUP6 DUP3 DUP7 ADD PUSH2 0x18C6 JUMP JUMPDEST SWAP3 POP POP PUSH1 0x20 PUSH2 0x19B3 DUP6 DUP3 DUP7 ADD PUSH2 0x18C6 JUMP JUMPDEST SWAP2 POP POP SWAP3 POP SWAP3 SWAP1 POP JUMP JUMPDEST PUSH1 0x0 DUP1 PUSH1 0x0 PUSH1 0x60 DUP5 DUP7 SUB SLT ISZERO PUSH2 0x19D2 JUMPI PUSH1 0x0 DUP1 REVERT JUMPDEST PUSH1 0x0 PUSH2 0x19E0 DUP7 DUP3 DUP8 ADD PUSH2 0x18C6 JUMP JUMPDEST SWAP4 POP POP PUSH1 0x20 PUSH2 0x19F1 DUP7 DUP3 DUP8 ADD PUSH2 0x18C6 JUMP JUMPDEST SWAP3 POP POP PUSH1 0x40 PUSH2 0x1A02 DUP7 DUP3 DUP8 ADD PUSH2 0x1905 JUMP JUMPDEST SWAP2 POP POP SWAP3 POP SWAP3 POP SWAP3 JUMP JUMPDEST PUSH1 0x0 DUP1 PUSH1 0x40 DUP4 DUP6 SUB SLT ISZERO PUSH2 0x1A1F JUMPI PUSH1 0x0 DUP1 REVERT JUMPDEST PUSH1 0x0 PUSH2 0x1A2D DUP6 DUP3 DUP7 ADD PUSH2 0x18C6 JUMP JUMPDEST SWAP3 POP POP PUSH1 0x20 PUSH2 0x1A3E DUP6 DUP3 DUP7 ADD PUSH2 0x1905 JUMP JUMPDEST SWAP2 POP POP SWAP3 POP SWAP3 SWAP1 POP JUMP JUMPDEST PUSH1 0x0 PUSH1 0x20 DUP3 DUP5 SUB SLT ISZERO PUSH2 0x1A5A JUMPI PUSH1 0x0 DUP1 REVERT JUMPDEST PUSH1 0x0 PUSH2 0x1A68 DUP5 DUP3 DUP6 ADD PUSH2 0x18F0 JUMP JUMPDEST SWAP2 POP POP SWAP3 SWAP2 POP POP JUMP JUMPDEST PUSH1 0x0 PUSH1 0x20 DUP3 DUP5 SUB SLT ISZERO PUSH2 0x1A83 JUMPI PUSH1 0x0 DUP1 REVERT JUMPDEST PUSH1 0x0 PUSH2 0x1A91 DUP5 DUP3 DUP6 ADD PUSH2 0x191A JUMP JUMPDEST SWAP2 POP POP SWAP3 SWAP2 POP POP JUMP JUMPDEST PUSH2 0x1AA3 DUP2 PUSH2 0x1D94 JUMP JUMPDEST DUP3 MSTORE POP POP JUMP JUMPDEST PUSH2 0x1AB2 DUP2 PUSH2 0x1D82 JUMP JUMPDEST DUP3 MSTORE POP POP JUMP JUMPDEST PUSH2 0x1AC1 DUP2 PUSH2 0x1DA6 JUMP JUMPDEST DUP3 MSTORE POP POP JUMP JUMPDEST PUSH2 0x1AD0 DUP2 PUSH2 0x1DEF JUMP JUMPDEST DUP3 MSTORE POP POP JUMP JUMPDEST PUSH2 0x1ADF DUP2 PUSH2 0x1E13 JUMP JUMPDEST DUP3 MSTORE POP POP JUMP JUMPDEST PUSH1 0x0 PUSH2 0x1AF0 DUP3 PUSH2 0x1C51 JUMP JUMPDEST PUSH2 0x1AFA DUP2 DUP6 PUSH2 0x1C5C JUMP JUMPDEST SWAP4 POP PUSH2 0x1B0A DUP2 DUP6 PUSH1 0x20 DUP7 ADD PUSH2 0x1E25 JUMP JUMPDEST PUSH2 0x1B13 DUP2 PUSH2 0x1F46 JUMP JUMPDEST DUP5 ADD SWAP2 POP POP SWAP3 SWAP2 POP POP JUMP JUMPDEST PUSH2 0x1B27 DUP2 PUSH2 0x1DE5 JUMP JUMPDEST DUP3 MSTORE POP POP JUMP JUMPDEST PUSH1 0x0 PUSH1 0x20 DUP3 ADD SWAP1 POP PUSH2 0x1B42 PUSH1 0x0 DUP4 ADD DUP5 PUSH2 0x1AA9 JUMP JUMPDEST SWAP3 SWAP2 POP POP JUMP JUMPDEST PUSH1 0x0 PUSH1 0x20 DUP3 ADD SWAP1 POP PUSH2 0x1B5D PUSH1 0x0 DUP4 ADD DUP5 PUSH2 0x1A9A JUMP JUMPDEST SWAP3 SWAP2 POP POP JUMP JUMPDEST PUSH1 0x0 PUSH1 0x40 DUP3 ADD SWAP1 POP PUSH2 0x1B78 PUSH1 0x0 DUP4 ADD DUP6 PUSH2 0x1AA9 JUMP JUMPDEST PUSH2 0x1B85 PUSH1 0x20 DUP4 ADD DUP5 PUSH2 0x1B1E JUMP JUMPDEST SWAP4 SWAP3 POP POP POP JUMP JUMPDEST PUSH1 0x0 PUSH1 0x60 DUP3 ADD SWAP1 POP PUSH2 0x1BA1 PUSH1 0x0 DUP4 ADD DUP7 PUSH2 0x1AA9 JUMP JUMPDEST PUSH2 0x1BAE PUSH1 0x20 DUP4 ADD DUP6 PUSH2 0x1B1E JUMP JUMPDEST PUSH2 0x1BBB PUSH1 0x40 DUP4 ADD DUP5 PUSH2 0x1B1E JUMP JUMPDEST SWAP5 SWAP4 POP POP POP POP JUMP JUMPDEST PUSH1 0x0 PUSH1 0x20 DUP3 ADD SWAP1 POP PUSH2 0x1BD8 PUSH1 0x0 DUP4 ADD DUP5 PUSH2 0x1AB8 JUMP JUMPDEST SWAP3 SWAP2 POP POP JUMP JUMPDEST PUSH1 0x0 PUSH1 0x20 DUP3 ADD SWAP1 POP PUSH2 0x1BF3 PUSH1 0x0 DUP4 ADD DUP5 PUSH2 0x1AC7 JUMP JUMPDEST SWAP3 SWAP2 POP POP JUMP JUMPDEST PUSH1 0x0 PUSH1 0x20 DUP3 ADD SWAP1 POP PUSH2 0x1C0E PUSH1 0x0 DUP4 ADD DUP5 PUSH2 0x1AD6 JUMP JUMPDEST SWAP3 SWAP2 POP POP JUMP JUMPDEST PUSH1 0x0 PUSH1 0x20 DUP3 ADD SWAP1 POP DUP2 DUP2 SUB PUSH1 0x0 DUP4 ADD MSTORE PUSH2 0x1C2E DUP2 DUP5 PUSH2 0x1AE5 JUMP JUMPDEST SWAP1 POP SWAP3 SWAP2 POP POP JUMP JUMPDEST PUSH1 0x0 PUSH1 0x20 DUP3 ADD SWAP1 POP PUSH2 0x1C4B PUSH1 0x0 DUP4 ADD DUP5 PUSH2 0x1B1E JUMP JUMPDEST SWAP3 SWAP2 POP POP JUMP JUMPDEST PUSH1 0x0 DUP2 MLOAD SWAP1 POP SWAP2 SWAP1 POP JUMP JUMPDEST PUSH1 0x0 DUP3 DUP3 MSTORE PUSH1 0x20 DUP3 ADD SWAP1 POP SWAP3 SWAP2 POP POP JUMP JUMPDEST PUSH1 0x0 PUSH2 0x1C78 DUP3 PUSH2 0x1DE5 JUMP JUMPDEST SWAP2 POP PUSH2 0x1C83 DUP4 PUSH2 0x1DE5 JUMP JUMPDEST SWAP3 POP DUP3 PUSH32 0xFFFFFFFFFFFFFFFFFFFFFFFFFFFFFFFFFFFFFFFFFFFFFFFFFFFFFFFFFFFFFFFF SUB DUP3 GT ISZERO PUSH2 0x1CB8 JUMPI PUSH2 0x1CB7 PUSH2 0x1E8A JUMP JUMPDEST JUMPDEST DUP3 DUP3 ADD SWAP1 POP SWAP3 SWAP2 POP POP JUMP JUMPDEST PUSH1 0x0 PUSH2 0x1CCE DUP3 PUSH2 0x1DE5 JUMP JUMPDEST SWAP2 POP PUSH2 0x1CD9 DUP4 PUSH2 0x1DE5 JUMP JUMPDEST SWAP3 POP DUP3 PUSH2 0x1CE9 JUMPI PUSH2 0x1CE8 PUSH2 0x1EB9 JUMP JUMPDEST JUMPDEST DUP3 DUP3 DIV SWAP1 POP SWAP3 SWAP2 POP POP JUMP JUMPDEST PUSH1 0x0 PUSH2 0x1CFF DUP3 PUSH2 0x1DE5 JUMP JUMPDEST SWAP2 POP PUSH2 0x1D0A DUP4 PUSH2 0x1DE5 JUMP JUMPDEST SWAP3 POP DUP2 PUSH32 0xFFFFFFFFFFFFFFFFFFFFFFFFFFFFFFFFFFFFFFFFFFFFFFFFFFFFFFFFFFFFFFFF DIV DUP4 GT DUP3 ISZERO ISZERO AND ISZERO PUSH2 0x1D43 JUMPI PUSH2 0x1D42 PUSH2 0x1E8A JUMP JUMPDEST JUMPDEST DUP3 DUP3 MUL SWAP1 POP SWAP3 SWAP2 POP POP JUMP JUMPDEST PUSH1 0x0 PUSH2 0x1D59 DUP3 PUSH2 0x1DE5 JUMP JUMPDEST SWAP2 POP PUSH2 0x1D64 DUP4 PUSH2 0x1DE5 JUMP JUMPDEST SWAP3 POP DUP3 DUP3 LT ISZERO PUSH2 0x1D77 JUMPI PUSH2 0x1D76 PUSH2 0x1E8A JUMP JUMPDEST JUMPDEST DUP3 DUP3 SUB SWAP1 POP SWAP3 SWAP2 POP POP JUMP JUMPDEST PUSH1 0x0 PUSH2 0x1D8D DUP3 PUSH2 0x1DC5 JUMP JUMPDEST SWAP1 POP SWAP2 SWAP1 POP JUMP JUMPDEST PUSH1 0x0 PUSH2 0x1D9F DUP3 PUSH2 0x1DC5 JUMP JUMPDEST SWAP1 POP SWAP2 SWAP1 POP JUMP JUMPDEST PUSH1 0x0 DUP2 ISZERO ISZERO SWAP1 POP SWAP2 SWAP1 POP JUMP JUMPDEST PUSH1 0x0 DUP2 SWAP1 POP PUSH2 0x1DC0 DUP3 PUSH2 0x1F57 JUMP JUMPDEST SWAP2 SWAP1 POP JUMP JUMPDEST PUSH1 0x0 PUSH20 0xFFFFFFFFFFFFFFFFFFFFFFFFFFFFFFFFFFFFFFFF DUP3 AND SWAP1 POP SWAP2 SWAP1 POP JUMP JUMPDEST PUSH1 0x0 DUP2 SWAP1 POP SWAP2 SWAP1 POP JUMP JUMPDEST PUSH1 0x0 PUSH2 0x1DFA DUP3 PUSH2 0x1E01 JUMP JUMPDEST SWAP1 POP SWAP2 SWAP1 POP JUMP JUMPDEST PUSH1 0x0 PUSH2 0x1E0C DUP3 PUSH2 0x1DC5 JUMP JUMPDEST SWAP1 POP SWAP2 SWAP1 POP JUMP JUMPDEST PUSH1 0x0 PUSH2 0x1E1E DUP3 PUSH2 0x1DB2 JUMP JUMPDEST SWAP1 POP SWAP2 SWAP1 POP JUMP JUMPDEST PUSH1 0x0 JUMPDEST DUP4 DUP2 LT ISZERO PUSH2 0x1E43 JUMPI DUP1 DUP3 ADD MLOAD DUP2 DUP5 ADD MSTORE PUSH1 0x20 DUP2 ADD SWAP1 POP PUSH2 0x1E28 JUMP JUMPDEST DUP4 DUP2 GT ISZERO PUSH2 0x1E52 JUMPI PUSH1 0x0 DUP5 DUP5 ADD MSTORE JUMPDEST POP POP POP POP JUMP JUMPDEST PUSH1 0x0 PUSH1 0x2 DUP3 DIV SWAP1 POP PUSH1 0x1 DUP3 AND DUP1 PUSH2 0x1E70 JUMPI PUSH1 0x7F DUP3 AND SWAP2 POP JUMPDEST PUSH1 0x20 DUP3 LT DUP2 EQ ISZERO PUSH2 0x1E84 JUMPI PUSH2 0x1E83 PUSH2 0x1F17 JUMP JUMPDEST JUMPDEST POP SWAP2 SWAP1 POP JUMP JUMPDEST PUSH32 0x4E487B7100000000000000000000000000000000000000000000000000000000 PUSH1 0x0 MSTORE PUSH1 0x11 PUSH1 0x4 MSTORE PUSH1 0x24 PUSH1 0x0 REVERT JUMPDEST PUSH32 0x4E487B7100000000000000000000000000000000000000000000000000000000 PUSH1 0x0 MSTORE PUSH1 0x12 PUSH1 0x4 MSTORE PUSH1 0x24 PUSH1 0x0 REVERT JUMPDEST PUSH32 0x4E487B7100000000000000000000000000000000000000000000000000000000 PUSH1 0x0 MSTORE PUSH1 0x21 PUSH1 0x4 MSTORE PUSH1 0x24 PUSH1 0x0 REVERT JUMPDEST PUSH32 0x4E487B7100000000000000000000000000000000000000000000000000000000 PUSH1 0x0 MSTORE PUSH1 0x22 PUSH1 0x4 MSTORE PUSH1 0x24 PUSH1 0x0 REVERT JUMPDEST PUSH1 0x0 PUSH1 0x1F NOT PUSH1 0x1F DUP4 ADD AND SWAP1 POP SWAP2 SWAP1 POP JUMP JUMPDEST PUSH1 0x4 DUP2 LT PUSH2 0x1F68 JUMPI PUSH2 0x1F67 PUSH2 0x1EE8 JUMP JUMPDEST JUMPDEST POP JUMP JUMPDEST PUSH2 0x1F74 DUP2 PUSH2 0x1D82 JUMP JUMPDEST DUP2 EQ PUSH2 0x1F7F JUMPI PUSH1 0x0 DUP1 REVERT JUMPDEST POP JUMP JUMPDEST PUSH2 0x1F8B DUP2 PUSH2 0x1D94 JUMP JUMPDEST DUP2 EQ PUSH2 0x1F96 JUMPI PUSH1 0x0 DUP1 REVERT JUMPDEST POP JUMP JUMPDEST PUSH2 0x1FA2 DUP2 PUSH2 0x1DA6 JUMP JUMPDEST DUP2 EQ PUSH2 0x1FAD JUMPI PUSH1 0x0 DUP1 REVERT JUMPDEST POP JUMP JUMPDEST PUSH2 0x1FB9 DUP2 PUSH2 0x1DE5 JUMP JUMPDEST DUP2 EQ PUSH2 0x1FC4 JUMPI PUSH1 0x0 DUP1 REVERT JUMPDEST POP JUMP INVALID LOG2 PUSH5 0x6970667358 0x22 SLT KECCAK256 0x49 0xDF SGT 0xCC 0xF PUSH19 0x73A7471BDB8A6F71FC6EB2444A1685C7DD9254 PUSH18 0x379B8F022DB264736F6C6343000800003300 "
				},
				"gasEstimates": {
					"creation": {
						"codeDepositCost": "1637800",
						"executionCost": "infinite",
						"totalCost": "infinite"
					},
					"external": {
						"admin()": "1302",
						"allowance(address,address)": "infinite",
						"approve(address,uint256)": "infinite",
						"balanceOf(address)": "1631",
						"balances(address)": "1626",
						"burn()": "31572",
						"changeDepositAddress(address)": "22260",
						"decimals()": "1175",
						"deposit()": "1325",
						"endSale()": "infinite",
						"founder()": "1303",
						"getCurrentState()": "3911",
						"halt()": "21947",
						"hardCap()": "1239",
						"icoState()": "1327",
						"invest()": "infinite",
						"maxInvestment()": "1176",
						"minInvestment()": "1174",
						"name()": "infinite",
						"raisedAmount()": "1196",
						"resume()": "21970",
						"saleEnd()": "1174",
						"saleStart()": "1240",
						"symbol()": "infinite",
						"tokenContract()": "1368",
						"tokenTradeStart()": "1218",
						"totalSupply()": "1197",
						"transfer(address,uint256)": "infinite",
						"transferFrom(address,address,uint256)": "infinite"
					},
					"internal": {
						"multiply(uint256,uint256)": "infinite"
					}
				},
				"methodIdentifiers": {
					"admin()": "f851a440",
					"allowance(address,address)": "dd62ed3e",
					"approve(address,uint256)": "095ea7b3",
					"balanceOf(address)": "70a08231",
					"balances(address)": "27e235e3",
					"burn()": "44df8e70",
					"changeDepositAddress(address)": "6d58c88f",
					"decimals()": "313ce567",
					"deposit()": "d0e30db0",
					"endSale()": "380d831b",
					"founder()": "4d853ee5",
					"getCurrentState()": "378aa701",
					"halt()": "5ed7ca5b",
					"hardCap()": "fb86a404",
					"icoState()": "44f38756",
					"invest()": "e8b5e51f",
					"maxInvestment()": "002e1316",
					"minInvestment()": "8ac2c680",
					"name()": "06fdde03",
					"raisedAmount()": "c59ee1dc",
					"resume()": "046f7da2",
					"saleEnd()": "c10b9358",
					"saleStart()": "ab0bcc41",
					"symbol()": "95d89b41",
					"tokenContract()": "55a373d6",
					"tokenTradeStart()": "cc9ba583",
					"totalSupply()": "18160ddd",
					"transfer(address,uint256)": "a9059cbb",
					"transferFrom(address,address,uint256)": "23b872dd"
				}
			},
			"storageLayout": {
				"storage": [
					{
						"astId": 73,
						"contract": "contracts/tokenICO.sol:CryptosICO",
						"label": "name",
						"offset": 0,
						"slot": "0",
						"type": "t_string_storage"
					},
					{
						"astId": 76,
						"contract": "contracts/tokenICO.sol:CryptosICO",
						"label": "symbol",
						"offset": 0,
						"slot": "1",
						"type": "t_string_storage"
					},
					{
						"astId": 79,
						"contract": "contracts/tokenICO.sol:CryptosICO",
						"label": "decimals",
						"offset": 0,
						"slot": "2",
						"type": "t_uint256"
					},
					{
						"astId": 82,
						"contract": "contracts/tokenICO.sol:CryptosICO",
						"label": "totalSupply",
						"offset": 0,
						"slot": "3",
						"type": "t_uint256"
					},
					{
						"astId": 84,
						"contract": "contracts/tokenICO.sol:CryptosICO",
						"label": "founder",
						"offset": 0,
						"slot": "4",
						"type": "t_address"
					},
					{
						"astId": 88,
						"contract": "contracts/tokenICO.sol:CryptosICO",
						"label": "balances",
						"offset": 0,
						"slot": "5",
						"type": "t_mapping(t_address,t_uint256)"
					},
					{
						"astId": 94,
						"contract": "contracts/tokenICO.sol:CryptosICO",
						"label": "allowed",
						"offset": 0,
						"slot": "6",
						"type": "t_mapping(t_address,t_mapping(t_address,t_uint256))"
					},
					{
						"astId": 287,
						"contract": "contracts/tokenICO.sol:CryptosICO",
						"label": "admin",
						"offset": 0,
						"slot": "7",
						"type": "t_address"
					},
					{
						"astId": 289,
						"contract": "contracts/tokenICO.sol:CryptosICO",
						"label": "deposit",
						"offset": 0,
						"slot": "8",
						"type": "t_address_payable"
					},
					{
						"astId": 292,
						"contract": "contracts/tokenICO.sol:CryptosICO",
						"label": "tokenPrice",
						"offset": 0,
						"slot": "9",
						"type": "t_uint256"
					},
					{
						"astId": 295,
						"contract": "contracts/tokenICO.sol:CryptosICO",
						"label": "hardCap",
						"offset": 0,
						"slot": "10",
						"type": "t_uint256"
					},
					{
						"astId": 297,
						"contract": "contracts/tokenICO.sol:CryptosICO",
						"label": "raisedAmount",
						"offset": 0,
						"slot": "11",
						"type": "t_uint256"
					},
					{
						"astId": 301,
						"contract": "contracts/tokenICO.sol:CryptosICO",
						"label": "saleStart",
						"offset": 0,
						"slot": "12",
						"type": "t_uint256"
					},
					{
						"astId": 307,
						"contract": "contracts/tokenICO.sol:CryptosICO",
						"label": "saleEnd",
						"offset": 0,
						"slot": "13",
						"type": "t_uint256"
					},
					{
						"astId": 310,
						"contract": "contracts/tokenICO.sol:CryptosICO",
						"label": "tokenContract",
						"offset": 0,
						"slot": "14",
						"type": "t_contract(ERC20Interface)68"
					},
					{
						"astId": 315,
						"contract": "contracts/tokenICO.sol:CryptosICO",
						"label": "tokenTradeStart",
						"offset": 0,
						"slot": "15",
						"type": "t_uint256"
					},
					{
						"astId": 318,
						"contract": "contracts/tokenICO.sol:CryptosICO",
						"label": "maxInvestment",
						"offset": 0,
						"slot": "16",
						"type": "t_uint256"
					},
					{
						"astId": 321,
						"contract": "contracts/tokenICO.sol:CryptosICO",
						"label": "minInvestment",
						"offset": 0,
						"slot": "17",
						"type": "t_uint256"
					},
					{
						"astId": 329,
						"contract": "contracts/tokenICO.sol:CryptosICO",
						"label": "icoState",
						"offset": 0,
						"slot": "18",
						"type": "t_enum(State)326"
					}
				],
				"types": {
					"t_address": {
						"encoding": "inplace",
						"label": "address",
						"numberOfBytes": "20"
					},
					"t_address_payable": {
						"encoding": "inplace",
						"label": "address payable",
						"numberOfBytes": "20"
					},
					"t_contract(ERC20Interface)68": {
						"encoding": "inplace",
						"label": "contract ERC20Interface",
						"numberOfBytes": "20"
					},
					"t_enum(State)326": {
						"encoding": "inplace",
						"label": "enum CryptosICO.State",
						"numberOfBytes": "1"
					},
					"t_mapping(t_address,t_mapping(t_address,t_uint256))": {
						"encoding": "mapping",
						"key": "t_address",
						"label": "mapping(address => mapping(address => uint256))",
						"numberOfBytes": "32",
						"value": "t_mapping(t_address,t_uint256)"
					},
					"t_mapping(t_address,t_uint256)": {
						"encoding": "mapping",
						"key": "t_address",
						"label": "mapping(address => uint256)",
						"numberOfBytes": "32",
						"value": "t_uint256"
					},
					"t_string_storage": {
						"encoding": "bytes",
						"label": "string",
						"numberOfBytes": "32"
					},
					"t_uint256": {
						"encoding": "inplace",
						"label": "uint256",
						"numberOfBytes": "32"
					}
				}
			},
			"userdoc": {
				"kind": "user",
				"methods": {},
				"version": 1
			}
		}
	}
}