{
	"contracts/tokenICO.sol": {
		"CryptosICO": {
			"abi": [
				{
					"inputs": [
						{
							"internalType": "address payable",
							"name": "_deposit",
							"type": "address"
						},
						{
							"internalType": "address",
							"name": "tokenAddress",
							"type": "address"
						}
					],
					"stateMutability": "nonpayable",
					"type": "constructor"
				},
				{
					"anonymous": false,
					"inputs": [
						{
							"indexed": true,
							"internalType": "address",
							"name": "tokenOwner",
							"type": "address"
						},
						{
							"indexed": true,
							"internalType": "address",
							"name": "spender",
							"type": "address"
						},
						{
							"indexed": false,
							"internalType": "uint256",
							"name": "tokens",
							"type": "uint256"
						}
					],
					"name": "Approval",
					"type": "event"
				},
				{
					"anonymous": false,
					"inputs": [
						{
							"indexed": false,
							"internalType": "address",
							"name": "investor",
							"type": "address"
						},
						{
							"indexed": false,
							"internalType": "uint256",
							"name": "value",
							"type": "uint256"
						},
						{
							"indexed": false,
							"internalType": "uint256",
							"name": "tokens",
							"type": "uint256"
						}
					],
					"name": "Invest",
					"type": "event"
				},
				{
					"anonymous": false,
					"inputs": [
						{
							"indexed": true,
							"internalType": "address",
							"name": "from",
							"type": "address"
						},
						{
							"indexed": true,
							"internalType": "address",
							"name": "to",
							"type": "address"
						},
						{
							"indexed": false,
							"internalType": "uint256",
							"name": "tokens",
							"type": "uint256"
						}
					],
					"name": "Transfer",
					"type": "event"
				},
				{
					"inputs": [],
					"name": "admin",
					"outputs": [
						{
							"internalType": "address",
							"name": "",
							"type": "address"
						}
					],
					"stateMutability": "view",
					"type": "function"
				},
				{
					"inputs": [
						{
							"internalType": "address",
							"name": "tokenOwner",
							"type": "address"
						},
						{
							"internalType": "address",
							"name": "spender",
							"type": "address"
						}
					],
					"name": "allowance",
					"outputs": [
						{
							"internalType": "uint256",
							"name": "",
							"type": "uint256"
						}
					],
					"stateMutability": "view",
					"type": "function"
				},
				{
					"inputs": [
						{
							"internalType": "address",
							"name": "spender",
							"type": "address"
						},
						{
							"internalType": "uint256",
							"name": "tokens",
							"type": "uint256"
						}
					],
					"name": "approve",
					"outputs": [
						{
							"internalType": "bool",
							"name": "success",
							"type": "bool"
						}
					],
					"stateMutability": "nonpayable",
					"type": "function"
				},
				{
					"inputs": [
						{
							"internalType": "address",
							"name": "tokenOwner",
							"type": "address"
						}
					],
					"name": "balanceOf",
					"outputs": [
						{
							"internalType": "uint256",
							"name": "balance",
							"type": "uint256"
						}
					],
					"stateMutability": "view",
					"type": "function"
				},
				{
					"inputs": [
						{
							"internalType": "address",
							"name": "",
							"type": "address"
						}
					],
					"name": "balances",
					"outputs": [
						{
							"internalType": "uint256",
							"name": "",
							"type": "uint256"
						}
					],
					"stateMutability": "view",
					"type": "function"
				},
				{
					"inputs": [],
					"name": "burn",
					"outputs": [
						{
							"internalType": "bool",
							"name": "",
							"type": "bool"
						}
					],
					"stateMutability": "nonpayable",
					"type": "function"
				},
				{
					"inputs": [
						{
							"internalType": "address payable",
							"name": "newDeposit",
							"type": "address"
						}
					],
					"name": "changeDepositAddress",
					"outputs": [],
					"stateMutability": "nonpayable",
					"type": "function"
				},
				{
					"inputs": [],
					"name": "decimals",
					"outputs": [
						{
							"internalType": "uint256",
							"name": "",
							"type": "uint256"
						}
					],
					"stateMutability": "view",
					"type": "function"
				},
				{
					"inputs": [],
					"name": "deposit",
					"outputs": [
						{
							"internalType": "address payable",
							"name": "",
							"type": "address"
						}
					],
					"stateMutability": "view",
					"type": "function"
				},
				{
					"inputs": [],
					"name": "endSale",
					"outputs": [],
					"stateMutability": "nonpayable",
					"type": "function"
				},
				{
					"inputs": [],
					"name": "founder",
					"outputs": [
						{
							"internalType": "address",
							"name": "",
							"type": "address"
						}
					],
					"stateMutability": "view",
					"type": "function"
				},
				{
					"inputs": [],
					"name": "getCurrentState",
					"outputs": [
						{
							"internalType": "enum CryptosICO.State",
							"name": "",
							"type": "uint8"
						}
					],
					"stateMutability": "view",
					"type": "function"
				},
				{
					"inputs": [],
					"name": "halt",
					"outputs": [],
					"stateMutability": "nonpayable",
					"type": "function"
				},
				{
					"inputs": [],
					"name": "hardCap",
					"outputs": [
						{
							"internalType": "uint256",
							"name": "",
							"type": "uint256"
						}
					],
					"stateMutability": "view",
					"type": "function"
				},
				{
					"inputs": [],
					"name": "icoState",
					"outputs": [
						{
							"internalType": "enum CryptosICO.State",
							"name": "",
							"type": "uint8"
						}
					],
					"stateMutability": "view",
					"type": "function"
				},
				{
					"inputs": [],
					"name": "invest",
					"outputs": [
						{
							"internalType": "bool",
							"name": "",
							"type": "bool"
						}
					],
					"stateMutability": "payable",
					"type": "function"
				},
				{
					"inputs": [],
					"name": "maxInvestment",
					"outputs": [
						{
							"internalType": "uint256",
							"name": "",
							"type": "uint256"
						}
					],
					"stateMutability": "view",
					"type": "function"
				},
				{
					"inputs": [],
					"name": "minInvestment",
					"outputs": [
						{
							"internalType": "uint256",
							"name": "",
							"type": "uint256"
						}
					],
					"stateMutability": "view",
					"type": "function"
				},
				{
					"inputs": [],
					"name": "name",
					"outputs": [
						{
							"internalType": "string",
							"name": "",
							"type": "string"
						}
					],
					"stateMutability": "view",
					"type": "function"
				},
				{
					"inputs": [],
					"name": "raisedAmount",
					"outputs": [
						{
							"internalType": "uint256",
							"name": "",
							"type": "uint256"
						}
					],
					"stateMutability": "view",
					"type": "function"
				},
				{
					"inputs": [],
					"name": "resume",
					"outputs": [],
					"stateMutability": "nonpayable",
					"type": "function"
				},
				{
					"inputs": [],
					"name": "saleEnd",
					"outputs": [
						{
							"internalType": "uint256",
							"name": "",
							"type": "uint256"
						}
					],
					"stateMutability": "view",
					"type": "function"
				},
				{
					"inputs": [],
					"name": "saleStart",
					"outputs": [
						{
							"internalType": "uint256",
							"name": "",
							"type": "uint256"
						}
					],
					"stateMutability": "view",
					"type": "function"
				},
				{
					"inputs": [],
					"name": "symbol",
					"outputs": [
						{
							"internalType": "string",
							"name": "",
							"type": "string"
						}
					],
					"stateMutability": "view",
					"type": "function"
				},
				{
					"inputs": [],
					"name": "tokenContract",
					"outputs": [
						{
							"internalType": "contract ERC20Interface",
							"name": "",
							"type": "address"
						}
					],
					"stateMutability": "view",
					"type": "function"
				},
				{
					"inputs": [],
					"name": "tokenTradeStart",
					"outputs": [
						{
							"internalType": "uint256",
							"name": "",
							"type": "uint256"
						}
					],
					"stateMutability": "view",
					"type": "function"
				},
				{
					"inputs": [],
					"name": "totalSupply",
					"outputs": [
						{
							"internalType": "uint256",
							"name": "",
							"type": "uint256"
						}
					],
					"stateMutability": "view",
					"type": "function"
				},
				{
					"inputs": [
						{
							"internalType": "address",
							"name": "to",
							"type": "address"
						},
						{
							"internalType": "uint256",
							"name": "tokens",
							"type": "uint256"
						}
					],
					"name": "transfer",
					"outputs": [
						{
							"internalType": "bool",
							"name": "success",
							"type": "bool"
						}
					],
					"stateMutability": "nonpayable",
					"type": "function"
				},
				{
					"inputs": [
						{
							"internalType": "address",
							"name": "from",
							"type": "address"
						},
						{
							"internalType": "address",
							"name": "to",
							"type": "address"
						},
						{
							"internalType": "uint256",
							"name": "tokens",
							"type": "uint256"
						}
					],
					"name": "transferFrom",
					"outputs": [
						{
							"internalType": "bool",
							"name": "success",
							"type": "bool"
						}
					],
					"stateMutability": "nonpayable",
					"type": "function"
				},
				{
					"stateMutability": "payable",
					"type": "receive"
				}
			],
			"devdoc": {
				"kind": "dev",
				"methods": {},
				"version": 1
			},
			"evm": {
				"assembly": "    /* \"contracts/tokenICO.sol\":3212:7647  contract CryptosICO is Cryptos {\r... */\n  mstore(0x40, 0x80)\n    /* \"contracts/tokenICO.sol\":1245:1282  string public name = \"Nations Combat\" */\n  mload(0x40)\n  dup1\n  0x40\n  add\n  0x40\n  mstore\n  dup1\n  0x0e\n  dup2\n  mstore\n  0x20\n  add\n  0x4e6174696f6e7320436f6d626174000000000000000000000000000000000000\n  dup2\n  mstore\n  pop\n  0x00\n  swap1\n  dup1\n  mload\n  swap1\n  0x20\n  add\n  swap1\n  tag_1\n  swap3\n  swap2\n  swap1\n  tag_2\n  jump\t// in\ntag_1:\n  pop\n    /* \"contracts/tokenICO.sol\":1289:1317  string public symbol = \"NCT\" */\n  mload(0x40)\n  dup1\n  0x40\n  add\n  0x40\n  mstore\n  dup1\n  0x03\n  dup2\n  mstore\n  0x20\n  add\n  0x4e43540000000000000000000000000000000000000000000000000000000000\n  dup2\n  mstore\n  pop\n  0x01\n  swap1\n  dup1\n  mload\n  swap1\n  0x20\n  add\n  swap1\n  tag_3\n  swap3\n  swap2\n  swap1\n  tag_2\n  jump\t// in\ntag_3:\n  pop\n    /* \"contracts/tokenICO.sol\":1350:1352  18 */\n  0x12\n    /* \"contracts/tokenICO.sol\":1324:1352  uint256 public decimals = 18 */\n  0x02\n  sstore\n    /* \"contracts/tokenICO.sol\":3335:3346  0.001 ether */\n  0x038d7ea4c68000\n    /* \"contracts/tokenICO.sol\":3314:3346  uint256 tokenPrice = 0.001 ether */\n  0x09\n  sstore\n    /* \"contracts/tokenICO.sol\":3415:3424  300 ether */\n  0x1043561a8829300000\n    /* \"contracts/tokenICO.sol\":3390:3424  uint256 public hardCap = 300 ether */\n  0x0a\n  sstore\n    /* \"contracts/tokenICO.sol\":3521:3536  block.timestamp */\n  timestamp\n    /* \"contracts/tokenICO.sol\":3494:3536  uint256 public saleStart = block.timestamp */\n  0x0c\n  sstore\n    /* \"contracts/tokenICO.sol\":3586:3592  604800 */\n  0x093a80\n    /* \"contracts/tokenICO.sol\":3568:3583  block.timestamp */\n  timestamp\n    /* \"contracts/tokenICO.sol\":3568:3592  block.timestamp + 604800 */\n  tag_4\n  swap2\n  swap1\n  tag_5\n  jump\t// in\ntag_4:\n    /* \"contracts/tokenICO.sol\":3543:3592  uint256 public saleEnd = block.timestamp + 604800 */\n  0x0d\n  sstore\n    /* \"contracts/tokenICO.sol\":3695:3701  604800 */\n  0x093a80\n    /* \"contracts/tokenICO.sol\":3685:3692  saleEnd */\n  sload(0x0d)\n    /* \"contracts/tokenICO.sol\":3685:3701  saleEnd + 604800 */\n  tag_6\n  swap2\n  swap1\n  tag_5\n  jump\t// in\ntag_6:\n    /* \"contracts/tokenICO.sol\":3652:3701  uint256 public tokenTradeStart = saleEnd + 604800 */\n  0x0f\n  sstore\n    /* \"contracts/tokenICO.sol\":3778:3785  5 ether */\n  0x4563918244f40000\n    /* \"contracts/tokenICO.sol\":3747:3785  uint256 public maxInvestment = 5 ether */\n  0x10\n  sstore\n    /* \"contracts/tokenICO.sol\":3823:3832  0.1 ether */\n  0x016345785d8a0000\n    /* \"contracts/tokenICO.sol\":3792:3832  uint256 public minInvestment = 0.1 ether */\n  0x11\n  sstore\n    /* \"contracts/tokenICO.sol\":3985:4205  constructor(address payable _deposit, address tokenAddress) {\r... */\n  callvalue\n  dup1\n  iszero\n  tag_7\n  jumpi\n  0x00\n  dup1\n  revert\ntag_7:\n  pop\n  mload(0x40)\n  sub(codesize, bytecodeSize)\n  dup1\n  bytecodeSize\n  dup4\n  codecopy\n  dup2\n  dup2\n  add\n  0x40\n  mstore\n  dup2\n  add\n  swap1\n  tag_8\n  swap2\n  swap1\n  tag_9\n  jump\t// in\ntag_8:\n    /* \"contracts/tokenICO.sol\":1661:1669  50000000 */\n  0x02faf080\n    /* \"contracts/tokenICO.sol\":1647:1658  totalSupply */\n  0x03\n    /* \"contracts/tokenICO.sol\":1647:1669  totalSupply = 50000000 */\n  dup2\n  swap1\n  sstore\n  pop\n    /* \"contracts/tokenICO.sol\":1690:1700  msg.sender */\n  caller\n    /* \"contracts/tokenICO.sol\":1680:1687  founder */\n  0x04\n  0x00\n    /* \"contracts/tokenICO.sol\":1680:1700  founder = msg.sender */\n  0x0100\n  exp\n  dup2\n  sload\n  dup2\n  0xffffffffffffffffffffffffffffffffffffffff\n  mul\n  not\n  and\n  swap1\n  dup4\n  0xffffffffffffffffffffffffffffffffffffffff\n  and\n  mul\n  or\n  swap1\n  sstore\n  pop\n    /* \"contracts/tokenICO.sol\":1731:1742  totalSupply */\n  sload(0x03)\n    /* \"contracts/tokenICO.sol\":1711:1719  balances */\n  0x05\n    /* \"contracts/tokenICO.sol\":1711:1728  balances[founder] */\n  0x00\n    /* \"contracts/tokenICO.sol\":1720:1727  founder */\n  0x04\n  0x00\n  swap1\n  sload\n  swap1\n  0x0100\n  exp\n  swap1\n  div\n  0xffffffffffffffffffffffffffffffffffffffff\n  and\n    /* \"contracts/tokenICO.sol\":1711:1728  balances[founder] */\n  0xffffffffffffffffffffffffffffffffffffffff\n  and\n  0xffffffffffffffffffffffffffffffffffffffff\n  and\n  dup2\n  mstore\n  0x20\n  add\n  swap1\n  dup2\n  mstore\n  0x20\n  add\n  0x00\n  keccak256\n    /* \"contracts/tokenICO.sol\":1711:1742  balances[founder] = totalSupply */\n  dup2\n  swap1\n  sstore\n  pop\n    /* \"contracts/tokenICO.sol\":4066:4074  _deposit */\n  dup2\n    /* \"contracts/tokenICO.sol\":4056:4063  deposit */\n  0x08\n  0x00\n    /* \"contracts/tokenICO.sol\":4056:4074  deposit = _deposit */\n  0x0100\n  exp\n  dup2\n  sload\n  dup2\n  0xffffffffffffffffffffffffffffffffffffffff\n  mul\n  not\n  and\n  swap1\n  dup4\n  0xffffffffffffffffffffffffffffffffffffffff\n  and\n  mul\n  or\n  swap1\n  sstore\n  pop\n    /* \"contracts/tokenICO.sol\":4093:4103  msg.sender */\n  caller\n    /* \"contracts/tokenICO.sol\":4085:4090  admin */\n  0x07\n  0x00\n    /* \"contracts/tokenICO.sol\":4085:4103  admin = msg.sender */\n  0x0100\n  exp\n  dup2\n  sload\n  dup2\n  0xffffffffffffffffffffffffffffffffffffffff\n  mul\n  not\n  and\n  swap1\n  dup4\n  0xffffffffffffffffffffffffffffffffffffffff\n  and\n  mul\n  or\n  swap1\n  sstore\n  pop\n    /* \"contracts/tokenICO.sol\":4125:4142  State.beforeStart */\n  0x00\n    /* \"contracts/tokenICO.sol\":4114:4122  icoState */\n  0x12\n  0x00\n    /* \"contracts/tokenICO.sol\":4114:4142  icoState = State.beforeStart */\n  0x0100\n  exp\n  dup2\n  sload\n  dup2\n  0xff\n  mul\n  not\n  and\n  swap1\n  dup4\n  0x03\n  dup2\n  gt\n  iszero\n  tag_14\n  jumpi\n  tag_15\n  tag_16\n  jump\t// in\ntag_15:\ntag_14:\n  mul\n  or\n  swap1\n  sstore\n  pop\n    /* \"contracts/tokenICO.sol\":4184:4196  tokenAddress */\n  dup1\n    /* \"contracts/tokenICO.sol\":4153:4166  tokenContract */\n  0x0e\n  0x00\n    /* \"contracts/tokenICO.sol\":4153:4197  tokenContract = ERC20Interface(tokenAddress) */\n  0x0100\n  exp\n  dup2\n  sload\n  dup2\n  0xffffffffffffffffffffffffffffffffffffffff\n  mul\n  not\n  and\n  swap1\n  dup4\n  0xffffffffffffffffffffffffffffffffffffffff\n  and\n  mul\n  or\n  swap1\n  sstore\n  pop\n    /* \"contracts/tokenICO.sol\":3985:4205  constructor(address payable _deposit, address tokenAddress) {\r... */\n  pop\n  pop\n    /* \"contracts/tokenICO.sol\":3212:7647  contract CryptosICO is Cryptos {\r... */\n  jump(tag_17)\ntag_2:\n  dup3\n  dup1\n  sload\n  tag_18\n  swap1\n  tag_19\n  jump\t// in\ntag_18:\n  swap1\n  0x00\n  mstore\n  keccak256(0x00, 0x20)\n  swap1\n  0x1f\n  add\n  0x20\n  swap1\n  div\n  dup2\n  add\n  swap3\n  dup3\n  tag_21\n  jumpi\n  0x00\n  dup6\n  sstore\n  jump(tag_20)\ntag_21:\n  dup3\n  0x1f\n  lt\n  tag_22\n  jumpi\n  dup1\n  mload\n  not(0xff)\n  and\n  dup4\n  dup1\n  add\n  or\n  dup6\n  sstore\n  jump(tag_20)\ntag_22:\n  dup3\n  dup1\n  add\n  0x01\n  add\n  dup6\n  sstore\n  dup3\n  iszero\n  tag_20\n  jumpi\n  swap2\n  dup3\n  add\ntag_23:\n  dup3\n  dup2\n  gt\n  iszero\n  tag_24\n  jumpi\n  dup3\n  mload\n  dup3\n  sstore\n  swap2\n  0x20\n  add\n  swap2\n  swap1\n  0x01\n  add\n  swap1\n  jump(tag_23)\ntag_24:\ntag_20:\n  pop\n  swap1\n  pop\n  tag_25\n  swap2\n  swap1\n  tag_26\n  jump\t// in\ntag_25:\n  pop\n  swap1\n  jump\t// out\ntag_26:\ntag_27:\n  dup1\n  dup3\n  gt\n  iszero\n  tag_28\n  jumpi\n  0x00\n  dup2\n  0x00\n  swap1\n  sstore\n  pop\n  0x01\n  add\n  jump(tag_27)\ntag_28:\n  pop\n  swap1\n  jump\t// out\n    /* \"#utility.yul\":7:150   */\ntag_30:\n    /* \"#utility.yul\":64:69   */\n  0x00\n    /* \"#utility.yul\":95:101   */\n  dup2\n    /* \"#utility.yul\":89:102   */\n  mload\n    /* \"#utility.yul\":80:102   */\n  swap1\n  pop\n    /* \"#utility.yul\":111:144   */\n  tag_32\n    /* \"#utility.yul\":138:143   */\n  dup2\n    /* \"#utility.yul\":111:144   */\n  tag_33\n  jump\t// in\ntag_32:\n    /* \"#utility.yul\":7:150   */\n  swap3\n  swap2\n  pop\n  pop\n  jump\t// out\n    /* \"#utility.yul\":156:315   */\ntag_34:\n    /* \"#utility.yul\":221:226   */\n  0x00\n    /* \"#utility.yul\":252:258   */\n  dup2\n    /* \"#utility.yul\":246:259   */\n  mload\n    /* \"#utility.yul\":237:259   */\n  swap1\n  pop\n    /* \"#utility.yul\":268:309   */\n  tag_36\n    /* \"#utility.yul\":303:308   */\n  dup2\n    /* \"#utility.yul\":268:309   */\n  tag_37\n  jump\t// in\ntag_36:\n    /* \"#utility.yul\":156:315   */\n  swap3\n  swap2\n  pop\n  pop\n  jump\t// out\n    /* \"#utility.yul\":321:844   */\ntag_9:\n    /* \"#utility.yul\":408:414   */\n  0x00\n    /* \"#utility.yul\":416:422   */\n  dup1\n    /* \"#utility.yul\":465:467   */\n  0x40\n    /* \"#utility.yul\":453:462   */\n  dup4\n    /* \"#utility.yul\":444:451   */\n  dup6\n    /* \"#utility.yul\":440:463   */\n  sub\n    /* \"#utility.yul\":436:468   */\n  slt\n    /* \"#utility.yul\":433:552   */\n  iszero\n  tag_39\n  jumpi\n    /* \"#utility.yul\":471:550   */\n  tag_40\n  tag_41\n  jump\t// in\ntag_40:\n    /* \"#utility.yul\":433:552   */\ntag_39:\n    /* \"#utility.yul\":591:592   */\n  0x00\n    /* \"#utility.yul\":616:688   */\n  tag_42\n    /* \"#utility.yul\":680:687   */\n  dup6\n    /* \"#utility.yul\":671:677   */\n  dup3\n    /* \"#utility.yul\":660:669   */\n  dup7\n    /* \"#utility.yul\":656:678   */\n  add\n    /* \"#utility.yul\":616:688   */\n  tag_34\n  jump\t// in\ntag_42:\n    /* \"#utility.yul\":606:688   */\n  swap3\n  pop\n    /* \"#utility.yul\":562:698   */\n  pop\n    /* \"#utility.yul\":737:739   */\n  0x20\n    /* \"#utility.yul\":763:827   */\n  tag_43\n    /* \"#utility.yul\":819:826   */\n  dup6\n    /* \"#utility.yul\":810:816   */\n  dup3\n    /* \"#utility.yul\":799:808   */\n  dup7\n    /* \"#utility.yul\":795:817   */\n  add\n    /* \"#utility.yul\":763:827   */\n  tag_30\n  jump\t// in\ntag_43:\n    /* \"#utility.yul\":753:827   */\n  swap2\n  pop\n    /* \"#utility.yul\":708:837   */\n  pop\n    /* \"#utility.yul\":321:844   */\n  swap3\n  pop\n  swap3\n  swap1\n  pop\n  jump\t// out\n    /* \"#utility.yul\":931:1236   */\ntag_5:\n    /* \"#utility.yul\":971:974   */\n  0x00\n    /* \"#utility.yul\":990:1010   */\n  tag_47\n    /* \"#utility.yul\":1008:1009   */\n  dup3\n    /* \"#utility.yul\":990:1010   */\n  tag_48\n  jump\t// in\ntag_47:\n    /* \"#utility.yul\":985:1010   */\n  swap2\n  pop\n    /* \"#utility.yul\":1024:1044   */\n  tag_49\n    /* \"#utility.yul\":1042:1043   */\n  dup4\n    /* \"#utility.yul\":1024:1044   */\n  tag_48\n  jump\t// in\ntag_49:\n    /* \"#utility.yul\":1019:1044   */\n  swap3\n  pop\n    /* \"#utility.yul\":1178:1179   */\n  dup3\n    /* \"#utility.yul\":1110:1176   */\n  0xffffffffffffffffffffffffffffffffffffffffffffffffffffffffffffffff\n    /* \"#utility.yul\":1106:1180   */\n  sub\n    /* \"#utility.yul\":1103:1104   */\n  dup3\n    /* \"#utility.yul\":1100:1181   */\n  gt\n    /* \"#utility.yul\":1097:1204   */\n  iszero\n  tag_50\n  jumpi\n    /* \"#utility.yul\":1184:1202   */\n  tag_51\n  tag_52\n  jump\t// in\ntag_51:\n    /* \"#utility.yul\":1097:1204   */\ntag_50:\n    /* \"#utility.yul\":1228:1229   */\n  dup3\n    /* \"#utility.yul\":1225:1226   */\n  dup3\n    /* \"#utility.yul\":1221:1230   */\n  add\n    /* \"#utility.yul\":1214:1230   */\n  swap1\n  pop\n    /* \"#utility.yul\":931:1236   */\n  swap3\n  swap2\n  pop\n  pop\n  jump\t// out\n    /* \"#utility.yul\":1242:1338   */\ntag_53:\n    /* \"#utility.yul\":1279:1286   */\n  0x00\n    /* \"#utility.yul\":1308:1332   */\n  tag_55\n    /* \"#utility.yul\":1326:1331   */\n  dup3\n    /* \"#utility.yul\":1308:1332   */\n  tag_56\n  jump\t// in\ntag_55:\n    /* \"#utility.yul\":1297:1332   */\n  swap1\n  pop\n    /* \"#utility.yul\":1242:1338   */\n  swap2\n  swap1\n  pop\n  jump\t// out\n    /* \"#utility.yul\":1344:1448   */\ntag_57:\n    /* \"#utility.yul\":1389:1396   */\n  0x00\n    /* \"#utility.yul\":1418:1442   */\n  tag_59\n    /* \"#utility.yul\":1436:1441   */\n  dup3\n    /* \"#utility.yul\":1418:1442   */\n  tag_56\n  jump\t// in\ntag_59:\n    /* \"#utility.yul\":1407:1442   */\n  swap1\n  pop\n    /* \"#utility.yul\":1344:1448   */\n  swap2\n  swap1\n  pop\n  jump\t// out\n    /* \"#utility.yul\":1454:1580   */\ntag_56:\n    /* \"#utility.yul\":1491:1498   */\n  0x00\n    /* \"#utility.yul\":1531:1573   */\n  0xffffffffffffffffffffffffffffffffffffffff\n    /* \"#utility.yul\":1524:1529   */\n  dup3\n    /* \"#utility.yul\":1520:1574   */\n  and\n    /* \"#utility.yul\":1509:1574   */\n  swap1\n  pop\n    /* \"#utility.yul\":1454:1580   */\n  swap2\n  swap1\n  pop\n  jump\t// out\n    /* \"#utility.yul\":1586:1663   */\ntag_48:\n    /* \"#utility.yul\":1623:1630   */\n  0x00\n    /* \"#utility.yul\":1652:1657   */\n  dup2\n    /* \"#utility.yul\":1641:1657   */\n  swap1\n  pop\n    /* \"#utility.yul\":1586:1663   */\n  swap2\n  swap1\n  pop\n  jump\t// out\n    /* \"#utility.yul\":1669:1989   */\ntag_19:\n    /* \"#utility.yul\":1713:1719   */\n  0x00\n    /* \"#utility.yul\":1750:1751   */\n  0x02\n    /* \"#utility.yul\":1744:1748   */\n  dup3\n    /* \"#utility.yul\":1740:1752   */\n  div\n    /* \"#utility.yul\":1730:1752   */\n  swap1\n  pop\n    /* \"#utility.yul\":1797:1798   */\n  0x01\n    /* \"#utility.yul\":1791:1795   */\n  dup3\n    /* \"#utility.yul\":1787:1799   */\n  and\n    /* \"#utility.yul\":1818:1836   */\n  dup1\n    /* \"#utility.yul\":1808:1889   */\n  tag_63\n  jumpi\n    /* \"#utility.yul\":1874:1878   */\n  0x7f\n    /* \"#utility.yul\":1866:1872   */\n  dup3\n    /* \"#utility.yul\":1862:1879   */\n  and\n    /* \"#utility.yul\":1852:1879   */\n  swap2\n  pop\n    /* \"#utility.yul\":1808:1889   */\ntag_63:\n    /* \"#utility.yul\":1936:1938   */\n  0x20\n    /* \"#utility.yul\":1928:1934   */\n  dup3\n    /* \"#utility.yul\":1925:1939   */\n  lt\n    /* \"#utility.yul\":1905:1923   */\n  dup2\n    /* \"#utility.yul\":1902:1940   */\n  eq\n    /* \"#utility.yul\":1899:1983   */\n  iszero\n  tag_64\n  jumpi\n    /* \"#utility.yul\":1955:1973   */\n  tag_65\n  tag_66\n  jump\t// in\ntag_65:\n    /* \"#utility.yul\":1899:1983   */\ntag_64:\n    /* \"#utility.yul\":1720:1989   */\n  pop\n    /* \"#utility.yul\":1669:1989   */\n  swap2\n  swap1\n  pop\n  jump\t// out\n    /* \"#utility.yul\":1995:2175   */\ntag_52:\n    /* \"#utility.yul\":2043:2120   */\n  0x4e487b7100000000000000000000000000000000000000000000000000000000\n    /* \"#utility.yul\":2040:2041   */\n  0x00\n    /* \"#utility.yul\":2033:2121   */\n  mstore\n    /* \"#utility.yul\":2140:2144   */\n  0x11\n    /* \"#utility.yul\":2137:2138   */\n  0x04\n    /* \"#utility.yul\":2130:2145   */\n  mstore\n    /* \"#utility.yul\":2164:2168   */\n  0x24\n    /* \"#utility.yul\":2161:2162   */\n  0x00\n    /* \"#utility.yul\":2154:2169   */\n  revert\n    /* \"#utility.yul\":2181:2361   */\ntag_16:\n    /* \"#utility.yul\":2229:2306   */\n  0x4e487b7100000000000000000000000000000000000000000000000000000000\n    /* \"#utility.yul\":2226:2227   */\n  0x00\n    /* \"#utility.yul\":2219:2307   */\n  mstore\n    /* \"#utility.yul\":2326:2330   */\n  0x21\n    /* \"#utility.yul\":2323:2324   */\n  0x04\n    /* \"#utility.yul\":2316:2331   */\n  mstore\n    /* \"#utility.yul\":2350:2354   */\n  0x24\n    /* \"#utility.yul\":2347:2348   */\n  0x00\n    /* \"#utility.yul\":2340:2355   */\n  revert\n    /* \"#utility.yul\":2367:2547   */\ntag_66:\n    /* \"#utility.yul\":2415:2492   */\n  0x4e487b7100000000000000000000000000000000000000000000000000000000\n    /* \"#utility.yul\":2412:2413   */\n  0x00\n    /* \"#utility.yul\":2405:2493   */\n  mstore\n    /* \"#utility.yul\":2512:2516   */\n  0x22\n    /* \"#utility.yul\":2509:2510   */\n  0x04\n    /* \"#utility.yul\":2502:2517   */\n  mstore\n    /* \"#utility.yul\":2536:2540   */\n  0x24\n    /* \"#utility.yul\":2533:2534   */\n  0x00\n    /* \"#utility.yul\":2526:2541   */\n  revert\n    /* \"#utility.yul\":2676:2793   */\ntag_41:\n    /* \"#utility.yul\":2785:2786   */\n  0x00\n    /* \"#utility.yul\":2782:2783   */\n  dup1\n    /* \"#utility.yul\":2775:2787   */\n  revert\n    /* \"#utility.yul\":2799:2921   */\ntag_33:\n    /* \"#utility.yul\":2872:2896   */\n  tag_74\n    /* \"#utility.yul\":2890:2895   */\n  dup2\n    /* \"#utility.yul\":2872:2896   */\n  tag_53\n  jump\t// in\ntag_74:\n    /* \"#utility.yul\":2865:2870   */\n  dup2\n    /* \"#utility.yul\":2862:2897   */\n  eq\n    /* \"#utility.yul\":2852:2915   */\n  tag_75\n  jumpi\n    /* \"#utility.yul\":2911:2912   */\n  0x00\n    /* \"#utility.yul\":2908:2909   */\n  dup1\n    /* \"#utility.yul\":2901:2913   */\n  revert\n    /* \"#utility.yul\":2852:2915   */\ntag_75:\n    /* \"#utility.yul\":2799:2921   */\n  pop\n  jump\t// out\n    /* \"#utility.yul\":2927:3065   */\ntag_37:\n    /* \"#utility.yul\":3008:3040   */\n  tag_77\n    /* \"#utility.yul\":3034:3039   */\n  dup2\n    /* \"#utility.yul\":3008:3040   */\n  tag_57\n  jump\t// in\ntag_77:\n    /* \"#utility.yul\":3001:3006   */\n  dup2\n    /* \"#utility.yul\":2998:3041   */\n  eq\n    /* \"#utility.yul\":2988:3059   */\n  tag_78\n  jumpi\n    /* \"#utility.yul\":3055:3056   */\n  0x00\n    /* \"#utility.yul\":3052:3053   */\n  dup1\n    /* \"#utility.yul\":3045:3057   */\n  revert\n    /* \"#utility.yul\":2988:3059   */\ntag_78:\n    /* \"#utility.yul\":2927:3065   */\n  pop\n  jump\t// out\n    /* \"contracts/tokenICO.sol\":3212:7647  contract CryptosICO is Cryptos {\r... */\ntag_17:\n  dataSize(sub_0)\n  dup1\n  dataOffset(sub_0)\n  0x00\n  codecopy\n  0x00\n  return\nstop\n\nsub_0: assembly {\n        /* \"contracts/tokenICO.sol\":3212:7647  contract CryptosICO is Cryptos {\r... */\n      mstore(0x40, 0x80)\n      jumpi(tag_1, lt(calldatasize, 0x04))\n      shr(0xe0, calldataload(0x00))\n      dup1\n      0x5ed7ca5b\n      gt\n      tag_32\n      jumpi\n      dup1\n      0xc10b9358\n      gt\n      tag_33\n      jumpi\n      dup1\n      0xdd62ed3e\n      gt\n      tag_34\n      jumpi\n      dup1\n      0xdd62ed3e\n      eq\n      tag_28\n      jumpi\n      dup1\n      0xe8b5e51f\n      eq\n      tag_29\n      jumpi\n      dup1\n      0xf851a440\n      eq\n      tag_30\n      jumpi\n      dup1\n      0xfb86a404\n      eq\n      tag_31\n      jumpi\n      jump(tag_2)\n    tag_34:\n      dup1\n      0xc10b9358\n      eq\n      tag_24\n      jumpi\n      dup1\n      0xc59ee1dc\n      eq\n      tag_25\n      jumpi\n      dup1\n      0xcc9ba583\n      eq\n      tag_26\n      jumpi\n      dup1\n      0xd0e30db0\n      eq\n      tag_27\n      jumpi\n      jump(tag_2)\n    tag_33:\n      dup1\n      0x8ac2c680\n      gt\n      tag_35\n      jumpi\n      dup1\n      0x8ac2c680\n      eq\n      tag_20\n      jumpi\n      dup1\n      0x95d89b41\n      eq\n      tag_21\n      jumpi\n      dup1\n      0xa9059cbb\n      eq\n      tag_22\n      jumpi\n      dup1\n      0xab0bcc41\n      eq\n      tag_23\n      jumpi\n      jump(tag_2)\n    tag_35:\n      dup1\n      0x5ed7ca5b\n      eq\n      tag_17\n      jumpi\n      dup1\n      0x6d58c88f\n      eq\n      tag_18\n      jumpi\n      dup1\n      0x70a08231\n      eq\n      tag_19\n      jumpi\n      jump(tag_2)\n    tag_32:\n      dup1\n      0x313ce567\n      gt\n      tag_36\n      jumpi\n      dup1\n      0x44df8e70\n      gt\n      tag_37\n      jumpi\n      dup1\n      0x44df8e70\n      eq\n      tag_13\n      jumpi\n      dup1\n      0x44f38756\n      eq\n      tag_14\n      jumpi\n      dup1\n      0x4d853ee5\n      eq\n      tag_15\n      jumpi\n      dup1\n      0x55a373d6\n      eq\n      tag_16\n      jumpi\n      jump(tag_2)\n    tag_37:\n      dup1\n      0x313ce567\n      eq\n      tag_10\n      jumpi\n      dup1\n      0x378aa701\n      eq\n      tag_11\n      jumpi\n      dup1\n      0x380d831b\n      eq\n      tag_12\n      jumpi\n      jump(tag_2)\n    tag_36:\n      dup1\n      0x095ea7b3\n      gt\n      tag_38\n      jumpi\n      dup1\n      0x095ea7b3\n      eq\n      tag_6\n      jumpi\n      dup1\n      0x18160ddd\n      eq\n      tag_7\n      jumpi\n      dup1\n      0x23b872dd\n      eq\n      tag_8\n      jumpi\n      dup1\n      0x27e235e3\n      eq\n      tag_9\n      jumpi\n      jump(tag_2)\n    tag_38:\n      dup1\n      0x2e1316\n      eq\n      tag_3\n      jumpi\n      dup1\n      0x046f7da2\n      eq\n      tag_4\n      jumpi\n      dup1\n      0x06fdde03\n      eq\n      tag_5\n      jumpi\n      jump(tag_2)\n    tag_1:\n      jumpi(tag_2, calldatasize)\n        /* \"contracts/tokenICO.sol\":6061:6069  invest() */\n      tag_41\n        /* \"contracts/tokenICO.sol\":6061:6067  invest */\n      tag_42\n        /* \"contracts/tokenICO.sol\":6061:6069  invest() */\n      jump\t// in\n    tag_41:\n      pop\n        /* \"contracts/tokenICO.sol\":3212:7647  contract CryptosICO is Cryptos {\r... */\n      stop\n    tag_2:\n      0x00\n      dup1\n      revert\n        /* \"contracts/tokenICO.sol\":3747:3785  uint256 public maxInvestment = 5 ether */\n    tag_3:\n      callvalue\n      dup1\n      iszero\n      tag_43\n      jumpi\n      0x00\n      dup1\n      revert\n    tag_43:\n      pop\n      tag_44\n      tag_45\n      jump\t// in\n    tag_44:\n      mload(0x40)\n      tag_46\n      swap2\n      swap1\n      tag_47\n      jump\t// in\n    tag_46:\n      mload(0x40)\n      dup1\n      swap2\n      sub\n      swap1\n      return\n        /* \"contracts/tokenICO.sol\":4407:4485  function resume() public onlyAdmin {\r... */\n    tag_4:\n      callvalue\n      dup1\n      iszero\n      tag_48\n      jumpi\n      0x00\n      dup1\n      revert\n    tag_48:\n      pop\n      tag_49\n      tag_50\n      jump\t// in\n    tag_49:\n      stop\n        /* \"contracts/tokenICO.sol\":1245:1282  string public name = \"Nations Combat\" */\n    tag_5:\n      callvalue\n      dup1\n      iszero\n      tag_51\n      jumpi\n      0x00\n      dup1\n      revert\n    tag_51:\n      pop\n      tag_52\n      tag_53\n      jump\t// in\n    tag_52:\n      mload(0x40)\n      tag_54\n      swap2\n      swap1\n      tag_55\n      jump\t// in\n    tag_54:\n      mload(0x40)\n      dup1\n      swap2\n      sub\n      swap1\n      return\n        /* \"contracts/tokenICO.sol\":2485:2821  function approve(address spender, uint256 tokens)\r... */\n    tag_6:\n      callvalue\n      dup1\n      iszero\n      tag_56\n      jumpi\n      0x00\n      dup1\n      revert\n    tag_56:\n      pop\n      tag_57\n      0x04\n      dup1\n      calldatasize\n      sub\n      dup2\n      add\n      swap1\n      tag_58\n      swap2\n      swap1\n      tag_59\n      jump\t// in\n    tag_58:\n      tag_60\n      jump\t// in\n    tag_57:\n      mload(0x40)\n      tag_61\n      swap2\n      swap1\n      tag_62\n      jump\t// in\n    tag_61:\n      mload(0x40)\n      dup1\n      swap2\n      sub\n      swap1\n      return\n        /* \"contracts/tokenICO.sol\":1359:1394  uint256 public override totalSupply */\n    tag_7:\n      callvalue\n      dup1\n      iszero\n      tag_63\n      jumpi\n      0x00\n      dup1\n      revert\n    tag_63:\n      pop\n      tag_64\n      tag_65\n      jump\t// in\n    tag_64:\n      mload(0x40)\n      tag_66\n      swap2\n      swap1\n      tag_47\n      jump\t// in\n    tag_66:\n      mload(0x40)\n      dup1\n      swap2\n      sub\n      swap1\n      return\n        /* \"contracts/tokenICO.sol\":7269:7644  function transferFrom(\r... */\n    tag_8:\n      callvalue\n      dup1\n      iszero\n      tag_67\n      jumpi\n      0x00\n      dup1\n      revert\n    tag_67:\n      pop\n      tag_68\n      0x04\n      dup1\n      calldatasize\n      sub\n      dup2\n      add\n      swap1\n      tag_69\n      swap2\n      swap1\n      tag_70\n      jump\t// in\n    tag_69:\n      tag_71\n      jump\t// in\n    tag_68:\n      mload(0x40)\n      tag_72\n      swap2\n      swap1\n      tag_62\n      jump\t// in\n    tag_72:\n      mload(0x40)\n      dup1\n      swap2\n      sub\n      swap1\n      return\n        /* \"contracts/tokenICO.sol\":1432:1475  mapping(address => uint256) public balances */\n    tag_9:\n      callvalue\n      dup1\n      iszero\n      tag_73\n      jumpi\n      0x00\n      dup1\n      revert\n    tag_73:\n      pop\n      tag_74\n      0x04\n      dup1\n      calldatasize\n      sub\n      dup2\n      add\n      swap1\n      tag_75\n      swap2\n      swap1\n      tag_76\n      jump\t// in\n    tag_75:\n      tag_77\n      jump\t// in\n    tag_74:\n      mload(0x40)\n      tag_78\n      swap2\n      swap1\n      tag_47\n      jump\t// in\n    tag_78:\n      mload(0x40)\n      dup1\n      swap2\n      sub\n      swap1\n      return\n        /* \"contracts/tokenICO.sol\":1324:1352  uint256 public decimals = 18 */\n    tag_10:\n      callvalue\n      dup1\n      iszero\n      tag_79\n      jumpi\n      0x00\n      dup1\n      revert\n    tag_79:\n      pop\n      tag_80\n      tag_81\n      jump\t// in\n    tag_80:\n      mload(0x40)\n      tag_82\n      swap2\n      swap1\n      tag_47\n      jump\t// in\n    tag_82:\n      mload(0x40)\n      dup1\n      swap2\n      sub\n      swap1\n      return\n        /* \"contracts/tokenICO.sol\":4615:5025  function getCurrentState() public view returns (State) {\r... */\n    tag_11:\n      callvalue\n      dup1\n      iszero\n      tag_83\n      jumpi\n      0x00\n      dup1\n      revert\n    tag_83:\n      pop\n      tag_84\n      tag_85\n      jump\t// in\n    tag_84:\n      mload(0x40)\n      tag_86\n      swap2\n      swap1\n      tag_87\n      jump\t// in\n    tag_86:\n      mload(0x40)\n      dup1\n      swap2\n      sub\n      swap1\n      return\n        /* \"contracts/tokenICO.sol\":6860:7261  function endSale() public {\r... */\n    tag_12:\n      callvalue\n      dup1\n      iszero\n      tag_88\n      jumpi\n      0x00\n      dup1\n      revert\n    tag_88:\n      pop\n      tag_89\n      tag_90\n      jump\t// in\n    tag_89:\n      stop\n        /* \"contracts/tokenICO.sol\":6115:6300  function burn() public returns (bool) {\r... */\n    tag_13:\n      callvalue\n      dup1\n      iszero\n      tag_91\n      jumpi\n      0x00\n      dup1\n      revert\n    tag_91:\n      pop\n      tag_92\n      tag_93\n      jump\t// in\n    tag_92:\n      mload(0x40)\n      tag_94\n      swap2\n      swap1\n      tag_62\n      jump\t// in\n    tag_94:\n      mload(0x40)\n      dup1\n      swap2\n      sub\n      swap1\n      return\n        /* \"contracts/tokenICO.sol\":3955:3976  State public icoState */\n    tag_14:\n      callvalue\n      dup1\n      iszero\n      tag_95\n      jumpi\n      0x00\n      dup1\n      revert\n    tag_95:\n      pop\n      tag_96\n      tag_97\n      jump\t// in\n    tag_96:\n      mload(0x40)\n      tag_98\n      swap2\n      swap1\n      tag_87\n      jump\t// in\n    tag_98:\n      mload(0x40)\n      dup1\n      swap2\n      sub\n      swap1\n      return\n        /* \"contracts/tokenICO.sol\":1403:1425  address public founder */\n    tag_15:\n      callvalue\n      dup1\n      iszero\n      tag_99\n      jumpi\n      0x00\n      dup1\n      revert\n    tag_99:\n      pop\n      tag_100\n      tag_101\n      jump\t// in\n    tag_100:\n      mload(0x40)\n      tag_102\n      swap2\n      swap1\n      tag_103\n      jump\t// in\n    tag_102:\n      mload(0x40)\n      dup1\n      swap2\n      sub\n      swap1\n      return\n        /* \"contracts/tokenICO.sol\":3610:3645  ERC20Interface public tokenContract */\n    tag_16:\n      callvalue\n      dup1\n      iszero\n      tag_104\n      jumpi\n      0x00\n      dup1\n      revert\n    tag_104:\n      pop\n      tag_105\n      tag_106\n      jump\t// in\n    tag_105:\n      mload(0x40)\n      tag_107\n      swap2\n      swap1\n      tag_108\n      jump\t// in\n    tag_107:\n      mload(0x40)\n      dup1\n      swap2\n      sub\n      swap1\n      return\n        /* \"contracts/tokenICO.sol\":4324:4399  function halt() public onlyAdmin {\r... */\n    tag_17:\n      callvalue\n      dup1\n      iszero\n      tag_109\n      jumpi\n      0x00\n      dup1\n      revert\n    tag_109:\n      pop\n      tag_110\n      tag_111\n      jump\t// in\n    tag_110:\n      stop\n        /* \"contracts/tokenICO.sol\":4493:4607  function changeDepositAddress(address payable newDeposit) public onlyAdmin {\r... */\n    tag_18:\n      callvalue\n      dup1\n      iszero\n      tag_112\n      jumpi\n      0x00\n      dup1\n      revert\n    tag_112:\n      pop\n      tag_113\n      0x04\n      dup1\n      calldatasize\n      sub\n      dup2\n      add\n      swap1\n      tag_114\n      swap2\n      swap1\n      tag_115\n      jump\t// in\n    tag_114:\n      tag_116\n      jump\t// in\n    tag_113:\n      stop\n        /* \"contracts/tokenICO.sol\":1758:1931  function balanceOf(address tokenOwner)\r... */\n    tag_19:\n      callvalue\n      dup1\n      iszero\n      tag_117\n      jumpi\n      0x00\n      dup1\n      revert\n    tag_117:\n      pop\n      tag_118\n      0x04\n      dup1\n      calldatasize\n      sub\n      dup2\n      add\n      swap1\n      tag_119\n      swap2\n      swap1\n      tag_76\n      jump\t// in\n    tag_119:\n      tag_120\n      jump\t// in\n    tag_118:\n      mload(0x40)\n      tag_121\n      swap2\n      swap1\n      tag_47\n      jump\t// in\n    tag_121:\n      mload(0x40)\n      dup1\n      swap2\n      sub\n      swap1\n      return\n        /* \"contracts/tokenICO.sol\":3792:3832  uint256 public minInvestment = 0.1 ether */\n    tag_20:\n      callvalue\n      dup1\n      iszero\n      tag_122\n      jumpi\n      0x00\n      dup1\n      revert\n    tag_122:\n      pop\n      tag_123\n      tag_124\n      jump\t// in\n    tag_123:\n      mload(0x40)\n      tag_125\n      swap2\n      swap1\n      tag_47\n      jump\t// in\n    tag_125:\n      mload(0x40)\n      dup1\n      swap2\n      sub\n      swap1\n      return\n        /* \"contracts/tokenICO.sol\":1289:1317  string public symbol = \"NCT\" */\n    tag_21:\n      callvalue\n      dup1\n      iszero\n      tag_126\n      jumpi\n      0x00\n      dup1\n      revert\n    tag_126:\n      pop\n      tag_127\n      tag_128\n      jump\t// in\n    tag_127:\n      mload(0x40)\n      tag_129\n      swap2\n      swap1\n      tag_55\n      jump\t// in\n    tag_129:\n      mload(0x40)\n      dup1\n      swap2\n      sub\n      swap1\n      return\n        /* \"contracts/tokenICO.sol\":6448:6852  function transfer(address to, uint256 tokens)\r... */\n    tag_22:\n      callvalue\n      dup1\n      iszero\n      tag_130\n      jumpi\n      0x00\n      dup1\n      revert\n    tag_130:\n      pop\n      tag_131\n      0x04\n      dup1\n      calldatasize\n      sub\n      dup2\n      add\n      swap1\n      tag_132\n      swap2\n      swap1\n      tag_59\n      jump\t// in\n    tag_132:\n      tag_133\n      jump\t// in\n    tag_131:\n      mload(0x40)\n      tag_134\n      swap2\n      swap1\n      tag_62\n      jump\t// in\n    tag_134:\n      mload(0x40)\n      dup1\n      swap2\n      sub\n      swap1\n      return\n        /* \"contracts/tokenICO.sol\":3494:3536  uint256 public saleStart = block.timestamp */\n    tag_23:\n      callvalue\n      dup1\n      iszero\n      tag_135\n      jumpi\n      0x00\n      dup1\n      revert\n    tag_135:\n      pop\n      tag_136\n      tag_137\n      jump\t// in\n    tag_136:\n      mload(0x40)\n      tag_138\n      swap2\n      swap1\n      tag_47\n      jump\t// in\n    tag_138:\n      mload(0x40)\n      dup1\n      swap2\n      sub\n      swap1\n      return\n        /* \"contracts/tokenICO.sol\":3543:3592  uint256 public saleEnd = block.timestamp + 604800 */\n    tag_24:\n      callvalue\n      dup1\n      iszero\n      tag_139\n      jumpi\n      0x00\n      dup1\n      revert\n    tag_139:\n      pop\n      tag_140\n      tag_141\n      jump\t// in\n    tag_140:\n      mload(0x40)\n      tag_142\n      swap2\n      swap1\n      tag_47\n      jump\t// in\n    tag_142:\n      mload(0x40)\n      dup1\n      swap2\n      sub\n      swap1\n      return\n        /* \"contracts/tokenICO.sol\":3431:3458  uint256 public raisedAmount */\n    tag_25:\n      callvalue\n      dup1\n      iszero\n      tag_143\n      jumpi\n      0x00\n      dup1\n      revert\n    tag_143:\n      pop\n      tag_144\n      tag_145\n      jump\t// in\n    tag_144:\n      mload(0x40)\n      tag_146\n      swap2\n      swap1\n      tag_47\n      jump\t// in\n    tag_146:\n      mload(0x40)\n      dup1\n      swap2\n      sub\n      swap1\n      return\n        /* \"contracts/tokenICO.sol\":3652:3701  uint256 public tokenTradeStart = saleEnd + 604800 */\n    tag_26:\n      callvalue\n      dup1\n      iszero\n      tag_147\n      jumpi\n      0x00\n      dup1\n      revert\n    tag_147:\n      pop\n      tag_148\n      tag_149\n      jump\t// in\n    tag_148:\n      mload(0x40)\n      tag_150\n      swap2\n      swap1\n      tag_47\n      jump\t// in\n    tag_150:\n      mload(0x40)\n      dup1\n      swap2\n      sub\n      swap1\n      return\n        /* \"contracts/tokenICO.sol\":3277:3307  address payable public deposit */\n    tag_27:\n      callvalue\n      dup1\n      iszero\n      tag_151\n      jumpi\n      0x00\n      dup1\n      revert\n    tag_151:\n      pop\n      tag_152\n      tag_153\n      jump\t// in\n    tag_152:\n      mload(0x40)\n      tag_154\n      swap2\n      swap1\n      tag_155\n      jump\t// in\n    tag_154:\n      mload(0x40)\n      dup1\n      swap2\n      sub\n      swap1\n      return\n        /* \"contracts/tokenICO.sol\":2287:2477  function allowance(address tokenOwner, address spender)\r... */\n    tag_28:\n      callvalue\n      dup1\n      iszero\n      tag_156\n      jumpi\n      0x00\n      dup1\n      revert\n    tag_156:\n      pop\n      tag_157\n      0x04\n      dup1\n      calldatasize\n      sub\n      dup2\n      add\n      swap1\n      tag_158\n      swap2\n      swap1\n      tag_159\n      jump\t// in\n    tag_158:\n      tag_160\n      jump\t// in\n    tag_157:\n      mload(0x40)\n      tag_161\n      swap2\n      swap1\n      tag_47\n      jump\t// in\n    tag_161:\n      mload(0x40)\n      dup1\n      swap2\n      sub\n      swap1\n      return\n        /* \"contracts/tokenICO.sol\":5160:5920  function invest() public payable returns (bool) {\r... */\n    tag_29:\n      tag_162\n      tag_42\n      jump\t// in\n    tag_162:\n      mload(0x40)\n      tag_163\n      swap2\n      swap1\n      tag_62\n      jump\t// in\n    tag_163:\n      mload(0x40)\n      dup1\n      swap2\n      sub\n      swap1\n      return\n        /* \"contracts/tokenICO.sol\":3250:3270  address public admin */\n    tag_30:\n      callvalue\n      dup1\n      iszero\n      tag_164\n      jumpi\n      0x00\n      dup1\n      revert\n    tag_164:\n      pop\n      tag_165\n      tag_166\n      jump\t// in\n    tag_165:\n      mload(0x40)\n      tag_167\n      swap2\n      swap1\n      tag_103\n      jump\t// in\n    tag_167:\n      mload(0x40)\n      dup1\n      swap2\n      sub\n      swap1\n      return\n        /* \"contracts/tokenICO.sol\":3390:3424  uint256 public hardCap = 300 ether */\n    tag_31:\n      callvalue\n      dup1\n      iszero\n      tag_168\n      jumpi\n      0x00\n      dup1\n      revert\n    tag_168:\n      pop\n      tag_169\n      tag_170\n      jump\t// in\n    tag_169:\n      mload(0x40)\n      tag_171\n      swap2\n      swap1\n      tag_47\n      jump\t// in\n    tag_171:\n      mload(0x40)\n      dup1\n      swap2\n      sub\n      swap1\n      return\n        /* \"contracts/tokenICO.sol\":5160:5920  function invest() public payable returns (bool) {\r... */\n    tag_42:\n        /* \"contracts/tokenICO.sol\":5202:5206  bool */\n      0x00\n        /* \"contracts/tokenICO.sol\":5230:5247  getCurrentState() */\n      tag_173\n        /* \"contracts/tokenICO.sol\":5230:5245  getCurrentState */\n      tag_85\n        /* \"contracts/tokenICO.sol\":5230:5247  getCurrentState() */\n      jump\t// in\n    tag_173:\n        /* \"contracts/tokenICO.sol\":5219:5227  icoState */\n      0x12\n      0x00\n        /* \"contracts/tokenICO.sol\":5219:5247  icoState = getCurrentState() */\n      0x0100\n      exp\n      dup2\n      sload\n      dup2\n      0xff\n      mul\n      not\n      and\n      swap1\n      dup4\n      0x03\n      dup2\n      gt\n      iszero\n      tag_174\n      jumpi\n      tag_175\n      tag_176\n      jump\t// in\n    tag_175:\n    tag_174:\n      mul\n      or\n      swap1\n      sstore\n      pop\n        /* \"contracts/tokenICO.sol\":5278:5291  State.running */\n      0x01\n        /* \"contracts/tokenICO.sol\":5266:5291  icoState == State.running */\n      0x03\n      dup2\n      gt\n      iszero\n      tag_177\n      jumpi\n      tag_178\n      tag_176\n      jump\t// in\n    tag_178:\n    tag_177:\n        /* \"contracts/tokenICO.sol\":5266:5274  icoState */\n      0x12\n      0x00\n      swap1\n      sload\n      swap1\n      0x0100\n      exp\n      swap1\n      div\n      0xff\n      and\n        /* \"contracts/tokenICO.sol\":5266:5291  icoState == State.running */\n      0x03\n      dup2\n      gt\n      iszero\n      tag_179\n      jumpi\n      tag_180\n      tag_176\n      jump\t// in\n    tag_180:\n    tag_179:\n      eq\n        /* \"contracts/tokenICO.sol\":5258:5292  require(icoState == State.running) */\n      tag_181\n      jumpi\n      0x00\n      dup1\n      revert\n    tag_181:\n        /* \"contracts/tokenICO.sol\":5324:5337  minInvestment */\n      sload(0x11)\n        /* \"contracts/tokenICO.sol\":5311:5320  msg.value */\n      callvalue\n        /* \"contracts/tokenICO.sol\":5311:5337  msg.value >= minInvestment */\n      lt\n      iszero\n        /* \"contracts/tokenICO.sol\":5311:5367  msg.value >= minInvestment && msg.value <= maxInvestment */\n      dup1\n      iszero\n      tag_182\n      jumpi\n      pop\n        /* \"contracts/tokenICO.sol\":5354:5367  maxInvestment */\n      sload(0x10)\n        /* \"contracts/tokenICO.sol\":5341:5350  msg.value */\n      callvalue\n        /* \"contracts/tokenICO.sol\":5341:5367  msg.value <= maxInvestment */\n      gt\n      iszero\n        /* \"contracts/tokenICO.sol\":5311:5367  msg.value >= minInvestment && msg.value <= maxInvestment */\n    tag_182:\n        /* \"contracts/tokenICO.sol\":5303:5368  require(msg.value >= minInvestment && msg.value <= maxInvestment) */\n      tag_183\n      jumpi\n      0x00\n      dup1\n      revert\n    tag_183:\n        /* \"contracts/tokenICO.sol\":5397:5406  msg.value */\n      callvalue\n        /* \"contracts/tokenICO.sol\":5381:5393  raisedAmount */\n      0x0b\n      0x00\n        /* \"contracts/tokenICO.sol\":5381:5406  raisedAmount += msg.value */\n      dup3\n      dup3\n      sload\n      tag_184\n      swap2\n      swap1\n      tag_185\n      jump\t// in\n    tag_184:\n      swap3\n      pop\n      pop\n      dup2\n      swap1\n      sstore\n      pop\n        /* \"contracts/tokenICO.sol\":5441:5448  hardCap */\n      sload(0x0a)\n        /* \"contracts/tokenICO.sol\":5425:5437  raisedAmount */\n      sload(0x0b)\n        /* \"contracts/tokenICO.sol\":5425:5448  raisedAmount <= hardCap */\n      gt\n      iszero\n        /* \"contracts/tokenICO.sol\":5417:5449  require(raisedAmount <= hardCap) */\n      tag_186\n      jumpi\n      0x00\n      dup1\n      revert\n    tag_186:\n        /* \"contracts/tokenICO.sol\":5460:5474  uint256 tokens */\n      0x00\n        /* \"contracts/tokenICO.sol\":5489:5499  tokenPrice */\n      sload(0x09)\n        /* \"contracts/tokenICO.sol\":5477:5486  msg.value */\n      callvalue\n        /* \"contracts/tokenICO.sol\":5477:5499  msg.value / tokenPrice */\n      tag_187\n      swap2\n      swap1\n      tag_188\n      jump\t// in\n    tag_187:\n        /* \"contracts/tokenICO.sol\":5460:5499  uint256 tokens = msg.value / tokenPrice */\n      swap1\n      pop\n        /* \"contracts/tokenICO.sol\":5518:5531  tokenContract */\n      0x0e\n      0x00\n      swap1\n      sload\n      swap1\n      0x0100\n      exp\n      swap1\n      div\n      0xffffffffffffffffffffffffffffffffffffffff\n      and\n        /* \"contracts/tokenICO.sol\":5518:5540  tokenContract.transfer */\n      0xffffffffffffffffffffffffffffffffffffffff\n      and\n      0xa9059cbb\n        /* \"contracts/tokenICO.sol\":5541:5551  msg.sender */\n      caller\n        /* \"contracts/tokenICO.sol\":5562:5568  10**18 */\n      0x0de0b6b3a7640000\n        /* \"contracts/tokenICO.sol\":5553:5559  tokens */\n      dup5\n        /* \"contracts/tokenICO.sol\":5553:5568  tokens * 10**18 */\n      tag_189\n      swap2\n      swap1\n      tag_190\n      jump\t// in\n    tag_189:\n        /* \"contracts/tokenICO.sol\":5518:5569  tokenContract.transfer(msg.sender, tokens * 10**18) */\n      mload(0x40)\n      dup4\n      0xffffffff\n      and\n      0xe0\n      shl\n      dup2\n      mstore\n      0x04\n      add\n      tag_191\n      swap3\n      swap2\n      swap1\n      tag_192\n      jump\t// in\n    tag_191:\n      0x20\n      mload(0x40)\n      dup1\n      dup4\n      sub\n      dup2\n      0x00\n      dup8\n      dup1\n      extcodesize\n      iszero\n      dup1\n      iszero\n      tag_193\n      jumpi\n      0x00\n      dup1\n      revert\n    tag_193:\n      pop\n      gas\n      call\n      iszero\n      dup1\n      iszero\n      tag_195\n      jumpi\n      returndatasize\n      0x00\n      dup1\n      returndatacopy\n      revert(0x00, returndatasize)\n    tag_195:\n      pop\n      pop\n      pop\n      pop\n      mload(0x40)\n      returndatasize\n      not(0x1f)\n      0x1f\n      dup3\n      add\n      and\n      dup3\n      add\n      dup1\n      0x40\n      mstore\n      pop\n      dup2\n      add\n      swap1\n      tag_196\n      swap2\n      swap1\n      tag_197\n      jump\t// in\n    tag_196:\n        /* \"contracts/tokenICO.sol\":5510:5570  require(tokenContract.transfer(msg.sender, tokens * 10**18)) */\n      tag_198\n      jumpi\n      0x00\n      dup1\n      revert\n    tag_198:\n        /* \"contracts/tokenICO.sol\":5687:5693  tokens */\n      dup1\n        /* \"contracts/tokenICO.sol\":5663:5671  balances */\n      0x05\n        /* \"contracts/tokenICO.sol\":5663:5683  balances[msg.sender] */\n      0x00\n        /* \"contracts/tokenICO.sol\":5672:5682  msg.sender */\n      caller\n        /* \"contracts/tokenICO.sol\":5663:5683  balances[msg.sender] */\n      0xffffffffffffffffffffffffffffffffffffffff\n      and\n      0xffffffffffffffffffffffffffffffffffffffff\n      and\n      dup2\n      mstore\n      0x20\n      add\n      swap1\n      dup2\n      mstore\n      0x20\n      add\n      0x00\n      keccak256\n      0x00\n        /* \"contracts/tokenICO.sol\":5663:5693  balances[msg.sender] += tokens */\n      dup3\n      dup3\n      sload\n      tag_199\n      swap2\n      swap1\n      tag_185\n      jump\t// in\n    tag_199:\n      swap3\n      pop\n      pop\n      dup2\n      swap1\n      sstore\n      pop\n        /* \"contracts/tokenICO.sol\":5725:5731  tokens */\n      dup1\n        /* \"contracts/tokenICO.sol\":5704:5712  balances */\n      0x05\n        /* \"contracts/tokenICO.sol\":5704:5721  balances[founder] */\n      0x00\n        /* \"contracts/tokenICO.sol\":5713:5720  founder */\n      0x04\n      0x00\n      swap1\n      sload\n      swap1\n      0x0100\n      exp\n      swap1\n      div\n      0xffffffffffffffffffffffffffffffffffffffff\n      and\n        /* \"contracts/tokenICO.sol\":5704:5721  balances[founder] */\n      0xffffffffffffffffffffffffffffffffffffffff\n      and\n      0xffffffffffffffffffffffffffffffffffffffff\n      and\n      dup2\n      mstore\n      0x20\n      add\n      swap1\n      dup2\n      mstore\n      0x20\n      add\n      0x00\n      keccak256\n      0x00\n        /* \"contracts/tokenICO.sol\":5704:5731  balances[founder] -= tokens */\n      dup3\n      dup3\n      sload\n      tag_200\n      swap2\n      swap1\n      tag_201\n      jump\t// in\n    tag_200:\n      swap3\n      pop\n      pop\n      dup2\n      swap1\n      sstore\n      pop\n        /* \"contracts/tokenICO.sol\":5742:5749  deposit */\n      0x08\n      0x00\n      swap1\n      sload\n      swap1\n      0x0100\n      exp\n      swap1\n      div\n      0xffffffffffffffffffffffffffffffffffffffff\n      and\n        /* \"contracts/tokenICO.sol\":5742:5758  deposit.transfer */\n      0xffffffffffffffffffffffffffffffffffffffff\n      and\n        /* \"contracts/tokenICO.sol\":5742:5769  deposit.transfer(msg.value) */\n      0x08fc\n        /* \"contracts/tokenICO.sol\":5759:5768  msg.value */\n      callvalue\n        /* \"contracts/tokenICO.sol\":5742:5769  deposit.transfer(msg.value) */\n      swap1\n      dup2\n      iszero\n      mul\n      swap1\n      mload(0x40)\n      0x00\n      mload(0x40)\n      dup1\n      dup4\n      sub\n      dup2\n      dup6\n      dup9\n      dup9\n      call\n      swap4\n      pop\n      pop\n      pop\n      pop\n      iszero\n      dup1\n      iszero\n      tag_203\n      jumpi\n      returndatasize\n      0x00\n      dup1\n      returndatacopy\n      revert(0x00, returndatasize)\n    tag_203:\n      pop\n        /* \"contracts/tokenICO.sol\":5851:5888  Invest(msg.sender, msg.value, tokens) */\n      0x4ae4bd7655e0d350876a23cd90c4227b13db560e34435c6a488150a9c844bf5f\n        /* \"contracts/tokenICO.sol\":5858:5868  msg.sender */\n      caller\n        /* \"contracts/tokenICO.sol\":5870:5879  msg.value */\n      callvalue\n        /* \"contracts/tokenICO.sol\":5881:5887  tokens */\n      dup4\n        /* \"contracts/tokenICO.sol\":5851:5888  Invest(msg.sender, msg.value, tokens) */\n      mload(0x40)\n      tag_204\n      swap4\n      swap3\n      swap2\n      swap1\n      tag_205\n      jump\t// in\n    tag_204:\n      mload(0x40)\n      dup1\n      swap2\n      sub\n      swap1\n      log1\n        /* \"contracts/tokenICO.sol\":5908:5912  true */\n      0x01\n        /* \"contracts/tokenICO.sol\":5901:5912  return true */\n      swap2\n      pop\n      pop\n        /* \"contracts/tokenICO.sol\":5160:5920  function invest() public payable returns (bool) {\r... */\n      swap1\n      jump\t// out\n        /* \"contracts/tokenICO.sol\":3747:3785  uint256 public maxInvestment = 5 ether */\n    tag_45:\n      sload(0x10)\n      dup2\n      jump\t// out\n        /* \"contracts/tokenICO.sol\":4407:4485  function resume() public onlyAdmin {\r... */\n    tag_50:\n        /* \"contracts/tokenICO.sol\":4267:4272  admin */\n      0x07\n      0x00\n      swap1\n      sload\n      swap1\n      0x0100\n      exp\n      swap1\n      div\n      0xffffffffffffffffffffffffffffffffffffffff\n      and\n        /* \"contracts/tokenICO.sol\":4253:4272  msg.sender == admin */\n      0xffffffffffffffffffffffffffffffffffffffff\n      and\n        /* \"contracts/tokenICO.sol\":4253:4263  msg.sender */\n      caller\n        /* \"contracts/tokenICO.sol\":4253:4272  msg.sender == admin */\n      0xffffffffffffffffffffffffffffffffffffffff\n      and\n      eq\n        /* \"contracts/tokenICO.sol\":4245:4273  require(msg.sender == admin) */\n      tag_207\n      jumpi\n      0x00\n      dup1\n      revert\n    tag_207:\n        /* \"contracts/tokenICO.sol\":4464:4477  State.running */\n      0x01\n        /* \"contracts/tokenICO.sol\":4453:4461  icoState */\n      0x12\n      0x00\n        /* \"contracts/tokenICO.sol\":4453:4477  icoState = State.running */\n      0x0100\n      exp\n      dup2\n      sload\n      dup2\n      0xff\n      mul\n      not\n      and\n      swap1\n      dup4\n      0x03\n      dup2\n      gt\n      iszero\n      tag_209\n      jumpi\n      tag_210\n      tag_176\n      jump\t// in\n    tag_210:\n    tag_209:\n      mul\n      or\n      swap1\n      sstore\n      pop\n        /* \"contracts/tokenICO.sol\":4407:4485  function resume() public onlyAdmin {\r... */\n      jump\t// out\n        /* \"contracts/tokenICO.sol\":1245:1282  string public name = \"Nations Combat\" */\n    tag_53:\n      0x00\n      dup1\n      sload\n      tag_211\n      swap1\n      tag_212\n      jump\t// in\n    tag_211:\n      dup1\n      0x1f\n      add\n      0x20\n      dup1\n      swap2\n      div\n      mul\n      0x20\n      add\n      mload(0x40)\n      swap1\n      dup2\n      add\n      0x40\n      mstore\n      dup1\n      swap3\n      swap2\n      swap1\n      dup2\n      dup2\n      mstore\n      0x20\n      add\n      dup3\n      dup1\n      sload\n      tag_213\n      swap1\n      tag_212\n      jump\t// in\n    tag_213:\n      dup1\n      iszero\n      tag_214\n      jumpi\n      dup1\n      0x1f\n      lt\n      tag_215\n      jumpi\n      0x0100\n      dup1\n      dup4\n      sload\n      div\n      mul\n      dup4\n      mstore\n      swap2\n      0x20\n      add\n      swap2\n      jump(tag_214)\n    tag_215:\n      dup3\n      add\n      swap2\n      swap1\n      0x00\n      mstore\n      keccak256(0x00, 0x20)\n      swap1\n    tag_216:\n      dup2\n      sload\n      dup2\n      mstore\n      swap1\n      0x01\n      add\n      swap1\n      0x20\n      add\n      dup1\n      dup4\n      gt\n      tag_216\n      jumpi\n      dup3\n      swap1\n      sub\n      0x1f\n      and\n      dup3\n      add\n      swap2\n    tag_214:\n      pop\n      pop\n      pop\n      pop\n      pop\n      dup2\n      jump\t// out\n        /* \"contracts/tokenICO.sol\":2485:2821  function approve(address spender, uint256 tokens)\r... */\n    tag_60:\n        /* \"contracts/tokenICO.sol\":2587:2599  bool success */\n      0x00\n        /* \"contracts/tokenICO.sol\":2649:2655  tokens */\n      dup2\n        /* \"contracts/tokenICO.sol\":2625:2633  balances */\n      0x05\n        /* \"contracts/tokenICO.sol\":2625:2645  balances[msg.sender] */\n      0x00\n        /* \"contracts/tokenICO.sol\":2634:2644  msg.sender */\n      caller\n        /* \"contracts/tokenICO.sol\":2625:2645  balances[msg.sender] */\n      0xffffffffffffffffffffffffffffffffffffffff\n      and\n      0xffffffffffffffffffffffffffffffffffffffff\n      and\n      dup2\n      mstore\n      0x20\n      add\n      swap1\n      dup2\n      mstore\n      0x20\n      add\n      0x00\n      keccak256\n      sload\n        /* \"contracts/tokenICO.sol\":2625:2655  balances[msg.sender] >= tokens */\n      lt\n      iszero\n        /* \"contracts/tokenICO.sol\":2617:2656  require(balances[msg.sender] >= tokens) */\n      tag_218\n      jumpi\n      0x00\n      dup1\n      revert\n    tag_218:\n        /* \"contracts/tokenICO.sol\":2684:2685  0 */\n      0x00\n        /* \"contracts/tokenICO.sol\":2675:2681  tokens */\n      dup3\n        /* \"contracts/tokenICO.sol\":2675:2685  tokens > 0 */\n      gt\n        /* \"contracts/tokenICO.sol\":2667:2686  require(tokens > 0) */\n      tag_219\n      jumpi\n      0x00\n      dup1\n      revert\n    tag_219:\n        /* \"contracts/tokenICO.sol\":2730:2736  tokens */\n      dup2\n        /* \"contracts/tokenICO.sol\":2699:2706  allowed */\n      0x06\n        /* \"contracts/tokenICO.sol\":2699:2718  allowed[msg.sender] */\n      0x00\n        /* \"contracts/tokenICO.sol\":2707:2717  msg.sender */\n      caller\n        /* \"contracts/tokenICO.sol\":2699:2718  allowed[msg.sender] */\n      0xffffffffffffffffffffffffffffffffffffffff\n      and\n      0xffffffffffffffffffffffffffffffffffffffff\n      and\n      dup2\n      mstore\n      0x20\n      add\n      swap1\n      dup2\n      mstore\n      0x20\n      add\n      0x00\n      keccak256\n        /* \"contracts/tokenICO.sol\":2699:2727  allowed[msg.sender][spender] */\n      0x00\n        /* \"contracts/tokenICO.sol\":2719:2726  spender */\n      dup6\n        /* \"contracts/tokenICO.sol\":2699:2727  allowed[msg.sender][spender] */\n      0xffffffffffffffffffffffffffffffffffffffff\n      and\n      0xffffffffffffffffffffffffffffffffffffffff\n      and\n      dup2\n      mstore\n      0x20\n      add\n      swap1\n      dup2\n      mstore\n      0x20\n      add\n      0x00\n      keccak256\n        /* \"contracts/tokenICO.sol\":2699:2736  allowed[msg.sender][spender] = tokens */\n      dup2\n      swap1\n      sstore\n      pop\n        /* \"contracts/tokenICO.sol\":2775:2782  spender */\n      dup3\n        /* \"contracts/tokenICO.sol\":2754:2791  Approval(msg.sender, spender, tokens) */\n      0xffffffffffffffffffffffffffffffffffffffff\n      and\n        /* \"contracts/tokenICO.sol\":2763:2773  msg.sender */\n      caller\n        /* \"contracts/tokenICO.sol\":2754:2791  Approval(msg.sender, spender, tokens) */\n      0xffffffffffffffffffffffffffffffffffffffff\n      and\n      0x8c5be1e5ebec7d5bd14f71427d1e84f3dd0314c0f7b2291e5b200ac8c7c3b925\n        /* \"contracts/tokenICO.sol\":2784:2790  tokens */\n      dup5\n        /* \"contracts/tokenICO.sol\":2754:2791  Approval(msg.sender, spender, tokens) */\n      mload(0x40)\n      tag_220\n      swap2\n      swap1\n      tag_47\n      jump\t// in\n    tag_220:\n      mload(0x40)\n      dup1\n      swap2\n      sub\n      swap1\n      log3\n        /* \"contracts/tokenICO.sol\":2809:2813  true */\n      0x01\n        /* \"contracts/tokenICO.sol\":2802:2813  return true */\n      swap1\n      pop\n        /* \"contracts/tokenICO.sol\":2485:2821  function approve(address spender, uint256 tokens)\r... */\n      swap3\n      swap2\n      pop\n      pop\n      jump\t// out\n        /* \"contracts/tokenICO.sol\":1359:1394  uint256 public override totalSupply */\n    tag_65:\n      sload(0x03)\n      dup2\n      jump\t// out\n        /* \"contracts/tokenICO.sol\":7269:7644  function transferFrom(\r... */\n    tag_71:\n        /* \"contracts/tokenICO.sol\":7392:7404  bool success */\n      0x00\n        /* \"contracts/tokenICO.sol\":7443:7458  tokenTradeStart */\n      sload(0x0f)\n        /* \"contracts/tokenICO.sol\":7425:7440  block.timestamp */\n      timestamp\n        /* \"contracts/tokenICO.sol\":7425:7458  block.timestamp > tokenTradeStart */\n      gt\n        /* \"contracts/tokenICO.sol\":7417:7459  require(block.timestamp > tokenTradeStart) */\n      tag_222\n      jumpi\n      0x00\n      dup1\n      revert\n    tag_222:\n        /* \"contracts/tokenICO.sol\":7533:7571  Cryptos.transferFrom(from, to, tokens) */\n      tag_223\n        /* \"contracts/tokenICO.sol\":7554:7558  from */\n      dup5\n        /* \"contracts/tokenICO.sol\":7560:7562  to */\n      dup5\n        /* \"contracts/tokenICO.sol\":7564:7570  tokens */\n      dup5\n        /* \"contracts/tokenICO.sol\":7533:7553  Cryptos.transferFrom */\n      tag_224\n        /* \"contracts/tokenICO.sol\":7533:7571  Cryptos.transferFrom(from, to, tokens) */\n      jump\t// in\n    tag_223:\n      pop\n        /* \"contracts/tokenICO.sol\":7632:7636  true */\n      0x01\n        /* \"contracts/tokenICO.sol\":7625:7636  return true */\n      swap1\n      pop\n        /* \"contracts/tokenICO.sol\":7269:7644  function transferFrom(\r... */\n      swap4\n      swap3\n      pop\n      pop\n      pop\n      jump\t// out\n        /* \"contracts/tokenICO.sol\":1432:1475  mapping(address => uint256) public balances */\n    tag_77:\n      mstore(0x20, 0x05)\n      dup1\n      0x00\n      mstore\n      keccak256(0x00, 0x40)\n      0x00\n      swap2\n      pop\n      swap1\n      pop\n      sload\n      dup2\n      jump\t// out\n        /* \"contracts/tokenICO.sol\":1324:1352  uint256 public decimals = 18 */\n    tag_81:\n      sload(0x02)\n      dup2\n      jump\t// out\n        /* \"contracts/tokenICO.sol\":4615:5025  function getCurrentState() public view returns (State) {\r... */\n    tag_85:\n        /* \"contracts/tokenICO.sol\":4663:4668  State */\n      0x00\n        /* \"contracts/tokenICO.sol\":4697:4709  State.halted */\n      0x03\n        /* \"contracts/tokenICO.sol\":4685:4709  icoState == State.halted */\n      dup1\n      dup2\n      gt\n      iszero\n      tag_226\n      jumpi\n      tag_227\n      tag_176\n      jump\t// in\n    tag_227:\n    tag_226:\n        /* \"contracts/tokenICO.sol\":4685:4693  icoState */\n      0x12\n      0x00\n      swap1\n      sload\n      swap1\n      0x0100\n      exp\n      swap1\n      div\n      0xff\n      and\n        /* \"contracts/tokenICO.sol\":4685:4709  icoState == State.halted */\n      0x03\n      dup2\n      gt\n      iszero\n      tag_228\n      jumpi\n      tag_229\n      tag_176\n      jump\t// in\n    tag_229:\n    tag_228:\n      eq\n        /* \"contracts/tokenICO.sol\":4681:5018  if (icoState == State.halted) {\r... */\n      iszero\n      tag_230\n      jumpi\n        /* \"contracts/tokenICO.sol\":4733:4745  State.halted */\n      0x03\n        /* \"contracts/tokenICO.sol\":4726:4745  return State.halted */\n      swap1\n      pop\n      jump(tag_225)\n        /* \"contracts/tokenICO.sol\":4681:5018  if (icoState == State.halted) {\r... */\n    tag_230:\n        /* \"contracts/tokenICO.sol\":4785:4794  saleStart */\n      sload(0x0c)\n        /* \"contracts/tokenICO.sol\":4767:4782  block.timestamp */\n      timestamp\n        /* \"contracts/tokenICO.sol\":4767:4794  block.timestamp < saleStart */\n      lt\n        /* \"contracts/tokenICO.sol\":4763:5018  if (block.timestamp < saleStart) {\r... */\n      iszero\n      tag_232\n      jumpi\n        /* \"contracts/tokenICO.sol\":4818:4835  State.beforeStart */\n      0x00\n        /* \"contracts/tokenICO.sol\":4811:4835  return State.beforeStart */\n      swap1\n      pop\n      jump(tag_225)\n        /* \"contracts/tokenICO.sol\":4763:5018  if (block.timestamp < saleStart) {\r... */\n    tag_232:\n        /* \"contracts/tokenICO.sol\":4876:4885  saleStart */\n      sload(0x0c)\n        /* \"contracts/tokenICO.sol\":4857:4872  block.timestamp */\n      timestamp\n        /* \"contracts/tokenICO.sol\":4857:4885  block.timestamp >= saleStart */\n      lt\n      iszero\n        /* \"contracts/tokenICO.sol\":4857:4915  block.timestamp >= saleStart && block.timestamp <= saleEnd */\n      dup1\n      iszero\n      tag_234\n      jumpi\n      pop\n        /* \"contracts/tokenICO.sol\":4908:4915  saleEnd */\n      sload(0x0d)\n        /* \"contracts/tokenICO.sol\":4889:4904  block.timestamp */\n      timestamp\n        /* \"contracts/tokenICO.sol\":4889:4915  block.timestamp <= saleEnd */\n      gt\n      iszero\n        /* \"contracts/tokenICO.sol\":4857:4915  block.timestamp >= saleStart && block.timestamp <= saleEnd */\n    tag_234:\n        /* \"contracts/tokenICO.sol\":4853:5018  if (block.timestamp >= saleStart && block.timestamp <= saleEnd) {\r... */\n      iszero\n      tag_235\n      jumpi\n        /* \"contracts/tokenICO.sol\":4939:4952  State.running */\n      0x01\n        /* \"contracts/tokenICO.sol\":4932:4952  return State.running */\n      swap1\n      pop\n      jump(tag_225)\n        /* \"contracts/tokenICO.sol\":4853:5018  if (block.timestamp >= saleStart && block.timestamp <= saleEnd) {\r... */\n    tag_235:\n        /* \"contracts/tokenICO.sol\":4992:5006  State.afterEnd */\n      0x02\n        /* \"contracts/tokenICO.sol\":4985:5006  return State.afterEnd */\n      swap1\n      pop\n        /* \"contracts/tokenICO.sol\":4615:5025  function getCurrentState() public view returns (State) {\r... */\n    tag_225:\n      swap1\n      jump\t// out\n        /* \"contracts/tokenICO.sol\":6860:7261  function endSale() public {\r... */\n    tag_90:\n        /* \"contracts/tokenICO.sol\":6919:6924  admin */\n      0x07\n      0x00\n      swap1\n      sload\n      swap1\n      0x0100\n      exp\n      swap1\n      div\n      0xffffffffffffffffffffffffffffffffffffffff\n      and\n        /* \"contracts/tokenICO.sol\":6905:6924  msg.sender == admin */\n      0xffffffffffffffffffffffffffffffffffffffff\n      and\n        /* \"contracts/tokenICO.sol\":6905:6915  msg.sender */\n      caller\n        /* \"contracts/tokenICO.sol\":6905:6924  msg.sender == admin */\n      0xffffffffffffffffffffffffffffffffffffffff\n      and\n      eq\n        /* \"contracts/tokenICO.sol\":6897:6925  require(msg.sender == admin) */\n      tag_238\n      jumpi\n      0x00\n      dup1\n      revert\n    tag_238:\n        /* \"contracts/tokenICO.sol\":6958:6971  tokenContract */\n      0x0e\n      0x00\n      swap1\n      sload\n      swap1\n      0x0100\n      exp\n      swap1\n      div\n      0xffffffffffffffffffffffffffffffffffffffff\n      and\n        /* \"contracts/tokenICO.sol\":6958:6980  tokenContract.transfer */\n      0xffffffffffffffffffffffffffffffffffffffff\n      and\n      0xa9059cbb\n        /* \"contracts/tokenICO.sol\":6999:7004  admin */\n      0x07\n      0x00\n      swap1\n      sload\n      swap1\n      0x0100\n      exp\n      swap1\n      div\n      0xffffffffffffffffffffffffffffffffffffffff\n      and\n        /* \"contracts/tokenICO.sol\":7023:7036  tokenContract */\n      0x0e\n      0x00\n      swap1\n      sload\n      swap1\n      0x0100\n      exp\n      swap1\n      div\n      0xffffffffffffffffffffffffffffffffffffffff\n      and\n        /* \"contracts/tokenICO.sol\":7023:7046  tokenContract.balanceOf */\n      0xffffffffffffffffffffffffffffffffffffffff\n      and\n      0x70a08231\n        /* \"contracts/tokenICO.sol\":7055:7059  this */\n      address\n        /* \"contracts/tokenICO.sol\":7023:7061  tokenContract.balanceOf(address(this)) */\n      mload(0x40)\n      dup3\n      0xffffffff\n      and\n      0xe0\n      shl\n      dup2\n      mstore\n      0x04\n      add\n      tag_239\n      swap2\n      swap1\n      tag_103\n      jump\t// in\n    tag_239:\n      0x20\n      mload(0x40)\n      dup1\n      dup4\n      sub\n      dup2\n      dup7\n      dup1\n      extcodesize\n      iszero\n      dup1\n      iszero\n      tag_240\n      jumpi\n      0x00\n      dup1\n      revert\n    tag_240:\n      pop\n      gas\n      staticcall\n      iszero\n      dup1\n      iszero\n      tag_242\n      jumpi\n      returndatasize\n      0x00\n      dup1\n      returndatacopy\n      revert(0x00, returndatasize)\n    tag_242:\n      pop\n      pop\n      pop\n      pop\n      mload(0x40)\n      returndatasize\n      not(0x1f)\n      0x1f\n      dup3\n      add\n      and\n      dup3\n      add\n      dup1\n      0x40\n      mstore\n      pop\n      dup2\n      add\n      swap1\n      tag_243\n      swap2\n      swap1\n      tag_244\n      jump\t// in\n    tag_243:\n        /* \"contracts/tokenICO.sol\":6958:7076  tokenContract.transfer(\r... */\n      mload(0x40)\n      dup4\n      0xffffffff\n      and\n      0xe0\n      shl\n      dup2\n      mstore\n      0x04\n      add\n      tag_245\n      swap3\n      swap2\n      swap1\n      tag_192\n      jump\t// in\n    tag_245:\n      0x20\n      mload(0x40)\n      dup1\n      dup4\n      sub\n      dup2\n      0x00\n      dup8\n      dup1\n      extcodesize\n      iszero\n      dup1\n      iszero\n      tag_246\n      jumpi\n      0x00\n      dup1\n      revert\n    tag_246:\n      pop\n      gas\n      call\n      iszero\n      dup1\n      iszero\n      tag_248\n      jumpi\n      returndatasize\n      0x00\n      dup1\n      returndatacopy\n      revert(0x00, returndatasize)\n    tag_248:\n      pop\n      pop\n      pop\n      pop\n      mload(0x40)\n      returndatasize\n      not(0x1f)\n      0x1f\n      dup3\n      add\n      and\n      dup3\n      add\n      dup1\n      0x40\n      mstore\n      pop\n      dup2\n      add\n      swap1\n      tag_249\n      swap2\n      swap1\n      tag_197\n      jump\t// in\n    tag_249:\n        /* \"contracts/tokenICO.sol\":6936:7087  require(\r... */\n      tag_250\n      jumpi\n      0x00\n      dup1\n      revert\n    tag_250:\n        /* \"contracts/tokenICO.sol\":7215:7220  admin */\n      0x07\n      0x00\n      swap1\n      sload\n      swap1\n      0x0100\n      exp\n      swap1\n      div\n      0xffffffffffffffffffffffffffffffffffffffff\n      and\n        /* \"contracts/tokenICO.sol\":7207:7230  payable(admin).transfer */\n      0xffffffffffffffffffffffffffffffffffffffff\n      and\n        /* \"contracts/tokenICO.sol\":7207:7253  payable(admin).transfer(address(this).balance) */\n      0x08fc\n        /* \"contracts/tokenICO.sol\":7231:7252  address(this).balance */\n      selfbalance\n        /* \"contracts/tokenICO.sol\":7207:7253  payable(admin).transfer(address(this).balance) */\n      swap1\n      dup2\n      iszero\n      mul\n      swap1\n      mload(0x40)\n      0x00\n      mload(0x40)\n      dup1\n      dup4\n      sub\n      dup2\n      dup6\n      dup9\n      dup9\n      call\n      swap4\n      pop\n      pop\n      pop\n      pop\n      iszero\n      dup1\n      iszero\n      tag_252\n      jumpi\n      returndatasize\n      0x00\n      dup1\n      returndatacopy\n      revert(0x00, returndatasize)\n    tag_252:\n      pop\n        /* \"contracts/tokenICO.sol\":6860:7261  function endSale() public {\r... */\n      jump\t// out\n        /* \"contracts/tokenICO.sol\":6115:6300  function burn() public returns (bool) {\r... */\n    tag_93:\n        /* \"contracts/tokenICO.sol\":6147:6151  bool */\n      0x00\n        /* \"contracts/tokenICO.sol\":6175:6192  getCurrentState() */\n      tag_254\n        /* \"contracts/tokenICO.sol\":6175:6190  getCurrentState */\n      tag_85\n        /* \"contracts/tokenICO.sol\":6175:6192  getCurrentState() */\n      jump\t// in\n    tag_254:\n        /* \"contracts/tokenICO.sol\":6164:6172  icoState */\n      0x12\n      0x00\n        /* \"contracts/tokenICO.sol\":6164:6192  icoState = getCurrentState() */\n      0x0100\n      exp\n      dup2\n      sload\n      dup2\n      0xff\n      mul\n      not\n      and\n      swap1\n      dup4\n      0x03\n      dup2\n      gt\n      iszero\n      tag_255\n      jumpi\n      tag_256\n      tag_176\n      jump\t// in\n    tag_256:\n    tag_255:\n      mul\n      or\n      swap1\n      sstore\n      pop\n        /* \"contracts/tokenICO.sol\":6223:6237  State.afterEnd */\n      0x02\n        /* \"contracts/tokenICO.sol\":6211:6237  icoState == State.afterEnd */\n      0x03\n      dup2\n      gt\n      iszero\n      tag_257\n      jumpi\n      tag_258\n      tag_176\n      jump\t// in\n    tag_258:\n    tag_257:\n        /* \"contracts/tokenICO.sol\":6211:6219  icoState */\n      0x12\n      0x00\n      swap1\n      sload\n      swap1\n      0x0100\n      exp\n      swap1\n      div\n      0xff\n      and\n        /* \"contracts/tokenICO.sol\":6211:6237  icoState == State.afterEnd */\n      0x03\n      dup2\n      gt\n      iszero\n      tag_259\n      jumpi\n      tag_260\n      tag_176\n      jump\t// in\n    tag_260:\n    tag_259:\n      eq\n        /* \"contracts/tokenICO.sol\":6203:6238  require(icoState == State.afterEnd) */\n      tag_261\n      jumpi\n      0x00\n      dup1\n      revert\n    tag_261:\n        /* \"contracts/tokenICO.sol\":6269:6270  0 */\n      0x00\n        /* \"contracts/tokenICO.sol\":6249:6257  balances */\n      0x05\n        /* \"contracts/tokenICO.sol\":6249:6266  balances[founder] */\n      0x00\n        /* \"contracts/tokenICO.sol\":6258:6265  founder */\n      0x04\n      0x00\n      swap1\n      sload\n      swap1\n      0x0100\n      exp\n      swap1\n      div\n      0xffffffffffffffffffffffffffffffffffffffff\n      and\n        /* \"contracts/tokenICO.sol\":6249:6266  balances[founder] */\n      0xffffffffffffffffffffffffffffffffffffffff\n      and\n      0xffffffffffffffffffffffffffffffffffffffff\n      and\n      dup2\n      mstore\n      0x20\n      add\n      swap1\n      dup2\n      mstore\n      0x20\n      add\n      0x00\n      keccak256\n        /* \"contracts/tokenICO.sol\":6249:6270  balances[founder] = 0 */\n      dup2\n      swap1\n      sstore\n      pop\n        /* \"contracts/tokenICO.sol\":6288:6292  true */\n      0x01\n        /* \"contracts/tokenICO.sol\":6281:6292  return true */\n      swap1\n      pop\n        /* \"contracts/tokenICO.sol\":6115:6300  function burn() public returns (bool) {\r... */\n      swap1\n      jump\t// out\n        /* \"contracts/tokenICO.sol\":3955:3976  State public icoState */\n    tag_97:\n      0x12\n      0x00\n      swap1\n      sload\n      swap1\n      0x0100\n      exp\n      swap1\n      div\n      0xff\n      and\n      dup2\n      jump\t// out\n        /* \"contracts/tokenICO.sol\":1403:1425  address public founder */\n    tag_101:\n      0x04\n      0x00\n      swap1\n      sload\n      swap1\n      0x0100\n      exp\n      swap1\n      div\n      0xffffffffffffffffffffffffffffffffffffffff\n      and\n      dup2\n      jump\t// out\n        /* \"contracts/tokenICO.sol\":3610:3645  ERC20Interface public tokenContract */\n    tag_106:\n      0x0e\n      0x00\n      swap1\n      sload\n      swap1\n      0x0100\n      exp\n      swap1\n      div\n      0xffffffffffffffffffffffffffffffffffffffff\n      and\n      dup2\n      jump\t// out\n        /* \"contracts/tokenICO.sol\":4324:4399  function halt() public onlyAdmin {\r... */\n    tag_111:\n        /* \"contracts/tokenICO.sol\":4267:4272  admin */\n      0x07\n      0x00\n      swap1\n      sload\n      swap1\n      0x0100\n      exp\n      swap1\n      div\n      0xffffffffffffffffffffffffffffffffffffffff\n      and\n        /* \"contracts/tokenICO.sol\":4253:4272  msg.sender == admin */\n      0xffffffffffffffffffffffffffffffffffffffff\n      and\n        /* \"contracts/tokenICO.sol\":4253:4263  msg.sender */\n      caller\n        /* \"contracts/tokenICO.sol\":4253:4272  msg.sender == admin */\n      0xffffffffffffffffffffffffffffffffffffffff\n      and\n      eq\n        /* \"contracts/tokenICO.sol\":4245:4273  require(msg.sender == admin) */\n      tag_263\n      jumpi\n      0x00\n      dup1\n      revert\n    tag_263:\n        /* \"contracts/tokenICO.sol\":4379:4391  State.halted */\n      0x03\n        /* \"contracts/tokenICO.sol\":4368:4376  icoState */\n      0x12\n      0x00\n        /* \"contracts/tokenICO.sol\":4368:4391  icoState = State.halted */\n      0x0100\n      exp\n      dup2\n      sload\n      dup2\n      0xff\n      mul\n      not\n      and\n      swap1\n      dup4\n      0x03\n      dup2\n      gt\n      iszero\n      tag_265\n      jumpi\n      tag_266\n      tag_176\n      jump\t// in\n    tag_266:\n    tag_265:\n      mul\n      or\n      swap1\n      sstore\n      pop\n        /* \"contracts/tokenICO.sol\":4324:4399  function halt() public onlyAdmin {\r... */\n      jump\t// out\n        /* \"contracts/tokenICO.sol\":4493:4607  function changeDepositAddress(address payable newDeposit) public onlyAdmin {\r... */\n    tag_116:\n        /* \"contracts/tokenICO.sol\":4267:4272  admin */\n      0x07\n      0x00\n      swap1\n      sload\n      swap1\n      0x0100\n      exp\n      swap1\n      div\n      0xffffffffffffffffffffffffffffffffffffffff\n      and\n        /* \"contracts/tokenICO.sol\":4253:4272  msg.sender == admin */\n      0xffffffffffffffffffffffffffffffffffffffff\n      and\n        /* \"contracts/tokenICO.sol\":4253:4263  msg.sender */\n      caller\n        /* \"contracts/tokenICO.sol\":4253:4272  msg.sender == admin */\n      0xffffffffffffffffffffffffffffffffffffffff\n      and\n      eq\n        /* \"contracts/tokenICO.sol\":4245:4273  require(msg.sender == admin) */\n      tag_268\n      jumpi\n      0x00\n      dup1\n      revert\n    tag_268:\n        /* \"contracts/tokenICO.sol\":4589:4599  newDeposit */\n      dup1\n        /* \"contracts/tokenICO.sol\":4579:4586  deposit */\n      0x08\n      0x00\n        /* \"contracts/tokenICO.sol\":4579:4599  deposit = newDeposit */\n      0x0100\n      exp\n      dup2\n      sload\n      dup2\n      0xffffffffffffffffffffffffffffffffffffffff\n      mul\n      not\n      and\n      swap1\n      dup4\n      0xffffffffffffffffffffffffffffffffffffffff\n      and\n      mul\n      or\n      swap1\n      sstore\n      pop\n        /* \"contracts/tokenICO.sol\":4493:4607  function changeDepositAddress(address payable newDeposit) public onlyAdmin {\r... */\n      pop\n      jump\t// out\n        /* \"contracts/tokenICO.sol\":1758:1931  function balanceOf(address tokenOwner)\r... */\n    tag_120:\n        /* \"contracts/tokenICO.sol\":1863:1878  uint256 balance */\n      0x00\n        /* \"contracts/tokenICO.sol\":1903:1911  balances */\n      0x05\n        /* \"contracts/tokenICO.sol\":1903:1923  balances[tokenOwner] */\n      0x00\n        /* \"contracts/tokenICO.sol\":1912:1922  tokenOwner */\n      dup4\n        /* \"contracts/tokenICO.sol\":1903:1923  balances[tokenOwner] */\n      0xffffffffffffffffffffffffffffffffffffffff\n      and\n      0xffffffffffffffffffffffffffffffffffffffff\n      and\n      dup2\n      mstore\n      0x20\n      add\n      swap1\n      dup2\n      mstore\n      0x20\n      add\n      0x00\n      keccak256\n      sload\n        /* \"contracts/tokenICO.sol\":1896:1923  return balances[tokenOwner] */\n      swap1\n      pop\n        /* \"contracts/tokenICO.sol\":1758:1931  function balanceOf(address tokenOwner)\r... */\n      swap2\n      swap1\n      pop\n      jump\t// out\n        /* \"contracts/tokenICO.sol\":3792:3832  uint256 public minInvestment = 0.1 ether */\n    tag_124:\n      sload(0x11)\n      dup2\n      jump\t// out\n        /* \"contracts/tokenICO.sol\":1289:1317  string public symbol = \"NCT\" */\n    tag_128:\n      0x01\n      dup1\n      sload\n      tag_271\n      swap1\n      tag_212\n      jump\t// in\n    tag_271:\n      dup1\n      0x1f\n      add\n      0x20\n      dup1\n      swap2\n      div\n      mul\n      0x20\n      add\n      mload(0x40)\n      swap1\n      dup2\n      add\n      0x40\n      mstore\n      dup1\n      swap3\n      swap2\n      swap1\n      dup2\n      dup2\n      mstore\n      0x20\n      add\n      dup3\n      dup1\n      sload\n      tag_272\n      swap1\n      tag_212\n      jump\t// in\n    tag_272:\n      dup1\n      iszero\n      tag_273\n      jumpi\n      dup1\n      0x1f\n      lt\n      tag_274\n      jumpi\n      0x0100\n      dup1\n      dup4\n      sload\n      div\n      mul\n      dup4\n      mstore\n      swap2\n      0x20\n      add\n      swap2\n      jump(tag_273)\n    tag_274:\n      dup3\n      add\n      swap2\n      swap1\n      0x00\n      mstore\n      keccak256(0x00, 0x20)\n      swap1\n    tag_275:\n      dup2\n      sload\n      dup2\n      mstore\n      swap1\n      0x01\n      add\n      swap1\n      0x20\n      add\n      dup1\n      dup4\n      gt\n      tag_275\n      jumpi\n      dup3\n      swap1\n      sub\n      0x1f\n      and\n      dup3\n      add\n      swap2\n    tag_273:\n      pop\n      pop\n      pop\n      pop\n      pop\n      dup2\n      jump\t// out\n        /* \"contracts/tokenICO.sol\":6448:6852  function transfer(address to, uint256 tokens)\r... */\n    tag_133:\n        /* \"contracts/tokenICO.sol\":6546:6558  bool success */\n      0x00\n        /* \"contracts/tokenICO.sol\":6602:6617  tokenTradeStart */\n      sload(0x0f)\n        /* \"contracts/tokenICO.sol\":6584:6599  block.timestamp */\n      timestamp\n        /* \"contracts/tokenICO.sol\":6584:6617  block.timestamp > tokenTradeStart */\n      gt\n        /* \"contracts/tokenICO.sol\":6576:6618  require(block.timestamp > tokenTradeStart) */\n      tag_277\n      jumpi\n      0x00\n      dup1\n      revert\n    tag_277:\n        /* \"contracts/tokenICO.sol\":6755:6781  super.transfer(to, tokens) */\n      tag_278\n        /* \"contracts/tokenICO.sol\":6770:6772  to */\n      dup4\n        /* \"contracts/tokenICO.sol\":6774:6780  tokens */\n      dup4\n        /* \"contracts/tokenICO.sol\":6755:6769  super.transfer */\n      tag_279\n        /* \"contracts/tokenICO.sol\":6755:6781  super.transfer(to, tokens) */\n      jump\t// in\n    tag_278:\n      pop\n        /* \"contracts/tokenICO.sol\":6840:6844  true */\n      0x01\n        /* \"contracts/tokenICO.sol\":6833:6844  return true */\n      swap1\n      pop\n        /* \"contracts/tokenICO.sol\":6448:6852  function transfer(address to, uint256 tokens)\r... */\n      swap3\n      swap2\n      pop\n      pop\n      jump\t// out\n        /* \"contracts/tokenICO.sol\":3494:3536  uint256 public saleStart = block.timestamp */\n    tag_137:\n      sload(0x0c)\n      dup2\n      jump\t// out\n        /* \"contracts/tokenICO.sol\":3543:3592  uint256 public saleEnd = block.timestamp + 604800 */\n    tag_141:\n      sload(0x0d)\n      dup2\n      jump\t// out\n        /* \"contracts/tokenICO.sol\":3431:3458  uint256 public raisedAmount */\n    tag_145:\n      sload(0x0b)\n      dup2\n      jump\t// out\n        /* \"contracts/tokenICO.sol\":3652:3701  uint256 public tokenTradeStart = saleEnd + 604800 */\n    tag_149:\n      sload(0x0f)\n      dup2\n      jump\t// out\n        /* \"contracts/tokenICO.sol\":3277:3307  address payable public deposit */\n    tag_153:\n      0x08\n      0x00\n      swap1\n      sload\n      swap1\n      0x0100\n      exp\n      swap1\n      div\n      0xffffffffffffffffffffffffffffffffffffffff\n      and\n      dup2\n      jump\t// out\n        /* \"contracts/tokenICO.sol\":2287:2477  function allowance(address tokenOwner, address spender)\r... */\n    tag_160:\n        /* \"contracts/tokenICO.sol\":2409:2416  uint256 */\n      0x00\n        /* \"contracts/tokenICO.sol\":2441:2448  allowed */\n      0x06\n        /* \"contracts/tokenICO.sol\":2441:2460  allowed[tokenOwner] */\n      0x00\n        /* \"contracts/tokenICO.sol\":2449:2459  tokenOwner */\n      dup5\n        /* \"contracts/tokenICO.sol\":2441:2460  allowed[tokenOwner] */\n      0xffffffffffffffffffffffffffffffffffffffff\n      and\n      0xffffffffffffffffffffffffffffffffffffffff\n      and\n      dup2\n      mstore\n      0x20\n      add\n      swap1\n      dup2\n      mstore\n      0x20\n      add\n      0x00\n      keccak256\n        /* \"contracts/tokenICO.sol\":2441:2469  allowed[tokenOwner][spender] */\n      0x00\n        /* \"contracts/tokenICO.sol\":2461:2468  spender */\n      dup4\n        /* \"contracts/tokenICO.sol\":2441:2469  allowed[tokenOwner][spender] */\n      0xffffffffffffffffffffffffffffffffffffffff\n      and\n      0xffffffffffffffffffffffffffffffffffffffff\n      and\n      dup2\n      mstore\n      0x20\n      add\n      swap1\n      dup2\n      mstore\n      0x20\n      add\n      0x00\n      keccak256\n      sload\n        /* \"contracts/tokenICO.sol\":2434:2469  return allowed[tokenOwner][spender] */\n      swap1\n      pop\n        /* \"contracts/tokenICO.sol\":2287:2477  function allowance(address tokenOwner, address spender)\r... */\n      swap3\n      swap2\n      pop\n      pop\n      jump\t// out\n        /* \"contracts/tokenICO.sol\":3250:3270  address public admin */\n    tag_166:\n      0x07\n      0x00\n      swap1\n      sload\n      swap1\n      0x0100\n      exp\n      swap1\n      div\n      0xffffffffffffffffffffffffffffffffffffffff\n      and\n      dup2\n      jump\t// out\n        /* \"contracts/tokenICO.sol\":3390:3424  uint256 public hardCap = 300 ether */\n    tag_170:\n      sload(0x0a)\n      dup2\n      jump\t// out\n        /* \"contracts/tokenICO.sol\":2829:3205  function transferFrom(\r... */\n    tag_224:\n        /* \"contracts/tokenICO.sol\":2960:2972  bool success */\n      0x00\n        /* \"contracts/tokenICO.sol\":3014:3020  tokens */\n      dup2\n        /* \"contracts/tokenICO.sol\":2993:3000  allowed */\n      0x06\n        /* \"contracts/tokenICO.sol\":2993:3006  allowed[from] */\n      0x00\n        /* \"contracts/tokenICO.sol\":3001:3005  from */\n      dup7\n        /* \"contracts/tokenICO.sol\":2993:3006  allowed[from] */\n      0xffffffffffffffffffffffffffffffffffffffff\n      and\n      0xffffffffffffffffffffffffffffffffffffffff\n      and\n      dup2\n      mstore\n      0x20\n      add\n      swap1\n      dup2\n      mstore\n      0x20\n      add\n      0x00\n      keccak256\n        /* \"contracts/tokenICO.sol\":2993:3010  allowed[from][to] */\n      0x00\n        /* \"contracts/tokenICO.sol\":3007:3009  to */\n      dup6\n        /* \"contracts/tokenICO.sol\":2993:3010  allowed[from][to] */\n      0xffffffffffffffffffffffffffffffffffffffff\n      and\n      0xffffffffffffffffffffffffffffffffffffffff\n      and\n      dup2\n      mstore\n      0x20\n      add\n      swap1\n      dup2\n      mstore\n      0x20\n      add\n      0x00\n      keccak256\n      sload\n        /* \"contracts/tokenICO.sol\":2993:3020  allowed[from][to] >= tokens */\n      lt\n      iszero\n        /* \"contracts/tokenICO.sol\":2985:3021  require(allowed[from][to] >= tokens) */\n      tag_282\n      jumpi\n      0x00\n      dup1\n      revert\n    tag_282:\n        /* \"contracts/tokenICO.sol\":3058:3064  tokens */\n      dup2\n        /* \"contracts/tokenICO.sol\":3040:3048  balances */\n      0x05\n        /* \"contracts/tokenICO.sol\":3040:3054  balances[from] */\n      0x00\n        /* \"contracts/tokenICO.sol\":3049:3053  from */\n      dup7\n        /* \"contracts/tokenICO.sol\":3040:3054  balances[from] */\n      0xffffffffffffffffffffffffffffffffffffffff\n      and\n      0xffffffffffffffffffffffffffffffffffffffff\n      and\n      dup2\n      mstore\n      0x20\n      add\n      swap1\n      dup2\n      mstore\n      0x20\n      add\n      0x00\n      keccak256\n      sload\n        /* \"contracts/tokenICO.sol\":3040:3064  balances[from] >= tokens */\n      lt\n      iszero\n        /* \"contracts/tokenICO.sol\":3032:3065  require(balances[from] >= tokens) */\n      tag_283\n      jumpi\n      0x00\n      dup1\n      revert\n    tag_283:\n        /* \"contracts/tokenICO.sol\":3096:3102  tokens */\n      dup2\n        /* \"contracts/tokenICO.sol\":3078:3086  balances */\n      0x05\n        /* \"contracts/tokenICO.sol\":3078:3092  balances[from] */\n      0x00\n        /* \"contracts/tokenICO.sol\":3087:3091  from */\n      dup7\n        /* \"contracts/tokenICO.sol\":3078:3092  balances[from] */\n      0xffffffffffffffffffffffffffffffffffffffff\n      and\n      0xffffffffffffffffffffffffffffffffffffffff\n      and\n      dup2\n      mstore\n      0x20\n      add\n      swap1\n      dup2\n      mstore\n      0x20\n      add\n      0x00\n      keccak256\n      0x00\n        /* \"contracts/tokenICO.sol\":3078:3102  balances[from] -= tokens */\n      dup3\n      dup3\n      sload\n      tag_284\n      swap2\n      swap1\n      tag_201\n      jump\t// in\n    tag_284:\n      swap3\n      pop\n      pop\n      dup2\n      swap1\n      sstore\n      pop\n        /* \"contracts/tokenICO.sol\":3129:3135  tokens */\n      dup2\n        /* \"contracts/tokenICO.sol\":3113:3121  balances */\n      0x05\n        /* \"contracts/tokenICO.sol\":3113:3125  balances[to] */\n      0x00\n        /* \"contracts/tokenICO.sol\":3122:3124  to */\n      dup6\n        /* \"contracts/tokenICO.sol\":3113:3125  balances[to] */\n      0xffffffffffffffffffffffffffffffffffffffff\n      and\n      0xffffffffffffffffffffffffffffffffffffffff\n      and\n      dup2\n      mstore\n      0x20\n      add\n      swap1\n      dup2\n      mstore\n      0x20\n      add\n      0x00\n      keccak256\n      0x00\n        /* \"contracts/tokenICO.sol\":3113:3135  balances[to] += tokens */\n      dup3\n      dup3\n      sload\n      tag_285\n      swap2\n      swap1\n      tag_185\n      jump\t// in\n    tag_285:\n      swap3\n      pop\n      pop\n      dup2\n      swap1\n      sstore\n      pop\n        /* \"contracts/tokenICO.sol\":3167:3173  tokens */\n      dup2\n        /* \"contracts/tokenICO.sol\":3146:3153  allowed */\n      0x06\n        /* \"contracts/tokenICO.sol\":3146:3159  allowed[from] */\n      0x00\n        /* \"contracts/tokenICO.sol\":3154:3158  from */\n      dup7\n        /* \"contracts/tokenICO.sol\":3146:3159  allowed[from] */\n      0xffffffffffffffffffffffffffffffffffffffff\n      and\n      0xffffffffffffffffffffffffffffffffffffffff\n      and\n      dup2\n      mstore\n      0x20\n      add\n      swap1\n      dup2\n      mstore\n      0x20\n      add\n      0x00\n      keccak256\n        /* \"contracts/tokenICO.sol\":3146:3163  allowed[from][to] */\n      0x00\n        /* \"contracts/tokenICO.sol\":3160:3162  to */\n      dup6\n        /* \"contracts/tokenICO.sol\":3146:3163  allowed[from][to] */\n      0xffffffffffffffffffffffffffffffffffffffff\n      and\n      0xffffffffffffffffffffffffffffffffffffffff\n      and\n      dup2\n      mstore\n      0x20\n      add\n      swap1\n      dup2\n      mstore\n      0x20\n      add\n      0x00\n      keccak256\n      0x00\n        /* \"contracts/tokenICO.sol\":3146:3173  allowed[from][to] -= tokens */\n      dup3\n      dup3\n      sload\n      tag_286\n      swap2\n      swap1\n      tag_201\n      jump\t// in\n    tag_286:\n      swap3\n      pop\n      pop\n      dup2\n      swap1\n      sstore\n      pop\n        /* \"contracts/tokenICO.sol\":3193:3197  true */\n      0x01\n        /* \"contracts/tokenICO.sol\":3186:3197  return true */\n      swap1\n      pop\n        /* \"contracts/tokenICO.sol\":2829:3205  function transferFrom(\r... */\n      swap4\n      swap3\n      pop\n      pop\n      pop\n      jump\t// out\n        /* \"contracts/tokenICO.sol\":1939:2279  function transfer(address to, uint256 tokens)\r... */\n    tag_279:\n        /* \"contracts/tokenICO.sol\":2054:2066  bool success */\n      0x00\n        /* \"contracts/tokenICO.sol\":2116:2122  tokens */\n      dup2\n        /* \"contracts/tokenICO.sol\":2092:2100  balances */\n      0x05\n        /* \"contracts/tokenICO.sol\":2092:2112  balances[msg.sender] */\n      0x00\n        /* \"contracts/tokenICO.sol\":2101:2111  msg.sender */\n      caller\n        /* \"contracts/tokenICO.sol\":2092:2112  balances[msg.sender] */\n      0xffffffffffffffffffffffffffffffffffffffff\n      and\n      0xffffffffffffffffffffffffffffffffffffffff\n      and\n      dup2\n      mstore\n      0x20\n      add\n      swap1\n      dup2\n      mstore\n      0x20\n      add\n      0x00\n      keccak256\n      sload\n        /* \"contracts/tokenICO.sol\":2092:2122  balances[msg.sender] >= tokens */\n      lt\n      iszero\n        /* \"contracts/tokenICO.sol\":2084:2123  require(balances[msg.sender] >= tokens) */\n      tag_288\n      jumpi\n      0x00\n      dup1\n      revert\n    tag_288:\n        /* \"contracts/tokenICO.sol\":2152:2158  tokens */\n      dup2\n        /* \"contracts/tokenICO.sol\":2136:2144  balances */\n      0x05\n        /* \"contracts/tokenICO.sol\":2136:2148  balances[to] */\n      0x00\n        /* \"contracts/tokenICO.sol\":2145:2147  to */\n      dup6\n        /* \"contracts/tokenICO.sol\":2136:2148  balances[to] */\n      0xffffffffffffffffffffffffffffffffffffffff\n      and\n      0xffffffffffffffffffffffffffffffffffffffff\n      and\n      dup2\n      mstore\n      0x20\n      add\n      swap1\n      dup2\n      mstore\n      0x20\n      add\n      0x00\n      keccak256\n      0x00\n        /* \"contracts/tokenICO.sol\":2136:2158  balances[to] += tokens */\n      dup3\n      dup3\n      sload\n      tag_289\n      swap2\n      swap1\n      tag_185\n      jump\t// in\n    tag_289:\n      swap3\n      pop\n      pop\n      dup2\n      swap1\n      sstore\n      pop\n        /* \"contracts/tokenICO.sol\":2193:2199  tokens */\n      dup2\n        /* \"contracts/tokenICO.sol\":2169:2177  balances */\n      0x05\n        /* \"contracts/tokenICO.sol\":2169:2189  balances[msg.sender] */\n      0x00\n        /* \"contracts/tokenICO.sol\":2178:2188  msg.sender */\n      caller\n        /* \"contracts/tokenICO.sol\":2169:2189  balances[msg.sender] */\n      0xffffffffffffffffffffffffffffffffffffffff\n      and\n      0xffffffffffffffffffffffffffffffffffffffff\n      and\n      dup2\n      mstore\n      0x20\n      add\n      swap1\n      dup2\n      mstore\n      0x20\n      add\n      0x00\n      keccak256\n      0x00\n        /* \"contracts/tokenICO.sol\":2169:2199  balances[msg.sender] -= tokens */\n      dup3\n      dup3\n      sload\n      tag_290\n      swap2\n      swap1\n      tag_201\n      jump\t// in\n    tag_290:\n      swap3\n      pop\n      pop\n      dup2\n      swap1\n      sstore\n      pop\n        /* \"contracts/tokenICO.sol\":2236:2238  to */\n      dup3\n        /* \"contracts/tokenICO.sol\":2215:2247  Transfer(msg.sender, to, tokens) */\n      0xffffffffffffffffffffffffffffffffffffffff\n      and\n        /* \"contracts/tokenICO.sol\":2224:2234  msg.sender */\n      caller\n        /* \"contracts/tokenICO.sol\":2215:2247  Transfer(msg.sender, to, tokens) */\n      0xffffffffffffffffffffffffffffffffffffffff\n      and\n      0xddf252ad1be2c89b69c2b068fc378daa952ba7f163c4a11628f55a4df523b3ef\n        /* \"contracts/tokenICO.sol\":2240:2246  tokens */\n      dup5\n        /* \"contracts/tokenICO.sol\":2215:2247  Transfer(msg.sender, to, tokens) */\n      mload(0x40)\n      tag_291\n      swap2\n      swap1\n      tag_47\n      jump\t// in\n    tag_291:\n      mload(0x40)\n      dup1\n      swap2\n      sub\n      swap1\n      log3\n        /* \"contracts/tokenICO.sol\":2267:2271  true */\n      0x01\n        /* \"contracts/tokenICO.sol\":2260:2271  return true */\n      swap1\n      pop\n        /* \"contracts/tokenICO.sol\":1939:2279  function transfer(address to, uint256 tokens)\r... */\n      swap3\n      swap2\n      pop\n      pop\n      jump\t// out\n        /* \"#utility.yul\":7:146   */\n    tag_293:\n        /* \"#utility.yul\":53:58   */\n      0x00\n        /* \"#utility.yul\":91:97   */\n      dup2\n        /* \"#utility.yul\":78:98   */\n      calldataload\n        /* \"#utility.yul\":69:98   */\n      swap1\n      pop\n        /* \"#utility.yul\":107:140   */\n      tag_295\n        /* \"#utility.yul\":134:139   */\n      dup2\n        /* \"#utility.yul\":107:140   */\n      tag_296\n      jump\t// in\n    tag_295:\n        /* \"#utility.yul\":7:146   */\n      swap3\n      swap2\n      pop\n      pop\n      jump\t// out\n        /* \"#utility.yul\":152:307   */\n    tag_297:\n        /* \"#utility.yul\":206:211   */\n      0x00\n        /* \"#utility.yul\":244:250   */\n      dup2\n        /* \"#utility.yul\":231:251   */\n      calldataload\n        /* \"#utility.yul\":222:251   */\n      swap1\n      pop\n        /* \"#utility.yul\":260:301   */\n      tag_299\n        /* \"#utility.yul\":295:300   */\n      dup2\n        /* \"#utility.yul\":260:301   */\n      tag_300\n      jump\t// in\n    tag_299:\n        /* \"#utility.yul\":152:307   */\n      swap3\n      swap2\n      pop\n      pop\n      jump\t// out\n        /* \"#utility.yul\":313:450   */\n    tag_301:\n        /* \"#utility.yul\":367:372   */\n      0x00\n        /* \"#utility.yul\":398:404   */\n      dup2\n        /* \"#utility.yul\":392:405   */\n      mload\n        /* \"#utility.yul\":383:405   */\n      swap1\n      pop\n        /* \"#utility.yul\":414:444   */\n      tag_303\n        /* \"#utility.yul\":438:443   */\n      dup2\n        /* \"#utility.yul\":414:444   */\n      tag_304\n      jump\t// in\n    tag_303:\n        /* \"#utility.yul\":313:450   */\n      swap3\n      swap2\n      pop\n      pop\n      jump\t// out\n        /* \"#utility.yul\":456:595   */\n    tag_305:\n        /* \"#utility.yul\":502:507   */\n      0x00\n        /* \"#utility.yul\":540:546   */\n      dup2\n        /* \"#utility.yul\":527:547   */\n      calldataload\n        /* \"#utility.yul\":518:547   */\n      swap1\n      pop\n        /* \"#utility.yul\":556:589   */\n      tag_307\n        /* \"#utility.yul\":583:588   */\n      dup2\n        /* \"#utility.yul\":556:589   */\n      tag_308\n      jump\t// in\n    tag_307:\n        /* \"#utility.yul\":456:595   */\n      swap3\n      swap2\n      pop\n      pop\n      jump\t// out\n        /* \"#utility.yul\":601:744   */\n    tag_309:\n        /* \"#utility.yul\":658:663   */\n      0x00\n        /* \"#utility.yul\":689:695   */\n      dup2\n        /* \"#utility.yul\":683:696   */\n      mload\n        /* \"#utility.yul\":674:696   */\n      swap1\n      pop\n        /* \"#utility.yul\":705:738   */\n      tag_311\n        /* \"#utility.yul\":732:737   */\n      dup2\n        /* \"#utility.yul\":705:738   */\n      tag_308\n      jump\t// in\n    tag_311:\n        /* \"#utility.yul\":601:744   */\n      swap3\n      swap2\n      pop\n      pop\n      jump\t// out\n        /* \"#utility.yul\":750:1079   */\n    tag_76:\n        /* \"#utility.yul\":809:815   */\n      0x00\n        /* \"#utility.yul\":858:860   */\n      0x20\n        /* \"#utility.yul\":846:855   */\n      dup3\n        /* \"#utility.yul\":837:844   */\n      dup5\n        /* \"#utility.yul\":833:856   */\n      sub\n        /* \"#utility.yul\":829:861   */\n      slt\n        /* \"#utility.yul\":826:945   */\n      iszero\n      tag_313\n      jumpi\n        /* \"#utility.yul\":864:943   */\n      tag_314\n      tag_315\n      jump\t// in\n    tag_314:\n        /* \"#utility.yul\":826:945   */\n    tag_313:\n        /* \"#utility.yul\":984:985   */\n      0x00\n        /* \"#utility.yul\":1009:1062   */\n      tag_316\n        /* \"#utility.yul\":1054:1061   */\n      dup5\n        /* \"#utility.yul\":1045:1051   */\n      dup3\n        /* \"#utility.yul\":1034:1043   */\n      dup6\n        /* \"#utility.yul\":1030:1052   */\n      add\n        /* \"#utility.yul\":1009:1062   */\n      tag_293\n      jump\t// in\n    tag_316:\n        /* \"#utility.yul\":999:1062   */\n      swap2\n      pop\n        /* \"#utility.yul\":955:1072   */\n      pop\n        /* \"#utility.yul\":750:1079   */\n      swap3\n      swap2\n      pop\n      pop\n      jump\t// out\n        /* \"#utility.yul\":1085:1430   */\n    tag_115:\n        /* \"#utility.yul\":1152:1158   */\n      0x00\n        /* \"#utility.yul\":1201:1203   */\n      0x20\n        /* \"#utility.yul\":1189:1198   */\n      dup3\n        /* \"#utility.yul\":1180:1187   */\n      dup5\n        /* \"#utility.yul\":1176:1199   */\n      sub\n        /* \"#utility.yul\":1172:1204   */\n      slt\n        /* \"#utility.yul\":1169:1288   */\n      iszero\n      tag_318\n      jumpi\n        /* \"#utility.yul\":1207:1286   */\n      tag_319\n      tag_315\n      jump\t// in\n    tag_319:\n        /* \"#utility.yul\":1169:1288   */\n    tag_318:\n        /* \"#utility.yul\":1327:1328   */\n      0x00\n        /* \"#utility.yul\":1352:1413   */\n      tag_320\n        /* \"#utility.yul\":1405:1412   */\n      dup5\n        /* \"#utility.yul\":1396:1402   */\n      dup3\n        /* \"#utility.yul\":1385:1394   */\n      dup6\n        /* \"#utility.yul\":1381:1403   */\n      add\n        /* \"#utility.yul\":1352:1413   */\n      tag_297\n      jump\t// in\n    tag_320:\n        /* \"#utility.yul\":1342:1413   */\n      swap2\n      pop\n        /* \"#utility.yul\":1298:1423   */\n      pop\n        /* \"#utility.yul\":1085:1430   */\n      swap3\n      swap2\n      pop\n      pop\n      jump\t// out\n        /* \"#utility.yul\":1436:1910   */\n    tag_159:\n        /* \"#utility.yul\":1504:1510   */\n      0x00\n        /* \"#utility.yul\":1512:1518   */\n      dup1\n        /* \"#utility.yul\":1561:1563   */\n      0x40\n        /* \"#utility.yul\":1549:1558   */\n      dup4\n        /* \"#utility.yul\":1540:1547   */\n      dup6\n        /* \"#utility.yul\":1536:1559   */\n      sub\n        /* \"#utility.yul\":1532:1564   */\n      slt\n        /* \"#utility.yul\":1529:1648   */\n      iszero\n      tag_322\n      jumpi\n        /* \"#utility.yul\":1567:1646   */\n      tag_323\n      tag_315\n      jump\t// in\n    tag_323:\n        /* \"#utility.yul\":1529:1648   */\n    tag_322:\n        /* \"#utility.yul\":1687:1688   */\n      0x00\n        /* \"#utility.yul\":1712:1765   */\n      tag_324\n        /* \"#utility.yul\":1757:1764   */\n      dup6\n        /* \"#utility.yul\":1748:1754   */\n      dup3\n        /* \"#utility.yul\":1737:1746   */\n      dup7\n        /* \"#utility.yul\":1733:1755   */\n      add\n        /* \"#utility.yul\":1712:1765   */\n      tag_293\n      jump\t// in\n    tag_324:\n        /* \"#utility.yul\":1702:1765   */\n      swap3\n      pop\n        /* \"#utility.yul\":1658:1775   */\n      pop\n        /* \"#utility.yul\":1814:1816   */\n      0x20\n        /* \"#utility.yul\":1840:1893   */\n      tag_325\n        /* \"#utility.yul\":1885:1892   */\n      dup6\n        /* \"#utility.yul\":1876:1882   */\n      dup3\n        /* \"#utility.yul\":1865:1874   */\n      dup7\n        /* \"#utility.yul\":1861:1883   */\n      add\n        /* \"#utility.yul\":1840:1893   */\n      tag_293\n      jump\t// in\n    tag_325:\n        /* \"#utility.yul\":1830:1893   */\n      swap2\n      pop\n        /* \"#utility.yul\":1785:1903   */\n      pop\n        /* \"#utility.yul\":1436:1910   */\n      swap3\n      pop\n      swap3\n      swap1\n      pop\n      jump\t// out\n        /* \"#utility.yul\":1916:2535   */\n    tag_70:\n        /* \"#utility.yul\":1993:1999   */\n      0x00\n        /* \"#utility.yul\":2001:2007   */\n      dup1\n        /* \"#utility.yul\":2009:2015   */\n      0x00\n        /* \"#utility.yul\":2058:2060   */\n      0x60\n        /* \"#utility.yul\":2046:2055   */\n      dup5\n        /* \"#utility.yul\":2037:2044   */\n      dup7\n        /* \"#utility.yul\":2033:2056   */\n      sub\n        /* \"#utility.yul\":2029:2061   */\n      slt\n        /* \"#utility.yul\":2026:2145   */\n      iszero\n      tag_327\n      jumpi\n        /* \"#utility.yul\":2064:2143   */\n      tag_328\n      tag_315\n      jump\t// in\n    tag_328:\n        /* \"#utility.yul\":2026:2145   */\n    tag_327:\n        /* \"#utility.yul\":2184:2185   */\n      0x00\n        /* \"#utility.yul\":2209:2262   */\n      tag_329\n        /* \"#utility.yul\":2254:2261   */\n      dup7\n        /* \"#utility.yul\":2245:2251   */\n      dup3\n        /* \"#utility.yul\":2234:2243   */\n      dup8\n        /* \"#utility.yul\":2230:2252   */\n      add\n        /* \"#utility.yul\":2209:2262   */\n      tag_293\n      jump\t// in\n    tag_329:\n        /* \"#utility.yul\":2199:2262   */\n      swap4\n      pop\n        /* \"#utility.yul\":2155:2272   */\n      pop\n        /* \"#utility.yul\":2311:2313   */\n      0x20\n        /* \"#utility.yul\":2337:2390   */\n      tag_330\n        /* \"#utility.yul\":2382:2389   */\n      dup7\n        /* \"#utility.yul\":2373:2379   */\n      dup3\n        /* \"#utility.yul\":2362:2371   */\n      dup8\n        /* \"#utility.yul\":2358:2380   */\n      add\n        /* \"#utility.yul\":2337:2390   */\n      tag_293\n      jump\t// in\n    tag_330:\n        /* \"#utility.yul\":2327:2390   */\n      swap3\n      pop\n        /* \"#utility.yul\":2282:2400   */\n      pop\n        /* \"#utility.yul\":2439:2441   */\n      0x40\n        /* \"#utility.yul\":2465:2518   */\n      tag_331\n        /* \"#utility.yul\":2510:2517   */\n      dup7\n        /* \"#utility.yul\":2501:2507   */\n      dup3\n        /* \"#utility.yul\":2490:2499   */\n      dup8\n        /* \"#utility.yul\":2486:2508   */\n      add\n        /* \"#utility.yul\":2465:2518   */\n      tag_305\n      jump\t// in\n    tag_331:\n        /* \"#utility.yul\":2455:2518   */\n      swap2\n      pop\n        /* \"#utility.yul\":2410:2528   */\n      pop\n        /* \"#utility.yul\":1916:2535   */\n      swap3\n      pop\n      swap3\n      pop\n      swap3\n      jump\t// out\n        /* \"#utility.yul\":2541:3015   */\n    tag_59:\n        /* \"#utility.yul\":2609:2615   */\n      0x00\n        /* \"#utility.yul\":2617:2623   */\n      dup1\n        /* \"#utility.yul\":2666:2668   */\n      0x40\n        /* \"#utility.yul\":2654:2663   */\n      dup4\n        /* \"#utility.yul\":2645:2652   */\n      dup6\n        /* \"#utility.yul\":2641:2664   */\n      sub\n        /* \"#utility.yul\":2637:2669   */\n      slt\n        /* \"#utility.yul\":2634:2753   */\n      iszero\n      tag_333\n      jumpi\n        /* \"#utility.yul\":2672:2751   */\n      tag_334\n      tag_315\n      jump\t// in\n    tag_334:\n        /* \"#utility.yul\":2634:2753   */\n    tag_333:\n        /* \"#utility.yul\":2792:2793   */\n      0x00\n        /* \"#utility.yul\":2817:2870   */\n      tag_335\n        /* \"#utility.yul\":2862:2869   */\n      dup6\n        /* \"#utility.yul\":2853:2859   */\n      dup3\n        /* \"#utility.yul\":2842:2851   */\n      dup7\n        /* \"#utility.yul\":2838:2860   */\n      add\n        /* \"#utility.yul\":2817:2870   */\n      tag_293\n      jump\t// in\n    tag_335:\n        /* \"#utility.yul\":2807:2870   */\n      swap3\n      pop\n        /* \"#utility.yul\":2763:2880   */\n      pop\n        /* \"#utility.yul\":2919:2921   */\n      0x20\n        /* \"#utility.yul\":2945:2998   */\n      tag_336\n        /* \"#utility.yul\":2990:2997   */\n      dup6\n        /* \"#utility.yul\":2981:2987   */\n      dup3\n        /* \"#utility.yul\":2970:2979   */\n      dup7\n        /* \"#utility.yul\":2966:2988   */\n      add\n        /* \"#utility.yul\":2945:2998   */\n      tag_305\n      jump\t// in\n    tag_336:\n        /* \"#utility.yul\":2935:2998   */\n      swap2\n      pop\n        /* \"#utility.yul\":2890:3008   */\n      pop\n        /* \"#utility.yul\":2541:3015   */\n      swap3\n      pop\n      swap3\n      swap1\n      pop\n      jump\t// out\n        /* \"#utility.yul\":3021:3366   */\n    tag_197:\n        /* \"#utility.yul\":3088:3094   */\n      0x00\n        /* \"#utility.yul\":3137:3139   */\n      0x20\n        /* \"#utility.yul\":3125:3134   */\n      dup3\n        /* \"#utility.yul\":3116:3123   */\n      dup5\n        /* \"#utility.yul\":3112:3135   */\n      sub\n        /* \"#utility.yul\":3108:3140   */\n      slt\n        /* \"#utility.yul\":3105:3224   */\n      iszero\n      tag_338\n      jumpi\n        /* \"#utility.yul\":3143:3222   */\n      tag_339\n      tag_315\n      jump\t// in\n    tag_339:\n        /* \"#utility.yul\":3105:3224   */\n    tag_338:\n        /* \"#utility.yul\":3263:3264   */\n      0x00\n        /* \"#utility.yul\":3288:3349   */\n      tag_340\n        /* \"#utility.yul\":3341:3348   */\n      dup5\n        /* \"#utility.yul\":3332:3338   */\n      dup3\n        /* \"#utility.yul\":3321:3330   */\n      dup6\n        /* \"#utility.yul\":3317:3339   */\n      add\n        /* \"#utility.yul\":3288:3349   */\n      tag_301\n      jump\t// in\n    tag_340:\n        /* \"#utility.yul\":3278:3349   */\n      swap2\n      pop\n        /* \"#utility.yul\":3234:3359   */\n      pop\n        /* \"#utility.yul\":3021:3366   */\n      swap3\n      swap2\n      pop\n      pop\n      jump\t// out\n        /* \"#utility.yul\":3372:3723   */\n    tag_244:\n        /* \"#utility.yul\":3442:3448   */\n      0x00\n        /* \"#utility.yul\":3491:3493   */\n      0x20\n        /* \"#utility.yul\":3479:3488   */\n      dup3\n        /* \"#utility.yul\":3470:3477   */\n      dup5\n        /* \"#utility.yul\":3466:3489   */\n      sub\n        /* \"#utility.yul\":3462:3494   */\n      slt\n        /* \"#utility.yul\":3459:3578   */\n      iszero\n      tag_342\n      jumpi\n        /* \"#utility.yul\":3497:3576   */\n      tag_343\n      tag_315\n      jump\t// in\n    tag_343:\n        /* \"#utility.yul\":3459:3578   */\n    tag_342:\n        /* \"#utility.yul\":3617:3618   */\n      0x00\n        /* \"#utility.yul\":3642:3706   */\n      tag_344\n        /* \"#utility.yul\":3698:3705   */\n      dup5\n        /* \"#utility.yul\":3689:3695   */\n      dup3\n        /* \"#utility.yul\":3678:3687   */\n      dup6\n        /* \"#utility.yul\":3674:3696   */\n      add\n        /* \"#utility.yul\":3642:3706   */\n      tag_309\n      jump\t// in\n    tag_344:\n        /* \"#utility.yul\":3632:3706   */\n      swap2\n      pop\n        /* \"#utility.yul\":3588:3716   */\n      pop\n        /* \"#utility.yul\":3372:3723   */\n      swap3\n      swap2\n      pop\n      pop\n      jump\t// out\n        /* \"#utility.yul\":3729:3871   */\n    tag_345:\n        /* \"#utility.yul\":3832:3864   */\n      tag_347\n        /* \"#utility.yul\":3858:3863   */\n      dup2\n        /* \"#utility.yul\":3832:3864   */\n      tag_348\n      jump\t// in\n    tag_347:\n        /* \"#utility.yul\":3827:3830   */\n      dup3\n        /* \"#utility.yul\":3820:3865   */\n      mstore\n        /* \"#utility.yul\":3729:3871   */\n      pop\n      pop\n      jump\t// out\n        /* \"#utility.yul\":3877:3995   */\n    tag_349:\n        /* \"#utility.yul\":3964:3988   */\n      tag_351\n        /* \"#utility.yul\":3982:3987   */\n      dup2\n        /* \"#utility.yul\":3964:3988   */\n      tag_352\n      jump\t// in\n    tag_351:\n        /* \"#utility.yul\":3959:3962   */\n      dup3\n        /* \"#utility.yul\":3952:3989   */\n      mstore\n        /* \"#utility.yul\":3877:3995   */\n      pop\n      pop\n      jump\t// out\n        /* \"#utility.yul\":4001:4110   */\n    tag_353:\n        /* \"#utility.yul\":4082:4103   */\n      tag_355\n        /* \"#utility.yul\":4097:4102   */\n      dup2\n        /* \"#utility.yul\":4082:4103   */\n      tag_356\n      jump\t// in\n    tag_355:\n        /* \"#utility.yul\":4077:4080   */\n      dup3\n        /* \"#utility.yul\":4070:4104   */\n      mstore\n        /* \"#utility.yul\":4001:4110   */\n      pop\n      pop\n      jump\t// out\n        /* \"#utility.yul\":4116:4289   */\n    tag_357:\n        /* \"#utility.yul\":4224:4282   */\n      tag_359\n        /* \"#utility.yul\":4276:4281   */\n      dup2\n        /* \"#utility.yul\":4224:4282   */\n      tag_360\n      jump\t// in\n    tag_359:\n        /* \"#utility.yul\":4219:4222   */\n      dup3\n        /* \"#utility.yul\":4212:4283   */\n      mstore\n        /* \"#utility.yul\":4116:4289   */\n      pop\n      pop\n      jump\t// out\n        /* \"#utility.yul\":4295:4440   */\n    tag_361:\n        /* \"#utility.yul\":4389:4433   */\n      tag_363\n        /* \"#utility.yul\":4427:4432   */\n      dup2\n        /* \"#utility.yul\":4389:4433   */\n      tag_364\n      jump\t// in\n    tag_363:\n        /* \"#utility.yul\":4384:4387   */\n      dup3\n        /* \"#utility.yul\":4377:4434   */\n      mstore\n        /* \"#utility.yul\":4295:4440   */\n      pop\n      pop\n      jump\t// out\n        /* \"#utility.yul\":4446:4810   */\n    tag_365:\n        /* \"#utility.yul\":4534:4537   */\n      0x00\n        /* \"#utility.yul\":4562:4601   */\n      tag_367\n        /* \"#utility.yul\":4595:4600   */\n      dup3\n        /* \"#utility.yul\":4562:4601   */\n      tag_368\n      jump\t// in\n    tag_367:\n        /* \"#utility.yul\":4617:4688   */\n      tag_369\n        /* \"#utility.yul\":4681:4687   */\n      dup2\n        /* \"#utility.yul\":4676:4679   */\n      dup6\n        /* \"#utility.yul\":4617:4688   */\n      tag_370\n      jump\t// in\n    tag_369:\n        /* \"#utility.yul\":4610:4688   */\n      swap4\n      pop\n        /* \"#utility.yul\":4697:4749   */\n      tag_371\n        /* \"#utility.yul\":4742:4748   */\n      dup2\n        /* \"#utility.yul\":4737:4740   */\n      dup6\n        /* \"#utility.yul\":4730:4734   */\n      0x20\n        /* \"#utility.yul\":4723:4728   */\n      dup7\n        /* \"#utility.yul\":4719:4735   */\n      add\n        /* \"#utility.yul\":4697:4749   */\n      tag_372\n      jump\t// in\n    tag_371:\n        /* \"#utility.yul\":4774:4803   */\n      tag_373\n        /* \"#utility.yul\":4796:4802   */\n      dup2\n        /* \"#utility.yul\":4774:4803   */\n      tag_374\n      jump\t// in\n    tag_373:\n        /* \"#utility.yul\":4769:4772   */\n      dup5\n        /* \"#utility.yul\":4765:4804   */\n      add\n        /* \"#utility.yul\":4758:4804   */\n      swap2\n      pop\n        /* \"#utility.yul\":4538:4810   */\n      pop\n        /* \"#utility.yul\":4446:4810   */\n      swap3\n      swap2\n      pop\n      pop\n      jump\t// out\n        /* \"#utility.yul\":4816:4934   */\n    tag_375:\n        /* \"#utility.yul\":4903:4927   */\n      tag_377\n        /* \"#utility.yul\":4921:4926   */\n      dup2\n        /* \"#utility.yul\":4903:4927   */\n      tag_378\n      jump\t// in\n    tag_377:\n        /* \"#utility.yul\":4898:4901   */\n      dup3\n        /* \"#utility.yul\":4891:4928   */\n      mstore\n        /* \"#utility.yul\":4816:4934   */\n      pop\n      pop\n      jump\t// out\n        /* \"#utility.yul\":4940:5162   */\n    tag_103:\n        /* \"#utility.yul\":5033:5037   */\n      0x00\n        /* \"#utility.yul\":5071:5073   */\n      0x20\n        /* \"#utility.yul\":5060:5069   */\n      dup3\n        /* \"#utility.yul\":5056:5074   */\n      add\n        /* \"#utility.yul\":5048:5074   */\n      swap1\n      pop\n        /* \"#utility.yul\":5084:5155   */\n      tag_380\n        /* \"#utility.yul\":5152:5153   */\n      0x00\n        /* \"#utility.yul\":5141:5150   */\n      dup4\n        /* \"#utility.yul\":5137:5154   */\n      add\n        /* \"#utility.yul\":5128:5134   */\n      dup5\n        /* \"#utility.yul\":5084:5155   */\n      tag_349\n      jump\t// in\n    tag_380:\n        /* \"#utility.yul\":4940:5162   */\n      swap3\n      swap2\n      pop\n      pop\n      jump\t// out\n        /* \"#utility.yul\":5168:5422   */\n    tag_155:\n        /* \"#utility.yul\":5277:5281   */\n      0x00\n        /* \"#utility.yul\":5315:5317   */\n      0x20\n        /* \"#utility.yul\":5304:5313   */\n      dup3\n        /* \"#utility.yul\":5300:5318   */\n      add\n        /* \"#utility.yul\":5292:5318   */\n      swap1\n      pop\n        /* \"#utility.yul\":5328:5415   */\n      tag_382\n        /* \"#utility.yul\":5412:5413   */\n      0x00\n        /* \"#utility.yul\":5401:5410   */\n      dup4\n        /* \"#utility.yul\":5397:5414   */\n      add\n        /* \"#utility.yul\":5388:5394   */\n      dup5\n        /* \"#utility.yul\":5328:5415   */\n      tag_345\n      jump\t// in\n    tag_382:\n        /* \"#utility.yul\":5168:5422   */\n      swap3\n      swap2\n      pop\n      pop\n      jump\t// out\n        /* \"#utility.yul\":5428:5760   */\n    tag_192:\n        /* \"#utility.yul\":5549:5553   */\n      0x00\n        /* \"#utility.yul\":5587:5589   */\n      0x40\n        /* \"#utility.yul\":5576:5585   */\n      dup3\n        /* \"#utility.yul\":5572:5590   */\n      add\n        /* \"#utility.yul\":5564:5590   */\n      swap1\n      pop\n        /* \"#utility.yul\":5600:5671   */\n      tag_384\n        /* \"#utility.yul\":5668:5669   */\n      0x00\n        /* \"#utility.yul\":5657:5666   */\n      dup4\n        /* \"#utility.yul\":5653:5670   */\n      add\n        /* \"#utility.yul\":5644:5650   */\n      dup6\n        /* \"#utility.yul\":5600:5671   */\n      tag_349\n      jump\t// in\n    tag_384:\n        /* \"#utility.yul\":5681:5753   */\n      tag_385\n        /* \"#utility.yul\":5749:5751   */\n      0x20\n        /* \"#utility.yul\":5738:5747   */\n      dup4\n        /* \"#utility.yul\":5734:5752   */\n      add\n        /* \"#utility.yul\":5725:5731   */\n      dup5\n        /* \"#utility.yul\":5681:5753   */\n      tag_375\n      jump\t// in\n    tag_385:\n        /* \"#utility.yul\":5428:5760   */\n      swap4\n      swap3\n      pop\n      pop\n      pop\n      jump\t// out\n        /* \"#utility.yul\":5766:6208   */\n    tag_205:\n        /* \"#utility.yul\":5915:5919   */\n      0x00\n        /* \"#utility.yul\":5953:5955   */\n      0x60\n        /* \"#utility.yul\":5942:5951   */\n      dup3\n        /* \"#utility.yul\":5938:5956   */\n      add\n        /* \"#utility.yul\":5930:5956   */\n      swap1\n      pop\n        /* \"#utility.yul\":5966:6037   */\n      tag_387\n        /* \"#utility.yul\":6034:6035   */\n      0x00\n        /* \"#utility.yul\":6023:6032   */\n      dup4\n        /* \"#utility.yul\":6019:6036   */\n      add\n        /* \"#utility.yul\":6010:6016   */\n      dup7\n        /* \"#utility.yul\":5966:6037   */\n      tag_349\n      jump\t// in\n    tag_387:\n        /* \"#utility.yul\":6047:6119   */\n      tag_388\n        /* \"#utility.yul\":6115:6117   */\n      0x20\n        /* \"#utility.yul\":6104:6113   */\n      dup4\n        /* \"#utility.yul\":6100:6118   */\n      add\n        /* \"#utility.yul\":6091:6097   */\n      dup6\n        /* \"#utility.yul\":6047:6119   */\n      tag_375\n      jump\t// in\n    tag_388:\n        /* \"#utility.yul\":6129:6201   */\n      tag_389\n        /* \"#utility.yul\":6197:6199   */\n      0x40\n        /* \"#utility.yul\":6186:6195   */\n      dup4\n        /* \"#utility.yul\":6182:6200   */\n      add\n        /* \"#utility.yul\":6173:6179   */\n      dup5\n        /* \"#utility.yul\":6129:6201   */\n      tag_375\n      jump\t// in\n    tag_389:\n        /* \"#utility.yul\":5766:6208   */\n      swap5\n      swap4\n      pop\n      pop\n      pop\n      pop\n      jump\t// out\n        /* \"#utility.yul\":6214:6424   */\n    tag_62:\n        /* \"#utility.yul\":6301:6305   */\n      0x00\n        /* \"#utility.yul\":6339:6341   */\n      0x20\n        /* \"#utility.yul\":6328:6337   */\n      dup3\n        /* \"#utility.yul\":6324:6342   */\n      add\n        /* \"#utility.yul\":6316:6342   */\n      swap1\n      pop\n        /* \"#utility.yul\":6352:6417   */\n      tag_391\n        /* \"#utility.yul\":6414:6415   */\n      0x00\n        /* \"#utility.yul\":6403:6412   */\n      dup4\n        /* \"#utility.yul\":6399:6416   */\n      add\n        /* \"#utility.yul\":6390:6396   */\n      dup5\n        /* \"#utility.yul\":6352:6417   */\n      tag_353\n      jump\t// in\n    tag_391:\n        /* \"#utility.yul\":6214:6424   */\n      swap3\n      swap2\n      pop\n      pop\n      jump\t// out\n        /* \"#utility.yul\":6430:6694   */\n    tag_108:\n        /* \"#utility.yul\":6544:6548   */\n      0x00\n        /* \"#utility.yul\":6582:6584   */\n      0x20\n        /* \"#utility.yul\":6571:6580   */\n      dup3\n        /* \"#utility.yul\":6567:6585   */\n      add\n        /* \"#utility.yul\":6559:6585   */\n      swap1\n      pop\n        /* \"#utility.yul\":6595:6687   */\n      tag_393\n        /* \"#utility.yul\":6684:6685   */\n      0x00\n        /* \"#utility.yul\":6673:6682   */\n      dup4\n        /* \"#utility.yul\":6669:6686   */\n      add\n        /* \"#utility.yul\":6660:6666   */\n      dup5\n        /* \"#utility.yul\":6595:6687   */\n      tag_357\n      jump\t// in\n    tag_393:\n        /* \"#utility.yul\":6430:6694   */\n      swap3\n      swap2\n      pop\n      pop\n      jump\t// out\n        /* \"#utility.yul\":6700:6936   */\n    tag_87:\n        /* \"#utility.yul\":6800:6804   */\n      0x00\n        /* \"#utility.yul\":6838:6840   */\n      0x20\n        /* \"#utility.yul\":6827:6836   */\n      dup3\n        /* \"#utility.yul\":6823:6841   */\n      add\n        /* \"#utility.yul\":6815:6841   */\n      swap1\n      pop\n        /* \"#utility.yul\":6851:6929   */\n      tag_395\n        /* \"#utility.yul\":6926:6927   */\n      0x00\n        /* \"#utility.yul\":6915:6924   */\n      dup4\n        /* \"#utility.yul\":6911:6928   */\n      add\n        /* \"#utility.yul\":6902:6908   */\n      dup5\n        /* \"#utility.yul\":6851:6929   */\n      tag_361\n      jump\t// in\n    tag_395:\n        /* \"#utility.yul\":6700:6936   */\n      swap3\n      swap2\n      pop\n      pop\n      jump\t// out\n        /* \"#utility.yul\":6942:7255   */\n    tag_55:\n        /* \"#utility.yul\":7055:7059   */\n      0x00\n        /* \"#utility.yul\":7093:7095   */\n      0x20\n        /* \"#utility.yul\":7082:7091   */\n      dup3\n        /* \"#utility.yul\":7078:7096   */\n      add\n        /* \"#utility.yul\":7070:7096   */\n      swap1\n      pop\n        /* \"#utility.yul\":7142:7151   */\n      dup2\n        /* \"#utility.yul\":7136:7140   */\n      dup2\n        /* \"#utility.yul\":7132:7152   */\n      sub\n        /* \"#utility.yul\":7128:7129   */\n      0x00\n        /* \"#utility.yul\":7117:7126   */\n      dup4\n        /* \"#utility.yul\":7113:7130   */\n      add\n        /* \"#utility.yul\":7106:7153   */\n      mstore\n        /* \"#utility.yul\":7170:7248   */\n      tag_397\n        /* \"#utility.yul\":7243:7247   */\n      dup2\n        /* \"#utility.yul\":7234:7240   */\n      dup5\n        /* \"#utility.yul\":7170:7248   */\n      tag_365\n      jump\t// in\n    tag_397:\n        /* \"#utility.yul\":7162:7248   */\n      swap1\n      pop\n        /* \"#utility.yul\":6942:7255   */\n      swap3\n      swap2\n      pop\n      pop\n      jump\t// out\n        /* \"#utility.yul\":7261:7483   */\n    tag_47:\n        /* \"#utility.yul\":7354:7358   */\n      0x00\n        /* \"#utility.yul\":7392:7394   */\n      0x20\n        /* \"#utility.yul\":7381:7390   */\n      dup3\n        /* \"#utility.yul\":7377:7395   */\n      add\n        /* \"#utility.yul\":7369:7395   */\n      swap1\n      pop\n        /* \"#utility.yul\":7405:7476   */\n      tag_399\n        /* \"#utility.yul\":7473:7474   */\n      0x00\n        /* \"#utility.yul\":7462:7471   */\n      dup4\n        /* \"#utility.yul\":7458:7475   */\n      add\n        /* \"#utility.yul\":7449:7455   */\n      dup5\n        /* \"#utility.yul\":7405:7476   */\n      tag_375\n      jump\t// in\n    tag_399:\n        /* \"#utility.yul\":7261:7483   */\n      swap3\n      swap2\n      pop\n      pop\n      jump\t// out\n        /* \"#utility.yul\":7570:7669   */\n    tag_368:\n        /* \"#utility.yul\":7622:7628   */\n      0x00\n        /* \"#utility.yul\":7656:7661   */\n      dup2\n        /* \"#utility.yul\":7650:7662   */\n      mload\n        /* \"#utility.yul\":7640:7662   */\n      swap1\n      pop\n        /* \"#utility.yul\":7570:7669   */\n      swap2\n      swap1\n      pop\n      jump\t// out\n        /* \"#utility.yul\":7675:7844   */\n    tag_370:\n        /* \"#utility.yul\":7759:7770   */\n      0x00\n        /* \"#utility.yul\":7793:7799   */\n      dup3\n        /* \"#utility.yul\":7788:7791   */\n      dup3\n        /* \"#utility.yul\":7781:7800   */\n      mstore\n        /* \"#utility.yul\":7833:7837   */\n      0x20\n        /* \"#utility.yul\":7828:7831   */\n      dup3\n        /* \"#utility.yul\":7824:7838   */\n      add\n        /* \"#utility.yul\":7809:7838   */\n      swap1\n      pop\n        /* \"#utility.yul\":7675:7844   */\n      swap3\n      swap2\n      pop\n      pop\n      jump\t// out\n        /* \"#utility.yul\":7850:8155   */\n    tag_185:\n        /* \"#utility.yul\":7890:7893   */\n      0x00\n        /* \"#utility.yul\":7909:7929   */\n      tag_405\n        /* \"#utility.yul\":7927:7928   */\n      dup3\n        /* \"#utility.yul\":7909:7929   */\n      tag_378\n      jump\t// in\n    tag_405:\n        /* \"#utility.yul\":7904:7929   */\n      swap2\n      pop\n        /* \"#utility.yul\":7943:7963   */\n      tag_406\n        /* \"#utility.yul\":7961:7962   */\n      dup4\n        /* \"#utility.yul\":7943:7963   */\n      tag_378\n      jump\t// in\n    tag_406:\n        /* \"#utility.yul\":7938:7963   */\n      swap3\n      pop\n        /* \"#utility.yul\":8097:8098   */\n      dup3\n        /* \"#utility.yul\":8029:8095   */\n      0xffffffffffffffffffffffffffffffffffffffffffffffffffffffffffffffff\n        /* \"#utility.yul\":8025:8099   */\n      sub\n        /* \"#utility.yul\":8022:8023   */\n      dup3\n        /* \"#utility.yul\":8019:8100   */\n      gt\n        /* \"#utility.yul\":8016:8123   */\n      iszero\n      tag_407\n      jumpi\n        /* \"#utility.yul\":8103:8121   */\n      tag_408\n      tag_409\n      jump\t// in\n    tag_408:\n        /* \"#utility.yul\":8016:8123   */\n    tag_407:\n        /* \"#utility.yul\":8147:8148   */\n      dup3\n        /* \"#utility.yul\":8144:8145   */\n      dup3\n        /* \"#utility.yul\":8140:8149   */\n      add\n        /* \"#utility.yul\":8133:8149   */\n      swap1\n      pop\n        /* \"#utility.yul\":7850:8155   */\n      swap3\n      swap2\n      pop\n      pop\n      jump\t// out\n        /* \"#utility.yul\":8161:8346   */\n    tag_188:\n        /* \"#utility.yul\":8201:8202   */\n      0x00\n        /* \"#utility.yul\":8218:8238   */\n      tag_411\n        /* \"#utility.yul\":8236:8237   */\n      dup3\n        /* \"#utility.yul\":8218:8238   */\n      tag_378\n      jump\t// in\n    tag_411:\n        /* \"#utility.yul\":8213:8238   */\n      swap2\n      pop\n        /* \"#utility.yul\":8252:8272   */\n      tag_412\n        /* \"#utility.yul\":8270:8271   */\n      dup4\n        /* \"#utility.yul\":8252:8272   */\n      tag_378\n      jump\t// in\n    tag_412:\n        /* \"#utility.yul\":8247:8272   */\n      swap3\n      pop\n        /* \"#utility.yul\":8291:8292   */\n      dup3\n        /* \"#utility.yul\":8281:8316   */\n      tag_413\n      jumpi\n        /* \"#utility.yul\":8296:8314   */\n      tag_414\n      tag_415\n      jump\t// in\n    tag_414:\n        /* \"#utility.yul\":8281:8316   */\n    tag_413:\n        /* \"#utility.yul\":8338:8339   */\n      dup3\n        /* \"#utility.yul\":8335:8336   */\n      dup3\n        /* \"#utility.yul\":8331:8340   */\n      div\n        /* \"#utility.yul\":8326:8340   */\n      swap1\n      pop\n        /* \"#utility.yul\":8161:8346   */\n      swap3\n      swap2\n      pop\n      pop\n      jump\t// out\n        /* \"#utility.yul\":8352:8700   */\n    tag_190:\n        /* \"#utility.yul\":8392:8399   */\n      0x00\n        /* \"#utility.yul\":8415:8435   */\n      tag_417\n        /* \"#utility.yul\":8433:8434   */\n      dup3\n        /* \"#utility.yul\":8415:8435   */\n      tag_378\n      jump\t// in\n    tag_417:\n        /* \"#utility.yul\":8410:8435   */\n      swap2\n      pop\n        /* \"#utility.yul\":8449:8469   */\n      tag_418\n        /* \"#utility.yul\":8467:8468   */\n      dup4\n        /* \"#utility.yul\":8449:8469   */\n      tag_378\n      jump\t// in\n    tag_418:\n        /* \"#utility.yul\":8444:8469   */\n      swap3\n      pop\n        /* \"#utility.yul\":8637:8638   */\n      dup2\n        /* \"#utility.yul\":8569:8635   */\n      0xffffffffffffffffffffffffffffffffffffffffffffffffffffffffffffffff\n        /* \"#utility.yul\":8565:8639   */\n      div\n        /* \"#utility.yul\":8562:8563   */\n      dup4\n        /* \"#utility.yul\":8559:8640   */\n      gt\n        /* \"#utility.yul\":8554:8555   */\n      dup3\n        /* \"#utility.yul\":8547:8556   */\n      iszero\n        /* \"#utility.yul\":8540:8557   */\n      iszero\n        /* \"#utility.yul\":8536:8641   */\n      and\n        /* \"#utility.yul\":8533:8664   */\n      iszero\n      tag_419\n      jumpi\n        /* \"#utility.yul\":8644:8662   */\n      tag_420\n      tag_409\n      jump\t// in\n    tag_420:\n        /* \"#utility.yul\":8533:8664   */\n    tag_419:\n        /* \"#utility.yul\":8692:8693   */\n      dup3\n        /* \"#utility.yul\":8689:8690   */\n      dup3\n        /* \"#utility.yul\":8685:8694   */\n      mul\n        /* \"#utility.yul\":8674:8694   */\n      swap1\n      pop\n        /* \"#utility.yul\":8352:8700   */\n      swap3\n      swap2\n      pop\n      pop\n      jump\t// out\n        /* \"#utility.yul\":8706:8897   */\n    tag_201:\n        /* \"#utility.yul\":8746:8750   */\n      0x00\n        /* \"#utility.yul\":8766:8786   */\n      tag_422\n        /* \"#utility.yul\":8784:8785   */\n      dup3\n        /* \"#utility.yul\":8766:8786   */\n      tag_378\n      jump\t// in\n    tag_422:\n        /* \"#utility.yul\":8761:8786   */\n      swap2\n      pop\n        /* \"#utility.yul\":8800:8820   */\n      tag_423\n        /* \"#utility.yul\":8818:8819   */\n      dup4\n        /* \"#utility.yul\":8800:8820   */\n      tag_378\n      jump\t// in\n    tag_423:\n        /* \"#utility.yul\":8795:8820   */\n      swap3\n      pop\n        /* \"#utility.yul\":8839:8840   */\n      dup3\n        /* \"#utility.yul\":8836:8837   */\n      dup3\n        /* \"#utility.yul\":8833:8841   */\n      lt\n        /* \"#utility.yul\":8830:8864   */\n      iszero\n      tag_424\n      jumpi\n        /* \"#utility.yul\":8844:8862   */\n      tag_425\n      tag_409\n      jump\t// in\n    tag_425:\n        /* \"#utility.yul\":8830:8864   */\n    tag_424:\n        /* \"#utility.yul\":8889:8890   */\n      dup3\n        /* \"#utility.yul\":8886:8887   */\n      dup3\n        /* \"#utility.yul\":8882:8891   */\n      sub\n        /* \"#utility.yul\":8874:8891   */\n      swap1\n      pop\n        /* \"#utility.yul\":8706:8897   */\n      swap3\n      swap2\n      pop\n      pop\n      jump\t// out\n        /* \"#utility.yul\":8903:8999   */\n    tag_352:\n        /* \"#utility.yul\":8940:8947   */\n      0x00\n        /* \"#utility.yul\":8969:8993   */\n      tag_427\n        /* \"#utility.yul\":8987:8992   */\n      dup3\n        /* \"#utility.yul\":8969:8993   */\n      tag_428\n      jump\t// in\n    tag_427:\n        /* \"#utility.yul\":8958:8993   */\n      swap1\n      pop\n        /* \"#utility.yul\":8903:8999   */\n      swap2\n      swap1\n      pop\n      jump\t// out\n        /* \"#utility.yul\":9005:9109   */\n    tag_348:\n        /* \"#utility.yul\":9050:9057   */\n      0x00\n        /* \"#utility.yul\":9079:9103   */\n      tag_430\n        /* \"#utility.yul\":9097:9102   */\n      dup3\n        /* \"#utility.yul\":9079:9103   */\n      tag_428\n      jump\t// in\n    tag_430:\n        /* \"#utility.yul\":9068:9103   */\n      swap1\n      pop\n        /* \"#utility.yul\":9005:9109   */\n      swap2\n      swap1\n      pop\n      jump\t// out\n        /* \"#utility.yul\":9115:9205   */\n    tag_356:\n        /* \"#utility.yul\":9149:9156   */\n      0x00\n        /* \"#utility.yul\":9192:9197   */\n      dup2\n        /* \"#utility.yul\":9185:9198   */\n      iszero\n        /* \"#utility.yul\":9178:9199   */\n      iszero\n        /* \"#utility.yul\":9167:9199   */\n      swap1\n      pop\n        /* \"#utility.yul\":9115:9205   */\n      swap2\n      swap1\n      pop\n      jump\t// out\n        /* \"#utility.yul\":9211:9340   */\n    tag_432:\n        /* \"#utility.yul\":9257:9264   */\n      0x00\n        /* \"#utility.yul\":9286:9291   */\n      dup2\n        /* \"#utility.yul\":9275:9291   */\n      swap1\n      pop\n        /* \"#utility.yul\":9292:9334   */\n      tag_434\n        /* \"#utility.yul\":9328:9333   */\n      dup3\n        /* \"#utility.yul\":9292:9334   */\n      tag_435\n      jump\t// in\n    tag_434:\n        /* \"#utility.yul\":9211:9340   */\n      swap2\n      swap1\n      pop\n      jump\t// out\n        /* \"#utility.yul\":9346:9472   */\n    tag_428:\n        /* \"#utility.yul\":9383:9390   */\n      0x00\n        /* \"#utility.yul\":9423:9465   */\n      0xffffffffffffffffffffffffffffffffffffffff\n        /* \"#utility.yul\":9416:9421   */\n      dup3\n        /* \"#utility.yul\":9412:9466   */\n      and\n        /* \"#utility.yul\":9401:9466   */\n      swap1\n      pop\n        /* \"#utility.yul\":9346:9472   */\n      swap2\n      swap1\n      pop\n      jump\t// out\n        /* \"#utility.yul\":9478:9555   */\n    tag_378:\n        /* \"#utility.yul\":9515:9522   */\n      0x00\n        /* \"#utility.yul\":9544:9549   */\n      dup2\n        /* \"#utility.yul\":9533:9549   */\n      swap1\n      pop\n        /* \"#utility.yul\":9478:9555   */\n      swap2\n      swap1\n      pop\n      jump\t// out\n        /* \"#utility.yul\":9561:9708   */\n    tag_360:\n        /* \"#utility.yul\":9632:9641   */\n      0x00\n        /* \"#utility.yul\":9665:9702   */\n      tag_439\n        /* \"#utility.yul\":9696:9701   */\n      dup3\n        /* \"#utility.yul\":9665:9702   */\n      tag_440\n      jump\t// in\n    tag_439:\n        /* \"#utility.yul\":9652:9702   */\n      swap1\n      pop\n        /* \"#utility.yul\":9561:9708   */\n      swap2\n      swap1\n      pop\n      jump\t// out\n        /* \"#utility.yul\":9714:9843   */\n    tag_364:\n        /* \"#utility.yul\":9771:9780   */\n      0x00\n        /* \"#utility.yul\":9804:9837   */\n      tag_442\n        /* \"#utility.yul\":9831:9836   */\n      dup3\n        /* \"#utility.yul\":9804:9837   */\n      tag_432\n      jump\t// in\n    tag_442:\n        /* \"#utility.yul\":9791:9837   */\n      swap1\n      pop\n        /* \"#utility.yul\":9714:9843   */\n      swap2\n      swap1\n      pop\n      jump\t// out\n        /* \"#utility.yul\":9849:9975   */\n    tag_440:\n        /* \"#utility.yul\":9899:9908   */\n      0x00\n        /* \"#utility.yul\":9932:9969   */\n      tag_444\n        /* \"#utility.yul\":9963:9968   */\n      dup3\n        /* \"#utility.yul\":9932:9969   */\n      tag_445\n      jump\t// in\n    tag_444:\n        /* \"#utility.yul\":9919:9969   */\n      swap1\n      pop\n        /* \"#utility.yul\":9849:9975   */\n      swap2\n      swap1\n      pop\n      jump\t// out\n        /* \"#utility.yul\":9981:10094   */\n    tag_445:\n        /* \"#utility.yul\":10031:10040   */\n      0x00\n        /* \"#utility.yul\":10064:10088   */\n      tag_447\n        /* \"#utility.yul\":10082:10087   */\n      dup3\n        /* \"#utility.yul\":10064:10088   */\n      tag_428\n      jump\t// in\n    tag_447:\n        /* \"#utility.yul\":10051:10088   */\n      swap1\n      pop\n        /* \"#utility.yul\":9981:10094   */\n      swap2\n      swap1\n      pop\n      jump\t// out\n        /* \"#utility.yul\":10100:10407   */\n    tag_372:\n        /* \"#utility.yul\":10168:10169   */\n      0x00\n        /* \"#utility.yul\":10178:10291   */\n    tag_449:\n        /* \"#utility.yul\":10192:10198   */\n      dup4\n        /* \"#utility.yul\":10189:10190   */\n      dup2\n        /* \"#utility.yul\":10186:10199   */\n      lt\n        /* \"#utility.yul\":10178:10291   */\n      iszero\n      tag_451\n      jumpi\n        /* \"#utility.yul\":10277:10278   */\n      dup1\n        /* \"#utility.yul\":10272:10275   */\n      dup3\n        /* \"#utility.yul\":10268:10279   */\n      add\n        /* \"#utility.yul\":10262:10280   */\n      mload\n        /* \"#utility.yul\":10258:10259   */\n      dup2\n        /* \"#utility.yul\":10253:10256   */\n      dup5\n        /* \"#utility.yul\":10249:10260   */\n      add\n        /* \"#utility.yul\":10242:10281   */\n      mstore\n        /* \"#utility.yul\":10214:10216   */\n      0x20\n        /* \"#utility.yul\":10211:10212   */\n      dup2\n        /* \"#utility.yul\":10207:10217   */\n      add\n        /* \"#utility.yul\":10202:10217   */\n      swap1\n      pop\n        /* \"#utility.yul\":10178:10291   */\n      jump(tag_449)\n    tag_451:\n        /* \"#utility.yul\":10309:10315   */\n      dup4\n        /* \"#utility.yul\":10306:10307   */\n      dup2\n        /* \"#utility.yul\":10303:10316   */\n      gt\n        /* \"#utility.yul\":10300:10401   */\n      iszero\n      tag_452\n      jumpi\n        /* \"#utility.yul\":10389:10390   */\n      0x00\n        /* \"#utility.yul\":10380:10386   */\n      dup5\n        /* \"#utility.yul\":10375:10378   */\n      dup5\n        /* \"#utility.yul\":10371:10387   */\n      add\n        /* \"#utility.yul\":10364:10391   */\n      mstore\n        /* \"#utility.yul\":10300:10401   */\n    tag_452:\n        /* \"#utility.yul\":10149:10407   */\n      pop\n        /* \"#utility.yul\":10100:10407   */\n      pop\n      pop\n      pop\n      jump\t// out\n        /* \"#utility.yul\":10413:10733   */\n    tag_212:\n        /* \"#utility.yul\":10457:10463   */\n      0x00\n        /* \"#utility.yul\":10494:10495   */\n      0x02\n        /* \"#utility.yul\":10488:10492   */\n      dup3\n        /* \"#utility.yul\":10484:10496   */\n      div\n        /* \"#utility.yul\":10474:10496   */\n      swap1\n      pop\n        /* \"#utility.yul\":10541:10542   */\n      0x01\n        /* \"#utility.yul\":10535:10539   */\n      dup3\n        /* \"#utility.yul\":10531:10543   */\n      and\n        /* \"#utility.yul\":10562:10580   */\n      dup1\n        /* \"#utility.yul\":10552:10633   */\n      tag_454\n      jumpi\n        /* \"#utility.yul\":10618:10622   */\n      0x7f\n        /* \"#utility.yul\":10610:10616   */\n      dup3\n        /* \"#utility.yul\":10606:10623   */\n      and\n        /* \"#utility.yul\":10596:10623   */\n      swap2\n      pop\n        /* \"#utility.yul\":10552:10633   */\n    tag_454:\n        /* \"#utility.yul\":10680:10682   */\n      0x20\n        /* \"#utility.yul\":10672:10678   */\n      dup3\n        /* \"#utility.yul\":10669:10683   */\n      lt\n        /* \"#utility.yul\":10649:10667   */\n      dup2\n        /* \"#utility.yul\":10646:10684   */\n      eq\n        /* \"#utility.yul\":10643:10727   */\n      iszero\n      tag_455\n      jumpi\n        /* \"#utility.yul\":10699:10717   */\n      tag_456\n      tag_457\n      jump\t// in\n    tag_456:\n        /* \"#utility.yul\":10643:10727   */\n    tag_455:\n        /* \"#utility.yul\":10464:10733   */\n      pop\n        /* \"#utility.yul\":10413:10733   */\n      swap2\n      swap1\n      pop\n      jump\t// out\n        /* \"#utility.yul\":10739:10919   */\n    tag_409:\n        /* \"#utility.yul\":10787:10864   */\n      0x4e487b7100000000000000000000000000000000000000000000000000000000\n        /* \"#utility.yul\":10784:10785   */\n      0x00\n        /* \"#utility.yul\":10777:10865   */\n      mstore\n        /* \"#utility.yul\":10884:10888   */\n      0x11\n        /* \"#utility.yul\":10881:10882   */\n      0x04\n        /* \"#utility.yul\":10874:10889   */\n      mstore\n        /* \"#utility.yul\":10908:10912   */\n      0x24\n        /* \"#utility.yul\":10905:10906   */\n      0x00\n        /* \"#utility.yul\":10898:10913   */\n      revert\n        /* \"#utility.yul\":10925:11105   */\n    tag_415:\n        /* \"#utility.yul\":10973:11050   */\n      0x4e487b7100000000000000000000000000000000000000000000000000000000\n        /* \"#utility.yul\":10970:10971   */\n      0x00\n        /* \"#utility.yul\":10963:11051   */\n      mstore\n        /* \"#utility.yul\":11070:11074   */\n      0x12\n        /* \"#utility.yul\":11067:11068   */\n      0x04\n        /* \"#utility.yul\":11060:11075   */\n      mstore\n        /* \"#utility.yul\":11094:11098   */\n      0x24\n        /* \"#utility.yul\":11091:11092   */\n      0x00\n        /* \"#utility.yul\":11084:11099   */\n      revert\n        /* \"#utility.yul\":11111:11291   */\n    tag_176:\n        /* \"#utility.yul\":11159:11236   */\n      0x4e487b7100000000000000000000000000000000000000000000000000000000\n        /* \"#utility.yul\":11156:11157   */\n      0x00\n        /* \"#utility.yul\":11149:11237   */\n      mstore\n        /* \"#utility.yul\":11256:11260   */\n      0x21\n        /* \"#utility.yul\":11253:11254   */\n      0x04\n        /* \"#utility.yul\":11246:11261   */\n      mstore\n        /* \"#utility.yul\":11280:11284   */\n      0x24\n        /* \"#utility.yul\":11277:11278   */\n      0x00\n        /* \"#utility.yul\":11270:11285   */\n      revert\n        /* \"#utility.yul\":11297:11477   */\n    tag_457:\n        /* \"#utility.yul\":11345:11422   */\n      0x4e487b7100000000000000000000000000000000000000000000000000000000\n        /* \"#utility.yul\":11342:11343   */\n      0x00\n        /* \"#utility.yul\":11335:11423   */\n      mstore\n        /* \"#utility.yul\":11442:11446   */\n      0x22\n        /* \"#utility.yul\":11439:11440   */\n      0x04\n        /* \"#utility.yul\":11432:11447   */\n      mstore\n        /* \"#utility.yul\":11466:11470   */\n      0x24\n        /* \"#utility.yul\":11463:11464   */\n      0x00\n        /* \"#utility.yul\":11456:11471   */\n      revert\n        /* \"#utility.yul\":11606:11723   */\n    tag_315:\n        /* \"#utility.yul\":11715:11716   */\n      0x00\n        /* \"#utility.yul\":11712:11713   */\n      dup1\n        /* \"#utility.yul\":11705:11717   */\n      revert\n        /* \"#utility.yul\":11729:11831   */\n    tag_374:\n        /* \"#utility.yul\":11770:11776   */\n      0x00\n        /* \"#utility.yul\":11821:11823   */\n      0x1f\n        /* \"#utility.yul\":11817:11824   */\n      not\n        /* \"#utility.yul\":11812:11814   */\n      0x1f\n        /* \"#utility.yul\":11805:11810   */\n      dup4\n        /* \"#utility.yul\":11801:11815   */\n      add\n        /* \"#utility.yul\":11797:11825   */\n      and\n        /* \"#utility.yul\":11787:11825   */\n      swap1\n      pop\n        /* \"#utility.yul\":11729:11831   */\n      swap2\n      swap1\n      pop\n      jump\t// out\n        /* \"#utility.yul\":11837:11951   */\n    tag_435:\n        /* \"#utility.yul\":11919:11920   */\n      0x04\n        /* \"#utility.yul\":11912:11917   */\n      dup2\n        /* \"#utility.yul\":11909:11921   */\n      lt\n        /* \"#utility.yul\":11899:11945   */\n      tag_467\n      jumpi\n        /* \"#utility.yul\":11925:11943   */\n      tag_468\n      tag_176\n      jump\t// in\n    tag_468:\n        /* \"#utility.yul\":11899:11945   */\n    tag_467:\n        /* \"#utility.yul\":11837:11951   */\n      pop\n      jump\t// out\n        /* \"#utility.yul\":11957:12079   */\n    tag_296:\n        /* \"#utility.yul\":12030:12054   */\n      tag_470\n        /* \"#utility.yul\":12048:12053   */\n      dup2\n        /* \"#utility.yul\":12030:12054   */\n      tag_352\n      jump\t// in\n    tag_470:\n        /* \"#utility.yul\":12023:12028   */\n      dup2\n        /* \"#utility.yul\":12020:12055   */\n      eq\n        /* \"#utility.yul\":12010:12073   */\n      tag_471\n      jumpi\n        /* \"#utility.yul\":12069:12070   */\n      0x00\n        /* \"#utility.yul\":12066:12067   */\n      dup1\n        /* \"#utility.yul\":12059:12071   */\n      revert\n        /* \"#utility.yul\":12010:12073   */\n    tag_471:\n        /* \"#utility.yul\":11957:12079   */\n      pop\n      jump\t// out\n        /* \"#utility.yul\":12085:12223   */\n    tag_300:\n        /* \"#utility.yul\":12166:12198   */\n      tag_473\n        /* \"#utility.yul\":12192:12197   */\n      dup2\n        /* \"#utility.yul\":12166:12198   */\n      tag_348\n      jump\t// in\n    tag_473:\n        /* \"#utility.yul\":12159:12164   */\n      dup2\n        /* \"#utility.yul\":12156:12199   */\n      eq\n        /* \"#utility.yul\":12146:12217   */\n      tag_474\n      jumpi\n        /* \"#utility.yul\":12213:12214   */\n      0x00\n        /* \"#utility.yul\":12210:12211   */\n      dup1\n        /* \"#utility.yul\":12203:12215   */\n      revert\n        /* \"#utility.yul\":12146:12217   */\n    tag_474:\n        /* \"#utility.yul\":12085:12223   */\n      pop\n      jump\t// out\n        /* \"#utility.yul\":12229:12345   */\n    tag_304:\n        /* \"#utility.yul\":12299:12320   */\n      tag_476\n        /* \"#utility.yul\":12314:12319   */\n      dup2\n        /* \"#utility.yul\":12299:12320   */\n      tag_356\n      jump\t// in\n    tag_476:\n        /* \"#utility.yul\":12292:12297   */\n      dup2\n        /* \"#utility.yul\":12289:12321   */\n      eq\n        /* \"#utility.yul\":12279:12339   */\n      tag_477\n      jumpi\n        /* \"#utility.yul\":12335:12336   */\n      0x00\n        /* \"#utility.yul\":12332:12333   */\n      dup1\n        /* \"#utility.yul\":12325:12337   */\n      revert\n        /* \"#utility.yul\":12279:12339   */\n    tag_477:\n        /* \"#utility.yul\":12229:12345   */\n      pop\n      jump\t// out\n        /* \"#utility.yul\":12351:12473   */\n    tag_308:\n        /* \"#utility.yul\":12424:12448   */\n      tag_479\n        /* \"#utility.yul\":12442:12447   */\n      dup2\n        /* \"#utility.yul\":12424:12448   */\n      tag_378\n      jump\t// in\n    tag_479:\n        /* \"#utility.yul\":12417:12422   */\n      dup2\n        /* \"#utility.yul\":12414:12449   */\n      eq\n        /* \"#utility.yul\":12404:12467   */\n      tag_480\n      jumpi\n        /* \"#utility.yul\":12463:12464   */\n      0x00\n        /* \"#utility.yul\":12460:12461   */\n      dup1\n        /* \"#utility.yul\":12453:12465   */\n      revert\n        /* \"#utility.yul\":12404:12467   */\n    tag_480:\n        /* \"#utility.yul\":12351:12473   */\n      pop\n      jump\t// out\n\n    auxdata: 0xa2646970667358221220194d2c9e05473fd17c376c43cb53b4c3d0ec851c48aabdca01b63a5d0af6b0a964736f6c63430008070033\n}\n",
				"bytecode": {
					"linkReferences": {},
					"object": "60806040526040518060400160405280600e81526020017f4e6174696f6e7320436f6d6261740000000000000000000000000000000000008152506000908051906020019062000051929190620002e3565b506040518060400160405280600381526020017f4e43540000000000000000000000000000000000000000000000000000000000815250600190805190602001906200009f929190620002e3565b50601260025566038d7ea4c68000600955681043561a8829300000600a5542600c5562093a8042620000d2919062000408565b600d5562093a80600d54620000e8919062000408565b600f55674563918244f4000060105567016345785d8a00006011553480156200011057600080fd5b5060405162002477380380620024778339818101604052810190620001369190620003c1565b6302faf08060038190555033600460006101000a81548173ffffffffffffffffffffffffffffffffffffffff021916908373ffffffffffffffffffffffffffffffffffffffff16021790555060035460056000600460009054906101000a900473ffffffffffffffffffffffffffffffffffffffff1673ffffffffffffffffffffffffffffffffffffffff1673ffffffffffffffffffffffffffffffffffffffff1681526020019081526020016000208190555081600860006101000a81548173ffffffffffffffffffffffffffffffffffffffff021916908373ffffffffffffffffffffffffffffffffffffffff16021790555033600760006101000a81548173ffffffffffffffffffffffffffffffffffffffff021916908373ffffffffffffffffffffffffffffffffffffffff1602179055506000601260006101000a81548160ff021916908360038111156200029557620002946200051c565b5b021790555080600e60006101000a81548173ffffffffffffffffffffffffffffffffffffffff021916908373ffffffffffffffffffffffffffffffffffffffff1602179055505050620005b3565b828054620002f190620004b7565b90600052602060002090601f01602090048101928262000315576000855562000361565b82601f106200033057805160ff191683800117855562000361565b8280016001018555821562000361579182015b828111156200036057825182559160200191906001019062000343565b5b50905062000370919062000374565b5090565b5b808211156200038f57600081600090555060010162000375565b5090565b600081519050620003a4816200057f565b92915050565b600081519050620003bb8162000599565b92915050565b60008060408385031215620003db57620003da6200057a565b5b6000620003eb85828601620003aa565b9250506020620003fe8582860162000393565b9150509250929050565b60006200041582620004ad565b91506200042283620004ad565b9250827fffffffffffffffffffffffffffffffffffffffffffffffffffffffffffffffff038211156200045a5762000459620004ed565b5b828201905092915050565b600062000472826200048d565b9050919050565b600062000486826200048d565b9050919050565b600073ffffffffffffffffffffffffffffffffffffffff82169050919050565b6000819050919050565b60006002820490506001821680620004d057607f821691505b60208210811415620004e757620004e66200054b565b5b50919050565b7f4e487b7100000000000000000000000000000000000000000000000000000000600052601160045260246000fd5b7f4e487b7100000000000000000000000000000000000000000000000000000000600052602160045260246000fd5b7f4e487b7100000000000000000000000000000000000000000000000000000000600052602260045260246000fd5b600080fd5b6200058a8162000465565b81146200059657600080fd5b50565b620005a48162000479565b8114620005b057600080fd5b50565b611eb480620005c36000396000f3fe6080604052600436106101c55760003560e01c80635ed7ca5b116100f7578063c10b935811610095578063dd62ed3e11610064578063dd62ed3e14610629578063e8b5e51f14610666578063f851a44014610684578063fb86a404146106af576101d5565b8063c10b93581461057d578063c59ee1dc146105a8578063cc9ba583146105d3578063d0e30db0146105fe576101d5565b80638ac2c680116100d15780638ac2c680146104bf57806395d89b41146104ea578063a9059cbb14610515578063ab0bcc4114610552576101d5565b80635ed7ca5b146104425780636d58c88f1461045957806370a0823114610482576101d5565b8063313ce5671161016457806344df8e701161013e57806344df8e701461039657806344f38756146103c15780634d853ee5146103ec57806355a373d614610417576101d5565b8063313ce56714610329578063378aa70114610354578063380d831b1461037f576101d5565b8063095ea7b3116101a0578063095ea7b31461024757806318160ddd1461028457806323b872dd146102af57806327e235e3146102ec576101d5565b80622e1316146101da578063046f7da21461020557806306fdde031461021c576101d5565b366101d5576101d26106da565b50005b600080fd5b3480156101e657600080fd5b506101ef6109eb565b6040516101fc9190611ad6565b60405180910390f35b34801561021157600080fd5b5061021a6109f1565b005b34801561022857600080fd5b50610231610a78565b60405161023e9190611ab4565b60405180910390f35b34801561025357600080fd5b5061026e600480360381019061026991906118a0565b610b06565b60405161027b9190611a63565b60405180910390f35b34801561029057600080fd5b50610299610c51565b6040516102a69190611ad6565b60405180910390f35b3480156102bb57600080fd5b506102d660048036038101906102d1919061184d565b610c57565b6040516102e39190611a63565b60405180910390f35b3480156102f857600080fd5b50610313600480360381019061030e91906117b3565b610c7e565b6040516103209190611ad6565b60405180910390f35b34801561033557600080fd5b5061033e610c96565b60405161034b9190611ad6565b60405180910390f35b34801561036057600080fd5b50610369610c9c565b6040516103769190611a99565b60405180910390f35b34801561038b57600080fd5b50610394610d1f565b005b3480156103a257600080fd5b506103ab610f68565b6040516103b89190611a63565b60405180910390f35b3480156103cd57600080fd5b506103d6611049565b6040516103e39190611a99565b60405180910390f35b3480156103f857600080fd5b5061040161105c565b60405161040e91906119cd565b60405180910390f35b34801561042357600080fd5b5061042c611082565b6040516104399190611a7e565b60405180910390f35b34801561044e57600080fd5b506104576110a8565b005b34801561046557600080fd5b50610480600480360381019061047b91906117e0565b61112f565b005b34801561048e57600080fd5b506104a960048036038101906104a491906117b3565b6111cd565b6040516104b69190611ad6565b60405180910390f35b3480156104cb57600080fd5b506104d4611216565b6040516104e19190611ad6565b60405180910390f35b3480156104f657600080fd5b506104ff61121c565b60405161050c9190611ab4565b60405180910390f35b34801561052157600080fd5b5061053c600480360381019061053791906118a0565b6112aa565b6040516105499190611a63565b60405180910390f35b34801561055e57600080fd5b506105676112cf565b6040516105749190611ad6565b60405180910390f35b34801561058957600080fd5b506105926112d5565b60405161059f9190611ad6565b60405180910390f35b3480156105b457600080fd5b506105bd6112db565b6040516105ca9190611ad6565b60405180910390f35b3480156105df57600080fd5b506105e86112e1565b6040516105f59190611ad6565b60405180910390f35b34801561060a57600080fd5b506106136112e7565b60405161062091906119e8565b60405180910390f35b34801561063557600080fd5b50610650600480360381019061064b919061180d565b61130d565b60405161065d9190611ad6565b60405180910390f35b61066e6106da565b60405161067b9190611a63565b60405180910390f35b34801561069057600080fd5b50610699611394565b6040516106a691906119cd565b60405180910390f35b3480156106bb57600080fd5b506106c46113ba565b6040516106d19190611ad6565b60405180910390f35b60006106e4610c9c565b601260006101000a81548160ff0219169083600381111561070857610707611d9a565b5b02179055506001600381111561072157610720611d9a565b5b601260009054906101000a900460ff16600381111561074357610742611d9a565b5b1461074d57600080fd5b601154341015801561076157506010543411155b61076a57600080fd5b34600b600082825461077c9190611b0d565b92505081905550600a54600b54111561079457600080fd5b6000600954346107a49190611b63565b9050600e60009054906101000a900473ffffffffffffffffffffffffffffffffffffffff1673ffffffffffffffffffffffffffffffffffffffff1663a9059cbb33670de0b6b3a7640000846107f99190611b94565b6040518363ffffffff1660e01b8152600401610816929190611a03565b602060405180830381600087803b15801561083057600080fd5b505af1158015610844573d6000803e3d6000fd5b505050506040513d601f19601f8201168201806040525081019061086891906118e0565b61087157600080fd5b80600560003373ffffffffffffffffffffffffffffffffffffffff1673ffffffffffffffffffffffffffffffffffffffff16815260200190815260200160002060008282546108c09190611b0d565b925050819055508060056000600460009054906101000a900473ffffffffffffffffffffffffffffffffffffffff1673ffffffffffffffffffffffffffffffffffffffff1673ffffffffffffffffffffffffffffffffffffffff16815260200190815260200160002060008282546109389190611bee565b92505081905550600860009054906101000a900473ffffffffffffffffffffffffffffffffffffffff1673ffffffffffffffffffffffffffffffffffffffff166108fc349081150290604051600060405180830381858888f193505050501580156109a7573d6000803e3d6000fd5b507f4ae4bd7655e0d350876a23cd90c4227b13db560e34435c6a488150a9c844bf5f3334836040516109db93929190611a2c565b60405180910390a1600191505090565b60105481565b600760009054906101000a900473ffffffffffffffffffffffffffffffffffffffff1673ffffffffffffffffffffffffffffffffffffffff163373ffffffffffffffffffffffffffffffffffffffff1614610a4b57600080fd5b6001601260006101000a81548160ff02191690836003811115610a7157610a70611d9a565b5b0217905550565b60008054610a8590611d0a565b80601f0160208091040260200160405190810160405280929190818152602001828054610ab190611d0a565b8015610afe5780601f10610ad357610100808354040283529160200191610afe565b820191906000526020600020905b815481529060010190602001808311610ae157829003601f168201915b505050505081565b600081600560003373ffffffffffffffffffffffffffffffffffffffff1673ffffffffffffffffffffffffffffffffffffffff168152602001908152602001600020541015610b5457600080fd5b60008211610b6157600080fd5b81600660003373ffffffffffffffffffffffffffffffffffffffff1673ffffffffffffffffffffffffffffffffffffffff16815260200190815260200160002060008573ffffffffffffffffffffffffffffffffffffffff1673ffffffffffffffffffffffffffffffffffffffff168152602001908152602001600020819055508273ffffffffffffffffffffffffffffffffffffffff163373ffffffffffffffffffffffffffffffffffffffff167f8c5be1e5ebec7d5bd14f71427d1e84f3dd0314c0f7b2291e5b200ac8c7c3b92584604051610c3f9190611ad6565b60405180910390a36001905092915050565b60035481565b6000600f544211610c6757600080fd5b610c728484846113c0565b50600190509392505050565b60056020528060005260406000206000915090505481565b60025481565b6000600380811115610cb157610cb0611d9a565b5b601260009054906101000a900460ff166003811115610cd357610cd2611d9a565b5b1415610ce25760039050610d1c565b600c54421015610cf55760009050610d1c565b600c544210158015610d095750600d544211155b15610d175760019050610d1c565b600290505b90565b600760009054906101000a900473ffffffffffffffffffffffffffffffffffffffff1673ffffffffffffffffffffffffffffffffffffffff163373ffffffffffffffffffffffffffffffffffffffff1614610d7957600080fd5b600e60009054906101000a900473ffffffffffffffffffffffffffffffffffffffff1673ffffffffffffffffffffffffffffffffffffffff1663a9059cbb600760009054906101000a900473ffffffffffffffffffffffffffffffffffffffff16600e60009054906101000a900473ffffffffffffffffffffffffffffffffffffffff1673ffffffffffffffffffffffffffffffffffffffff166370a08231306040518263ffffffff1660e01b8152600401610e3591906119cd565b60206040518083038186803b158015610e4d57600080fd5b505afa158015610e61573d6000803e3d6000fd5b505050506040513d601f19601f82011682018060405250810190610e85919061190d565b6040518363ffffffff1660e01b8152600401610ea2929190611a03565b602060405180830381600087803b158015610ebc57600080fd5b505af1158015610ed0573d6000803e3d6000fd5b505050506040513d601f19601f82011682018060405250810190610ef491906118e0565b610efd57600080fd5b600760009054906101000a900473ffffffffffffffffffffffffffffffffffffffff1673ffffffffffffffffffffffffffffffffffffffff166108fc479081150290604051600060405180830381858888f19350505050158015610f65573d6000803e3d6000fd5b50565b6000610f72610c9c565b601260006101000a81548160ff02191690836003811115610f9657610f95611d9a565b5b021790555060026003811115610faf57610fae611d9a565b5b601260009054906101000a900460ff166003811115610fd157610fd0611d9a565b5b14610fdb57600080fd5b600060056000600460009054906101000a900473ffffffffffffffffffffffffffffffffffffffff1673ffffffffffffffffffffffffffffffffffffffff1673ffffffffffffffffffffffffffffffffffffffff168152602001908152602001600020819055506001905090565b601260009054906101000a900460ff1681565b600460009054906101000a900473ffffffffffffffffffffffffffffffffffffffff1681565b600e60009054906101000a900473ffffffffffffffffffffffffffffffffffffffff1681565b600760009054906101000a900473ffffffffffffffffffffffffffffffffffffffff1673ffffffffffffffffffffffffffffffffffffffff163373ffffffffffffffffffffffffffffffffffffffff161461110257600080fd5b6003601260006101000a81548160ff0219169083600381111561112857611127611d9a565b5b0217905550565b600760009054906101000a900473ffffffffffffffffffffffffffffffffffffffff1673ffffffffffffffffffffffffffffffffffffffff163373ffffffffffffffffffffffffffffffffffffffff161461118957600080fd5b80600860006101000a81548173ffffffffffffffffffffffffffffffffffffffff021916908373ffffffffffffffffffffffffffffffffffffffff16021790555050565b6000600560008373ffffffffffffffffffffffffffffffffffffffff1673ffffffffffffffffffffffffffffffffffffffff168152602001908152602001600020549050919050565b60115481565b6001805461122990611d0a565b80601f016020809104026020016040519081016040528092919081815260200182805461125590611d0a565b80156112a25780601f10611277576101008083540402835291602001916112a2565b820191906000526020600020905b81548152906001019060200180831161128557829003601f168201915b505050505081565b6000600f5442116112ba57600080fd5b6112c483836115e1565b506001905092915050565b600c5481565b600d5481565b600b5481565b600f5481565b600860009054906101000a900473ffffffffffffffffffffffffffffffffffffffff1681565b6000600660008473ffffffffffffffffffffffffffffffffffffffff1673ffffffffffffffffffffffffffffffffffffffff16815260200190815260200160002060008373ffffffffffffffffffffffffffffffffffffffff1673ffffffffffffffffffffffffffffffffffffffff16815260200190815260200160002054905092915050565b600760009054906101000a900473ffffffffffffffffffffffffffffffffffffffff1681565b600a5481565b600081600660008673ffffffffffffffffffffffffffffffffffffffff1673ffffffffffffffffffffffffffffffffffffffff16815260200190815260200160002060008573ffffffffffffffffffffffffffffffffffffffff1673ffffffffffffffffffffffffffffffffffffffff16815260200190815260200160002054101561144b57600080fd5b81600560008673ffffffffffffffffffffffffffffffffffffffff1673ffffffffffffffffffffffffffffffffffffffff16815260200190815260200160002054101561149757600080fd5b81600560008673ffffffffffffffffffffffffffffffffffffffff1673ffffffffffffffffffffffffffffffffffffffff16815260200190815260200160002060008282546114e69190611bee565b9250508190555081600560008573ffffffffffffffffffffffffffffffffffffffff1673ffffffffffffffffffffffffffffffffffffffff168152602001908152602001600020600082825461153c9190611b0d565b9250508190555081600660008673ffffffffffffffffffffffffffffffffffffffff1673ffffffffffffffffffffffffffffffffffffffff16815260200190815260200160002060008573ffffffffffffffffffffffffffffffffffffffff1673ffffffffffffffffffffffffffffffffffffffff16815260200190815260200160002060008282546115cf9190611bee565b92505081905550600190509392505050565b600081600560003373ffffffffffffffffffffffffffffffffffffffff1673ffffffffffffffffffffffffffffffffffffffff16815260200190815260200160002054101561162f57600080fd5b81600560008573ffffffffffffffffffffffffffffffffffffffff1673ffffffffffffffffffffffffffffffffffffffff168152602001908152602001600020600082825461167e9190611b0d565b9250508190555081600560003373ffffffffffffffffffffffffffffffffffffffff1673ffffffffffffffffffffffffffffffffffffffff16815260200190815260200160002060008282546116d49190611bee565b925050819055508273ffffffffffffffffffffffffffffffffffffffff163373ffffffffffffffffffffffffffffffffffffffff167fddf252ad1be2c89b69c2b068fc378daa952ba7f163c4a11628f55a4df523b3ef846040516117389190611ad6565b60405180910390a36001905092915050565b60008135905061175981611e22565b92915050565b60008135905061176e81611e39565b92915050565b60008151905061178381611e50565b92915050565b60008135905061179881611e67565b92915050565b6000815190506117ad81611e67565b92915050565b6000602082840312156117c9576117c8611df8565b5b60006117d78482850161174a565b91505092915050565b6000602082840312156117f6576117f5611df8565b5b60006118048482850161175f565b91505092915050565b6000806040838503121561182457611823611df8565b5b60006118328582860161174a565b92505060206118438582860161174a565b9150509250929050565b60008060006060848603121561186657611865611df8565b5b60006118748682870161174a565b93505060206118858682870161174a565b925050604061189686828701611789565b9150509250925092565b600080604083850312156118b7576118b6611df8565b5b60006118c58582860161174a565b92505060206118d685828601611789565b9150509250929050565b6000602082840312156118f6576118f5611df8565b5b600061190484828501611774565b91505092915050565b60006020828403121561192357611922611df8565b5b60006119318482850161179e565b91505092915050565b61194381611c34565b82525050565b61195281611c22565b82525050565b61196181611c46565b82525050565b61197081611c8f565b82525050565b61197f81611ca1565b82525050565b600061199082611af1565b61199a8185611afc565b93506119aa818560208601611cd7565b6119b381611dfd565b840191505092915050565b6119c781611c85565b82525050565b60006020820190506119e26000830184611949565b92915050565b60006020820190506119fd600083018461193a565b92915050565b6000604082019050611a186000830185611949565b611a2560208301846119be565b9392505050565b6000606082019050611a416000830186611949565b611a4e60208301856119be565b611a5b60408301846119be565b949350505050565b6000602082019050611a786000830184611958565b92915050565b6000602082019050611a936000830184611967565b92915050565b6000602082019050611aae6000830184611976565b92915050565b60006020820190508181036000830152611ace8184611985565b905092915050565b6000602082019050611aeb60008301846119be565b92915050565b600081519050919050565b600082825260208201905092915050565b6000611b1882611c85565b9150611b2383611c85565b9250827fffffffffffffffffffffffffffffffffffffffffffffffffffffffffffffffff03821115611b5857611b57611d3c565b5b828201905092915050565b6000611b6e82611c85565b9150611b7983611c85565b925082611b8957611b88611d6b565b5b828204905092915050565b6000611b9f82611c85565b9150611baa83611c85565b9250817fffffffffffffffffffffffffffffffffffffffffffffffffffffffffffffffff0483118215151615611be357611be2611d3c565b5b828202905092915050565b6000611bf982611c85565b9150611c0483611c85565b925082821015611c1757611c16611d3c565b5b828203905092915050565b6000611c2d82611c65565b9050919050565b6000611c3f82611c65565b9050919050565b60008115159050919050565b6000819050611c6082611e0e565b919050565b600073ffffffffffffffffffffffffffffffffffffffff82169050919050565b6000819050919050565b6000611c9a82611cb3565b9050919050565b6000611cac82611c52565b9050919050565b6000611cbe82611cc5565b9050919050565b6000611cd082611c65565b9050919050565b60005b83811015611cf5578082015181840152602081019050611cda565b83811115611d04576000848401525b50505050565b60006002820490506001821680611d2257607f821691505b60208210811415611d3657611d35611dc9565b5b50919050565b7f4e487b7100000000000000000000000000000000000000000000000000000000600052601160045260246000fd5b7f4e487b7100000000000000000000000000000000000000000000000000000000600052601260045260246000fd5b7f4e487b7100000000000000000000000000000000000000000000000000000000600052602160045260246000fd5b7f4e487b7100000000000000000000000000000000000000000000000000000000600052602260045260246000fd5b600080fd5b6000601f19601f8301169050919050565b60048110611e1f57611e1e611d9a565b5b50565b611e2b81611c22565b8114611e3657600080fd5b50565b611e4281611c34565b8114611e4d57600080fd5b50565b611e5981611c46565b8114611e6457600080fd5b50565b611e7081611c85565b8114611e7b57600080fd5b5056fea2646970667358221220194d2c9e05473fd17c376c43cb53b4c3d0ec851c48aabdca01b63a5d0af6b0a964736f6c63430008070033",
					"opcodes": "PUSH1 0x80 PUSH1 0x40 MSTORE PUSH1 0x40 MLOAD DUP1 PUSH1 0x40 ADD PUSH1 0x40 MSTORE DUP1 PUSH1 0xE DUP2 MSTORE PUSH1 0x20 ADD PUSH32 0x4E6174696F6E7320436F6D626174000000000000000000000000000000000000 DUP2 MSTORE POP PUSH1 0x0 SWAP1 DUP1 MLOAD SWAP1 PUSH1 0x20 ADD SWAP1 PUSH3 0x51 SWAP3 SWAP2 SWAP1 PUSH3 0x2E3 JUMP JUMPDEST POP PUSH1 0x40 MLOAD DUP1 PUSH1 0x40 ADD PUSH1 0x40 MSTORE DUP1 PUSH1 0x3 DUP2 MSTORE PUSH1 0x20 ADD PUSH32 0x4E43540000000000000000000000000000000000000000000000000000000000 DUP2 MSTORE POP PUSH1 0x1 SWAP1 DUP1 MLOAD SWAP1 PUSH1 0x20 ADD SWAP1 PUSH3 0x9F SWAP3 SWAP2 SWAP1 PUSH3 0x2E3 JUMP JUMPDEST POP PUSH1 0x12 PUSH1 0x2 SSTORE PUSH7 0x38D7EA4C68000 PUSH1 0x9 SSTORE PUSH9 0x1043561A8829300000 PUSH1 0xA SSTORE TIMESTAMP PUSH1 0xC SSTORE PUSH3 0x93A80 TIMESTAMP PUSH3 0xD2 SWAP2 SWAP1 PUSH3 0x408 JUMP JUMPDEST PUSH1 0xD SSTORE PUSH3 0x93A80 PUSH1 0xD SLOAD PUSH3 0xE8 SWAP2 SWAP1 PUSH3 0x408 JUMP JUMPDEST PUSH1 0xF SSTORE PUSH8 0x4563918244F40000 PUSH1 0x10 SSTORE PUSH8 0x16345785D8A0000 PUSH1 0x11 SSTORE CALLVALUE DUP1 ISZERO PUSH3 0x110 JUMPI PUSH1 0x0 DUP1 REVERT JUMPDEST POP PUSH1 0x40 MLOAD PUSH3 0x2477 CODESIZE SUB DUP1 PUSH3 0x2477 DUP4 CODECOPY DUP2 DUP2 ADD PUSH1 0x40 MSTORE DUP2 ADD SWAP1 PUSH3 0x136 SWAP2 SWAP1 PUSH3 0x3C1 JUMP JUMPDEST PUSH4 0x2FAF080 PUSH1 0x3 DUP2 SWAP1 SSTORE POP CALLER PUSH1 0x4 PUSH1 0x0 PUSH2 0x100 EXP DUP2 SLOAD DUP2 PUSH20 0xFFFFFFFFFFFFFFFFFFFFFFFFFFFFFFFFFFFFFFFF MUL NOT AND SWAP1 DUP4 PUSH20 0xFFFFFFFFFFFFFFFFFFFFFFFFFFFFFFFFFFFFFFFF AND MUL OR SWAP1 SSTORE POP PUSH1 0x3 SLOAD PUSH1 0x5 PUSH1 0x0 PUSH1 0x4 PUSH1 0x0 SWAP1 SLOAD SWAP1 PUSH2 0x100 EXP SWAP1 DIV PUSH20 0xFFFFFFFFFFFFFFFFFFFFFFFFFFFFFFFFFFFFFFFF AND PUSH20 0xFFFFFFFFFFFFFFFFFFFFFFFFFFFFFFFFFFFFFFFF AND PUSH20 0xFFFFFFFFFFFFFFFFFFFFFFFFFFFFFFFFFFFFFFFF AND DUP2 MSTORE PUSH1 0x20 ADD SWAP1 DUP2 MSTORE PUSH1 0x20 ADD PUSH1 0x0 KECCAK256 DUP2 SWAP1 SSTORE POP DUP2 PUSH1 0x8 PUSH1 0x0 PUSH2 0x100 EXP DUP2 SLOAD DUP2 PUSH20 0xFFFFFFFFFFFFFFFFFFFFFFFFFFFFFFFFFFFFFFFF MUL NOT AND SWAP1 DUP4 PUSH20 0xFFFFFFFFFFFFFFFFFFFFFFFFFFFFFFFFFFFFFFFF AND MUL OR SWAP1 SSTORE POP CALLER PUSH1 0x7 PUSH1 0x0 PUSH2 0x100 EXP DUP2 SLOAD DUP2 PUSH20 0xFFFFFFFFFFFFFFFFFFFFFFFFFFFFFFFFFFFFFFFF MUL NOT AND SWAP1 DUP4 PUSH20 0xFFFFFFFFFFFFFFFFFFFFFFFFFFFFFFFFFFFFFFFF AND MUL OR SWAP1 SSTORE POP PUSH1 0x0 PUSH1 0x12 PUSH1 0x0 PUSH2 0x100 EXP DUP2 SLOAD DUP2 PUSH1 0xFF MUL NOT AND SWAP1 DUP4 PUSH1 0x3 DUP2 GT ISZERO PUSH3 0x295 JUMPI PUSH3 0x294 PUSH3 0x51C JUMP JUMPDEST JUMPDEST MUL OR SWAP1 SSTORE POP DUP1 PUSH1 0xE PUSH1 0x0 PUSH2 0x100 EXP DUP2 SLOAD DUP2 PUSH20 0xFFFFFFFFFFFFFFFFFFFFFFFFFFFFFFFFFFFFFFFF MUL NOT AND SWAP1 DUP4 PUSH20 0xFFFFFFFFFFFFFFFFFFFFFFFFFFFFFFFFFFFFFFFF AND MUL OR SWAP1 SSTORE POP POP POP PUSH3 0x5B3 JUMP JUMPDEST DUP3 DUP1 SLOAD PUSH3 0x2F1 SWAP1 PUSH3 0x4B7 JUMP JUMPDEST SWAP1 PUSH1 0x0 MSTORE PUSH1 0x20 PUSH1 0x0 KECCAK256 SWAP1 PUSH1 0x1F ADD PUSH1 0x20 SWAP1 DIV DUP2 ADD SWAP3 DUP3 PUSH3 0x315 JUMPI PUSH1 0x0 DUP6 SSTORE PUSH3 0x361 JUMP JUMPDEST DUP3 PUSH1 0x1F LT PUSH3 0x330 JUMPI DUP1 MLOAD PUSH1 0xFF NOT AND DUP4 DUP1 ADD OR DUP6 SSTORE PUSH3 0x361 JUMP JUMPDEST DUP3 DUP1 ADD PUSH1 0x1 ADD DUP6 SSTORE DUP3 ISZERO PUSH3 0x361 JUMPI SWAP2 DUP3 ADD JUMPDEST DUP3 DUP2 GT ISZERO PUSH3 0x360 JUMPI DUP3 MLOAD DUP3 SSTORE SWAP2 PUSH1 0x20 ADD SWAP2 SWAP1 PUSH1 0x1 ADD SWAP1 PUSH3 0x343 JUMP JUMPDEST JUMPDEST POP SWAP1 POP PUSH3 0x370 SWAP2 SWAP1 PUSH3 0x374 JUMP JUMPDEST POP SWAP1 JUMP JUMPDEST JUMPDEST DUP1 DUP3 GT ISZERO PUSH3 0x38F JUMPI PUSH1 0x0 DUP2 PUSH1 0x0 SWAP1 SSTORE POP PUSH1 0x1 ADD PUSH3 0x375 JUMP JUMPDEST POP SWAP1 JUMP JUMPDEST PUSH1 0x0 DUP2 MLOAD SWAP1 POP PUSH3 0x3A4 DUP2 PUSH3 0x57F JUMP JUMPDEST SWAP3 SWAP2 POP POP JUMP JUMPDEST PUSH1 0x0 DUP2 MLOAD SWAP1 POP PUSH3 0x3BB DUP2 PUSH3 0x599 JUMP JUMPDEST SWAP3 SWAP2 POP POP JUMP JUMPDEST PUSH1 0x0 DUP1 PUSH1 0x40 DUP4 DUP6 SUB SLT ISZERO PUSH3 0x3DB JUMPI PUSH3 0x3DA PUSH3 0x57A JUMP JUMPDEST JUMPDEST PUSH1 0x0 PUSH3 0x3EB DUP6 DUP3 DUP7 ADD PUSH3 0x3AA JUMP JUMPDEST SWAP3 POP POP PUSH1 0x20 PUSH3 0x3FE DUP6 DUP3 DUP7 ADD PUSH3 0x393 JUMP JUMPDEST SWAP2 POP POP SWAP3 POP SWAP3 SWAP1 POP JUMP JUMPDEST PUSH1 0x0 PUSH3 0x415 DUP3 PUSH3 0x4AD JUMP JUMPDEST SWAP2 POP PUSH3 0x422 DUP4 PUSH3 0x4AD JUMP JUMPDEST SWAP3 POP DUP3 PUSH32 0xFFFFFFFFFFFFFFFFFFFFFFFFFFFFFFFFFFFFFFFFFFFFFFFFFFFFFFFFFFFFFFFF SUB DUP3 GT ISZERO PUSH3 0x45A JUMPI PUSH3 0x459 PUSH3 0x4ED JUMP JUMPDEST JUMPDEST DUP3 DUP3 ADD SWAP1 POP SWAP3 SWAP2 POP POP JUMP JUMPDEST PUSH1 0x0 PUSH3 0x472 DUP3 PUSH3 0x48D JUMP JUMPDEST SWAP1 POP SWAP2 SWAP1 POP JUMP JUMPDEST PUSH1 0x0 PUSH3 0x486 DUP3 PUSH3 0x48D JUMP JUMPDEST SWAP1 POP SWAP2 SWAP1 POP JUMP JUMPDEST PUSH1 0x0 PUSH20 0xFFFFFFFFFFFFFFFFFFFFFFFFFFFFFFFFFFFFFFFF DUP3 AND SWAP1 POP SWAP2 SWAP1 POP JUMP JUMPDEST PUSH1 0x0 DUP2 SWAP1 POP SWAP2 SWAP1 POP JUMP JUMPDEST PUSH1 0x0 PUSH1 0x2 DUP3 DIV SWAP1 POP PUSH1 0x1 DUP3 AND DUP1 PUSH3 0x4D0 JUMPI PUSH1 0x7F DUP3 AND SWAP2 POP JUMPDEST PUSH1 0x20 DUP3 LT DUP2 EQ ISZERO PUSH3 0x4E7 JUMPI PUSH3 0x4E6 PUSH3 0x54B JUMP JUMPDEST JUMPDEST POP SWAP2 SWAP1 POP JUMP JUMPDEST PUSH32 0x4E487B7100000000000000000000000000000000000000000000000000000000 PUSH1 0x0 MSTORE PUSH1 0x11 PUSH1 0x4 MSTORE PUSH1 0x24 PUSH1 0x0 REVERT JUMPDEST PUSH32 0x4E487B7100000000000000000000000000000000000000000000000000000000 PUSH1 0x0 MSTORE PUSH1 0x21 PUSH1 0x4 MSTORE PUSH1 0x24 PUSH1 0x0 REVERT JUMPDEST PUSH32 0x4E487B7100000000000000000000000000000000000000000000000000000000 PUSH1 0x0 MSTORE PUSH1 0x22 PUSH1 0x4 MSTORE PUSH1 0x24 PUSH1 0x0 REVERT JUMPDEST PUSH1 0x0 DUP1 REVERT JUMPDEST PUSH3 0x58A DUP2 PUSH3 0x465 JUMP JUMPDEST DUP2 EQ PUSH3 0x596 JUMPI PUSH1 0x0 DUP1 REVERT JUMPDEST POP JUMP JUMPDEST PUSH3 0x5A4 DUP2 PUSH3 0x479 JUMP JUMPDEST DUP2 EQ PUSH3 0x5B0 JUMPI PUSH1 0x0 DUP1 REVERT JUMPDEST POP JUMP JUMPDEST PUSH2 0x1EB4 DUP1 PUSH3 0x5C3 PUSH1 0x0 CODECOPY PUSH1 0x0 RETURN INVALID PUSH1 0x80 PUSH1 0x40 MSTORE PUSH1 0x4 CALLDATASIZE LT PUSH2 0x1C5 JUMPI PUSH1 0x0 CALLDATALOAD PUSH1 0xE0 SHR DUP1 PUSH4 0x5ED7CA5B GT PUSH2 0xF7 JUMPI DUP1 PUSH4 0xC10B9358 GT PUSH2 0x95 JUMPI DUP1 PUSH4 0xDD62ED3E GT PUSH2 0x64 JUMPI DUP1 PUSH4 0xDD62ED3E EQ PUSH2 0x629 JUMPI DUP1 PUSH4 0xE8B5E51F EQ PUSH2 0x666 JUMPI DUP1 PUSH4 0xF851A440 EQ PUSH2 0x684 JUMPI DUP1 PUSH4 0xFB86A404 EQ PUSH2 0x6AF JUMPI PUSH2 0x1D5 JUMP JUMPDEST DUP1 PUSH4 0xC10B9358 EQ PUSH2 0x57D JUMPI DUP1 PUSH4 0xC59EE1DC EQ PUSH2 0x5A8 JUMPI DUP1 PUSH4 0xCC9BA583 EQ PUSH2 0x5D3 JUMPI DUP1 PUSH4 0xD0E30DB0 EQ PUSH2 0x5FE JUMPI PUSH2 0x1D5 JUMP JUMPDEST DUP1 PUSH4 0x8AC2C680 GT PUSH2 0xD1 JUMPI DUP1 PUSH4 0x8AC2C680 EQ PUSH2 0x4BF JUMPI DUP1 PUSH4 0x95D89B41 EQ PUSH2 0x4EA JUMPI DUP1 PUSH4 0xA9059CBB EQ PUSH2 0x515 JUMPI DUP1 PUSH4 0xAB0BCC41 EQ PUSH2 0x552 JUMPI PUSH2 0x1D5 JUMP JUMPDEST DUP1 PUSH4 0x5ED7CA5B EQ PUSH2 0x442 JUMPI DUP1 PUSH4 0x6D58C88F EQ PUSH2 0x459 JUMPI DUP1 PUSH4 0x70A08231 EQ PUSH2 0x482 JUMPI PUSH2 0x1D5 JUMP JUMPDEST DUP1 PUSH4 0x313CE567 GT PUSH2 0x164 JUMPI DUP1 PUSH4 0x44DF8E70 GT PUSH2 0x13E JUMPI DUP1 PUSH4 0x44DF8E70 EQ PUSH2 0x396 JUMPI DUP1 PUSH4 0x44F38756 EQ PUSH2 0x3C1 JUMPI DUP1 PUSH4 0x4D853EE5 EQ PUSH2 0x3EC JUMPI DUP1 PUSH4 0x55A373D6 EQ PUSH2 0x417 JUMPI PUSH2 0x1D5 JUMP JUMPDEST DUP1 PUSH4 0x313CE567 EQ PUSH2 0x329 JUMPI DUP1 PUSH4 0x378AA701 EQ PUSH2 0x354 JUMPI DUP1 PUSH4 0x380D831B EQ PUSH2 0x37F JUMPI PUSH2 0x1D5 JUMP JUMPDEST DUP1 PUSH4 0x95EA7B3 GT PUSH2 0x1A0 JUMPI DUP1 PUSH4 0x95EA7B3 EQ PUSH2 0x247 JUMPI DUP1 PUSH4 0x18160DDD EQ PUSH2 0x284 JUMPI DUP1 PUSH4 0x23B872DD EQ PUSH2 0x2AF JUMPI DUP1 PUSH4 0x27E235E3 EQ PUSH2 0x2EC JUMPI PUSH2 0x1D5 JUMP JUMPDEST DUP1 PUSH3 0x2E1316 EQ PUSH2 0x1DA JUMPI DUP1 PUSH4 0x46F7DA2 EQ PUSH2 0x205 JUMPI DUP1 PUSH4 0x6FDDE03 EQ PUSH2 0x21C JUMPI PUSH2 0x1D5 JUMP JUMPDEST CALLDATASIZE PUSH2 0x1D5 JUMPI PUSH2 0x1D2 PUSH2 0x6DA JUMP JUMPDEST POP STOP JUMPDEST PUSH1 0x0 DUP1 REVERT JUMPDEST CALLVALUE DUP1 ISZERO PUSH2 0x1E6 JUMPI PUSH1 0x0 DUP1 REVERT JUMPDEST POP PUSH2 0x1EF PUSH2 0x9EB JUMP JUMPDEST PUSH1 0x40 MLOAD PUSH2 0x1FC SWAP2 SWAP1 PUSH2 0x1AD6 JUMP JUMPDEST PUSH1 0x40 MLOAD DUP1 SWAP2 SUB SWAP1 RETURN JUMPDEST CALLVALUE DUP1 ISZERO PUSH2 0x211 JUMPI PUSH1 0x0 DUP1 REVERT JUMPDEST POP PUSH2 0x21A PUSH2 0x9F1 JUMP JUMPDEST STOP JUMPDEST CALLVALUE DUP1 ISZERO PUSH2 0x228 JUMPI PUSH1 0x0 DUP1 REVERT JUMPDEST POP PUSH2 0x231 PUSH2 0xA78 JUMP JUMPDEST PUSH1 0x40 MLOAD PUSH2 0x23E SWAP2 SWAP1 PUSH2 0x1AB4 JUMP JUMPDEST PUSH1 0x40 MLOAD DUP1 SWAP2 SUB SWAP1 RETURN JUMPDEST CALLVALUE DUP1 ISZERO PUSH2 0x253 JUMPI PUSH1 0x0 DUP1 REVERT JUMPDEST POP PUSH2 0x26E PUSH1 0x4 DUP1 CALLDATASIZE SUB DUP2 ADD SWAP1 PUSH2 0x269 SWAP2 SWAP1 PUSH2 0x18A0 JUMP JUMPDEST PUSH2 0xB06 JUMP JUMPDEST PUSH1 0x40 MLOAD PUSH2 0x27B SWAP2 SWAP1 PUSH2 0x1A63 JUMP JUMPDEST PUSH1 0x40 MLOAD DUP1 SWAP2 SUB SWAP1 RETURN JUMPDEST CALLVALUE DUP1 ISZERO PUSH2 0x290 JUMPI PUSH1 0x0 DUP1 REVERT JUMPDEST POP PUSH2 0x299 PUSH2 0xC51 JUMP JUMPDEST PUSH1 0x40 MLOAD PUSH2 0x2A6 SWAP2 SWAP1 PUSH2 0x1AD6 JUMP JUMPDEST PUSH1 0x40 MLOAD DUP1 SWAP2 SUB SWAP1 RETURN JUMPDEST CALLVALUE DUP1 ISZERO PUSH2 0x2BB JUMPI PUSH1 0x0 DUP1 REVERT JUMPDEST POP PUSH2 0x2D6 PUSH1 0x4 DUP1 CALLDATASIZE SUB DUP2 ADD SWAP1 PUSH2 0x2D1 SWAP2 SWAP1 PUSH2 0x184D JUMP JUMPDEST PUSH2 0xC57 JUMP JUMPDEST PUSH1 0x40 MLOAD PUSH2 0x2E3 SWAP2 SWAP1 PUSH2 0x1A63 JUMP JUMPDEST PUSH1 0x40 MLOAD DUP1 SWAP2 SUB SWAP1 RETURN JUMPDEST CALLVALUE DUP1 ISZERO PUSH2 0x2F8 JUMPI PUSH1 0x0 DUP1 REVERT JUMPDEST POP PUSH2 0x313 PUSH1 0x4 DUP1 CALLDATASIZE SUB DUP2 ADD SWAP1 PUSH2 0x30E SWAP2 SWAP1 PUSH2 0x17B3 JUMP JUMPDEST PUSH2 0xC7E JUMP JUMPDEST PUSH1 0x40 MLOAD PUSH2 0x320 SWAP2 SWAP1 PUSH2 0x1AD6 JUMP JUMPDEST PUSH1 0x40 MLOAD DUP1 SWAP2 SUB SWAP1 RETURN JUMPDEST CALLVALUE DUP1 ISZERO PUSH2 0x335 JUMPI PUSH1 0x0 DUP1 REVERT JUMPDEST POP PUSH2 0x33E PUSH2 0xC96 JUMP JUMPDEST PUSH1 0x40 MLOAD PUSH2 0x34B SWAP2 SWAP1 PUSH2 0x1AD6 JUMP JUMPDEST PUSH1 0x40 MLOAD DUP1 SWAP2 SUB SWAP1 RETURN JUMPDEST CALLVALUE DUP1 ISZERO PUSH2 0x360 JUMPI PUSH1 0x0 DUP1 REVERT JUMPDEST POP PUSH2 0x369 PUSH2 0xC9C JUMP JUMPDEST PUSH1 0x40 MLOAD PUSH2 0x376 SWAP2 SWAP1 PUSH2 0x1A99 JUMP JUMPDEST PUSH1 0x40 MLOAD DUP1 SWAP2 SUB SWAP1 RETURN JUMPDEST CALLVALUE DUP1 ISZERO PUSH2 0x38B JUMPI PUSH1 0x0 DUP1 REVERT JUMPDEST POP PUSH2 0x394 PUSH2 0xD1F JUMP JUMPDEST STOP JUMPDEST CALLVALUE DUP1 ISZERO PUSH2 0x3A2 JUMPI PUSH1 0x0 DUP1 REVERT JUMPDEST POP PUSH2 0x3AB PUSH2 0xF68 JUMP JUMPDEST PUSH1 0x40 MLOAD PUSH2 0x3B8 SWAP2 SWAP1 PUSH2 0x1A63 JUMP JUMPDEST PUSH1 0x40 MLOAD DUP1 SWAP2 SUB SWAP1 RETURN JUMPDEST CALLVALUE DUP1 ISZERO PUSH2 0x3CD JUMPI PUSH1 0x0 DUP1 REVERT JUMPDEST POP PUSH2 0x3D6 PUSH2 0x1049 JUMP JUMPDEST PUSH1 0x40 MLOAD PUSH2 0x3E3 SWAP2 SWAP1 PUSH2 0x1A99 JUMP JUMPDEST PUSH1 0x40 MLOAD DUP1 SWAP2 SUB SWAP1 RETURN JUMPDEST CALLVALUE DUP1 ISZERO PUSH2 0x3F8 JUMPI PUSH1 0x0 DUP1 REVERT JUMPDEST POP PUSH2 0x401 PUSH2 0x105C JUMP JUMPDEST PUSH1 0x40 MLOAD PUSH2 0x40E SWAP2 SWAP1 PUSH2 0x19CD JUMP JUMPDEST PUSH1 0x40 MLOAD DUP1 SWAP2 SUB SWAP1 RETURN JUMPDEST CALLVALUE DUP1 ISZERO PUSH2 0x423 JUMPI PUSH1 0x0 DUP1 REVERT JUMPDEST POP PUSH2 0x42C PUSH2 0x1082 JUMP JUMPDEST PUSH1 0x40 MLOAD PUSH2 0x439 SWAP2 SWAP1 PUSH2 0x1A7E JUMP JUMPDEST PUSH1 0x40 MLOAD DUP1 SWAP2 SUB SWAP1 RETURN JUMPDEST CALLVALUE DUP1 ISZERO PUSH2 0x44E JUMPI PUSH1 0x0 DUP1 REVERT JUMPDEST POP PUSH2 0x457 PUSH2 0x10A8 JUMP JUMPDEST STOP JUMPDEST CALLVALUE DUP1 ISZERO PUSH2 0x465 JUMPI PUSH1 0x0 DUP1 REVERT JUMPDEST POP PUSH2 0x480 PUSH1 0x4 DUP1 CALLDATASIZE SUB DUP2 ADD SWAP1 PUSH2 0x47B SWAP2 SWAP1 PUSH2 0x17E0 JUMP JUMPDEST PUSH2 0x112F JUMP JUMPDEST STOP JUMPDEST CALLVALUE DUP1 ISZERO PUSH2 0x48E JUMPI PUSH1 0x0 DUP1 REVERT JUMPDEST POP PUSH2 0x4A9 PUSH1 0x4 DUP1 CALLDATASIZE SUB DUP2 ADD SWAP1 PUSH2 0x4A4 SWAP2 SWAP1 PUSH2 0x17B3 JUMP JUMPDEST PUSH2 0x11CD JUMP JUMPDEST PUSH1 0x40 MLOAD PUSH2 0x4B6 SWAP2 SWAP1 PUSH2 0x1AD6 JUMP JUMPDEST PUSH1 0x40 MLOAD DUP1 SWAP2 SUB SWAP1 RETURN JUMPDEST CALLVALUE DUP1 ISZERO PUSH2 0x4CB JUMPI PUSH1 0x0 DUP1 REVERT JUMPDEST POP PUSH2 0x4D4 PUSH2 0x1216 JUMP JUMPDEST PUSH1 0x40 MLOAD PUSH2 0x4E1 SWAP2 SWAP1 PUSH2 0x1AD6 JUMP JUMPDEST PUSH1 0x40 MLOAD DUP1 SWAP2 SUB SWAP1 RETURN JUMPDEST CALLVALUE DUP1 ISZERO PUSH2 0x4F6 JUMPI PUSH1 0x0 DUP1 REVERT JUMPDEST POP PUSH2 0x4FF PUSH2 0x121C JUMP JUMPDEST PUSH1 0x40 MLOAD PUSH2 0x50C SWAP2 SWAP1 PUSH2 0x1AB4 JUMP JUMPDEST PUSH1 0x40 MLOAD DUP1 SWAP2 SUB SWAP1 RETURN JUMPDEST CALLVALUE DUP1 ISZERO PUSH2 0x521 JUMPI PUSH1 0x0 DUP1 REVERT JUMPDEST POP PUSH2 0x53C PUSH1 0x4 DUP1 CALLDATASIZE SUB DUP2 ADD SWAP1 PUSH2 0x537 SWAP2 SWAP1 PUSH2 0x18A0 JUMP JUMPDEST PUSH2 0x12AA JUMP JUMPDEST PUSH1 0x40 MLOAD PUSH2 0x549 SWAP2 SWAP1 PUSH2 0x1A63 JUMP JUMPDEST PUSH1 0x40 MLOAD DUP1 SWAP2 SUB SWAP1 RETURN JUMPDEST CALLVALUE DUP1 ISZERO PUSH2 0x55E JUMPI PUSH1 0x0 DUP1 REVERT JUMPDEST POP PUSH2 0x567 PUSH2 0x12CF JUMP JUMPDEST PUSH1 0x40 MLOAD PUSH2 0x574 SWAP2 SWAP1 PUSH2 0x1AD6 JUMP JUMPDEST PUSH1 0x40 MLOAD DUP1 SWAP2 SUB SWAP1 RETURN JUMPDEST CALLVALUE DUP1 ISZERO PUSH2 0x589 JUMPI PUSH1 0x0 DUP1 REVERT JUMPDEST POP PUSH2 0x592 PUSH2 0x12D5 JUMP JUMPDEST PUSH1 0x40 MLOAD PUSH2 0x59F SWAP2 SWAP1 PUSH2 0x1AD6 JUMP JUMPDEST PUSH1 0x40 MLOAD DUP1 SWAP2 SUB SWAP1 RETURN JUMPDEST CALLVALUE DUP1 ISZERO PUSH2 0x5B4 JUMPI PUSH1 0x0 DUP1 REVERT JUMPDEST POP PUSH2 0x5BD PUSH2 0x12DB JUMP JUMPDEST PUSH1 0x40 MLOAD PUSH2 0x5CA SWAP2 SWAP1 PUSH2 0x1AD6 JUMP JUMPDEST PUSH1 0x40 MLOAD DUP1 SWAP2 SUB SWAP1 RETURN JUMPDEST CALLVALUE DUP1 ISZERO PUSH2 0x5DF JUMPI PUSH1 0x0 DUP1 REVERT JUMPDEST POP PUSH2 0x5E8 PUSH2 0x12E1 JUMP JUMPDEST PUSH1 0x40 MLOAD PUSH2 0x5F5 SWAP2 SWAP1 PUSH2 0x1AD6 JUMP JUMPDEST PUSH1 0x40 MLOAD DUP1 SWAP2 SUB SWAP1 RETURN JUMPDEST CALLVALUE DUP1 ISZERO PUSH2 0x60A JUMPI PUSH1 0x0 DUP1 REVERT JUMPDEST POP PUSH2 0x613 PUSH2 0x12E7 JUMP JUMPDEST PUSH1 0x40 MLOAD PUSH2 0x620 SWAP2 SWAP1 PUSH2 0x19E8 JUMP JUMPDEST PUSH1 0x40 MLOAD DUP1 SWAP2 SUB SWAP1 RETURN JUMPDEST CALLVALUE DUP1 ISZERO PUSH2 0x635 JUMPI PUSH1 0x0 DUP1 REVERT JUMPDEST POP PUSH2 0x650 PUSH1 0x4 DUP1 CALLDATASIZE SUB DUP2 ADD SWAP1 PUSH2 0x64B SWAP2 SWAP1 PUSH2 0x180D JUMP JUMPDEST PUSH2 0x130D JUMP JUMPDEST PUSH1 0x40 MLOAD PUSH2 0x65D SWAP2 SWAP1 PUSH2 0x1AD6 JUMP JUMPDEST PUSH1 0x40 MLOAD DUP1 SWAP2 SUB SWAP1 RETURN JUMPDEST PUSH2 0x66E PUSH2 0x6DA JUMP JUMPDEST PUSH1 0x40 MLOAD PUSH2 0x67B SWAP2 SWAP1 PUSH2 0x1A63 JUMP JUMPDEST PUSH1 0x40 MLOAD DUP1 SWAP2 SUB SWAP1 RETURN JUMPDEST CALLVALUE DUP1 ISZERO PUSH2 0x690 JUMPI PUSH1 0x0 DUP1 REVERT JUMPDEST POP PUSH2 0x699 PUSH2 0x1394 JUMP JUMPDEST PUSH1 0x40 MLOAD PUSH2 0x6A6 SWAP2 SWAP1 PUSH2 0x19CD JUMP JUMPDEST PUSH1 0x40 MLOAD DUP1 SWAP2 SUB SWAP1 RETURN JUMPDEST CALLVALUE DUP1 ISZERO PUSH2 0x6BB JUMPI PUSH1 0x0 DUP1 REVERT JUMPDEST POP PUSH2 0x6C4 PUSH2 0x13BA JUMP JUMPDEST PUSH1 0x40 MLOAD PUSH2 0x6D1 SWAP2 SWAP1 PUSH2 0x1AD6 JUMP JUMPDEST PUSH1 0x40 MLOAD DUP1 SWAP2 SUB SWAP1 RETURN JUMPDEST PUSH1 0x0 PUSH2 0x6E4 PUSH2 0xC9C JUMP JUMPDEST PUSH1 0x12 PUSH1 0x0 PUSH2 0x100 EXP DUP2 SLOAD DUP2 PUSH1 0xFF MUL NOT AND SWAP1 DUP4 PUSH1 0x3 DUP2 GT ISZERO PUSH2 0x708 JUMPI PUSH2 0x707 PUSH2 0x1D9A JUMP JUMPDEST JUMPDEST MUL OR SWAP1 SSTORE POP PUSH1 0x1 PUSH1 0x3 DUP2 GT ISZERO PUSH2 0x721 JUMPI PUSH2 0x720 PUSH2 0x1D9A JUMP JUMPDEST JUMPDEST PUSH1 0x12 PUSH1 0x0 SWAP1 SLOAD SWAP1 PUSH2 0x100 EXP SWAP1 DIV PUSH1 0xFF AND PUSH1 0x3 DUP2 GT ISZERO PUSH2 0x743 JUMPI PUSH2 0x742 PUSH2 0x1D9A JUMP JUMPDEST JUMPDEST EQ PUSH2 0x74D JUMPI PUSH1 0x0 DUP1 REVERT JUMPDEST PUSH1 0x11 SLOAD CALLVALUE LT ISZERO DUP1 ISZERO PUSH2 0x761 JUMPI POP PUSH1 0x10 SLOAD CALLVALUE GT ISZERO JUMPDEST PUSH2 0x76A JUMPI PUSH1 0x0 DUP1 REVERT JUMPDEST CALLVALUE PUSH1 0xB PUSH1 0x0 DUP3 DUP3 SLOAD PUSH2 0x77C SWAP2 SWAP1 PUSH2 0x1B0D JUMP JUMPDEST SWAP3 POP POP DUP2 SWAP1 SSTORE POP PUSH1 0xA SLOAD PUSH1 0xB SLOAD GT ISZERO PUSH2 0x794 JUMPI PUSH1 0x0 DUP1 REVERT JUMPDEST PUSH1 0x0 PUSH1 0x9 SLOAD CALLVALUE PUSH2 0x7A4 SWAP2 SWAP1 PUSH2 0x1B63 JUMP JUMPDEST SWAP1 POP PUSH1 0xE PUSH1 0x0 SWAP1 SLOAD SWAP1 PUSH2 0x100 EXP SWAP1 DIV PUSH20 0xFFFFFFFFFFFFFFFFFFFFFFFFFFFFFFFFFFFFFFFF AND PUSH20 0xFFFFFFFFFFFFFFFFFFFFFFFFFFFFFFFFFFFFFFFF AND PUSH4 0xA9059CBB CALLER PUSH8 0xDE0B6B3A7640000 DUP5 PUSH2 0x7F9 SWAP2 SWAP1 PUSH2 0x1B94 JUMP JUMPDEST PUSH1 0x40 MLOAD DUP4 PUSH4 0xFFFFFFFF AND PUSH1 0xE0 SHL DUP2 MSTORE PUSH1 0x4 ADD PUSH2 0x816 SWAP3 SWAP2 SWAP1 PUSH2 0x1A03 JUMP JUMPDEST PUSH1 0x20 PUSH1 0x40 MLOAD DUP1 DUP4 SUB DUP2 PUSH1 0x0 DUP8 DUP1 EXTCODESIZE ISZERO DUP1 ISZERO PUSH2 0x830 JUMPI PUSH1 0x0 DUP1 REVERT JUMPDEST POP GAS CALL ISZERO DUP1 ISZERO PUSH2 0x844 JUMPI RETURNDATASIZE PUSH1 0x0 DUP1 RETURNDATACOPY RETURNDATASIZE PUSH1 0x0 REVERT JUMPDEST POP POP POP POP PUSH1 0x40 MLOAD RETURNDATASIZE PUSH1 0x1F NOT PUSH1 0x1F DUP3 ADD AND DUP3 ADD DUP1 PUSH1 0x40 MSTORE POP DUP2 ADD SWAP1 PUSH2 0x868 SWAP2 SWAP1 PUSH2 0x18E0 JUMP JUMPDEST PUSH2 0x871 JUMPI PUSH1 0x0 DUP1 REVERT JUMPDEST DUP1 PUSH1 0x5 PUSH1 0x0 CALLER PUSH20 0xFFFFFFFFFFFFFFFFFFFFFFFFFFFFFFFFFFFFFFFF AND PUSH20 0xFFFFFFFFFFFFFFFFFFFFFFFFFFFFFFFFFFFFFFFF AND DUP2 MSTORE PUSH1 0x20 ADD SWAP1 DUP2 MSTORE PUSH1 0x20 ADD PUSH1 0x0 KECCAK256 PUSH1 0x0 DUP3 DUP3 SLOAD PUSH2 0x8C0 SWAP2 SWAP1 PUSH2 0x1B0D JUMP JUMPDEST SWAP3 POP POP DUP2 SWAP1 SSTORE POP DUP1 PUSH1 0x5 PUSH1 0x0 PUSH1 0x4 PUSH1 0x0 SWAP1 SLOAD SWAP1 PUSH2 0x100 EXP SWAP1 DIV PUSH20 0xFFFFFFFFFFFFFFFFFFFFFFFFFFFFFFFFFFFFFFFF AND PUSH20 0xFFFFFFFFFFFFFFFFFFFFFFFFFFFFFFFFFFFFFFFF AND PUSH20 0xFFFFFFFFFFFFFFFFFFFFFFFFFFFFFFFFFFFFFFFF AND DUP2 MSTORE PUSH1 0x20 ADD SWAP1 DUP2 MSTORE PUSH1 0x20 ADD PUSH1 0x0 KECCAK256 PUSH1 0x0 DUP3 DUP3 SLOAD PUSH2 0x938 SWAP2 SWAP1 PUSH2 0x1BEE JUMP JUMPDEST SWAP3 POP POP DUP2 SWAP1 SSTORE POP PUSH1 0x8 PUSH1 0x0 SWAP1 SLOAD SWAP1 PUSH2 0x100 EXP SWAP1 DIV PUSH20 0xFFFFFFFFFFFFFFFFFFFFFFFFFFFFFFFFFFFFFFFF AND PUSH20 0xFFFFFFFFFFFFFFFFFFFFFFFFFFFFFFFFFFFFFFFF AND PUSH2 0x8FC CALLVALUE SWAP1 DUP2 ISZERO MUL SWAP1 PUSH1 0x40 MLOAD PUSH1 0x0 PUSH1 0x40 MLOAD DUP1 DUP4 SUB DUP2 DUP6 DUP9 DUP9 CALL SWAP4 POP POP POP POP ISZERO DUP1 ISZERO PUSH2 0x9A7 JUMPI RETURNDATASIZE PUSH1 0x0 DUP1 RETURNDATACOPY RETURNDATASIZE PUSH1 0x0 REVERT JUMPDEST POP PUSH32 0x4AE4BD7655E0D350876A23CD90C4227B13DB560E34435C6A488150A9C844BF5F CALLER CALLVALUE DUP4 PUSH1 0x40 MLOAD PUSH2 0x9DB SWAP4 SWAP3 SWAP2 SWAP1 PUSH2 0x1A2C JUMP JUMPDEST PUSH1 0x40 MLOAD DUP1 SWAP2 SUB SWAP1 LOG1 PUSH1 0x1 SWAP2 POP POP SWAP1 JUMP JUMPDEST PUSH1 0x10 SLOAD DUP2 JUMP JUMPDEST PUSH1 0x7 PUSH1 0x0 SWAP1 SLOAD SWAP1 PUSH2 0x100 EXP SWAP1 DIV PUSH20 0xFFFFFFFFFFFFFFFFFFFFFFFFFFFFFFFFFFFFFFFF AND PUSH20 0xFFFFFFFFFFFFFFFFFFFFFFFFFFFFFFFFFFFFFFFF AND CALLER PUSH20 0xFFFFFFFFFFFFFFFFFFFFFFFFFFFFFFFFFFFFFFFF AND EQ PUSH2 0xA4B JUMPI PUSH1 0x0 DUP1 REVERT JUMPDEST PUSH1 0x1 PUSH1 0x12 PUSH1 0x0 PUSH2 0x100 EXP DUP2 SLOAD DUP2 PUSH1 0xFF MUL NOT AND SWAP1 DUP4 PUSH1 0x3 DUP2 GT ISZERO PUSH2 0xA71 JUMPI PUSH2 0xA70 PUSH2 0x1D9A JUMP JUMPDEST JUMPDEST MUL OR SWAP1 SSTORE POP JUMP JUMPDEST PUSH1 0x0 DUP1 SLOAD PUSH2 0xA85 SWAP1 PUSH2 0x1D0A JUMP JUMPDEST DUP1 PUSH1 0x1F ADD PUSH1 0x20 DUP1 SWAP2 DIV MUL PUSH1 0x20 ADD PUSH1 0x40 MLOAD SWAP1 DUP2 ADD PUSH1 0x40 MSTORE DUP1 SWAP3 SWAP2 SWAP1 DUP2 DUP2 MSTORE PUSH1 0x20 ADD DUP3 DUP1 SLOAD PUSH2 0xAB1 SWAP1 PUSH2 0x1D0A JUMP JUMPDEST DUP1 ISZERO PUSH2 0xAFE JUMPI DUP1 PUSH1 0x1F LT PUSH2 0xAD3 JUMPI PUSH2 0x100 DUP1 DUP4 SLOAD DIV MUL DUP4 MSTORE SWAP2 PUSH1 0x20 ADD SWAP2 PUSH2 0xAFE JUMP JUMPDEST DUP3 ADD SWAP2 SWAP1 PUSH1 0x0 MSTORE PUSH1 0x20 PUSH1 0x0 KECCAK256 SWAP1 JUMPDEST DUP2 SLOAD DUP2 MSTORE SWAP1 PUSH1 0x1 ADD SWAP1 PUSH1 0x20 ADD DUP1 DUP4 GT PUSH2 0xAE1 JUMPI DUP3 SWAP1 SUB PUSH1 0x1F AND DUP3 ADD SWAP2 JUMPDEST POP POP POP POP POP DUP2 JUMP JUMPDEST PUSH1 0x0 DUP2 PUSH1 0x5 PUSH1 0x0 CALLER PUSH20 0xFFFFFFFFFFFFFFFFFFFFFFFFFFFFFFFFFFFFFFFF AND PUSH20 0xFFFFFFFFFFFFFFFFFFFFFFFFFFFFFFFFFFFFFFFF AND DUP2 MSTORE PUSH1 0x20 ADD SWAP1 DUP2 MSTORE PUSH1 0x20 ADD PUSH1 0x0 KECCAK256 SLOAD LT ISZERO PUSH2 0xB54 JUMPI PUSH1 0x0 DUP1 REVERT JUMPDEST PUSH1 0x0 DUP3 GT PUSH2 0xB61 JUMPI PUSH1 0x0 DUP1 REVERT JUMPDEST DUP2 PUSH1 0x6 PUSH1 0x0 CALLER PUSH20 0xFFFFFFFFFFFFFFFFFFFFFFFFFFFFFFFFFFFFFFFF AND PUSH20 0xFFFFFFFFFFFFFFFFFFFFFFFFFFFFFFFFFFFFFFFF AND DUP2 MSTORE PUSH1 0x20 ADD SWAP1 DUP2 MSTORE PUSH1 0x20 ADD PUSH1 0x0 KECCAK256 PUSH1 0x0 DUP6 PUSH20 0xFFFFFFFFFFFFFFFFFFFFFFFFFFFFFFFFFFFFFFFF AND PUSH20 0xFFFFFFFFFFFFFFFFFFFFFFFFFFFFFFFFFFFFFFFF AND DUP2 MSTORE PUSH1 0x20 ADD SWAP1 DUP2 MSTORE PUSH1 0x20 ADD PUSH1 0x0 KECCAK256 DUP2 SWAP1 SSTORE POP DUP3 PUSH20 0xFFFFFFFFFFFFFFFFFFFFFFFFFFFFFFFFFFFFFFFF AND CALLER PUSH20 0xFFFFFFFFFFFFFFFFFFFFFFFFFFFFFFFFFFFFFFFF AND PUSH32 0x8C5BE1E5EBEC7D5BD14F71427D1E84F3DD0314C0F7B2291E5B200AC8C7C3B925 DUP5 PUSH1 0x40 MLOAD PUSH2 0xC3F SWAP2 SWAP1 PUSH2 0x1AD6 JUMP JUMPDEST PUSH1 0x40 MLOAD DUP1 SWAP2 SUB SWAP1 LOG3 PUSH1 0x1 SWAP1 POP SWAP3 SWAP2 POP POP JUMP JUMPDEST PUSH1 0x3 SLOAD DUP2 JUMP JUMPDEST PUSH1 0x0 PUSH1 0xF SLOAD TIMESTAMP GT PUSH2 0xC67 JUMPI PUSH1 0x0 DUP1 REVERT JUMPDEST PUSH2 0xC72 DUP5 DUP5 DUP5 PUSH2 0x13C0 JUMP JUMPDEST POP PUSH1 0x1 SWAP1 POP SWAP4 SWAP3 POP POP POP JUMP JUMPDEST PUSH1 0x5 PUSH1 0x20 MSTORE DUP1 PUSH1 0x0 MSTORE PUSH1 0x40 PUSH1 0x0 KECCAK256 PUSH1 0x0 SWAP2 POP SWAP1 POP SLOAD DUP2 JUMP JUMPDEST PUSH1 0x2 SLOAD DUP2 JUMP JUMPDEST PUSH1 0x0 PUSH1 0x3 DUP1 DUP2 GT ISZERO PUSH2 0xCB1 JUMPI PUSH2 0xCB0 PUSH2 0x1D9A JUMP JUMPDEST JUMPDEST PUSH1 0x12 PUSH1 0x0 SWAP1 SLOAD SWAP1 PUSH2 0x100 EXP SWAP1 DIV PUSH1 0xFF AND PUSH1 0x3 DUP2 GT ISZERO PUSH2 0xCD3 JUMPI PUSH2 0xCD2 PUSH2 0x1D9A JUMP JUMPDEST JUMPDEST EQ ISZERO PUSH2 0xCE2 JUMPI PUSH1 0x3 SWAP1 POP PUSH2 0xD1C JUMP JUMPDEST PUSH1 0xC SLOAD TIMESTAMP LT ISZERO PUSH2 0xCF5 JUMPI PUSH1 0x0 SWAP1 POP PUSH2 0xD1C JUMP JUMPDEST PUSH1 0xC SLOAD TIMESTAMP LT ISZERO DUP1 ISZERO PUSH2 0xD09 JUMPI POP PUSH1 0xD SLOAD TIMESTAMP GT ISZERO JUMPDEST ISZERO PUSH2 0xD17 JUMPI PUSH1 0x1 SWAP1 POP PUSH2 0xD1C JUMP JUMPDEST PUSH1 0x2 SWAP1 POP JUMPDEST SWAP1 JUMP JUMPDEST PUSH1 0x7 PUSH1 0x0 SWAP1 SLOAD SWAP1 PUSH2 0x100 EXP SWAP1 DIV PUSH20 0xFFFFFFFFFFFFFFFFFFFFFFFFFFFFFFFFFFFFFFFF AND PUSH20 0xFFFFFFFFFFFFFFFFFFFFFFFFFFFFFFFFFFFFFFFF AND CALLER PUSH20 0xFFFFFFFFFFFFFFFFFFFFFFFFFFFFFFFFFFFFFFFF AND EQ PUSH2 0xD79 JUMPI PUSH1 0x0 DUP1 REVERT JUMPDEST PUSH1 0xE PUSH1 0x0 SWAP1 SLOAD SWAP1 PUSH2 0x100 EXP SWAP1 DIV PUSH20 0xFFFFFFFFFFFFFFFFFFFFFFFFFFFFFFFFFFFFFFFF AND PUSH20 0xFFFFFFFFFFFFFFFFFFFFFFFFFFFFFFFFFFFFFFFF AND PUSH4 0xA9059CBB PUSH1 0x7 PUSH1 0x0 SWAP1 SLOAD SWAP1 PUSH2 0x100 EXP SWAP1 DIV PUSH20 0xFFFFFFFFFFFFFFFFFFFFFFFFFFFFFFFFFFFFFFFF AND PUSH1 0xE PUSH1 0x0 SWAP1 SLOAD SWAP1 PUSH2 0x100 EXP SWAP1 DIV PUSH20 0xFFFFFFFFFFFFFFFFFFFFFFFFFFFFFFFFFFFFFFFF AND PUSH20 0xFFFFFFFFFFFFFFFFFFFFFFFFFFFFFFFFFFFFFFFF AND PUSH4 0x70A08231 ADDRESS PUSH1 0x40 MLOAD DUP3 PUSH4 0xFFFFFFFF AND PUSH1 0xE0 SHL DUP2 MSTORE PUSH1 0x4 ADD PUSH2 0xE35 SWAP2 SWAP1 PUSH2 0x19CD JUMP JUMPDEST PUSH1 0x20 PUSH1 0x40 MLOAD DUP1 DUP4 SUB DUP2 DUP7 DUP1 EXTCODESIZE ISZERO DUP1 ISZERO PUSH2 0xE4D JUMPI PUSH1 0x0 DUP1 REVERT JUMPDEST POP GAS STATICCALL ISZERO DUP1 ISZERO PUSH2 0xE61 JUMPI RETURNDATASIZE PUSH1 0x0 DUP1 RETURNDATACOPY RETURNDATASIZE PUSH1 0x0 REVERT JUMPDEST POP POP POP POP PUSH1 0x40 MLOAD RETURNDATASIZE PUSH1 0x1F NOT PUSH1 0x1F DUP3 ADD AND DUP3 ADD DUP1 PUSH1 0x40 MSTORE POP DUP2 ADD SWAP1 PUSH2 0xE85 SWAP2 SWAP1 PUSH2 0x190D JUMP JUMPDEST PUSH1 0x40 MLOAD DUP4 PUSH4 0xFFFFFFFF AND PUSH1 0xE0 SHL DUP2 MSTORE PUSH1 0x4 ADD PUSH2 0xEA2 SWAP3 SWAP2 SWAP1 PUSH2 0x1A03 JUMP JUMPDEST PUSH1 0x20 PUSH1 0x40 MLOAD DUP1 DUP4 SUB DUP2 PUSH1 0x0 DUP8 DUP1 EXTCODESIZE ISZERO DUP1 ISZERO PUSH2 0xEBC JUMPI PUSH1 0x0 DUP1 REVERT JUMPDEST POP GAS CALL ISZERO DUP1 ISZERO PUSH2 0xED0 JUMPI RETURNDATASIZE PUSH1 0x0 DUP1 RETURNDATACOPY RETURNDATASIZE PUSH1 0x0 REVERT JUMPDEST POP POP POP POP PUSH1 0x40 MLOAD RETURNDATASIZE PUSH1 0x1F NOT PUSH1 0x1F DUP3 ADD AND DUP3 ADD DUP1 PUSH1 0x40 MSTORE POP DUP2 ADD SWAP1 PUSH2 0xEF4 SWAP2 SWAP1 PUSH2 0x18E0 JUMP JUMPDEST PUSH2 0xEFD JUMPI PUSH1 0x0 DUP1 REVERT JUMPDEST PUSH1 0x7 PUSH1 0x0 SWAP1 SLOAD SWAP1 PUSH2 0x100 EXP SWAP1 DIV PUSH20 0xFFFFFFFFFFFFFFFFFFFFFFFFFFFFFFFFFFFFFFFF AND PUSH20 0xFFFFFFFFFFFFFFFFFFFFFFFFFFFFFFFFFFFFFFFF AND PUSH2 0x8FC SELFBALANCE SWAP1 DUP2 ISZERO MUL SWAP1 PUSH1 0x40 MLOAD PUSH1 0x0 PUSH1 0x40 MLOAD DUP1 DUP4 SUB DUP2 DUP6 DUP9 DUP9 CALL SWAP4 POP POP POP POP ISZERO DUP1 ISZERO PUSH2 0xF65 JUMPI RETURNDATASIZE PUSH1 0x0 DUP1 RETURNDATACOPY RETURNDATASIZE PUSH1 0x0 REVERT JUMPDEST POP JUMP JUMPDEST PUSH1 0x0 PUSH2 0xF72 PUSH2 0xC9C JUMP JUMPDEST PUSH1 0x12 PUSH1 0x0 PUSH2 0x100 EXP DUP2 SLOAD DUP2 PUSH1 0xFF MUL NOT AND SWAP1 DUP4 PUSH1 0x3 DUP2 GT ISZERO PUSH2 0xF96 JUMPI PUSH2 0xF95 PUSH2 0x1D9A JUMP JUMPDEST JUMPDEST MUL OR SWAP1 SSTORE POP PUSH1 0x2 PUSH1 0x3 DUP2 GT ISZERO PUSH2 0xFAF JUMPI PUSH2 0xFAE PUSH2 0x1D9A JUMP JUMPDEST JUMPDEST PUSH1 0x12 PUSH1 0x0 SWAP1 SLOAD SWAP1 PUSH2 0x100 EXP SWAP1 DIV PUSH1 0xFF AND PUSH1 0x3 DUP2 GT ISZERO PUSH2 0xFD1 JUMPI PUSH2 0xFD0 PUSH2 0x1D9A JUMP JUMPDEST JUMPDEST EQ PUSH2 0xFDB JUMPI PUSH1 0x0 DUP1 REVERT JUMPDEST PUSH1 0x0 PUSH1 0x5 PUSH1 0x0 PUSH1 0x4 PUSH1 0x0 SWAP1 SLOAD SWAP1 PUSH2 0x100 EXP SWAP1 DIV PUSH20 0xFFFFFFFFFFFFFFFFFFFFFFFFFFFFFFFFFFFFFFFF AND PUSH20 0xFFFFFFFFFFFFFFFFFFFFFFFFFFFFFFFFFFFFFFFF AND PUSH20 0xFFFFFFFFFFFFFFFFFFFFFFFFFFFFFFFFFFFFFFFF AND DUP2 MSTORE PUSH1 0x20 ADD SWAP1 DUP2 MSTORE PUSH1 0x20 ADD PUSH1 0x0 KECCAK256 DUP2 SWAP1 SSTORE POP PUSH1 0x1 SWAP1 POP SWAP1 JUMP JUMPDEST PUSH1 0x12 PUSH1 0x0 SWAP1 SLOAD SWAP1 PUSH2 0x100 EXP SWAP1 DIV PUSH1 0xFF AND DUP2 JUMP JUMPDEST PUSH1 0x4 PUSH1 0x0 SWAP1 SLOAD SWAP1 PUSH2 0x100 EXP SWAP1 DIV PUSH20 0xFFFFFFFFFFFFFFFFFFFFFFFFFFFFFFFFFFFFFFFF AND DUP2 JUMP JUMPDEST PUSH1 0xE PUSH1 0x0 SWAP1 SLOAD SWAP1 PUSH2 0x100 EXP SWAP1 DIV PUSH20 0xFFFFFFFFFFFFFFFFFFFFFFFFFFFFFFFFFFFFFFFF AND DUP2 JUMP JUMPDEST PUSH1 0x7 PUSH1 0x0 SWAP1 SLOAD SWAP1 PUSH2 0x100 EXP SWAP1 DIV PUSH20 0xFFFFFFFFFFFFFFFFFFFFFFFFFFFFFFFFFFFFFFFF AND PUSH20 0xFFFFFFFFFFFFFFFFFFFFFFFFFFFFFFFFFFFFFFFF AND CALLER PUSH20 0xFFFFFFFFFFFFFFFFFFFFFFFFFFFFFFFFFFFFFFFF AND EQ PUSH2 0x1102 JUMPI PUSH1 0x0 DUP1 REVERT JUMPDEST PUSH1 0x3 PUSH1 0x12 PUSH1 0x0 PUSH2 0x100 EXP DUP2 SLOAD DUP2 PUSH1 0xFF MUL NOT AND SWAP1 DUP4 PUSH1 0x3 DUP2 GT ISZERO PUSH2 0x1128 JUMPI PUSH2 0x1127 PUSH2 0x1D9A JUMP JUMPDEST JUMPDEST MUL OR SWAP1 SSTORE POP JUMP JUMPDEST PUSH1 0x7 PUSH1 0x0 SWAP1 SLOAD SWAP1 PUSH2 0x100 EXP SWAP1 DIV PUSH20 0xFFFFFFFFFFFFFFFFFFFFFFFFFFFFFFFFFFFFFFFF AND PUSH20 0xFFFFFFFFFFFFFFFFFFFFFFFFFFFFFFFFFFFFFFFF AND CALLER PUSH20 0xFFFFFFFFFFFFFFFFFFFFFFFFFFFFFFFFFFFFFFFF AND EQ PUSH2 0x1189 JUMPI PUSH1 0x0 DUP1 REVERT JUMPDEST DUP1 PUSH1 0x8 PUSH1 0x0 PUSH2 0x100 EXP DUP2 SLOAD DUP2 PUSH20 0xFFFFFFFFFFFFFFFFFFFFFFFFFFFFFFFFFFFFFFFF MUL NOT AND SWAP1 DUP4 PUSH20 0xFFFFFFFFFFFFFFFFFFFFFFFFFFFFFFFFFFFFFFFF AND MUL OR SWAP1 SSTORE POP POP JUMP JUMPDEST PUSH1 0x0 PUSH1 0x5 PUSH1 0x0 DUP4 PUSH20 0xFFFFFFFFFFFFFFFFFFFFFFFFFFFFFFFFFFFFFFFF AND PUSH20 0xFFFFFFFFFFFFFFFFFFFFFFFFFFFFFFFFFFFFFFFF AND DUP2 MSTORE PUSH1 0x20 ADD SWAP1 DUP2 MSTORE PUSH1 0x20 ADD PUSH1 0x0 KECCAK256 SLOAD SWAP1 POP SWAP2 SWAP1 POP JUMP JUMPDEST PUSH1 0x11 SLOAD DUP2 JUMP JUMPDEST PUSH1 0x1 DUP1 SLOAD PUSH2 0x1229 SWAP1 PUSH2 0x1D0A JUMP JUMPDEST DUP1 PUSH1 0x1F ADD PUSH1 0x20 DUP1 SWAP2 DIV MUL PUSH1 0x20 ADD PUSH1 0x40 MLOAD SWAP1 DUP2 ADD PUSH1 0x40 MSTORE DUP1 SWAP3 SWAP2 SWAP1 DUP2 DUP2 MSTORE PUSH1 0x20 ADD DUP3 DUP1 SLOAD PUSH2 0x1255 SWAP1 PUSH2 0x1D0A JUMP JUMPDEST DUP1 ISZERO PUSH2 0x12A2 JUMPI DUP1 PUSH1 0x1F LT PUSH2 0x1277 JUMPI PUSH2 0x100 DUP1 DUP4 SLOAD DIV MUL DUP4 MSTORE SWAP2 PUSH1 0x20 ADD SWAP2 PUSH2 0x12A2 JUMP JUMPDEST DUP3 ADD SWAP2 SWAP1 PUSH1 0x0 MSTORE PUSH1 0x20 PUSH1 0x0 KECCAK256 SWAP1 JUMPDEST DUP2 SLOAD DUP2 MSTORE SWAP1 PUSH1 0x1 ADD SWAP1 PUSH1 0x20 ADD DUP1 DUP4 GT PUSH2 0x1285 JUMPI DUP3 SWAP1 SUB PUSH1 0x1F AND DUP3 ADD SWAP2 JUMPDEST POP POP POP POP POP DUP2 JUMP JUMPDEST PUSH1 0x0 PUSH1 0xF SLOAD TIMESTAMP GT PUSH2 0x12BA JUMPI PUSH1 0x0 DUP1 REVERT JUMPDEST PUSH2 0x12C4 DUP4 DUP4 PUSH2 0x15E1 JUMP JUMPDEST POP PUSH1 0x1 SWAP1 POP SWAP3 SWAP2 POP POP JUMP JUMPDEST PUSH1 0xC SLOAD DUP2 JUMP JUMPDEST PUSH1 0xD SLOAD DUP2 JUMP JUMPDEST PUSH1 0xB SLOAD DUP2 JUMP JUMPDEST PUSH1 0xF SLOAD DUP2 JUMP JUMPDEST PUSH1 0x8 PUSH1 0x0 SWAP1 SLOAD SWAP1 PUSH2 0x100 EXP SWAP1 DIV PUSH20 0xFFFFFFFFFFFFFFFFFFFFFFFFFFFFFFFFFFFFFFFF AND DUP2 JUMP JUMPDEST PUSH1 0x0 PUSH1 0x6 PUSH1 0x0 DUP5 PUSH20 0xFFFFFFFFFFFFFFFFFFFFFFFFFFFFFFFFFFFFFFFF AND PUSH20 0xFFFFFFFFFFFFFFFFFFFFFFFFFFFFFFFFFFFFFFFF AND DUP2 MSTORE PUSH1 0x20 ADD SWAP1 DUP2 MSTORE PUSH1 0x20 ADD PUSH1 0x0 KECCAK256 PUSH1 0x0 DUP4 PUSH20 0xFFFFFFFFFFFFFFFFFFFFFFFFFFFFFFFFFFFFFFFF AND PUSH20 0xFFFFFFFFFFFFFFFFFFFFFFFFFFFFFFFFFFFFFFFF AND DUP2 MSTORE PUSH1 0x20 ADD SWAP1 DUP2 MSTORE PUSH1 0x20 ADD PUSH1 0x0 KECCAK256 SLOAD SWAP1 POP SWAP3 SWAP2 POP POP JUMP JUMPDEST PUSH1 0x7 PUSH1 0x0 SWAP1 SLOAD SWAP1 PUSH2 0x100 EXP SWAP1 DIV PUSH20 0xFFFFFFFFFFFFFFFFFFFFFFFFFFFFFFFFFFFFFFFF AND DUP2 JUMP JUMPDEST PUSH1 0xA SLOAD DUP2 JUMP JUMPDEST PUSH1 0x0 DUP2 PUSH1 0x6 PUSH1 0x0 DUP7 PUSH20 0xFFFFFFFFFFFFFFFFFFFFFFFFFFFFFFFFFFFFFFFF AND PUSH20 0xFFFFFFFFFFFFFFFFFFFFFFFFFFFFFFFFFFFFFFFF AND DUP2 MSTORE PUSH1 0x20 ADD SWAP1 DUP2 MSTORE PUSH1 0x20 ADD PUSH1 0x0 KECCAK256 PUSH1 0x0 DUP6 PUSH20 0xFFFFFFFFFFFFFFFFFFFFFFFFFFFFFFFFFFFFFFFF AND PUSH20 0xFFFFFFFFFFFFFFFFFFFFFFFFFFFFFFFFFFFFFFFF AND DUP2 MSTORE PUSH1 0x20 ADD SWAP1 DUP2 MSTORE PUSH1 0x20 ADD PUSH1 0x0 KECCAK256 SLOAD LT ISZERO PUSH2 0x144B JUMPI PUSH1 0x0 DUP1 REVERT JUMPDEST DUP2 PUSH1 0x5 PUSH1 0x0 DUP7 PUSH20 0xFFFFFFFFFFFFFFFFFFFFFFFFFFFFFFFFFFFFFFFF AND PUSH20 0xFFFFFFFFFFFFFFFFFFFFFFFFFFFFFFFFFFFFFFFF AND DUP2 MSTORE PUSH1 0x20 ADD SWAP1 DUP2 MSTORE PUSH1 0x20 ADD PUSH1 0x0 KECCAK256 SLOAD LT ISZERO PUSH2 0x1497 JUMPI PUSH1 0x0 DUP1 REVERT JUMPDEST DUP2 PUSH1 0x5 PUSH1 0x0 DUP7 PUSH20 0xFFFFFFFFFFFFFFFFFFFFFFFFFFFFFFFFFFFFFFFF AND PUSH20 0xFFFFFFFFFFFFFFFFFFFFFFFFFFFFFFFFFFFFFFFF AND DUP2 MSTORE PUSH1 0x20 ADD SWAP1 DUP2 MSTORE PUSH1 0x20 ADD PUSH1 0x0 KECCAK256 PUSH1 0x0 DUP3 DUP3 SLOAD PUSH2 0x14E6 SWAP2 SWAP1 PUSH2 0x1BEE JUMP JUMPDEST SWAP3 POP POP DUP2 SWAP1 SSTORE POP DUP2 PUSH1 0x5 PUSH1 0x0 DUP6 PUSH20 0xFFFFFFFFFFFFFFFFFFFFFFFFFFFFFFFFFFFFFFFF AND PUSH20 0xFFFFFFFFFFFFFFFFFFFFFFFFFFFFFFFFFFFFFFFF AND DUP2 MSTORE PUSH1 0x20 ADD SWAP1 DUP2 MSTORE PUSH1 0x20 ADD PUSH1 0x0 KECCAK256 PUSH1 0x0 DUP3 DUP3 SLOAD PUSH2 0x153C SWAP2 SWAP1 PUSH2 0x1B0D JUMP JUMPDEST SWAP3 POP POP DUP2 SWAP1 SSTORE POP DUP2 PUSH1 0x6 PUSH1 0x0 DUP7 PUSH20 0xFFFFFFFFFFFFFFFFFFFFFFFFFFFFFFFFFFFFFFFF AND PUSH20 0xFFFFFFFFFFFFFFFFFFFFFFFFFFFFFFFFFFFFFFFF AND DUP2 MSTORE PUSH1 0x20 ADD SWAP1 DUP2 MSTORE PUSH1 0x20 ADD PUSH1 0x0 KECCAK256 PUSH1 0x0 DUP6 PUSH20 0xFFFFFFFFFFFFFFFFFFFFFFFFFFFFFFFFFFFFFFFF AND PUSH20 0xFFFFFFFFFFFFFFFFFFFFFFFFFFFFFFFFFFFFFFFF AND DUP2 MSTORE PUSH1 0x20 ADD SWAP1 DUP2 MSTORE PUSH1 0x20 ADD PUSH1 0x0 KECCAK256 PUSH1 0x0 DUP3 DUP3 SLOAD PUSH2 0x15CF SWAP2 SWAP1 PUSH2 0x1BEE JUMP JUMPDEST SWAP3 POP POP DUP2 SWAP1 SSTORE POP PUSH1 0x1 SWAP1 POP SWAP4 SWAP3 POP POP POP JUMP JUMPDEST PUSH1 0x0 DUP2 PUSH1 0x5 PUSH1 0x0 CALLER PUSH20 0xFFFFFFFFFFFFFFFFFFFFFFFFFFFFFFFFFFFFFFFF AND PUSH20 0xFFFFFFFFFFFFFFFFFFFFFFFFFFFFFFFFFFFFFFFF AND DUP2 MSTORE PUSH1 0x20 ADD SWAP1 DUP2 MSTORE PUSH1 0x20 ADD PUSH1 0x0 KECCAK256 SLOAD LT ISZERO PUSH2 0x162F JUMPI PUSH1 0x0 DUP1 REVERT JUMPDEST DUP2 PUSH1 0x5 PUSH1 0x0 DUP6 PUSH20 0xFFFFFFFFFFFFFFFFFFFFFFFFFFFFFFFFFFFFFFFF AND PUSH20 0xFFFFFFFFFFFFFFFFFFFFFFFFFFFFFFFFFFFFFFFF AND DUP2 MSTORE PUSH1 0x20 ADD SWAP1 DUP2 MSTORE PUSH1 0x20 ADD PUSH1 0x0 KECCAK256 PUSH1 0x0 DUP3 DUP3 SLOAD PUSH2 0x167E SWAP2 SWAP1 PUSH2 0x1B0D JUMP JUMPDEST SWAP3 POP POP DUP2 SWAP1 SSTORE POP DUP2 PUSH1 0x5 PUSH1 0x0 CALLER PUSH20 0xFFFFFFFFFFFFFFFFFFFFFFFFFFFFFFFFFFFFFFFF AND PUSH20 0xFFFFFFFFFFFFFFFFFFFFFFFFFFFFFFFFFFFFFFFF AND DUP2 MSTORE PUSH1 0x20 ADD SWAP1 DUP2 MSTORE PUSH1 0x20 ADD PUSH1 0x0 KECCAK256 PUSH1 0x0 DUP3 DUP3 SLOAD PUSH2 0x16D4 SWAP2 SWAP1 PUSH2 0x1BEE JUMP JUMPDEST SWAP3 POP POP DUP2 SWAP1 SSTORE POP DUP3 PUSH20 0xFFFFFFFFFFFFFFFFFFFFFFFFFFFFFFFFFFFFFFFF AND CALLER PUSH20 0xFFFFFFFFFFFFFFFFFFFFFFFFFFFFFFFFFFFFFFFF AND PUSH32 0xDDF252AD1BE2C89B69C2B068FC378DAA952BA7F163C4A11628F55A4DF523B3EF DUP5 PUSH1 0x40 MLOAD PUSH2 0x1738 SWAP2 SWAP1 PUSH2 0x1AD6 JUMP JUMPDEST PUSH1 0x40 MLOAD DUP1 SWAP2 SUB SWAP1 LOG3 PUSH1 0x1 SWAP1 POP SWAP3 SWAP2 POP POP JUMP JUMPDEST PUSH1 0x0 DUP2 CALLDATALOAD SWAP1 POP PUSH2 0x1759 DUP2 PUSH2 0x1E22 JUMP JUMPDEST SWAP3 SWAP2 POP POP JUMP JUMPDEST PUSH1 0x0 DUP2 CALLDATALOAD SWAP1 POP PUSH2 0x176E DUP2 PUSH2 0x1E39 JUMP JUMPDEST SWAP3 SWAP2 POP POP JUMP JUMPDEST PUSH1 0x0 DUP2 MLOAD SWAP1 POP PUSH2 0x1783 DUP2 PUSH2 0x1E50 JUMP JUMPDEST SWAP3 SWAP2 POP POP JUMP JUMPDEST PUSH1 0x0 DUP2 CALLDATALOAD SWAP1 POP PUSH2 0x1798 DUP2 PUSH2 0x1E67 JUMP JUMPDEST SWAP3 SWAP2 POP POP JUMP JUMPDEST PUSH1 0x0 DUP2 MLOAD SWAP1 POP PUSH2 0x17AD DUP2 PUSH2 0x1E67 JUMP JUMPDEST SWAP3 SWAP2 POP POP JUMP JUMPDEST PUSH1 0x0 PUSH1 0x20 DUP3 DUP5 SUB SLT ISZERO PUSH2 0x17C9 JUMPI PUSH2 0x17C8 PUSH2 0x1DF8 JUMP JUMPDEST JUMPDEST PUSH1 0x0 PUSH2 0x17D7 DUP5 DUP3 DUP6 ADD PUSH2 0x174A JUMP JUMPDEST SWAP2 POP POP SWAP3 SWAP2 POP POP JUMP JUMPDEST PUSH1 0x0 PUSH1 0x20 DUP3 DUP5 SUB SLT ISZERO PUSH2 0x17F6 JUMPI PUSH2 0x17F5 PUSH2 0x1DF8 JUMP JUMPDEST JUMPDEST PUSH1 0x0 PUSH2 0x1804 DUP5 DUP3 DUP6 ADD PUSH2 0x175F JUMP JUMPDEST SWAP2 POP POP SWAP3 SWAP2 POP POP JUMP JUMPDEST PUSH1 0x0 DUP1 PUSH1 0x40 DUP4 DUP6 SUB SLT ISZERO PUSH2 0x1824 JUMPI PUSH2 0x1823 PUSH2 0x1DF8 JUMP JUMPDEST JUMPDEST PUSH1 0x0 PUSH2 0x1832 DUP6 DUP3 DUP7 ADD PUSH2 0x174A JUMP JUMPDEST SWAP3 POP POP PUSH1 0x20 PUSH2 0x1843 DUP6 DUP3 DUP7 ADD PUSH2 0x174A JUMP JUMPDEST SWAP2 POP POP SWAP3 POP SWAP3 SWAP1 POP JUMP JUMPDEST PUSH1 0x0 DUP1 PUSH1 0x0 PUSH1 0x60 DUP5 DUP7 SUB SLT ISZERO PUSH2 0x1866 JUMPI PUSH2 0x1865 PUSH2 0x1DF8 JUMP JUMPDEST JUMPDEST PUSH1 0x0 PUSH2 0x1874 DUP7 DUP3 DUP8 ADD PUSH2 0x174A JUMP JUMPDEST SWAP4 POP POP PUSH1 0x20 PUSH2 0x1885 DUP7 DUP3 DUP8 ADD PUSH2 0x174A JUMP JUMPDEST SWAP3 POP POP PUSH1 0x40 PUSH2 0x1896 DUP7 DUP3 DUP8 ADD PUSH2 0x1789 JUMP JUMPDEST SWAP2 POP POP SWAP3 POP SWAP3 POP SWAP3 JUMP JUMPDEST PUSH1 0x0 DUP1 PUSH1 0x40 DUP4 DUP6 SUB SLT ISZERO PUSH2 0x18B7 JUMPI PUSH2 0x18B6 PUSH2 0x1DF8 JUMP JUMPDEST JUMPDEST PUSH1 0x0 PUSH2 0x18C5 DUP6 DUP3 DUP7 ADD PUSH2 0x174A JUMP JUMPDEST SWAP3 POP POP PUSH1 0x20 PUSH2 0x18D6 DUP6 DUP3 DUP7 ADD PUSH2 0x1789 JUMP JUMPDEST SWAP2 POP POP SWAP3 POP SWAP3 SWAP1 POP JUMP JUMPDEST PUSH1 0x0 PUSH1 0x20 DUP3 DUP5 SUB SLT ISZERO PUSH2 0x18F6 JUMPI PUSH2 0x18F5 PUSH2 0x1DF8 JUMP JUMPDEST JUMPDEST PUSH1 0x0 PUSH2 0x1904 DUP5 DUP3 DUP6 ADD PUSH2 0x1774 JUMP JUMPDEST SWAP2 POP POP SWAP3 SWAP2 POP POP JUMP JUMPDEST PUSH1 0x0 PUSH1 0x20 DUP3 DUP5 SUB SLT ISZERO PUSH2 0x1923 JUMPI PUSH2 0x1922 PUSH2 0x1DF8 JUMP JUMPDEST JUMPDEST PUSH1 0x0 PUSH2 0x1931 DUP5 DUP3 DUP6 ADD PUSH2 0x179E JUMP JUMPDEST SWAP2 POP POP SWAP3 SWAP2 POP POP JUMP JUMPDEST PUSH2 0x1943 DUP2 PUSH2 0x1C34 JUMP JUMPDEST DUP3 MSTORE POP POP JUMP JUMPDEST PUSH2 0x1952 DUP2 PUSH2 0x1C22 JUMP JUMPDEST DUP3 MSTORE POP POP JUMP JUMPDEST PUSH2 0x1961 DUP2 PUSH2 0x1C46 JUMP JUMPDEST DUP3 MSTORE POP POP JUMP JUMPDEST PUSH2 0x1970 DUP2 PUSH2 0x1C8F JUMP JUMPDEST DUP3 MSTORE POP POP JUMP JUMPDEST PUSH2 0x197F DUP2 PUSH2 0x1CA1 JUMP JUMPDEST DUP3 MSTORE POP POP JUMP JUMPDEST PUSH1 0x0 PUSH2 0x1990 DUP3 PUSH2 0x1AF1 JUMP JUMPDEST PUSH2 0x199A DUP2 DUP6 PUSH2 0x1AFC JUMP JUMPDEST SWAP4 POP PUSH2 0x19AA DUP2 DUP6 PUSH1 0x20 DUP7 ADD PUSH2 0x1CD7 JUMP JUMPDEST PUSH2 0x19B3 DUP2 PUSH2 0x1DFD JUMP JUMPDEST DUP5 ADD SWAP2 POP POP SWAP3 SWAP2 POP POP JUMP JUMPDEST PUSH2 0x19C7 DUP2 PUSH2 0x1C85 JUMP JUMPDEST DUP3 MSTORE POP POP JUMP JUMPDEST PUSH1 0x0 PUSH1 0x20 DUP3 ADD SWAP1 POP PUSH2 0x19E2 PUSH1 0x0 DUP4 ADD DUP5 PUSH2 0x1949 JUMP JUMPDEST SWAP3 SWAP2 POP POP JUMP JUMPDEST PUSH1 0x0 PUSH1 0x20 DUP3 ADD SWAP1 POP PUSH2 0x19FD PUSH1 0x0 DUP4 ADD DUP5 PUSH2 0x193A JUMP JUMPDEST SWAP3 SWAP2 POP POP JUMP JUMPDEST PUSH1 0x0 PUSH1 0x40 DUP3 ADD SWAP1 POP PUSH2 0x1A18 PUSH1 0x0 DUP4 ADD DUP6 PUSH2 0x1949 JUMP JUMPDEST PUSH2 0x1A25 PUSH1 0x20 DUP4 ADD DUP5 PUSH2 0x19BE JUMP JUMPDEST SWAP4 SWAP3 POP POP POP JUMP JUMPDEST PUSH1 0x0 PUSH1 0x60 DUP3 ADD SWAP1 POP PUSH2 0x1A41 PUSH1 0x0 DUP4 ADD DUP7 PUSH2 0x1949 JUMP JUMPDEST PUSH2 0x1A4E PUSH1 0x20 DUP4 ADD DUP6 PUSH2 0x19BE JUMP JUMPDEST PUSH2 0x1A5B PUSH1 0x40 DUP4 ADD DUP5 PUSH2 0x19BE JUMP JUMPDEST SWAP5 SWAP4 POP POP POP POP JUMP JUMPDEST PUSH1 0x0 PUSH1 0x20 DUP3 ADD SWAP1 POP PUSH2 0x1A78 PUSH1 0x0 DUP4 ADD DUP5 PUSH2 0x1958 JUMP JUMPDEST SWAP3 SWAP2 POP POP JUMP JUMPDEST PUSH1 0x0 PUSH1 0x20 DUP3 ADD SWAP1 POP PUSH2 0x1A93 PUSH1 0x0 DUP4 ADD DUP5 PUSH2 0x1967 JUMP JUMPDEST SWAP3 SWAP2 POP POP JUMP JUMPDEST PUSH1 0x0 PUSH1 0x20 DUP3 ADD SWAP1 POP PUSH2 0x1AAE PUSH1 0x0 DUP4 ADD DUP5 PUSH2 0x1976 JUMP JUMPDEST SWAP3 SWAP2 POP POP JUMP JUMPDEST PUSH1 0x0 PUSH1 0x20 DUP3 ADD SWAP1 POP DUP2 DUP2 SUB PUSH1 0x0 DUP4 ADD MSTORE PUSH2 0x1ACE DUP2 DUP5 PUSH2 0x1985 JUMP JUMPDEST SWAP1 POP SWAP3 SWAP2 POP POP JUMP JUMPDEST PUSH1 0x0 PUSH1 0x20 DUP3 ADD SWAP1 POP PUSH2 0x1AEB PUSH1 0x0 DUP4 ADD DUP5 PUSH2 0x19BE JUMP JUMPDEST SWAP3 SWAP2 POP POP JUMP JUMPDEST PUSH1 0x0 DUP2 MLOAD SWAP1 POP SWAP2 SWAP1 POP JUMP JUMPDEST PUSH1 0x0 DUP3 DUP3 MSTORE PUSH1 0x20 DUP3 ADD SWAP1 POP SWAP3 SWAP2 POP POP JUMP JUMPDEST PUSH1 0x0 PUSH2 0x1B18 DUP3 PUSH2 0x1C85 JUMP JUMPDEST SWAP2 POP PUSH2 0x1B23 DUP4 PUSH2 0x1C85 JUMP JUMPDEST SWAP3 POP DUP3 PUSH32 0xFFFFFFFFFFFFFFFFFFFFFFFFFFFFFFFFFFFFFFFFFFFFFFFFFFFFFFFFFFFFFFFF SUB DUP3 GT ISZERO PUSH2 0x1B58 JUMPI PUSH2 0x1B57 PUSH2 0x1D3C JUMP JUMPDEST JUMPDEST DUP3 DUP3 ADD SWAP1 POP SWAP3 SWAP2 POP POP JUMP JUMPDEST PUSH1 0x0 PUSH2 0x1B6E DUP3 PUSH2 0x1C85 JUMP JUMPDEST SWAP2 POP PUSH2 0x1B79 DUP4 PUSH2 0x1C85 JUMP JUMPDEST SWAP3 POP DUP3 PUSH2 0x1B89 JUMPI PUSH2 0x1B88 PUSH2 0x1D6B JUMP JUMPDEST JUMPDEST DUP3 DUP3 DIV SWAP1 POP SWAP3 SWAP2 POP POP JUMP JUMPDEST PUSH1 0x0 PUSH2 0x1B9F DUP3 PUSH2 0x1C85 JUMP JUMPDEST SWAP2 POP PUSH2 0x1BAA DUP4 PUSH2 0x1C85 JUMP JUMPDEST SWAP3 POP DUP2 PUSH32 0xFFFFFFFFFFFFFFFFFFFFFFFFFFFFFFFFFFFFFFFFFFFFFFFFFFFFFFFFFFFFFFFF DIV DUP4 GT DUP3 ISZERO ISZERO AND ISZERO PUSH2 0x1BE3 JUMPI PUSH2 0x1BE2 PUSH2 0x1D3C JUMP JUMPDEST JUMPDEST DUP3 DUP3 MUL SWAP1 POP SWAP3 SWAP2 POP POP JUMP JUMPDEST PUSH1 0x0 PUSH2 0x1BF9 DUP3 PUSH2 0x1C85 JUMP JUMPDEST SWAP2 POP PUSH2 0x1C04 DUP4 PUSH2 0x1C85 JUMP JUMPDEST SWAP3 POP DUP3 DUP3 LT ISZERO PUSH2 0x1C17 JUMPI PUSH2 0x1C16 PUSH2 0x1D3C JUMP JUMPDEST JUMPDEST DUP3 DUP3 SUB SWAP1 POP SWAP3 SWAP2 POP POP JUMP JUMPDEST PUSH1 0x0 PUSH2 0x1C2D DUP3 PUSH2 0x1C65 JUMP JUMPDEST SWAP1 POP SWAP2 SWAP1 POP JUMP JUMPDEST PUSH1 0x0 PUSH2 0x1C3F DUP3 PUSH2 0x1C65 JUMP JUMPDEST SWAP1 POP SWAP2 SWAP1 POP JUMP JUMPDEST PUSH1 0x0 DUP2 ISZERO ISZERO SWAP1 POP SWAP2 SWAP1 POP JUMP JUMPDEST PUSH1 0x0 DUP2 SWAP1 POP PUSH2 0x1C60 DUP3 PUSH2 0x1E0E JUMP JUMPDEST SWAP2 SWAP1 POP JUMP JUMPDEST PUSH1 0x0 PUSH20 0xFFFFFFFFFFFFFFFFFFFFFFFFFFFFFFFFFFFFFFFF DUP3 AND SWAP1 POP SWAP2 SWAP1 POP JUMP JUMPDEST PUSH1 0x0 DUP2 SWAP1 POP SWAP2 SWAP1 POP JUMP JUMPDEST PUSH1 0x0 PUSH2 0x1C9A DUP3 PUSH2 0x1CB3 JUMP JUMPDEST SWAP1 POP SWAP2 SWAP1 POP JUMP JUMPDEST PUSH1 0x0 PUSH2 0x1CAC DUP3 PUSH2 0x1C52 JUMP JUMPDEST SWAP1 POP SWAP2 SWAP1 POP JUMP JUMPDEST PUSH1 0x0 PUSH2 0x1CBE DUP3 PUSH2 0x1CC5 JUMP JUMPDEST SWAP1 POP SWAP2 SWAP1 POP JUMP JUMPDEST PUSH1 0x0 PUSH2 0x1CD0 DUP3 PUSH2 0x1C65 JUMP JUMPDEST SWAP1 POP SWAP2 SWAP1 POP JUMP JUMPDEST PUSH1 0x0 JUMPDEST DUP4 DUP2 LT ISZERO PUSH2 0x1CF5 JUMPI DUP1 DUP3 ADD MLOAD DUP2 DUP5 ADD MSTORE PUSH1 0x20 DUP2 ADD SWAP1 POP PUSH2 0x1CDA JUMP JUMPDEST DUP4 DUP2 GT ISZERO PUSH2 0x1D04 JUMPI PUSH1 0x0 DUP5 DUP5 ADD MSTORE JUMPDEST POP POP POP POP JUMP JUMPDEST PUSH1 0x0 PUSH1 0x2 DUP3 DIV SWAP1 POP PUSH1 0x1 DUP3 AND DUP1 PUSH2 0x1D22 JUMPI PUSH1 0x7F DUP3 AND SWAP2 POP JUMPDEST PUSH1 0x20 DUP3 LT DUP2 EQ ISZERO PUSH2 0x1D36 JUMPI PUSH2 0x1D35 PUSH2 0x1DC9 JUMP JUMPDEST JUMPDEST POP SWAP2 SWAP1 POP JUMP JUMPDEST PUSH32 0x4E487B7100000000000000000000000000000000000000000000000000000000 PUSH1 0x0 MSTORE PUSH1 0x11 PUSH1 0x4 MSTORE PUSH1 0x24 PUSH1 0x0 REVERT JUMPDEST PUSH32 0x4E487B7100000000000000000000000000000000000000000000000000000000 PUSH1 0x0 MSTORE PUSH1 0x12 PUSH1 0x4 MSTORE PUSH1 0x24 PUSH1 0x0 REVERT JUMPDEST PUSH32 0x4E487B7100000000000000000000000000000000000000000000000000000000 PUSH1 0x0 MSTORE PUSH1 0x21 PUSH1 0x4 MSTORE PUSH1 0x24 PUSH1 0x0 REVERT JUMPDEST PUSH32 0x4E487B7100000000000000000000000000000000000000000000000000000000 PUSH1 0x0 MSTORE PUSH1 0x22 PUSH1 0x4 MSTORE PUSH1 0x24 PUSH1 0x0 REVERT JUMPDEST PUSH1 0x0 DUP1 REVERT JUMPDEST PUSH1 0x0 PUSH1 0x1F NOT PUSH1 0x1F DUP4 ADD AND SWAP1 POP SWAP2 SWAP1 POP JUMP JUMPDEST PUSH1 0x4 DUP2 LT PUSH2 0x1E1F JUMPI PUSH2 0x1E1E PUSH2 0x1D9A JUMP JUMPDEST JUMPDEST POP JUMP JUMPDEST PUSH2 0x1E2B DUP2 PUSH2 0x1C22 JUMP JUMPDEST DUP2 EQ PUSH2 0x1E36 JUMPI PUSH1 0x0 DUP1 REVERT JUMPDEST POP JUMP JUMPDEST PUSH2 0x1E42 DUP2 PUSH2 0x1C34 JUMP JUMPDEST DUP2 EQ PUSH2 0x1E4D JUMPI PUSH1 0x0 DUP1 REVERT JUMPDEST POP JUMP JUMPDEST PUSH2 0x1E59 DUP2 PUSH2 0x1C46 JUMP JUMPDEST DUP2 EQ PUSH2 0x1E64 JUMPI PUSH1 0x0 DUP1 REVERT JUMPDEST POP JUMP JUMPDEST PUSH2 0x1E70 DUP2 PUSH2 0x1C85 JUMP JUMPDEST DUP2 EQ PUSH2 0x1E7B JUMPI PUSH1 0x0 DUP1 REVERT JUMPDEST POP JUMP INVALID LOG2 PUSH5 0x6970667358 0x22 SLT KECCAK256 NOT 0x4D 0x2C SWAP15 SDIV SELFBALANCE EXTCODEHASH 0xD1 PUSH29 0x376C43CB53B4C3D0EC851C48AABDCA01B63A5D0AF6B0A964736F6C6343 STOP ADDMOD SMOD STOP CALLER "
				},
				"gasEstimates": {
					"creation": {
						"codeDepositCost": "1572000",
						"executionCost": "infinite",
						"totalCost": "infinite"
					},
					"external": {
						"admin()": "2602",
						"allowance(address,address)": "infinite",
						"approve(address,uint256)": "infinite",
						"balanceOf(address)": "2931",
						"balances(address)": "2926",
						"burn()": "35332",
						"changeDepositAddress(address)": "26960",
						"decimals()": "2475",
						"deposit()": "2625",
						"endSale()": "infinite",
						"founder()": "2603",
						"getCurrentState()": "9111",
						"halt()": "26647",
						"hardCap()": "2539",
						"icoState()": "2627",
						"invest()": "infinite",
						"maxInvestment()": "2476",
						"minInvestment()": "2474",
						"name()": "infinite",
						"raisedAmount()": "2496",
						"resume()": "26670",
						"saleEnd()": "2474",
						"saleStart()": "2540",
						"symbol()": "infinite",
						"tokenContract()": "2711",
						"tokenTradeStart()": "2518",
						"totalSupply()": "2497",
						"transfer(address,uint256)": "infinite",
						"transferFrom(address,address,uint256)": "infinite"
					},
					"internal": {
						"multiply(uint256,uint256)": "infinite"
					}
				},
				"methodIdentifiers": {
					"admin()": "f851a440",
					"allowance(address,address)": "dd62ed3e",
					"approve(address,uint256)": "095ea7b3",
					"balanceOf(address)": "70a08231",
					"balances(address)": "27e235e3",
					"burn()": "44df8e70",
					"changeDepositAddress(address)": "6d58c88f",
					"decimals()": "313ce567",
					"deposit()": "d0e30db0",
					"endSale()": "380d831b",
					"founder()": "4d853ee5",
					"getCurrentState()": "378aa701",
					"halt()": "5ed7ca5b",
					"hardCap()": "fb86a404",
					"icoState()": "44f38756",
					"invest()": "e8b5e51f",
					"maxInvestment()": "002e1316",
					"minInvestment()": "8ac2c680",
					"name()": "06fdde03",
					"raisedAmount()": "c59ee1dc",
					"resume()": "046f7da2",
					"saleEnd()": "c10b9358",
					"saleStart()": "ab0bcc41",
					"symbol()": "95d89b41",
					"tokenContract()": "55a373d6",
					"tokenTradeStart()": "cc9ba583",
					"totalSupply()": "18160ddd",
					"transfer(address,uint256)": "a9059cbb",
					"transferFrom(address,address,uint256)": "23b872dd"
				}
			},
			"storageLayout": {
				"storage": [
					{
						"astId": 73,
						"contract": "contracts/tokenICO.sol:CryptosICO",
						"label": "name",
						"offset": 0,
						"slot": "0",
						"type": "t_string_storage"
					},
					{
						"astId": 76,
						"contract": "contracts/tokenICO.sol:CryptosICO",
						"label": "symbol",
						"offset": 0,
						"slot": "1",
						"type": "t_string_storage"
					},
					{
						"astId": 79,
						"contract": "contracts/tokenICO.sol:CryptosICO",
						"label": "decimals",
						"offset": 0,
						"slot": "2",
						"type": "t_uint256"
					},
					{
						"astId": 82,
						"contract": "contracts/tokenICO.sol:CryptosICO",
						"label": "totalSupply",
						"offset": 0,
						"slot": "3",
						"type": "t_uint256"
					},
					{
						"astId": 84,
						"contract": "contracts/tokenICO.sol:CryptosICO",
						"label": "founder",
						"offset": 0,
						"slot": "4",
						"type": "t_address"
					},
					{
						"astId": 88,
						"contract": "contracts/tokenICO.sol:CryptosICO",
						"label": "balances",
						"offset": 0,
						"slot": "5",
						"type": "t_mapping(t_address,t_uint256)"
					},
					{
						"astId": 94,
						"contract": "contracts/tokenICO.sol:CryptosICO",
						"label": "allowed",
						"offset": 0,
						"slot": "6",
						"type": "t_mapping(t_address,t_mapping(t_address,t_uint256))"
					},
					{
						"astId": 287,
						"contract": "contracts/tokenICO.sol:CryptosICO",
						"label": "admin",
						"offset": 0,
						"slot": "7",
						"type": "t_address"
					},
					{
						"astId": 289,
						"contract": "contracts/tokenICO.sol:CryptosICO",
						"label": "deposit",
						"offset": 0,
						"slot": "8",
						"type": "t_address_payable"
					},
					{
						"astId": 292,
						"contract": "contracts/tokenICO.sol:CryptosICO",
						"label": "tokenPrice",
						"offset": 0,
						"slot": "9",
						"type": "t_uint256"
					},
					{
						"astId": 295,
						"contract": "contracts/tokenICO.sol:CryptosICO",
						"label": "hardCap",
						"offset": 0,
						"slot": "10",
						"type": "t_uint256"
					},
					{
						"astId": 297,
						"contract": "contracts/tokenICO.sol:CryptosICO",
						"label": "raisedAmount",
						"offset": 0,
						"slot": "11",
						"type": "t_uint256"
					},
					{
						"astId": 301,
						"contract": "contracts/tokenICO.sol:CryptosICO",
						"label": "saleStart",
						"offset": 0,
						"slot": "12",
						"type": "t_uint256"
					},
					{
						"astId": 307,
						"contract": "contracts/tokenICO.sol:CryptosICO",
						"label": "saleEnd",
						"offset": 0,
						"slot": "13",
						"type": "t_uint256"
					},
					{
						"astId": 310,
						"contract": "contracts/tokenICO.sol:CryptosICO",
						"label": "tokenContract",
						"offset": 0,
						"slot": "14",
						"type": "t_contract(ERC20Interface)68"
					},
					{
						"astId": 315,
						"contract": "contracts/tokenICO.sol:CryptosICO",
						"label": "tokenTradeStart",
						"offset": 0,
						"slot": "15",
						"type": "t_uint256"
					},
					{
						"astId": 318,
						"contract": "contracts/tokenICO.sol:CryptosICO",
						"label": "maxInvestment",
						"offset": 0,
						"slot": "16",
						"type": "t_uint256"
					},
					{
						"astId": 321,
						"contract": "contracts/tokenICO.sol:CryptosICO",
						"label": "minInvestment",
						"offset": 0,
						"slot": "17",
						"type": "t_uint256"
					},
					{
						"astId": 329,
						"contract": "contracts/tokenICO.sol:CryptosICO",
						"label": "icoState",
						"offset": 0,
						"slot": "18",
						"type": "t_enum(State)326"
					}
				],
				"types": {
					"t_address": {
						"encoding": "inplace",
						"label": "address",
						"numberOfBytes": "20"
					},
					"t_address_payable": {
						"encoding": "inplace",
						"label": "address payable",
						"numberOfBytes": "20"
					},
					"t_contract(ERC20Interface)68": {
						"encoding": "inplace",
						"label": "contract ERC20Interface",
						"numberOfBytes": "20"
					},
					"t_enum(State)326": {
						"encoding": "inplace",
						"label": "enum CryptosICO.State",
						"numberOfBytes": "1"
					},
					"t_mapping(t_address,t_mapping(t_address,t_uint256))": {
						"encoding": "mapping",
						"key": "t_address",
						"label": "mapping(address => mapping(address => uint256))",
						"numberOfBytes": "32",
						"value": "t_mapping(t_address,t_uint256)"
					},
					"t_mapping(t_address,t_uint256)": {
						"encoding": "mapping",
						"key": "t_address",
						"label": "mapping(address => uint256)",
						"numberOfBytes": "32",
						"value": "t_uint256"
					},
					"t_string_storage": {
						"encoding": "bytes",
						"label": "string",
						"numberOfBytes": "32"
					},
					"t_uint256": {
						"encoding": "inplace",
						"label": "uint256",
						"numberOfBytes": "32"
					}
				}
			},
			"userdoc": {
				"kind": "user",
				"methods": {},
				"version": 1
			}
		}
	}
}