{
	"contracts/nct v4.sol": {
		"CryptosICO": {
			"abi": [
				{
					"inputs": [
						{
							"internalType": "address payable",
							"name": "_deposit",
							"type": "address"
						},
						{
							"internalType": "address",
							"name": "tokenAddress",
							"type": "address"
						}
					],
					"stateMutability": "nonpayable",
					"type": "constructor"
				},
				{
					"anonymous": false,
					"inputs": [
						{
							"indexed": true,
							"internalType": "address",
							"name": "tokenOwner",
							"type": "address"
						},
						{
							"indexed": true,
							"internalType": "address",
							"name": "spender",
							"type": "address"
						},
						{
							"indexed": false,
							"internalType": "uint256",
							"name": "tokens",
							"type": "uint256"
						}
					],
					"name": "Approval",
					"type": "event"
				},
				{
					"anonymous": false,
					"inputs": [
						{
							"indexed": false,
							"internalType": "address",
							"name": "investor",
							"type": "address"
						},
						{
							"indexed": false,
							"internalType": "uint256",
							"name": "value",
							"type": "uint256"
						},
						{
							"indexed": false,
							"internalType": "uint256",
							"name": "tokens",
							"type": "uint256"
						}
					],
					"name": "Invest",
					"type": "event"
				},
				{
					"anonymous": false,
					"inputs": [
						{
							"indexed": true,
							"internalType": "address",
							"name": "from",
							"type": "address"
						},
						{
							"indexed": true,
							"internalType": "address",
							"name": "to",
							"type": "address"
						},
						{
							"indexed": false,
							"internalType": "uint256",
							"name": "tokens",
							"type": "uint256"
						}
					],
					"name": "Transfer",
					"type": "event"
				},
				{
					"inputs": [],
					"name": "admin",
					"outputs": [
						{
							"internalType": "address",
							"name": "",
							"type": "address"
						}
					],
					"stateMutability": "view",
					"type": "function"
				},
				{
					"inputs": [
						{
							"internalType": "address",
							"name": "tokenOwner",
							"type": "address"
						},
						{
							"internalType": "address",
							"name": "spender",
							"type": "address"
						}
					],
					"name": "allowance",
					"outputs": [
						{
							"internalType": "uint256",
							"name": "",
							"type": "uint256"
						}
					],
					"stateMutability": "view",
					"type": "function"
				},
				{
					"inputs": [
						{
							"internalType": "address",
							"name": "spender",
							"type": "address"
						},
						{
							"internalType": "uint256",
							"name": "tokens",
							"type": "uint256"
						}
					],
					"name": "approve",
					"outputs": [
						{
							"internalType": "bool",
							"name": "success",
							"type": "bool"
						}
					],
					"stateMutability": "nonpayable",
					"type": "function"
				},
				{
					"inputs": [
						{
							"internalType": "address",
							"name": "tokenOwner",
							"type": "address"
						}
					],
					"name": "balanceOf",
					"outputs": [
						{
							"internalType": "uint256",
							"name": "balance",
							"type": "uint256"
						}
					],
					"stateMutability": "view",
					"type": "function"
				},
				{
					"inputs": [
						{
							"internalType": "address",
							"name": "",
							"type": "address"
						}
					],
					"name": "balances",
					"outputs": [
						{
							"internalType": "uint256",
							"name": "",
							"type": "uint256"
						}
					],
					"stateMutability": "view",
					"type": "function"
				},
				{
					"inputs": [
						{
							"internalType": "address payable",
							"name": "newDeposit",
							"type": "address"
						}
					],
					"name": "changeDepositAddress",
					"outputs": [],
					"stateMutability": "nonpayable",
					"type": "function"
				},
				{
					"inputs": [],
					"name": "decimals",
					"outputs": [
						{
							"internalType": "uint256",
							"name": "",
							"type": "uint256"
						}
					],
					"stateMutability": "view",
					"type": "function"
				},
				{
					"inputs": [],
					"name": "deposit",
					"outputs": [
						{
							"internalType": "address payable",
							"name": "",
							"type": "address"
						}
					],
					"stateMutability": "view",
					"type": "function"
				},
				{
					"inputs": [],
					"name": "endSale",
					"outputs": [],
					"stateMutability": "nonpayable",
					"type": "function"
				},
				{
					"inputs": [],
					"name": "founder",
					"outputs": [
						{
							"internalType": "address",
							"name": "",
							"type": "address"
						}
					],
					"stateMutability": "view",
					"type": "function"
				},
				{
					"inputs": [],
					"name": "getCurrentState",
					"outputs": [
						{
							"internalType": "enum CryptosICO.State",
							"name": "",
							"type": "uint8"
						}
					],
					"stateMutability": "view",
					"type": "function"
				},
				{
					"inputs": [
						{
							"internalType": "uint256",
							"name": "token",
							"type": "uint256"
						}
					],
					"name": "getPrice",
					"outputs": [
						{
							"internalType": "uint256",
							"name": "",
							"type": "uint256"
						}
					],
					"stateMutability": "view",
					"type": "function"
				},
				{
					"inputs": [],
					"name": "icoState",
					"outputs": [
						{
							"internalType": "enum CryptosICO.State",
							"name": "",
							"type": "uint8"
						}
					],
					"stateMutability": "view",
					"type": "function"
				},
				{
					"inputs": [
						{
							"internalType": "uint256",
							"name": "token",
							"type": "uint256"
						}
					],
					"name": "invest",
					"outputs": [
						{
							"internalType": "bool",
							"name": "",
							"type": "bool"
						}
					],
					"stateMutability": "payable",
					"type": "function"
				},
				{
					"inputs": [],
					"name": "maxInvestment",
					"outputs": [
						{
							"internalType": "uint256",
							"name": "",
							"type": "uint256"
						}
					],
					"stateMutability": "view",
					"type": "function"
				},
				{
					"inputs": [],
					"name": "minInvestment",
					"outputs": [
						{
							"internalType": "uint256",
							"name": "",
							"type": "uint256"
						}
					],
					"stateMutability": "view",
					"type": "function"
				},
				{
					"inputs": [],
					"name": "name",
					"outputs": [
						{
							"internalType": "string",
							"name": "",
							"type": "string"
						}
					],
					"stateMutability": "view",
					"type": "function"
				},
				{
					"inputs": [],
					"name": "prie",
					"outputs": [
						{
							"internalType": "uint256",
							"name": "",
							"type": "uint256"
						}
					],
					"stateMutability": "view",
					"type": "function"
				},
				{
					"inputs": [],
					"name": "raisedAmount",
					"outputs": [
						{
							"internalType": "uint256",
							"name": "",
							"type": "uint256"
						}
					],
					"stateMutability": "view",
					"type": "function"
				},
				{
					"inputs": [],
					"name": "resume",
					"outputs": [],
					"stateMutability": "nonpayable",
					"type": "function"
				},
				{
					"inputs": [],
					"name": "saleEnd",
					"outputs": [
						{
							"internalType": "uint256",
							"name": "",
							"type": "uint256"
						}
					],
					"stateMutability": "view",
					"type": "function"
				},
				{
					"inputs": [],
					"name": "saleStart",
					"outputs": [
						{
							"internalType": "uint256",
							"name": "",
							"type": "uint256"
						}
					],
					"stateMutability": "view",
					"type": "function"
				},
				{
					"inputs": [
						{
							"internalType": "uint256",
							"name": "_tokenPrice",
							"type": "uint256"
						}
					],
					"name": "setPrice",
					"outputs": [],
					"stateMutability": "nonpayable",
					"type": "function"
				},
				{
					"inputs": [],
					"name": "symbol",
					"outputs": [
						{
							"internalType": "string",
							"name": "",
							"type": "string"
						}
					],
					"stateMutability": "view",
					"type": "function"
				},
				{
					"inputs": [],
					"name": "tokenContract",
					"outputs": [
						{
							"internalType": "contract ERC20Interface",
							"name": "",
							"type": "address"
						}
					],
					"stateMutability": "view",
					"type": "function"
				},
				{
					"inputs": [],
					"name": "tokenTradeStart",
					"outputs": [
						{
							"internalType": "uint256",
							"name": "",
							"type": "uint256"
						}
					],
					"stateMutability": "view",
					"type": "function"
				},
				{
					"inputs": [],
					"name": "totalSupply",
					"outputs": [
						{
							"internalType": "uint256",
							"name": "",
							"type": "uint256"
						}
					],
					"stateMutability": "view",
					"type": "function"
				},
				{
					"inputs": [
						{
							"internalType": "address",
							"name": "to",
							"type": "address"
						},
						{
							"internalType": "uint256",
							"name": "tokens",
							"type": "uint256"
						}
					],
					"name": "transfer",
					"outputs": [
						{
							"internalType": "bool",
							"name": "success",
							"type": "bool"
						}
					],
					"stateMutability": "nonpayable",
					"type": "function"
				},
				{
					"inputs": [
						{
							"internalType": "address",
							"name": "from",
							"type": "address"
						},
						{
							"internalType": "address",
							"name": "to",
							"type": "address"
						},
						{
							"internalType": "uint256",
							"name": "tokens",
							"type": "uint256"
						}
					],
					"name": "transferFrom",
					"outputs": [
						{
							"internalType": "bool",
							"name": "success",
							"type": "bool"
						}
					],
					"stateMutability": "nonpayable",
					"type": "function"
				}
			],
			"devdoc": {
				"kind": "dev",
				"methods": {},
				"version": 1
			},
			"evm": {
				"assembly": "    /* \"contracts/nct v4.sol\":1237:1274  string public name = \"Nations Combat\" */\n  0xc0\n    /* \"contracts/nct v4.sol\":3211:7633  contract CryptosICO is Cryptos {\r... */\n  0x40\n    /* \"contracts/nct v4.sol\":1237:1274  string public name = \"Nations Combat\" */\n  mstore\n  0x0e\n    /* \"contracts/nct v4.sol\":3211:7633  contract CryptosICO is Cryptos {\r... */\n  0x80\n    /* \"contracts/nct v4.sol\":1237:1274  string public name = \"Nations Combat\" */\n  dup2\n  swap1\n  mstore\n  shl(0x92, 0x13985d1a5bdb9cc810dbdb58985d)\n  0xa0\n  swap1\n  dup2\n  mstore\n  tag_1\n  swap2\n  0x00\n  swap2\n  swap1\n  tag_2\n  jump\t// in\ntag_1:\n  pop\n    /* \"contracts/nct v4.sol\":1281:1309  string public symbol = \"NCT\" */\n  0x40\n  dup1\n  mload\n  dup1\n  dup3\n  add\n  swap1\n  swap2\n  mstore\n  0x03\n  dup1\n  dup3\n  mstore\n  shl(0xea, 0x1390d5)\n  0x20\n  swap1\n  swap3\n  add\n  swap2\n  dup3\n  mstore\n  tag_3\n  swap2\n  0x01\n  swap2\n  tag_2\n  jump\t// in\ntag_3:\n  pop\n    /* \"contracts/nct v4.sol\":1342:1344  18 */\n  0x12\n    /* \"contracts/nct v4.sol\":1316:1344  uint256 public decimals = 18 */\n  0x02\n  sstore\n    /* \"contracts/nct v4.sol\":3334:3345  0.001 ether */\n  0x038d7ea4c68000\n    /* \"contracts/nct v4.sol\":3313:3345  uint256 tokenPrice = 0.001 ether */\n  0x09\n  sstore\n    /* \"contracts/nct v4.sol\":3415:3417  10 */\n  0x0a\n    /* \"contracts/nct v4.sol\":3393:3417  uint256 public prie = 10 */\n  dup1\n  sstore\n    /* \"contracts/nct v4.sol\":3518:3533  block.timestamp */\n  timestamp\n    /* \"contracts/nct v4.sol\":3491:3533  uint256 public saleStart = block.timestamp */\n  0x0c\n  sstore\n    /* \"contracts/nct v4.sol\":3565:3580  block.timestamp */\n  timestamp\n    /* \"contracts/nct v4.sol\":3583:3589  604800 */\n  0x093a80\n    /* \"contracts/nct v4.sol\":3565:3589  block.timestamp + 604800 */\n  tag_4\n  swap2\n  swap1\n  tag_5\n  jump\t// in\ntag_4:\n    /* \"contracts/nct v4.sol\":3540:3589  uint256 public saleEnd = block.timestamp + 604800 */\n  0x0d\n  dup2\n  swap1\n  sstore\n    /* \"contracts/nct v4.sol\":3682:3698  saleEnd + 604800 */\n  tag_6\n  swap1\n    /* \"contracts/nct v4.sol\":3692:3698  604800 */\n  0x093a80\n    /* \"contracts/nct v4.sol\":3682:3698  saleEnd + 604800 */\n  tag_5\n  jump\t// in\ntag_6:\n    /* \"contracts/nct v4.sol\":3649:3698  uint256 public tokenTradeStart = saleEnd + 604800 */\n  0x0f\n  sstore\n    /* \"contracts/nct v4.sol\":3775:3782  5 ether */\n  0x4563918244f40000\n    /* \"contracts/nct v4.sol\":3744:3782  uint256 public maxInvestment = 5 ether */\n  0x10\n  sstore\n    /* \"contracts/nct v4.sol\":3820:3831  0.001 ether */\n  0x038d7ea4c68000\n    /* \"contracts/nct v4.sol\":3789:3831  uint256 public minInvestment = 0.001 ether */\n  0x11\n  sstore\n    /* \"contracts/nct v4.sol\":3984:4204  constructor(address payable _deposit, address tokenAddress) {\r... */\n  callvalue\n  dup1\n  iszero\n  tag_7\n  jumpi\n  0x00\n  dup1\n  revert\ntag_7:\n  pop\n  mload(0x40)\n  sub(codesize, bytecodeSize)\n  dup1\n  bytecodeSize\n  dup4\n  codecopy\n  dup2\n  add\n  0x40\n  dup2\n  swap1\n  mstore\n  tag_8\n  swap2\n  tag_9\n  jump\t// in\ntag_8:\n    /* \"contracts/nct v4.sol\":1653:1668  50000000*10**18 */\n  0x295be96e64066972000000\n    /* \"contracts/nct v4.sol\":1639:1650  totalSupply */\n  0x03\n    /* \"contracts/nct v4.sol\":1639:1668  totalSupply = 50000000*10**18 */\n  dup2\n  swap1\n  sstore\n    /* \"contracts/nct v4.sol\":1679:1686  founder */\n  0x04\n    /* \"contracts/nct v4.sol\":1679:1699  founder = msg.sender */\n  dup1\n  sload\n    /* \"contracts/nct v4.sol\":1689:1699  msg.sender */\n  caller\n  not(sub(shl(0xa0, 0x01), 0x01))\n    /* \"contracts/nct v4.sol\":1679:1699  founder = msg.sender */\n  swap2\n  dup3\n  and\n  dup2\n  or\n  swap1\n  swap3\n  sstore\n  0x00\n    /* \"contracts/nct v4.sol\":1710:1727  balances[founder] */\n  dup3\n  dup2\n  mstore\n    /* \"contracts/nct v4.sol\":1710:1718  balances */\n  0x05\n    /* \"contracts/nct v4.sol\":1710:1727  balances[founder] */\n  0x20\n  mstore\n  0x40\n  swap1\n  keccak256\n    /* \"contracts/nct v4.sol\":1710:1741  balances[founder] = totalSupply */\n  swap3\n  swap1\n  swap3\n  sstore\n    /* \"contracts/nct v4.sol\":4055:4062  deposit */\n  0x08\n    /* \"contracts/nct v4.sol\":4055:4073  deposit = _deposit */\n  dup1\n  sload\n  dup4\n  and\n  sub(shl(0xa0, 0x01), 0x01)\n  swap6\n  dup7\n  and\n  or\n  swap1\n  sstore\n    /* \"contracts/nct v4.sol\":4084:4089  admin */\n  0x07\n    /* \"contracts/nct v4.sol\":4084:4102  admin = msg.sender */\n  dup1\n  sload\n  dup4\n  and\n  swap1\n  swap2\n  or\n  swap1\n  sstore\n    /* \"contracts/nct v4.sol\":4113:4121  icoState */\n  0x12\n    /* \"contracts/nct v4.sol\":4113:4141  icoState = State.beforeStart */\n  dup1\n  sload\n  not(0xff)\n  and\n  swap1\n  sstore\n    /* \"contracts/nct v4.sol\":4152:4165  tokenContract */\n  0x0e\n    /* \"contracts/nct v4.sol\":4152:4196  tokenContract = ERC20Interface(tokenAddress) */\n  dup1\n  sload\n  swap1\n  swap2\n  and\n  swap2\n  swap1\n  swap3\n  and\n  or\n  swap1\n  sstore\n    /* \"contracts/nct v4.sol\":3211:7633  contract CryptosICO is Cryptos {\r... */\n  jump(tag_29)\ntag_2:\n  dup3\n  dup1\n  sload\n  tag_18\n  swap1\n  tag_19\n  jump\t// in\ntag_18:\n  swap1\n  0x00\n  mstore\n  keccak256(0x00, 0x20)\n  swap1\n  0x1f\n  add\n  0x20\n  swap1\n  div\n  dup2\n  add\n  swap3\n  dup3\n  tag_21\n  jumpi\n  0x00\n  dup6\n  sstore\n  jump(tag_24)\ntag_21:\n  dup3\n  0x1f\n  lt\n  tag_22\n  jumpi\n  dup1\n  mload\n  not(0xff)\n  and\n  dup4\n  dup1\n  add\n  or\n  dup6\n  sstore\n  jump(tag_24)\ntag_22:\n  dup3\n  dup1\n  add\n  0x01\n  add\n  dup6\n  sstore\n  dup3\n  iszero\n  tag_24\n  jumpi\n  swap2\n  dup3\n  add\ntag_23:\n  dup3\n  dup2\n  gt\n  iszero\n  tag_24\n  jumpi\n  dup3\n  mload\n  dup3\n  sstore\n  swap2\n  0x20\n  add\n  swap2\n  swap1\n  0x01\n  add\n  swap1\n  jump(tag_23)\ntag_24:\n  pop\n  tag_25\n  swap3\n  swap2\n  pop\n  tag_26\n  jump\t// in\ntag_25:\n  pop\n  swap1\n  jump\t// out\ntag_26:\ntag_27:\n  dup1\n  dup3\n  gt\n  iszero\n  tag_25\n  jumpi\n  0x00\n  dup2\n  sstore\n  0x01\n  add\n  jump(tag_27)\n    /* \"#utility.yul\":14:407   */\ntag_9:\n    /* \"#utility.yul\":101:107   */\n  0x00\n    /* \"#utility.yul\":109:115   */\n  dup1\n    /* \"#utility.yul\":162:164   */\n  0x40\n    /* \"#utility.yul\":150:159   */\n  dup4\n    /* \"#utility.yul\":141:148   */\n  dup6\n    /* \"#utility.yul\":137:160   */\n  sub\n    /* \"#utility.yul\":133:165   */\n  slt\n    /* \"#utility.yul\":130:182   */\n  iszero\n  tag_31\n  jumpi\n    /* \"#utility.yul\":178:179   */\n  0x00\n    /* \"#utility.yul\":175:176   */\n  dup1\n    /* \"#utility.yul\":168:180   */\n  revert\n    /* \"#utility.yul\":130:182   */\ntag_31:\n    /* \"#utility.yul\":210:219   */\n  dup3\n    /* \"#utility.yul\":204:220   */\n  mload\n    /* \"#utility.yul\":229:260   */\n  tag_32\n    /* \"#utility.yul\":254:259   */\n  dup2\n    /* \"#utility.yul\":229:260   */\n  tag_33\n  jump\t// in\ntag_32:\n    /* \"#utility.yul\":329:331   */\n  0x20\n    /* \"#utility.yul\":314:332   */\n  dup5\n  add\n    /* \"#utility.yul\":308:333   */\n  mload\n    /* \"#utility.yul\":279:284   */\n  swap1\n  swap3\n  pop\n    /* \"#utility.yul\":342:375   */\n  tag_34\n    /* \"#utility.yul\":308:333   */\n  dup2\n    /* \"#utility.yul\":342:375   */\n  tag_33\n  jump\t// in\ntag_34:\n    /* \"#utility.yul\":394:401   */\n  dup1\n    /* \"#utility.yul\":384:401   */\n  swap2\n  pop\n  pop\n    /* \"#utility.yul\":14:407   */\n  swap3\n  pop\n  swap3\n  swap1\n  pop\n  jump\t// out\n    /* \"#utility.yul\":412:637   */\ntag_5:\n    /* \"#utility.yul\":452:455   */\n  0x00\n    /* \"#utility.yul\":483:484   */\n  dup3\n    /* \"#utility.yul\":479:485   */\n  not\n    /* \"#utility.yul\":476:477   */\n  dup3\n    /* \"#utility.yul\":473:486   */\n  gt\n    /* \"#utility.yul\":470:606   */\n  iszero\n  tag_36\n  jumpi\n    /* \"#utility.yul\":528:538   */\n  0x4e487b71\n    /* \"#utility.yul\":523:526   */\n  0xe0\n    /* \"#utility.yul\":519:539   */\n  shl\n    /* \"#utility.yul\":516:517   */\n  0x00\n    /* \"#utility.yul\":509:540   */\n  mstore\n    /* \"#utility.yul\":563:567   */\n  0x11\n    /* \"#utility.yul\":560:561   */\n  0x04\n    /* \"#utility.yul\":553:568   */\n  mstore\n    /* \"#utility.yul\":591:595   */\n  0x24\n    /* \"#utility.yul\":588:589   */\n  0x00\n    /* \"#utility.yul\":581:596   */\n  revert\n    /* \"#utility.yul\":470:606   */\ntag_36:\n  pop\n    /* \"#utility.yul\":622:631   */\n  add\n  swap1\n    /* \"#utility.yul\":412:637   */\n  jump\t// out\n    /* \"#utility.yul\":642:1022   */\ntag_19:\n    /* \"#utility.yul\":721:722   */\n  0x01\n    /* \"#utility.yul\":717:729   */\n  dup2\n  dup2\n  shr\n  swap1\n    /* \"#utility.yul\":764:776   */\n  dup3\n  and\n  dup1\n    /* \"#utility.yul\":785:846   */\n  tag_38\n  jumpi\n    /* \"#utility.yul\":839:843   */\n  0x7f\n    /* \"#utility.yul\":831:837   */\n  dup3\n    /* \"#utility.yul\":827:844   */\n  and\n    /* \"#utility.yul\":817:844   */\n  swap2\n  pop\n    /* \"#utility.yul\":785:846   */\ntag_38:\n    /* \"#utility.yul\":892:894   */\n  0x20\n    /* \"#utility.yul\":884:890   */\n  dup3\n    /* \"#utility.yul\":881:895   */\n  lt\n    /* \"#utility.yul\":861:879   */\n  dup2\n    /* \"#utility.yul\":858:896   */\n  eq\n    /* \"#utility.yul\":855:1016   */\n  iszero\n  tag_39\n  jumpi\n    /* \"#utility.yul\":938:948   */\n  0x4e487b71\n    /* \"#utility.yul\":933:936   */\n  0xe0\n    /* \"#utility.yul\":929:949   */\n  shl\n    /* \"#utility.yul\":926:927   */\n  0x00\n    /* \"#utility.yul\":919:950   */\n  mstore\n    /* \"#utility.yul\":973:977   */\n  0x22\n    /* \"#utility.yul\":970:971   */\n  0x04\n    /* \"#utility.yul\":963:978   */\n  mstore\n    /* \"#utility.yul\":1001:1005   */\n  0x24\n    /* \"#utility.yul\":998:999   */\n  0x00\n    /* \"#utility.yul\":991:1006   */\n  revert\n    /* \"#utility.yul\":855:1016   */\ntag_39:\n  pop\n    /* \"#utility.yul\":642:1022   */\n  swap2\n  swap1\n  pop\n  jump\t// out\n    /* \"#utility.yul\":1159:1290   */\ntag_33:\n  sub(shl(0xa0, 0x01), 0x01)\n    /* \"#utility.yul\":1234:1265   */\n  dup2\n  and\n    /* \"#utility.yul\":1224:1266   */\n  dup2\n  eq\n    /* \"#utility.yul\":1214:1284   */\n  tag_42\n  jumpi\n    /* \"#utility.yul\":1280:1281   */\n  0x00\n    /* \"#utility.yul\":1277:1278   */\n  dup1\n    /* \"#utility.yul\":1270:1282   */\n  revert\n    /* \"#utility.yul\":1214:1284   */\ntag_42:\n    /* \"#utility.yul\":1159:1290   */\n  pop\n  jump\t// out\ntag_29:\n    /* \"contracts/nct v4.sol\":3211:7633  contract CryptosICO is Cryptos {\r... */\n  dataSize(sub_0)\n  dup1\n  dataOffset(sub_0)\n  0x00\n  codecopy\n  0x00\n  return\nstop\n\nsub_0: assembly {\n        /* \"contracts/nct v4.sol\":3211:7633  contract CryptosICO is Cryptos {\r... */\n      mstore(0x40, 0x80)\n      jumpi(tag_1, lt(calldatasize, 0x04))\n      shr(0xe0, calldataload(0x00))\n      dup1\n      0x6d58c88f\n      gt\n      tag_31\n      jumpi\n      dup1\n      0xab0bcc41\n      gt\n      tag_32\n      jumpi\n      dup1\n      0xd0e30db0\n      gt\n      tag_33\n      jumpi\n      dup1\n      0xd0e30db0\n      eq\n      tag_27\n      jumpi\n      dup1\n      0xdd62ed3e\n      eq\n      tag_28\n      jumpi\n      dup1\n      0xe7572230\n      eq\n      tag_29\n      jumpi\n      dup1\n      0xf851a440\n      eq\n      tag_30\n      jumpi\n      0x00\n      dup1\n      revert\n    tag_33:\n      dup1\n      0xab0bcc41\n      eq\n      tag_23\n      jumpi\n      dup1\n      0xc10b9358\n      eq\n      tag_24\n      jumpi\n      dup1\n      0xc59ee1dc\n      eq\n      tag_25\n      jumpi\n      dup1\n      0xcc9ba583\n      eq\n      tag_26\n      jumpi\n      0x00\n      dup1\n      revert\n    tag_32:\n      dup1\n      0x8ac2c680\n      gt\n      tag_34\n      jumpi\n      dup1\n      0x8ac2c680\n      eq\n      tag_19\n      jumpi\n      dup1\n      0x91b7f5ed\n      eq\n      tag_20\n      jumpi\n      dup1\n      0x95d89b41\n      eq\n      tag_21\n      jumpi\n      dup1\n      0xa9059cbb\n      eq\n      tag_22\n      jumpi\n      0x00\n      dup1\n      revert\n    tag_34:\n      dup1\n      0x6d58c88f\n      eq\n      tag_16\n      jumpi\n      dup1\n      0x6e463658\n      eq\n      tag_17\n      jumpi\n      dup1\n      0x70a08231\n      eq\n      tag_18\n      jumpi\n      0x00\n      dup1\n      revert\n    tag_31:\n      dup1\n      0x2afcf480\n      gt\n      tag_35\n      jumpi\n      dup1\n      0x380d831b\n      gt\n      tag_36\n      jumpi\n      dup1\n      0x380d831b\n      eq\n      tag_12\n      jumpi\n      dup1\n      0x44f38756\n      eq\n      tag_13\n      jumpi\n      dup1\n      0x4d853ee5\n      eq\n      tag_14\n      jumpi\n      dup1\n      0x55a373d6\n      eq\n      tag_15\n      jumpi\n      0x00\n      dup1\n      revert\n    tag_36:\n      dup1\n      0x2afcf480\n      eq\n      tag_9\n      jumpi\n      dup1\n      0x313ce567\n      eq\n      tag_10\n      jumpi\n      dup1\n      0x378aa701\n      eq\n      tag_11\n      jumpi\n      0x00\n      dup1\n      revert\n    tag_35:\n      dup1\n      0x095ea7b3\n      gt\n      tag_37\n      jumpi\n      dup1\n      0x095ea7b3\n      eq\n      tag_5\n      jumpi\n      dup1\n      0x18160ddd\n      eq\n      tag_6\n      jumpi\n      dup1\n      0x23b872dd\n      eq\n      tag_7\n      jumpi\n      dup1\n      0x27e235e3\n      eq\n      tag_8\n      jumpi\n      0x00\n      dup1\n      revert\n    tag_37:\n      dup1\n      0x2e1316\n      eq\n      tag_2\n      jumpi\n      dup1\n      0x046f7da2\n      eq\n      tag_3\n      jumpi\n      dup1\n      0x06fdde03\n      eq\n      tag_4\n      jumpi\n    tag_1:\n      0x00\n      dup1\n      revert\n        /* \"contracts/nct v4.sol\":3744:3782  uint256 public maxInvestment = 5 ether */\n    tag_2:\n      callvalue\n      dup1\n      iszero\n      tag_38\n      jumpi\n      0x00\n      dup1\n      revert\n    tag_38:\n      pop\n      tag_39\n      sload(0x10)\n      dup2\n      jump\n    tag_39:\n      mload(0x40)\n        /* \"#utility.yul\":6346:6371   */\n      swap1\n      dup2\n      mstore\n        /* \"#utility.yul\":6334:6336   */\n      0x20\n        /* \"#utility.yul\":6319:6337   */\n      add\n        /* \"contracts/nct v4.sol\":3744:3782  uint256 public maxInvestment = 5 ether */\n    tag_41:\n      mload(0x40)\n      dup1\n      swap2\n      sub\n      swap1\n      return\n        /* \"contracts/nct v4.sol\":4300:4378  function resume() public onlyAdmin {\r... */\n    tag_3:\n      callvalue\n      dup1\n      iszero\n      tag_43\n      jumpi\n      0x00\n      dup1\n      revert\n    tag_43:\n      pop\n      tag_44\n      tag_45\n      jump\t// in\n    tag_44:\n      stop\n        /* \"contracts/nct v4.sol\":1237:1274  string public name = \"Nations Combat\" */\n    tag_4:\n      callvalue\n      dup1\n      iszero\n      tag_46\n      jumpi\n      0x00\n      dup1\n      revert\n    tag_46:\n      pop\n      tag_47\n      tag_48\n      jump\t// in\n    tag_47:\n      mload(0x40)\n      tag_41\n      swap2\n      swap1\n      tag_50\n      jump\t// in\n        /* \"contracts/nct v4.sol\":2484:2820  function approve(address spender, uint256 tokens)\r... */\n    tag_5:\n      callvalue\n      dup1\n      iszero\n      tag_51\n      jumpi\n      0x00\n      dup1\n      revert\n    tag_51:\n      pop\n      tag_52\n      tag_53\n      calldatasize\n      0x04\n      tag_54\n      jump\t// in\n    tag_53:\n      tag_55\n      jump\t// in\n    tag_52:\n      mload(0x40)\n        /* \"#utility.yul\":3582:3596   */\n      swap1\n      iszero\n        /* \"#utility.yul\":3575:3597   */\n      iszero\n        /* \"#utility.yul\":3557:3598   */\n      dup2\n      mstore\n        /* \"#utility.yul\":3545:3547   */\n      0x20\n        /* \"#utility.yul\":3530:3548   */\n      add\n        /* \"contracts/nct v4.sol\":2484:2820  function approve(address spender, uint256 tokens)\r... */\n      tag_41\n        /* \"#utility.yul\":3417:3604   */\n      jump\n        /* \"contracts/nct v4.sol\":1351:1386  uint256 public override totalSupply */\n    tag_6:\n      callvalue\n      dup1\n      iszero\n      tag_58\n      jumpi\n      0x00\n      dup1\n      revert\n    tag_58:\n      pop\n      tag_39\n      sload(0x03)\n      dup2\n      jump\n        /* \"contracts/nct v4.sol\":7255:7630  function transferFrom(\r... */\n    tag_7:\n      callvalue\n      dup1\n      iszero\n      tag_62\n      jumpi\n      0x00\n      dup1\n      revert\n    tag_62:\n      pop\n      tag_52\n      tag_64\n      calldatasize\n      0x04\n      tag_65\n      jump\t// in\n    tag_64:\n      tag_66\n      jump\t// in\n        /* \"contracts/nct v4.sol\":1424:1467  mapping(address => uint256) public balances */\n    tag_8:\n      callvalue\n      dup1\n      iszero\n      tag_68\n      jumpi\n      0x00\n      dup1\n      revert\n    tag_68:\n      pop\n      tag_39\n      tag_70\n      calldatasize\n      0x04\n      tag_71\n      jump\t// in\n    tag_70:\n      mstore(0x20, 0x05)\n      0x00\n      swap1\n      dup2\n      mstore\n      0x40\n      swap1\n      keccak256\n      sload\n      dup2\n      jump\n        /* \"contracts/nct v4.sol\":5393:6319  function invest(uint256 token) public payable returns (bool) {\r... */\n    tag_9:\n      tag_52\n      tag_75\n      calldatasize\n      0x04\n      tag_76\n      jump\t// in\n    tag_75:\n      tag_77\n      jump\t// in\n        /* \"contracts/nct v4.sol\":1316:1344  uint256 public decimals = 18 */\n    tag_10:\n      callvalue\n      dup1\n      iszero\n      tag_79\n      jumpi\n      0x00\n      dup1\n      revert\n    tag_79:\n      pop\n      tag_39\n      sload(0x02)\n      dup2\n      jump\n        /* \"contracts/nct v4.sol\":4508:4918  function getCurrentState() public view returns (State) {\r... */\n    tag_11:\n      callvalue\n      dup1\n      iszero\n      tag_83\n      jumpi\n      0x00\n      dup1\n      revert\n    tag_83:\n      pop\n      tag_84\n      tag_85\n      jump\t// in\n    tag_84:\n      mload(0x40)\n      tag_41\n      swap2\n      swap1\n      tag_87\n      jump\t// in\n        /* \"contracts/nct v4.sol\":6846:7247  function endSale() public {\r... */\n    tag_12:\n      callvalue\n      dup1\n      iszero\n      tag_88\n      jumpi\n      0x00\n      dup1\n      revert\n    tag_88:\n      pop\n      tag_44\n      tag_90\n      jump\t// in\n        /* \"contracts/nct v4.sol\":3954:3975  State public icoState */\n    tag_13:\n      callvalue\n      dup1\n      iszero\n      tag_91\n      jumpi\n      0x00\n      dup1\n      revert\n    tag_91:\n      pop\n      sload(0x12)\n      tag_84\n      swap1\n      0xff\n      and\n      dup2\n      jump\n        /* \"contracts/nct v4.sol\":1395:1417  address public founder */\n    tag_14:\n      callvalue\n      dup1\n      iszero\n      tag_95\n      jumpi\n      0x00\n      dup1\n      revert\n    tag_95:\n      pop\n      sload(0x04)\n      tag_96\n      swap1\n      sub(shl(0xa0, 0x01), 0x01)\n      and\n      dup2\n      jump\n    tag_96:\n      mload(0x40)\n      sub(shl(0xa0, 0x01), 0x01)\n        /* \"#utility.yul\":2520:2552   */\n      swap1\n      swap2\n      and\n        /* \"#utility.yul\":2502:2553   */\n      dup2\n      mstore\n        /* \"#utility.yul\":2490:2492   */\n      0x20\n        /* \"#utility.yul\":2475:2493   */\n      add\n        /* \"contracts/nct v4.sol\":1395:1417  address public founder */\n      tag_41\n        /* \"#utility.yul\":2356:2559   */\n      jump\n        /* \"contracts/nct v4.sol\":3607:3642  ERC20Interface public tokenContract */\n    tag_15:\n      callvalue\n      dup1\n      iszero\n      tag_100\n      jumpi\n      0x00\n      dup1\n      revert\n    tag_100:\n      pop\n      sload(0x0e)\n      tag_96\n      swap1\n      sub(shl(0xa0, 0x01), 0x01)\n      and\n      dup2\n      jump\n        /* \"contracts/nct v4.sol\":4386:4500  function changeDepositAddress(address payable newDeposit) public onlyAdmin {\r... */\n    tag_16:\n      callvalue\n      dup1\n      iszero\n      tag_105\n      jumpi\n      0x00\n      dup1\n      revert\n    tag_105:\n      pop\n      tag_44\n      tag_107\n      calldatasize\n      0x04\n      tag_71\n      jump\t// in\n    tag_107:\n      tag_109\n      jump\t// in\n        /* \"contracts/nct v4.sol\":3393:3417  uint256 public prie = 10 */\n    tag_17:\n      callvalue\n      dup1\n      iszero\n      tag_110\n      jumpi\n      0x00\n      dup1\n      revert\n    tag_110:\n      pop\n      tag_39\n      sload(0x0a)\n      dup2\n      jump\n        /* \"contracts/nct v4.sol\":1757:1930  function balanceOf(address tokenOwner)\r... */\n    tag_18:\n      callvalue\n      dup1\n      iszero\n      tag_114\n      jumpi\n      0x00\n      dup1\n      revert\n    tag_114:\n      pop\n      tag_39\n      tag_116\n      calldatasize\n      0x04\n      tag_71\n      jump\t// in\n    tag_116:\n      sub(shl(0xa0, 0x01), 0x01)\n        /* \"contracts/nct v4.sol\":1902:1922  balances[tokenOwner] */\n      and\n        /* \"contracts/nct v4.sol\":1862:1877  uint256 balance */\n      0x00\n        /* \"contracts/nct v4.sol\":1902:1922  balances[tokenOwner] */\n      swap1\n      dup2\n      mstore\n        /* \"contracts/nct v4.sol\":1902:1910  balances */\n      0x05\n        /* \"contracts/nct v4.sol\":1902:1922  balances[tokenOwner] */\n      0x20\n      mstore\n      0x40\n      swap1\n      keccak256\n      sload\n      swap1\n        /* \"contracts/nct v4.sol\":1757:1930  function balanceOf(address tokenOwner)\r... */\n      jump\n        /* \"contracts/nct v4.sol\":3789:3831  uint256 public minInvestment = 0.001 ether */\n    tag_19:\n      callvalue\n      dup1\n      iszero\n      tag_119\n      jumpi\n      0x00\n      dup1\n      revert\n    tag_119:\n      pop\n      tag_39\n      sload(0x11)\n      dup2\n      jump\n        /* \"contracts/nct v4.sol\":5103:5222  function setPrice(uint256 _tokenPrice)public {\r... */\n    tag_20:\n      callvalue\n      dup1\n      iszero\n      tag_123\n      jumpi\n      0x00\n      dup1\n      revert\n    tag_123:\n      pop\n      tag_44\n      tag_125\n      calldatasize\n      0x04\n      tag_76\n      jump\t// in\n    tag_125:\n        /* \"contracts/nct v4.sol\":5155:5165  tokenPrice */\n      0x09\n        /* \"contracts/nct v4.sol\":5155:5179  tokenPrice = _tokenPrice */\n      sstore\n        /* \"contracts/nct v4.sol\":5103:5222  function setPrice(uint256 _tokenPrice)public {\r... */\n      jump\n        /* \"contracts/nct v4.sol\":1281:1309  string public symbol = \"NCT\" */\n    tag_21:\n      callvalue\n      dup1\n      iszero\n      tag_127\n      jumpi\n      0x00\n      dup1\n      revert\n    tag_127:\n      pop\n      tag_47\n      tag_129\n      jump\t// in\n        /* \"contracts/nct v4.sol\":6434:6838  function transfer(address to, uint256 tokens)\r... */\n    tag_22:\n      callvalue\n      dup1\n      iszero\n      tag_131\n      jumpi\n      0x00\n      dup1\n      revert\n    tag_131:\n      pop\n      tag_52\n      tag_133\n      calldatasize\n      0x04\n      tag_54\n      jump\t// in\n    tag_133:\n      tag_134\n      jump\t// in\n        /* \"contracts/nct v4.sol\":3491:3533  uint256 public saleStart = block.timestamp */\n    tag_23:\n      callvalue\n      dup1\n      iszero\n      tag_136\n      jumpi\n      0x00\n      dup1\n      revert\n    tag_136:\n      pop\n      tag_39\n      sload(0x0c)\n      dup2\n      jump\n        /* \"contracts/nct v4.sol\":3540:3589  uint256 public saleEnd = block.timestamp + 604800 */\n    tag_24:\n      callvalue\n      dup1\n      iszero\n      tag_140\n      jumpi\n      0x00\n      dup1\n      revert\n    tag_140:\n      pop\n      tag_39\n      sload(0x0d)\n      dup2\n      jump\n        /* \"contracts/nct v4.sol\":3428:3455  uint256 public raisedAmount */\n    tag_25:\n      callvalue\n      dup1\n      iszero\n      tag_144\n      jumpi\n      0x00\n      dup1\n      revert\n    tag_144:\n      pop\n      tag_39\n      sload(0x0b)\n      dup2\n      jump\n        /* \"contracts/nct v4.sol\":3649:3698  uint256 public tokenTradeStart = saleEnd + 604800 */\n    tag_26:\n      callvalue\n      dup1\n      iszero\n      tag_148\n      jumpi\n      0x00\n      dup1\n      revert\n    tag_148:\n      pop\n      tag_39\n      sload(0x0f)\n      dup2\n      jump\n        /* \"contracts/nct v4.sol\":3276:3306  address payable public deposit */\n    tag_27:\n      callvalue\n      dup1\n      iszero\n      tag_152\n      jumpi\n      0x00\n      dup1\n      revert\n    tag_152:\n      pop\n      sload(0x08)\n      tag_96\n      swap1\n      sub(shl(0xa0, 0x01), 0x01)\n      and\n      dup2\n      jump\n        /* \"contracts/nct v4.sol\":2286:2476  function allowance(address tokenOwner, address spender)\r... */\n    tag_28:\n      callvalue\n      dup1\n      iszero\n      tag_157\n      jumpi\n      0x00\n      dup1\n      revert\n    tag_157:\n      pop\n      tag_39\n      tag_159\n      calldatasize\n      0x04\n      tag_160\n      jump\t// in\n    tag_159:\n      sub(shl(0xa0, 0x01), 0x01)\n        /* \"contracts/nct v4.sol\":2440:2459  allowed[tokenOwner] */\n      swap2\n      dup3\n      and\n        /* \"contracts/nct v4.sol\":2408:2415  uint256 */\n      0x00\n        /* \"contracts/nct v4.sol\":2440:2459  allowed[tokenOwner] */\n      swap1\n      dup2\n      mstore\n        /* \"contracts/nct v4.sol\":2440:2447  allowed */\n      0x06\n        /* \"contracts/nct v4.sol\":2440:2459  allowed[tokenOwner] */\n      0x20\n      swap1\n      dup2\n      mstore\n      0x40\n      dup1\n      dup4\n      keccak256\n        /* \"contracts/nct v4.sol\":2440:2468  allowed[tokenOwner][spender] */\n      swap4\n      swap1\n      swap5\n      and\n      dup3\n      mstore\n      swap2\n      swap1\n      swap2\n      mstore\n      keccak256\n      sload\n      swap1\n        /* \"contracts/nct v4.sol\":2286:2476  function allowance(address tokenOwner, address spender)\r... */\n      jump\n        /* \"contracts/nct v4.sol\":5224:5330  function getPrice(uint256 token) public view returns(uint256){\r... */\n    tag_29:\n      callvalue\n      dup1\n      iszero\n      tag_163\n      jumpi\n      0x00\n      dup1\n      revert\n    tag_163:\n      pop\n      tag_39\n      tag_165\n      calldatasize\n      0x04\n      tag_76\n      jump\t// in\n    tag_165:\n      tag_166\n      jump\t// in\n        /* \"contracts/nct v4.sol\":3249:3269  address public admin */\n    tag_30:\n      callvalue\n      dup1\n      iszero\n      tag_168\n      jumpi\n      0x00\n      dup1\n      revert\n    tag_168:\n      pop\n      sload(0x07)\n      tag_96\n      swap1\n      sub(shl(0xa0, 0x01), 0x01)\n      and\n      dup2\n      jump\n        /* \"contracts/nct v4.sol\":4300:4378  function resume() public onlyAdmin {\r... */\n    tag_45:\n        /* \"contracts/nct v4.sol\":4266:4271  admin */\n      and(sub(shl(0xa0, 0x01), 0x01), sload(0x07))\n        /* \"contracts/nct v4.sol\":4252:4262  msg.sender */\n      caller\n        /* \"contracts/nct v4.sol\":4252:4271  msg.sender == admin */\n      eq\n        /* \"contracts/nct v4.sol\":4244:4272  require(msg.sender == admin) */\n      tag_173\n      jumpi\n      0x00\n      dup1\n      revert\n    tag_173:\n        /* \"contracts/nct v4.sol\":4346:4354  icoState */\n      0x12\n        /* \"contracts/nct v4.sol\":4346:4370  icoState = State.running */\n      dup1\n      sload\n      not(0xff)\n      and\n        /* \"contracts/nct v4.sol\":4357:4370  State.running */\n      0x01\n        /* \"contracts/nct v4.sol\":4346:4370  icoState = State.running */\n      or\n      swap1\n      sstore\n        /* \"contracts/nct v4.sol\":4300:4378  function resume() public onlyAdmin {\r... */\n      jump\t// out\n        /* \"contracts/nct v4.sol\":1237:1274  string public name = \"Nations Combat\" */\n    tag_48:\n      0x00\n      dup1\n      sload\n      tag_178\n      swap1\n      tag_179\n      jump\t// in\n    tag_178:\n      dup1\n      0x1f\n      add\n      0x20\n      dup1\n      swap2\n      div\n      mul\n      0x20\n      add\n      mload(0x40)\n      swap1\n      dup2\n      add\n      0x40\n      mstore\n      dup1\n      swap3\n      swap2\n      swap1\n      dup2\n      dup2\n      mstore\n      0x20\n      add\n      dup3\n      dup1\n      sload\n      tag_180\n      swap1\n      tag_179\n      jump\t// in\n    tag_180:\n      dup1\n      iszero\n      tag_181\n      jumpi\n      dup1\n      0x1f\n      lt\n      tag_182\n      jumpi\n      0x0100\n      dup1\n      dup4\n      sload\n      div\n      mul\n      dup4\n      mstore\n      swap2\n      0x20\n      add\n      swap2\n      jump(tag_181)\n    tag_182:\n      dup3\n      add\n      swap2\n      swap1\n      0x00\n      mstore\n      keccak256(0x00, 0x20)\n      swap1\n    tag_183:\n      dup2\n      sload\n      dup2\n      mstore\n      swap1\n      0x01\n      add\n      swap1\n      0x20\n      add\n      dup1\n      dup4\n      gt\n      tag_183\n      jumpi\n      dup3\n      swap1\n      sub\n      0x1f\n      and\n      dup3\n      add\n      swap2\n    tag_181:\n      pop\n      pop\n      pop\n      pop\n      pop\n      dup2\n      jump\t// out\n        /* \"contracts/nct v4.sol\":2484:2820  function approve(address spender, uint256 tokens)\r... */\n    tag_55:\n        /* \"contracts/nct v4.sol\":2633:2643  msg.sender */\n      caller\n        /* \"contracts/nct v4.sol\":2586:2598  bool success */\n      0x00\n        /* \"contracts/nct v4.sol\":2624:2644  balances[msg.sender] */\n      swap1\n      dup2\n      mstore\n        /* \"contracts/nct v4.sol\":2624:2632  balances */\n      0x05\n        /* \"contracts/nct v4.sol\":2624:2644  balances[msg.sender] */\n      0x20\n      mstore\n      0x40\n      dup2\n      keccak256\n      sload\n        /* \"contracts/nct v4.sol\":2624:2654  balances[msg.sender] >= tokens */\n      dup3\n      gt\n      iszero\n        /* \"contracts/nct v4.sol\":2616:2655  require(balances[msg.sender] >= tokens) */\n      tag_185\n      jumpi\n      0x00\n      dup1\n      revert\n    tag_185:\n        /* \"contracts/nct v4.sol\":2683:2684  0 */\n      0x00\n        /* \"contracts/nct v4.sol\":2674:2680  tokens */\n      dup3\n        /* \"contracts/nct v4.sol\":2674:2684  tokens > 0 */\n      gt\n        /* \"contracts/nct v4.sol\":2666:2685  require(tokens > 0) */\n      tag_186\n      jumpi\n      0x00\n      dup1\n      revert\n    tag_186:\n        /* \"contracts/nct v4.sol\":2706:2716  msg.sender */\n      caller\n        /* \"contracts/nct v4.sol\":2698:2717  allowed[msg.sender] */\n      0x00\n      dup2\n      dup2\n      mstore\n        /* \"contracts/nct v4.sol\":2698:2705  allowed */\n      0x06\n        /* \"contracts/nct v4.sol\":2698:2717  allowed[msg.sender] */\n      0x20\n      swap1\n      dup2\n      mstore\n      0x40\n      dup1\n      dup4\n      keccak256\n      sub(shl(0xa0, 0x01), 0x01)\n        /* \"contracts/nct v4.sol\":2698:2726  allowed[msg.sender][spender] */\n      dup9\n      and\n      dup1\n      dup6\n      mstore\n      swap1\n      dup4\n      mstore\n      swap3\n      dup2\n      swap1\n      keccak256\n        /* \"contracts/nct v4.sol\":2698:2735  allowed[msg.sender][spender] = tokens */\n      dup7\n      swap1\n      sstore\n        /* \"contracts/nct v4.sol\":2753:2790  Approval(msg.sender, spender, tokens) */\n      mload\n        /* \"#utility.yul\":6346:6371   */\n      dup6\n      dup2\n      mstore\n        /* \"contracts/nct v4.sol\":2698:2726  allowed[msg.sender][spender] */\n      swap2\n      swap3\n        /* \"contracts/nct v4.sol\":2706:2716  msg.sender */\n      swap2\n        /* \"contracts/nct v4.sol\":2753:2790  Approval(msg.sender, spender, tokens) */\n      0x8c5be1e5ebec7d5bd14f71427d1e84f3dd0314c0f7b2291e5b200ac8c7c3b925\n      swap2\n        /* \"#utility.yul\":6319:6337   */\n      add\n        /* \"contracts/nct v4.sol\":2753:2790  Approval(msg.sender, spender, tokens) */\n    tag_187:\n      mload(0x40)\n      dup1\n      swap2\n      sub\n      swap1\n      log3\n      pop\n        /* \"contracts/nct v4.sol\":2808:2812  true */\n      0x01\n        /* \"contracts/nct v4.sol\":2484:2820  function approve(address spender, uint256 tokens)\r... */\n    tag_184:\n      swap3\n      swap2\n      pop\n      pop\n      jump\t// out\n        /* \"contracts/nct v4.sol\":7255:7630  function transferFrom(\r... */\n    tag_66:\n        /* \"contracts/nct v4.sol\":7378:7390  bool success */\n      0x00\n        /* \"contracts/nct v4.sol\":7429:7444  tokenTradeStart */\n      sload(0x0f)\n        /* \"contracts/nct v4.sol\":7411:7426  block.timestamp */\n      timestamp\n        /* \"contracts/nct v4.sol\":7411:7444  block.timestamp > tokenTradeStart */\n      gt\n        /* \"contracts/nct v4.sol\":7403:7445  require(block.timestamp > tokenTradeStart) */\n      tag_189\n      jumpi\n      0x00\n      dup1\n      revert\n    tag_189:\n        /* \"contracts/nct v4.sol\":7519:7557  Cryptos.transferFrom(from, to, tokens) */\n      tag_190\n        /* \"contracts/nct v4.sol\":7540:7544  from */\n      dup5\n        /* \"contracts/nct v4.sol\":7546:7548  to */\n      dup5\n        /* \"contracts/nct v4.sol\":7550:7556  tokens */\n      dup5\n        /* \"contracts/nct v4.sol\":7519:7539  Cryptos.transferFrom */\n      tag_191\n        /* \"contracts/nct v4.sol\":7519:7557  Cryptos.transferFrom(from, to, tokens) */\n      jump\t// in\n    tag_190:\n      pop\n        /* \"contracts/nct v4.sol\":7618:7622  true */\n      0x01\n      swap5\n        /* \"contracts/nct v4.sol\":7255:7630  function transferFrom(\r... */\n      swap4\n      pop\n      pop\n      pop\n      pop\n      jump\t// out\n        /* \"contracts/nct v4.sol\":5393:6319  function invest(uint256 token) public payable returns (bool) {\r... */\n    tag_77:\n        /* \"contracts/nct v4.sol\":5448:5452  bool */\n      0x00\n        /* \"contracts/nct v4.sol\":5476:5493  getCurrentState() */\n      tag_193\n        /* \"contracts/nct v4.sol\":5476:5491  getCurrentState */\n      tag_85\n        /* \"contracts/nct v4.sol\":5476:5493  getCurrentState() */\n      jump\t// in\n    tag_193:\n        /* \"contracts/nct v4.sol\":5465:5473  icoState */\n      0x12\n        /* \"contracts/nct v4.sol\":5465:5493  icoState = getCurrentState() */\n      dup1\n      sload\n      not(0xff)\n      and\n      0x01\n      dup4\n      0x03\n      dup2\n      gt\n      iszero\n      tag_195\n      jumpi\n      tag_195\n      tag_177\n      jump\t// in\n    tag_195:\n      mul\n      or\n      swap1\n      sstore\n      pop\n        /* \"contracts/nct v4.sol\":5524:5537  State.running */\n      0x01\n        /* \"contracts/nct v4.sol\":5512:5520  icoState */\n      and(0xff, sload(0x12))\n        /* \"contracts/nct v4.sol\":5512:5537  icoState == State.running */\n      0x03\n      dup2\n      gt\n      iszero\n      tag_199\n      jumpi\n      tag_199\n      tag_177\n      jump\t// in\n    tag_199:\n      eq\n        /* \"contracts/nct v4.sol\":5504:5562  require(icoState == State.running ,\"State is not running\") */\n      tag_200\n      jumpi\n      mload(0x40)\n      shl(0xe5, 0x461bcd)\n      dup2\n      mstore\n        /* \"#utility.yul\":4984:4986   */\n      0x20\n        /* \"contracts/nct v4.sol\":5504:5562  require(icoState == State.running ,\"State is not running\") */\n      0x04\n      dup3\n      add\n        /* \"#utility.yul\":4966:4987   */\n      mstore\n        /* \"#utility.yul\":5023:5025   */\n      0x14\n        /* \"#utility.yul\":5003:5021   */\n      0x24\n      dup3\n      add\n        /* \"#utility.yul\":4996:5026   */\n      mstore\n      shl(0x60, 0x5374617465206973206e6f742072756e6e696e67)\n        /* \"#utility.yul\":5042:5060   */\n      0x44\n      dup3\n      add\n        /* \"#utility.yul\":5035:5085   */\n      mstore\n        /* \"#utility.yul\":5102:5120   */\n      0x64\n      add\n        /* \"contracts/nct v4.sol\":5504:5562  require(icoState == State.running ,\"State is not running\") */\n    tag_201:\n      mload(0x40)\n      dup1\n      swap2\n      sub\n      swap1\n      revert\n    tag_200:\n        /* \"contracts/nct v4.sol\":5586:5613  multiply(token, tokenPrice) */\n      tag_203\n        /* \"contracts/nct v4.sol\":5595:5600  token */\n      dup3\n        /* \"contracts/nct v4.sol\":5602:5612  tokenPrice */\n      sload(0x09)\n        /* \"contracts/nct v4.sol\":5586:5594  multiply */\n      tag_204\n        /* \"contracts/nct v4.sol\":5586:5613  multiply(token, tokenPrice) */\n      jump\t// in\n    tag_203:\n        /* \"contracts/nct v4.sol\":5573:5582  msg.value */\n      callvalue\n        /* \"contracts/nct v4.sol\":5573:5613  msg.value == multiply(token, tokenPrice) */\n      eq\n        /* \"contracts/nct v4.sol\":5565:5639  require(msg.value == multiply(token, tokenPrice),\"eth sent is not enough\") */\n      tag_205\n      jumpi\n      mload(0x40)\n      shl(0xe5, 0x461bcd)\n      dup2\n      mstore\n        /* \"#utility.yul\":5692:5694   */\n      0x20\n        /* \"contracts/nct v4.sol\":5565:5639  require(msg.value == multiply(token, tokenPrice),\"eth sent is not enough\") */\n      0x04\n      dup3\n      add\n        /* \"#utility.yul\":5674:5695   */\n      mstore\n        /* \"#utility.yul\":5731:5733   */\n      0x16\n        /* \"#utility.yul\":5711:5729   */\n      0x24\n      dup3\n      add\n        /* \"#utility.yul\":5704:5734   */\n      mstore\n      shl(0x53, 0x0cae8d040e6cadce840d2e640dcdee840cadcdeeaced)\n        /* \"#utility.yul\":5750:5768   */\n      0x44\n      dup3\n      add\n        /* \"#utility.yul\":5743:5795   */\n      mstore\n        /* \"#utility.yul\":5812:5830   */\n      0x64\n      add\n        /* \"contracts/nct v4.sol\":5565:5639  require(msg.value == multiply(token, tokenPrice),\"eth sent is not enough\") */\n      tag_201\n        /* \"#utility.yul\":5490:5836   */\n      jump\n        /* \"contracts/nct v4.sol\":5565:5639  require(msg.value == multiply(token, tokenPrice),\"eth sent is not enough\") */\n    tag_205:\n        /* \"contracts/nct v4.sol\":5699:5711  token*10**18 */\n      tag_208\n        /* \"contracts/nct v4.sol\":5699:5704  token */\n      dup3\n        /* \"contracts/nct v4.sol\":5705:5711  10**18 */\n      0x0de0b6b3a7640000\n        /* \"contracts/nct v4.sol\":5699:5711  token*10**18 */\n      tag_209\n      jump\t// in\n    tag_208:\n        /* \"contracts/nct v4.sol\":5658:5671  tokenContract */\n      sload(0x0e)\n        /* \"contracts/nct v4.sol\":5658:5696  tokenContract.balanceOf(address(this)) */\n      mload(0x40)\n      shl(0xe0, 0x70a08231)\n      dup2\n      mstore\n        /* \"contracts/nct v4.sol\":5690:5694  this */\n      address\n        /* \"contracts/nct v4.sol\":5658:5696  tokenContract.balanceOf(address(this)) */\n      0x04\n      dup3\n      add\n        /* \"#utility.yul\":2502:2553   */\n      mstore\n      sub(shl(0xa0, 0x01), 0x01)\n        /* \"contracts/nct v4.sol\":5658:5671  tokenContract */\n      swap1\n      swap2\n      and\n      swap1\n        /* \"contracts/nct v4.sol\":5658:5681  tokenContract.balanceOf */\n      0x70a08231\n      swap1\n        /* \"#utility.yul\":2475:2493   */\n      0x24\n      add\n        /* \"contracts/nct v4.sol\":5658:5696  tokenContract.balanceOf(address(this)) */\n      0x20\n      mload(0x40)\n      dup1\n      dup4\n      sub\n      dup2\n      dup7\n      dup1\n      extcodesize\n      iszero\n      dup1\n      iszero\n      tag_211\n      jumpi\n      0x00\n      dup1\n      revert\n    tag_211:\n      pop\n      gas\n      staticcall\n      iszero\n      dup1\n      iszero\n      tag_213\n      jumpi\n      returndatasize\n      0x00\n      dup1\n      returndatacopy\n      revert(0x00, returndatasize)\n    tag_213:\n      pop\n      pop\n      pop\n      pop\n      mload(0x40)\n      returndatasize\n      not(0x1f)\n      0x1f\n      dup3\n      add\n      and\n      dup3\n      add\n      dup1\n      0x40\n      mstore\n      pop\n      dup2\n      add\n      swap1\n      tag_214\n      swap2\n      swap1\n      tag_215\n      jump\t// in\n    tag_214:\n        /* \"contracts/nct v4.sol\":5658:5711  tokenContract.balanceOf(address(this))>= token*10**18 */\n      lt\n      iszero\n        /* \"contracts/nct v4.sol\":5650:5745  require(tokenContract.balanceOf(address(this))>= token*10**18,\"No more token in the contract!\") */\n      tag_216\n      jumpi\n      mload(0x40)\n      shl(0xe5, 0x461bcd)\n      dup2\n      mstore\n        /* \"#utility.yul\":6043:6045   */\n      0x20\n        /* \"contracts/nct v4.sol\":5650:5745  require(tokenContract.balanceOf(address(this))>= token*10**18,\"No more token in the contract!\") */\n      0x04\n      dup3\n      add\n        /* \"#utility.yul\":6025:6046   */\n      mstore\n        /* \"#utility.yul\":6082:6084   */\n      0x1e\n        /* \"#utility.yul\":6062:6080   */\n      0x24\n      dup3\n      add\n        /* \"#utility.yul\":6055:6085   */\n      mstore\n        /* \"#utility.yul\":6121:6153   */\n      0x4e6f206d6f726520746f6b656e20696e2074686520636f6e7472616374210000\n        /* \"#utility.yul\":6101:6119   */\n      0x44\n      dup3\n      add\n        /* \"#utility.yul\":6094:6154   */\n      mstore\n        /* \"#utility.yul\":6171:6189   */\n      0x64\n      add\n        /* \"contracts/nct v4.sol\":5650:5745  require(tokenContract.balanceOf(address(this))>= token*10**18,\"No more token in the contract!\") */\n      tag_201\n        /* \"#utility.yul\":5841:6195   */\n      jump\n        /* \"contracts/nct v4.sol\":5650:5745  require(tokenContract.balanceOf(address(this))>= token*10**18,\"No more token in the contract!\") */\n    tag_216:\n        /* \"contracts/nct v4.sol\":5764:5777  tokenContract */\n      and(sub(shl(0xa0, 0x01), 0x01), sload(0x0e))\n        /* \"contracts/nct v4.sol\":5764:5786  tokenContract.transfer */\n      0xa9059cbb\n        /* \"contracts/nct v4.sol\":5787:5797  msg.sender */\n      caller\n        /* \"contracts/nct v4.sol\":5799:5811  token*10**18 */\n      tag_219\n        /* \"contracts/nct v4.sol\":5799:5804  token */\n      dup6\n        /* \"contracts/nct v4.sol\":5805:5811  10**18 */\n      0x0de0b6b3a7640000\n        /* \"contracts/nct v4.sol\":5799:5811  token*10**18 */\n      tag_209\n      jump\t// in\n    tag_219:\n        /* \"contracts/nct v4.sol\":5764:5812  tokenContract.transfer(msg.sender, token*10**18) */\n      mload(0x40)\n      not(sub(shl(0xe0, 0x01), 0x01))\n      0xe0\n      dup6\n      swap1\n      shl\n      and\n      dup2\n      mstore\n      sub(shl(0xa0, 0x01), 0x01)\n        /* \"#utility.yul\":2980:3012   */\n      swap1\n      swap3\n      and\n        /* \"contracts/nct v4.sol\":5764:5812  tokenContract.transfer(msg.sender, token*10**18) */\n      0x04\n      dup4\n      add\n        /* \"#utility.yul\":2962:3013   */\n      mstore\n        /* \"#utility.yul\":3029:3047   */\n      0x24\n      dup3\n      add\n        /* \"#utility.yul\":3022:3056   */\n      mstore\n        /* \"#utility.yul\":2935:2953   */\n      0x44\n      add\n        /* \"contracts/nct v4.sol\":5764:5812  tokenContract.transfer(msg.sender, token*10**18) */\n      0x20\n      mload(0x40)\n      dup1\n      dup4\n      sub\n      dup2\n      0x00\n      dup8\n      dup1\n      extcodesize\n      iszero\n      dup1\n      iszero\n      tag_222\n      jumpi\n      0x00\n      dup1\n      revert\n    tag_222:\n      pop\n      gas\n      call\n      iszero\n      dup1\n      iszero\n      tag_224\n      jumpi\n      returndatasize\n      0x00\n      dup1\n      returndatacopy\n      revert(0x00, returndatasize)\n    tag_224:\n      pop\n      pop\n      pop\n      pop\n      mload(0x40)\n      returndatasize\n      not(0x1f)\n      0x1f\n      dup3\n      add\n      and\n      dup3\n      add\n      dup1\n      0x40\n      mstore\n      pop\n      dup2\n      add\n      swap1\n      tag_225\n      swap2\n      swap1\n      tag_226\n      jump\t// in\n    tag_225:\n        /* \"contracts/nct v4.sol\":5756:5813  require(tokenContract.transfer(msg.sender, token*10**18)) */\n      tag_227\n      jumpi\n      0x00\n      dup1\n      revert\n    tag_227:\n        /* \"contracts/nct v4.sol\":5857:5870  minInvestment */\n      sload(0x11)\n        /* \"contracts/nct v4.sol\":5844:5853  msg.value */\n      callvalue\n        /* \"contracts/nct v4.sol\":5844:5870  msg.value >= minInvestment */\n      lt\n      iszero\n        /* \"contracts/nct v4.sol\":5844:5900  msg.value >= minInvestment && msg.value <= maxInvestment */\n      dup1\n      iszero\n      tag_228\n      jumpi\n      pop\n        /* \"contracts/nct v4.sol\":5887:5900  maxInvestment */\n      sload(0x10)\n        /* \"contracts/nct v4.sol\":5874:5883  msg.value */\n      callvalue\n        /* \"contracts/nct v4.sol\":5874:5900  msg.value <= maxInvestment */\n      gt\n      iszero\n        /* \"contracts/nct v4.sol\":5844:5900  msg.value >= minInvestment && msg.value <= maxInvestment */\n    tag_228:\n        /* \"contracts/nct v4.sol\":5836:5934  require(msg.value >= minInvestment && msg.value <= maxInvestment,\"Max or Min investment Exceeded\") */\n      tag_229\n      jumpi\n      mload(0x40)\n      shl(0xe5, 0x461bcd)\n      dup2\n      mstore\n        /* \"#utility.yul\":5333:5335   */\n      0x20\n        /* \"contracts/nct v4.sol\":5836:5934  require(msg.value >= minInvestment && msg.value <= maxInvestment,\"Max or Min investment Exceeded\") */\n      0x04\n      dup3\n      add\n        /* \"#utility.yul\":5315:5336   */\n      mstore\n        /* \"#utility.yul\":5372:5374   */\n      0x1e\n        /* \"#utility.yul\":5352:5370   */\n      0x24\n      dup3\n      add\n        /* \"#utility.yul\":5345:5375   */\n      mstore\n        /* \"#utility.yul\":5411:5443   */\n      0x4d6178206f72204d696e20696e766573746d656e742045786365656465640000\n        /* \"#utility.yul\":5391:5409   */\n      0x44\n      dup3\n      add\n        /* \"#utility.yul\":5384:5444   */\n      mstore\n        /* \"#utility.yul\":5461:5479   */\n      0x64\n      add\n        /* \"contracts/nct v4.sol\":5836:5934  require(msg.value >= minInvestment && msg.value <= maxInvestment,\"Max or Min investment Exceeded\") */\n      tag_201\n        /* \"#utility.yul\":5131:5485   */\n      jump\n        /* \"contracts/nct v4.sol\":5836:5934  require(msg.value >= minInvestment && msg.value <= maxInvestment,\"Max or Min investment Exceeded\") */\n    tag_229:\n        /* \"contracts/nct v4.sol\":5963:5972  msg.value */\n      callvalue\n        /* \"contracts/nct v4.sol\":5947:5959  raisedAmount */\n      0x0b\n      0x00\n        /* \"contracts/nct v4.sol\":5947:5972  raisedAmount += msg.value */\n      dup3\n      dup3\n      sload\n      tag_232\n      swap2\n      swap1\n      tag_233\n      jump\t// in\n    tag_232:\n      swap1\n      swap2\n      sstore\n      pop\n      pop\n        /* \"contracts/nct v4.sol\":6074:6084  msg.sender */\n      caller\n        /* \"contracts/nct v4.sol\":6065:6085  balances[msg.sender] */\n      0x00\n      swap1\n      dup2\n      mstore\n        /* \"contracts/nct v4.sol\":6065:6073  balances */\n      0x05\n        /* \"contracts/nct v4.sol\":6065:6085  balances[msg.sender] */\n      0x20\n      mstore\n      0x40\n      dup2\n      keccak256\n        /* \"contracts/nct v4.sol\":6065:6094  balances[msg.sender] += token */\n      dup1\n      sload\n        /* \"contracts/nct v4.sol\":6089:6094  token */\n      dup5\n      swap3\n        /* \"contracts/nct v4.sol\":6065:6085  balances[msg.sender] */\n      swap1\n        /* \"contracts/nct v4.sol\":6065:6094  balances[msg.sender] += token */\n      tag_234\n      swap1\n        /* \"contracts/nct v4.sol\":6089:6094  token */\n      dup5\n      swap1\n        /* \"contracts/nct v4.sol\":6065:6094  balances[msg.sender] += token */\n      tag_233\n      jump\t// in\n    tag_234:\n      swap1\n      swap2\n      sstore\n      pop\n      pop\n        /* \"contracts/nct v4.sol\":6114:6121  founder */\n      and(sub(shl(0xa0, 0x01), 0x01), sload(0x04))\n        /* \"contracts/nct v4.sol\":6105:6122  balances[founder] */\n      0x00\n      swap1\n      dup2\n      mstore\n        /* \"contracts/nct v4.sol\":6105:6113  balances */\n      0x05\n        /* \"contracts/nct v4.sol\":6105:6122  balances[founder] */\n      0x20\n      mstore\n      0x40\n      dup2\n      keccak256\n        /* \"contracts/nct v4.sol\":6105:6131  balances[founder] -= token */\n      dup1\n      sload\n        /* \"contracts/nct v4.sol\":6126:6131  token */\n      dup5\n      swap3\n        /* \"contracts/nct v4.sol\":6105:6122  balances[founder] */\n      swap1\n        /* \"contracts/nct v4.sol\":6105:6131  balances[founder] -= token */\n      tag_235\n      swap1\n        /* \"contracts/nct v4.sol\":6126:6131  token */\n      dup5\n      swap1\n        /* \"contracts/nct v4.sol\":6105:6131  balances[founder] -= token */\n      tag_236\n      jump\t// in\n    tag_235:\n      swap1\n      swap2\n      sstore\n      pop\n      pop\n        /* \"contracts/nct v4.sol\":6142:6149  deposit */\n      sload(0x08)\n        /* \"contracts/nct v4.sol\":6142:6169  deposit.transfer(msg.value) */\n      mload(0x40)\n      sub(shl(0xa0, 0x01), 0x01)\n        /* \"contracts/nct v4.sol\":6142:6149  deposit */\n      swap1\n      swap2\n      and\n      swap1\n        /* \"contracts/nct v4.sol\":6159:6168  msg.value */\n      callvalue\n        /* \"contracts/nct v4.sol\":6142:6169  deposit.transfer(msg.value) */\n      dup1\n      iszero\n      0x08fc\n      mul\n      swap2\n        /* \"contracts/nct v4.sol\":6142:6149  deposit */\n      0x00\n        /* \"contracts/nct v4.sol\":6142:6169  deposit.transfer(msg.value) */\n      dup2\n        /* \"contracts/nct v4.sol\":6142:6149  deposit */\n      dup2\n        /* \"contracts/nct v4.sol\":6142:6169  deposit.transfer(msg.value) */\n      dup2\n        /* \"contracts/nct v4.sol\":6159:6168  msg.value */\n      dup6\n        /* \"contracts/nct v4.sol\":6142:6149  deposit */\n      dup9\n        /* \"contracts/nct v4.sol\":6142:6169  deposit.transfer(msg.value) */\n      dup9\n      call\n      swap4\n      pop\n      pop\n      pop\n      pop\n      iszero\n      dup1\n      iszero\n      tag_238\n      jumpi\n      returndatasize\n      0x00\n      dup1\n      returndatacopy\n      revert(0x00, returndatasize)\n    tag_238:\n      pop\n        /* \"contracts/nct v4.sol\":6251:6287  Invest(msg.sender, msg.value, token) */\n      0x40\n      dup1\n      mload\n        /* \"contracts/nct v4.sol\":6258:6268  msg.sender */\n      caller\n        /* \"#utility.yul\":3269:3320   */\n      dup2\n      mstore\n        /* \"contracts/nct v4.sol\":6270:6279  msg.value */\n      callvalue\n        /* \"#utility.yul\":3351:3353   */\n      0x20\n        /* \"#utility.yul\":3336:3354   */\n      dup3\n      add\n        /* \"#utility.yul\":3329:3363   */\n      mstore\n        /* \"#utility.yul\":3379:3397   */\n      swap1\n      dup2\n      add\n        /* \"#utility.yul\":3372:3406   */\n      dup4\n      swap1\n      mstore\n        /* \"contracts/nct v4.sol\":6251:6287  Invest(msg.sender, msg.value, token) */\n      0x4ae4bd7655e0d350876a23cd90c4227b13db560e34435c6a488150a9c844bf5f\n      swap1\n        /* \"#utility.yul\":3257:3259   */\n      0x60\n        /* \"#utility.yul\":3242:3260   */\n      add\n        /* \"contracts/nct v4.sol\":6251:6287  Invest(msg.sender, msg.value, token) */\n      mload(0x40)\n      dup1\n      swap2\n      sub\n      swap1\n      log1\n      pop\n        /* \"contracts/nct v4.sol\":6307:6311  true */\n      0x01\n      swap2\n        /* \"contracts/nct v4.sol\":5393:6319  function invest(uint256 token) public payable returns (bool) {\r... */\n      swap1\n      pop\n      jump\t// out\n        /* \"contracts/nct v4.sol\":4508:4918  function getCurrentState() public view returns (State) {\r... */\n    tag_85:\n        /* \"contracts/nct v4.sol\":4556:4561  State */\n      0x00\n        /* \"contracts/nct v4.sol\":4590:4602  State.halted */\n      0x03\n        /* \"contracts/nct v4.sol\":4578:4586  icoState */\n      and(0xff, sload(0x12))\n        /* \"contracts/nct v4.sol\":4578:4602  icoState == State.halted */\n      0x03\n      dup2\n      gt\n      iszero\n      tag_245\n      jumpi\n      tag_245\n      tag_177\n      jump\t// in\n    tag_245:\n      eq\n        /* \"contracts/nct v4.sol\":4574:4911  if (icoState == State.halted) {\r... */\n      iszero\n      tag_246\n      jumpi\n      pop\n        /* \"contracts/nct v4.sol\":4626:4638  State.halted */\n      0x03\n      swap1\n        /* \"contracts/nct v4.sol\":4508:4918  function getCurrentState() public view returns (State) {\r... */\n      jump\t// out\n        /* \"contracts/nct v4.sol\":4574:4911  if (icoState == State.halted) {\r... */\n    tag_246:\n        /* \"contracts/nct v4.sol\":4678:4687  saleStart */\n      sload(0x0c)\n        /* \"contracts/nct v4.sol\":4660:4675  block.timestamp */\n      timestamp\n        /* \"contracts/nct v4.sol\":4660:4687  block.timestamp < saleStart */\n      lt\n        /* \"contracts/nct v4.sol\":4656:4911  if (block.timestamp < saleStart) {\r... */\n      iszero\n      tag_248\n      jumpi\n      pop\n        /* \"contracts/nct v4.sol\":4711:4728  State.beforeStart */\n      0x00\n      swap1\n        /* \"contracts/nct v4.sol\":4508:4918  function getCurrentState() public view returns (State) {\r... */\n      jump\t// out\n        /* \"contracts/nct v4.sol\":4656:4911  if (block.timestamp < saleStart) {\r... */\n    tag_248:\n        /* \"contracts/nct v4.sol\":4769:4778  saleStart */\n      sload(0x0c)\n        /* \"contracts/nct v4.sol\":4750:4765  block.timestamp */\n      timestamp\n        /* \"contracts/nct v4.sol\":4750:4778  block.timestamp >= saleStart */\n      lt\n      iszero\n        /* \"contracts/nct v4.sol\":4750:4808  block.timestamp >= saleStart && block.timestamp <= saleEnd */\n      dup1\n      iszero\n      tag_250\n      jumpi\n      pop\n        /* \"contracts/nct v4.sol\":4801:4808  saleEnd */\n      sload(0x0d)\n        /* \"contracts/nct v4.sol\":4782:4797  block.timestamp */\n      timestamp\n        /* \"contracts/nct v4.sol\":4782:4808  block.timestamp <= saleEnd */\n      gt\n      iszero\n        /* \"contracts/nct v4.sol\":4750:4808  block.timestamp >= saleStart && block.timestamp <= saleEnd */\n    tag_250:\n        /* \"contracts/nct v4.sol\":4746:4911  if (block.timestamp >= saleStart && block.timestamp <= saleEnd) {\r... */\n      iszero\n      tag_251\n      jumpi\n      pop\n        /* \"contracts/nct v4.sol\":4832:4845  State.running */\n      0x01\n      swap1\n        /* \"contracts/nct v4.sol\":4508:4918  function getCurrentState() public view returns (State) {\r... */\n      jump\t// out\n        /* \"contracts/nct v4.sol\":4746:4911  if (block.timestamp >= saleStart && block.timestamp <= saleEnd) {\r... */\n    tag_251:\n      pop\n        /* \"contracts/nct v4.sol\":4885:4899  State.afterEnd */\n      0x02\n      swap1\n        /* \"contracts/nct v4.sol\":4508:4918  function getCurrentState() public view returns (State) {\r... */\n      jump\t// out\n        /* \"contracts/nct v4.sol\":6846:7247  function endSale() public {\r... */\n    tag_90:\n        /* \"contracts/nct v4.sol\":6905:6910  admin */\n      and(sub(shl(0xa0, 0x01), 0x01), sload(0x07))\n        /* \"contracts/nct v4.sol\":6891:6901  msg.sender */\n      caller\n        /* \"contracts/nct v4.sol\":6891:6910  msg.sender == admin */\n      eq\n        /* \"contracts/nct v4.sol\":6883:6911  require(msg.sender == admin) */\n      tag_254\n      jumpi\n      0x00\n      dup1\n      revert\n    tag_254:\n        /* \"contracts/nct v4.sol\":6944:6957  tokenContract */\n      sload(0x0e)\n        /* \"contracts/nct v4.sol\":6985:6990  admin */\n      sload(0x07)\n        /* \"contracts/nct v4.sol\":7009:7047  tokenContract.balanceOf(address(this)) */\n      mload(0x40)\n      shl(0xe0, 0x70a08231)\n      dup2\n      mstore\n        /* \"contracts/nct v4.sol\":7041:7045  this */\n      address\n        /* \"contracts/nct v4.sol\":7009:7047  tokenContract.balanceOf(address(this)) */\n      0x04\n      dup3\n      add\n        /* \"#utility.yul\":2502:2553   */\n      mstore\n      sub(shl(0xa0, 0x01), 0x01)\n        /* \"contracts/nct v4.sol\":6944:6957  tokenContract */\n      swap3\n      dup4\n      and\n      swap3\n        /* \"contracts/nct v4.sol\":6944:6966  tokenContract.transfer */\n      0xa9059cbb\n      swap3\n        /* \"contracts/nct v4.sol\":6985:6990  admin */\n      and\n      swap1\n        /* \"contracts/nct v4.sol\":6944:6957  tokenContract */\n      dup4\n      swap1\n        /* \"contracts/nct v4.sol\":7009:7032  tokenContract.balanceOf */\n      0x70a08231\n      swap1\n        /* \"#utility.yul\":2475:2493   */\n      0x24\n      add\n        /* \"contracts/nct v4.sol\":7009:7047  tokenContract.balanceOf(address(this)) */\n      0x20\n      mload(0x40)\n      dup1\n      dup4\n      sub\n      dup2\n      dup7\n      dup1\n      extcodesize\n      iszero\n      dup1\n      iszero\n      tag_256\n      jumpi\n      0x00\n      dup1\n      revert\n    tag_256:\n      pop\n      gas\n      staticcall\n      iszero\n      dup1\n      iszero\n      tag_258\n      jumpi\n      returndatasize\n      0x00\n      dup1\n      returndatacopy\n      revert(0x00, returndatasize)\n    tag_258:\n      pop\n      pop\n      pop\n      pop\n      mload(0x40)\n      returndatasize\n      not(0x1f)\n      0x1f\n      dup3\n      add\n      and\n      dup3\n      add\n      dup1\n      0x40\n      mstore\n      pop\n      dup2\n      add\n      swap1\n      tag_259\n      swap2\n      swap1\n      tag_215\n      jump\t// in\n    tag_259:\n        /* \"contracts/nct v4.sol\":6944:7062  tokenContract.transfer(\r... */\n      mload(0x40)\n      not(sub(shl(0xe0, 0x01), 0x01))\n      0xe0\n      dup6\n      swap1\n      shl\n      and\n      dup2\n      mstore\n      sub(shl(0xa0, 0x01), 0x01)\n        /* \"#utility.yul\":2980:3012   */\n      swap1\n      swap3\n      and\n        /* \"contracts/nct v4.sol\":6944:7062  tokenContract.transfer(\r... */\n      0x04\n      dup4\n      add\n        /* \"#utility.yul\":2962:3013   */\n      mstore\n        /* \"#utility.yul\":3029:3047   */\n      0x24\n      dup3\n      add\n        /* \"#utility.yul\":3022:3056   */\n      mstore\n        /* \"#utility.yul\":2935:2953   */\n      0x44\n      add\n        /* \"contracts/nct v4.sol\":6944:7062  tokenContract.transfer(\r... */\n      0x20\n      mload(0x40)\n      dup1\n      dup4\n      sub\n      dup2\n      0x00\n      dup8\n      dup1\n      extcodesize\n      iszero\n      dup1\n      iszero\n      tag_261\n      jumpi\n      0x00\n      dup1\n      revert\n    tag_261:\n      pop\n      gas\n      call\n      iszero\n      dup1\n      iszero\n      tag_263\n      jumpi\n      returndatasize\n      0x00\n      dup1\n      returndatacopy\n      revert(0x00, returndatasize)\n    tag_263:\n      pop\n      pop\n      pop\n      pop\n      mload(0x40)\n      returndatasize\n      not(0x1f)\n      0x1f\n      dup3\n      add\n      and\n      dup3\n      add\n      dup1\n      0x40\n      mstore\n      pop\n      dup2\n      add\n      swap1\n      tag_264\n      swap2\n      swap1\n      tag_226\n      jump\t// in\n    tag_264:\n        /* \"contracts/nct v4.sol\":6922:7073  require(\r... */\n      tag_265\n      jumpi\n      0x00\n      dup1\n      revert\n    tag_265:\n        /* \"contracts/nct v4.sol\":7201:7206  admin */\n      sload(0x07)\n        /* \"contracts/nct v4.sol\":7193:7239  payable(admin).transfer(address(this).balance) */\n      mload(0x40)\n      sub(shl(0xa0, 0x01), 0x01)\n        /* \"contracts/nct v4.sol\":7201:7206  admin */\n      swap1\n      swap2\n      and\n      swap1\n        /* \"contracts/nct v4.sol\":7217:7238  address(this).balance */\n      selfbalance\n        /* \"contracts/nct v4.sol\":7193:7239  payable(admin).transfer(address(this).balance) */\n      dup1\n      iszero\n      0x08fc\n      mul\n      swap2\n        /* \"contracts/nct v4.sol\":7201:7206  admin */\n      0x00\n        /* \"contracts/nct v4.sol\":7193:7239  payable(admin).transfer(address(this).balance) */\n      dup2\n        /* \"contracts/nct v4.sol\":7201:7206  admin */\n      dup2\n        /* \"contracts/nct v4.sol\":7193:7239  payable(admin).transfer(address(this).balance) */\n      dup2\n        /* \"contracts/nct v4.sol\":7217:7238  address(this).balance */\n      dup6\n        /* \"contracts/nct v4.sol\":7201:7206  admin */\n      dup9\n        /* \"contracts/nct v4.sol\":7193:7239  payable(admin).transfer(address(this).balance) */\n      dup9\n      call\n      swap4\n      pop\n      pop\n      pop\n      pop\n      iszero\n      dup1\n      iszero\n      tag_267\n      jumpi\n      returndatasize\n      0x00\n      dup1\n      returndatacopy\n      revert(0x00, returndatasize)\n    tag_267:\n      pop\n        /* \"contracts/nct v4.sol\":6846:7247  function endSale() public {\r... */\n      jump\t// out\n        /* \"contracts/nct v4.sol\":4386:4500  function changeDepositAddress(address payable newDeposit) public onlyAdmin {\r... */\n    tag_109:\n        /* \"contracts/nct v4.sol\":4266:4271  admin */\n      and(sub(shl(0xa0, 0x01), 0x01), sload(0x07))\n        /* \"contracts/nct v4.sol\":4252:4262  msg.sender */\n      caller\n        /* \"contracts/nct v4.sol\":4252:4271  msg.sender == admin */\n      eq\n        /* \"contracts/nct v4.sol\":4244:4272  require(msg.sender == admin) */\n      tag_269\n      jumpi\n      0x00\n      dup1\n      revert\n    tag_269:\n        /* \"contracts/nct v4.sol\":4472:4479  deposit */\n      0x08\n        /* \"contracts/nct v4.sol\":4472:4492  deposit = newDeposit */\n      dup1\n      sload\n      not(sub(shl(0xa0, 0x01), 0x01))\n      and\n      sub(shl(0xa0, 0x01), 0x01)\n      swap3\n      swap1\n      swap3\n      and\n      swap2\n      swap1\n      swap2\n      or\n      swap1\n      sstore\n        /* \"contracts/nct v4.sol\":4386:4500  function changeDepositAddress(address payable newDeposit) public onlyAdmin {\r... */\n      jump\t// out\n        /* \"contracts/nct v4.sol\":1281:1309  string public symbol = \"NCT\" */\n    tag_129:\n      0x01\n      dup1\n      sload\n      tag_178\n      swap1\n      tag_179\n      jump\t// in\n        /* \"contracts/nct v4.sol\":6434:6838  function transfer(address to, uint256 tokens)\r... */\n    tag_134:\n        /* \"contracts/nct v4.sol\":6532:6544  bool success */\n      0x00\n        /* \"contracts/nct v4.sol\":6588:6603  tokenTradeStart */\n      sload(0x0f)\n        /* \"contracts/nct v4.sol\":6570:6585  block.timestamp */\n      timestamp\n        /* \"contracts/nct v4.sol\":6570:6603  block.timestamp > tokenTradeStart */\n      gt\n        /* \"contracts/nct v4.sol\":6562:6604  require(block.timestamp > tokenTradeStart) */\n      tag_279\n      jumpi\n      0x00\n      dup1\n      revert\n    tag_279:\n        /* \"contracts/nct v4.sol\":6741:6767  super.transfer(to, tokens) */\n      tag_280\n        /* \"contracts/nct v4.sol\":6756:6758  to */\n      dup4\n        /* \"contracts/nct v4.sol\":6760:6766  tokens */\n      dup4\n        /* \"contracts/nct v4.sol\":6741:6755  super.transfer */\n      tag_281\n        /* \"contracts/nct v4.sol\":6741:6767  super.transfer(to, tokens) */\n      jump\t// in\n    tag_280:\n      pop\n        /* \"contracts/nct v4.sol\":6826:6830  true */\n      0x01\n      swap4\n        /* \"contracts/nct v4.sol\":6434:6838  function transfer(address to, uint256 tokens)\r... */\n      swap3\n      pop\n      pop\n      pop\n      jump\t// out\n        /* \"contracts/nct v4.sol\":5224:5330  function getPrice(uint256 token) public view returns(uint256){\r... */\n    tag_166:\n        /* \"contracts/nct v4.sol\":5277:5284  uint256 */\n      0x00\n        /* \"contracts/nct v4.sol\":5299:5326  multiply(token, tokenPrice) */\n      tag_184\n        /* \"contracts/nct v4.sol\":5308:5313  token */\n      dup3\n        /* \"contracts/nct v4.sol\":5315:5325  tokenPrice */\n      sload(0x09)\n        /* \"contracts/nct v4.sol\":5299:5307  multiply */\n      tag_204\n        /* \"contracts/nct v4.sol\":5299:5326  multiply(token, tokenPrice) */\n      jump\t// in\n        /* \"contracts/nct v4.sol\":2828:3204  function transferFrom(\r... */\n    tag_191:\n      sub(shl(0xa0, 0x01), 0x01)\n        /* \"contracts/nct v4.sol\":2992:3005  allowed[from] */\n      dup1\n      dup5\n      and\n        /* \"contracts/nct v4.sol\":2959:2971  bool success */\n      0x00\n        /* \"contracts/nct v4.sol\":2992:3005  allowed[from] */\n      swap1\n      dup2\n      mstore\n        /* \"contracts/nct v4.sol\":2992:2999  allowed */\n      0x06\n        /* \"contracts/nct v4.sol\":2992:3005  allowed[from] */\n      0x20\n      swap1\n      dup2\n      mstore\n      0x40\n      dup1\n      dup4\n      keccak256\n        /* \"contracts/nct v4.sol\":2992:3009  allowed[from][to] */\n      swap4\n      dup7\n      and\n      dup4\n      mstore\n      swap3\n      swap1\n      mstore\n      swap1\n      dup2\n      keccak256\n      sload\n        /* \"contracts/nct v4.sol\":2992:3019  allowed[from][to] >= tokens */\n      dup3\n      gt\n      iszero\n        /* \"contracts/nct v4.sol\":2984:3020  require(allowed[from][to] >= tokens) */\n      tag_286\n      jumpi\n      0x00\n      dup1\n      revert\n    tag_286:\n      sub(shl(0xa0, 0x01), 0x01)\n        /* \"contracts/nct v4.sol\":3039:3053  balances[from] */\n      dup5\n      and\n      0x00\n      swap1\n      dup2\n      mstore\n        /* \"contracts/nct v4.sol\":3039:3047  balances */\n      0x05\n        /* \"contracts/nct v4.sol\":3039:3053  balances[from] */\n      0x20\n      mstore\n      0x40\n      swap1\n      keccak256\n      sload\n        /* \"contracts/nct v4.sol\":3039:3063  balances[from] >= tokens */\n      dup3\n      gt\n      iszero\n        /* \"contracts/nct v4.sol\":3031:3064  require(balances[from] >= tokens) */\n      tag_287\n      jumpi\n      0x00\n      dup1\n      revert\n    tag_287:\n      sub(shl(0xa0, 0x01), 0x01)\n        /* \"contracts/nct v4.sol\":3077:3091  balances[from] */\n      dup5\n      and\n      0x00\n      swap1\n      dup2\n      mstore\n        /* \"contracts/nct v4.sol\":3077:3085  balances */\n      0x05\n        /* \"contracts/nct v4.sol\":3077:3091  balances[from] */\n      0x20\n      mstore\n      0x40\n      dup2\n      keccak256\n        /* \"contracts/nct v4.sol\":3077:3101  balances[from] -= tokens */\n      dup1\n      sload\n        /* \"contracts/nct v4.sol\":3095:3101  tokens */\n      dup5\n      swap3\n        /* \"contracts/nct v4.sol\":3077:3091  balances[from] */\n      swap1\n        /* \"contracts/nct v4.sol\":3077:3101  balances[from] -= tokens */\n      tag_288\n      swap1\n        /* \"contracts/nct v4.sol\":3095:3101  tokens */\n      dup5\n      swap1\n        /* \"contracts/nct v4.sol\":3077:3101  balances[from] -= tokens */\n      tag_236\n      jump\t// in\n    tag_288:\n      swap1\n      swap2\n      sstore\n      pop\n      pop\n      sub(shl(0xa0, 0x01), 0x01)\n        /* \"contracts/nct v4.sol\":3112:3124  balances[to] */\n      dup4\n      and\n      0x00\n      swap1\n      dup2\n      mstore\n        /* \"contracts/nct v4.sol\":3112:3120  balances */\n      0x05\n        /* \"contracts/nct v4.sol\":3112:3124  balances[to] */\n      0x20\n      mstore\n      0x40\n      dup2\n      keccak256\n        /* \"contracts/nct v4.sol\":3112:3134  balances[to] += tokens */\n      dup1\n      sload\n        /* \"contracts/nct v4.sol\":3128:3134  tokens */\n      dup5\n      swap3\n        /* \"contracts/nct v4.sol\":3112:3124  balances[to] */\n      swap1\n        /* \"contracts/nct v4.sol\":3112:3134  balances[to] += tokens */\n      tag_289\n      swap1\n        /* \"contracts/nct v4.sol\":3128:3134  tokens */\n      dup5\n      swap1\n        /* \"contracts/nct v4.sol\":3112:3134  balances[to] += tokens */\n      tag_233\n      jump\t// in\n    tag_289:\n      swap1\n      swap2\n      sstore\n      pop\n      pop\n      sub(shl(0xa0, 0x01), 0x01)\n        /* \"contracts/nct v4.sol\":3145:3158  allowed[from] */\n      dup1\n      dup6\n      and\n      0x00\n      swap1\n      dup2\n      mstore\n        /* \"contracts/nct v4.sol\":3145:3152  allowed */\n      0x06\n        /* \"contracts/nct v4.sol\":3145:3158  allowed[from] */\n      0x20\n      swap1\n      dup2\n      mstore\n      0x40\n      dup1\n      dup4\n      keccak256\n        /* \"contracts/nct v4.sol\":3145:3162  allowed[from][to] */\n      swap4\n      dup8\n      and\n      dup4\n      mstore\n      swap3\n      swap1\n      mstore\n      swap1\n      dup2\n      keccak256\n        /* \"contracts/nct v4.sol\":3145:3172  allowed[from][to] -= tokens */\n      dup1\n      sload\n        /* \"contracts/nct v4.sol\":3166:3172  tokens */\n      dup5\n      swap3\n        /* \"contracts/nct v4.sol\":3145:3158  allowed[from] */\n      swap1\n        /* \"contracts/nct v4.sol\":3145:3172  allowed[from][to] -= tokens */\n      tag_290\n      swap1\n        /* \"contracts/nct v4.sol\":3166:3172  tokens */\n      dup5\n      swap1\n        /* \"contracts/nct v4.sol\":3145:3172  allowed[from][to] -= tokens */\n      tag_236\n      jump\t// in\n    tag_290:\n      swap1\n      swap2\n      sstore\n      pop\n        /* \"contracts/nct v4.sol\":3192:3196  true */\n      0x01\n      swap6\n        /* \"contracts/nct v4.sol\":2828:3204  function transferFrom(\r... */\n      swap5\n      pop\n      pop\n      pop\n      pop\n      pop\n      jump\t// out\n        /* \"contracts/nct v4.sol\":4920:5031  function multiply(uint x, uint y) internal pure returns (uint z) {\r... */\n    tag_204:\n        /* \"contracts/nct v4.sol\":4977:4983  uint z */\n      0x00\n        /* \"contracts/nct v4.sol\":4996:5002  y == 0 */\n      dup2\n      iszero\n      dup1\n        /* \"contracts/nct v4.sol\":4996:5026  y == 0 || (z = x * y) / y == x */\n      tag_292\n      jumpi\n      pop\n        /* \"contracts/nct v4.sol\":5025:5026  x */\n      dup3\n        /* \"contracts/nct v4.sol\":5020:5021  y */\n      dup3\n        /* \"contracts/nct v4.sol\":5011:5016  x * y */\n      tag_293\n        /* \"contracts/nct v4.sol\":5020:5021  y */\n      dup2\n        /* \"contracts/nct v4.sol\":5025:5026  x */\n      dup4\n        /* \"contracts/nct v4.sol\":5011:5016  x * y */\n      tag_209\n      jump\t// in\n    tag_293:\n        /* \"contracts/nct v4.sol\":5007:5016  z = x * y */\n      swap3\n      pop\n        /* \"contracts/nct v4.sol\":5006:5021  (z = x * y) / y */\n      tag_294\n      swap1\n        /* \"contracts/nct v4.sol\":5007:5016  z = x * y */\n      dup4\n        /* \"contracts/nct v4.sol\":5006:5021  (z = x * y) / y */\n      tag_295\n      jump\t// in\n    tag_294:\n        /* \"contracts/nct v4.sol\":5006:5026  (z = x * y) / y == x */\n      eq\n        /* \"contracts/nct v4.sol\":4996:5026  y == 0 || (z = x * y) / y == x */\n    tag_292:\n        /* \"contracts/nct v4.sol\":4988:5027  require(y == 0 || (z = x * y) / y == x) */\n      tag_184\n      jumpi\n      0x00\n      dup1\n      revert\n        /* \"contracts/nct v4.sol\":1938:2278  function transfer(address to, uint256 tokens)\r... */\n    tag_281:\n        /* \"contracts/nct v4.sol\":2100:2110  msg.sender */\n      caller\n        /* \"contracts/nct v4.sol\":2053:2065  bool success */\n      0x00\n        /* \"contracts/nct v4.sol\":2091:2111  balances[msg.sender] */\n      swap1\n      dup2\n      mstore\n        /* \"contracts/nct v4.sol\":2091:2099  balances */\n      0x05\n        /* \"contracts/nct v4.sol\":2091:2111  balances[msg.sender] */\n      0x20\n      mstore\n      0x40\n      dup2\n      keccak256\n      sload\n        /* \"contracts/nct v4.sol\":2091:2121  balances[msg.sender] >= tokens */\n      dup3\n      gt\n      iszero\n        /* \"contracts/nct v4.sol\":2083:2122  require(balances[msg.sender] >= tokens) */\n      tag_298\n      jumpi\n      0x00\n      dup1\n      revert\n    tag_298:\n      sub(shl(0xa0, 0x01), 0x01)\n        /* \"contracts/nct v4.sol\":2135:2147  balances[to] */\n      dup4\n      and\n      0x00\n      swap1\n      dup2\n      mstore\n        /* \"contracts/nct v4.sol\":2135:2143  balances */\n      0x05\n        /* \"contracts/nct v4.sol\":2135:2147  balances[to] */\n      0x20\n      mstore\n      0x40\n      dup2\n      keccak256\n        /* \"contracts/nct v4.sol\":2135:2157  balances[to] += tokens */\n      dup1\n      sload\n        /* \"contracts/nct v4.sol\":2151:2157  tokens */\n      dup5\n      swap3\n        /* \"contracts/nct v4.sol\":2135:2147  balances[to] */\n      swap1\n        /* \"contracts/nct v4.sol\":2135:2157  balances[to] += tokens */\n      tag_299\n      swap1\n        /* \"contracts/nct v4.sol\":2151:2157  tokens */\n      dup5\n      swap1\n        /* \"contracts/nct v4.sol\":2135:2157  balances[to] += tokens */\n      tag_233\n      jump\t// in\n    tag_299:\n      swap1\n      swap2\n      sstore\n      pop\n      pop\n        /* \"contracts/nct v4.sol\":2177:2187  msg.sender */\n      caller\n        /* \"contracts/nct v4.sol\":2168:2188  balances[msg.sender] */\n      0x00\n      swap1\n      dup2\n      mstore\n        /* \"contracts/nct v4.sol\":2168:2176  balances */\n      0x05\n        /* \"contracts/nct v4.sol\":2168:2188  balances[msg.sender] */\n      0x20\n      mstore\n      0x40\n      dup2\n      keccak256\n        /* \"contracts/nct v4.sol\":2168:2198  balances[msg.sender] -= tokens */\n      dup1\n      sload\n        /* \"contracts/nct v4.sol\":2192:2198  tokens */\n      dup5\n      swap3\n        /* \"contracts/nct v4.sol\":2168:2188  balances[msg.sender] */\n      swap1\n        /* \"contracts/nct v4.sol\":2168:2198  balances[msg.sender] -= tokens */\n      tag_300\n      swap1\n        /* \"contracts/nct v4.sol\":2192:2198  tokens */\n      dup5\n      swap1\n        /* \"contracts/nct v4.sol\":2168:2198  balances[msg.sender] -= tokens */\n      tag_236\n      jump\t// in\n    tag_300:\n      swap1\n      swap2\n      sstore\n      pop\n      pop\n        /* \"contracts/nct v4.sol\":2214:2246  Transfer(msg.sender, to, tokens) */\n      mload(0x40)\n        /* \"#utility.yul\":6346:6371   */\n      dup3\n      dup2\n      mstore\n      sub(shl(0xa0, 0x01), 0x01)\n        /* \"contracts/nct v4.sol\":2214:2246  Transfer(msg.sender, to, tokens) */\n      dup5\n      and\n      swap1\n        /* \"contracts/nct v4.sol\":2223:2233  msg.sender */\n      caller\n      swap1\n        /* \"contracts/nct v4.sol\":2214:2246  Transfer(msg.sender, to, tokens) */\n      0xddf252ad1be2c89b69c2b068fc378daa952ba7f163c4a11628f55a4df523b3ef\n      swap1\n        /* \"#utility.yul\":6334:6336   */\n      0x20\n        /* \"#utility.yul\":6319:6337   */\n      add\n        /* \"contracts/nct v4.sol\":2214:2246  Transfer(msg.sender, to, tokens) */\n      tag_187\n        /* \"#utility.yul\":6200:6377   */\n      jump\n        /* \"#utility.yul\":14:261   */\n    tag_71:\n        /* \"#utility.yul\":73:79   */\n      0x00\n        /* \"#utility.yul\":126:128   */\n      0x20\n        /* \"#utility.yul\":114:123   */\n      dup3\n        /* \"#utility.yul\":105:112   */\n      dup5\n        /* \"#utility.yul\":101:124   */\n      sub\n        /* \"#utility.yul\":97:129   */\n      slt\n        /* \"#utility.yul\":94:146   */\n      iszero\n      tag_304\n      jumpi\n        /* \"#utility.yul\":142:143   */\n      0x00\n        /* \"#utility.yul\":139:140   */\n      dup1\n        /* \"#utility.yul\":132:144   */\n      revert\n        /* \"#utility.yul\":94:146   */\n    tag_304:\n        /* \"#utility.yul\":181:190   */\n      dup2\n        /* \"#utility.yul\":168:191   */\n      calldataload\n        /* \"#utility.yul\":200:231   */\n      tag_305\n        /* \"#utility.yul\":225:230   */\n      dup2\n        /* \"#utility.yul\":200:231   */\n      tag_306\n      jump\t// in\n    tag_305:\n        /* \"#utility.yul\":250:255   */\n      swap4\n        /* \"#utility.yul\":14:261   */\n      swap3\n      pop\n      pop\n      pop\n      jump\t// out\n        /* \"#utility.yul\":526:914   */\n    tag_160:\n        /* \"#utility.yul\":594:600   */\n      0x00\n        /* \"#utility.yul\":602:608   */\n      dup1\n        /* \"#utility.yul\":655:657   */\n      0x40\n        /* \"#utility.yul\":643:652   */\n      dup4\n        /* \"#utility.yul\":634:641   */\n      dup6\n        /* \"#utility.yul\":630:653   */\n      sub\n        /* \"#utility.yul\":626:658   */\n      slt\n        /* \"#utility.yul\":623:675   */\n      iszero\n      tag_311\n      jumpi\n        /* \"#utility.yul\":671:672   */\n      0x00\n        /* \"#utility.yul\":668:669   */\n      dup1\n        /* \"#utility.yul\":661:673   */\n      revert\n        /* \"#utility.yul\":623:675   */\n    tag_311:\n        /* \"#utility.yul\":710:719   */\n      dup3\n        /* \"#utility.yul\":697:720   */\n      calldataload\n        /* \"#utility.yul\":729:760   */\n      tag_312\n        /* \"#utility.yul\":754:759   */\n      dup2\n        /* \"#utility.yul\":729:760   */\n      tag_306\n      jump\t// in\n    tag_312:\n        /* \"#utility.yul\":779:784   */\n      swap2\n      pop\n        /* \"#utility.yul\":836:838   */\n      0x20\n        /* \"#utility.yul\":821:839   */\n      dup4\n      add\n        /* \"#utility.yul\":808:840   */\n      calldataload\n        /* \"#utility.yul\":849:882   */\n      tag_313\n        /* \"#utility.yul\":808:840   */\n      dup2\n        /* \"#utility.yul\":849:882   */\n      tag_306\n      jump\t// in\n    tag_313:\n        /* \"#utility.yul\":901:908   */\n      dup1\n        /* \"#utility.yul\":891:908   */\n      swap2\n      pop\n      pop\n        /* \"#utility.yul\":526:914   */\n      swap3\n      pop\n      swap3\n      swap1\n      pop\n      jump\t// out\n        /* \"#utility.yul\":919:1375   */\n    tag_65:\n        /* \"#utility.yul\":996:1002   */\n      0x00\n        /* \"#utility.yul\":1004:1010   */\n      dup1\n        /* \"#utility.yul\":1012:1018   */\n      0x00\n        /* \"#utility.yul\":1065:1067   */\n      0x60\n        /* \"#utility.yul\":1053:1062   */\n      dup5\n        /* \"#utility.yul\":1044:1051   */\n      dup7\n        /* \"#utility.yul\":1040:1063   */\n      sub\n        /* \"#utility.yul\":1036:1068   */\n      slt\n        /* \"#utility.yul\":1033:1085   */\n      iszero\n      tag_315\n      jumpi\n        /* \"#utility.yul\":1081:1082   */\n      0x00\n        /* \"#utility.yul\":1078:1079   */\n      dup1\n        /* \"#utility.yul\":1071:1083   */\n      revert\n        /* \"#utility.yul\":1033:1085   */\n    tag_315:\n        /* \"#utility.yul\":1120:1129   */\n      dup4\n        /* \"#utility.yul\":1107:1130   */\n      calldataload\n        /* \"#utility.yul\":1139:1170   */\n      tag_316\n        /* \"#utility.yul\":1164:1169   */\n      dup2\n        /* \"#utility.yul\":1139:1170   */\n      tag_306\n      jump\t// in\n    tag_316:\n        /* \"#utility.yul\":1189:1194   */\n      swap3\n      pop\n        /* \"#utility.yul\":1246:1248   */\n      0x20\n        /* \"#utility.yul\":1231:1249   */\n      dup5\n      add\n        /* \"#utility.yul\":1218:1250   */\n      calldataload\n        /* \"#utility.yul\":1259:1292   */\n      tag_317\n        /* \"#utility.yul\":1218:1250   */\n      dup2\n        /* \"#utility.yul\":1259:1292   */\n      tag_306\n      jump\t// in\n    tag_317:\n        /* \"#utility.yul\":919:1375   */\n      swap3\n      swap6\n        /* \"#utility.yul\":1311:1318   */\n      swap3\n      swap5\n      pop\n      pop\n      pop\n        /* \"#utility.yul\":1365:1367   */\n      0x40\n        /* \"#utility.yul\":1350:1368   */\n      swap2\n      swap1\n      swap2\n      add\n        /* \"#utility.yul\":1337:1369   */\n      calldataload\n      swap1\n        /* \"#utility.yul\":919:1375   */\n      jump\t// out\n        /* \"#utility.yul\":1380:1695   */\n    tag_54:\n        /* \"#utility.yul\":1448:1454   */\n      0x00\n        /* \"#utility.yul\":1456:1462   */\n      dup1\n        /* \"#utility.yul\":1509:1511   */\n      0x40\n        /* \"#utility.yul\":1497:1506   */\n      dup4\n        /* \"#utility.yul\":1488:1495   */\n      dup6\n        /* \"#utility.yul\":1484:1507   */\n      sub\n        /* \"#utility.yul\":1480:1512   */\n      slt\n        /* \"#utility.yul\":1477:1529   */\n      iszero\n      tag_319\n      jumpi\n        /* \"#utility.yul\":1525:1526   */\n      0x00\n        /* \"#utility.yul\":1522:1523   */\n      dup1\n        /* \"#utility.yul\":1515:1527   */\n      revert\n        /* \"#utility.yul\":1477:1529   */\n    tag_319:\n        /* \"#utility.yul\":1564:1573   */\n      dup3\n        /* \"#utility.yul\":1551:1574   */\n      calldataload\n        /* \"#utility.yul\":1583:1614   */\n      tag_320\n        /* \"#utility.yul\":1608:1613   */\n      dup2\n        /* \"#utility.yul\":1583:1614   */\n      tag_306\n      jump\t// in\n    tag_320:\n        /* \"#utility.yul\":1633:1638   */\n      swap5\n        /* \"#utility.yul\":1685:1687   */\n      0x20\n        /* \"#utility.yul\":1670:1688   */\n      swap4\n      swap1\n      swap4\n      add\n        /* \"#utility.yul\":1657:1689   */\n      calldataload\n      swap4\n      pop\n      pop\n      pop\n        /* \"#utility.yul\":1380:1695   */\n      jump\t// out\n        /* \"#utility.yul\":1700:1977   */\n    tag_226:\n        /* \"#utility.yul\":1767:1773   */\n      0x00\n        /* \"#utility.yul\":1820:1822   */\n      0x20\n        /* \"#utility.yul\":1808:1817   */\n      dup3\n        /* \"#utility.yul\":1799:1806   */\n      dup5\n        /* \"#utility.yul\":1795:1818   */\n      sub\n        /* \"#utility.yul\":1791:1823   */\n      slt\n        /* \"#utility.yul\":1788:1840   */\n      iszero\n      tag_322\n      jumpi\n        /* \"#utility.yul\":1836:1837   */\n      0x00\n        /* \"#utility.yul\":1833:1834   */\n      dup1\n        /* \"#utility.yul\":1826:1838   */\n      revert\n        /* \"#utility.yul\":1788:1840   */\n    tag_322:\n        /* \"#utility.yul\":1868:1877   */\n      dup2\n        /* \"#utility.yul\":1862:1878   */\n      mload\n        /* \"#utility.yul\":1921:1926   */\n      dup1\n        /* \"#utility.yul\":1914:1927   */\n      iszero\n        /* \"#utility.yul\":1907:1928   */\n      iszero\n        /* \"#utility.yul\":1900:1905   */\n      dup2\n        /* \"#utility.yul\":1897:1929   */\n      eq\n        /* \"#utility.yul\":1887:1947   */\n      tag_305\n      jumpi\n        /* \"#utility.yul\":1943:1944   */\n      0x00\n        /* \"#utility.yul\":1940:1941   */\n      dup1\n        /* \"#utility.yul\":1933:1945   */\n      revert\n        /* \"#utility.yul\":1982:2162   */\n    tag_76:\n        /* \"#utility.yul\":2041:2047   */\n      0x00\n        /* \"#utility.yul\":2094:2096   */\n      0x20\n        /* \"#utility.yul\":2082:2091   */\n      dup3\n        /* \"#utility.yul\":2073:2080   */\n      dup5\n        /* \"#utility.yul\":2069:2092   */\n      sub\n        /* \"#utility.yul\":2065:2097   */\n      slt\n        /* \"#utility.yul\":2062:2114   */\n      iszero\n      tag_325\n      jumpi\n        /* \"#utility.yul\":2110:2111   */\n      0x00\n        /* \"#utility.yul\":2107:2108   */\n      dup1\n        /* \"#utility.yul\":2100:2112   */\n      revert\n        /* \"#utility.yul\":2062:2114   */\n    tag_325:\n      pop\n        /* \"#utility.yul\":2133:2156   */\n      calldataload\n      swap2\n        /* \"#utility.yul\":1982:2162   */\n      swap1\n      pop\n      jump\t// out\n        /* \"#utility.yul\":2167:2351   */\n    tag_215:\n        /* \"#utility.yul\":2237:2243   */\n      0x00\n        /* \"#utility.yul\":2290:2292   */\n      0x20\n        /* \"#utility.yul\":2278:2287   */\n      dup3\n        /* \"#utility.yul\":2269:2276   */\n      dup5\n        /* \"#utility.yul\":2265:2288   */\n      sub\n        /* \"#utility.yul\":2261:2293   */\n      slt\n        /* \"#utility.yul\":2258:2310   */\n      iszero\n      tag_327\n      jumpi\n        /* \"#utility.yul\":2306:2307   */\n      0x00\n        /* \"#utility.yul\":2303:2304   */\n      dup1\n        /* \"#utility.yul\":2296:2308   */\n      revert\n        /* \"#utility.yul\":2258:2310   */\n    tag_327:\n      pop\n        /* \"#utility.yul\":2329:2345   */\n      mload\n      swap2\n        /* \"#utility.yul\":2167:2351   */\n      swap1\n      pop\n      jump\t// out\n        /* \"#utility.yul\":3838:4175   */\n    tag_87:\n        /* \"#utility.yul\":3979:3981   */\n      0x20\n        /* \"#utility.yul\":3964:3982   */\n      dup2\n      add\n        /* \"#utility.yul\":4012:4013   */\n      0x04\n        /* \"#utility.yul\":4001:4014   */\n      dup4\n      lt\n        /* \"#utility.yul\":3991:4135   */\n      tag_335\n      jumpi\n        /* \"#utility.yul\":4057:4067   */\n      0x4e487b71\n        /* \"#utility.yul\":4052:4055   */\n      0xe0\n        /* \"#utility.yul\":4048:4068   */\n      shl\n        /* \"#utility.yul\":4045:4046   */\n      0x00\n        /* \"#utility.yul\":4038:4069   */\n      mstore\n        /* \"#utility.yul\":4092:4096   */\n      0x21\n        /* \"#utility.yul\":4089:4090   */\n      0x04\n        /* \"#utility.yul\":4082:4097   */\n      mstore\n        /* \"#utility.yul\":4120:4124   */\n      0x24\n        /* \"#utility.yul\":4117:4118   */\n      0x00\n        /* \"#utility.yul\":4110:4125   */\n      revert\n        /* \"#utility.yul\":3991:4135   */\n    tag_335:\n        /* \"#utility.yul\":4144:4169   */\n      swap2\n      swap1\n      mstore\n        /* \"#utility.yul\":3838:4175   */\n      swap1\n      jump\t// out\n        /* \"#utility.yul\":4180:4777   */\n    tag_50:\n        /* \"#utility.yul\":4292:4296   */\n      0x00\n        /* \"#utility.yul\":4321:4323   */\n      0x20\n        /* \"#utility.yul\":4350:4352   */\n      dup1\n        /* \"#utility.yul\":4339:4348   */\n      dup4\n        /* \"#utility.yul\":4332:4353   */\n      mstore\n        /* \"#utility.yul\":4382:4388   */\n      dup4\n        /* \"#utility.yul\":4376:4389   */\n      mload\n        /* \"#utility.yul\":4425:4431   */\n      dup1\n        /* \"#utility.yul\":4420:4422   */\n      dup3\n        /* \"#utility.yul\":4409:4418   */\n      dup6\n        /* \"#utility.yul\":4405:4423   */\n      add\n        /* \"#utility.yul\":4398:4432   */\n      mstore\n        /* \"#utility.yul\":4450:4451   */\n      0x00\n        /* \"#utility.yul\":4460:4600   */\n    tag_337:\n        /* \"#utility.yul\":4474:4480   */\n      dup2\n        /* \"#utility.yul\":4471:4472   */\n      dup2\n        /* \"#utility.yul\":4468:4481   */\n      lt\n        /* \"#utility.yul\":4460:4600   */\n      iszero\n      tag_339\n      jumpi\n        /* \"#utility.yul\":4569:4583   */\n      dup6\n      dup2\n      add\n        /* \"#utility.yul\":4565:4588   */\n      dup4\n      add\n        /* \"#utility.yul\":4559:4589   */\n      mload\n        /* \"#utility.yul\":4535:4552   */\n      dup6\n      dup3\n      add\n        /* \"#utility.yul\":4554:4556   */\n      0x40\n        /* \"#utility.yul\":4531:4557   */\n      add\n        /* \"#utility.yul\":4524:4590   */\n      mstore\n        /* \"#utility.yul\":4489:4499   */\n      dup3\n      add\n        /* \"#utility.yul\":4460:4600   */\n      jump(tag_337)\n    tag_339:\n        /* \"#utility.yul\":4618:4624   */\n      dup2\n        /* \"#utility.yul\":4615:4616   */\n      dup2\n        /* \"#utility.yul\":4612:4625   */\n      gt\n        /* \"#utility.yul\":4609:4700   */\n      iszero\n      tag_340\n      jumpi\n        /* \"#utility.yul\":4688:4689   */\n      0x00\n        /* \"#utility.yul\":4683:4685   */\n      0x40\n        /* \"#utility.yul\":4674:4680   */\n      dup4\n        /* \"#utility.yul\":4663:4672   */\n      dup8\n        /* \"#utility.yul\":4659:4681   */\n      add\n        /* \"#utility.yul\":4655:4686   */\n      add\n        /* \"#utility.yul\":4648:4690   */\n      mstore\n        /* \"#utility.yul\":4609:4700   */\n    tag_340:\n      pop\n        /* \"#utility.yul\":4761:4763   */\n      0x1f\n        /* \"#utility.yul\":4740:4755   */\n      add\n      not(0x1f)\n        /* \"#utility.yul\":4736:4765   */\n      and\n        /* \"#utility.yul\":4721:4766   */\n      swap3\n      swap1\n      swap3\n      add\n        /* \"#utility.yul\":4768:4770   */\n      0x40\n        /* \"#utility.yul\":4717:4771   */\n      add\n      swap4\n        /* \"#utility.yul\":4180:4777   */\n      swap3\n      pop\n      pop\n      pop\n      jump\t// out\n        /* \"#utility.yul\":6382:6510   */\n    tag_233:\n        /* \"#utility.yul\":6422:6425   */\n      0x00\n        /* \"#utility.yul\":6453:6454   */\n      dup3\n        /* \"#utility.yul\":6449:6455   */\n      not\n        /* \"#utility.yul\":6446:6447   */\n      dup3\n        /* \"#utility.yul\":6443:6456   */\n      gt\n        /* \"#utility.yul\":6440:6479   */\n      iszero\n      tag_348\n      jumpi\n        /* \"#utility.yul\":6459:6477   */\n      tag_348\n      tag_349\n      jump\t// in\n    tag_348:\n      pop\n        /* \"#utility.yul\":6495:6504   */\n      add\n      swap1\n        /* \"#utility.yul\":6382:6510   */\n      jump\t// out\n        /* \"#utility.yul\":6515:6732   */\n    tag_295:\n        /* \"#utility.yul\":6555:6556   */\n      0x00\n        /* \"#utility.yul\":6581:6582   */\n      dup3\n        /* \"#utility.yul\":6571:6703   */\n      tag_351\n      jumpi\n        /* \"#utility.yul\":6625:6635   */\n      0x4e487b71\n        /* \"#utility.yul\":6620:6623   */\n      0xe0\n        /* \"#utility.yul\":6616:6636   */\n      shl\n        /* \"#utility.yul\":6613:6614   */\n      0x00\n        /* \"#utility.yul\":6606:6637   */\n      mstore\n        /* \"#utility.yul\":6660:6664   */\n      0x12\n        /* \"#utility.yul\":6657:6658   */\n      0x04\n        /* \"#utility.yul\":6650:6665   */\n      mstore\n        /* \"#utility.yul\":6688:6692   */\n      0x24\n        /* \"#utility.yul\":6685:6686   */\n      0x00\n        /* \"#utility.yul\":6678:6693   */\n      revert\n        /* \"#utility.yul\":6571:6703   */\n    tag_351:\n      pop\n        /* \"#utility.yul\":6717:6726   */\n      div\n      swap1\n        /* \"#utility.yul\":6515:6732   */\n      jump\t// out\n        /* \"#utility.yul\":6737:6905   */\n    tag_209:\n        /* \"#utility.yul\":6777:6784   */\n      0x00\n        /* \"#utility.yul\":6843:6844   */\n      dup2\n        /* \"#utility.yul\":6839:6840   */\n      0x00\n        /* \"#utility.yul\":6835:6841   */\n      not\n        /* \"#utility.yul\":6831:6845   */\n      div\n        /* \"#utility.yul\":6828:6829   */\n      dup4\n        /* \"#utility.yul\":6825:6846   */\n      gt\n        /* \"#utility.yul\":6820:6821   */\n      dup3\n        /* \"#utility.yul\":6813:6822   */\n      iszero\n        /* \"#utility.yul\":6806:6823   */\n      iszero\n        /* \"#utility.yul\":6802:6847   */\n      and\n        /* \"#utility.yul\":6799:6870   */\n      iszero\n      tag_354\n      jumpi\n        /* \"#utility.yul\":6850:6868   */\n      tag_354\n      tag_349\n      jump\t// in\n    tag_354:\n      pop\n        /* \"#utility.yul\":6890:6899   */\n      mul\n      swap1\n        /* \"#utility.yul\":6737:6905   */\n      jump\t// out\n        /* \"#utility.yul\":6910:7035   */\n    tag_236:\n        /* \"#utility.yul\":6950:6954   */\n      0x00\n        /* \"#utility.yul\":6978:6979   */\n      dup3\n        /* \"#utility.yul\":6975:6976   */\n      dup3\n        /* \"#utility.yul\":6972:6980   */\n      lt\n        /* \"#utility.yul\":6969:7003   */\n      iszero\n      tag_357\n      jumpi\n        /* \"#utility.yul\":6983:7001   */\n      tag_357\n      tag_349\n      jump\t// in\n    tag_357:\n      pop\n        /* \"#utility.yul\":7020:7029   */\n      sub\n      swap1\n        /* \"#utility.yul\":6910:7035   */\n      jump\t// out\n        /* \"#utility.yul\":7040:7420   */\n    tag_179:\n        /* \"#utility.yul\":7119:7120   */\n      0x01\n        /* \"#utility.yul\":7115:7127   */\n      dup2\n      dup2\n      shr\n      swap1\n        /* \"#utility.yul\":7162:7174   */\n      dup3\n      and\n      dup1\n        /* \"#utility.yul\":7183:7244   */\n      tag_359\n      jumpi\n        /* \"#utility.yul\":7237:7241   */\n      0x7f\n        /* \"#utility.yul\":7229:7235   */\n      dup3\n        /* \"#utility.yul\":7225:7242   */\n      and\n        /* \"#utility.yul\":7215:7242   */\n      swap2\n      pop\n        /* \"#utility.yul\":7183:7244   */\n    tag_359:\n        /* \"#utility.yul\":7290:7292   */\n      0x20\n        /* \"#utility.yul\":7282:7288   */\n      dup3\n        /* \"#utility.yul\":7279:7293   */\n      lt\n        /* \"#utility.yul\":7259:7277   */\n      dup2\n        /* \"#utility.yul\":7256:7294   */\n      eq\n        /* \"#utility.yul\":7253:7414   */\n      iszero\n      tag_360\n      jumpi\n        /* \"#utility.yul\":7336:7346   */\n      0x4e487b71\n        /* \"#utility.yul\":7331:7334   */\n      0xe0\n        /* \"#utility.yul\":7327:7347   */\n      shl\n        /* \"#utility.yul\":7324:7325   */\n      0x00\n        /* \"#utility.yul\":7317:7348   */\n      mstore\n        /* \"#utility.yul\":7371:7375   */\n      0x22\n        /* \"#utility.yul\":7368:7369   */\n      0x04\n        /* \"#utility.yul\":7361:7376   */\n      mstore\n        /* \"#utility.yul\":7399:7403   */\n      0x24\n        /* \"#utility.yul\":7396:7397   */\n      0x00\n        /* \"#utility.yul\":7389:7404   */\n      revert\n        /* \"#utility.yul\":7253:7414   */\n    tag_360:\n      pop\n        /* \"#utility.yul\":7040:7420   */\n      swap2\n      swap1\n      pop\n      jump\t// out\n        /* \"#utility.yul\":7425:7552   */\n    tag_349:\n        /* \"#utility.yul\":7486:7496   */\n      0x4e487b71\n        /* \"#utility.yul\":7481:7484   */\n      0xe0\n        /* \"#utility.yul\":7477:7497   */\n      shl\n        /* \"#utility.yul\":7474:7475   */\n      0x00\n        /* \"#utility.yul\":7467:7498   */\n      mstore\n        /* \"#utility.yul\":7517:7521   */\n      0x11\n        /* \"#utility.yul\":7514:7515   */\n      0x04\n        /* \"#utility.yul\":7507:7522   */\n      mstore\n        /* \"#utility.yul\":7541:7545   */\n      0x24\n        /* \"#utility.yul\":7538:7539   */\n      0x00\n        /* \"#utility.yul\":7531:7546   */\n      revert\n        /* \"#utility.yul\":7557:7684   */\n    tag_177:\n        /* \"#utility.yul\":7618:7628   */\n      0x4e487b71\n        /* \"#utility.yul\":7613:7616   */\n      0xe0\n        /* \"#utility.yul\":7609:7629   */\n      shl\n        /* \"#utility.yul\":7606:7607   */\n      0x00\n        /* \"#utility.yul\":7599:7630   */\n      mstore\n        /* \"#utility.yul\":7649:7653   */\n      0x21\n        /* \"#utility.yul\":7646:7647   */\n      0x04\n        /* \"#utility.yul\":7639:7654   */\n      mstore\n        /* \"#utility.yul\":7673:7677   */\n      0x24\n        /* \"#utility.yul\":7670:7671   */\n      0x00\n        /* \"#utility.yul\":7663:7678   */\n      revert\n        /* \"#utility.yul\":7689:7820   */\n    tag_306:\n      sub(shl(0xa0, 0x01), 0x01)\n        /* \"#utility.yul\":7764:7795   */\n      dup2\n      and\n        /* \"#utility.yul\":7754:7796   */\n      dup2\n      eq\n        /* \"#utility.yul\":7744:7814   */\n      tag_267\n      jumpi\n        /* \"#utility.yul\":7810:7811   */\n      0x00\n        /* \"#utility.yul\":7807:7808   */\n      dup1\n        /* \"#utility.yul\":7800:7812   */\n      revert\n\n    auxdata: 0xa26469706673582212206f52137096d44325e735d1ce8140483b7e99ebbafe46341f8a701944fb29527a64736f6c63430008070033\n}\n",
				"bytecode": {
					"linkReferences": {},
					"object": "60c0604052600e60808190526d13985d1a5bdb9cc810dbdb58985d60921b60a09081526200003191600091906200015c565b50604080518082019091526003808252621390d560ea1b60209092019182526200005e916001916200015c565b50601260025566038d7ea4c68000600955600a805542600c554262093a8062000088919062000241565b600d8190556200009c9062093a8062000241565b600f55674563918244f4000060105566038d7ea4c68000601155348015620000c357600080fd5b506040516200140e3803806200140e833981016040819052620000e69162000202565b6a295be96e64066972000000600381905560048054336001600160a01b031991821681179092556000828152600560205260409020929092556008805483166001600160a01b0395861617905560078054831690911790556012805460ff19169055600e805490911691909216179055620002be565b8280546200016a9062000268565b90600052602060002090601f0160209004810192826200018e5760008555620001d9565b82601f10620001a957805160ff1916838001178555620001d9565b82800160010185558215620001d9579182015b82811115620001d9578251825591602001919060010190620001bc565b50620001e7929150620001eb565b5090565b5b80821115620001e75760008155600101620001ec565b600080604083850312156200021657600080fd5b82516200022381620002a5565b60208401519092506200023681620002a5565b809150509250929050565b600082198211156200026357634e487b7160e01b600052601160045260246000fd5b500190565b600181811c908216806200027d57607f821691505b602082108114156200029f57634e487b7160e01b600052602260045260246000fd5b50919050565b6001600160a01b0381168114620002bb57600080fd5b50565b61114080620002ce6000396000f3fe6080604052600436106101c15760003560e01c80636d58c88f116100f7578063ab0bcc4111610095578063d0e30db011610064578063d0e30db0146104bc578063dd62ed3e146104dc578063e757223014610522578063f851a4401461054257600080fd5b8063ab0bcc4114610464578063c10b93581461047a578063c59ee1dc14610490578063cc9ba583146104a657600080fd5b80638ac2c680116100d15780638ac2c680146103f957806391b7f5ed1461040f57806395d89b411461042f578063a9059cbb1461044457600080fd5b80636d58c88f1461038d5780636e463658146103ad57806370a08231146103c357600080fd5b80632afcf48011610164578063380d831b1161013e578063380d831b1461030657806344f387561461031b5780634d853ee51461033557806355a373d61461036d57600080fd5b80632afcf480146102bb578063313ce567146102ce578063378aa701146102e457600080fd5b8063095ea7b3116101a0578063095ea7b31461022857806318160ddd1461025857806323b872dd1461026e57806327e235e31461028e57600080fd5b80622e1316146101c6578063046f7da2146101ef57806306fdde0314610206575b600080fd5b3480156101d257600080fd5b506101dc60105481565b6040519081526020015b60405180910390f35b3480156101fb57600080fd5b50610204610562565b005b34801561021257600080fd5b5061021b610588565b6040516101e69190610fc9565b34801561023457600080fd5b50610248610243366004610f21565b610616565b60405190151581526020016101e6565b34801561026457600080fd5b506101dc60035481565b34801561027a57600080fd5b50610248610289366004610ee0565b6106a5565b34801561029a57600080fd5b506101dc6102a9366004610e83565b60056020526000908152604090205481565b6102486102c9366004610f6f565b6106cb565b3480156102da57600080fd5b506101dc60025481565b3480156102f057600080fd5b506102f9610a7d565b6040516101e69190610fa1565b34801561031257600080fd5b50610204610ad9565b34801561032757600080fd5b506012546102f99060ff1681565b34801561034157600080fd5b50600454610355906001600160a01b031681565b6040516001600160a01b0390911681526020016101e6565b34801561037957600080fd5b50600e54610355906001600160a01b031681565b34801561039957600080fd5b506102046103a8366004610e83565b610c3b565b3480156103b957600080fd5b506101dc600a5481565b3480156103cf57600080fd5b506101dc6103de366004610e83565b6001600160a01b031660009081526005602052604090205490565b34801561040557600080fd5b506101dc60115481565b34801561041b57600080fd5b5061020461042a366004610f6f565b600955565b34801561043b57600080fd5b5061021b610c74565b34801561045057600080fd5b5061024861045f366004610f21565b610c81565b34801561047057600080fd5b506101dc600c5481565b34801561048657600080fd5b506101dc600d5481565b34801561049c57600080fd5b506101dc600b5481565b3480156104b257600080fd5b506101dc600f5481565b3480156104c857600080fd5b50600854610355906001600160a01b031681565b3480156104e857600080fd5b506101dc6104f7366004610ea7565b6001600160a01b03918216600090815260066020908152604080832093909416825291909152205490565b34801561052e57600080fd5b506101dc61053d366004610f6f565b610ca5565b34801561054e57600080fd5b50600754610355906001600160a01b031681565b6007546001600160a01b0316331461057957600080fd5b6012805460ff19166001179055565b600080546105959061108e565b80601f01602080910402602001604051908101604052809291908181526020018280546105c19061108e565b801561060e5780601f106105e35761010080835404028352916020019161060e565b820191906000526020600020905b8154815290600101906020018083116105f157829003601f168201915b505050505081565b3360009081526005602052604081205482111561063257600080fd5b6000821161063f57600080fd5b3360008181526006602090815260408083206001600160a01b03881680855290835292819020869055518581529192917f8c5be1e5ebec7d5bd14f71427d1e84f3dd0314c0f7b2291e5b200ac8c7c3b92591015b60405180910390a35060015b92915050565b6000600f5442116106b557600080fd5b6106c0848484610cb3565b506001949350505050565b60006106d5610a7d565b6012805460ff191660018360038111156106f1576106f16110df565b0217905550600160125460ff16600381111561070f5761070f6110df565b146107585760405162461bcd60e51b81526020600482015260146024820152735374617465206973206e6f742072756e6e696e6760601b60448201526064015b60405180910390fd5b61076482600954610dac565b34146107ab5760405162461bcd60e51b81526020600482015260166024820152750cae8d040e6cadce840d2e640dcdee840cadcdeeaced60531b604482015260640161074f565b6107bd82670de0b6b3a7640000611058565b600e546040516370a0823160e01b81523060048201526001600160a01b03909116906370a082319060240160206040518083038186803b15801561080057600080fd5b505afa158015610814573d6000803e3d6000fd5b505050506040513d601f19601f820116820180604052508101906108389190610f88565b10156108865760405162461bcd60e51b815260206004820152601e60248201527f4e6f206d6f726520746f6b656e20696e2074686520636f6e7472616374210000604482015260640161074f565b600e546001600160a01b031663a9059cbb336108aa85670de0b6b3a7640000611058565b6040516001600160e01b031960e085901b1681526001600160a01b0390921660048301526024820152604401602060405180830381600087803b1580156108f057600080fd5b505af1158015610904573d6000803e3d6000fd5b505050506040513d601f19601f820116820180604052508101906109289190610f4d565b61093157600080fd5b601154341015801561094557506010543411155b6109915760405162461bcd60e51b815260206004820152601e60248201527f4d6178206f72204d696e20696e766573746d656e742045786365656465640000604482015260640161074f565b34600b60008282546109a3919061101e565b909155505033600090815260056020526040812080548492906109c790849061101e565b90915550506004546001600160a01b0316600090815260056020526040812080548492906109f6908490611077565b90915550506008546040516001600160a01b03909116903480156108fc02916000818181858888f19350505050158015610a34573d6000803e3d6000fd5b50604080513381523460208201529081018390527f4ae4bd7655e0d350876a23cd90c4227b13db560e34435c6a488150a9c844bf5f9060600160405180910390a1506001919050565b6000600360125460ff166003811115610a9857610a986110df565b1415610aa45750600390565b600c54421015610ab45750600090565b600c544210158015610ac85750600d544211155b15610ad35750600190565b50600290565b6007546001600160a01b03163314610af057600080fd5b600e546007546040516370a0823160e01b81523060048201526001600160a01b039283169263a9059cbb92169083906370a082319060240160206040518083038186803b158015610b4057600080fd5b505afa158015610b54573d6000803e3d6000fd5b505050506040513d601f19601f82011682018060405250810190610b789190610f88565b6040516001600160e01b031960e085901b1681526001600160a01b0390921660048301526024820152604401602060405180830381600087803b158015610bbe57600080fd5b505af1158015610bd2573d6000803e3d6000fd5b505050506040513d601f19601f82011682018060405250810190610bf69190610f4d565b610bff57600080fd5b6007546040516001600160a01b03909116904780156108fc02916000818181858888f19350505050158015610c38573d6000803e3d6000fd5b50565b6007546001600160a01b03163314610c5257600080fd5b600880546001600160a01b0319166001600160a01b0392909216919091179055565b600180546105959061108e565b6000600f544211610c9157600080fd5b610c9b8383610dd9565b5060019392505050565b600061069f82600954610dac565b6001600160a01b038084166000908152600660209081526040808320938616835292905290812054821115610ce757600080fd5b6001600160a01b038416600090815260056020526040902054821115610d0c57600080fd5b6001600160a01b03841660009081526005602052604081208054849290610d34908490611077565b90915550506001600160a01b03831660009081526005602052604081208054849290610d6190849061101e565b90915550506001600160a01b03808516600090815260066020908152604080832093871683529290529081208054849290610d9d908490611077565b90915550600195945050505050565b6000811580610dd057508282610dc28183611058565b9250610dce9083611036565b145b61069f57600080fd5b33600090815260056020526040812054821115610df557600080fd5b6001600160a01b03831660009081526005602052604081208054849290610e1d90849061101e565b90915550503360009081526005602052604081208054849290610e41908490611077565b90915550506040518281526001600160a01b0384169033907fddf252ad1be2c89b69c2b068fc378daa952ba7f163c4a11628f55a4df523b3ef90602001610693565b600060208284031215610e9557600080fd5b8135610ea0816110f5565b9392505050565b60008060408385031215610eba57600080fd5b8235610ec5816110f5565b91506020830135610ed5816110f5565b809150509250929050565b600080600060608486031215610ef557600080fd5b8335610f00816110f5565b92506020840135610f10816110f5565b929592945050506040919091013590565b60008060408385031215610f3457600080fd5b8235610f3f816110f5565b946020939093013593505050565b600060208284031215610f5f57600080fd5b81518015158114610ea057600080fd5b600060208284031215610f8157600080fd5b5035919050565b600060208284031215610f9a57600080fd5b5051919050565b6020810160048310610fc357634e487b7160e01b600052602160045260246000fd5b91905290565b600060208083528351808285015260005b81811015610ff657858101830151858201604001528201610fda565b81811115611008576000604083870101525b50601f01601f1916929092016040019392505050565b60008219821115611031576110316110c9565b500190565b60008261105357634e487b7160e01b600052601260045260246000fd5b500490565b6000816000190483118215151615611072576110726110c9565b500290565b600082821015611089576110896110c9565b500390565b600181811c908216806110a257607f821691505b602082108114156110c357634e487b7160e01b600052602260045260246000fd5b50919050565b634e487b7160e01b600052601160045260246000fd5b634e487b7160e01b600052602160045260246000fd5b6001600160a01b0381168114610c3857600080fdfea26469706673582212206f52137096d44325e735d1ce8140483b7e99ebbafe46341f8a701944fb29527a64736f6c63430008070033",
					"opcodes": "PUSH1 0xC0 PUSH1 0x40 MSTORE PUSH1 0xE PUSH1 0x80 DUP2 SWAP1 MSTORE PUSH14 0x13985D1A5BDB9CC810DBDB58985D PUSH1 0x92 SHL PUSH1 0xA0 SWAP1 DUP2 MSTORE PUSH3 0x31 SWAP2 PUSH1 0x0 SWAP2 SWAP1 PUSH3 0x15C JUMP JUMPDEST POP PUSH1 0x40 DUP1 MLOAD DUP1 DUP3 ADD SWAP1 SWAP2 MSTORE PUSH1 0x3 DUP1 DUP3 MSTORE PUSH3 0x1390D5 PUSH1 0xEA SHL PUSH1 0x20 SWAP1 SWAP3 ADD SWAP2 DUP3 MSTORE PUSH3 0x5E SWAP2 PUSH1 0x1 SWAP2 PUSH3 0x15C JUMP JUMPDEST POP PUSH1 0x12 PUSH1 0x2 SSTORE PUSH7 0x38D7EA4C68000 PUSH1 0x9 SSTORE PUSH1 0xA DUP1 SSTORE TIMESTAMP PUSH1 0xC SSTORE TIMESTAMP PUSH3 0x93A80 PUSH3 0x88 SWAP2 SWAP1 PUSH3 0x241 JUMP JUMPDEST PUSH1 0xD DUP2 SWAP1 SSTORE PUSH3 0x9C SWAP1 PUSH3 0x93A80 PUSH3 0x241 JUMP JUMPDEST PUSH1 0xF SSTORE PUSH8 0x4563918244F40000 PUSH1 0x10 SSTORE PUSH7 0x38D7EA4C68000 PUSH1 0x11 SSTORE CALLVALUE DUP1 ISZERO PUSH3 0xC3 JUMPI PUSH1 0x0 DUP1 REVERT JUMPDEST POP PUSH1 0x40 MLOAD PUSH3 0x140E CODESIZE SUB DUP1 PUSH3 0x140E DUP4 CODECOPY DUP2 ADD PUSH1 0x40 DUP2 SWAP1 MSTORE PUSH3 0xE6 SWAP2 PUSH3 0x202 JUMP JUMPDEST PUSH11 0x295BE96E64066972000000 PUSH1 0x3 DUP2 SWAP1 SSTORE PUSH1 0x4 DUP1 SLOAD CALLER PUSH1 0x1 PUSH1 0x1 PUSH1 0xA0 SHL SUB NOT SWAP2 DUP3 AND DUP2 OR SWAP1 SWAP3 SSTORE PUSH1 0x0 DUP3 DUP2 MSTORE PUSH1 0x5 PUSH1 0x20 MSTORE PUSH1 0x40 SWAP1 KECCAK256 SWAP3 SWAP1 SWAP3 SSTORE PUSH1 0x8 DUP1 SLOAD DUP4 AND PUSH1 0x1 PUSH1 0x1 PUSH1 0xA0 SHL SUB SWAP6 DUP7 AND OR SWAP1 SSTORE PUSH1 0x7 DUP1 SLOAD DUP4 AND SWAP1 SWAP2 OR SWAP1 SSTORE PUSH1 0x12 DUP1 SLOAD PUSH1 0xFF NOT AND SWAP1 SSTORE PUSH1 0xE DUP1 SLOAD SWAP1 SWAP2 AND SWAP2 SWAP1 SWAP3 AND OR SWAP1 SSTORE PUSH3 0x2BE JUMP JUMPDEST DUP3 DUP1 SLOAD PUSH3 0x16A SWAP1 PUSH3 0x268 JUMP JUMPDEST SWAP1 PUSH1 0x0 MSTORE PUSH1 0x20 PUSH1 0x0 KECCAK256 SWAP1 PUSH1 0x1F ADD PUSH1 0x20 SWAP1 DIV DUP2 ADD SWAP3 DUP3 PUSH3 0x18E JUMPI PUSH1 0x0 DUP6 SSTORE PUSH3 0x1D9 JUMP JUMPDEST DUP3 PUSH1 0x1F LT PUSH3 0x1A9 JUMPI DUP1 MLOAD PUSH1 0xFF NOT AND DUP4 DUP1 ADD OR DUP6 SSTORE PUSH3 0x1D9 JUMP JUMPDEST DUP3 DUP1 ADD PUSH1 0x1 ADD DUP6 SSTORE DUP3 ISZERO PUSH3 0x1D9 JUMPI SWAP2 DUP3 ADD JUMPDEST DUP3 DUP2 GT ISZERO PUSH3 0x1D9 JUMPI DUP3 MLOAD DUP3 SSTORE SWAP2 PUSH1 0x20 ADD SWAP2 SWAP1 PUSH1 0x1 ADD SWAP1 PUSH3 0x1BC JUMP JUMPDEST POP PUSH3 0x1E7 SWAP3 SWAP2 POP PUSH3 0x1EB JUMP JUMPDEST POP SWAP1 JUMP JUMPDEST JUMPDEST DUP1 DUP3 GT ISZERO PUSH3 0x1E7 JUMPI PUSH1 0x0 DUP2 SSTORE PUSH1 0x1 ADD PUSH3 0x1EC JUMP JUMPDEST PUSH1 0x0 DUP1 PUSH1 0x40 DUP4 DUP6 SUB SLT ISZERO PUSH3 0x216 JUMPI PUSH1 0x0 DUP1 REVERT JUMPDEST DUP3 MLOAD PUSH3 0x223 DUP2 PUSH3 0x2A5 JUMP JUMPDEST PUSH1 0x20 DUP5 ADD MLOAD SWAP1 SWAP3 POP PUSH3 0x236 DUP2 PUSH3 0x2A5 JUMP JUMPDEST DUP1 SWAP2 POP POP SWAP3 POP SWAP3 SWAP1 POP JUMP JUMPDEST PUSH1 0x0 DUP3 NOT DUP3 GT ISZERO PUSH3 0x263 JUMPI PUSH4 0x4E487B71 PUSH1 0xE0 SHL PUSH1 0x0 MSTORE PUSH1 0x11 PUSH1 0x4 MSTORE PUSH1 0x24 PUSH1 0x0 REVERT JUMPDEST POP ADD SWAP1 JUMP JUMPDEST PUSH1 0x1 DUP2 DUP2 SHR SWAP1 DUP3 AND DUP1 PUSH3 0x27D JUMPI PUSH1 0x7F DUP3 AND SWAP2 POP JUMPDEST PUSH1 0x20 DUP3 LT DUP2 EQ ISZERO PUSH3 0x29F JUMPI PUSH4 0x4E487B71 PUSH1 0xE0 SHL PUSH1 0x0 MSTORE PUSH1 0x22 PUSH1 0x4 MSTORE PUSH1 0x24 PUSH1 0x0 REVERT JUMPDEST POP SWAP2 SWAP1 POP JUMP JUMPDEST PUSH1 0x1 PUSH1 0x1 PUSH1 0xA0 SHL SUB DUP2 AND DUP2 EQ PUSH3 0x2BB JUMPI PUSH1 0x0 DUP1 REVERT JUMPDEST POP JUMP JUMPDEST PUSH2 0x1140 DUP1 PUSH3 0x2CE PUSH1 0x0 CODECOPY PUSH1 0x0 RETURN INVALID PUSH1 0x80 PUSH1 0x40 MSTORE PUSH1 0x4 CALLDATASIZE LT PUSH2 0x1C1 JUMPI PUSH1 0x0 CALLDATALOAD PUSH1 0xE0 SHR DUP1 PUSH4 0x6D58C88F GT PUSH2 0xF7 JUMPI DUP1 PUSH4 0xAB0BCC41 GT PUSH2 0x95 JUMPI DUP1 PUSH4 0xD0E30DB0 GT PUSH2 0x64 JUMPI DUP1 PUSH4 0xD0E30DB0 EQ PUSH2 0x4BC JUMPI DUP1 PUSH4 0xDD62ED3E EQ PUSH2 0x4DC JUMPI DUP1 PUSH4 0xE7572230 EQ PUSH2 0x522 JUMPI DUP1 PUSH4 0xF851A440 EQ PUSH2 0x542 JUMPI PUSH1 0x0 DUP1 REVERT JUMPDEST DUP1 PUSH4 0xAB0BCC41 EQ PUSH2 0x464 JUMPI DUP1 PUSH4 0xC10B9358 EQ PUSH2 0x47A JUMPI DUP1 PUSH4 0xC59EE1DC EQ PUSH2 0x490 JUMPI DUP1 PUSH4 0xCC9BA583 EQ PUSH2 0x4A6 JUMPI PUSH1 0x0 DUP1 REVERT JUMPDEST DUP1 PUSH4 0x8AC2C680 GT PUSH2 0xD1 JUMPI DUP1 PUSH4 0x8AC2C680 EQ PUSH2 0x3F9 JUMPI DUP1 PUSH4 0x91B7F5ED EQ PUSH2 0x40F JUMPI DUP1 PUSH4 0x95D89B41 EQ PUSH2 0x42F JUMPI DUP1 PUSH4 0xA9059CBB EQ PUSH2 0x444 JUMPI PUSH1 0x0 DUP1 REVERT JUMPDEST DUP1 PUSH4 0x6D58C88F EQ PUSH2 0x38D JUMPI DUP1 PUSH4 0x6E463658 EQ PUSH2 0x3AD JUMPI DUP1 PUSH4 0x70A08231 EQ PUSH2 0x3C3 JUMPI PUSH1 0x0 DUP1 REVERT JUMPDEST DUP1 PUSH4 0x2AFCF480 GT PUSH2 0x164 JUMPI DUP1 PUSH4 0x380D831B GT PUSH2 0x13E JUMPI DUP1 PUSH4 0x380D831B EQ PUSH2 0x306 JUMPI DUP1 PUSH4 0x44F38756 EQ PUSH2 0x31B JUMPI DUP1 PUSH4 0x4D853EE5 EQ PUSH2 0x335 JUMPI DUP1 PUSH4 0x55A373D6 EQ PUSH2 0x36D JUMPI PUSH1 0x0 DUP1 REVERT JUMPDEST DUP1 PUSH4 0x2AFCF480 EQ PUSH2 0x2BB JUMPI DUP1 PUSH4 0x313CE567 EQ PUSH2 0x2CE JUMPI DUP1 PUSH4 0x378AA701 EQ PUSH2 0x2E4 JUMPI PUSH1 0x0 DUP1 REVERT JUMPDEST DUP1 PUSH4 0x95EA7B3 GT PUSH2 0x1A0 JUMPI DUP1 PUSH4 0x95EA7B3 EQ PUSH2 0x228 JUMPI DUP1 PUSH4 0x18160DDD EQ PUSH2 0x258 JUMPI DUP1 PUSH4 0x23B872DD EQ PUSH2 0x26E JUMPI DUP1 PUSH4 0x27E235E3 EQ PUSH2 0x28E JUMPI PUSH1 0x0 DUP1 REVERT JUMPDEST DUP1 PUSH3 0x2E1316 EQ PUSH2 0x1C6 JUMPI DUP1 PUSH4 0x46F7DA2 EQ PUSH2 0x1EF JUMPI DUP1 PUSH4 0x6FDDE03 EQ PUSH2 0x206 JUMPI JUMPDEST PUSH1 0x0 DUP1 REVERT JUMPDEST CALLVALUE DUP1 ISZERO PUSH2 0x1D2 JUMPI PUSH1 0x0 DUP1 REVERT JUMPDEST POP PUSH2 0x1DC PUSH1 0x10 SLOAD DUP2 JUMP JUMPDEST PUSH1 0x40 MLOAD SWAP1 DUP2 MSTORE PUSH1 0x20 ADD JUMPDEST PUSH1 0x40 MLOAD DUP1 SWAP2 SUB SWAP1 RETURN JUMPDEST CALLVALUE DUP1 ISZERO PUSH2 0x1FB JUMPI PUSH1 0x0 DUP1 REVERT JUMPDEST POP PUSH2 0x204 PUSH2 0x562 JUMP JUMPDEST STOP JUMPDEST CALLVALUE DUP1 ISZERO PUSH2 0x212 JUMPI PUSH1 0x0 DUP1 REVERT JUMPDEST POP PUSH2 0x21B PUSH2 0x588 JUMP JUMPDEST PUSH1 0x40 MLOAD PUSH2 0x1E6 SWAP2 SWAP1 PUSH2 0xFC9 JUMP JUMPDEST CALLVALUE DUP1 ISZERO PUSH2 0x234 JUMPI PUSH1 0x0 DUP1 REVERT JUMPDEST POP PUSH2 0x248 PUSH2 0x243 CALLDATASIZE PUSH1 0x4 PUSH2 0xF21 JUMP JUMPDEST PUSH2 0x616 JUMP JUMPDEST PUSH1 0x40 MLOAD SWAP1 ISZERO ISZERO DUP2 MSTORE PUSH1 0x20 ADD PUSH2 0x1E6 JUMP JUMPDEST CALLVALUE DUP1 ISZERO PUSH2 0x264 JUMPI PUSH1 0x0 DUP1 REVERT JUMPDEST POP PUSH2 0x1DC PUSH1 0x3 SLOAD DUP2 JUMP JUMPDEST CALLVALUE DUP1 ISZERO PUSH2 0x27A JUMPI PUSH1 0x0 DUP1 REVERT JUMPDEST POP PUSH2 0x248 PUSH2 0x289 CALLDATASIZE PUSH1 0x4 PUSH2 0xEE0 JUMP JUMPDEST PUSH2 0x6A5 JUMP JUMPDEST CALLVALUE DUP1 ISZERO PUSH2 0x29A JUMPI PUSH1 0x0 DUP1 REVERT JUMPDEST POP PUSH2 0x1DC PUSH2 0x2A9 CALLDATASIZE PUSH1 0x4 PUSH2 0xE83 JUMP JUMPDEST PUSH1 0x5 PUSH1 0x20 MSTORE PUSH1 0x0 SWAP1 DUP2 MSTORE PUSH1 0x40 SWAP1 KECCAK256 SLOAD DUP2 JUMP JUMPDEST PUSH2 0x248 PUSH2 0x2C9 CALLDATASIZE PUSH1 0x4 PUSH2 0xF6F JUMP JUMPDEST PUSH2 0x6CB JUMP JUMPDEST CALLVALUE DUP1 ISZERO PUSH2 0x2DA JUMPI PUSH1 0x0 DUP1 REVERT JUMPDEST POP PUSH2 0x1DC PUSH1 0x2 SLOAD DUP2 JUMP JUMPDEST CALLVALUE DUP1 ISZERO PUSH2 0x2F0 JUMPI PUSH1 0x0 DUP1 REVERT JUMPDEST POP PUSH2 0x2F9 PUSH2 0xA7D JUMP JUMPDEST PUSH1 0x40 MLOAD PUSH2 0x1E6 SWAP2 SWAP1 PUSH2 0xFA1 JUMP JUMPDEST CALLVALUE DUP1 ISZERO PUSH2 0x312 JUMPI PUSH1 0x0 DUP1 REVERT JUMPDEST POP PUSH2 0x204 PUSH2 0xAD9 JUMP JUMPDEST CALLVALUE DUP1 ISZERO PUSH2 0x327 JUMPI PUSH1 0x0 DUP1 REVERT JUMPDEST POP PUSH1 0x12 SLOAD PUSH2 0x2F9 SWAP1 PUSH1 0xFF AND DUP2 JUMP JUMPDEST CALLVALUE DUP1 ISZERO PUSH2 0x341 JUMPI PUSH1 0x0 DUP1 REVERT JUMPDEST POP PUSH1 0x4 SLOAD PUSH2 0x355 SWAP1 PUSH1 0x1 PUSH1 0x1 PUSH1 0xA0 SHL SUB AND DUP2 JUMP JUMPDEST PUSH1 0x40 MLOAD PUSH1 0x1 PUSH1 0x1 PUSH1 0xA0 SHL SUB SWAP1 SWAP2 AND DUP2 MSTORE PUSH1 0x20 ADD PUSH2 0x1E6 JUMP JUMPDEST CALLVALUE DUP1 ISZERO PUSH2 0x379 JUMPI PUSH1 0x0 DUP1 REVERT JUMPDEST POP PUSH1 0xE SLOAD PUSH2 0x355 SWAP1 PUSH1 0x1 PUSH1 0x1 PUSH1 0xA0 SHL SUB AND DUP2 JUMP JUMPDEST CALLVALUE DUP1 ISZERO PUSH2 0x399 JUMPI PUSH1 0x0 DUP1 REVERT JUMPDEST POP PUSH2 0x204 PUSH2 0x3A8 CALLDATASIZE PUSH1 0x4 PUSH2 0xE83 JUMP JUMPDEST PUSH2 0xC3B JUMP JUMPDEST CALLVALUE DUP1 ISZERO PUSH2 0x3B9 JUMPI PUSH1 0x0 DUP1 REVERT JUMPDEST POP PUSH2 0x1DC PUSH1 0xA SLOAD DUP2 JUMP JUMPDEST CALLVALUE DUP1 ISZERO PUSH2 0x3CF JUMPI PUSH1 0x0 DUP1 REVERT JUMPDEST POP PUSH2 0x1DC PUSH2 0x3DE CALLDATASIZE PUSH1 0x4 PUSH2 0xE83 JUMP JUMPDEST PUSH1 0x1 PUSH1 0x1 PUSH1 0xA0 SHL SUB AND PUSH1 0x0 SWAP1 DUP2 MSTORE PUSH1 0x5 PUSH1 0x20 MSTORE PUSH1 0x40 SWAP1 KECCAK256 SLOAD SWAP1 JUMP JUMPDEST CALLVALUE DUP1 ISZERO PUSH2 0x405 JUMPI PUSH1 0x0 DUP1 REVERT JUMPDEST POP PUSH2 0x1DC PUSH1 0x11 SLOAD DUP2 JUMP JUMPDEST CALLVALUE DUP1 ISZERO PUSH2 0x41B JUMPI PUSH1 0x0 DUP1 REVERT JUMPDEST POP PUSH2 0x204 PUSH2 0x42A CALLDATASIZE PUSH1 0x4 PUSH2 0xF6F JUMP JUMPDEST PUSH1 0x9 SSTORE JUMP JUMPDEST CALLVALUE DUP1 ISZERO PUSH2 0x43B JUMPI PUSH1 0x0 DUP1 REVERT JUMPDEST POP PUSH2 0x21B PUSH2 0xC74 JUMP JUMPDEST CALLVALUE DUP1 ISZERO PUSH2 0x450 JUMPI PUSH1 0x0 DUP1 REVERT JUMPDEST POP PUSH2 0x248 PUSH2 0x45F CALLDATASIZE PUSH1 0x4 PUSH2 0xF21 JUMP JUMPDEST PUSH2 0xC81 JUMP JUMPDEST CALLVALUE DUP1 ISZERO PUSH2 0x470 JUMPI PUSH1 0x0 DUP1 REVERT JUMPDEST POP PUSH2 0x1DC PUSH1 0xC SLOAD DUP2 JUMP JUMPDEST CALLVALUE DUP1 ISZERO PUSH2 0x486 JUMPI PUSH1 0x0 DUP1 REVERT JUMPDEST POP PUSH2 0x1DC PUSH1 0xD SLOAD DUP2 JUMP JUMPDEST CALLVALUE DUP1 ISZERO PUSH2 0x49C JUMPI PUSH1 0x0 DUP1 REVERT JUMPDEST POP PUSH2 0x1DC PUSH1 0xB SLOAD DUP2 JUMP JUMPDEST CALLVALUE DUP1 ISZERO PUSH2 0x4B2 JUMPI PUSH1 0x0 DUP1 REVERT JUMPDEST POP PUSH2 0x1DC PUSH1 0xF SLOAD DUP2 JUMP JUMPDEST CALLVALUE DUP1 ISZERO PUSH2 0x4C8 JUMPI PUSH1 0x0 DUP1 REVERT JUMPDEST POP PUSH1 0x8 SLOAD PUSH2 0x355 SWAP1 PUSH1 0x1 PUSH1 0x1 PUSH1 0xA0 SHL SUB AND DUP2 JUMP JUMPDEST CALLVALUE DUP1 ISZERO PUSH2 0x4E8 JUMPI PUSH1 0x0 DUP1 REVERT JUMPDEST POP PUSH2 0x1DC PUSH2 0x4F7 CALLDATASIZE PUSH1 0x4 PUSH2 0xEA7 JUMP JUMPDEST PUSH1 0x1 PUSH1 0x1 PUSH1 0xA0 SHL SUB SWAP2 DUP3 AND PUSH1 0x0 SWAP1 DUP2 MSTORE PUSH1 0x6 PUSH1 0x20 SWAP1 DUP2 MSTORE PUSH1 0x40 DUP1 DUP4 KECCAK256 SWAP4 SWAP1 SWAP5 AND DUP3 MSTORE SWAP2 SWAP1 SWAP2 MSTORE KECCAK256 SLOAD SWAP1 JUMP JUMPDEST CALLVALUE DUP1 ISZERO PUSH2 0x52E JUMPI PUSH1 0x0 DUP1 REVERT JUMPDEST POP PUSH2 0x1DC PUSH2 0x53D CALLDATASIZE PUSH1 0x4 PUSH2 0xF6F JUMP JUMPDEST PUSH2 0xCA5 JUMP JUMPDEST CALLVALUE DUP1 ISZERO PUSH2 0x54E JUMPI PUSH1 0x0 DUP1 REVERT JUMPDEST POP PUSH1 0x7 SLOAD PUSH2 0x355 SWAP1 PUSH1 0x1 PUSH1 0x1 PUSH1 0xA0 SHL SUB AND DUP2 JUMP JUMPDEST PUSH1 0x7 SLOAD PUSH1 0x1 PUSH1 0x1 PUSH1 0xA0 SHL SUB AND CALLER EQ PUSH2 0x579 JUMPI PUSH1 0x0 DUP1 REVERT JUMPDEST PUSH1 0x12 DUP1 SLOAD PUSH1 0xFF NOT AND PUSH1 0x1 OR SWAP1 SSTORE JUMP JUMPDEST PUSH1 0x0 DUP1 SLOAD PUSH2 0x595 SWAP1 PUSH2 0x108E JUMP JUMPDEST DUP1 PUSH1 0x1F ADD PUSH1 0x20 DUP1 SWAP2 DIV MUL PUSH1 0x20 ADD PUSH1 0x40 MLOAD SWAP1 DUP2 ADD PUSH1 0x40 MSTORE DUP1 SWAP3 SWAP2 SWAP1 DUP2 DUP2 MSTORE PUSH1 0x20 ADD DUP3 DUP1 SLOAD PUSH2 0x5C1 SWAP1 PUSH2 0x108E JUMP JUMPDEST DUP1 ISZERO PUSH2 0x60E JUMPI DUP1 PUSH1 0x1F LT PUSH2 0x5E3 JUMPI PUSH2 0x100 DUP1 DUP4 SLOAD DIV MUL DUP4 MSTORE SWAP2 PUSH1 0x20 ADD SWAP2 PUSH2 0x60E JUMP JUMPDEST DUP3 ADD SWAP2 SWAP1 PUSH1 0x0 MSTORE PUSH1 0x20 PUSH1 0x0 KECCAK256 SWAP1 JUMPDEST DUP2 SLOAD DUP2 MSTORE SWAP1 PUSH1 0x1 ADD SWAP1 PUSH1 0x20 ADD DUP1 DUP4 GT PUSH2 0x5F1 JUMPI DUP3 SWAP1 SUB PUSH1 0x1F AND DUP3 ADD SWAP2 JUMPDEST POP POP POP POP POP DUP2 JUMP JUMPDEST CALLER PUSH1 0x0 SWAP1 DUP2 MSTORE PUSH1 0x5 PUSH1 0x20 MSTORE PUSH1 0x40 DUP2 KECCAK256 SLOAD DUP3 GT ISZERO PUSH2 0x632 JUMPI PUSH1 0x0 DUP1 REVERT JUMPDEST PUSH1 0x0 DUP3 GT PUSH2 0x63F JUMPI PUSH1 0x0 DUP1 REVERT JUMPDEST CALLER PUSH1 0x0 DUP2 DUP2 MSTORE PUSH1 0x6 PUSH1 0x20 SWAP1 DUP2 MSTORE PUSH1 0x40 DUP1 DUP4 KECCAK256 PUSH1 0x1 PUSH1 0x1 PUSH1 0xA0 SHL SUB DUP9 AND DUP1 DUP6 MSTORE SWAP1 DUP4 MSTORE SWAP3 DUP2 SWAP1 KECCAK256 DUP7 SWAP1 SSTORE MLOAD DUP6 DUP2 MSTORE SWAP2 SWAP3 SWAP2 PUSH32 0x8C5BE1E5EBEC7D5BD14F71427D1E84F3DD0314C0F7B2291E5B200AC8C7C3B925 SWAP2 ADD JUMPDEST PUSH1 0x40 MLOAD DUP1 SWAP2 SUB SWAP1 LOG3 POP PUSH1 0x1 JUMPDEST SWAP3 SWAP2 POP POP JUMP JUMPDEST PUSH1 0x0 PUSH1 0xF SLOAD TIMESTAMP GT PUSH2 0x6B5 JUMPI PUSH1 0x0 DUP1 REVERT JUMPDEST PUSH2 0x6C0 DUP5 DUP5 DUP5 PUSH2 0xCB3 JUMP JUMPDEST POP PUSH1 0x1 SWAP5 SWAP4 POP POP POP POP JUMP JUMPDEST PUSH1 0x0 PUSH2 0x6D5 PUSH2 0xA7D JUMP JUMPDEST PUSH1 0x12 DUP1 SLOAD PUSH1 0xFF NOT AND PUSH1 0x1 DUP4 PUSH1 0x3 DUP2 GT ISZERO PUSH2 0x6F1 JUMPI PUSH2 0x6F1 PUSH2 0x10DF JUMP JUMPDEST MUL OR SWAP1 SSTORE POP PUSH1 0x1 PUSH1 0x12 SLOAD PUSH1 0xFF AND PUSH1 0x3 DUP2 GT ISZERO PUSH2 0x70F JUMPI PUSH2 0x70F PUSH2 0x10DF JUMP JUMPDEST EQ PUSH2 0x758 JUMPI PUSH1 0x40 MLOAD PUSH3 0x461BCD PUSH1 0xE5 SHL DUP2 MSTORE PUSH1 0x20 PUSH1 0x4 DUP3 ADD MSTORE PUSH1 0x14 PUSH1 0x24 DUP3 ADD MSTORE PUSH20 0x5374617465206973206E6F742072756E6E696E67 PUSH1 0x60 SHL PUSH1 0x44 DUP3 ADD MSTORE PUSH1 0x64 ADD JUMPDEST PUSH1 0x40 MLOAD DUP1 SWAP2 SUB SWAP1 REVERT JUMPDEST PUSH2 0x764 DUP3 PUSH1 0x9 SLOAD PUSH2 0xDAC JUMP JUMPDEST CALLVALUE EQ PUSH2 0x7AB JUMPI PUSH1 0x40 MLOAD PUSH3 0x461BCD PUSH1 0xE5 SHL DUP2 MSTORE PUSH1 0x20 PUSH1 0x4 DUP3 ADD MSTORE PUSH1 0x16 PUSH1 0x24 DUP3 ADD MSTORE PUSH22 0xCAE8D040E6CADCE840D2E640DCDEE840CADCDEEACED PUSH1 0x53 SHL PUSH1 0x44 DUP3 ADD MSTORE PUSH1 0x64 ADD PUSH2 0x74F JUMP JUMPDEST PUSH2 0x7BD DUP3 PUSH8 0xDE0B6B3A7640000 PUSH2 0x1058 JUMP JUMPDEST PUSH1 0xE SLOAD PUSH1 0x40 MLOAD PUSH4 0x70A08231 PUSH1 0xE0 SHL DUP2 MSTORE ADDRESS PUSH1 0x4 DUP3 ADD MSTORE PUSH1 0x1 PUSH1 0x1 PUSH1 0xA0 SHL SUB SWAP1 SWAP2 AND SWAP1 PUSH4 0x70A08231 SWAP1 PUSH1 0x24 ADD PUSH1 0x20 PUSH1 0x40 MLOAD DUP1 DUP4 SUB DUP2 DUP7 DUP1 EXTCODESIZE ISZERO DUP1 ISZERO PUSH2 0x800 JUMPI PUSH1 0x0 DUP1 REVERT JUMPDEST POP GAS STATICCALL ISZERO DUP1 ISZERO PUSH2 0x814 JUMPI RETURNDATASIZE PUSH1 0x0 DUP1 RETURNDATACOPY RETURNDATASIZE PUSH1 0x0 REVERT JUMPDEST POP POP POP POP PUSH1 0x40 MLOAD RETURNDATASIZE PUSH1 0x1F NOT PUSH1 0x1F DUP3 ADD AND DUP3 ADD DUP1 PUSH1 0x40 MSTORE POP DUP2 ADD SWAP1 PUSH2 0x838 SWAP2 SWAP1 PUSH2 0xF88 JUMP JUMPDEST LT ISZERO PUSH2 0x886 JUMPI PUSH1 0x40 MLOAD PUSH3 0x461BCD PUSH1 0xE5 SHL DUP2 MSTORE PUSH1 0x20 PUSH1 0x4 DUP3 ADD MSTORE PUSH1 0x1E PUSH1 0x24 DUP3 ADD MSTORE PUSH32 0x4E6F206D6F726520746F6B656E20696E2074686520636F6E7472616374210000 PUSH1 0x44 DUP3 ADD MSTORE PUSH1 0x64 ADD PUSH2 0x74F JUMP JUMPDEST PUSH1 0xE SLOAD PUSH1 0x1 PUSH1 0x1 PUSH1 0xA0 SHL SUB AND PUSH4 0xA9059CBB CALLER PUSH2 0x8AA DUP6 PUSH8 0xDE0B6B3A7640000 PUSH2 0x1058 JUMP JUMPDEST PUSH1 0x40 MLOAD PUSH1 0x1 PUSH1 0x1 PUSH1 0xE0 SHL SUB NOT PUSH1 0xE0 DUP6 SWAP1 SHL AND DUP2 MSTORE PUSH1 0x1 PUSH1 0x1 PUSH1 0xA0 SHL SUB SWAP1 SWAP3 AND PUSH1 0x4 DUP4 ADD MSTORE PUSH1 0x24 DUP3 ADD MSTORE PUSH1 0x44 ADD PUSH1 0x20 PUSH1 0x40 MLOAD DUP1 DUP4 SUB DUP2 PUSH1 0x0 DUP8 DUP1 EXTCODESIZE ISZERO DUP1 ISZERO PUSH2 0x8F0 JUMPI PUSH1 0x0 DUP1 REVERT JUMPDEST POP GAS CALL ISZERO DUP1 ISZERO PUSH2 0x904 JUMPI RETURNDATASIZE PUSH1 0x0 DUP1 RETURNDATACOPY RETURNDATASIZE PUSH1 0x0 REVERT JUMPDEST POP POP POP POP PUSH1 0x40 MLOAD RETURNDATASIZE PUSH1 0x1F NOT PUSH1 0x1F DUP3 ADD AND DUP3 ADD DUP1 PUSH1 0x40 MSTORE POP DUP2 ADD SWAP1 PUSH2 0x928 SWAP2 SWAP1 PUSH2 0xF4D JUMP JUMPDEST PUSH2 0x931 JUMPI PUSH1 0x0 DUP1 REVERT JUMPDEST PUSH1 0x11 SLOAD CALLVALUE LT ISZERO DUP1 ISZERO PUSH2 0x945 JUMPI POP PUSH1 0x10 SLOAD CALLVALUE GT ISZERO JUMPDEST PUSH2 0x991 JUMPI PUSH1 0x40 MLOAD PUSH3 0x461BCD PUSH1 0xE5 SHL DUP2 MSTORE PUSH1 0x20 PUSH1 0x4 DUP3 ADD MSTORE PUSH1 0x1E PUSH1 0x24 DUP3 ADD MSTORE PUSH32 0x4D6178206F72204D696E20696E766573746D656E742045786365656465640000 PUSH1 0x44 DUP3 ADD MSTORE PUSH1 0x64 ADD PUSH2 0x74F JUMP JUMPDEST CALLVALUE PUSH1 0xB PUSH1 0x0 DUP3 DUP3 SLOAD PUSH2 0x9A3 SWAP2 SWAP1 PUSH2 0x101E JUMP JUMPDEST SWAP1 SWAP2 SSTORE POP POP CALLER PUSH1 0x0 SWAP1 DUP2 MSTORE PUSH1 0x5 PUSH1 0x20 MSTORE PUSH1 0x40 DUP2 KECCAK256 DUP1 SLOAD DUP5 SWAP3 SWAP1 PUSH2 0x9C7 SWAP1 DUP5 SWAP1 PUSH2 0x101E JUMP JUMPDEST SWAP1 SWAP2 SSTORE POP POP PUSH1 0x4 SLOAD PUSH1 0x1 PUSH1 0x1 PUSH1 0xA0 SHL SUB AND PUSH1 0x0 SWAP1 DUP2 MSTORE PUSH1 0x5 PUSH1 0x20 MSTORE PUSH1 0x40 DUP2 KECCAK256 DUP1 SLOAD DUP5 SWAP3 SWAP1 PUSH2 0x9F6 SWAP1 DUP5 SWAP1 PUSH2 0x1077 JUMP JUMPDEST SWAP1 SWAP2 SSTORE POP POP PUSH1 0x8 SLOAD PUSH1 0x40 MLOAD PUSH1 0x1 PUSH1 0x1 PUSH1 0xA0 SHL SUB SWAP1 SWAP2 AND SWAP1 CALLVALUE DUP1 ISZERO PUSH2 0x8FC MUL SWAP2 PUSH1 0x0 DUP2 DUP2 DUP2 DUP6 DUP9 DUP9 CALL SWAP4 POP POP POP POP ISZERO DUP1 ISZERO PUSH2 0xA34 JUMPI RETURNDATASIZE PUSH1 0x0 DUP1 RETURNDATACOPY RETURNDATASIZE PUSH1 0x0 REVERT JUMPDEST POP PUSH1 0x40 DUP1 MLOAD CALLER DUP2 MSTORE CALLVALUE PUSH1 0x20 DUP3 ADD MSTORE SWAP1 DUP2 ADD DUP4 SWAP1 MSTORE PUSH32 0x4AE4BD7655E0D350876A23CD90C4227B13DB560E34435C6A488150A9C844BF5F SWAP1 PUSH1 0x60 ADD PUSH1 0x40 MLOAD DUP1 SWAP2 SUB SWAP1 LOG1 POP PUSH1 0x1 SWAP2 SWAP1 POP JUMP JUMPDEST PUSH1 0x0 PUSH1 0x3 PUSH1 0x12 SLOAD PUSH1 0xFF AND PUSH1 0x3 DUP2 GT ISZERO PUSH2 0xA98 JUMPI PUSH2 0xA98 PUSH2 0x10DF JUMP JUMPDEST EQ ISZERO PUSH2 0xAA4 JUMPI POP PUSH1 0x3 SWAP1 JUMP JUMPDEST PUSH1 0xC SLOAD TIMESTAMP LT ISZERO PUSH2 0xAB4 JUMPI POP PUSH1 0x0 SWAP1 JUMP JUMPDEST PUSH1 0xC SLOAD TIMESTAMP LT ISZERO DUP1 ISZERO PUSH2 0xAC8 JUMPI POP PUSH1 0xD SLOAD TIMESTAMP GT ISZERO JUMPDEST ISZERO PUSH2 0xAD3 JUMPI POP PUSH1 0x1 SWAP1 JUMP JUMPDEST POP PUSH1 0x2 SWAP1 JUMP JUMPDEST PUSH1 0x7 SLOAD PUSH1 0x1 PUSH1 0x1 PUSH1 0xA0 SHL SUB AND CALLER EQ PUSH2 0xAF0 JUMPI PUSH1 0x0 DUP1 REVERT JUMPDEST PUSH1 0xE SLOAD PUSH1 0x7 SLOAD PUSH1 0x40 MLOAD PUSH4 0x70A08231 PUSH1 0xE0 SHL DUP2 MSTORE ADDRESS PUSH1 0x4 DUP3 ADD MSTORE PUSH1 0x1 PUSH1 0x1 PUSH1 0xA0 SHL SUB SWAP3 DUP4 AND SWAP3 PUSH4 0xA9059CBB SWAP3 AND SWAP1 DUP4 SWAP1 PUSH4 0x70A08231 SWAP1 PUSH1 0x24 ADD PUSH1 0x20 PUSH1 0x40 MLOAD DUP1 DUP4 SUB DUP2 DUP7 DUP1 EXTCODESIZE ISZERO DUP1 ISZERO PUSH2 0xB40 JUMPI PUSH1 0x0 DUP1 REVERT JUMPDEST POP GAS STATICCALL ISZERO DUP1 ISZERO PUSH2 0xB54 JUMPI RETURNDATASIZE PUSH1 0x0 DUP1 RETURNDATACOPY RETURNDATASIZE PUSH1 0x0 REVERT JUMPDEST POP POP POP POP PUSH1 0x40 MLOAD RETURNDATASIZE PUSH1 0x1F NOT PUSH1 0x1F DUP3 ADD AND DUP3 ADD DUP1 PUSH1 0x40 MSTORE POP DUP2 ADD SWAP1 PUSH2 0xB78 SWAP2 SWAP1 PUSH2 0xF88 JUMP JUMPDEST PUSH1 0x40 MLOAD PUSH1 0x1 PUSH1 0x1 PUSH1 0xE0 SHL SUB NOT PUSH1 0xE0 DUP6 SWAP1 SHL AND DUP2 MSTORE PUSH1 0x1 PUSH1 0x1 PUSH1 0xA0 SHL SUB SWAP1 SWAP3 AND PUSH1 0x4 DUP4 ADD MSTORE PUSH1 0x24 DUP3 ADD MSTORE PUSH1 0x44 ADD PUSH1 0x20 PUSH1 0x40 MLOAD DUP1 DUP4 SUB DUP2 PUSH1 0x0 DUP8 DUP1 EXTCODESIZE ISZERO DUP1 ISZERO PUSH2 0xBBE JUMPI PUSH1 0x0 DUP1 REVERT JUMPDEST POP GAS CALL ISZERO DUP1 ISZERO PUSH2 0xBD2 JUMPI RETURNDATASIZE PUSH1 0x0 DUP1 RETURNDATACOPY RETURNDATASIZE PUSH1 0x0 REVERT JUMPDEST POP POP POP POP PUSH1 0x40 MLOAD RETURNDATASIZE PUSH1 0x1F NOT PUSH1 0x1F DUP3 ADD AND DUP3 ADD DUP1 PUSH1 0x40 MSTORE POP DUP2 ADD SWAP1 PUSH2 0xBF6 SWAP2 SWAP1 PUSH2 0xF4D JUMP JUMPDEST PUSH2 0xBFF JUMPI PUSH1 0x0 DUP1 REVERT JUMPDEST PUSH1 0x7 SLOAD PUSH1 0x40 MLOAD PUSH1 0x1 PUSH1 0x1 PUSH1 0xA0 SHL SUB SWAP1 SWAP2 AND SWAP1 SELFBALANCE DUP1 ISZERO PUSH2 0x8FC MUL SWAP2 PUSH1 0x0 DUP2 DUP2 DUP2 DUP6 DUP9 DUP9 CALL SWAP4 POP POP POP POP ISZERO DUP1 ISZERO PUSH2 0xC38 JUMPI RETURNDATASIZE PUSH1 0x0 DUP1 RETURNDATACOPY RETURNDATASIZE PUSH1 0x0 REVERT JUMPDEST POP JUMP JUMPDEST PUSH1 0x7 SLOAD PUSH1 0x1 PUSH1 0x1 PUSH1 0xA0 SHL SUB AND CALLER EQ PUSH2 0xC52 JUMPI PUSH1 0x0 DUP1 REVERT JUMPDEST PUSH1 0x8 DUP1 SLOAD PUSH1 0x1 PUSH1 0x1 PUSH1 0xA0 SHL SUB NOT AND PUSH1 0x1 PUSH1 0x1 PUSH1 0xA0 SHL SUB SWAP3 SWAP1 SWAP3 AND SWAP2 SWAP1 SWAP2 OR SWAP1 SSTORE JUMP JUMPDEST PUSH1 0x1 DUP1 SLOAD PUSH2 0x595 SWAP1 PUSH2 0x108E JUMP JUMPDEST PUSH1 0x0 PUSH1 0xF SLOAD TIMESTAMP GT PUSH2 0xC91 JUMPI PUSH1 0x0 DUP1 REVERT JUMPDEST PUSH2 0xC9B DUP4 DUP4 PUSH2 0xDD9 JUMP JUMPDEST POP PUSH1 0x1 SWAP4 SWAP3 POP POP POP JUMP JUMPDEST PUSH1 0x0 PUSH2 0x69F DUP3 PUSH1 0x9 SLOAD PUSH2 0xDAC JUMP JUMPDEST PUSH1 0x1 PUSH1 0x1 PUSH1 0xA0 SHL SUB DUP1 DUP5 AND PUSH1 0x0 SWAP1 DUP2 MSTORE PUSH1 0x6 PUSH1 0x20 SWAP1 DUP2 MSTORE PUSH1 0x40 DUP1 DUP4 KECCAK256 SWAP4 DUP7 AND DUP4 MSTORE SWAP3 SWAP1 MSTORE SWAP1 DUP2 KECCAK256 SLOAD DUP3 GT ISZERO PUSH2 0xCE7 JUMPI PUSH1 0x0 DUP1 REVERT JUMPDEST PUSH1 0x1 PUSH1 0x1 PUSH1 0xA0 SHL SUB DUP5 AND PUSH1 0x0 SWAP1 DUP2 MSTORE PUSH1 0x5 PUSH1 0x20 MSTORE PUSH1 0x40 SWAP1 KECCAK256 SLOAD DUP3 GT ISZERO PUSH2 0xD0C JUMPI PUSH1 0x0 DUP1 REVERT JUMPDEST PUSH1 0x1 PUSH1 0x1 PUSH1 0xA0 SHL SUB DUP5 AND PUSH1 0x0 SWAP1 DUP2 MSTORE PUSH1 0x5 PUSH1 0x20 MSTORE PUSH1 0x40 DUP2 KECCAK256 DUP1 SLOAD DUP5 SWAP3 SWAP1 PUSH2 0xD34 SWAP1 DUP5 SWAP1 PUSH2 0x1077 JUMP JUMPDEST SWAP1 SWAP2 SSTORE POP POP PUSH1 0x1 PUSH1 0x1 PUSH1 0xA0 SHL SUB DUP4 AND PUSH1 0x0 SWAP1 DUP2 MSTORE PUSH1 0x5 PUSH1 0x20 MSTORE PUSH1 0x40 DUP2 KECCAK256 DUP1 SLOAD DUP5 SWAP3 SWAP1 PUSH2 0xD61 SWAP1 DUP5 SWAP1 PUSH2 0x101E JUMP JUMPDEST SWAP1 SWAP2 SSTORE POP POP PUSH1 0x1 PUSH1 0x1 PUSH1 0xA0 SHL SUB DUP1 DUP6 AND PUSH1 0x0 SWAP1 DUP2 MSTORE PUSH1 0x6 PUSH1 0x20 SWAP1 DUP2 MSTORE PUSH1 0x40 DUP1 DUP4 KECCAK256 SWAP4 DUP8 AND DUP4 MSTORE SWAP3 SWAP1 MSTORE SWAP1 DUP2 KECCAK256 DUP1 SLOAD DUP5 SWAP3 SWAP1 PUSH2 0xD9D SWAP1 DUP5 SWAP1 PUSH2 0x1077 JUMP JUMPDEST SWAP1 SWAP2 SSTORE POP PUSH1 0x1 SWAP6 SWAP5 POP POP POP POP POP JUMP JUMPDEST PUSH1 0x0 DUP2 ISZERO DUP1 PUSH2 0xDD0 JUMPI POP DUP3 DUP3 PUSH2 0xDC2 DUP2 DUP4 PUSH2 0x1058 JUMP JUMPDEST SWAP3 POP PUSH2 0xDCE SWAP1 DUP4 PUSH2 0x1036 JUMP JUMPDEST EQ JUMPDEST PUSH2 0x69F JUMPI PUSH1 0x0 DUP1 REVERT JUMPDEST CALLER PUSH1 0x0 SWAP1 DUP2 MSTORE PUSH1 0x5 PUSH1 0x20 MSTORE PUSH1 0x40 DUP2 KECCAK256 SLOAD DUP3 GT ISZERO PUSH2 0xDF5 JUMPI PUSH1 0x0 DUP1 REVERT JUMPDEST PUSH1 0x1 PUSH1 0x1 PUSH1 0xA0 SHL SUB DUP4 AND PUSH1 0x0 SWAP1 DUP2 MSTORE PUSH1 0x5 PUSH1 0x20 MSTORE PUSH1 0x40 DUP2 KECCAK256 DUP1 SLOAD DUP5 SWAP3 SWAP1 PUSH2 0xE1D SWAP1 DUP5 SWAP1 PUSH2 0x101E JUMP JUMPDEST SWAP1 SWAP2 SSTORE POP POP CALLER PUSH1 0x0 SWAP1 DUP2 MSTORE PUSH1 0x5 PUSH1 0x20 MSTORE PUSH1 0x40 DUP2 KECCAK256 DUP1 SLOAD DUP5 SWAP3 SWAP1 PUSH2 0xE41 SWAP1 DUP5 SWAP1 PUSH2 0x1077 JUMP JUMPDEST SWAP1 SWAP2 SSTORE POP POP PUSH1 0x40 MLOAD DUP3 DUP2 MSTORE PUSH1 0x1 PUSH1 0x1 PUSH1 0xA0 SHL SUB DUP5 AND SWAP1 CALLER SWAP1 PUSH32 0xDDF252AD1BE2C89B69C2B068FC378DAA952BA7F163C4A11628F55A4DF523B3EF SWAP1 PUSH1 0x20 ADD PUSH2 0x693 JUMP JUMPDEST PUSH1 0x0 PUSH1 0x20 DUP3 DUP5 SUB SLT ISZERO PUSH2 0xE95 JUMPI PUSH1 0x0 DUP1 REVERT JUMPDEST DUP2 CALLDATALOAD PUSH2 0xEA0 DUP2 PUSH2 0x10F5 JUMP JUMPDEST SWAP4 SWAP3 POP POP POP JUMP JUMPDEST PUSH1 0x0 DUP1 PUSH1 0x40 DUP4 DUP6 SUB SLT ISZERO PUSH2 0xEBA JUMPI PUSH1 0x0 DUP1 REVERT JUMPDEST DUP3 CALLDATALOAD PUSH2 0xEC5 DUP2 PUSH2 0x10F5 JUMP JUMPDEST SWAP2 POP PUSH1 0x20 DUP4 ADD CALLDATALOAD PUSH2 0xED5 DUP2 PUSH2 0x10F5 JUMP JUMPDEST DUP1 SWAP2 POP POP SWAP3 POP SWAP3 SWAP1 POP JUMP JUMPDEST PUSH1 0x0 DUP1 PUSH1 0x0 PUSH1 0x60 DUP5 DUP7 SUB SLT ISZERO PUSH2 0xEF5 JUMPI PUSH1 0x0 DUP1 REVERT JUMPDEST DUP4 CALLDATALOAD PUSH2 0xF00 DUP2 PUSH2 0x10F5 JUMP JUMPDEST SWAP3 POP PUSH1 0x20 DUP5 ADD CALLDATALOAD PUSH2 0xF10 DUP2 PUSH2 0x10F5 JUMP JUMPDEST SWAP3 SWAP6 SWAP3 SWAP5 POP POP POP PUSH1 0x40 SWAP2 SWAP1 SWAP2 ADD CALLDATALOAD SWAP1 JUMP JUMPDEST PUSH1 0x0 DUP1 PUSH1 0x40 DUP4 DUP6 SUB SLT ISZERO PUSH2 0xF34 JUMPI PUSH1 0x0 DUP1 REVERT JUMPDEST DUP3 CALLDATALOAD PUSH2 0xF3F DUP2 PUSH2 0x10F5 JUMP JUMPDEST SWAP5 PUSH1 0x20 SWAP4 SWAP1 SWAP4 ADD CALLDATALOAD SWAP4 POP POP POP JUMP JUMPDEST PUSH1 0x0 PUSH1 0x20 DUP3 DUP5 SUB SLT ISZERO PUSH2 0xF5F JUMPI PUSH1 0x0 DUP1 REVERT JUMPDEST DUP2 MLOAD DUP1 ISZERO ISZERO DUP2 EQ PUSH2 0xEA0 JUMPI PUSH1 0x0 DUP1 REVERT JUMPDEST PUSH1 0x0 PUSH1 0x20 DUP3 DUP5 SUB SLT ISZERO PUSH2 0xF81 JUMPI PUSH1 0x0 DUP1 REVERT JUMPDEST POP CALLDATALOAD SWAP2 SWAP1 POP JUMP JUMPDEST PUSH1 0x0 PUSH1 0x20 DUP3 DUP5 SUB SLT ISZERO PUSH2 0xF9A JUMPI PUSH1 0x0 DUP1 REVERT JUMPDEST POP MLOAD SWAP2 SWAP1 POP JUMP JUMPDEST PUSH1 0x20 DUP2 ADD PUSH1 0x4 DUP4 LT PUSH2 0xFC3 JUMPI PUSH4 0x4E487B71 PUSH1 0xE0 SHL PUSH1 0x0 MSTORE PUSH1 0x21 PUSH1 0x4 MSTORE PUSH1 0x24 PUSH1 0x0 REVERT JUMPDEST SWAP2 SWAP1 MSTORE SWAP1 JUMP JUMPDEST PUSH1 0x0 PUSH1 0x20 DUP1 DUP4 MSTORE DUP4 MLOAD DUP1 DUP3 DUP6 ADD MSTORE PUSH1 0x0 JUMPDEST DUP2 DUP2 LT ISZERO PUSH2 0xFF6 JUMPI DUP6 DUP2 ADD DUP4 ADD MLOAD DUP6 DUP3 ADD PUSH1 0x40 ADD MSTORE DUP3 ADD PUSH2 0xFDA JUMP JUMPDEST DUP2 DUP2 GT ISZERO PUSH2 0x1008 JUMPI PUSH1 0x0 PUSH1 0x40 DUP4 DUP8 ADD ADD MSTORE JUMPDEST POP PUSH1 0x1F ADD PUSH1 0x1F NOT AND SWAP3 SWAP1 SWAP3 ADD PUSH1 0x40 ADD SWAP4 SWAP3 POP POP POP JUMP JUMPDEST PUSH1 0x0 DUP3 NOT DUP3 GT ISZERO PUSH2 0x1031 JUMPI PUSH2 0x1031 PUSH2 0x10C9 JUMP JUMPDEST POP ADD SWAP1 JUMP JUMPDEST PUSH1 0x0 DUP3 PUSH2 0x1053 JUMPI PUSH4 0x4E487B71 PUSH1 0xE0 SHL PUSH1 0x0 MSTORE PUSH1 0x12 PUSH1 0x4 MSTORE PUSH1 0x24 PUSH1 0x0 REVERT JUMPDEST POP DIV SWAP1 JUMP JUMPDEST PUSH1 0x0 DUP2 PUSH1 0x0 NOT DIV DUP4 GT DUP3 ISZERO ISZERO AND ISZERO PUSH2 0x1072 JUMPI PUSH2 0x1072 PUSH2 0x10C9 JUMP JUMPDEST POP MUL SWAP1 JUMP JUMPDEST PUSH1 0x0 DUP3 DUP3 LT ISZERO PUSH2 0x1089 JUMPI PUSH2 0x1089 PUSH2 0x10C9 JUMP JUMPDEST POP SUB SWAP1 JUMP JUMPDEST PUSH1 0x1 DUP2 DUP2 SHR SWAP1 DUP3 AND DUP1 PUSH2 0x10A2 JUMPI PUSH1 0x7F DUP3 AND SWAP2 POP JUMPDEST PUSH1 0x20 DUP3 LT DUP2 EQ ISZERO PUSH2 0x10C3 JUMPI PUSH4 0x4E487B71 PUSH1 0xE0 SHL PUSH1 0x0 MSTORE PUSH1 0x22 PUSH1 0x4 MSTORE PUSH1 0x24 PUSH1 0x0 REVERT JUMPDEST POP SWAP2 SWAP1 POP JUMP JUMPDEST PUSH4 0x4E487B71 PUSH1 0xE0 SHL PUSH1 0x0 MSTORE PUSH1 0x11 PUSH1 0x4 MSTORE PUSH1 0x24 PUSH1 0x0 REVERT JUMPDEST PUSH4 0x4E487B71 PUSH1 0xE0 SHL PUSH1 0x0 MSTORE PUSH1 0x21 PUSH1 0x4 MSTORE PUSH1 0x24 PUSH1 0x0 REVERT JUMPDEST PUSH1 0x1 PUSH1 0x1 PUSH1 0xA0 SHL SUB DUP2 AND DUP2 EQ PUSH2 0xC38 JUMPI PUSH1 0x0 DUP1 REVERT INVALID LOG2 PUSH5 0x6970667358 0x22 SLT KECCAK256 PUSH16 0x52137096D44325E735D1CE8140483B7E SWAP10 0xEB 0xBA INVALID CHAINID CALLVALUE 0x1F DUP11 PUSH17 0x1944FB29527A64736F6C63430008070033 "
				},
				"gasEstimates": {
					"creation": {
						"codeDepositCost": "883200",
						"executionCost": "infinite",
						"totalCost": "infinite"
					},
					"external": {
						"admin()": "2447",
						"allowance(address,address)": "infinite",
						"approve(address,uint256)": "26740",
						"balanceOf(address)": "2610",
						"balances(address)": "2614",
						"changeDepositAddress(address)": "26751",
						"decimals()": "2352",
						"deposit()": "2381",
						"endSale()": "infinite",
						"founder()": "2426",
						"getCurrentState()": "8893",
						"getPrice(uint256)": "infinite",
						"icoState()": "2418",
						"invest(uint256)": "35342",
						"maxInvestment()": "2331",
						"minInvestment()": "2329",
						"name()": "infinite",
						"prie()": "2352",
						"raisedAmount()": "2373",
						"resume()": "26577",
						"saleEnd()": "2351",
						"saleStart()": "2329",
						"setPrice(uint256)": "22379",
						"symbol()": "infinite",
						"tokenContract()": "2448",
						"tokenTradeStart()": "2395",
						"totalSupply()": "2352",
						"transfer(address,uint256)": "55463",
						"transferFrom(address,address,uint256)": "infinite"
					},
					"internal": {
						"multiply(uint256,uint256)": "227"
					}
				},
				"methodIdentifiers": {
					"admin()": "f851a440",
					"allowance(address,address)": "dd62ed3e",
					"approve(address,uint256)": "095ea7b3",
					"balanceOf(address)": "70a08231",
					"balances(address)": "27e235e3",
					"changeDepositAddress(address)": "6d58c88f",
					"decimals()": "313ce567",
					"deposit()": "d0e30db0",
					"endSale()": "380d831b",
					"founder()": "4d853ee5",
					"getCurrentState()": "378aa701",
					"getPrice(uint256)": "e7572230",
					"icoState()": "44f38756",
					"invest(uint256)": "2afcf480",
					"maxInvestment()": "002e1316",
					"minInvestment()": "8ac2c680",
					"name()": "06fdde03",
					"prie()": "6e463658",
					"raisedAmount()": "c59ee1dc",
					"resume()": "046f7da2",
					"saleEnd()": "c10b9358",
					"saleStart()": "ab0bcc41",
					"setPrice(uint256)": "91b7f5ed",
					"symbol()": "95d89b41",
					"tokenContract()": "55a373d6",
					"tokenTradeStart()": "cc9ba583",
					"totalSupply()": "18160ddd",
					"transfer(address,uint256)": "a9059cbb",
					"transferFrom(address,address,uint256)": "23b872dd"
				}
			},
			"storageLayout": {
				"storage": [
					{
						"astId": 73,
						"contract": "contracts/nct v4.sol:CryptosICO",
						"label": "name",
						"offset": 0,
						"slot": "0",
						"type": "t_string_storage"
					},
					{
						"astId": 76,
						"contract": "contracts/nct v4.sol:CryptosICO",
						"label": "symbol",
						"offset": 0,
						"slot": "1",
						"type": "t_string_storage"
					},
					{
						"astId": 79,
						"contract": "contracts/nct v4.sol:CryptosICO",
						"label": "decimals",
						"offset": 0,
						"slot": "2",
						"type": "t_uint256"
					},
					{
						"astId": 82,
						"contract": "contracts/nct v4.sol:CryptosICO",
						"label": "totalSupply",
						"offset": 0,
						"slot": "3",
						"type": "t_uint256"
					},
					{
						"astId": 84,
						"contract": "contracts/nct v4.sol:CryptosICO",
						"label": "founder",
						"offset": 0,
						"slot": "4",
						"type": "t_address"
					},
					{
						"astId": 88,
						"contract": "contracts/nct v4.sol:CryptosICO",
						"label": "balances",
						"offset": 0,
						"slot": "5",
						"type": "t_mapping(t_address,t_uint256)"
					},
					{
						"astId": 94,
						"contract": "contracts/nct v4.sol:CryptosICO",
						"label": "allowed",
						"offset": 0,
						"slot": "6",
						"type": "t_mapping(t_address,t_mapping(t_address,t_uint256))"
					},
					{
						"astId": 291,
						"contract": "contracts/nct v4.sol:CryptosICO",
						"label": "admin",
						"offset": 0,
						"slot": "7",
						"type": "t_address"
					},
					{
						"astId": 293,
						"contract": "contracts/nct v4.sol:CryptosICO",
						"label": "deposit",
						"offset": 0,
						"slot": "8",
						"type": "t_address_payable"
					},
					{
						"astId": 296,
						"contract": "contracts/nct v4.sol:CryptosICO",
						"label": "tokenPrice",
						"offset": 0,
						"slot": "9",
						"type": "t_uint256"
					},
					{
						"astId": 299,
						"contract": "contracts/nct v4.sol:CryptosICO",
						"label": "prie",
						"offset": 0,
						"slot": "10",
						"type": "t_uint256"
					},
					{
						"astId": 301,
						"contract": "contracts/nct v4.sol:CryptosICO",
						"label": "raisedAmount",
						"offset": 0,
						"slot": "11",
						"type": "t_uint256"
					},
					{
						"astId": 305,
						"contract": "contracts/nct v4.sol:CryptosICO",
						"label": "saleStart",
						"offset": 0,
						"slot": "12",
						"type": "t_uint256"
					},
					{
						"astId": 311,
						"contract": "contracts/nct v4.sol:CryptosICO",
						"label": "saleEnd",
						"offset": 0,
						"slot": "13",
						"type": "t_uint256"
					},
					{
						"astId": 314,
						"contract": "contracts/nct v4.sol:CryptosICO",
						"label": "tokenContract",
						"offset": 0,
						"slot": "14",
						"type": "t_contract(ERC20Interface)68"
					},
					{
						"astId": 319,
						"contract": "contracts/nct v4.sol:CryptosICO",
						"label": "tokenTradeStart",
						"offset": 0,
						"slot": "15",
						"type": "t_uint256"
					},
					{
						"astId": 322,
						"contract": "contracts/nct v4.sol:CryptosICO",
						"label": "maxInvestment",
						"offset": 0,
						"slot": "16",
						"type": "t_uint256"
					},
					{
						"astId": 325,
						"contract": "contracts/nct v4.sol:CryptosICO",
						"label": "minInvestment",
						"offset": 0,
						"slot": "17",
						"type": "t_uint256"
					},
					{
						"astId": 333,
						"contract": "contracts/nct v4.sol:CryptosICO",
						"label": "icoState",
						"offset": 0,
						"slot": "18",
						"type": "t_enum(State)330"
					}
				],
				"types": {
					"t_address": {
						"encoding": "inplace",
						"label": "address",
						"numberOfBytes": "20"
					},
					"t_address_payable": {
						"encoding": "inplace",
						"label": "address payable",
						"numberOfBytes": "20"
					},
					"t_contract(ERC20Interface)68": {
						"encoding": "inplace",
						"label": "contract ERC20Interface",
						"numberOfBytes": "20"
					},
					"t_enum(State)330": {
						"encoding": "inplace",
						"label": "enum CryptosICO.State",
						"numberOfBytes": "1"
					},
					"t_mapping(t_address,t_mapping(t_address,t_uint256))": {
						"encoding": "mapping",
						"key": "t_address",
						"label": "mapping(address => mapping(address => uint256))",
						"numberOfBytes": "32",
						"value": "t_mapping(t_address,t_uint256)"
					},
					"t_mapping(t_address,t_uint256)": {
						"encoding": "mapping",
						"key": "t_address",
						"label": "mapping(address => uint256)",
						"numberOfBytes": "32",
						"value": "t_uint256"
					},
					"t_string_storage": {
						"encoding": "bytes",
						"label": "string",
						"numberOfBytes": "32"
					},
					"t_uint256": {
						"encoding": "inplace",
						"label": "uint256",
						"numberOfBytes": "32"
					}
				}
			},
			"userdoc": {
				"kind": "user",
				"methods": {},
				"version": 1
			}
		}
	}
}