{
	"contracts/nct v4.sol": {
		"Cryptos": {
			"abi": [
				{
					"inputs": [],
					"stateMutability": "nonpayable",
					"type": "constructor"
				},
				{
					"anonymous": false,
					"inputs": [
						{
							"indexed": true,
							"internalType": "address",
							"name": "tokenOwner",
							"type": "address"
						},
						{
							"indexed": true,
							"internalType": "address",
							"name": "spender",
							"type": "address"
						},
						{
							"indexed": false,
							"internalType": "uint256",
							"name": "tokens",
							"type": "uint256"
						}
					],
					"name": "Approval",
					"type": "event"
				},
				{
					"anonymous": false,
					"inputs": [
						{
							"indexed": true,
							"internalType": "address",
							"name": "from",
							"type": "address"
						},
						{
							"indexed": true,
							"internalType": "address",
							"name": "to",
							"type": "address"
						},
						{
							"indexed": false,
							"internalType": "uint256",
							"name": "tokens",
							"type": "uint256"
						}
					],
					"name": "Transfer",
					"type": "event"
				},
				{
					"inputs": [
						{
							"internalType": "address",
							"name": "tokenOwner",
							"type": "address"
						},
						{
							"internalType": "address",
							"name": "spender",
							"type": "address"
						}
					],
					"name": "allowance",
					"outputs": [
						{
							"internalType": "uint256",
							"name": "",
							"type": "uint256"
						}
					],
					"stateMutability": "view",
					"type": "function"
				},
				{
					"inputs": [
						{
							"internalType": "address",
							"name": "spender",
							"type": "address"
						},
						{
							"internalType": "uint256",
							"name": "tokens",
							"type": "uint256"
						}
					],
					"name": "approve",
					"outputs": [
						{
							"internalType": "bool",
							"name": "success",
							"type": "bool"
						}
					],
					"stateMutability": "nonpayable",
					"type": "function"
				},
				{
					"inputs": [
						{
							"internalType": "address",
							"name": "tokenOwner",
							"type": "address"
						}
					],
					"name": "balanceOf",
					"outputs": [
						{
							"internalType": "uint256",
							"name": "balance",
							"type": "uint256"
						}
					],
					"stateMutability": "view",
					"type": "function"
				},
				{
					"inputs": [
						{
							"internalType": "address",
							"name": "",
							"type": "address"
						}
					],
					"name": "balances",
					"outputs": [
						{
							"internalType": "uint256",
							"name": "",
							"type": "uint256"
						}
					],
					"stateMutability": "view",
					"type": "function"
				},
				{
					"inputs": [],
					"name": "decimals",
					"outputs": [
						{
							"internalType": "uint256",
							"name": "",
							"type": "uint256"
						}
					],
					"stateMutability": "view",
					"type": "function"
				},
				{
					"inputs": [],
					"name": "founder",
					"outputs": [
						{
							"internalType": "address",
							"name": "",
							"type": "address"
						}
					],
					"stateMutability": "view",
					"type": "function"
				},
				{
					"inputs": [],
					"name": "name",
					"outputs": [
						{
							"internalType": "string",
							"name": "",
							"type": "string"
						}
					],
					"stateMutability": "view",
					"type": "function"
				},
				{
					"inputs": [],
					"name": "symbol",
					"outputs": [
						{
							"internalType": "string",
							"name": "",
							"type": "string"
						}
					],
					"stateMutability": "view",
					"type": "function"
				},
				{
					"inputs": [],
					"name": "totalSupply",
					"outputs": [
						{
							"internalType": "uint256",
							"name": "",
							"type": "uint256"
						}
					],
					"stateMutability": "view",
					"type": "function"
				},
				{
					"inputs": [
						{
							"internalType": "address",
							"name": "to",
							"type": "address"
						},
						{
							"internalType": "uint256",
							"name": "tokens",
							"type": "uint256"
						}
					],
					"name": "transfer",
					"outputs": [
						{
							"internalType": "bool",
							"name": "success",
							"type": "bool"
						}
					],
					"stateMutability": "nonpayable",
					"type": "function"
				},
				{
					"inputs": [
						{
							"internalType": "address",
							"name": "from",
							"type": "address"
						},
						{
							"internalType": "address",
							"name": "to",
							"type": "address"
						},
						{
							"internalType": "uint256",
							"name": "tokens",
							"type": "uint256"
						}
					],
					"name": "transferFrom",
					"outputs": [
						{
							"internalType": "bool",
							"name": "success",
							"type": "bool"
						}
					],
					"stateMutability": "nonpayable",
					"type": "function"
				}
			],
			"devdoc": {
				"kind": "dev",
				"methods": {},
				"version": 1
			},
			"evm": {
				"assembly": "    /* \"contracts/nct v4.sol\":1237:1274  string public name = \"Nations Combat\" */\n  0xc0\n    /* \"contracts/nct v4.sol\":1195:3207  contract Cryptos is ERC20Interface {\r... */\n  0x40\n    /* \"contracts/nct v4.sol\":1237:1274  string public name = \"Nations Combat\" */\n  mstore\n  0x0e\n    /* \"contracts/nct v4.sol\":1195:3207  contract Cryptos is ERC20Interface {\r... */\n  0x80\n    /* \"contracts/nct v4.sol\":1237:1274  string public name = \"Nations Combat\" */\n  dup2\n  swap1\n  mstore\n  shl(0x92, 0x13985d1a5bdb9cc810dbdb58985d)\n  0xa0\n  swap1\n  dup2\n  mstore\n  tag_1\n  swap2\n  0x00\n  swap2\n  swap1\n  tag_2\n  jump\t// in\ntag_1:\n  pop\n    /* \"contracts/nct v4.sol\":1281:1309  string public symbol = \"NCT\" */\n  0x40\n  dup1\n  mload\n  dup1\n  dup3\n  add\n  swap1\n  swap2\n  mstore\n  0x03\n  dup1\n  dup3\n  mstore\n  shl(0xea, 0x1390d5)\n  0x20\n  swap1\n  swap3\n  add\n  swap2\n  dup3\n  mstore\n  tag_3\n  swap2\n  0x01\n  swap2\n  tag_2\n  jump\t// in\ntag_3:\n  pop\n    /* \"contracts/nct v4.sol\":1342:1344  18 */\n  0x12\n    /* \"contracts/nct v4.sol\":1316:1344  uint256 public decimals = 18 */\n  0x02\n  sstore\n    /* \"contracts/nct v4.sol\":1614:1749  constructor() {\r... */\n  callvalue\n  dup1\n  iszero\n  tag_4\n  jumpi\n  0x00\n  dup1\n  revert\ntag_4:\n  pop\n    /* \"contracts/nct v4.sol\":1653:1668  50000000*10**18 */\n  0x295be96e64066972000000\n    /* \"contracts/nct v4.sol\":1639:1650  totalSupply */\n  0x03\n    /* \"contracts/nct v4.sol\":1639:1668  totalSupply = 50000000*10**18 */\n  dup2\n  swap1\n  sstore\n    /* \"contracts/nct v4.sol\":1679:1686  founder */\n  0x04\n    /* \"contracts/nct v4.sol\":1679:1699  founder = msg.sender */\n  dup1\n  sload\n  not(sub(shl(0xa0, 0x01), 0x01))\n  and\n    /* \"contracts/nct v4.sol\":1689:1699  msg.sender */\n  caller\n    /* \"contracts/nct v4.sol\":1679:1699  founder = msg.sender */\n  swap1\n  dup2\n  or\n  swap1\n  swap2\n  sstore\n    /* \"contracts/nct v4.sol\":1679:1686  founder */\n  0x00\n    /* \"contracts/nct v4.sol\":1710:1727  balances[founder] */\n  swap1\n  dup2\n  mstore\n    /* \"contracts/nct v4.sol\":1710:1718  balances */\n  0x05\n    /* \"contracts/nct v4.sol\":1710:1727  balances[founder] */\n  0x20\n  mstore\n  0x40\n  swap1\n  keccak256\n    /* \"contracts/nct v4.sol\":1710:1741  balances[founder] = totalSupply */\n  sstore\n    /* \"contracts/nct v4.sol\":1195:3207  contract Cryptos is ERC20Interface {\r... */\n  jump(tag_19)\ntag_2:\n  dup3\n  dup1\n  sload\n  tag_8\n  swap1\n  tag_9\n  jump\t// in\ntag_8:\n  swap1\n  0x00\n  mstore\n  keccak256(0x00, 0x20)\n  swap1\n  0x1f\n  add\n  0x20\n  swap1\n  div\n  dup2\n  add\n  swap3\n  dup3\n  tag_11\n  jumpi\n  0x00\n  dup6\n  sstore\n  jump(tag_14)\ntag_11:\n  dup3\n  0x1f\n  lt\n  tag_12\n  jumpi\n  dup1\n  mload\n  not(0xff)\n  and\n  dup4\n  dup1\n  add\n  or\n  dup6\n  sstore\n  jump(tag_14)\ntag_12:\n  dup3\n  dup1\n  add\n  0x01\n  add\n  dup6\n  sstore\n  dup3\n  iszero\n  tag_14\n  jumpi\n  swap2\n  dup3\n  add\ntag_13:\n  dup3\n  dup2\n  gt\n  iszero\n  tag_14\n  jumpi\n  dup3\n  mload\n  dup3\n  sstore\n  swap2\n  0x20\n  add\n  swap2\n  swap1\n  0x01\n  add\n  swap1\n  jump(tag_13)\ntag_14:\n  pop\n  tag_15\n  swap3\n  swap2\n  pop\n  tag_16\n  jump\t// in\ntag_15:\n  pop\n  swap1\n  jump\t// out\ntag_16:\ntag_17:\n  dup1\n  dup3\n  gt\n  iszero\n  tag_15\n  jumpi\n  0x00\n  dup2\n  sstore\n  0x01\n  add\n  jump(tag_17)\n    /* \"#utility.yul\":14:394   */\ntag_9:\n    /* \"#utility.yul\":93:94   */\n  0x01\n    /* \"#utility.yul\":89:101   */\n  dup2\n  dup2\n  shr\n  swap1\n    /* \"#utility.yul\":136:148   */\n  dup3\n  and\n  dup1\n    /* \"#utility.yul\":157:218   */\n  tag_21\n  jumpi\n    /* \"#utility.yul\":211:215   */\n  0x7f\n    /* \"#utility.yul\":203:209   */\n  dup3\n    /* \"#utility.yul\":199:216   */\n  and\n    /* \"#utility.yul\":189:216   */\n  swap2\n  pop\n    /* \"#utility.yul\":157:218   */\ntag_21:\n    /* \"#utility.yul\":264:266   */\n  0x20\n    /* \"#utility.yul\":256:262   */\n  dup3\n    /* \"#utility.yul\":253:267   */\n  lt\n    /* \"#utility.yul\":233:251   */\n  dup2\n    /* \"#utility.yul\":230:268   */\n  eq\n    /* \"#utility.yul\":227:388   */\n  iszero\n  tag_22\n  jumpi\n    /* \"#utility.yul\":310:320   */\n  0x4e487b71\n    /* \"#utility.yul\":305:308   */\n  0xe0\n    /* \"#utility.yul\":301:321   */\n  shl\n    /* \"#utility.yul\":298:299   */\n  0x00\n    /* \"#utility.yul\":291:322   */\n  mstore\n    /* \"#utility.yul\":345:349   */\n  0x22\n    /* \"#utility.yul\":342:343   */\n  0x04\n    /* \"#utility.yul\":335:350   */\n  mstore\n    /* \"#utility.yul\":373:377   */\n  0x24\n    /* \"#utility.yul\":370:371   */\n  0x00\n    /* \"#utility.yul\":363:378   */\n  revert\n    /* \"#utility.yul\":227:388   */\ntag_22:\n  pop\n    /* \"#utility.yul\":14:394   */\n  swap2\n  swap1\n  pop\n  jump\t// out\ntag_19:\n    /* \"contracts/nct v4.sol\":1195:3207  contract Cryptos is ERC20Interface {\r... */\n  dataSize(sub_0)\n  dup1\n  dataOffset(sub_0)\n  0x00\n  codecopy\n  0x00\n  return\nstop\n\nsub_0: assembly {\n        /* \"contracts/nct v4.sol\":1195:3207  contract Cryptos is ERC20Interface {\r... */\n      mstore(0x40, 0x80)\n      callvalue\n      dup1\n      iszero\n      tag_1\n      jumpi\n      0x00\n      dup1\n      revert\n    tag_1:\n      pop\n      jumpi(tag_2, lt(calldatasize, 0x04))\n      shr(0xe0, calldataload(0x00))\n      dup1\n      0x313ce567\n      gt\n      tag_14\n      jumpi\n      dup1\n      0x313ce567\n      eq\n      tag_8\n      jumpi\n      dup1\n      0x4d853ee5\n      eq\n      tag_9\n      jumpi\n      dup1\n      0x70a08231\n      eq\n      tag_10\n      jumpi\n      dup1\n      0x95d89b41\n      eq\n      tag_11\n      jumpi\n      dup1\n      0xa9059cbb\n      eq\n      tag_12\n      jumpi\n      dup1\n      0xdd62ed3e\n      eq\n      tag_13\n      jumpi\n      0x00\n      dup1\n      revert\n    tag_14:\n      dup1\n      0x06fdde03\n      eq\n      tag_3\n      jumpi\n      dup1\n      0x095ea7b3\n      eq\n      tag_4\n      jumpi\n      dup1\n      0x18160ddd\n      eq\n      tag_5\n      jumpi\n      dup1\n      0x23b872dd\n      eq\n      tag_6\n      jumpi\n      dup1\n      0x27e235e3\n      eq\n      tag_7\n      jumpi\n    tag_2:\n      0x00\n      dup1\n      revert\n        /* \"contracts/nct v4.sol\":1237:1274  string public name = \"Nations Combat\" */\n    tag_3:\n      tag_15\n      tag_16\n      jump\t// in\n    tag_15:\n      mload(0x40)\n      tag_17\n      swap2\n      swap1\n      tag_18\n      jump\t// in\n    tag_17:\n      mload(0x40)\n      dup1\n      swap2\n      sub\n      swap1\n      return\n        /* \"contracts/nct v4.sol\":2484:2820  function approve(address spender, uint256 tokens)\r... */\n    tag_4:\n      tag_19\n      tag_20\n      calldatasize\n      0x04\n      tag_21\n      jump\t// in\n    tag_20:\n      tag_22\n      jump\t// in\n    tag_19:\n      mload(0x40)\n        /* \"#utility.yul\":1613:1627   */\n      swap1\n      iszero\n        /* \"#utility.yul\":1606:1628   */\n      iszero\n        /* \"#utility.yul\":1588:1629   */\n      dup2\n      mstore\n        /* \"#utility.yul\":1576:1578   */\n      0x20\n        /* \"#utility.yul\":1561:1579   */\n      add\n        /* \"contracts/nct v4.sol\":2484:2820  function approve(address spender, uint256 tokens)\r... */\n      tag_17\n        /* \"#utility.yul\":1448:1635   */\n      jump\n        /* \"contracts/nct v4.sol\":1351:1386  uint256 public override totalSupply */\n    tag_5:\n      tag_25\n      sload(0x03)\n      dup2\n      jump\n    tag_25:\n      mload(0x40)\n        /* \"#utility.yul\":2388:2413   */\n      swap1\n      dup2\n      mstore\n        /* \"#utility.yul\":2376:2378   */\n      0x20\n        /* \"#utility.yul\":2361:2379   */\n      add\n        /* \"contracts/nct v4.sol\":1351:1386  uint256 public override totalSupply */\n      tag_17\n        /* \"#utility.yul\":2242:2419   */\n      jump\n        /* \"contracts/nct v4.sol\":2828:3204  function transferFrom(\r... */\n    tag_6:\n      tag_19\n      tag_30\n      calldatasize\n      0x04\n      tag_31\n      jump\t// in\n    tag_30:\n      tag_32\n      jump\t// in\n        /* \"contracts/nct v4.sol\":1424:1467  mapping(address => uint256) public balances */\n    tag_7:\n      tag_25\n      tag_35\n      calldatasize\n      0x04\n      tag_36\n      jump\t// in\n    tag_35:\n      mstore(0x20, 0x05)\n      0x00\n      swap1\n      dup2\n      mstore\n      0x40\n      swap1\n      keccak256\n      sload\n      dup2\n      jump\n        /* \"contracts/nct v4.sol\":1316:1344  uint256 public decimals = 18 */\n    tag_8:\n      tag_25\n      sload(0x02)\n      dup2\n      jump\n        /* \"contracts/nct v4.sol\":1395:1417  address public founder */\n    tag_9:\n      sload(0x04)\n      tag_42\n      swap1\n      sub(shl(0xa0, 0x01), 0x01)\n      and\n      dup2\n      jump\n    tag_42:\n      mload(0x40)\n      sub(shl(0xa0, 0x01), 0x01)\n        /* \"#utility.yul\":1404:1436   */\n      swap1\n      swap2\n      and\n        /* \"#utility.yul\":1386:1437   */\n      dup2\n      mstore\n        /* \"#utility.yul\":1374:1376   */\n      0x20\n        /* \"#utility.yul\":1359:1377   */\n      add\n        /* \"contracts/nct v4.sol\":1395:1417  address public founder */\n      tag_17\n        /* \"#utility.yul\":1240:1443   */\n      jump\n        /* \"contracts/nct v4.sol\":1757:1930  function balanceOf(address tokenOwner)\r... */\n    tag_10:\n      tag_25\n      tag_47\n      calldatasize\n      0x04\n      tag_36\n      jump\t// in\n    tag_47:\n      sub(shl(0xa0, 0x01), 0x01)\n        /* \"contracts/nct v4.sol\":1902:1922  balances[tokenOwner] */\n      and\n        /* \"contracts/nct v4.sol\":1862:1877  uint256 balance */\n      0x00\n        /* \"contracts/nct v4.sol\":1902:1922  balances[tokenOwner] */\n      swap1\n      dup2\n      mstore\n        /* \"contracts/nct v4.sol\":1902:1910  balances */\n      0x05\n        /* \"contracts/nct v4.sol\":1902:1922  balances[tokenOwner] */\n      0x20\n      mstore\n      0x40\n      swap1\n      keccak256\n      sload\n      swap1\n        /* \"contracts/nct v4.sol\":1757:1930  function balanceOf(address tokenOwner)\r... */\n      jump\n        /* \"contracts/nct v4.sol\":1281:1309  string public symbol = \"NCT\" */\n    tag_11:\n      tag_15\n      tag_51\n      jump\t// in\n        /* \"contracts/nct v4.sol\":1938:2278  function transfer(address to, uint256 tokens)\r... */\n    tag_12:\n      tag_19\n      tag_54\n      calldatasize\n      0x04\n      tag_21\n      jump\t// in\n    tag_54:\n      tag_55\n      jump\t// in\n        /* \"contracts/nct v4.sol\":2286:2476  function allowance(address tokenOwner, address spender)\r... */\n    tag_13:\n      tag_25\n      tag_58\n      calldatasize\n      0x04\n      tag_59\n      jump\t// in\n    tag_58:\n      sub(shl(0xa0, 0x01), 0x01)\n        /* \"contracts/nct v4.sol\":2440:2459  allowed[tokenOwner] */\n      swap2\n      dup3\n      and\n        /* \"contracts/nct v4.sol\":2408:2415  uint256 */\n      0x00\n        /* \"contracts/nct v4.sol\":2440:2459  allowed[tokenOwner] */\n      swap1\n      dup2\n      mstore\n        /* \"contracts/nct v4.sol\":2440:2447  allowed */\n      0x06\n        /* \"contracts/nct v4.sol\":2440:2459  allowed[tokenOwner] */\n      0x20\n      swap1\n      dup2\n      mstore\n      0x40\n      dup1\n      dup4\n      keccak256\n        /* \"contracts/nct v4.sol\":2440:2468  allowed[tokenOwner][spender] */\n      swap4\n      swap1\n      swap5\n      and\n      dup3\n      mstore\n      swap2\n      swap1\n      swap2\n      mstore\n      keccak256\n      sload\n      swap1\n        /* \"contracts/nct v4.sol\":2286:2476  function allowance(address tokenOwner, address spender)\r... */\n      jump\n        /* \"contracts/nct v4.sol\":1237:1274  string public name = \"Nations Combat\" */\n    tag_16:\n      0x00\n      dup1\n      sload\n      tag_62\n      swap1\n      tag_63\n      jump\t// in\n    tag_62:\n      dup1\n      0x1f\n      add\n      0x20\n      dup1\n      swap2\n      div\n      mul\n      0x20\n      add\n      mload(0x40)\n      swap1\n      dup2\n      add\n      0x40\n      mstore\n      dup1\n      swap3\n      swap2\n      swap1\n      dup2\n      dup2\n      mstore\n      0x20\n      add\n      dup3\n      dup1\n      sload\n      tag_64\n      swap1\n      tag_63\n      jump\t// in\n    tag_64:\n      dup1\n      iszero\n      tag_65\n      jumpi\n      dup1\n      0x1f\n      lt\n      tag_66\n      jumpi\n      0x0100\n      dup1\n      dup4\n      sload\n      div\n      mul\n      dup4\n      mstore\n      swap2\n      0x20\n      add\n      swap2\n      jump(tag_65)\n    tag_66:\n      dup3\n      add\n      swap2\n      swap1\n      0x00\n      mstore\n      keccak256(0x00, 0x20)\n      swap1\n    tag_67:\n      dup2\n      sload\n      dup2\n      mstore\n      swap1\n      0x01\n      add\n      swap1\n      0x20\n      add\n      dup1\n      dup4\n      gt\n      tag_67\n      jumpi\n      dup3\n      swap1\n      sub\n      0x1f\n      and\n      dup3\n      add\n      swap2\n    tag_65:\n      pop\n      pop\n      pop\n      pop\n      pop\n      dup2\n      jump\t// out\n        /* \"contracts/nct v4.sol\":2484:2820  function approve(address spender, uint256 tokens)\r... */\n    tag_22:\n        /* \"contracts/nct v4.sol\":2633:2643  msg.sender */\n      caller\n        /* \"contracts/nct v4.sol\":2586:2598  bool success */\n      0x00\n        /* \"contracts/nct v4.sol\":2624:2644  balances[msg.sender] */\n      swap1\n      dup2\n      mstore\n        /* \"contracts/nct v4.sol\":2624:2632  balances */\n      0x05\n        /* \"contracts/nct v4.sol\":2624:2644  balances[msg.sender] */\n      0x20\n      mstore\n      0x40\n      dup2\n      keccak256\n      sload\n        /* \"contracts/nct v4.sol\":2624:2654  balances[msg.sender] >= tokens */\n      dup3\n      gt\n      iszero\n        /* \"contracts/nct v4.sol\":2616:2655  require(balances[msg.sender] >= tokens) */\n      tag_69\n      jumpi\n      0x00\n      dup1\n      revert\n    tag_69:\n        /* \"contracts/nct v4.sol\":2683:2684  0 */\n      0x00\n        /* \"contracts/nct v4.sol\":2674:2680  tokens */\n      dup3\n        /* \"contracts/nct v4.sol\":2674:2684  tokens > 0 */\n      gt\n        /* \"contracts/nct v4.sol\":2666:2685  require(tokens > 0) */\n      tag_70\n      jumpi\n      0x00\n      dup1\n      revert\n    tag_70:\n        /* \"contracts/nct v4.sol\":2706:2716  msg.sender */\n      caller\n        /* \"contracts/nct v4.sol\":2698:2717  allowed[msg.sender] */\n      0x00\n      dup2\n      dup2\n      mstore\n        /* \"contracts/nct v4.sol\":2698:2705  allowed */\n      0x06\n        /* \"contracts/nct v4.sol\":2698:2717  allowed[msg.sender] */\n      0x20\n      swap1\n      dup2\n      mstore\n      0x40\n      dup1\n      dup4\n      keccak256\n      sub(shl(0xa0, 0x01), 0x01)\n        /* \"contracts/nct v4.sol\":2698:2726  allowed[msg.sender][spender] */\n      dup9\n      and\n      dup1\n      dup6\n      mstore\n      swap1\n      dup4\n      mstore\n      swap3\n      dup2\n      swap1\n      keccak256\n        /* \"contracts/nct v4.sol\":2698:2735  allowed[msg.sender][spender] = tokens */\n      dup7\n      swap1\n      sstore\n        /* \"contracts/nct v4.sol\":2753:2790  Approval(msg.sender, spender, tokens) */\n      mload\n        /* \"#utility.yul\":2388:2413   */\n      dup6\n      dup2\n      mstore\n        /* \"contracts/nct v4.sol\":2698:2726  allowed[msg.sender][spender] */\n      swap2\n      swap3\n        /* \"contracts/nct v4.sol\":2706:2716  msg.sender */\n      swap2\n        /* \"contracts/nct v4.sol\":2753:2790  Approval(msg.sender, spender, tokens) */\n      0x8c5be1e5ebec7d5bd14f71427d1e84f3dd0314c0f7b2291e5b200ac8c7c3b925\n      swap2\n        /* \"#utility.yul\":2361:2379   */\n      add\n        /* \"contracts/nct v4.sol\":2753:2790  Approval(msg.sender, spender, tokens) */\n    tag_71:\n      mload(0x40)\n      dup1\n      swap2\n      sub\n      swap1\n      log3\n      pop\n        /* \"contracts/nct v4.sol\":2808:2812  true */\n      0x01\n        /* \"contracts/nct v4.sol\":2484:2820  function approve(address spender, uint256 tokens)\r... */\n      swap3\n      swap2\n      pop\n      pop\n      jump\t// out\n        /* \"contracts/nct v4.sol\":2828:3204  function transferFrom(\r... */\n    tag_32:\n      sub(shl(0xa0, 0x01), 0x01)\n        /* \"contracts/nct v4.sol\":2992:3005  allowed[from] */\n      dup1\n      dup5\n      and\n        /* \"contracts/nct v4.sol\":2959:2971  bool success */\n      0x00\n        /* \"contracts/nct v4.sol\":2992:3005  allowed[from] */\n      swap1\n      dup2\n      mstore\n        /* \"contracts/nct v4.sol\":2992:2999  allowed */\n      0x06\n        /* \"contracts/nct v4.sol\":2992:3005  allowed[from] */\n      0x20\n      swap1\n      dup2\n      mstore\n      0x40\n      dup1\n      dup4\n      keccak256\n        /* \"contracts/nct v4.sol\":2992:3009  allowed[from][to] */\n      swap4\n      dup7\n      and\n      dup4\n      mstore\n      swap3\n      swap1\n      mstore\n      swap1\n      dup2\n      keccak256\n      sload\n        /* \"contracts/nct v4.sol\":2992:3019  allowed[from][to] >= tokens */\n      dup3\n      gt\n      iszero\n        /* \"contracts/nct v4.sol\":2984:3020  require(allowed[from][to] >= tokens) */\n      tag_73\n      jumpi\n      0x00\n      dup1\n      revert\n    tag_73:\n      sub(shl(0xa0, 0x01), 0x01)\n        /* \"contracts/nct v4.sol\":3039:3053  balances[from] */\n      dup5\n      and\n      0x00\n      swap1\n      dup2\n      mstore\n        /* \"contracts/nct v4.sol\":3039:3047  balances */\n      0x05\n        /* \"contracts/nct v4.sol\":3039:3053  balances[from] */\n      0x20\n      mstore\n      0x40\n      swap1\n      keccak256\n      sload\n        /* \"contracts/nct v4.sol\":3039:3063  balances[from] >= tokens */\n      dup3\n      gt\n      iszero\n        /* \"contracts/nct v4.sol\":3031:3064  require(balances[from] >= tokens) */\n      tag_74\n      jumpi\n      0x00\n      dup1\n      revert\n    tag_74:\n      sub(shl(0xa0, 0x01), 0x01)\n        /* \"contracts/nct v4.sol\":3077:3091  balances[from] */\n      dup5\n      and\n      0x00\n      swap1\n      dup2\n      mstore\n        /* \"contracts/nct v4.sol\":3077:3085  balances */\n      0x05\n        /* \"contracts/nct v4.sol\":3077:3091  balances[from] */\n      0x20\n      mstore\n      0x40\n      dup2\n      keccak256\n        /* \"contracts/nct v4.sol\":3077:3101  balances[from] -= tokens */\n      dup1\n      sload\n        /* \"contracts/nct v4.sol\":3095:3101  tokens */\n      dup5\n      swap3\n        /* \"contracts/nct v4.sol\":3077:3091  balances[from] */\n      swap1\n        /* \"contracts/nct v4.sol\":3077:3101  balances[from] -= tokens */\n      tag_75\n      swap1\n        /* \"contracts/nct v4.sol\":3095:3101  tokens */\n      dup5\n      swap1\n        /* \"contracts/nct v4.sol\":3077:3101  balances[from] -= tokens */\n      tag_76\n      jump\t// in\n    tag_75:\n      swap1\n      swap2\n      sstore\n      pop\n      pop\n      sub(shl(0xa0, 0x01), 0x01)\n        /* \"contracts/nct v4.sol\":3112:3124  balances[to] */\n      dup4\n      and\n      0x00\n      swap1\n      dup2\n      mstore\n        /* \"contracts/nct v4.sol\":3112:3120  balances */\n      0x05\n        /* \"contracts/nct v4.sol\":3112:3124  balances[to] */\n      0x20\n      mstore\n      0x40\n      dup2\n      keccak256\n        /* \"contracts/nct v4.sol\":3112:3134  balances[to] += tokens */\n      dup1\n      sload\n        /* \"contracts/nct v4.sol\":3128:3134  tokens */\n      dup5\n      swap3\n        /* \"contracts/nct v4.sol\":3112:3124  balances[to] */\n      swap1\n        /* \"contracts/nct v4.sol\":3112:3134  balances[to] += tokens */\n      tag_77\n      swap1\n        /* \"contracts/nct v4.sol\":3128:3134  tokens */\n      dup5\n      swap1\n        /* \"contracts/nct v4.sol\":3112:3134  balances[to] += tokens */\n      tag_78\n      jump\t// in\n    tag_77:\n      swap1\n      swap2\n      sstore\n      pop\n      pop\n      sub(shl(0xa0, 0x01), 0x01)\n        /* \"contracts/nct v4.sol\":3145:3158  allowed[from] */\n      dup1\n      dup6\n      and\n      0x00\n      swap1\n      dup2\n      mstore\n        /* \"contracts/nct v4.sol\":3145:3152  allowed */\n      0x06\n        /* \"contracts/nct v4.sol\":3145:3158  allowed[from] */\n      0x20\n      swap1\n      dup2\n      mstore\n      0x40\n      dup1\n      dup4\n      keccak256\n        /* \"contracts/nct v4.sol\":3145:3162  allowed[from][to] */\n      swap4\n      dup8\n      and\n      dup4\n      mstore\n      swap3\n      swap1\n      mstore\n      swap1\n      dup2\n      keccak256\n        /* \"contracts/nct v4.sol\":3145:3172  allowed[from][to] -= tokens */\n      dup1\n      sload\n        /* \"contracts/nct v4.sol\":3166:3172  tokens */\n      dup5\n      swap3\n        /* \"contracts/nct v4.sol\":3145:3158  allowed[from] */\n      swap1\n        /* \"contracts/nct v4.sol\":3145:3172  allowed[from][to] -= tokens */\n      tag_79\n      swap1\n        /* \"contracts/nct v4.sol\":3166:3172  tokens */\n      dup5\n      swap1\n        /* \"contracts/nct v4.sol\":3145:3172  allowed[from][to] -= tokens */\n      tag_76\n      jump\t// in\n    tag_79:\n      swap1\n      swap2\n      sstore\n      pop\n        /* \"contracts/nct v4.sol\":3192:3196  true */\n      0x01\n      swap6\n        /* \"contracts/nct v4.sol\":2828:3204  function transferFrom(\r... */\n      swap5\n      pop\n      pop\n      pop\n      pop\n      pop\n      jump\t// out\n        /* \"contracts/nct v4.sol\":1281:1309  string public symbol = \"NCT\" */\n    tag_51:\n      0x01\n      dup1\n      sload\n      tag_62\n      swap1\n      tag_63\n      jump\t// in\n        /* \"contracts/nct v4.sol\":1938:2278  function transfer(address to, uint256 tokens)\r... */\n    tag_55:\n        /* \"contracts/nct v4.sol\":2100:2110  msg.sender */\n      caller\n        /* \"contracts/nct v4.sol\":2053:2065  bool success */\n      0x00\n        /* \"contracts/nct v4.sol\":2091:2111  balances[msg.sender] */\n      swap1\n      dup2\n      mstore\n        /* \"contracts/nct v4.sol\":2091:2099  balances */\n      0x05\n        /* \"contracts/nct v4.sol\":2091:2111  balances[msg.sender] */\n      0x20\n      mstore\n      0x40\n      dup2\n      keccak256\n      sload\n        /* \"contracts/nct v4.sol\":2091:2121  balances[msg.sender] >= tokens */\n      dup3\n      gt\n      iszero\n        /* \"contracts/nct v4.sol\":2083:2122  require(balances[msg.sender] >= tokens) */\n      tag_87\n      jumpi\n      0x00\n      dup1\n      revert\n    tag_87:\n      sub(shl(0xa0, 0x01), 0x01)\n        /* \"contracts/nct v4.sol\":2135:2147  balances[to] */\n      dup4\n      and\n      0x00\n      swap1\n      dup2\n      mstore\n        /* \"contracts/nct v4.sol\":2135:2143  balances */\n      0x05\n        /* \"contracts/nct v4.sol\":2135:2147  balances[to] */\n      0x20\n      mstore\n      0x40\n      dup2\n      keccak256\n        /* \"contracts/nct v4.sol\":2135:2157  balances[to] += tokens */\n      dup1\n      sload\n        /* \"contracts/nct v4.sol\":2151:2157  tokens */\n      dup5\n      swap3\n        /* \"contracts/nct v4.sol\":2135:2147  balances[to] */\n      swap1\n        /* \"contracts/nct v4.sol\":2135:2157  balances[to] += tokens */\n      tag_88\n      swap1\n        /* \"contracts/nct v4.sol\":2151:2157  tokens */\n      dup5\n      swap1\n        /* \"contracts/nct v4.sol\":2135:2157  balances[to] += tokens */\n      tag_78\n      jump\t// in\n    tag_88:\n      swap1\n      swap2\n      sstore\n      pop\n      pop\n        /* \"contracts/nct v4.sol\":2177:2187  msg.sender */\n      caller\n        /* \"contracts/nct v4.sol\":2168:2188  balances[msg.sender] */\n      0x00\n      swap1\n      dup2\n      mstore\n        /* \"contracts/nct v4.sol\":2168:2176  balances */\n      0x05\n        /* \"contracts/nct v4.sol\":2168:2188  balances[msg.sender] */\n      0x20\n      mstore\n      0x40\n      dup2\n      keccak256\n        /* \"contracts/nct v4.sol\":2168:2198  balances[msg.sender] -= tokens */\n      dup1\n      sload\n        /* \"contracts/nct v4.sol\":2192:2198  tokens */\n      dup5\n      swap3\n        /* \"contracts/nct v4.sol\":2168:2188  balances[msg.sender] */\n      swap1\n        /* \"contracts/nct v4.sol\":2168:2198  balances[msg.sender] -= tokens */\n      tag_89\n      swap1\n        /* \"contracts/nct v4.sol\":2192:2198  tokens */\n      dup5\n      swap1\n        /* \"contracts/nct v4.sol\":2168:2198  balances[msg.sender] -= tokens */\n      tag_76\n      jump\t// in\n    tag_89:\n      swap1\n      swap2\n      sstore\n      pop\n      pop\n        /* \"contracts/nct v4.sol\":2214:2246  Transfer(msg.sender, to, tokens) */\n      mload(0x40)\n        /* \"#utility.yul\":2388:2413   */\n      dup3\n      dup2\n      mstore\n      sub(shl(0xa0, 0x01), 0x01)\n        /* \"contracts/nct v4.sol\":2214:2246  Transfer(msg.sender, to, tokens) */\n      dup5\n      and\n      swap1\n        /* \"contracts/nct v4.sol\":2223:2233  msg.sender */\n      caller\n      swap1\n        /* \"contracts/nct v4.sol\":2214:2246  Transfer(msg.sender, to, tokens) */\n      0xddf252ad1be2c89b69c2b068fc378daa952ba7f163c4a11628f55a4df523b3ef\n      swap1\n        /* \"#utility.yul\":2376:2378   */\n      0x20\n        /* \"#utility.yul\":2361:2379   */\n      add\n        /* \"contracts/nct v4.sol\":2214:2246  Transfer(msg.sender, to, tokens) */\n      tag_71\n        /* \"#utility.yul\":2242:2419   */\n      jump\n        /* \"#utility.yul\":14:187   */\n    tag_93:\n        /* \"#utility.yul\":82:102   */\n      dup1\n      calldataload\n      sub(shl(0xa0, 0x01), 0x01)\n        /* \"#utility.yul\":131:162   */\n      dup2\n      and\n        /* \"#utility.yul\":121:163   */\n      dup2\n      eq\n        /* \"#utility.yul\":111:181   */\n      tag_95\n      jumpi\n        /* \"#utility.yul\":177:178   */\n      0x00\n        /* \"#utility.yul\":174:175   */\n      dup1\n        /* \"#utility.yul\":167:179   */\n      revert\n        /* \"#utility.yul\":111:181   */\n    tag_95:\n        /* \"#utility.yul\":14:187   */\n      swap2\n      swap1\n      pop\n      jump\t// out\n        /* \"#utility.yul\":192:378   */\n    tag_36:\n        /* \"#utility.yul\":251:257   */\n      0x00\n        /* \"#utility.yul\":304:306   */\n      0x20\n        /* \"#utility.yul\":292:301   */\n      dup3\n        /* \"#utility.yul\":283:290   */\n      dup5\n        /* \"#utility.yul\":279:302   */\n      sub\n        /* \"#utility.yul\":275:307   */\n      slt\n        /* \"#utility.yul\":272:324   */\n      iszero\n      tag_97\n      jumpi\n        /* \"#utility.yul\":320:321   */\n      0x00\n        /* \"#utility.yul\":317:318   */\n      dup1\n        /* \"#utility.yul\":310:322   */\n      revert\n        /* \"#utility.yul\":272:324   */\n    tag_97:\n        /* \"#utility.yul\":343:372   */\n      tag_98\n        /* \"#utility.yul\":362:371   */\n      dup3\n        /* \"#utility.yul\":343:372   */\n      tag_93\n      jump\t// in\n    tag_98:\n        /* \"#utility.yul\":333:372   */\n      swap4\n        /* \"#utility.yul\":192:378   */\n      swap3\n      pop\n      pop\n      pop\n      jump\t// out\n        /* \"#utility.yul\":383:643   */\n    tag_59:\n        /* \"#utility.yul\":451:457   */\n      0x00\n        /* \"#utility.yul\":459:465   */\n      dup1\n        /* \"#utility.yul\":512:514   */\n      0x40\n        /* \"#utility.yul\":500:509   */\n      dup4\n        /* \"#utility.yul\":491:498   */\n      dup6\n        /* \"#utility.yul\":487:510   */\n      sub\n        /* \"#utility.yul\":483:515   */\n      slt\n        /* \"#utility.yul\":480:532   */\n      iszero\n      tag_100\n      jumpi\n        /* \"#utility.yul\":528:529   */\n      0x00\n        /* \"#utility.yul\":525:526   */\n      dup1\n        /* \"#utility.yul\":518:530   */\n      revert\n        /* \"#utility.yul\":480:532   */\n    tag_100:\n        /* \"#utility.yul\":551:580   */\n      tag_101\n        /* \"#utility.yul\":570:579   */\n      dup4\n        /* \"#utility.yul\":551:580   */\n      tag_93\n      jump\t// in\n    tag_101:\n        /* \"#utility.yul\":541:580   */\n      swap2\n      pop\n        /* \"#utility.yul\":599:637   */\n      tag_102\n        /* \"#utility.yul\":633:635   */\n      0x20\n        /* \"#utility.yul\":622:631   */\n      dup5\n        /* \"#utility.yul\":618:636   */\n      add\n        /* \"#utility.yul\":599:637   */\n      tag_93\n      jump\t// in\n    tag_102:\n        /* \"#utility.yul\":589:637   */\n      swap1\n      pop\n        /* \"#utility.yul\":383:643   */\n      swap3\n      pop\n      swap3\n      swap1\n      pop\n      jump\t// out\n        /* \"#utility.yul\":648:976   */\n    tag_31:\n        /* \"#utility.yul\":725:731   */\n      0x00\n        /* \"#utility.yul\":733:739   */\n      dup1\n        /* \"#utility.yul\":741:747   */\n      0x00\n        /* \"#utility.yul\":794:796   */\n      0x60\n        /* \"#utility.yul\":782:791   */\n      dup5\n        /* \"#utility.yul\":773:780   */\n      dup7\n        /* \"#utility.yul\":769:792   */\n      sub\n        /* \"#utility.yul\":765:797   */\n      slt\n        /* \"#utility.yul\":762:814   */\n      iszero\n      tag_104\n      jumpi\n        /* \"#utility.yul\":810:811   */\n      0x00\n        /* \"#utility.yul\":807:808   */\n      dup1\n        /* \"#utility.yul\":800:812   */\n      revert\n        /* \"#utility.yul\":762:814   */\n    tag_104:\n        /* \"#utility.yul\":833:862   */\n      tag_105\n        /* \"#utility.yul\":852:861   */\n      dup5\n        /* \"#utility.yul\":833:862   */\n      tag_93\n      jump\t// in\n    tag_105:\n        /* \"#utility.yul\":823:862   */\n      swap3\n      pop\n        /* \"#utility.yul\":881:919   */\n      tag_106\n        /* \"#utility.yul\":915:917   */\n      0x20\n        /* \"#utility.yul\":904:913   */\n      dup6\n        /* \"#utility.yul\":900:918   */\n      add\n        /* \"#utility.yul\":881:919   */\n      tag_93\n      jump\t// in\n    tag_106:\n        /* \"#utility.yul\":871:919   */\n      swap2\n      pop\n        /* \"#utility.yul\":966:968   */\n      0x40\n        /* \"#utility.yul\":955:964   */\n      dup5\n        /* \"#utility.yul\":951:969   */\n      add\n        /* \"#utility.yul\":938:970   */\n      calldataload\n        /* \"#utility.yul\":928:970   */\n      swap1\n      pop\n        /* \"#utility.yul\":648:976   */\n      swap3\n      pop\n      swap3\n      pop\n      swap3\n      jump\t// out\n        /* \"#utility.yul\":981:1235   */\n    tag_21:\n        /* \"#utility.yul\":1049:1055   */\n      0x00\n        /* \"#utility.yul\":1057:1063   */\n      dup1\n        /* \"#utility.yul\":1110:1112   */\n      0x40\n        /* \"#utility.yul\":1098:1107   */\n      dup4\n        /* \"#utility.yul\":1089:1096   */\n      dup6\n        /* \"#utility.yul\":1085:1108   */\n      sub\n        /* \"#utility.yul\":1081:1113   */\n      slt\n        /* \"#utility.yul\":1078:1130   */\n      iszero\n      tag_108\n      jumpi\n        /* \"#utility.yul\":1126:1127   */\n      0x00\n        /* \"#utility.yul\":1123:1124   */\n      dup1\n        /* \"#utility.yul\":1116:1128   */\n      revert\n        /* \"#utility.yul\":1078:1130   */\n    tag_108:\n        /* \"#utility.yul\":1149:1178   */\n      tag_109\n        /* \"#utility.yul\":1168:1177   */\n      dup4\n        /* \"#utility.yul\":1149:1178   */\n      tag_93\n      jump\t// in\n    tag_109:\n        /* \"#utility.yul\":1139:1178   */\n      swap5\n        /* \"#utility.yul\":1225:1227   */\n      0x20\n        /* \"#utility.yul\":1210:1228   */\n      swap4\n      swap1\n      swap4\n      add\n        /* \"#utility.yul\":1197:1229   */\n      calldataload\n      swap4\n      pop\n      pop\n      pop\n        /* \"#utility.yul\":981:1235   */\n      jump\t// out\n        /* \"#utility.yul\":1640:2237   */\n    tag_18:\n        /* \"#utility.yul\":1752:1756   */\n      0x00\n        /* \"#utility.yul\":1781:1783   */\n      0x20\n        /* \"#utility.yul\":1810:1812   */\n      dup1\n        /* \"#utility.yul\":1799:1808   */\n      dup4\n        /* \"#utility.yul\":1792:1813   */\n      mstore\n        /* \"#utility.yul\":1842:1848   */\n      dup4\n        /* \"#utility.yul\":1836:1849   */\n      mload\n        /* \"#utility.yul\":1885:1891   */\n      dup1\n        /* \"#utility.yul\":1880:1882   */\n      dup3\n        /* \"#utility.yul\":1869:1878   */\n      dup6\n        /* \"#utility.yul\":1865:1883   */\n      add\n        /* \"#utility.yul\":1858:1892   */\n      mstore\n        /* \"#utility.yul\":1910:1911   */\n      0x00\n        /* \"#utility.yul\":1920:2060   */\n    tag_113:\n        /* \"#utility.yul\":1934:1940   */\n      dup2\n        /* \"#utility.yul\":1931:1932   */\n      dup2\n        /* \"#utility.yul\":1928:1941   */\n      lt\n        /* \"#utility.yul\":1920:2060   */\n      iszero\n      tag_115\n      jumpi\n        /* \"#utility.yul\":2029:2043   */\n      dup6\n      dup2\n      add\n        /* \"#utility.yul\":2025:2048   */\n      dup4\n      add\n        /* \"#utility.yul\":2019:2049   */\n      mload\n        /* \"#utility.yul\":1995:2012   */\n      dup6\n      dup3\n      add\n        /* \"#utility.yul\":2014:2016   */\n      0x40\n        /* \"#utility.yul\":1991:2017   */\n      add\n        /* \"#utility.yul\":1984:2050   */\n      mstore\n        /* \"#utility.yul\":1949:1959   */\n      dup3\n      add\n        /* \"#utility.yul\":1920:2060   */\n      jump(tag_113)\n    tag_115:\n        /* \"#utility.yul\":2078:2084   */\n      dup2\n        /* \"#utility.yul\":2075:2076   */\n      dup2\n        /* \"#utility.yul\":2072:2085   */\n      gt\n        /* \"#utility.yul\":2069:2160   */\n      iszero\n      tag_116\n      jumpi\n        /* \"#utility.yul\":2148:2149   */\n      0x00\n        /* \"#utility.yul\":2143:2145   */\n      0x40\n        /* \"#utility.yul\":2134:2140   */\n      dup4\n        /* \"#utility.yul\":2123:2132   */\n      dup8\n        /* \"#utility.yul\":2119:2141   */\n      add\n        /* \"#utility.yul\":2115:2146   */\n      add\n        /* \"#utility.yul\":2108:2150   */\n      mstore\n        /* \"#utility.yul\":2069:2160   */\n    tag_116:\n      pop\n        /* \"#utility.yul\":2221:2223   */\n      0x1f\n        /* \"#utility.yul\":2200:2215   */\n      add\n      not(0x1f)\n        /* \"#utility.yul\":2196:2225   */\n      and\n        /* \"#utility.yul\":2181:2226   */\n      swap3\n      swap1\n      swap3\n      add\n        /* \"#utility.yul\":2228:2230   */\n      0x40\n        /* \"#utility.yul\":2177:2231   */\n      add\n      swap4\n        /* \"#utility.yul\":1640:2237   */\n      swap3\n      pop\n      pop\n      pop\n      jump\t// out\n        /* \"#utility.yul\":2424:2552   */\n    tag_78:\n        /* \"#utility.yul\":2464:2467   */\n      0x00\n        /* \"#utility.yul\":2495:2496   */\n      dup3\n        /* \"#utility.yul\":2491:2497   */\n      not\n        /* \"#utility.yul\":2488:2489   */\n      dup3\n        /* \"#utility.yul\":2485:2498   */\n      gt\n        /* \"#utility.yul\":2482:2521   */\n      iszero\n      tag_120\n      jumpi\n        /* \"#utility.yul\":2501:2519   */\n      tag_120\n      tag_121\n      jump\t// in\n    tag_120:\n      pop\n        /* \"#utility.yul\":2537:2546   */\n      add\n      swap1\n        /* \"#utility.yul\":2424:2552   */\n      jump\t// out\n        /* \"#utility.yul\":2557:2682   */\n    tag_76:\n        /* \"#utility.yul\":2597:2601   */\n      0x00\n        /* \"#utility.yul\":2625:2626   */\n      dup3\n        /* \"#utility.yul\":2622:2623   */\n      dup3\n        /* \"#utility.yul\":2619:2627   */\n      lt\n        /* \"#utility.yul\":2616:2650   */\n      iszero\n      tag_124\n      jumpi\n        /* \"#utility.yul\":2630:2648   */\n      tag_124\n      tag_121\n      jump\t// in\n    tag_124:\n      pop\n        /* \"#utility.yul\":2667:2676   */\n      sub\n      swap1\n        /* \"#utility.yul\":2557:2682   */\n      jump\t// out\n        /* \"#utility.yul\":2687:3067   */\n    tag_63:\n        /* \"#utility.yul\":2766:2767   */\n      0x01\n        /* \"#utility.yul\":2762:2774   */\n      dup2\n      dup2\n      shr\n      swap1\n        /* \"#utility.yul\":2809:2821   */\n      dup3\n      and\n      dup1\n        /* \"#utility.yul\":2830:2891   */\n      tag_126\n      jumpi\n        /* \"#utility.yul\":2884:2888   */\n      0x7f\n        /* \"#utility.yul\":2876:2882   */\n      dup3\n        /* \"#utility.yul\":2872:2889   */\n      and\n        /* \"#utility.yul\":2862:2889   */\n      swap2\n      pop\n        /* \"#utility.yul\":2830:2891   */\n    tag_126:\n        /* \"#utility.yul\":2937:2939   */\n      0x20\n        /* \"#utility.yul\":2929:2935   */\n      dup3\n        /* \"#utility.yul\":2926:2940   */\n      lt\n        /* \"#utility.yul\":2906:2924   */\n      dup2\n        /* \"#utility.yul\":2903:2941   */\n      eq\n        /* \"#utility.yul\":2900:3061   */\n      iszero\n      tag_127\n      jumpi\n        /* \"#utility.yul\":2983:2993   */\n      0x4e487b71\n        /* \"#utility.yul\":2978:2981   */\n      0xe0\n        /* \"#utility.yul\":2974:2994   */\n      shl\n        /* \"#utility.yul\":2971:2972   */\n      0x00\n        /* \"#utility.yul\":2964:2995   */\n      mstore\n        /* \"#utility.yul\":3018:3022   */\n      0x22\n        /* \"#utility.yul\":3015:3016   */\n      0x04\n        /* \"#utility.yul\":3008:3023   */\n      mstore\n        /* \"#utility.yul\":3046:3050   */\n      0x24\n        /* \"#utility.yul\":3043:3044   */\n      0x00\n        /* \"#utility.yul\":3036:3051   */\n      revert\n        /* \"#utility.yul\":2900:3061   */\n    tag_127:\n      pop\n        /* \"#utility.yul\":2687:3067   */\n      swap2\n      swap1\n      pop\n      jump\t// out\n        /* \"#utility.yul\":3072:3199   */\n    tag_121:\n        /* \"#utility.yul\":3133:3143   */\n      0x4e487b71\n        /* \"#utility.yul\":3128:3131   */\n      0xe0\n        /* \"#utility.yul\":3124:3144   */\n      shl\n        /* \"#utility.yul\":3121:3122   */\n      0x00\n        /* \"#utility.yul\":3114:3145   */\n      mstore\n        /* \"#utility.yul\":3164:3168   */\n      0x11\n        /* \"#utility.yul\":3161:3162   */\n      0x04\n        /* \"#utility.yul\":3154:3169   */\n      mstore\n        /* \"#utility.yul\":3188:3192   */\n      0x24\n        /* \"#utility.yul\":3185:3186   */\n      0x00\n        /* \"#utility.yul\":3178:3193   */\n      revert\n\n    auxdata: 0xa26469706673582212209b9d884ffb5b1d93a5945771498def20c4a21b0ac1a3835550ee3843f610197464736f6c63430008070033\n}\n",
				"bytecode": {
					"linkReferences": {},
					"object": "60c0604052600e60808190526d13985d1a5bdb9cc810dbdb58985d60921b60a090815261002f91600091906100a7565b50604080518082019091526003808252621390d560ea1b602090920191825261005a916001916100a7565b50601260025534801561006c57600080fd5b506a295be96e640669720000006003819055600480546001600160a01b0319163390811790915560009081526005602052604090205561017b565b8280546100b390610140565b90600052602060002090601f0160209004810192826100d5576000855561011b565b82601f106100ee57805160ff191683800117855561011b565b8280016001018555821561011b579182015b8281111561011b578251825591602001919060010190610100565b5061012792915061012b565b5090565b5b80821115610127576000815560010161012c565b600181811c9082168061015457607f821691505b6020821081141561017557634e487b7160e01b600052602260045260246000fd5b50919050565b6106988061018a6000396000f3fe608060405234801561001057600080fd5b50600436106100a95760003560e01c8063313ce56711610071578063313ce567146101395780634d853ee51461014257806370a082311461016d57806395d89b4114610196578063a9059cbb1461019e578063dd62ed3e146101b157600080fd5b806306fdde03146100ae578063095ea7b3146100cc57806318160ddd146100ef57806323b872dd1461010657806327e235e314610119575b600080fd5b6100b66101ea565b6040516100c3919061058d565b60405180910390f35b6100df6100da366004610563565b610278565b60405190151581526020016100c3565b6100f860035481565b6040519081526020016100c3565b6100df610114366004610527565b610306565b6100f86101273660046104d2565b60056020526000908152604090205481565b6100f860025481565b600454610155906001600160a01b031681565b6040516001600160a01b0390911681526020016100c3565b6100f861017b3660046104d2565b6001600160a01b031660009081526005602052604090205490565b6100b66103ff565b6100df6101ac366004610563565b61040c565b6100f86101bf3660046104f4565b6001600160a01b03918216600090815260066020908152604080832093909416825291909152205490565b600080546101f790610611565b80601f016020809104026020016040519081016040528092919081815260200182805461022390610611565b80156102705780601f1061024557610100808354040283529160200191610270565b820191906000526020600020905b81548152906001019060200180831161025357829003601f168201915b505050505081565b3360009081526005602052604081205482111561029457600080fd5b600082116102a157600080fd5b3360008181526006602090815260408083206001600160a01b03881680855290835292819020869055518581529192917f8c5be1e5ebec7d5bd14f71427d1e84f3dd0314c0f7b2291e5b200ac8c7c3b92591015b60405180910390a350600192915050565b6001600160a01b03808416600090815260066020908152604080832093861683529290529081205482111561033a57600080fd5b6001600160a01b03841660009081526005602052604090205482111561035f57600080fd5b6001600160a01b038416600090815260056020526040812080548492906103879084906105fa565b90915550506001600160a01b038316600090815260056020526040812080548492906103b49084906105e2565b90915550506001600160a01b038085166000908152600660209081526040808320938716835292905290812080548492906103f09084906105fa565b90915550600195945050505050565b600180546101f790610611565b3360009081526005602052604081205482111561042857600080fd5b6001600160a01b038316600090815260056020526040812080548492906104509084906105e2565b909155505033600090815260056020526040812080548492906104749084906105fa565b90915550506040518281526001600160a01b0384169033907fddf252ad1be2c89b69c2b068fc378daa952ba7f163c4a11628f55a4df523b3ef906020016102f5565b80356001600160a01b03811681146104cd57600080fd5b919050565b6000602082840312156104e457600080fd5b6104ed826104b6565b9392505050565b6000806040838503121561050757600080fd5b610510836104b6565b915061051e602084016104b6565b90509250929050565b60008060006060848603121561053c57600080fd5b610545846104b6565b9250610553602085016104b6565b9150604084013590509250925092565b6000806040838503121561057657600080fd5b61057f836104b6565b946020939093013593505050565b600060208083528351808285015260005b818110156105ba5785810183015185820160400152820161059e565b818111156105cc576000604083870101525b50601f01601f1916929092016040019392505050565b600082198211156105f5576105f561064c565b500190565b60008282101561060c5761060c61064c565b500390565b600181811c9082168061062557607f821691505b6020821081141561064657634e487b7160e01b600052602260045260246000fd5b50919050565b634e487b7160e01b600052601160045260246000fdfea26469706673582212209b9d884ffb5b1d93a5945771498def20c4a21b0ac1a3835550ee3843f610197464736f6c63430008070033",
					"opcodes": "PUSH1 0xC0 PUSH1 0x40 MSTORE PUSH1 0xE PUSH1 0x80 DUP2 SWAP1 MSTORE PUSH14 0x13985D1A5BDB9CC810DBDB58985D PUSH1 0x92 SHL PUSH1 0xA0 SWAP1 DUP2 MSTORE PUSH2 0x2F SWAP2 PUSH1 0x0 SWAP2 SWAP1 PUSH2 0xA7 JUMP JUMPDEST POP PUSH1 0x40 DUP1 MLOAD DUP1 DUP3 ADD SWAP1 SWAP2 MSTORE PUSH1 0x3 DUP1 DUP3 MSTORE PUSH3 0x1390D5 PUSH1 0xEA SHL PUSH1 0x20 SWAP1 SWAP3 ADD SWAP2 DUP3 MSTORE PUSH2 0x5A SWAP2 PUSH1 0x1 SWAP2 PUSH2 0xA7 JUMP JUMPDEST POP PUSH1 0x12 PUSH1 0x2 SSTORE CALLVALUE DUP1 ISZERO PUSH2 0x6C JUMPI PUSH1 0x0 DUP1 REVERT JUMPDEST POP PUSH11 0x295BE96E64066972000000 PUSH1 0x3 DUP2 SWAP1 SSTORE PUSH1 0x4 DUP1 SLOAD PUSH1 0x1 PUSH1 0x1 PUSH1 0xA0 SHL SUB NOT AND CALLER SWAP1 DUP2 OR SWAP1 SWAP2 SSTORE PUSH1 0x0 SWAP1 DUP2 MSTORE PUSH1 0x5 PUSH1 0x20 MSTORE PUSH1 0x40 SWAP1 KECCAK256 SSTORE PUSH2 0x17B JUMP JUMPDEST DUP3 DUP1 SLOAD PUSH2 0xB3 SWAP1 PUSH2 0x140 JUMP JUMPDEST SWAP1 PUSH1 0x0 MSTORE PUSH1 0x20 PUSH1 0x0 KECCAK256 SWAP1 PUSH1 0x1F ADD PUSH1 0x20 SWAP1 DIV DUP2 ADD SWAP3 DUP3 PUSH2 0xD5 JUMPI PUSH1 0x0 DUP6 SSTORE PUSH2 0x11B JUMP JUMPDEST DUP3 PUSH1 0x1F LT PUSH2 0xEE JUMPI DUP1 MLOAD PUSH1 0xFF NOT AND DUP4 DUP1 ADD OR DUP6 SSTORE PUSH2 0x11B JUMP JUMPDEST DUP3 DUP1 ADD PUSH1 0x1 ADD DUP6 SSTORE DUP3 ISZERO PUSH2 0x11B JUMPI SWAP2 DUP3 ADD JUMPDEST DUP3 DUP2 GT ISZERO PUSH2 0x11B JUMPI DUP3 MLOAD DUP3 SSTORE SWAP2 PUSH1 0x20 ADD SWAP2 SWAP1 PUSH1 0x1 ADD SWAP1 PUSH2 0x100 JUMP JUMPDEST POP PUSH2 0x127 SWAP3 SWAP2 POP PUSH2 0x12B JUMP JUMPDEST POP SWAP1 JUMP JUMPDEST JUMPDEST DUP1 DUP3 GT ISZERO PUSH2 0x127 JUMPI PUSH1 0x0 DUP2 SSTORE PUSH1 0x1 ADD PUSH2 0x12C JUMP JUMPDEST PUSH1 0x1 DUP2 DUP2 SHR SWAP1 DUP3 AND DUP1 PUSH2 0x154 JUMPI PUSH1 0x7F DUP3 AND SWAP2 POP JUMPDEST PUSH1 0x20 DUP3 LT DUP2 EQ ISZERO PUSH2 0x175 JUMPI PUSH4 0x4E487B71 PUSH1 0xE0 SHL PUSH1 0x0 MSTORE PUSH1 0x22 PUSH1 0x4 MSTORE PUSH1 0x24 PUSH1 0x0 REVERT JUMPDEST POP SWAP2 SWAP1 POP JUMP JUMPDEST PUSH2 0x698 DUP1 PUSH2 0x18A PUSH1 0x0 CODECOPY PUSH1 0x0 RETURN INVALID PUSH1 0x80 PUSH1 0x40 MSTORE CALLVALUE DUP1 ISZERO PUSH2 0x10 JUMPI PUSH1 0x0 DUP1 REVERT JUMPDEST POP PUSH1 0x4 CALLDATASIZE LT PUSH2 0xA9 JUMPI PUSH1 0x0 CALLDATALOAD PUSH1 0xE0 SHR DUP1 PUSH4 0x313CE567 GT PUSH2 0x71 JUMPI DUP1 PUSH4 0x313CE567 EQ PUSH2 0x139 JUMPI DUP1 PUSH4 0x4D853EE5 EQ PUSH2 0x142 JUMPI DUP1 PUSH4 0x70A08231 EQ PUSH2 0x16D JUMPI DUP1 PUSH4 0x95D89B41 EQ PUSH2 0x196 JUMPI DUP1 PUSH4 0xA9059CBB EQ PUSH2 0x19E JUMPI DUP1 PUSH4 0xDD62ED3E EQ PUSH2 0x1B1 JUMPI PUSH1 0x0 DUP1 REVERT JUMPDEST DUP1 PUSH4 0x6FDDE03 EQ PUSH2 0xAE JUMPI DUP1 PUSH4 0x95EA7B3 EQ PUSH2 0xCC JUMPI DUP1 PUSH4 0x18160DDD EQ PUSH2 0xEF JUMPI DUP1 PUSH4 0x23B872DD EQ PUSH2 0x106 JUMPI DUP1 PUSH4 0x27E235E3 EQ PUSH2 0x119 JUMPI JUMPDEST PUSH1 0x0 DUP1 REVERT JUMPDEST PUSH2 0xB6 PUSH2 0x1EA JUMP JUMPDEST PUSH1 0x40 MLOAD PUSH2 0xC3 SWAP2 SWAP1 PUSH2 0x58D JUMP JUMPDEST PUSH1 0x40 MLOAD DUP1 SWAP2 SUB SWAP1 RETURN JUMPDEST PUSH2 0xDF PUSH2 0xDA CALLDATASIZE PUSH1 0x4 PUSH2 0x563 JUMP JUMPDEST PUSH2 0x278 JUMP JUMPDEST PUSH1 0x40 MLOAD SWAP1 ISZERO ISZERO DUP2 MSTORE PUSH1 0x20 ADD PUSH2 0xC3 JUMP JUMPDEST PUSH2 0xF8 PUSH1 0x3 SLOAD DUP2 JUMP JUMPDEST PUSH1 0x40 MLOAD SWAP1 DUP2 MSTORE PUSH1 0x20 ADD PUSH2 0xC3 JUMP JUMPDEST PUSH2 0xDF PUSH2 0x114 CALLDATASIZE PUSH1 0x4 PUSH2 0x527 JUMP JUMPDEST PUSH2 0x306 JUMP JUMPDEST PUSH2 0xF8 PUSH2 0x127 CALLDATASIZE PUSH1 0x4 PUSH2 0x4D2 JUMP JUMPDEST PUSH1 0x5 PUSH1 0x20 MSTORE PUSH1 0x0 SWAP1 DUP2 MSTORE PUSH1 0x40 SWAP1 KECCAK256 SLOAD DUP2 JUMP JUMPDEST PUSH2 0xF8 PUSH1 0x2 SLOAD DUP2 JUMP JUMPDEST PUSH1 0x4 SLOAD PUSH2 0x155 SWAP1 PUSH1 0x1 PUSH1 0x1 PUSH1 0xA0 SHL SUB AND DUP2 JUMP JUMPDEST PUSH1 0x40 MLOAD PUSH1 0x1 PUSH1 0x1 PUSH1 0xA0 SHL SUB SWAP1 SWAP2 AND DUP2 MSTORE PUSH1 0x20 ADD PUSH2 0xC3 JUMP JUMPDEST PUSH2 0xF8 PUSH2 0x17B CALLDATASIZE PUSH1 0x4 PUSH2 0x4D2 JUMP JUMPDEST PUSH1 0x1 PUSH1 0x1 PUSH1 0xA0 SHL SUB AND PUSH1 0x0 SWAP1 DUP2 MSTORE PUSH1 0x5 PUSH1 0x20 MSTORE PUSH1 0x40 SWAP1 KECCAK256 SLOAD SWAP1 JUMP JUMPDEST PUSH2 0xB6 PUSH2 0x3FF JUMP JUMPDEST PUSH2 0xDF PUSH2 0x1AC CALLDATASIZE PUSH1 0x4 PUSH2 0x563 JUMP JUMPDEST PUSH2 0x40C JUMP JUMPDEST PUSH2 0xF8 PUSH2 0x1BF CALLDATASIZE PUSH1 0x4 PUSH2 0x4F4 JUMP JUMPDEST PUSH1 0x1 PUSH1 0x1 PUSH1 0xA0 SHL SUB SWAP2 DUP3 AND PUSH1 0x0 SWAP1 DUP2 MSTORE PUSH1 0x6 PUSH1 0x20 SWAP1 DUP2 MSTORE PUSH1 0x40 DUP1 DUP4 KECCAK256 SWAP4 SWAP1 SWAP5 AND DUP3 MSTORE SWAP2 SWAP1 SWAP2 MSTORE KECCAK256 SLOAD SWAP1 JUMP JUMPDEST PUSH1 0x0 DUP1 SLOAD PUSH2 0x1F7 SWAP1 PUSH2 0x611 JUMP JUMPDEST DUP1 PUSH1 0x1F ADD PUSH1 0x20 DUP1 SWAP2 DIV MUL PUSH1 0x20 ADD PUSH1 0x40 MLOAD SWAP1 DUP2 ADD PUSH1 0x40 MSTORE DUP1 SWAP3 SWAP2 SWAP1 DUP2 DUP2 MSTORE PUSH1 0x20 ADD DUP3 DUP1 SLOAD PUSH2 0x223 SWAP1 PUSH2 0x611 JUMP JUMPDEST DUP1 ISZERO PUSH2 0x270 JUMPI DUP1 PUSH1 0x1F LT PUSH2 0x245 JUMPI PUSH2 0x100 DUP1 DUP4 SLOAD DIV MUL DUP4 MSTORE SWAP2 PUSH1 0x20 ADD SWAP2 PUSH2 0x270 JUMP JUMPDEST DUP3 ADD SWAP2 SWAP1 PUSH1 0x0 MSTORE PUSH1 0x20 PUSH1 0x0 KECCAK256 SWAP1 JUMPDEST DUP2 SLOAD DUP2 MSTORE SWAP1 PUSH1 0x1 ADD SWAP1 PUSH1 0x20 ADD DUP1 DUP4 GT PUSH2 0x253 JUMPI DUP3 SWAP1 SUB PUSH1 0x1F AND DUP3 ADD SWAP2 JUMPDEST POP POP POP POP POP DUP2 JUMP JUMPDEST CALLER PUSH1 0x0 SWAP1 DUP2 MSTORE PUSH1 0x5 PUSH1 0x20 MSTORE PUSH1 0x40 DUP2 KECCAK256 SLOAD DUP3 GT ISZERO PUSH2 0x294 JUMPI PUSH1 0x0 DUP1 REVERT JUMPDEST PUSH1 0x0 DUP3 GT PUSH2 0x2A1 JUMPI PUSH1 0x0 DUP1 REVERT JUMPDEST CALLER PUSH1 0x0 DUP2 DUP2 MSTORE PUSH1 0x6 PUSH1 0x20 SWAP1 DUP2 MSTORE PUSH1 0x40 DUP1 DUP4 KECCAK256 PUSH1 0x1 PUSH1 0x1 PUSH1 0xA0 SHL SUB DUP9 AND DUP1 DUP6 MSTORE SWAP1 DUP4 MSTORE SWAP3 DUP2 SWAP1 KECCAK256 DUP7 SWAP1 SSTORE MLOAD DUP6 DUP2 MSTORE SWAP2 SWAP3 SWAP2 PUSH32 0x8C5BE1E5EBEC7D5BD14F71427D1E84F3DD0314C0F7B2291E5B200AC8C7C3B925 SWAP2 ADD JUMPDEST PUSH1 0x40 MLOAD DUP1 SWAP2 SUB SWAP1 LOG3 POP PUSH1 0x1 SWAP3 SWAP2 POP POP JUMP JUMPDEST PUSH1 0x1 PUSH1 0x1 PUSH1 0xA0 SHL SUB DUP1 DUP5 AND PUSH1 0x0 SWAP1 DUP2 MSTORE PUSH1 0x6 PUSH1 0x20 SWAP1 DUP2 MSTORE PUSH1 0x40 DUP1 DUP4 KECCAK256 SWAP4 DUP7 AND DUP4 MSTORE SWAP3 SWAP1 MSTORE SWAP1 DUP2 KECCAK256 SLOAD DUP3 GT ISZERO PUSH2 0x33A JUMPI PUSH1 0x0 DUP1 REVERT JUMPDEST PUSH1 0x1 PUSH1 0x1 PUSH1 0xA0 SHL SUB DUP5 AND PUSH1 0x0 SWAP1 DUP2 MSTORE PUSH1 0x5 PUSH1 0x20 MSTORE PUSH1 0x40 SWAP1 KECCAK256 SLOAD DUP3 GT ISZERO PUSH2 0x35F JUMPI PUSH1 0x0 DUP1 REVERT JUMPDEST PUSH1 0x1 PUSH1 0x1 PUSH1 0xA0 SHL SUB DUP5 AND PUSH1 0x0 SWAP1 DUP2 MSTORE PUSH1 0x5 PUSH1 0x20 MSTORE PUSH1 0x40 DUP2 KECCAK256 DUP1 SLOAD DUP5 SWAP3 SWAP1 PUSH2 0x387 SWAP1 DUP5 SWAP1 PUSH2 0x5FA JUMP JUMPDEST SWAP1 SWAP2 SSTORE POP POP PUSH1 0x1 PUSH1 0x1 PUSH1 0xA0 SHL SUB DUP4 AND PUSH1 0x0 SWAP1 DUP2 MSTORE PUSH1 0x5 PUSH1 0x20 MSTORE PUSH1 0x40 DUP2 KECCAK256 DUP1 SLOAD DUP5 SWAP3 SWAP1 PUSH2 0x3B4 SWAP1 DUP5 SWAP1 PUSH2 0x5E2 JUMP JUMPDEST SWAP1 SWAP2 SSTORE POP POP PUSH1 0x1 PUSH1 0x1 PUSH1 0xA0 SHL SUB DUP1 DUP6 AND PUSH1 0x0 SWAP1 DUP2 MSTORE PUSH1 0x6 PUSH1 0x20 SWAP1 DUP2 MSTORE PUSH1 0x40 DUP1 DUP4 KECCAK256 SWAP4 DUP8 AND DUP4 MSTORE SWAP3 SWAP1 MSTORE SWAP1 DUP2 KECCAK256 DUP1 SLOAD DUP5 SWAP3 SWAP1 PUSH2 0x3F0 SWAP1 DUP5 SWAP1 PUSH2 0x5FA JUMP JUMPDEST SWAP1 SWAP2 SSTORE POP PUSH1 0x1 SWAP6 SWAP5 POP POP POP POP POP JUMP JUMPDEST PUSH1 0x1 DUP1 SLOAD PUSH2 0x1F7 SWAP1 PUSH2 0x611 JUMP JUMPDEST CALLER PUSH1 0x0 SWAP1 DUP2 MSTORE PUSH1 0x5 PUSH1 0x20 MSTORE PUSH1 0x40 DUP2 KECCAK256 SLOAD DUP3 GT ISZERO PUSH2 0x428 JUMPI PUSH1 0x0 DUP1 REVERT JUMPDEST PUSH1 0x1 PUSH1 0x1 PUSH1 0xA0 SHL SUB DUP4 AND PUSH1 0x0 SWAP1 DUP2 MSTORE PUSH1 0x5 PUSH1 0x20 MSTORE PUSH1 0x40 DUP2 KECCAK256 DUP1 SLOAD DUP5 SWAP3 SWAP1 PUSH2 0x450 SWAP1 DUP5 SWAP1 PUSH2 0x5E2 JUMP JUMPDEST SWAP1 SWAP2 SSTORE POP POP CALLER PUSH1 0x0 SWAP1 DUP2 MSTORE PUSH1 0x5 PUSH1 0x20 MSTORE PUSH1 0x40 DUP2 KECCAK256 DUP1 SLOAD DUP5 SWAP3 SWAP1 PUSH2 0x474 SWAP1 DUP5 SWAP1 PUSH2 0x5FA JUMP JUMPDEST SWAP1 SWAP2 SSTORE POP POP PUSH1 0x40 MLOAD DUP3 DUP2 MSTORE PUSH1 0x1 PUSH1 0x1 PUSH1 0xA0 SHL SUB DUP5 AND SWAP1 CALLER SWAP1 PUSH32 0xDDF252AD1BE2C89B69C2B068FC378DAA952BA7F163C4A11628F55A4DF523B3EF SWAP1 PUSH1 0x20 ADD PUSH2 0x2F5 JUMP JUMPDEST DUP1 CALLDATALOAD PUSH1 0x1 PUSH1 0x1 PUSH1 0xA0 SHL SUB DUP2 AND DUP2 EQ PUSH2 0x4CD JUMPI PUSH1 0x0 DUP1 REVERT JUMPDEST SWAP2 SWAP1 POP JUMP JUMPDEST PUSH1 0x0 PUSH1 0x20 DUP3 DUP5 SUB SLT ISZERO PUSH2 0x4E4 JUMPI PUSH1 0x0 DUP1 REVERT JUMPDEST PUSH2 0x4ED DUP3 PUSH2 0x4B6 JUMP JUMPDEST SWAP4 SWAP3 POP POP POP JUMP JUMPDEST PUSH1 0x0 DUP1 PUSH1 0x40 DUP4 DUP6 SUB SLT ISZERO PUSH2 0x507 JUMPI PUSH1 0x0 DUP1 REVERT JUMPDEST PUSH2 0x510 DUP4 PUSH2 0x4B6 JUMP JUMPDEST SWAP2 POP PUSH2 0x51E PUSH1 0x20 DUP5 ADD PUSH2 0x4B6 JUMP JUMPDEST SWAP1 POP SWAP3 POP SWAP3 SWAP1 POP JUMP JUMPDEST PUSH1 0x0 DUP1 PUSH1 0x0 PUSH1 0x60 DUP5 DUP7 SUB SLT ISZERO PUSH2 0x53C JUMPI PUSH1 0x0 DUP1 REVERT JUMPDEST PUSH2 0x545 DUP5 PUSH2 0x4B6 JUMP JUMPDEST SWAP3 POP PUSH2 0x553 PUSH1 0x20 DUP6 ADD PUSH2 0x4B6 JUMP JUMPDEST SWAP2 POP PUSH1 0x40 DUP5 ADD CALLDATALOAD SWAP1 POP SWAP3 POP SWAP3 POP SWAP3 JUMP JUMPDEST PUSH1 0x0 DUP1 PUSH1 0x40 DUP4 DUP6 SUB SLT ISZERO PUSH2 0x576 JUMPI PUSH1 0x0 DUP1 REVERT JUMPDEST PUSH2 0x57F DUP4 PUSH2 0x4B6 JUMP JUMPDEST SWAP5 PUSH1 0x20 SWAP4 SWAP1 SWAP4 ADD CALLDATALOAD SWAP4 POP POP POP JUMP JUMPDEST PUSH1 0x0 PUSH1 0x20 DUP1 DUP4 MSTORE DUP4 MLOAD DUP1 DUP3 DUP6 ADD MSTORE PUSH1 0x0 JUMPDEST DUP2 DUP2 LT ISZERO PUSH2 0x5BA JUMPI DUP6 DUP2 ADD DUP4 ADD MLOAD DUP6 DUP3 ADD PUSH1 0x40 ADD MSTORE DUP3 ADD PUSH2 0x59E JUMP JUMPDEST DUP2 DUP2 GT ISZERO PUSH2 0x5CC JUMPI PUSH1 0x0 PUSH1 0x40 DUP4 DUP8 ADD ADD MSTORE JUMPDEST POP PUSH1 0x1F ADD PUSH1 0x1F NOT AND SWAP3 SWAP1 SWAP3 ADD PUSH1 0x40 ADD SWAP4 SWAP3 POP POP POP JUMP JUMPDEST PUSH1 0x0 DUP3 NOT DUP3 GT ISZERO PUSH2 0x5F5 JUMPI PUSH2 0x5F5 PUSH2 0x64C JUMP JUMPDEST POP ADD SWAP1 JUMP JUMPDEST PUSH1 0x0 DUP3 DUP3 LT ISZERO PUSH2 0x60C JUMPI PUSH2 0x60C PUSH2 0x64C JUMP JUMPDEST POP SUB SWAP1 JUMP JUMPDEST PUSH1 0x1 DUP2 DUP2 SHR SWAP1 DUP3 AND DUP1 PUSH2 0x625 JUMPI PUSH1 0x7F DUP3 AND SWAP2 POP JUMPDEST PUSH1 0x20 DUP3 LT DUP2 EQ ISZERO PUSH2 0x646 JUMPI PUSH4 0x4E487B71 PUSH1 0xE0 SHL PUSH1 0x0 MSTORE PUSH1 0x22 PUSH1 0x4 MSTORE PUSH1 0x24 PUSH1 0x0 REVERT JUMPDEST POP SWAP2 SWAP1 POP JUMP JUMPDEST PUSH4 0x4E487B71 PUSH1 0xE0 SHL PUSH1 0x0 MSTORE PUSH1 0x11 PUSH1 0x4 MSTORE PUSH1 0x24 PUSH1 0x0 REVERT INVALID LOG2 PUSH5 0x6970667358 0x22 SLT KECCAK256 SWAP12 SWAP14 DUP9 0x4F 0xFB JUMPDEST SAR SWAP4 0xA5 SWAP5 JUMPI PUSH18 0x498DEF20C4A21B0AC1A3835550EE3843F610 NOT PUSH21 0x64736F6C6343000807003300000000000000000000 "
				},
				"gasEstimates": {
					"creation": {
						"codeDepositCost": "337600",
						"executionCost": "infinite",
						"totalCost": "infinite"
					},
					"external": {
						"allowance(address,address)": "infinite",
						"approve(address,uint256)": "26722",
						"balanceOf(address)": "2581",
						"balances(address)": "2608",
						"decimals()": "2295",
						"founder()": "2359",
						"name()": "infinite",
						"symbol()": "infinite",
						"totalSupply()": "2340",
						"transfer(address,uint256)": "53273",
						"transferFrom(address,address,uint256)": "infinite"
					}
				},
				"methodIdentifiers": {
					"allowance(address,address)": "dd62ed3e",
					"approve(address,uint256)": "095ea7b3",
					"balanceOf(address)": "70a08231",
					"balances(address)": "27e235e3",
					"decimals()": "313ce567",
					"founder()": "4d853ee5",
					"name()": "06fdde03",
					"symbol()": "95d89b41",
					"totalSupply()": "18160ddd",
					"transfer(address,uint256)": "a9059cbb",
					"transferFrom(address,address,uint256)": "23b872dd"
				}
			},
			"storageLayout": {
				"storage": [
					{
						"astId": 73,
						"contract": "contracts/nct v4.sol:Cryptos",
						"label": "name",
						"offset": 0,
						"slot": "0",
						"type": "t_string_storage"
					},
					{
						"astId": 76,
						"contract": "contracts/nct v4.sol:Cryptos",
						"label": "symbol",
						"offset": 0,
						"slot": "1",
						"type": "t_string_storage"
					},
					{
						"astId": 79,
						"contract": "contracts/nct v4.sol:Cryptos",
						"label": "decimals",
						"offset": 0,
						"slot": "2",
						"type": "t_uint256"
					},
					{
						"astId": 82,
						"contract": "contracts/nct v4.sol:Cryptos",
						"label": "totalSupply",
						"offset": 0,
						"slot": "3",
						"type": "t_uint256"
					},
					{
						"astId": 84,
						"contract": "contracts/nct v4.sol:Cryptos",
						"label": "founder",
						"offset": 0,
						"slot": "4",
						"type": "t_address"
					},
					{
						"astId": 88,
						"contract": "contracts/nct v4.sol:Cryptos",
						"label": "balances",
						"offset": 0,
						"slot": "5",
						"type": "t_mapping(t_address,t_uint256)"
					},
					{
						"astId": 94,
						"contract": "contracts/nct v4.sol:Cryptos",
						"label": "allowed",
						"offset": 0,
						"slot": "6",
						"type": "t_mapping(t_address,t_mapping(t_address,t_uint256))"
					}
				],
				"types": {
					"t_address": {
						"encoding": "inplace",
						"label": "address",
						"numberOfBytes": "20"
					},
					"t_mapping(t_address,t_mapping(t_address,t_uint256))": {
						"encoding": "mapping",
						"key": "t_address",
						"label": "mapping(address => mapping(address => uint256))",
						"numberOfBytes": "32",
						"value": "t_mapping(t_address,t_uint256)"
					},
					"t_mapping(t_address,t_uint256)": {
						"encoding": "mapping",
						"key": "t_address",
						"label": "mapping(address => uint256)",
						"numberOfBytes": "32",
						"value": "t_uint256"
					},
					"t_string_storage": {
						"encoding": "bytes",
						"label": "string",
						"numberOfBytes": "32"
					},
					"t_uint256": {
						"encoding": "inplace",
						"label": "uint256",
						"numberOfBytes": "32"
					}
				}
			},
			"userdoc": {
				"kind": "user",
				"methods": {},
				"version": 1
			}
		}
	}
}