{
	"contracts/nct v4.sol": {
		"CryptosICO": {
			"abi": [
				{
					"inputs": [
						{
							"internalType": "address payable",
							"name": "_deposit",
							"type": "address"
						},
						{
							"internalType": "address",
							"name": "tokenAddress",
							"type": "address"
						}
					],
					"stateMutability": "nonpayable",
					"type": "constructor"
				},
				{
					"anonymous": false,
					"inputs": [
						{
							"indexed": true,
							"internalType": "address",
							"name": "tokenOwner",
							"type": "address"
						},
						{
							"indexed": true,
							"internalType": "address",
							"name": "spender",
							"type": "address"
						},
						{
							"indexed": false,
							"internalType": "uint256",
							"name": "tokens",
							"type": "uint256"
						}
					],
					"name": "Approval",
					"type": "event"
				},
				{
					"anonymous": false,
					"inputs": [
						{
							"indexed": false,
							"internalType": "address",
							"name": "investor",
							"type": "address"
						},
						{
							"indexed": false,
							"internalType": "uint256",
							"name": "value",
							"type": "uint256"
						},
						{
							"indexed": false,
							"internalType": "uint256",
							"name": "tokens",
							"type": "uint256"
						}
					],
					"name": "Invest",
					"type": "event"
				},
				{
					"anonymous": false,
					"inputs": [
						{
							"indexed": true,
							"internalType": "address",
							"name": "from",
							"type": "address"
						},
						{
							"indexed": true,
							"internalType": "address",
							"name": "to",
							"type": "address"
						},
						{
							"indexed": false,
							"internalType": "uint256",
							"name": "tokens",
							"type": "uint256"
						}
					],
					"name": "Transfer",
					"type": "event"
				},
				{
					"inputs": [],
					"name": "admin",
					"outputs": [
						{
							"internalType": "address",
							"name": "",
							"type": "address"
						}
					],
					"stateMutability": "view",
					"type": "function"
				},
				{
					"inputs": [
						{
							"internalType": "address",
							"name": "tokenOwner",
							"type": "address"
						},
						{
							"internalType": "address",
							"name": "spender",
							"type": "address"
						}
					],
					"name": "allowance",
					"outputs": [
						{
							"internalType": "uint256",
							"name": "",
							"type": "uint256"
						}
					],
					"stateMutability": "view",
					"type": "function"
				},
				{
					"inputs": [
						{
							"internalType": "address",
							"name": "spender",
							"type": "address"
						},
						{
							"internalType": "uint256",
							"name": "tokens",
							"type": "uint256"
						}
					],
					"name": "approve",
					"outputs": [
						{
							"internalType": "bool",
							"name": "success",
							"type": "bool"
						}
					],
					"stateMutability": "nonpayable",
					"type": "function"
				},
				{
					"inputs": [
						{
							"internalType": "address",
							"name": "tokenOwner",
							"type": "address"
						}
					],
					"name": "balanceOf",
					"outputs": [
						{
							"internalType": "uint256",
							"name": "balance",
							"type": "uint256"
						}
					],
					"stateMutability": "view",
					"type": "function"
				},
				{
					"inputs": [
						{
							"internalType": "address",
							"name": "",
							"type": "address"
						}
					],
					"name": "balances",
					"outputs": [
						{
							"internalType": "uint256",
							"name": "",
							"type": "uint256"
						}
					],
					"stateMutability": "view",
					"type": "function"
				},
				{
					"inputs": [
						{
							"internalType": "address payable",
							"name": "newDeposit",
							"type": "address"
						}
					],
					"name": "changeDepositAddress",
					"outputs": [],
					"stateMutability": "nonpayable",
					"type": "function"
				},
				{
					"inputs": [],
					"name": "decimals",
					"outputs": [
						{
							"internalType": "uint256",
							"name": "",
							"type": "uint256"
						}
					],
					"stateMutability": "view",
					"type": "function"
				},
				{
					"inputs": [],
					"name": "deposit",
					"outputs": [
						{
							"internalType": "address payable",
							"name": "",
							"type": "address"
						}
					],
					"stateMutability": "view",
					"type": "function"
				},
				{
					"inputs": [],
					"name": "endSale",
					"outputs": [],
					"stateMutability": "nonpayable",
					"type": "function"
				},
				{
					"inputs": [],
					"name": "founder",
					"outputs": [
						{
							"internalType": "address",
							"name": "",
							"type": "address"
						}
					],
					"stateMutability": "view",
					"type": "function"
				},
				{
					"inputs": [],
					"name": "getCurrentState",
					"outputs": [
						{
							"internalType": "enum CryptosICO.State",
							"name": "",
							"type": "uint8"
						}
					],
					"stateMutability": "view",
					"type": "function"
				},
				{
					"inputs": [],
					"name": "icoState",
					"outputs": [
						{
							"internalType": "enum CryptosICO.State",
							"name": "",
							"type": "uint8"
						}
					],
					"stateMutability": "view",
					"type": "function"
				},
				{
					"inputs": [],
					"name": "invest",
					"outputs": [
						{
							"internalType": "bool",
							"name": "",
							"type": "bool"
						}
					],
					"stateMutability": "payable",
					"type": "function"
				},
				{
					"inputs": [],
					"name": "maxInvestment",
					"outputs": [
						{
							"internalType": "uint256",
							"name": "",
							"type": "uint256"
						}
					],
					"stateMutability": "view",
					"type": "function"
				},
				{
					"inputs": [],
					"name": "minInvestment",
					"outputs": [
						{
							"internalType": "uint256",
							"name": "",
							"type": "uint256"
						}
					],
					"stateMutability": "view",
					"type": "function"
				},
				{
					"inputs": [],
					"name": "name",
					"outputs": [
						{
							"internalType": "string",
							"name": "",
							"type": "string"
						}
					],
					"stateMutability": "view",
					"type": "function"
				},
				{
					"inputs": [],
					"name": "raisedAmount",
					"outputs": [
						{
							"internalType": "uint256",
							"name": "",
							"type": "uint256"
						}
					],
					"stateMutability": "view",
					"type": "function"
				},
				{
					"inputs": [],
					"name": "resume",
					"outputs": [],
					"stateMutability": "nonpayable",
					"type": "function"
				},
				{
					"inputs": [],
					"name": "saleEnd",
					"outputs": [
						{
							"internalType": "uint256",
							"name": "",
							"type": "uint256"
						}
					],
					"stateMutability": "view",
					"type": "function"
				},
				{
					"inputs": [],
					"name": "saleStart",
					"outputs": [
						{
							"internalType": "uint256",
							"name": "",
							"type": "uint256"
						}
					],
					"stateMutability": "view",
					"type": "function"
				},
				{
					"inputs": [],
					"name": "symbol",
					"outputs": [
						{
							"internalType": "string",
							"name": "",
							"type": "string"
						}
					],
					"stateMutability": "view",
					"type": "function"
				},
				{
					"inputs": [],
					"name": "tokenContract",
					"outputs": [
						{
							"internalType": "contract ERC20Interface",
							"name": "",
							"type": "address"
						}
					],
					"stateMutability": "view",
					"type": "function"
				},
				{
					"inputs": [],
					"name": "tokenTradeStart",
					"outputs": [
						{
							"internalType": "uint256",
							"name": "",
							"type": "uint256"
						}
					],
					"stateMutability": "view",
					"type": "function"
				},
				{
					"inputs": [],
					"name": "totalSupply",
					"outputs": [
						{
							"internalType": "uint256",
							"name": "",
							"type": "uint256"
						}
					],
					"stateMutability": "view",
					"type": "function"
				},
				{
					"inputs": [
						{
							"internalType": "address",
							"name": "to",
							"type": "address"
						},
						{
							"internalType": "uint256",
							"name": "tokens",
							"type": "uint256"
						}
					],
					"name": "transfer",
					"outputs": [
						{
							"internalType": "bool",
							"name": "success",
							"type": "bool"
						}
					],
					"stateMutability": "nonpayable",
					"type": "function"
				},
				{
					"inputs": [
						{
							"internalType": "address",
							"name": "from",
							"type": "address"
						},
						{
							"internalType": "address",
							"name": "to",
							"type": "address"
						},
						{
							"internalType": "uint256",
							"name": "tokens",
							"type": "uint256"
						}
					],
					"name": "transferFrom",
					"outputs": [
						{
							"internalType": "bool",
							"name": "success",
							"type": "bool"
						}
					],
					"stateMutability": "nonpayable",
					"type": "function"
				},
				{
					"stateMutability": "payable",
					"type": "receive"
				}
			],
			"devdoc": {
				"kind": "dev",
				"methods": {},
				"version": 1
			},
			"evm": {
				"assembly": "    /* \"contracts/nct v4.sol\":3219:7218  contract CryptosICO is Cryptos {\r... */\n  mstore(0x40, 0x80)\n    /* \"contracts/nct v4.sol\":1245:1282  string public name = \"Nations Combat\" */\n  mload(0x40)\n  dup1\n  0x40\n  add\n  0x40\n  mstore\n  dup1\n  0x0e\n  dup2\n  mstore\n  0x20\n  add\n  0x4e6174696f6e7320436f6d626174000000000000000000000000000000000000\n  dup2\n  mstore\n  pop\n  0x00\n  swap1\n  dup1\n  mload\n  swap1\n  0x20\n  add\n  swap1\n  tag_1\n  swap3\n  swap2\n  swap1\n  tag_2\n  jump\t// in\ntag_1:\n  pop\n    /* \"contracts/nct v4.sol\":1289:1317  string public symbol = \"NCT\" */\n  mload(0x40)\n  dup1\n  0x40\n  add\n  0x40\n  mstore\n  dup1\n  0x03\n  dup2\n  mstore\n  0x20\n  add\n  0x4e43540000000000000000000000000000000000000000000000000000000000\n  dup2\n  mstore\n  pop\n  0x01\n  swap1\n  dup1\n  mload\n  swap1\n  0x20\n  add\n  swap1\n  tag_3\n  swap3\n  swap2\n  swap1\n  tag_2\n  jump\t// in\ntag_3:\n  pop\n    /* \"contracts/nct v4.sol\":1350:1352  18 */\n  0x12\n    /* \"contracts/nct v4.sol\":1324:1352  uint256 public decimals = 18 */\n  0x02\n  sstore\n    /* \"contracts/nct v4.sol\":3342:3353  0.001 ether */\n  0x038d7ea4c68000\n    /* \"contracts/nct v4.sol\":3321:3353  uint256 tokenPrice = 0.001 ether */\n  0x09\n  sstore\n    /* \"contracts/nct v4.sol\":3491:3506  block.timestamp */\n  timestamp\n    /* \"contracts/nct v4.sol\":3464:3506  uint256 public saleStart = block.timestamp */\n  0x0b\n  sstore\n    /* \"contracts/nct v4.sol\":3556:3562  604800 */\n  0x093a80\n    /* \"contracts/nct v4.sol\":3538:3553  block.timestamp */\n  timestamp\n    /* \"contracts/nct v4.sol\":3538:3562  block.timestamp + 604800 */\n  tag_4\n  swap2\n  swap1\n  tag_5\n  jump\t// in\ntag_4:\n    /* \"contracts/nct v4.sol\":3513:3562  uint256 public saleEnd = block.timestamp + 604800 */\n  0x0c\n  sstore\n    /* \"contracts/nct v4.sol\":3665:3671  604800 */\n  0x093a80\n    /* \"contracts/nct v4.sol\":3655:3662  saleEnd */\n  sload(0x0c)\n    /* \"contracts/nct v4.sol\":3655:3671  saleEnd + 604800 */\n  tag_6\n  swap2\n  swap1\n  tag_5\n  jump\t// in\ntag_6:\n    /* \"contracts/nct v4.sol\":3622:3671  uint256 public tokenTradeStart = saleEnd + 604800 */\n  0x0e\n  sstore\n    /* \"contracts/nct v4.sol\":3748:3755  5 ether */\n  0x4563918244f40000\n    /* \"contracts/nct v4.sol\":3717:3755  uint256 public maxInvestment = 5 ether */\n  0x0f\n  sstore\n    /* \"contracts/nct v4.sol\":3793:3802  0.1 ether */\n  0x016345785d8a0000\n    /* \"contracts/nct v4.sol\":3762:3802  uint256 public minInvestment = 0.1 ether */\n  0x10\n  sstore\n    /* \"contracts/nct v4.sol\":3955:4175  constructor(address payable _deposit, address tokenAddress) {\r... */\n  callvalue\n  dup1\n  iszero\n  tag_7\n  jumpi\n  0x00\n  dup1\n  revert\ntag_7:\n  pop\n  mload(0x40)\n  sub(codesize, bytecodeSize)\n  dup1\n  bytecodeSize\n  dup4\n  codecopy\n  dup2\n  dup2\n  add\n  0x40\n  mstore\n  dup2\n  add\n  swap1\n  tag_8\n  swap2\n  swap1\n  tag_9\n  jump\t// in\ntag_8:\n    /* \"contracts/nct v4.sol\":1661:1676  50000000*10**18 */\n  0x295be96e64066972000000\n    /* \"contracts/nct v4.sol\":1647:1658  totalSupply */\n  0x03\n    /* \"contracts/nct v4.sol\":1647:1676  totalSupply = 50000000*10**18 */\n  dup2\n  swap1\n  sstore\n  pop\n    /* \"contracts/nct v4.sol\":1697:1707  msg.sender */\n  caller\n    /* \"contracts/nct v4.sol\":1687:1694  founder */\n  0x04\n  0x00\n    /* \"contracts/nct v4.sol\":1687:1707  founder = msg.sender */\n  0x0100\n  exp\n  dup2\n  sload\n  dup2\n  0xffffffffffffffffffffffffffffffffffffffff\n  mul\n  not\n  and\n  swap1\n  dup4\n  0xffffffffffffffffffffffffffffffffffffffff\n  and\n  mul\n  or\n  swap1\n  sstore\n  pop\n    /* \"contracts/nct v4.sol\":1738:1749  totalSupply */\n  sload(0x03)\n    /* \"contracts/nct v4.sol\":1718:1726  balances */\n  0x05\n    /* \"contracts/nct v4.sol\":1718:1735  balances[founder] */\n  0x00\n    /* \"contracts/nct v4.sol\":1727:1734  founder */\n  0x04\n  0x00\n  swap1\n  sload\n  swap1\n  0x0100\n  exp\n  swap1\n  div\n  0xffffffffffffffffffffffffffffffffffffffff\n  and\n    /* \"contracts/nct v4.sol\":1718:1735  balances[founder] */\n  0xffffffffffffffffffffffffffffffffffffffff\n  and\n  0xffffffffffffffffffffffffffffffffffffffff\n  and\n  dup2\n  mstore\n  0x20\n  add\n  swap1\n  dup2\n  mstore\n  0x20\n  add\n  0x00\n  keccak256\n    /* \"contracts/nct v4.sol\":1718:1749  balances[founder] = totalSupply */\n  dup2\n  swap1\n  sstore\n  pop\n    /* \"contracts/nct v4.sol\":4036:4044  _deposit */\n  dup2\n    /* \"contracts/nct v4.sol\":4026:4033  deposit */\n  0x08\n  0x00\n    /* \"contracts/nct v4.sol\":4026:4044  deposit = _deposit */\n  0x0100\n  exp\n  dup2\n  sload\n  dup2\n  0xffffffffffffffffffffffffffffffffffffffff\n  mul\n  not\n  and\n  swap1\n  dup4\n  0xffffffffffffffffffffffffffffffffffffffff\n  and\n  mul\n  or\n  swap1\n  sstore\n  pop\n    /* \"contracts/nct v4.sol\":4063:4073  msg.sender */\n  caller\n    /* \"contracts/nct v4.sol\":4055:4060  admin */\n  0x07\n  0x00\n    /* \"contracts/nct v4.sol\":4055:4073  admin = msg.sender */\n  0x0100\n  exp\n  dup2\n  sload\n  dup2\n  0xffffffffffffffffffffffffffffffffffffffff\n  mul\n  not\n  and\n  swap1\n  dup4\n  0xffffffffffffffffffffffffffffffffffffffff\n  and\n  mul\n  or\n  swap1\n  sstore\n  pop\n    /* \"contracts/nct v4.sol\":4095:4112  State.beforeStart */\n  0x00\n    /* \"contracts/nct v4.sol\":4084:4092  icoState */\n  0x11\n  0x00\n    /* \"contracts/nct v4.sol\":4084:4112  icoState = State.beforeStart */\n  0x0100\n  exp\n  dup2\n  sload\n  dup2\n  0xff\n  mul\n  not\n  and\n  swap1\n  dup4\n  0x03\n  dup2\n  gt\n  iszero\n  tag_14\n  jumpi\n  tag_15\n  tag_16\n  jump\t// in\ntag_15:\ntag_14:\n  mul\n  or\n  swap1\n  sstore\n  pop\n    /* \"contracts/nct v4.sol\":4154:4166  tokenAddress */\n  dup1\n    /* \"contracts/nct v4.sol\":4123:4136  tokenContract */\n  0x0d\n  0x00\n    /* \"contracts/nct v4.sol\":4123:4167  tokenContract = ERC20Interface(tokenAddress) */\n  0x0100\n  exp\n  dup2\n  sload\n  dup2\n  0xffffffffffffffffffffffffffffffffffffffff\n  mul\n  not\n  and\n  swap1\n  dup4\n  0xffffffffffffffffffffffffffffffffffffffff\n  and\n  mul\n  or\n  swap1\n  sstore\n  pop\n    /* \"contracts/nct v4.sol\":3955:4175  constructor(address payable _deposit, address tokenAddress) {\r... */\n  pop\n  pop\n    /* \"contracts/nct v4.sol\":3219:7218  contract CryptosICO is Cryptos {\r... */\n  jump(tag_17)\ntag_2:\n  dup3\n  dup1\n  sload\n  tag_18\n  swap1\n  tag_19\n  jump\t// in\ntag_18:\n  swap1\n  0x00\n  mstore\n  keccak256(0x00, 0x20)\n  swap1\n  0x1f\n  add\n  0x20\n  swap1\n  div\n  dup2\n  add\n  swap3\n  dup3\n  tag_21\n  jumpi\n  0x00\n  dup6\n  sstore\n  jump(tag_20)\ntag_21:\n  dup3\n  0x1f\n  lt\n  tag_22\n  jumpi\n  dup1\n  mload\n  not(0xff)\n  and\n  dup4\n  dup1\n  add\n  or\n  dup6\n  sstore\n  jump(tag_20)\ntag_22:\n  dup3\n  dup1\n  add\n  0x01\n  add\n  dup6\n  sstore\n  dup3\n  iszero\n  tag_20\n  jumpi\n  swap2\n  dup3\n  add\ntag_23:\n  dup3\n  dup2\n  gt\n  iszero\n  tag_24\n  jumpi\n  dup3\n  mload\n  dup3\n  sstore\n  swap2\n  0x20\n  add\n  swap2\n  swap1\n  0x01\n  add\n  swap1\n  jump(tag_23)\ntag_24:\ntag_20:\n  pop\n  swap1\n  pop\n  tag_25\n  swap2\n  swap1\n  tag_26\n  jump\t// in\ntag_25:\n  pop\n  swap1\n  jump\t// out\ntag_26:\ntag_27:\n  dup1\n  dup3\n  gt\n  iszero\n  tag_28\n  jumpi\n  0x00\n  dup2\n  0x00\n  swap1\n  sstore\n  pop\n  0x01\n  add\n  jump(tag_27)\ntag_28:\n  pop\n  swap1\n  jump\t// out\n    /* \"#utility.yul\":7:150   */\ntag_30:\n    /* \"#utility.yul\":64:69   */\n  0x00\n    /* \"#utility.yul\":95:101   */\n  dup2\n    /* \"#utility.yul\":89:102   */\n  mload\n    /* \"#utility.yul\":80:102   */\n  swap1\n  pop\n    /* \"#utility.yul\":111:144   */\n  tag_32\n    /* \"#utility.yul\":138:143   */\n  dup2\n    /* \"#utility.yul\":111:144   */\n  tag_33\n  jump\t// in\ntag_32:\n    /* \"#utility.yul\":7:150   */\n  swap3\n  swap2\n  pop\n  pop\n  jump\t// out\n    /* \"#utility.yul\":156:315   */\ntag_34:\n    /* \"#utility.yul\":221:226   */\n  0x00\n    /* \"#utility.yul\":252:258   */\n  dup2\n    /* \"#utility.yul\":246:259   */\n  mload\n    /* \"#utility.yul\":237:259   */\n  swap1\n  pop\n    /* \"#utility.yul\":268:309   */\n  tag_36\n    /* \"#utility.yul\":303:308   */\n  dup2\n    /* \"#utility.yul\":268:309   */\n  tag_37\n  jump\t// in\ntag_36:\n    /* \"#utility.yul\":156:315   */\n  swap3\n  swap2\n  pop\n  pop\n  jump\t// out\n    /* \"#utility.yul\":321:844   */\ntag_9:\n    /* \"#utility.yul\":408:414   */\n  0x00\n    /* \"#utility.yul\":416:422   */\n  dup1\n    /* \"#utility.yul\":465:467   */\n  0x40\n    /* \"#utility.yul\":453:462   */\n  dup4\n    /* \"#utility.yul\":444:451   */\n  dup6\n    /* \"#utility.yul\":440:463   */\n  sub\n    /* \"#utility.yul\":436:468   */\n  slt\n    /* \"#utility.yul\":433:552   */\n  iszero\n  tag_39\n  jumpi\n    /* \"#utility.yul\":471:550   */\n  tag_40\n  tag_41\n  jump\t// in\ntag_40:\n    /* \"#utility.yul\":433:552   */\ntag_39:\n    /* \"#utility.yul\":591:592   */\n  0x00\n    /* \"#utility.yul\":616:688   */\n  tag_42\n    /* \"#utility.yul\":680:687   */\n  dup6\n    /* \"#utility.yul\":671:677   */\n  dup3\n    /* \"#utility.yul\":660:669   */\n  dup7\n    /* \"#utility.yul\":656:678   */\n  add\n    /* \"#utility.yul\":616:688   */\n  tag_34\n  jump\t// in\ntag_42:\n    /* \"#utility.yul\":606:688   */\n  swap3\n  pop\n    /* \"#utility.yul\":562:698   */\n  pop\n    /* \"#utility.yul\":737:739   */\n  0x20\n    /* \"#utility.yul\":763:827   */\n  tag_43\n    /* \"#utility.yul\":819:826   */\n  dup6\n    /* \"#utility.yul\":810:816   */\n  dup3\n    /* \"#utility.yul\":799:808   */\n  dup7\n    /* \"#utility.yul\":795:817   */\n  add\n    /* \"#utility.yul\":763:827   */\n  tag_30\n  jump\t// in\ntag_43:\n    /* \"#utility.yul\":753:827   */\n  swap2\n  pop\n    /* \"#utility.yul\":708:837   */\n  pop\n    /* \"#utility.yul\":321:844   */\n  swap3\n  pop\n  swap3\n  swap1\n  pop\n  jump\t// out\n    /* \"#utility.yul\":931:1236   */\ntag_5:\n    /* \"#utility.yul\":971:974   */\n  0x00\n    /* \"#utility.yul\":990:1010   */\n  tag_47\n    /* \"#utility.yul\":1008:1009   */\n  dup3\n    /* \"#utility.yul\":990:1010   */\n  tag_48\n  jump\t// in\ntag_47:\n    /* \"#utility.yul\":985:1010   */\n  swap2\n  pop\n    /* \"#utility.yul\":1024:1044   */\n  tag_49\n    /* \"#utility.yul\":1042:1043   */\n  dup4\n    /* \"#utility.yul\":1024:1044   */\n  tag_48\n  jump\t// in\ntag_49:\n    /* \"#utility.yul\":1019:1044   */\n  swap3\n  pop\n    /* \"#utility.yul\":1178:1179   */\n  dup3\n    /* \"#utility.yul\":1110:1176   */\n  0xffffffffffffffffffffffffffffffffffffffffffffffffffffffffffffffff\n    /* \"#utility.yul\":1106:1180   */\n  sub\n    /* \"#utility.yul\":1103:1104   */\n  dup3\n    /* \"#utility.yul\":1100:1181   */\n  gt\n    /* \"#utility.yul\":1097:1204   */\n  iszero\n  tag_50\n  jumpi\n    /* \"#utility.yul\":1184:1202   */\n  tag_51\n  tag_52\n  jump\t// in\ntag_51:\n    /* \"#utility.yul\":1097:1204   */\ntag_50:\n    /* \"#utility.yul\":1228:1229   */\n  dup3\n    /* \"#utility.yul\":1225:1226   */\n  dup3\n    /* \"#utility.yul\":1221:1230   */\n  add\n    /* \"#utility.yul\":1214:1230   */\n  swap1\n  pop\n    /* \"#utility.yul\":931:1236   */\n  swap3\n  swap2\n  pop\n  pop\n  jump\t// out\n    /* \"#utility.yul\":1242:1338   */\ntag_53:\n    /* \"#utility.yul\":1279:1286   */\n  0x00\n    /* \"#utility.yul\":1308:1332   */\n  tag_55\n    /* \"#utility.yul\":1326:1331   */\n  dup3\n    /* \"#utility.yul\":1308:1332   */\n  tag_56\n  jump\t// in\ntag_55:\n    /* \"#utility.yul\":1297:1332   */\n  swap1\n  pop\n    /* \"#utility.yul\":1242:1338   */\n  swap2\n  swap1\n  pop\n  jump\t// out\n    /* \"#utility.yul\":1344:1448   */\ntag_57:\n    /* \"#utility.yul\":1389:1396   */\n  0x00\n    /* \"#utility.yul\":1418:1442   */\n  tag_59\n    /* \"#utility.yul\":1436:1441   */\n  dup3\n    /* \"#utility.yul\":1418:1442   */\n  tag_56\n  jump\t// in\ntag_59:\n    /* \"#utility.yul\":1407:1442   */\n  swap1\n  pop\n    /* \"#utility.yul\":1344:1448   */\n  swap2\n  swap1\n  pop\n  jump\t// out\n    /* \"#utility.yul\":1454:1580   */\ntag_56:\n    /* \"#utility.yul\":1491:1498   */\n  0x00\n    /* \"#utility.yul\":1531:1573   */\n  0xffffffffffffffffffffffffffffffffffffffff\n    /* \"#utility.yul\":1524:1529   */\n  dup3\n    /* \"#utility.yul\":1520:1574   */\n  and\n    /* \"#utility.yul\":1509:1574   */\n  swap1\n  pop\n    /* \"#utility.yul\":1454:1580   */\n  swap2\n  swap1\n  pop\n  jump\t// out\n    /* \"#utility.yul\":1586:1663   */\ntag_48:\n    /* \"#utility.yul\":1623:1630   */\n  0x00\n    /* \"#utility.yul\":1652:1657   */\n  dup2\n    /* \"#utility.yul\":1641:1657   */\n  swap1\n  pop\n    /* \"#utility.yul\":1586:1663   */\n  swap2\n  swap1\n  pop\n  jump\t// out\n    /* \"#utility.yul\":1669:1989   */\ntag_19:\n    /* \"#utility.yul\":1713:1719   */\n  0x00\n    /* \"#utility.yul\":1750:1751   */\n  0x02\n    /* \"#utility.yul\":1744:1748   */\n  dup3\n    /* \"#utility.yul\":1740:1752   */\n  div\n    /* \"#utility.yul\":1730:1752   */\n  swap1\n  pop\n    /* \"#utility.yul\":1797:1798   */\n  0x01\n    /* \"#utility.yul\":1791:1795   */\n  dup3\n    /* \"#utility.yul\":1787:1799   */\n  and\n    /* \"#utility.yul\":1818:1836   */\n  dup1\n    /* \"#utility.yul\":1808:1889   */\n  tag_63\n  jumpi\n    /* \"#utility.yul\":1874:1878   */\n  0x7f\n    /* \"#utility.yul\":1866:1872   */\n  dup3\n    /* \"#utility.yul\":1862:1879   */\n  and\n    /* \"#utility.yul\":1852:1879   */\n  swap2\n  pop\n    /* \"#utility.yul\":1808:1889   */\ntag_63:\n    /* \"#utility.yul\":1936:1938   */\n  0x20\n    /* \"#utility.yul\":1928:1934   */\n  dup3\n    /* \"#utility.yul\":1925:1939   */\n  lt\n    /* \"#utility.yul\":1905:1923   */\n  dup2\n    /* \"#utility.yul\":1902:1940   */\n  eq\n    /* \"#utility.yul\":1899:1983   */\n  iszero\n  tag_64\n  jumpi\n    /* \"#utility.yul\":1955:1973   */\n  tag_65\n  tag_66\n  jump\t// in\ntag_65:\n    /* \"#utility.yul\":1899:1983   */\ntag_64:\n    /* \"#utility.yul\":1720:1989   */\n  pop\n    /* \"#utility.yul\":1669:1989   */\n  swap2\n  swap1\n  pop\n  jump\t// out\n    /* \"#utility.yul\":1995:2175   */\ntag_52:\n    /* \"#utility.yul\":2043:2120   */\n  0x4e487b7100000000000000000000000000000000000000000000000000000000\n    /* \"#utility.yul\":2040:2041   */\n  0x00\n    /* \"#utility.yul\":2033:2121   */\n  mstore\n    /* \"#utility.yul\":2140:2144   */\n  0x11\n    /* \"#utility.yul\":2137:2138   */\n  0x04\n    /* \"#utility.yul\":2130:2145   */\n  mstore\n    /* \"#utility.yul\":2164:2168   */\n  0x24\n    /* \"#utility.yul\":2161:2162   */\n  0x00\n    /* \"#utility.yul\":2154:2169   */\n  revert\n    /* \"#utility.yul\":2181:2361   */\ntag_16:\n    /* \"#utility.yul\":2229:2306   */\n  0x4e487b7100000000000000000000000000000000000000000000000000000000\n    /* \"#utility.yul\":2226:2227   */\n  0x00\n    /* \"#utility.yul\":2219:2307   */\n  mstore\n    /* \"#utility.yul\":2326:2330   */\n  0x21\n    /* \"#utility.yul\":2323:2324   */\n  0x04\n    /* \"#utility.yul\":2316:2331   */\n  mstore\n    /* \"#utility.yul\":2350:2354   */\n  0x24\n    /* \"#utility.yul\":2347:2348   */\n  0x00\n    /* \"#utility.yul\":2340:2355   */\n  revert\n    /* \"#utility.yul\":2367:2547   */\ntag_66:\n    /* \"#utility.yul\":2415:2492   */\n  0x4e487b7100000000000000000000000000000000000000000000000000000000\n    /* \"#utility.yul\":2412:2413   */\n  0x00\n    /* \"#utility.yul\":2405:2493   */\n  mstore\n    /* \"#utility.yul\":2512:2516   */\n  0x22\n    /* \"#utility.yul\":2509:2510   */\n  0x04\n    /* \"#utility.yul\":2502:2517   */\n  mstore\n    /* \"#utility.yul\":2536:2540   */\n  0x24\n    /* \"#utility.yul\":2533:2534   */\n  0x00\n    /* \"#utility.yul\":2526:2541   */\n  revert\n    /* \"#utility.yul\":2676:2793   */\ntag_41:\n    /* \"#utility.yul\":2785:2786   */\n  0x00\n    /* \"#utility.yul\":2782:2783   */\n  dup1\n    /* \"#utility.yul\":2775:2787   */\n  revert\n    /* \"#utility.yul\":2799:2921   */\ntag_33:\n    /* \"#utility.yul\":2872:2896   */\n  tag_74\n    /* \"#utility.yul\":2890:2895   */\n  dup2\n    /* \"#utility.yul\":2872:2896   */\n  tag_53\n  jump\t// in\ntag_74:\n    /* \"#utility.yul\":2865:2870   */\n  dup2\n    /* \"#utility.yul\":2862:2897   */\n  eq\n    /* \"#utility.yul\":2852:2915   */\n  tag_75\n  jumpi\n    /* \"#utility.yul\":2911:2912   */\n  0x00\n    /* \"#utility.yul\":2908:2909   */\n  dup1\n    /* \"#utility.yul\":2901:2913   */\n  revert\n    /* \"#utility.yul\":2852:2915   */\ntag_75:\n    /* \"#utility.yul\":2799:2921   */\n  pop\n  jump\t// out\n    /* \"#utility.yul\":2927:3065   */\ntag_37:\n    /* \"#utility.yul\":3008:3040   */\n  tag_77\n    /* \"#utility.yul\":3034:3039   */\n  dup2\n    /* \"#utility.yul\":3008:3040   */\n  tag_57\n  jump\t// in\ntag_77:\n    /* \"#utility.yul\":3001:3006   */\n  dup2\n    /* \"#utility.yul\":2998:3041   */\n  eq\n    /* \"#utility.yul\":2988:3059   */\n  tag_78\n  jumpi\n    /* \"#utility.yul\":3055:3056   */\n  0x00\n    /* \"#utility.yul\":3052:3053   */\n  dup1\n    /* \"#utility.yul\":3045:3057   */\n  revert\n    /* \"#utility.yul\":2988:3059   */\ntag_78:\n    /* \"#utility.yul\":2927:3065   */\n  pop\n  jump\t// out\n    /* \"contracts/nct v4.sol\":3219:7218  contract CryptosICO is Cryptos {\r... */\ntag_17:\n  dataSize(sub_0)\n  dup1\n  dataOffset(sub_0)\n  0x00\n  codecopy\n  0x00\n  return\nstop\n\nsub_0: assembly {\n        /* \"contracts/nct v4.sol\":3219:7218  contract CryptosICO is Cryptos {\r... */\n      mstore(0x40, 0x80)\n      jumpi(tag_1, lt(calldatasize, 0x04))\n      shr(0xe0, calldataload(0x00))\n      dup1\n      0x6d58c88f\n      gt\n      tag_29\n      jumpi\n      dup1\n      0xc10b9358\n      gt\n      tag_30\n      jumpi\n      dup1\n      0xd0e30db0\n      gt\n      tag_31\n      jumpi\n      dup1\n      0xd0e30db0\n      eq\n      tag_25\n      jumpi\n      dup1\n      0xdd62ed3e\n      eq\n      tag_26\n      jumpi\n      dup1\n      0xe8b5e51f\n      eq\n      tag_27\n      jumpi\n      dup1\n      0xf851a440\n      eq\n      tag_28\n      jumpi\n      jump(tag_2)\n    tag_31:\n      dup1\n      0xc10b9358\n      eq\n      tag_22\n      jumpi\n      dup1\n      0xc59ee1dc\n      eq\n      tag_23\n      jumpi\n      dup1\n      0xcc9ba583\n      eq\n      tag_24\n      jumpi\n      jump(tag_2)\n    tag_30:\n      dup1\n      0x6d58c88f\n      eq\n      tag_16\n      jumpi\n      dup1\n      0x70a08231\n      eq\n      tag_17\n      jumpi\n      dup1\n      0x8ac2c680\n      eq\n      tag_18\n      jumpi\n      dup1\n      0x95d89b41\n      eq\n      tag_19\n      jumpi\n      dup1\n      0xa9059cbb\n      eq\n      tag_20\n      jumpi\n      dup1\n      0xab0bcc41\n      eq\n      tag_21\n      jumpi\n      jump(tag_2)\n    tag_29:\n      dup1\n      0x27e235e3\n      gt\n      tag_32\n      jumpi\n      dup1\n      0x380d831b\n      gt\n      tag_33\n      jumpi\n      dup1\n      0x380d831b\n      eq\n      tag_12\n      jumpi\n      dup1\n      0x44f38756\n      eq\n      tag_13\n      jumpi\n      dup1\n      0x4d853ee5\n      eq\n      tag_14\n      jumpi\n      dup1\n      0x55a373d6\n      eq\n      tag_15\n      jumpi\n      jump(tag_2)\n    tag_33:\n      dup1\n      0x27e235e3\n      eq\n      tag_9\n      jumpi\n      dup1\n      0x313ce567\n      eq\n      tag_10\n      jumpi\n      dup1\n      0x378aa701\n      eq\n      tag_11\n      jumpi\n      jump(tag_2)\n    tag_32:\n      dup1\n      0x2e1316\n      eq\n      tag_3\n      jumpi\n      dup1\n      0x046f7da2\n      eq\n      tag_4\n      jumpi\n      dup1\n      0x06fdde03\n      eq\n      tag_5\n      jumpi\n      dup1\n      0x095ea7b3\n      eq\n      tag_6\n      jumpi\n      dup1\n      0x18160ddd\n      eq\n      tag_7\n      jumpi\n      dup1\n      0x23b872dd\n      eq\n      tag_8\n      jumpi\n      jump(tag_2)\n    tag_1:\n      jumpi(tag_2, calldatasize)\n        /* \"contracts/nct v4.sol\":5989:5997  invest() */\n      tag_36\n        /* \"contracts/nct v4.sol\":5989:5995  invest */\n      tag_37\n        /* \"contracts/nct v4.sol\":5989:5997  invest() */\n      jump\t// in\n    tag_36:\n      pop\n        /* \"contracts/nct v4.sol\":3219:7218  contract CryptosICO is Cryptos {\r... */\n      stop\n    tag_2:\n      0x00\n      dup1\n      revert\n        /* \"contracts/nct v4.sol\":3717:3755  uint256 public maxInvestment = 5 ether */\n    tag_3:\n      callvalue\n      dup1\n      iszero\n      tag_38\n      jumpi\n      0x00\n      dup1\n      revert\n    tag_38:\n      pop\n      tag_39\n      tag_40\n      jump\t// in\n    tag_39:\n      mload(0x40)\n      tag_41\n      swap2\n      swap1\n      tag_42\n      jump\t// in\n    tag_41:\n      mload(0x40)\n      dup1\n      swap2\n      sub\n      swap1\n      return\n        /* \"contracts/nct v4.sol\":4271:4349  function resume() public onlyAdmin {\r... */\n    tag_4:\n      callvalue\n      dup1\n      iszero\n      tag_43\n      jumpi\n      0x00\n      dup1\n      revert\n    tag_43:\n      pop\n      tag_44\n      tag_45\n      jump\t// in\n    tag_44:\n      stop\n        /* \"contracts/nct v4.sol\":1245:1282  string public name = \"Nations Combat\" */\n    tag_5:\n      callvalue\n      dup1\n      iszero\n      tag_46\n      jumpi\n      0x00\n      dup1\n      revert\n    tag_46:\n      pop\n      tag_47\n      tag_48\n      jump\t// in\n    tag_47:\n      mload(0x40)\n      tag_49\n      swap2\n      swap1\n      tag_50\n      jump\t// in\n    tag_49:\n      mload(0x40)\n      dup1\n      swap2\n      sub\n      swap1\n      return\n        /* \"contracts/nct v4.sol\":2492:2828  function approve(address spender, uint256 tokens)\r... */\n    tag_6:\n      callvalue\n      dup1\n      iszero\n      tag_51\n      jumpi\n      0x00\n      dup1\n      revert\n    tag_51:\n      pop\n      tag_52\n      0x04\n      dup1\n      calldatasize\n      sub\n      dup2\n      add\n      swap1\n      tag_53\n      swap2\n      swap1\n      tag_54\n      jump\t// in\n    tag_53:\n      tag_55\n      jump\t// in\n    tag_52:\n      mload(0x40)\n      tag_56\n      swap2\n      swap1\n      tag_57\n      jump\t// in\n    tag_56:\n      mload(0x40)\n      dup1\n      swap2\n      sub\n      swap1\n      return\n        /* \"contracts/nct v4.sol\":1359:1394  uint256 public override totalSupply */\n    tag_7:\n      callvalue\n      dup1\n      iszero\n      tag_58\n      jumpi\n      0x00\n      dup1\n      revert\n    tag_58:\n      pop\n      tag_59\n      tag_60\n      jump\t// in\n    tag_59:\n      mload(0x40)\n      tag_61\n      swap2\n      swap1\n      tag_42\n      jump\t// in\n    tag_61:\n      mload(0x40)\n      dup1\n      swap2\n      sub\n      swap1\n      return\n        /* \"contracts/nct v4.sol\":6840:7215  function transferFrom(\r... */\n    tag_8:\n      callvalue\n      dup1\n      iszero\n      tag_62\n      jumpi\n      0x00\n      dup1\n      revert\n    tag_62:\n      pop\n      tag_63\n      0x04\n      dup1\n      calldatasize\n      sub\n      dup2\n      add\n      swap1\n      tag_64\n      swap2\n      swap1\n      tag_65\n      jump\t// in\n    tag_64:\n      tag_66\n      jump\t// in\n    tag_63:\n      mload(0x40)\n      tag_67\n      swap2\n      swap1\n      tag_57\n      jump\t// in\n    tag_67:\n      mload(0x40)\n      dup1\n      swap2\n      sub\n      swap1\n      return\n        /* \"contracts/nct v4.sol\":1432:1475  mapping(address => uint256) public balances */\n    tag_9:\n      callvalue\n      dup1\n      iszero\n      tag_68\n      jumpi\n      0x00\n      dup1\n      revert\n    tag_68:\n      pop\n      tag_69\n      0x04\n      dup1\n      calldatasize\n      sub\n      dup2\n      add\n      swap1\n      tag_70\n      swap2\n      swap1\n      tag_71\n      jump\t// in\n    tag_70:\n      tag_72\n      jump\t// in\n    tag_69:\n      mload(0x40)\n      tag_73\n      swap2\n      swap1\n      tag_42\n      jump\t// in\n    tag_73:\n      mload(0x40)\n      dup1\n      swap2\n      sub\n      swap1\n      return\n        /* \"contracts/nct v4.sol\":1324:1352  uint256 public decimals = 18 */\n    tag_10:\n      callvalue\n      dup1\n      iszero\n      tag_74\n      jumpi\n      0x00\n      dup1\n      revert\n    tag_74:\n      pop\n      tag_75\n      tag_76\n      jump\t// in\n    tag_75:\n      mload(0x40)\n      tag_77\n      swap2\n      swap1\n      tag_42\n      jump\t// in\n    tag_77:\n      mload(0x40)\n      dup1\n      swap2\n      sub\n      swap1\n      return\n        /* \"contracts/nct v4.sol\":4479:4889  function getCurrentState() public view returns (State) {\r... */\n    tag_11:\n      callvalue\n      dup1\n      iszero\n      tag_78\n      jumpi\n      0x00\n      dup1\n      revert\n    tag_78:\n      pop\n      tag_79\n      tag_80\n      jump\t// in\n    tag_79:\n      mload(0x40)\n      tag_81\n      swap2\n      swap1\n      tag_82\n      jump\t// in\n    tag_81:\n      mload(0x40)\n      dup1\n      swap2\n      sub\n      swap1\n      return\n        /* \"contracts/nct v4.sol\":6431:6832  function endSale() public {\r... */\n    tag_12:\n      callvalue\n      dup1\n      iszero\n      tag_83\n      jumpi\n      0x00\n      dup1\n      revert\n    tag_83:\n      pop\n      tag_84\n      tag_85\n      jump\t// in\n    tag_84:\n      stop\n        /* \"contracts/nct v4.sol\":3925:3946  State public icoState */\n    tag_13:\n      callvalue\n      dup1\n      iszero\n      tag_86\n      jumpi\n      0x00\n      dup1\n      revert\n    tag_86:\n      pop\n      tag_87\n      tag_88\n      jump\t// in\n    tag_87:\n      mload(0x40)\n      tag_89\n      swap2\n      swap1\n      tag_82\n      jump\t// in\n    tag_89:\n      mload(0x40)\n      dup1\n      swap2\n      sub\n      swap1\n      return\n        /* \"contracts/nct v4.sol\":1403:1425  address public founder */\n    tag_14:\n      callvalue\n      dup1\n      iszero\n      tag_90\n      jumpi\n      0x00\n      dup1\n      revert\n    tag_90:\n      pop\n      tag_91\n      tag_92\n      jump\t// in\n    tag_91:\n      mload(0x40)\n      tag_93\n      swap2\n      swap1\n      tag_94\n      jump\t// in\n    tag_93:\n      mload(0x40)\n      dup1\n      swap2\n      sub\n      swap1\n      return\n        /* \"contracts/nct v4.sol\":3580:3615  ERC20Interface public tokenContract */\n    tag_15:\n      callvalue\n      dup1\n      iszero\n      tag_95\n      jumpi\n      0x00\n      dup1\n      revert\n    tag_95:\n      pop\n      tag_96\n      tag_97\n      jump\t// in\n    tag_96:\n      mload(0x40)\n      tag_98\n      swap2\n      swap1\n      tag_99\n      jump\t// in\n    tag_98:\n      mload(0x40)\n      dup1\n      swap2\n      sub\n      swap1\n      return\n        /* \"contracts/nct v4.sol\":4357:4471  function changeDepositAddress(address payable newDeposit) public onlyAdmin {\r... */\n    tag_16:\n      callvalue\n      dup1\n      iszero\n      tag_100\n      jumpi\n      0x00\n      dup1\n      revert\n    tag_100:\n      pop\n      tag_101\n      0x04\n      dup1\n      calldatasize\n      sub\n      dup2\n      add\n      swap1\n      tag_102\n      swap2\n      swap1\n      tag_103\n      jump\t// in\n    tag_102:\n      tag_104\n      jump\t// in\n    tag_101:\n      stop\n        /* \"contracts/nct v4.sol\":1765:1938  function balanceOf(address tokenOwner)\r... */\n    tag_17:\n      callvalue\n      dup1\n      iszero\n      tag_105\n      jumpi\n      0x00\n      dup1\n      revert\n    tag_105:\n      pop\n      tag_106\n      0x04\n      dup1\n      calldatasize\n      sub\n      dup2\n      add\n      swap1\n      tag_107\n      swap2\n      swap1\n      tag_71\n      jump\t// in\n    tag_107:\n      tag_108\n      jump\t// in\n    tag_106:\n      mload(0x40)\n      tag_109\n      swap2\n      swap1\n      tag_42\n      jump\t// in\n    tag_109:\n      mload(0x40)\n      dup1\n      swap2\n      sub\n      swap1\n      return\n        /* \"contracts/nct v4.sol\":3762:3802  uint256 public minInvestment = 0.1 ether */\n    tag_18:\n      callvalue\n      dup1\n      iszero\n      tag_110\n      jumpi\n      0x00\n      dup1\n      revert\n    tag_110:\n      pop\n      tag_111\n      tag_112\n      jump\t// in\n    tag_111:\n      mload(0x40)\n      tag_113\n      swap2\n      swap1\n      tag_42\n      jump\t// in\n    tag_113:\n      mload(0x40)\n      dup1\n      swap2\n      sub\n      swap1\n      return\n        /* \"contracts/nct v4.sol\":1289:1317  string public symbol = \"NCT\" */\n    tag_19:\n      callvalue\n      dup1\n      iszero\n      tag_114\n      jumpi\n      0x00\n      dup1\n      revert\n    tag_114:\n      pop\n      tag_115\n      tag_116\n      jump\t// in\n    tag_115:\n      mload(0x40)\n      tag_117\n      swap2\n      swap1\n      tag_50\n      jump\t// in\n    tag_117:\n      mload(0x40)\n      dup1\n      swap2\n      sub\n      swap1\n      return\n        /* \"contracts/nct v4.sol\":6019:6423  function transfer(address to, uint256 tokens)\r... */\n    tag_20:\n      callvalue\n      dup1\n      iszero\n      tag_118\n      jumpi\n      0x00\n      dup1\n      revert\n    tag_118:\n      pop\n      tag_119\n      0x04\n      dup1\n      calldatasize\n      sub\n      dup2\n      add\n      swap1\n      tag_120\n      swap2\n      swap1\n      tag_54\n      jump\t// in\n    tag_120:\n      tag_121\n      jump\t// in\n    tag_119:\n      mload(0x40)\n      tag_122\n      swap2\n      swap1\n      tag_57\n      jump\t// in\n    tag_122:\n      mload(0x40)\n      dup1\n      swap2\n      sub\n      swap1\n      return\n        /* \"contracts/nct v4.sol\":3464:3506  uint256 public saleStart = block.timestamp */\n    tag_21:\n      callvalue\n      dup1\n      iszero\n      tag_123\n      jumpi\n      0x00\n      dup1\n      revert\n    tag_123:\n      pop\n      tag_124\n      tag_125\n      jump\t// in\n    tag_124:\n      mload(0x40)\n      tag_126\n      swap2\n      swap1\n      tag_42\n      jump\t// in\n    tag_126:\n      mload(0x40)\n      dup1\n      swap2\n      sub\n      swap1\n      return\n        /* \"contracts/nct v4.sol\":3513:3562  uint256 public saleEnd = block.timestamp + 604800 */\n    tag_22:\n      callvalue\n      dup1\n      iszero\n      tag_127\n      jumpi\n      0x00\n      dup1\n      revert\n    tag_127:\n      pop\n      tag_128\n      tag_129\n      jump\t// in\n    tag_128:\n      mload(0x40)\n      tag_130\n      swap2\n      swap1\n      tag_42\n      jump\t// in\n    tag_130:\n      mload(0x40)\n      dup1\n      swap2\n      sub\n      swap1\n      return\n        /* \"contracts/nct v4.sol\":3401:3428  uint256 public raisedAmount */\n    tag_23:\n      callvalue\n      dup1\n      iszero\n      tag_131\n      jumpi\n      0x00\n      dup1\n      revert\n    tag_131:\n      pop\n      tag_132\n      tag_133\n      jump\t// in\n    tag_132:\n      mload(0x40)\n      tag_134\n      swap2\n      swap1\n      tag_42\n      jump\t// in\n    tag_134:\n      mload(0x40)\n      dup1\n      swap2\n      sub\n      swap1\n      return\n        /* \"contracts/nct v4.sol\":3622:3671  uint256 public tokenTradeStart = saleEnd + 604800 */\n    tag_24:\n      callvalue\n      dup1\n      iszero\n      tag_135\n      jumpi\n      0x00\n      dup1\n      revert\n    tag_135:\n      pop\n      tag_136\n      tag_137\n      jump\t// in\n    tag_136:\n      mload(0x40)\n      tag_138\n      swap2\n      swap1\n      tag_42\n      jump\t// in\n    tag_138:\n      mload(0x40)\n      dup1\n      swap2\n      sub\n      swap1\n      return\n        /* \"contracts/nct v4.sol\":3284:3314  address payable public deposit */\n    tag_25:\n      callvalue\n      dup1\n      iszero\n      tag_139\n      jumpi\n      0x00\n      dup1\n      revert\n    tag_139:\n      pop\n      tag_140\n      tag_141\n      jump\t// in\n    tag_140:\n      mload(0x40)\n      tag_142\n      swap2\n      swap1\n      tag_143\n      jump\t// in\n    tag_142:\n      mload(0x40)\n      dup1\n      swap2\n      sub\n      swap1\n      return\n        /* \"contracts/nct v4.sol\":2294:2484  function allowance(address tokenOwner, address spender)\r... */\n    tag_26:\n      callvalue\n      dup1\n      iszero\n      tag_144\n      jumpi\n      0x00\n      dup1\n      revert\n    tag_144:\n      pop\n      tag_145\n      0x04\n      dup1\n      calldatasize\n      sub\n      dup2\n      add\n      swap1\n      tag_146\n      swap2\n      swap1\n      tag_147\n      jump\t// in\n    tag_146:\n      tag_148\n      jump\t// in\n    tag_145:\n      mload(0x40)\n      tag_149\n      swap2\n      swap1\n      tag_42\n      jump\t// in\n    tag_149:\n      mload(0x40)\n      dup1\n      swap2\n      sub\n      swap1\n      return\n        /* \"contracts/nct v4.sol\":5024:5848  function invest() public payable returns (bool) {\r... */\n    tag_27:\n      tag_150\n      tag_37\n      jump\t// in\n    tag_150:\n      mload(0x40)\n      tag_151\n      swap2\n      swap1\n      tag_57\n      jump\t// in\n    tag_151:\n      mload(0x40)\n      dup1\n      swap2\n      sub\n      swap1\n      return\n        /* \"contracts/nct v4.sol\":3257:3277  address public admin */\n    tag_28:\n      callvalue\n      dup1\n      iszero\n      tag_152\n      jumpi\n      0x00\n      dup1\n      revert\n    tag_152:\n      pop\n      tag_153\n      tag_154\n      jump\t// in\n    tag_153:\n      mload(0x40)\n      tag_155\n      swap2\n      swap1\n      tag_94\n      jump\t// in\n    tag_155:\n      mload(0x40)\n      dup1\n      swap2\n      sub\n      swap1\n      return\n        /* \"contracts/nct v4.sol\":5024:5848  function invest() public payable returns (bool) {\r... */\n    tag_37:\n        /* \"contracts/nct v4.sol\":5066:5070  bool */\n      0x00\n        /* \"contracts/nct v4.sol\":5094:5111  getCurrentState() */\n      tag_157\n        /* \"contracts/nct v4.sol\":5094:5109  getCurrentState */\n      tag_80\n        /* \"contracts/nct v4.sol\":5094:5111  getCurrentState() */\n      jump\t// in\n    tag_157:\n        /* \"contracts/nct v4.sol\":5083:5091  icoState */\n      0x11\n      0x00\n        /* \"contracts/nct v4.sol\":5083:5111  icoState = getCurrentState() */\n      0x0100\n      exp\n      dup2\n      sload\n      dup2\n      0xff\n      mul\n      not\n      and\n      swap1\n      dup4\n      0x03\n      dup2\n      gt\n      iszero\n      tag_158\n      jumpi\n      tag_159\n      tag_160\n      jump\t// in\n    tag_159:\n    tag_158:\n      mul\n      or\n      swap1\n      sstore\n      pop\n        /* \"contracts/nct v4.sol\":5142:5155  State.running */\n      0x01\n        /* \"contracts/nct v4.sol\":5130:5155  icoState == State.running */\n      0x03\n      dup2\n      gt\n      iszero\n      tag_161\n      jumpi\n      tag_162\n      tag_160\n      jump\t// in\n    tag_162:\n    tag_161:\n        /* \"contracts/nct v4.sol\":5130:5138  icoState */\n      0x11\n      0x00\n      swap1\n      sload\n      swap1\n      0x0100\n      exp\n      swap1\n      div\n      0xff\n      and\n        /* \"contracts/nct v4.sol\":5130:5155  icoState == State.running */\n      0x03\n      dup2\n      gt\n      iszero\n      tag_163\n      jumpi\n      tag_164\n      tag_160\n      jump\t// in\n    tag_164:\n    tag_163:\n      eq\n        /* \"contracts/nct v4.sol\":5122:5156  require(icoState == State.running) */\n      tag_165\n      jumpi\n      0x00\n      dup1\n      revert\n    tag_165:\n        /* \"contracts/nct v4.sol\":5188:5201  minInvestment */\n      sload(0x10)\n        /* \"contracts/nct v4.sol\":5175:5184  msg.value */\n      callvalue\n        /* \"contracts/nct v4.sol\":5175:5201  msg.value >= minInvestment */\n      lt\n      iszero\n        /* \"contracts/nct v4.sol\":5175:5231  msg.value >= minInvestment && msg.value <= maxInvestment */\n      dup1\n      iszero\n      tag_166\n      jumpi\n      pop\n        /* \"contracts/nct v4.sol\":5218:5231  maxInvestment */\n      sload(0x0f)\n        /* \"contracts/nct v4.sol\":5205:5214  msg.value */\n      callvalue\n        /* \"contracts/nct v4.sol\":5205:5231  msg.value <= maxInvestment */\n      gt\n      iszero\n        /* \"contracts/nct v4.sol\":5175:5231  msg.value >= minInvestment && msg.value <= maxInvestment */\n    tag_166:\n        /* \"contracts/nct v4.sol\":5167:5232  require(msg.value >= minInvestment && msg.value <= maxInvestment) */\n      tag_167\n      jumpi\n      0x00\n      dup1\n      revert\n    tag_167:\n        /* \"contracts/nct v4.sol\":5261:5270  msg.value */\n      callvalue\n        /* \"contracts/nct v4.sol\":5245:5257  raisedAmount */\n      0x0a\n      0x00\n        /* \"contracts/nct v4.sol\":5245:5270  raisedAmount += msg.value */\n      dup3\n      dup3\n      sload\n      tag_168\n      swap2\n      swap1\n      tag_169\n      jump\t// in\n    tag_168:\n      swap3\n      pop\n      pop\n      dup2\n      swap1\n      sstore\n      pop\n        /* \"contracts/nct v4.sol\":5290:5304  uint256 tokens */\n      0x00\n        /* \"contracts/nct v4.sol\":5319:5329  tokenPrice */\n      sload(0x09)\n        /* \"contracts/nct v4.sol\":5307:5316  msg.value */\n      callvalue\n        /* \"contracts/nct v4.sol\":5307:5329  msg.value / tokenPrice */\n      tag_170\n      swap2\n      swap1\n      tag_171\n      jump\t// in\n    tag_170:\n        /* \"contracts/nct v4.sol\":5290:5329  uint256 tokens = msg.value / tokenPrice */\n      swap1\n      pop\n        /* \"contracts/nct v4.sol\":5389:5395  tokens */\n      dup1\n        /* \"contracts/nct v4.sol\":5348:5361  tokenContract */\n      0x0d\n      0x00\n      swap1\n      sload\n      swap1\n      0x0100\n      exp\n      swap1\n      div\n      0xffffffffffffffffffffffffffffffffffffffff\n      and\n        /* \"contracts/nct v4.sol\":5348:5371  tokenContract.balanceOf */\n      0xffffffffffffffffffffffffffffffffffffffff\n      and\n      0x70a08231\n        /* \"contracts/nct v4.sol\":5380:5384  this */\n      address\n        /* \"contracts/nct v4.sol\":5348:5386  tokenContract.balanceOf(address(this)) */\n      mload(0x40)\n      dup3\n      0xffffffff\n      and\n      0xe0\n      shl\n      dup2\n      mstore\n      0x04\n      add\n      tag_172\n      swap2\n      swap1\n      tag_94\n      jump\t// in\n    tag_172:\n      0x20\n      mload(0x40)\n      dup1\n      dup4\n      sub\n      dup2\n      dup7\n      dup1\n      extcodesize\n      iszero\n      dup1\n      iszero\n      tag_173\n      jumpi\n      0x00\n      dup1\n      revert\n    tag_173:\n      pop\n      gas\n      staticcall\n      iszero\n      dup1\n      iszero\n      tag_175\n      jumpi\n      returndatasize\n      0x00\n      dup1\n      returndatacopy\n      revert(0x00, returndatasize)\n    tag_175:\n      pop\n      pop\n      pop\n      pop\n      mload(0x40)\n      returndatasize\n      not(0x1f)\n      0x1f\n      dup3\n      add\n      and\n      dup3\n      add\n      dup1\n      0x40\n      mstore\n      pop\n      dup2\n      add\n      swap1\n      tag_176\n      swap2\n      swap1\n      tag_177\n      jump\t// in\n    tag_176:\n        /* \"contracts/nct v4.sol\":5348:5395  tokenContract.balanceOf(address(this))>= tokens */\n      lt\n      iszero\n        /* \"contracts/nct v4.sol\":5340:5429  require(tokenContract.balanceOf(address(this))>= tokens,\"No more token in the contract!\") */\n      tag_178\n      jumpi\n      mload(0x40)\n      0x08c379a000000000000000000000000000000000000000000000000000000000\n      dup2\n      mstore\n      0x04\n      add\n      tag_179\n      swap1\n      tag_180\n      jump\t// in\n    tag_179:\n      mload(0x40)\n      dup1\n      swap2\n      sub\n      swap1\n      revert\n    tag_178:\n        /* \"contracts/nct v4.sol\":5448:5461  tokenContract */\n      0x0d\n      0x00\n      swap1\n      sload\n      swap1\n      0x0100\n      exp\n      swap1\n      div\n      0xffffffffffffffffffffffffffffffffffffffff\n      and\n        /* \"contracts/nct v4.sol\":5448:5470  tokenContract.transfer */\n      0xffffffffffffffffffffffffffffffffffffffff\n      and\n      0xa9059cbb\n        /* \"contracts/nct v4.sol\":5471:5481  msg.sender */\n      caller\n        /* \"contracts/nct v4.sol\":5490:5496  10**18 */\n      0x0de0b6b3a7640000\n        /* \"contracts/nct v4.sol\":5483:5489  tokens */\n      dup5\n        /* \"contracts/nct v4.sol\":5483:5496  tokens*10**18 */\n      tag_181\n      swap2\n      swap1\n      tag_182\n      jump\t// in\n    tag_181:\n        /* \"contracts/nct v4.sol\":5448:5497  tokenContract.transfer(msg.sender, tokens*10**18) */\n      mload(0x40)\n      dup4\n      0xffffffff\n      and\n      0xe0\n      shl\n      dup2\n      mstore\n      0x04\n      add\n      tag_183\n      swap3\n      swap2\n      swap1\n      tag_184\n      jump\t// in\n    tag_183:\n      0x20\n      mload(0x40)\n      dup1\n      dup4\n      sub\n      dup2\n      0x00\n      dup8\n      dup1\n      extcodesize\n      iszero\n      dup1\n      iszero\n      tag_185\n      jumpi\n      0x00\n      dup1\n      revert\n    tag_185:\n      pop\n      gas\n      call\n      iszero\n      dup1\n      iszero\n      tag_187\n      jumpi\n      returndatasize\n      0x00\n      dup1\n      returndatacopy\n      revert(0x00, returndatasize)\n    tag_187:\n      pop\n      pop\n      pop\n      pop\n      mload(0x40)\n      returndatasize\n      not(0x1f)\n      0x1f\n      dup3\n      add\n      and\n      dup3\n      add\n      dup1\n      0x40\n      mstore\n      pop\n      dup2\n      add\n      swap1\n      tag_188\n      swap2\n      swap1\n      tag_189\n      jump\t// in\n    tag_188:\n        /* \"contracts/nct v4.sol\":5440:5498  require(tokenContract.transfer(msg.sender, tokens*10**18)) */\n      tag_190\n      jumpi\n      0x00\n      dup1\n      revert\n    tag_190:\n        /* \"contracts/nct v4.sol\":5615:5621  tokens */\n      dup1\n        /* \"contracts/nct v4.sol\":5591:5599  balances */\n      0x05\n        /* \"contracts/nct v4.sol\":5591:5611  balances[msg.sender] */\n      0x00\n        /* \"contracts/nct v4.sol\":5600:5610  msg.sender */\n      caller\n        /* \"contracts/nct v4.sol\":5591:5611  balances[msg.sender] */\n      0xffffffffffffffffffffffffffffffffffffffff\n      and\n      0xffffffffffffffffffffffffffffffffffffffff\n      and\n      dup2\n      mstore\n      0x20\n      add\n      swap1\n      dup2\n      mstore\n      0x20\n      add\n      0x00\n      keccak256\n      0x00\n        /* \"contracts/nct v4.sol\":5591:5621  balances[msg.sender] += tokens */\n      dup3\n      dup3\n      sload\n      tag_191\n      swap2\n      swap1\n      tag_169\n      jump\t// in\n    tag_191:\n      swap3\n      pop\n      pop\n      dup2\n      swap1\n      sstore\n      pop\n        /* \"contracts/nct v4.sol\":5653:5659  tokens */\n      dup1\n        /* \"contracts/nct v4.sol\":5632:5640  balances */\n      0x05\n        /* \"contracts/nct v4.sol\":5632:5649  balances[founder] */\n      0x00\n        /* \"contracts/nct v4.sol\":5641:5648  founder */\n      0x04\n      0x00\n      swap1\n      sload\n      swap1\n      0x0100\n      exp\n      swap1\n      div\n      0xffffffffffffffffffffffffffffffffffffffff\n      and\n        /* \"contracts/nct v4.sol\":5632:5649  balances[founder] */\n      0xffffffffffffffffffffffffffffffffffffffff\n      and\n      0xffffffffffffffffffffffffffffffffffffffff\n      and\n      dup2\n      mstore\n      0x20\n      add\n      swap1\n      dup2\n      mstore\n      0x20\n      add\n      0x00\n      keccak256\n      0x00\n        /* \"contracts/nct v4.sol\":5632:5659  balances[founder] -= tokens */\n      dup3\n      dup3\n      sload\n      tag_192\n      swap2\n      swap1\n      tag_193\n      jump\t// in\n    tag_192:\n      swap3\n      pop\n      pop\n      dup2\n      swap1\n      sstore\n      pop\n        /* \"contracts/nct v4.sol\":5670:5677  deposit */\n      0x08\n      0x00\n      swap1\n      sload\n      swap1\n      0x0100\n      exp\n      swap1\n      div\n      0xffffffffffffffffffffffffffffffffffffffff\n      and\n        /* \"contracts/nct v4.sol\":5670:5686  deposit.transfer */\n      0xffffffffffffffffffffffffffffffffffffffff\n      and\n        /* \"contracts/nct v4.sol\":5670:5697  deposit.transfer(msg.value) */\n      0x08fc\n        /* \"contracts/nct v4.sol\":5687:5696  msg.value */\n      callvalue\n        /* \"contracts/nct v4.sol\":5670:5697  deposit.transfer(msg.value) */\n      swap1\n      dup2\n      iszero\n      mul\n      swap1\n      mload(0x40)\n      0x00\n      mload(0x40)\n      dup1\n      dup4\n      sub\n      dup2\n      dup6\n      dup9\n      dup9\n      call\n      swap4\n      pop\n      pop\n      pop\n      pop\n      iszero\n      dup1\n      iszero\n      tag_195\n      jumpi\n      returndatasize\n      0x00\n      dup1\n      returndatacopy\n      revert(0x00, returndatasize)\n    tag_195:\n      pop\n        /* \"contracts/nct v4.sol\":5779:5816  Invest(msg.sender, msg.value, tokens) */\n      0x4ae4bd7655e0d350876a23cd90c4227b13db560e34435c6a488150a9c844bf5f\n        /* \"contracts/nct v4.sol\":5786:5796  msg.sender */\n      caller\n        /* \"contracts/nct v4.sol\":5798:5807  msg.value */\n      callvalue\n        /* \"contracts/nct v4.sol\":5809:5815  tokens */\n      dup4\n        /* \"contracts/nct v4.sol\":5779:5816  Invest(msg.sender, msg.value, tokens) */\n      mload(0x40)\n      tag_196\n      swap4\n      swap3\n      swap2\n      swap1\n      tag_197\n      jump\t// in\n    tag_196:\n      mload(0x40)\n      dup1\n      swap2\n      sub\n      swap1\n      log1\n        /* \"contracts/nct v4.sol\":5836:5840  true */\n      0x01\n        /* \"contracts/nct v4.sol\":5829:5840  return true */\n      swap2\n      pop\n      pop\n        /* \"contracts/nct v4.sol\":5024:5848  function invest() public payable returns (bool) {\r... */\n      swap1\n      jump\t// out\n        /* \"contracts/nct v4.sol\":3717:3755  uint256 public maxInvestment = 5 ether */\n    tag_40:\n      sload(0x0f)\n      dup2\n      jump\t// out\n        /* \"contracts/nct v4.sol\":4271:4349  function resume() public onlyAdmin {\r... */\n    tag_45:\n        /* \"contracts/nct v4.sol\":4237:4242  admin */\n      0x07\n      0x00\n      swap1\n      sload\n      swap1\n      0x0100\n      exp\n      swap1\n      div\n      0xffffffffffffffffffffffffffffffffffffffff\n      and\n        /* \"contracts/nct v4.sol\":4223:4242  msg.sender == admin */\n      0xffffffffffffffffffffffffffffffffffffffff\n      and\n        /* \"contracts/nct v4.sol\":4223:4233  msg.sender */\n      caller\n        /* \"contracts/nct v4.sol\":4223:4242  msg.sender == admin */\n      0xffffffffffffffffffffffffffffffffffffffff\n      and\n      eq\n        /* \"contracts/nct v4.sol\":4215:4243  require(msg.sender == admin) */\n      tag_199\n      jumpi\n      0x00\n      dup1\n      revert\n    tag_199:\n        /* \"contracts/nct v4.sol\":4328:4341  State.running */\n      0x01\n        /* \"contracts/nct v4.sol\":4317:4325  icoState */\n      0x11\n      0x00\n        /* \"contracts/nct v4.sol\":4317:4341  icoState = State.running */\n      0x0100\n      exp\n      dup2\n      sload\n      dup2\n      0xff\n      mul\n      not\n      and\n      swap1\n      dup4\n      0x03\n      dup2\n      gt\n      iszero\n      tag_201\n      jumpi\n      tag_202\n      tag_160\n      jump\t// in\n    tag_202:\n    tag_201:\n      mul\n      or\n      swap1\n      sstore\n      pop\n        /* \"contracts/nct v4.sol\":4271:4349  function resume() public onlyAdmin {\r... */\n      jump\t// out\n        /* \"contracts/nct v4.sol\":1245:1282  string public name = \"Nations Combat\" */\n    tag_48:\n      0x00\n      dup1\n      sload\n      tag_203\n      swap1\n      tag_204\n      jump\t// in\n    tag_203:\n      dup1\n      0x1f\n      add\n      0x20\n      dup1\n      swap2\n      div\n      mul\n      0x20\n      add\n      mload(0x40)\n      swap1\n      dup2\n      add\n      0x40\n      mstore\n      dup1\n      swap3\n      swap2\n      swap1\n      dup2\n      dup2\n      mstore\n      0x20\n      add\n      dup3\n      dup1\n      sload\n      tag_205\n      swap1\n      tag_204\n      jump\t// in\n    tag_205:\n      dup1\n      iszero\n      tag_206\n      jumpi\n      dup1\n      0x1f\n      lt\n      tag_207\n      jumpi\n      0x0100\n      dup1\n      dup4\n      sload\n      div\n      mul\n      dup4\n      mstore\n      swap2\n      0x20\n      add\n      swap2\n      jump(tag_206)\n    tag_207:\n      dup3\n      add\n      swap2\n      swap1\n      0x00\n      mstore\n      keccak256(0x00, 0x20)\n      swap1\n    tag_208:\n      dup2\n      sload\n      dup2\n      mstore\n      swap1\n      0x01\n      add\n      swap1\n      0x20\n      add\n      dup1\n      dup4\n      gt\n      tag_208\n      jumpi\n      dup3\n      swap1\n      sub\n      0x1f\n      and\n      dup3\n      add\n      swap2\n    tag_206:\n      pop\n      pop\n      pop\n      pop\n      pop\n      dup2\n      jump\t// out\n        /* \"contracts/nct v4.sol\":2492:2828  function approve(address spender, uint256 tokens)\r... */\n    tag_55:\n        /* \"contracts/nct v4.sol\":2594:2606  bool success */\n      0x00\n        /* \"contracts/nct v4.sol\":2656:2662  tokens */\n      dup2\n        /* \"contracts/nct v4.sol\":2632:2640  balances */\n      0x05\n        /* \"contracts/nct v4.sol\":2632:2652  balances[msg.sender] */\n      0x00\n        /* \"contracts/nct v4.sol\":2641:2651  msg.sender */\n      caller\n        /* \"contracts/nct v4.sol\":2632:2652  balances[msg.sender] */\n      0xffffffffffffffffffffffffffffffffffffffff\n      and\n      0xffffffffffffffffffffffffffffffffffffffff\n      and\n      dup2\n      mstore\n      0x20\n      add\n      swap1\n      dup2\n      mstore\n      0x20\n      add\n      0x00\n      keccak256\n      sload\n        /* \"contracts/nct v4.sol\":2632:2662  balances[msg.sender] >= tokens */\n      lt\n      iszero\n        /* \"contracts/nct v4.sol\":2624:2663  require(balances[msg.sender] >= tokens) */\n      tag_210\n      jumpi\n      0x00\n      dup1\n      revert\n    tag_210:\n        /* \"contracts/nct v4.sol\":2691:2692  0 */\n      0x00\n        /* \"contracts/nct v4.sol\":2682:2688  tokens */\n      dup3\n        /* \"contracts/nct v4.sol\":2682:2692  tokens > 0 */\n      gt\n        /* \"contracts/nct v4.sol\":2674:2693  require(tokens > 0) */\n      tag_211\n      jumpi\n      0x00\n      dup1\n      revert\n    tag_211:\n        /* \"contracts/nct v4.sol\":2737:2743  tokens */\n      dup2\n        /* \"contracts/nct v4.sol\":2706:2713  allowed */\n      0x06\n        /* \"contracts/nct v4.sol\":2706:2725  allowed[msg.sender] */\n      0x00\n        /* \"contracts/nct v4.sol\":2714:2724  msg.sender */\n      caller\n        /* \"contracts/nct v4.sol\":2706:2725  allowed[msg.sender] */\n      0xffffffffffffffffffffffffffffffffffffffff\n      and\n      0xffffffffffffffffffffffffffffffffffffffff\n      and\n      dup2\n      mstore\n      0x20\n      add\n      swap1\n      dup2\n      mstore\n      0x20\n      add\n      0x00\n      keccak256\n        /* \"contracts/nct v4.sol\":2706:2734  allowed[msg.sender][spender] */\n      0x00\n        /* \"contracts/nct v4.sol\":2726:2733  spender */\n      dup6\n        /* \"contracts/nct v4.sol\":2706:2734  allowed[msg.sender][spender] */\n      0xffffffffffffffffffffffffffffffffffffffff\n      and\n      0xffffffffffffffffffffffffffffffffffffffff\n      and\n      dup2\n      mstore\n      0x20\n      add\n      swap1\n      dup2\n      mstore\n      0x20\n      add\n      0x00\n      keccak256\n        /* \"contracts/nct v4.sol\":2706:2743  allowed[msg.sender][spender] = tokens */\n      dup2\n      swap1\n      sstore\n      pop\n        /* \"contracts/nct v4.sol\":2782:2789  spender */\n      dup3\n        /* \"contracts/nct v4.sol\":2761:2798  Approval(msg.sender, spender, tokens) */\n      0xffffffffffffffffffffffffffffffffffffffff\n      and\n        /* \"contracts/nct v4.sol\":2770:2780  msg.sender */\n      caller\n        /* \"contracts/nct v4.sol\":2761:2798  Approval(msg.sender, spender, tokens) */\n      0xffffffffffffffffffffffffffffffffffffffff\n      and\n      0x8c5be1e5ebec7d5bd14f71427d1e84f3dd0314c0f7b2291e5b200ac8c7c3b925\n        /* \"contracts/nct v4.sol\":2791:2797  tokens */\n      dup5\n        /* \"contracts/nct v4.sol\":2761:2798  Approval(msg.sender, spender, tokens) */\n      mload(0x40)\n      tag_212\n      swap2\n      swap1\n      tag_42\n      jump\t// in\n    tag_212:\n      mload(0x40)\n      dup1\n      swap2\n      sub\n      swap1\n      log3\n        /* \"contracts/nct v4.sol\":2816:2820  true */\n      0x01\n        /* \"contracts/nct v4.sol\":2809:2820  return true */\n      swap1\n      pop\n        /* \"contracts/nct v4.sol\":2492:2828  function approve(address spender, uint256 tokens)\r... */\n      swap3\n      swap2\n      pop\n      pop\n      jump\t// out\n        /* \"contracts/nct v4.sol\":1359:1394  uint256 public override totalSupply */\n    tag_60:\n      sload(0x03)\n      dup2\n      jump\t// out\n        /* \"contracts/nct v4.sol\":6840:7215  function transferFrom(\r... */\n    tag_66:\n        /* \"contracts/nct v4.sol\":6963:6975  bool success */\n      0x00\n        /* \"contracts/nct v4.sol\":7014:7029  tokenTradeStart */\n      sload(0x0e)\n        /* \"contracts/nct v4.sol\":6996:7011  block.timestamp */\n      timestamp\n        /* \"contracts/nct v4.sol\":6996:7029  block.timestamp > tokenTradeStart */\n      gt\n        /* \"contracts/nct v4.sol\":6988:7030  require(block.timestamp > tokenTradeStart) */\n      tag_214\n      jumpi\n      0x00\n      dup1\n      revert\n    tag_214:\n        /* \"contracts/nct v4.sol\":7104:7142  Cryptos.transferFrom(from, to, tokens) */\n      tag_215\n        /* \"contracts/nct v4.sol\":7125:7129  from */\n      dup5\n        /* \"contracts/nct v4.sol\":7131:7133  to */\n      dup5\n        /* \"contracts/nct v4.sol\":7135:7141  tokens */\n      dup5\n        /* \"contracts/nct v4.sol\":7104:7124  Cryptos.transferFrom */\n      tag_216\n        /* \"contracts/nct v4.sol\":7104:7142  Cryptos.transferFrom(from, to, tokens) */\n      jump\t// in\n    tag_215:\n      pop\n        /* \"contracts/nct v4.sol\":7203:7207  true */\n      0x01\n        /* \"contracts/nct v4.sol\":7196:7207  return true */\n      swap1\n      pop\n        /* \"contracts/nct v4.sol\":6840:7215  function transferFrom(\r... */\n      swap4\n      swap3\n      pop\n      pop\n      pop\n      jump\t// out\n        /* \"contracts/nct v4.sol\":1432:1475  mapping(address => uint256) public balances */\n    tag_72:\n      mstore(0x20, 0x05)\n      dup1\n      0x00\n      mstore\n      keccak256(0x00, 0x40)\n      0x00\n      swap2\n      pop\n      swap1\n      pop\n      sload\n      dup2\n      jump\t// out\n        /* \"contracts/nct v4.sol\":1324:1352  uint256 public decimals = 18 */\n    tag_76:\n      sload(0x02)\n      dup2\n      jump\t// out\n        /* \"contracts/nct v4.sol\":4479:4889  function getCurrentState() public view returns (State) {\r... */\n    tag_80:\n        /* \"contracts/nct v4.sol\":4527:4532  State */\n      0x00\n        /* \"contracts/nct v4.sol\":4561:4573  State.halted */\n      0x03\n        /* \"contracts/nct v4.sol\":4549:4573  icoState == State.halted */\n      dup1\n      dup2\n      gt\n      iszero\n      tag_218\n      jumpi\n      tag_219\n      tag_160\n      jump\t// in\n    tag_219:\n    tag_218:\n        /* \"contracts/nct v4.sol\":4549:4557  icoState */\n      0x11\n      0x00\n      swap1\n      sload\n      swap1\n      0x0100\n      exp\n      swap1\n      div\n      0xff\n      and\n        /* \"contracts/nct v4.sol\":4549:4573  icoState == State.halted */\n      0x03\n      dup2\n      gt\n      iszero\n      tag_220\n      jumpi\n      tag_221\n      tag_160\n      jump\t// in\n    tag_221:\n    tag_220:\n      eq\n        /* \"contracts/nct v4.sol\":4545:4882  if (icoState == State.halted) {\r... */\n      iszero\n      tag_222\n      jumpi\n        /* \"contracts/nct v4.sol\":4597:4609  State.halted */\n      0x03\n        /* \"contracts/nct v4.sol\":4590:4609  return State.halted */\n      swap1\n      pop\n      jump(tag_217)\n        /* \"contracts/nct v4.sol\":4545:4882  if (icoState == State.halted) {\r... */\n    tag_222:\n        /* \"contracts/nct v4.sol\":4649:4658  saleStart */\n      sload(0x0b)\n        /* \"contracts/nct v4.sol\":4631:4646  block.timestamp */\n      timestamp\n        /* \"contracts/nct v4.sol\":4631:4658  block.timestamp < saleStart */\n      lt\n        /* \"contracts/nct v4.sol\":4627:4882  if (block.timestamp < saleStart) {\r... */\n      iszero\n      tag_224\n      jumpi\n        /* \"contracts/nct v4.sol\":4682:4699  State.beforeStart */\n      0x00\n        /* \"contracts/nct v4.sol\":4675:4699  return State.beforeStart */\n      swap1\n      pop\n      jump(tag_217)\n        /* \"contracts/nct v4.sol\":4627:4882  if (block.timestamp < saleStart) {\r... */\n    tag_224:\n        /* \"contracts/nct v4.sol\":4740:4749  saleStart */\n      sload(0x0b)\n        /* \"contracts/nct v4.sol\":4721:4736  block.timestamp */\n      timestamp\n        /* \"contracts/nct v4.sol\":4721:4749  block.timestamp >= saleStart */\n      lt\n      iszero\n        /* \"contracts/nct v4.sol\":4721:4779  block.timestamp >= saleStart && block.timestamp <= saleEnd */\n      dup1\n      iszero\n      tag_226\n      jumpi\n      pop\n        /* \"contracts/nct v4.sol\":4772:4779  saleEnd */\n      sload(0x0c)\n        /* \"contracts/nct v4.sol\":4753:4768  block.timestamp */\n      timestamp\n        /* \"contracts/nct v4.sol\":4753:4779  block.timestamp <= saleEnd */\n      gt\n      iszero\n        /* \"contracts/nct v4.sol\":4721:4779  block.timestamp >= saleStart && block.timestamp <= saleEnd */\n    tag_226:\n        /* \"contracts/nct v4.sol\":4717:4882  if (block.timestamp >= saleStart && block.timestamp <= saleEnd) {\r... */\n      iszero\n      tag_227\n      jumpi\n        /* \"contracts/nct v4.sol\":4803:4816  State.running */\n      0x01\n        /* \"contracts/nct v4.sol\":4796:4816  return State.running */\n      swap1\n      pop\n      jump(tag_217)\n        /* \"contracts/nct v4.sol\":4717:4882  if (block.timestamp >= saleStart && block.timestamp <= saleEnd) {\r... */\n    tag_227:\n        /* \"contracts/nct v4.sol\":4856:4870  State.afterEnd */\n      0x02\n        /* \"contracts/nct v4.sol\":4849:4870  return State.afterEnd */\n      swap1\n      pop\n        /* \"contracts/nct v4.sol\":4479:4889  function getCurrentState() public view returns (State) {\r... */\n    tag_217:\n      swap1\n      jump\t// out\n        /* \"contracts/nct v4.sol\":6431:6832  function endSale() public {\r... */\n    tag_85:\n        /* \"contracts/nct v4.sol\":6490:6495  admin */\n      0x07\n      0x00\n      swap1\n      sload\n      swap1\n      0x0100\n      exp\n      swap1\n      div\n      0xffffffffffffffffffffffffffffffffffffffff\n      and\n        /* \"contracts/nct v4.sol\":6476:6495  msg.sender == admin */\n      0xffffffffffffffffffffffffffffffffffffffff\n      and\n        /* \"contracts/nct v4.sol\":6476:6486  msg.sender */\n      caller\n        /* \"contracts/nct v4.sol\":6476:6495  msg.sender == admin */\n      0xffffffffffffffffffffffffffffffffffffffff\n      and\n      eq\n        /* \"contracts/nct v4.sol\":6468:6496  require(msg.sender == admin) */\n      tag_230\n      jumpi\n      0x00\n      dup1\n      revert\n    tag_230:\n        /* \"contracts/nct v4.sol\":6529:6542  tokenContract */\n      0x0d\n      0x00\n      swap1\n      sload\n      swap1\n      0x0100\n      exp\n      swap1\n      div\n      0xffffffffffffffffffffffffffffffffffffffff\n      and\n        /* \"contracts/nct v4.sol\":6529:6551  tokenContract.transfer */\n      0xffffffffffffffffffffffffffffffffffffffff\n      and\n      0xa9059cbb\n        /* \"contracts/nct v4.sol\":6570:6575  admin */\n      0x07\n      0x00\n      swap1\n      sload\n      swap1\n      0x0100\n      exp\n      swap1\n      div\n      0xffffffffffffffffffffffffffffffffffffffff\n      and\n        /* \"contracts/nct v4.sol\":6594:6607  tokenContract */\n      0x0d\n      0x00\n      swap1\n      sload\n      swap1\n      0x0100\n      exp\n      swap1\n      div\n      0xffffffffffffffffffffffffffffffffffffffff\n      and\n        /* \"contracts/nct v4.sol\":6594:6617  tokenContract.balanceOf */\n      0xffffffffffffffffffffffffffffffffffffffff\n      and\n      0x70a08231\n        /* \"contracts/nct v4.sol\":6626:6630  this */\n      address\n        /* \"contracts/nct v4.sol\":6594:6632  tokenContract.balanceOf(address(this)) */\n      mload(0x40)\n      dup3\n      0xffffffff\n      and\n      0xe0\n      shl\n      dup2\n      mstore\n      0x04\n      add\n      tag_231\n      swap2\n      swap1\n      tag_94\n      jump\t// in\n    tag_231:\n      0x20\n      mload(0x40)\n      dup1\n      dup4\n      sub\n      dup2\n      dup7\n      dup1\n      extcodesize\n      iszero\n      dup1\n      iszero\n      tag_232\n      jumpi\n      0x00\n      dup1\n      revert\n    tag_232:\n      pop\n      gas\n      staticcall\n      iszero\n      dup1\n      iszero\n      tag_234\n      jumpi\n      returndatasize\n      0x00\n      dup1\n      returndatacopy\n      revert(0x00, returndatasize)\n    tag_234:\n      pop\n      pop\n      pop\n      pop\n      mload(0x40)\n      returndatasize\n      not(0x1f)\n      0x1f\n      dup3\n      add\n      and\n      dup3\n      add\n      dup1\n      0x40\n      mstore\n      pop\n      dup2\n      add\n      swap1\n      tag_235\n      swap2\n      swap1\n      tag_177\n      jump\t// in\n    tag_235:\n        /* \"contracts/nct v4.sol\":6529:6647  tokenContract.transfer(\r... */\n      mload(0x40)\n      dup4\n      0xffffffff\n      and\n      0xe0\n      shl\n      dup2\n      mstore\n      0x04\n      add\n      tag_236\n      swap3\n      swap2\n      swap1\n      tag_184\n      jump\t// in\n    tag_236:\n      0x20\n      mload(0x40)\n      dup1\n      dup4\n      sub\n      dup2\n      0x00\n      dup8\n      dup1\n      extcodesize\n      iszero\n      dup1\n      iszero\n      tag_237\n      jumpi\n      0x00\n      dup1\n      revert\n    tag_237:\n      pop\n      gas\n      call\n      iszero\n      dup1\n      iszero\n      tag_239\n      jumpi\n      returndatasize\n      0x00\n      dup1\n      returndatacopy\n      revert(0x00, returndatasize)\n    tag_239:\n      pop\n      pop\n      pop\n      pop\n      mload(0x40)\n      returndatasize\n      not(0x1f)\n      0x1f\n      dup3\n      add\n      and\n      dup3\n      add\n      dup1\n      0x40\n      mstore\n      pop\n      dup2\n      add\n      swap1\n      tag_240\n      swap2\n      swap1\n      tag_189\n      jump\t// in\n    tag_240:\n        /* \"contracts/nct v4.sol\":6507:6658  require(\r... */\n      tag_241\n      jumpi\n      0x00\n      dup1\n      revert\n    tag_241:\n        /* \"contracts/nct v4.sol\":6786:6791  admin */\n      0x07\n      0x00\n      swap1\n      sload\n      swap1\n      0x0100\n      exp\n      swap1\n      div\n      0xffffffffffffffffffffffffffffffffffffffff\n      and\n        /* \"contracts/nct v4.sol\":6778:6801  payable(admin).transfer */\n      0xffffffffffffffffffffffffffffffffffffffff\n      and\n        /* \"contracts/nct v4.sol\":6778:6824  payable(admin).transfer(address(this).balance) */\n      0x08fc\n        /* \"contracts/nct v4.sol\":6802:6823  address(this).balance */\n      selfbalance\n        /* \"contracts/nct v4.sol\":6778:6824  payable(admin).transfer(address(this).balance) */\n      swap1\n      dup2\n      iszero\n      mul\n      swap1\n      mload(0x40)\n      0x00\n      mload(0x40)\n      dup1\n      dup4\n      sub\n      dup2\n      dup6\n      dup9\n      dup9\n      call\n      swap4\n      pop\n      pop\n      pop\n      pop\n      iszero\n      dup1\n      iszero\n      tag_243\n      jumpi\n      returndatasize\n      0x00\n      dup1\n      returndatacopy\n      revert(0x00, returndatasize)\n    tag_243:\n      pop\n        /* \"contracts/nct v4.sol\":6431:6832  function endSale() public {\r... */\n      jump\t// out\n        /* \"contracts/nct v4.sol\":3925:3946  State public icoState */\n    tag_88:\n      0x11\n      0x00\n      swap1\n      sload\n      swap1\n      0x0100\n      exp\n      swap1\n      div\n      0xff\n      and\n      dup2\n      jump\t// out\n        /* \"contracts/nct v4.sol\":1403:1425  address public founder */\n    tag_92:\n      0x04\n      0x00\n      swap1\n      sload\n      swap1\n      0x0100\n      exp\n      swap1\n      div\n      0xffffffffffffffffffffffffffffffffffffffff\n      and\n      dup2\n      jump\t// out\n        /* \"contracts/nct v4.sol\":3580:3615  ERC20Interface public tokenContract */\n    tag_97:\n      0x0d\n      0x00\n      swap1\n      sload\n      swap1\n      0x0100\n      exp\n      swap1\n      div\n      0xffffffffffffffffffffffffffffffffffffffff\n      and\n      dup2\n      jump\t// out\n        /* \"contracts/nct v4.sol\":4357:4471  function changeDepositAddress(address payable newDeposit) public onlyAdmin {\r... */\n    tag_104:\n        /* \"contracts/nct v4.sol\":4237:4242  admin */\n      0x07\n      0x00\n      swap1\n      sload\n      swap1\n      0x0100\n      exp\n      swap1\n      div\n      0xffffffffffffffffffffffffffffffffffffffff\n      and\n        /* \"contracts/nct v4.sol\":4223:4242  msg.sender == admin */\n      0xffffffffffffffffffffffffffffffffffffffff\n      and\n        /* \"contracts/nct v4.sol\":4223:4233  msg.sender */\n      caller\n        /* \"contracts/nct v4.sol\":4223:4242  msg.sender == admin */\n      0xffffffffffffffffffffffffffffffffffffffff\n      and\n      eq\n        /* \"contracts/nct v4.sol\":4215:4243  require(msg.sender == admin) */\n      tag_245\n      jumpi\n      0x00\n      dup1\n      revert\n    tag_245:\n        /* \"contracts/nct v4.sol\":4453:4463  newDeposit */\n      dup1\n        /* \"contracts/nct v4.sol\":4443:4450  deposit */\n      0x08\n      0x00\n        /* \"contracts/nct v4.sol\":4443:4463  deposit = newDeposit */\n      0x0100\n      exp\n      dup2\n      sload\n      dup2\n      0xffffffffffffffffffffffffffffffffffffffff\n      mul\n      not\n      and\n      swap1\n      dup4\n      0xffffffffffffffffffffffffffffffffffffffff\n      and\n      mul\n      or\n      swap1\n      sstore\n      pop\n        /* \"contracts/nct v4.sol\":4357:4471  function changeDepositAddress(address payable newDeposit) public onlyAdmin {\r... */\n      pop\n      jump\t// out\n        /* \"contracts/nct v4.sol\":1765:1938  function balanceOf(address tokenOwner)\r... */\n    tag_108:\n        /* \"contracts/nct v4.sol\":1870:1885  uint256 balance */\n      0x00\n        /* \"contracts/nct v4.sol\":1910:1918  balances */\n      0x05\n        /* \"contracts/nct v4.sol\":1910:1930  balances[tokenOwner] */\n      0x00\n        /* \"contracts/nct v4.sol\":1919:1929  tokenOwner */\n      dup4\n        /* \"contracts/nct v4.sol\":1910:1930  balances[tokenOwner] */\n      0xffffffffffffffffffffffffffffffffffffffff\n      and\n      0xffffffffffffffffffffffffffffffffffffffff\n      and\n      dup2\n      mstore\n      0x20\n      add\n      swap1\n      dup2\n      mstore\n      0x20\n      add\n      0x00\n      keccak256\n      sload\n        /* \"contracts/nct v4.sol\":1903:1930  return balances[tokenOwner] */\n      swap1\n      pop\n        /* \"contracts/nct v4.sol\":1765:1938  function balanceOf(address tokenOwner)\r... */\n      swap2\n      swap1\n      pop\n      jump\t// out\n        /* \"contracts/nct v4.sol\":3762:3802  uint256 public minInvestment = 0.1 ether */\n    tag_112:\n      sload(0x10)\n      dup2\n      jump\t// out\n        /* \"contracts/nct v4.sol\":1289:1317  string public symbol = \"NCT\" */\n    tag_116:\n      0x01\n      dup1\n      sload\n      tag_248\n      swap1\n      tag_204\n      jump\t// in\n    tag_248:\n      dup1\n      0x1f\n      add\n      0x20\n      dup1\n      swap2\n      div\n      mul\n      0x20\n      add\n      mload(0x40)\n      swap1\n      dup2\n      add\n      0x40\n      mstore\n      dup1\n      swap3\n      swap2\n      swap1\n      dup2\n      dup2\n      mstore\n      0x20\n      add\n      dup3\n      dup1\n      sload\n      tag_249\n      swap1\n      tag_204\n      jump\t// in\n    tag_249:\n      dup1\n      iszero\n      tag_250\n      jumpi\n      dup1\n      0x1f\n      lt\n      tag_251\n      jumpi\n      0x0100\n      dup1\n      dup4\n      sload\n      div\n      mul\n      dup4\n      mstore\n      swap2\n      0x20\n      add\n      swap2\n      jump(tag_250)\n    tag_251:\n      dup3\n      add\n      swap2\n      swap1\n      0x00\n      mstore\n      keccak256(0x00, 0x20)\n      swap1\n    tag_252:\n      dup2\n      sload\n      dup2\n      mstore\n      swap1\n      0x01\n      add\n      swap1\n      0x20\n      add\n      dup1\n      dup4\n      gt\n      tag_252\n      jumpi\n      dup3\n      swap1\n      sub\n      0x1f\n      and\n      dup3\n      add\n      swap2\n    tag_250:\n      pop\n      pop\n      pop\n      pop\n      pop\n      dup2\n      jump\t// out\n        /* \"contracts/nct v4.sol\":6019:6423  function transfer(address to, uint256 tokens)\r... */\n    tag_121:\n        /* \"contracts/nct v4.sol\":6117:6129  bool success */\n      0x00\n        /* \"contracts/nct v4.sol\":6173:6188  tokenTradeStart */\n      sload(0x0e)\n        /* \"contracts/nct v4.sol\":6155:6170  block.timestamp */\n      timestamp\n        /* \"contracts/nct v4.sol\":6155:6188  block.timestamp > tokenTradeStart */\n      gt\n        /* \"contracts/nct v4.sol\":6147:6189  require(block.timestamp > tokenTradeStart) */\n      tag_254\n      jumpi\n      0x00\n      dup1\n      revert\n    tag_254:\n        /* \"contracts/nct v4.sol\":6326:6352  super.transfer(to, tokens) */\n      tag_255\n        /* \"contracts/nct v4.sol\":6341:6343  to */\n      dup4\n        /* \"contracts/nct v4.sol\":6345:6351  tokens */\n      dup4\n        /* \"contracts/nct v4.sol\":6326:6340  super.transfer */\n      tag_256\n        /* \"contracts/nct v4.sol\":6326:6352  super.transfer(to, tokens) */\n      jump\t// in\n    tag_255:\n      pop\n        /* \"contracts/nct v4.sol\":6411:6415  true */\n      0x01\n        /* \"contracts/nct v4.sol\":6404:6415  return true */\n      swap1\n      pop\n        /* \"contracts/nct v4.sol\":6019:6423  function transfer(address to, uint256 tokens)\r... */\n      swap3\n      swap2\n      pop\n      pop\n      jump\t// out\n        /* \"contracts/nct v4.sol\":3464:3506  uint256 public saleStart = block.timestamp */\n    tag_125:\n      sload(0x0b)\n      dup2\n      jump\t// out\n        /* \"contracts/nct v4.sol\":3513:3562  uint256 public saleEnd = block.timestamp + 604800 */\n    tag_129:\n      sload(0x0c)\n      dup2\n      jump\t// out\n        /* \"contracts/nct v4.sol\":3401:3428  uint256 public raisedAmount */\n    tag_133:\n      sload(0x0a)\n      dup2\n      jump\t// out\n        /* \"contracts/nct v4.sol\":3622:3671  uint256 public tokenTradeStart = saleEnd + 604800 */\n    tag_137:\n      sload(0x0e)\n      dup2\n      jump\t// out\n        /* \"contracts/nct v4.sol\":3284:3314  address payable public deposit */\n    tag_141:\n      0x08\n      0x00\n      swap1\n      sload\n      swap1\n      0x0100\n      exp\n      swap1\n      div\n      0xffffffffffffffffffffffffffffffffffffffff\n      and\n      dup2\n      jump\t// out\n        /* \"contracts/nct v4.sol\":2294:2484  function allowance(address tokenOwner, address spender)\r... */\n    tag_148:\n        /* \"contracts/nct v4.sol\":2416:2423  uint256 */\n      0x00\n        /* \"contracts/nct v4.sol\":2448:2455  allowed */\n      0x06\n        /* \"contracts/nct v4.sol\":2448:2467  allowed[tokenOwner] */\n      0x00\n        /* \"contracts/nct v4.sol\":2456:2466  tokenOwner */\n      dup5\n        /* \"contracts/nct v4.sol\":2448:2467  allowed[tokenOwner] */\n      0xffffffffffffffffffffffffffffffffffffffff\n      and\n      0xffffffffffffffffffffffffffffffffffffffff\n      and\n      dup2\n      mstore\n      0x20\n      add\n      swap1\n      dup2\n      mstore\n      0x20\n      add\n      0x00\n      keccak256\n        /* \"contracts/nct v4.sol\":2448:2476  allowed[tokenOwner][spender] */\n      0x00\n        /* \"contracts/nct v4.sol\":2468:2475  spender */\n      dup4\n        /* \"contracts/nct v4.sol\":2448:2476  allowed[tokenOwner][spender] */\n      0xffffffffffffffffffffffffffffffffffffffff\n      and\n      0xffffffffffffffffffffffffffffffffffffffff\n      and\n      dup2\n      mstore\n      0x20\n      add\n      swap1\n      dup2\n      mstore\n      0x20\n      add\n      0x00\n      keccak256\n      sload\n        /* \"contracts/nct v4.sol\":2441:2476  return allowed[tokenOwner][spender] */\n      swap1\n      pop\n        /* \"contracts/nct v4.sol\":2294:2484  function allowance(address tokenOwner, address spender)\r... */\n      swap3\n      swap2\n      pop\n      pop\n      jump\t// out\n        /* \"contracts/nct v4.sol\":3257:3277  address public admin */\n    tag_154:\n      0x07\n      0x00\n      swap1\n      sload\n      swap1\n      0x0100\n      exp\n      swap1\n      div\n      0xffffffffffffffffffffffffffffffffffffffff\n      and\n      dup2\n      jump\t// out\n        /* \"contracts/nct v4.sol\":2836:3212  function transferFrom(\r... */\n    tag_216:\n        /* \"contracts/nct v4.sol\":2967:2979  bool success */\n      0x00\n        /* \"contracts/nct v4.sol\":3021:3027  tokens */\n      dup2\n        /* \"contracts/nct v4.sol\":3000:3007  allowed */\n      0x06\n        /* \"contracts/nct v4.sol\":3000:3013  allowed[from] */\n      0x00\n        /* \"contracts/nct v4.sol\":3008:3012  from */\n      dup7\n        /* \"contracts/nct v4.sol\":3000:3013  allowed[from] */\n      0xffffffffffffffffffffffffffffffffffffffff\n      and\n      0xffffffffffffffffffffffffffffffffffffffff\n      and\n      dup2\n      mstore\n      0x20\n      add\n      swap1\n      dup2\n      mstore\n      0x20\n      add\n      0x00\n      keccak256\n        /* \"contracts/nct v4.sol\":3000:3017  allowed[from][to] */\n      0x00\n        /* \"contracts/nct v4.sol\":3014:3016  to */\n      dup6\n        /* \"contracts/nct v4.sol\":3000:3017  allowed[from][to] */\n      0xffffffffffffffffffffffffffffffffffffffff\n      and\n      0xffffffffffffffffffffffffffffffffffffffff\n      and\n      dup2\n      mstore\n      0x20\n      add\n      swap1\n      dup2\n      mstore\n      0x20\n      add\n      0x00\n      keccak256\n      sload\n        /* \"contracts/nct v4.sol\":3000:3027  allowed[from][to] >= tokens */\n      lt\n      iszero\n        /* \"contracts/nct v4.sol\":2992:3028  require(allowed[from][to] >= tokens) */\n      tag_259\n      jumpi\n      0x00\n      dup1\n      revert\n    tag_259:\n        /* \"contracts/nct v4.sol\":3065:3071  tokens */\n      dup2\n        /* \"contracts/nct v4.sol\":3047:3055  balances */\n      0x05\n        /* \"contracts/nct v4.sol\":3047:3061  balances[from] */\n      0x00\n        /* \"contracts/nct v4.sol\":3056:3060  from */\n      dup7\n        /* \"contracts/nct v4.sol\":3047:3061  balances[from] */\n      0xffffffffffffffffffffffffffffffffffffffff\n      and\n      0xffffffffffffffffffffffffffffffffffffffff\n      and\n      dup2\n      mstore\n      0x20\n      add\n      swap1\n      dup2\n      mstore\n      0x20\n      add\n      0x00\n      keccak256\n      sload\n        /* \"contracts/nct v4.sol\":3047:3071  balances[from] >= tokens */\n      lt\n      iszero\n        /* \"contracts/nct v4.sol\":3039:3072  require(balances[from] >= tokens) */\n      tag_260\n      jumpi\n      0x00\n      dup1\n      revert\n    tag_260:\n        /* \"contracts/nct v4.sol\":3103:3109  tokens */\n      dup2\n        /* \"contracts/nct v4.sol\":3085:3093  balances */\n      0x05\n        /* \"contracts/nct v4.sol\":3085:3099  balances[from] */\n      0x00\n        /* \"contracts/nct v4.sol\":3094:3098  from */\n      dup7\n        /* \"contracts/nct v4.sol\":3085:3099  balances[from] */\n      0xffffffffffffffffffffffffffffffffffffffff\n      and\n      0xffffffffffffffffffffffffffffffffffffffff\n      and\n      dup2\n      mstore\n      0x20\n      add\n      swap1\n      dup2\n      mstore\n      0x20\n      add\n      0x00\n      keccak256\n      0x00\n        /* \"contracts/nct v4.sol\":3085:3109  balances[from] -= tokens */\n      dup3\n      dup3\n      sload\n      tag_261\n      swap2\n      swap1\n      tag_193\n      jump\t// in\n    tag_261:\n      swap3\n      pop\n      pop\n      dup2\n      swap1\n      sstore\n      pop\n        /* \"contracts/nct v4.sol\":3136:3142  tokens */\n      dup2\n        /* \"contracts/nct v4.sol\":3120:3128  balances */\n      0x05\n        /* \"contracts/nct v4.sol\":3120:3132  balances[to] */\n      0x00\n        /* \"contracts/nct v4.sol\":3129:3131  to */\n      dup6\n        /* \"contracts/nct v4.sol\":3120:3132  balances[to] */\n      0xffffffffffffffffffffffffffffffffffffffff\n      and\n      0xffffffffffffffffffffffffffffffffffffffff\n      and\n      dup2\n      mstore\n      0x20\n      add\n      swap1\n      dup2\n      mstore\n      0x20\n      add\n      0x00\n      keccak256\n      0x00\n        /* \"contracts/nct v4.sol\":3120:3142  balances[to] += tokens */\n      dup3\n      dup3\n      sload\n      tag_262\n      swap2\n      swap1\n      tag_169\n      jump\t// in\n    tag_262:\n      swap3\n      pop\n      pop\n      dup2\n      swap1\n      sstore\n      pop\n        /* \"contracts/nct v4.sol\":3174:3180  tokens */\n      dup2\n        /* \"contracts/nct v4.sol\":3153:3160  allowed */\n      0x06\n        /* \"contracts/nct v4.sol\":3153:3166  allowed[from] */\n      0x00\n        /* \"contracts/nct v4.sol\":3161:3165  from */\n      dup7\n        /* \"contracts/nct v4.sol\":3153:3166  allowed[from] */\n      0xffffffffffffffffffffffffffffffffffffffff\n      and\n      0xffffffffffffffffffffffffffffffffffffffff\n      and\n      dup2\n      mstore\n      0x20\n      add\n      swap1\n      dup2\n      mstore\n      0x20\n      add\n      0x00\n      keccak256\n        /* \"contracts/nct v4.sol\":3153:3170  allowed[from][to] */\n      0x00\n        /* \"contracts/nct v4.sol\":3167:3169  to */\n      dup6\n        /* \"contracts/nct v4.sol\":3153:3170  allowed[from][to] */\n      0xffffffffffffffffffffffffffffffffffffffff\n      and\n      0xffffffffffffffffffffffffffffffffffffffff\n      and\n      dup2\n      mstore\n      0x20\n      add\n      swap1\n      dup2\n      mstore\n      0x20\n      add\n      0x00\n      keccak256\n      0x00\n        /* \"contracts/nct v4.sol\":3153:3180  allowed[from][to] -= tokens */\n      dup3\n      dup3\n      sload\n      tag_263\n      swap2\n      swap1\n      tag_193\n      jump\t// in\n    tag_263:\n      swap3\n      pop\n      pop\n      dup2\n      swap1\n      sstore\n      pop\n        /* \"contracts/nct v4.sol\":3200:3204  true */\n      0x01\n        /* \"contracts/nct v4.sol\":3193:3204  return true */\n      swap1\n      pop\n        /* \"contracts/nct v4.sol\":2836:3212  function transferFrom(\r... */\n      swap4\n      swap3\n      pop\n      pop\n      pop\n      jump\t// out\n        /* \"contracts/nct v4.sol\":1946:2286  function transfer(address to, uint256 tokens)\r... */\n    tag_256:\n        /* \"contracts/nct v4.sol\":2061:2073  bool success */\n      0x00\n        /* \"contracts/nct v4.sol\":2123:2129  tokens */\n      dup2\n        /* \"contracts/nct v4.sol\":2099:2107  balances */\n      0x05\n        /* \"contracts/nct v4.sol\":2099:2119  balances[msg.sender] */\n      0x00\n        /* \"contracts/nct v4.sol\":2108:2118  msg.sender */\n      caller\n        /* \"contracts/nct v4.sol\":2099:2119  balances[msg.sender] */\n      0xffffffffffffffffffffffffffffffffffffffff\n      and\n      0xffffffffffffffffffffffffffffffffffffffff\n      and\n      dup2\n      mstore\n      0x20\n      add\n      swap1\n      dup2\n      mstore\n      0x20\n      add\n      0x00\n      keccak256\n      sload\n        /* \"contracts/nct v4.sol\":2099:2129  balances[msg.sender] >= tokens */\n      lt\n      iszero\n        /* \"contracts/nct v4.sol\":2091:2130  require(balances[msg.sender] >= tokens) */\n      tag_265\n      jumpi\n      0x00\n      dup1\n      revert\n    tag_265:\n        /* \"contracts/nct v4.sol\":2159:2165  tokens */\n      dup2\n        /* \"contracts/nct v4.sol\":2143:2151  balances */\n      0x05\n        /* \"contracts/nct v4.sol\":2143:2155  balances[to] */\n      0x00\n        /* \"contracts/nct v4.sol\":2152:2154  to */\n      dup6\n        /* \"contracts/nct v4.sol\":2143:2155  balances[to] */\n      0xffffffffffffffffffffffffffffffffffffffff\n      and\n      0xffffffffffffffffffffffffffffffffffffffff\n      and\n      dup2\n      mstore\n      0x20\n      add\n      swap1\n      dup2\n      mstore\n      0x20\n      add\n      0x00\n      keccak256\n      0x00\n        /* \"contracts/nct v4.sol\":2143:2165  balances[to] += tokens */\n      dup3\n      dup3\n      sload\n      tag_266\n      swap2\n      swap1\n      tag_169\n      jump\t// in\n    tag_266:\n      swap3\n      pop\n      pop\n      dup2\n      swap1\n      sstore\n      pop\n        /* \"contracts/nct v4.sol\":2200:2206  tokens */\n      dup2\n        /* \"contracts/nct v4.sol\":2176:2184  balances */\n      0x05\n        /* \"contracts/nct v4.sol\":2176:2196  balances[msg.sender] */\n      0x00\n        /* \"contracts/nct v4.sol\":2185:2195  msg.sender */\n      caller\n        /* \"contracts/nct v4.sol\":2176:2196  balances[msg.sender] */\n      0xffffffffffffffffffffffffffffffffffffffff\n      and\n      0xffffffffffffffffffffffffffffffffffffffff\n      and\n      dup2\n      mstore\n      0x20\n      add\n      swap1\n      dup2\n      mstore\n      0x20\n      add\n      0x00\n      keccak256\n      0x00\n        /* \"contracts/nct v4.sol\":2176:2206  balances[msg.sender] -= tokens */\n      dup3\n      dup3\n      sload\n      tag_267\n      swap2\n      swap1\n      tag_193\n      jump\t// in\n    tag_267:\n      swap3\n      pop\n      pop\n      dup2\n      swap1\n      sstore\n      pop\n        /* \"contracts/nct v4.sol\":2243:2245  to */\n      dup3\n        /* \"contracts/nct v4.sol\":2222:2254  Transfer(msg.sender, to, tokens) */\n      0xffffffffffffffffffffffffffffffffffffffff\n      and\n        /* \"contracts/nct v4.sol\":2231:2241  msg.sender */\n      caller\n        /* \"contracts/nct v4.sol\":2222:2254  Transfer(msg.sender, to, tokens) */\n      0xffffffffffffffffffffffffffffffffffffffff\n      and\n      0xddf252ad1be2c89b69c2b068fc378daa952ba7f163c4a11628f55a4df523b3ef\n        /* \"contracts/nct v4.sol\":2247:2253  tokens */\n      dup5\n        /* \"contracts/nct v4.sol\":2222:2254  Transfer(msg.sender, to, tokens) */\n      mload(0x40)\n      tag_268\n      swap2\n      swap1\n      tag_42\n      jump\t// in\n    tag_268:\n      mload(0x40)\n      dup1\n      swap2\n      sub\n      swap1\n      log3\n        /* \"contracts/nct v4.sol\":2274:2278  true */\n      0x01\n        /* \"contracts/nct v4.sol\":2267:2278  return true */\n      swap1\n      pop\n        /* \"contracts/nct v4.sol\":1946:2286  function transfer(address to, uint256 tokens)\r... */\n      swap3\n      swap2\n      pop\n      pop\n      jump\t// out\n        /* \"#utility.yul\":7:146   */\n    tag_270:\n        /* \"#utility.yul\":53:58   */\n      0x00\n        /* \"#utility.yul\":91:97   */\n      dup2\n        /* \"#utility.yul\":78:98   */\n      calldataload\n        /* \"#utility.yul\":69:98   */\n      swap1\n      pop\n        /* \"#utility.yul\":107:140   */\n      tag_272\n        /* \"#utility.yul\":134:139   */\n      dup2\n        /* \"#utility.yul\":107:140   */\n      tag_273\n      jump\t// in\n    tag_272:\n        /* \"#utility.yul\":7:146   */\n      swap3\n      swap2\n      pop\n      pop\n      jump\t// out\n        /* \"#utility.yul\":152:307   */\n    tag_274:\n        /* \"#utility.yul\":206:211   */\n      0x00\n        /* \"#utility.yul\":244:250   */\n      dup2\n        /* \"#utility.yul\":231:251   */\n      calldataload\n        /* \"#utility.yul\":222:251   */\n      swap1\n      pop\n        /* \"#utility.yul\":260:301   */\n      tag_276\n        /* \"#utility.yul\":295:300   */\n      dup2\n        /* \"#utility.yul\":260:301   */\n      tag_277\n      jump\t// in\n    tag_276:\n        /* \"#utility.yul\":152:307   */\n      swap3\n      swap2\n      pop\n      pop\n      jump\t// out\n        /* \"#utility.yul\":313:450   */\n    tag_278:\n        /* \"#utility.yul\":367:372   */\n      0x00\n        /* \"#utility.yul\":398:404   */\n      dup2\n        /* \"#utility.yul\":392:405   */\n      mload\n        /* \"#utility.yul\":383:405   */\n      swap1\n      pop\n        /* \"#utility.yul\":414:444   */\n      tag_280\n        /* \"#utility.yul\":438:443   */\n      dup2\n        /* \"#utility.yul\":414:444   */\n      tag_281\n      jump\t// in\n    tag_280:\n        /* \"#utility.yul\":313:450   */\n      swap3\n      swap2\n      pop\n      pop\n      jump\t// out\n        /* \"#utility.yul\":456:595   */\n    tag_282:\n        /* \"#utility.yul\":502:507   */\n      0x00\n        /* \"#utility.yul\":540:546   */\n      dup2\n        /* \"#utility.yul\":527:547   */\n      calldataload\n        /* \"#utility.yul\":518:547   */\n      swap1\n      pop\n        /* \"#utility.yul\":556:589   */\n      tag_284\n        /* \"#utility.yul\":583:588   */\n      dup2\n        /* \"#utility.yul\":556:589   */\n      tag_285\n      jump\t// in\n    tag_284:\n        /* \"#utility.yul\":456:595   */\n      swap3\n      swap2\n      pop\n      pop\n      jump\t// out\n        /* \"#utility.yul\":601:744   */\n    tag_286:\n        /* \"#utility.yul\":658:663   */\n      0x00\n        /* \"#utility.yul\":689:695   */\n      dup2\n        /* \"#utility.yul\":683:696   */\n      mload\n        /* \"#utility.yul\":674:696   */\n      swap1\n      pop\n        /* \"#utility.yul\":705:738   */\n      tag_288\n        /* \"#utility.yul\":732:737   */\n      dup2\n        /* \"#utility.yul\":705:738   */\n      tag_285\n      jump\t// in\n    tag_288:\n        /* \"#utility.yul\":601:744   */\n      swap3\n      swap2\n      pop\n      pop\n      jump\t// out\n        /* \"#utility.yul\":750:1079   */\n    tag_71:\n        /* \"#utility.yul\":809:815   */\n      0x00\n        /* \"#utility.yul\":858:860   */\n      0x20\n        /* \"#utility.yul\":846:855   */\n      dup3\n        /* \"#utility.yul\":837:844   */\n      dup5\n        /* \"#utility.yul\":833:856   */\n      sub\n        /* \"#utility.yul\":829:861   */\n      slt\n        /* \"#utility.yul\":826:945   */\n      iszero\n      tag_290\n      jumpi\n        /* \"#utility.yul\":864:943   */\n      tag_291\n      tag_292\n      jump\t// in\n    tag_291:\n        /* \"#utility.yul\":826:945   */\n    tag_290:\n        /* \"#utility.yul\":984:985   */\n      0x00\n        /* \"#utility.yul\":1009:1062   */\n      tag_293\n        /* \"#utility.yul\":1054:1061   */\n      dup5\n        /* \"#utility.yul\":1045:1051   */\n      dup3\n        /* \"#utility.yul\":1034:1043   */\n      dup6\n        /* \"#utility.yul\":1030:1052   */\n      add\n        /* \"#utility.yul\":1009:1062   */\n      tag_270\n      jump\t// in\n    tag_293:\n        /* \"#utility.yul\":999:1062   */\n      swap2\n      pop\n        /* \"#utility.yul\":955:1072   */\n      pop\n        /* \"#utility.yul\":750:1079   */\n      swap3\n      swap2\n      pop\n      pop\n      jump\t// out\n        /* \"#utility.yul\":1085:1430   */\n    tag_103:\n        /* \"#utility.yul\":1152:1158   */\n      0x00\n        /* \"#utility.yul\":1201:1203   */\n      0x20\n        /* \"#utility.yul\":1189:1198   */\n      dup3\n        /* \"#utility.yul\":1180:1187   */\n      dup5\n        /* \"#utility.yul\":1176:1199   */\n      sub\n        /* \"#utility.yul\":1172:1204   */\n      slt\n        /* \"#utility.yul\":1169:1288   */\n      iszero\n      tag_295\n      jumpi\n        /* \"#utility.yul\":1207:1286   */\n      tag_296\n      tag_292\n      jump\t// in\n    tag_296:\n        /* \"#utility.yul\":1169:1288   */\n    tag_295:\n        /* \"#utility.yul\":1327:1328   */\n      0x00\n        /* \"#utility.yul\":1352:1413   */\n      tag_297\n        /* \"#utility.yul\":1405:1412   */\n      dup5\n        /* \"#utility.yul\":1396:1402   */\n      dup3\n        /* \"#utility.yul\":1385:1394   */\n      dup6\n        /* \"#utility.yul\":1381:1403   */\n      add\n        /* \"#utility.yul\":1352:1413   */\n      tag_274\n      jump\t// in\n    tag_297:\n        /* \"#utility.yul\":1342:1413   */\n      swap2\n      pop\n        /* \"#utility.yul\":1298:1423   */\n      pop\n        /* \"#utility.yul\":1085:1430   */\n      swap3\n      swap2\n      pop\n      pop\n      jump\t// out\n        /* \"#utility.yul\":1436:1910   */\n    tag_147:\n        /* \"#utility.yul\":1504:1510   */\n      0x00\n        /* \"#utility.yul\":1512:1518   */\n      dup1\n        /* \"#utility.yul\":1561:1563   */\n      0x40\n        /* \"#utility.yul\":1549:1558   */\n      dup4\n        /* \"#utility.yul\":1540:1547   */\n      dup6\n        /* \"#utility.yul\":1536:1559   */\n      sub\n        /* \"#utility.yul\":1532:1564   */\n      slt\n        /* \"#utility.yul\":1529:1648   */\n      iszero\n      tag_299\n      jumpi\n        /* \"#utility.yul\":1567:1646   */\n      tag_300\n      tag_292\n      jump\t// in\n    tag_300:\n        /* \"#utility.yul\":1529:1648   */\n    tag_299:\n        /* \"#utility.yul\":1687:1688   */\n      0x00\n        /* \"#utility.yul\":1712:1765   */\n      tag_301\n        /* \"#utility.yul\":1757:1764   */\n      dup6\n        /* \"#utility.yul\":1748:1754   */\n      dup3\n        /* \"#utility.yul\":1737:1746   */\n      dup7\n        /* \"#utility.yul\":1733:1755   */\n      add\n        /* \"#utility.yul\":1712:1765   */\n      tag_270\n      jump\t// in\n    tag_301:\n        /* \"#utility.yul\":1702:1765   */\n      swap3\n      pop\n        /* \"#utility.yul\":1658:1775   */\n      pop\n        /* \"#utility.yul\":1814:1816   */\n      0x20\n        /* \"#utility.yul\":1840:1893   */\n      tag_302\n        /* \"#utility.yul\":1885:1892   */\n      dup6\n        /* \"#utility.yul\":1876:1882   */\n      dup3\n        /* \"#utility.yul\":1865:1874   */\n      dup7\n        /* \"#utility.yul\":1861:1883   */\n      add\n        /* \"#utility.yul\":1840:1893   */\n      tag_270\n      jump\t// in\n    tag_302:\n        /* \"#utility.yul\":1830:1893   */\n      swap2\n      pop\n        /* \"#utility.yul\":1785:1903   */\n      pop\n        /* \"#utility.yul\":1436:1910   */\n      swap3\n      pop\n      swap3\n      swap1\n      pop\n      jump\t// out\n        /* \"#utility.yul\":1916:2535   */\n    tag_65:\n        /* \"#utility.yul\":1993:1999   */\n      0x00\n        /* \"#utility.yul\":2001:2007   */\n      dup1\n        /* \"#utility.yul\":2009:2015   */\n      0x00\n        /* \"#utility.yul\":2058:2060   */\n      0x60\n        /* \"#utility.yul\":2046:2055   */\n      dup5\n        /* \"#utility.yul\":2037:2044   */\n      dup7\n        /* \"#utility.yul\":2033:2056   */\n      sub\n        /* \"#utility.yul\":2029:2061   */\n      slt\n        /* \"#utility.yul\":2026:2145   */\n      iszero\n      tag_304\n      jumpi\n        /* \"#utility.yul\":2064:2143   */\n      tag_305\n      tag_292\n      jump\t// in\n    tag_305:\n        /* \"#utility.yul\":2026:2145   */\n    tag_304:\n        /* \"#utility.yul\":2184:2185   */\n      0x00\n        /* \"#utility.yul\":2209:2262   */\n      tag_306\n        /* \"#utility.yul\":2254:2261   */\n      dup7\n        /* \"#utility.yul\":2245:2251   */\n      dup3\n        /* \"#utility.yul\":2234:2243   */\n      dup8\n        /* \"#utility.yul\":2230:2252   */\n      add\n        /* \"#utility.yul\":2209:2262   */\n      tag_270\n      jump\t// in\n    tag_306:\n        /* \"#utility.yul\":2199:2262   */\n      swap4\n      pop\n        /* \"#utility.yul\":2155:2272   */\n      pop\n        /* \"#utility.yul\":2311:2313   */\n      0x20\n        /* \"#utility.yul\":2337:2390   */\n      tag_307\n        /* \"#utility.yul\":2382:2389   */\n      dup7\n        /* \"#utility.yul\":2373:2379   */\n      dup3\n        /* \"#utility.yul\":2362:2371   */\n      dup8\n        /* \"#utility.yul\":2358:2380   */\n      add\n        /* \"#utility.yul\":2337:2390   */\n      tag_270\n      jump\t// in\n    tag_307:\n        /* \"#utility.yul\":2327:2390   */\n      swap3\n      pop\n        /* \"#utility.yul\":2282:2400   */\n      pop\n        /* \"#utility.yul\":2439:2441   */\n      0x40\n        /* \"#utility.yul\":2465:2518   */\n      tag_308\n        /* \"#utility.yul\":2510:2517   */\n      dup7\n        /* \"#utility.yul\":2501:2507   */\n      dup3\n        /* \"#utility.yul\":2490:2499   */\n      dup8\n        /* \"#utility.yul\":2486:2508   */\n      add\n        /* \"#utility.yul\":2465:2518   */\n      tag_282\n      jump\t// in\n    tag_308:\n        /* \"#utility.yul\":2455:2518   */\n      swap2\n      pop\n        /* \"#utility.yul\":2410:2528   */\n      pop\n        /* \"#utility.yul\":1916:2535   */\n      swap3\n      pop\n      swap3\n      pop\n      swap3\n      jump\t// out\n        /* \"#utility.yul\":2541:3015   */\n    tag_54:\n        /* \"#utility.yul\":2609:2615   */\n      0x00\n        /* \"#utility.yul\":2617:2623   */\n      dup1\n        /* \"#utility.yul\":2666:2668   */\n      0x40\n        /* \"#utility.yul\":2654:2663   */\n      dup4\n        /* \"#utility.yul\":2645:2652   */\n      dup6\n        /* \"#utility.yul\":2641:2664   */\n      sub\n        /* \"#utility.yul\":2637:2669   */\n      slt\n        /* \"#utility.yul\":2634:2753   */\n      iszero\n      tag_310\n      jumpi\n        /* \"#utility.yul\":2672:2751   */\n      tag_311\n      tag_292\n      jump\t// in\n    tag_311:\n        /* \"#utility.yul\":2634:2753   */\n    tag_310:\n        /* \"#utility.yul\":2792:2793   */\n      0x00\n        /* \"#utility.yul\":2817:2870   */\n      tag_312\n        /* \"#utility.yul\":2862:2869   */\n      dup6\n        /* \"#utility.yul\":2853:2859   */\n      dup3\n        /* \"#utility.yul\":2842:2851   */\n      dup7\n        /* \"#utility.yul\":2838:2860   */\n      add\n        /* \"#utility.yul\":2817:2870   */\n      tag_270\n      jump\t// in\n    tag_312:\n        /* \"#utility.yul\":2807:2870   */\n      swap3\n      pop\n        /* \"#utility.yul\":2763:2880   */\n      pop\n        /* \"#utility.yul\":2919:2921   */\n      0x20\n        /* \"#utility.yul\":2945:2998   */\n      tag_313\n        /* \"#utility.yul\":2990:2997   */\n      dup6\n        /* \"#utility.yul\":2981:2987   */\n      dup3\n        /* \"#utility.yul\":2970:2979   */\n      dup7\n        /* \"#utility.yul\":2966:2988   */\n      add\n        /* \"#utility.yul\":2945:2998   */\n      tag_282\n      jump\t// in\n    tag_313:\n        /* \"#utility.yul\":2935:2998   */\n      swap2\n      pop\n        /* \"#utility.yul\":2890:3008   */\n      pop\n        /* \"#utility.yul\":2541:3015   */\n      swap3\n      pop\n      swap3\n      swap1\n      pop\n      jump\t// out\n        /* \"#utility.yul\":3021:3366   */\n    tag_189:\n        /* \"#utility.yul\":3088:3094   */\n      0x00\n        /* \"#utility.yul\":3137:3139   */\n      0x20\n        /* \"#utility.yul\":3125:3134   */\n      dup3\n        /* \"#utility.yul\":3116:3123   */\n      dup5\n        /* \"#utility.yul\":3112:3135   */\n      sub\n        /* \"#utility.yul\":3108:3140   */\n      slt\n        /* \"#utility.yul\":3105:3224   */\n      iszero\n      tag_315\n      jumpi\n        /* \"#utility.yul\":3143:3222   */\n      tag_316\n      tag_292\n      jump\t// in\n    tag_316:\n        /* \"#utility.yul\":3105:3224   */\n    tag_315:\n        /* \"#utility.yul\":3263:3264   */\n      0x00\n        /* \"#utility.yul\":3288:3349   */\n      tag_317\n        /* \"#utility.yul\":3341:3348   */\n      dup5\n        /* \"#utility.yul\":3332:3338   */\n      dup3\n        /* \"#utility.yul\":3321:3330   */\n      dup6\n        /* \"#utility.yul\":3317:3339   */\n      add\n        /* \"#utility.yul\":3288:3349   */\n      tag_278\n      jump\t// in\n    tag_317:\n        /* \"#utility.yul\":3278:3349   */\n      swap2\n      pop\n        /* \"#utility.yul\":3234:3359   */\n      pop\n        /* \"#utility.yul\":3021:3366   */\n      swap3\n      swap2\n      pop\n      pop\n      jump\t// out\n        /* \"#utility.yul\":3372:3723   */\n    tag_177:\n        /* \"#utility.yul\":3442:3448   */\n      0x00\n        /* \"#utility.yul\":3491:3493   */\n      0x20\n        /* \"#utility.yul\":3479:3488   */\n      dup3\n        /* \"#utility.yul\":3470:3477   */\n      dup5\n        /* \"#utility.yul\":3466:3489   */\n      sub\n        /* \"#utility.yul\":3462:3494   */\n      slt\n        /* \"#utility.yul\":3459:3578   */\n      iszero\n      tag_319\n      jumpi\n        /* \"#utility.yul\":3497:3576   */\n      tag_320\n      tag_292\n      jump\t// in\n    tag_320:\n        /* \"#utility.yul\":3459:3578   */\n    tag_319:\n        /* \"#utility.yul\":3617:3618   */\n      0x00\n        /* \"#utility.yul\":3642:3706   */\n      tag_321\n        /* \"#utility.yul\":3698:3705   */\n      dup5\n        /* \"#utility.yul\":3689:3695   */\n      dup3\n        /* \"#utility.yul\":3678:3687   */\n      dup6\n        /* \"#utility.yul\":3674:3696   */\n      add\n        /* \"#utility.yul\":3642:3706   */\n      tag_286\n      jump\t// in\n    tag_321:\n        /* \"#utility.yul\":3632:3706   */\n      swap2\n      pop\n        /* \"#utility.yul\":3588:3716   */\n      pop\n        /* \"#utility.yul\":3372:3723   */\n      swap3\n      swap2\n      pop\n      pop\n      jump\t// out\n        /* \"#utility.yul\":3729:3871   */\n    tag_322:\n        /* \"#utility.yul\":3832:3864   */\n      tag_324\n        /* \"#utility.yul\":3858:3863   */\n      dup2\n        /* \"#utility.yul\":3832:3864   */\n      tag_325\n      jump\t// in\n    tag_324:\n        /* \"#utility.yul\":3827:3830   */\n      dup3\n        /* \"#utility.yul\":3820:3865   */\n      mstore\n        /* \"#utility.yul\":3729:3871   */\n      pop\n      pop\n      jump\t// out\n        /* \"#utility.yul\":3877:3995   */\n    tag_326:\n        /* \"#utility.yul\":3964:3988   */\n      tag_328\n        /* \"#utility.yul\":3982:3987   */\n      dup2\n        /* \"#utility.yul\":3964:3988   */\n      tag_329\n      jump\t// in\n    tag_328:\n        /* \"#utility.yul\":3959:3962   */\n      dup3\n        /* \"#utility.yul\":3952:3989   */\n      mstore\n        /* \"#utility.yul\":3877:3995   */\n      pop\n      pop\n      jump\t// out\n        /* \"#utility.yul\":4001:4110   */\n    tag_330:\n        /* \"#utility.yul\":4082:4103   */\n      tag_332\n        /* \"#utility.yul\":4097:4102   */\n      dup2\n        /* \"#utility.yul\":4082:4103   */\n      tag_333\n      jump\t// in\n    tag_332:\n        /* \"#utility.yul\":4077:4080   */\n      dup3\n        /* \"#utility.yul\":4070:4104   */\n      mstore\n        /* \"#utility.yul\":4001:4110   */\n      pop\n      pop\n      jump\t// out\n        /* \"#utility.yul\":4116:4289   */\n    tag_334:\n        /* \"#utility.yul\":4224:4282   */\n      tag_336\n        /* \"#utility.yul\":4276:4281   */\n      dup2\n        /* \"#utility.yul\":4224:4282   */\n      tag_337\n      jump\t// in\n    tag_336:\n        /* \"#utility.yul\":4219:4222   */\n      dup3\n        /* \"#utility.yul\":4212:4283   */\n      mstore\n        /* \"#utility.yul\":4116:4289   */\n      pop\n      pop\n      jump\t// out\n        /* \"#utility.yul\":4295:4440   */\n    tag_338:\n        /* \"#utility.yul\":4389:4433   */\n      tag_340\n        /* \"#utility.yul\":4427:4432   */\n      dup2\n        /* \"#utility.yul\":4389:4433   */\n      tag_341\n      jump\t// in\n    tag_340:\n        /* \"#utility.yul\":4384:4387   */\n      dup3\n        /* \"#utility.yul\":4377:4434   */\n      mstore\n        /* \"#utility.yul\":4295:4440   */\n      pop\n      pop\n      jump\t// out\n        /* \"#utility.yul\":4446:4810   */\n    tag_342:\n        /* \"#utility.yul\":4534:4537   */\n      0x00\n        /* \"#utility.yul\":4562:4601   */\n      tag_344\n        /* \"#utility.yul\":4595:4600   */\n      dup3\n        /* \"#utility.yul\":4562:4601   */\n      tag_345\n      jump\t// in\n    tag_344:\n        /* \"#utility.yul\":4617:4688   */\n      tag_346\n        /* \"#utility.yul\":4681:4687   */\n      dup2\n        /* \"#utility.yul\":4676:4679   */\n      dup6\n        /* \"#utility.yul\":4617:4688   */\n      tag_347\n      jump\t// in\n    tag_346:\n        /* \"#utility.yul\":4610:4688   */\n      swap4\n      pop\n        /* \"#utility.yul\":4697:4749   */\n      tag_348\n        /* \"#utility.yul\":4742:4748   */\n      dup2\n        /* \"#utility.yul\":4737:4740   */\n      dup6\n        /* \"#utility.yul\":4730:4734   */\n      0x20\n        /* \"#utility.yul\":4723:4728   */\n      dup7\n        /* \"#utility.yul\":4719:4735   */\n      add\n        /* \"#utility.yul\":4697:4749   */\n      tag_349\n      jump\t// in\n    tag_348:\n        /* \"#utility.yul\":4774:4803   */\n      tag_350\n        /* \"#utility.yul\":4796:4802   */\n      dup2\n        /* \"#utility.yul\":4774:4803   */\n      tag_351\n      jump\t// in\n    tag_350:\n        /* \"#utility.yul\":4769:4772   */\n      dup5\n        /* \"#utility.yul\":4765:4804   */\n      add\n        /* \"#utility.yul\":4758:4804   */\n      swap2\n      pop\n        /* \"#utility.yul\":4538:4810   */\n      pop\n        /* \"#utility.yul\":4446:4810   */\n      swap3\n      swap2\n      pop\n      pop\n      jump\t// out\n        /* \"#utility.yul\":4816:5182   */\n    tag_352:\n        /* \"#utility.yul\":4958:4961   */\n      0x00\n        /* \"#utility.yul\":4979:5046   */\n      tag_354\n        /* \"#utility.yul\":5043:5045   */\n      0x1e\n        /* \"#utility.yul\":5038:5041   */\n      dup4\n        /* \"#utility.yul\":4979:5046   */\n      tag_347\n      jump\t// in\n    tag_354:\n        /* \"#utility.yul\":4972:5046   */\n      swap2\n      pop\n        /* \"#utility.yul\":5055:5148   */\n      tag_355\n        /* \"#utility.yul\":5144:5147   */\n      dup3\n        /* \"#utility.yul\":5055:5148   */\n      tag_356\n      jump\t// in\n    tag_355:\n        /* \"#utility.yul\":5173:5175   */\n      0x20\n        /* \"#utility.yul\":5168:5171   */\n      dup3\n        /* \"#utility.yul\":5164:5176   */\n      add\n        /* \"#utility.yul\":5157:5176   */\n      swap1\n      pop\n        /* \"#utility.yul\":4816:5182   */\n      swap2\n      swap1\n      pop\n      jump\t// out\n        /* \"#utility.yul\":5188:5306   */\n    tag_357:\n        /* \"#utility.yul\":5275:5299   */\n      tag_359\n        /* \"#utility.yul\":5293:5298   */\n      dup2\n        /* \"#utility.yul\":5275:5299   */\n      tag_360\n      jump\t// in\n    tag_359:\n        /* \"#utility.yul\":5270:5273   */\n      dup3\n        /* \"#utility.yul\":5263:5300   */\n      mstore\n        /* \"#utility.yul\":5188:5306   */\n      pop\n      pop\n      jump\t// out\n        /* \"#utility.yul\":5312:5534   */\n    tag_94:\n        /* \"#utility.yul\":5405:5409   */\n      0x00\n        /* \"#utility.yul\":5443:5445   */\n      0x20\n        /* \"#utility.yul\":5432:5441   */\n      dup3\n        /* \"#utility.yul\":5428:5446   */\n      add\n        /* \"#utility.yul\":5420:5446   */\n      swap1\n      pop\n        /* \"#utility.yul\":5456:5527   */\n      tag_362\n        /* \"#utility.yul\":5524:5525   */\n      0x00\n        /* \"#utility.yul\":5513:5522   */\n      dup4\n        /* \"#utility.yul\":5509:5526   */\n      add\n        /* \"#utility.yul\":5500:5506   */\n      dup5\n        /* \"#utility.yul\":5456:5527   */\n      tag_326\n      jump\t// in\n    tag_362:\n        /* \"#utility.yul\":5312:5534   */\n      swap3\n      swap2\n      pop\n      pop\n      jump\t// out\n        /* \"#utility.yul\":5540:5794   */\n    tag_143:\n        /* \"#utility.yul\":5649:5653   */\n      0x00\n        /* \"#utility.yul\":5687:5689   */\n      0x20\n        /* \"#utility.yul\":5676:5685   */\n      dup3\n        /* \"#utility.yul\":5672:5690   */\n      add\n        /* \"#utility.yul\":5664:5690   */\n      swap1\n      pop\n        /* \"#utility.yul\":5700:5787   */\n      tag_364\n        /* \"#utility.yul\":5784:5785   */\n      0x00\n        /* \"#utility.yul\":5773:5782   */\n      dup4\n        /* \"#utility.yul\":5769:5786   */\n      add\n        /* \"#utility.yul\":5760:5766   */\n      dup5\n        /* \"#utility.yul\":5700:5787   */\n      tag_322\n      jump\t// in\n    tag_364:\n        /* \"#utility.yul\":5540:5794   */\n      swap3\n      swap2\n      pop\n      pop\n      jump\t// out\n        /* \"#utility.yul\":5800:6132   */\n    tag_184:\n        /* \"#utility.yul\":5921:5925   */\n      0x00\n        /* \"#utility.yul\":5959:5961   */\n      0x40\n        /* \"#utility.yul\":5948:5957   */\n      dup3\n        /* \"#utility.yul\":5944:5962   */\n      add\n        /* \"#utility.yul\":5936:5962   */\n      swap1\n      pop\n        /* \"#utility.yul\":5972:6043   */\n      tag_366\n        /* \"#utility.yul\":6040:6041   */\n      0x00\n        /* \"#utility.yul\":6029:6038   */\n      dup4\n        /* \"#utility.yul\":6025:6042   */\n      add\n        /* \"#utility.yul\":6016:6022   */\n      dup6\n        /* \"#utility.yul\":5972:6043   */\n      tag_326\n      jump\t// in\n    tag_366:\n        /* \"#utility.yul\":6053:6125   */\n      tag_367\n        /* \"#utility.yul\":6121:6123   */\n      0x20\n        /* \"#utility.yul\":6110:6119   */\n      dup4\n        /* \"#utility.yul\":6106:6124   */\n      add\n        /* \"#utility.yul\":6097:6103   */\n      dup5\n        /* \"#utility.yul\":6053:6125   */\n      tag_357\n      jump\t// in\n    tag_367:\n        /* \"#utility.yul\":5800:6132   */\n      swap4\n      swap3\n      pop\n      pop\n      pop\n      jump\t// out\n        /* \"#utility.yul\":6138:6580   */\n    tag_197:\n        /* \"#utility.yul\":6287:6291   */\n      0x00\n        /* \"#utility.yul\":6325:6327   */\n      0x60\n        /* \"#utility.yul\":6314:6323   */\n      dup3\n        /* \"#utility.yul\":6310:6328   */\n      add\n        /* \"#utility.yul\":6302:6328   */\n      swap1\n      pop\n        /* \"#utility.yul\":6338:6409   */\n      tag_369\n        /* \"#utility.yul\":6406:6407   */\n      0x00\n        /* \"#utility.yul\":6395:6404   */\n      dup4\n        /* \"#utility.yul\":6391:6408   */\n      add\n        /* \"#utility.yul\":6382:6388   */\n      dup7\n        /* \"#utility.yul\":6338:6409   */\n      tag_326\n      jump\t// in\n    tag_369:\n        /* \"#utility.yul\":6419:6491   */\n      tag_370\n        /* \"#utility.yul\":6487:6489   */\n      0x20\n        /* \"#utility.yul\":6476:6485   */\n      dup4\n        /* \"#utility.yul\":6472:6490   */\n      add\n        /* \"#utility.yul\":6463:6469   */\n      dup6\n        /* \"#utility.yul\":6419:6491   */\n      tag_357\n      jump\t// in\n    tag_370:\n        /* \"#utility.yul\":6501:6573   */\n      tag_371\n        /* \"#utility.yul\":6569:6571   */\n      0x40\n        /* \"#utility.yul\":6558:6567   */\n      dup4\n        /* \"#utility.yul\":6554:6572   */\n      add\n        /* \"#utility.yul\":6545:6551   */\n      dup5\n        /* \"#utility.yul\":6501:6573   */\n      tag_357\n      jump\t// in\n    tag_371:\n        /* \"#utility.yul\":6138:6580   */\n      swap5\n      swap4\n      pop\n      pop\n      pop\n      pop\n      jump\t// out\n        /* \"#utility.yul\":6586:6796   */\n    tag_57:\n        /* \"#utility.yul\":6673:6677   */\n      0x00\n        /* \"#utility.yul\":6711:6713   */\n      0x20\n        /* \"#utility.yul\":6700:6709   */\n      dup3\n        /* \"#utility.yul\":6696:6714   */\n      add\n        /* \"#utility.yul\":6688:6714   */\n      swap1\n      pop\n        /* \"#utility.yul\":6724:6789   */\n      tag_373\n        /* \"#utility.yul\":6786:6787   */\n      0x00\n        /* \"#utility.yul\":6775:6784   */\n      dup4\n        /* \"#utility.yul\":6771:6788   */\n      add\n        /* \"#utility.yul\":6762:6768   */\n      dup5\n        /* \"#utility.yul\":6724:6789   */\n      tag_330\n      jump\t// in\n    tag_373:\n        /* \"#utility.yul\":6586:6796   */\n      swap3\n      swap2\n      pop\n      pop\n      jump\t// out\n        /* \"#utility.yul\":6802:7066   */\n    tag_99:\n        /* \"#utility.yul\":6916:6920   */\n      0x00\n        /* \"#utility.yul\":6954:6956   */\n      0x20\n        /* \"#utility.yul\":6943:6952   */\n      dup3\n        /* \"#utility.yul\":6939:6957   */\n      add\n        /* \"#utility.yul\":6931:6957   */\n      swap1\n      pop\n        /* \"#utility.yul\":6967:7059   */\n      tag_375\n        /* \"#utility.yul\":7056:7057   */\n      0x00\n        /* \"#utility.yul\":7045:7054   */\n      dup4\n        /* \"#utility.yul\":7041:7058   */\n      add\n        /* \"#utility.yul\":7032:7038   */\n      dup5\n        /* \"#utility.yul\":6967:7059   */\n      tag_334\n      jump\t// in\n    tag_375:\n        /* \"#utility.yul\":6802:7066   */\n      swap3\n      swap2\n      pop\n      pop\n      jump\t// out\n        /* \"#utility.yul\":7072:7308   */\n    tag_82:\n        /* \"#utility.yul\":7172:7176   */\n      0x00\n        /* \"#utility.yul\":7210:7212   */\n      0x20\n        /* \"#utility.yul\":7199:7208   */\n      dup3\n        /* \"#utility.yul\":7195:7213   */\n      add\n        /* \"#utility.yul\":7187:7213   */\n      swap1\n      pop\n        /* \"#utility.yul\":7223:7301   */\n      tag_377\n        /* \"#utility.yul\":7298:7299   */\n      0x00\n        /* \"#utility.yul\":7287:7296   */\n      dup4\n        /* \"#utility.yul\":7283:7300   */\n      add\n        /* \"#utility.yul\":7274:7280   */\n      dup5\n        /* \"#utility.yul\":7223:7301   */\n      tag_338\n      jump\t// in\n    tag_377:\n        /* \"#utility.yul\":7072:7308   */\n      swap3\n      swap2\n      pop\n      pop\n      jump\t// out\n        /* \"#utility.yul\":7314:7627   */\n    tag_50:\n        /* \"#utility.yul\":7427:7431   */\n      0x00\n        /* \"#utility.yul\":7465:7467   */\n      0x20\n        /* \"#utility.yul\":7454:7463   */\n      dup3\n        /* \"#utility.yul\":7450:7468   */\n      add\n        /* \"#utility.yul\":7442:7468   */\n      swap1\n      pop\n        /* \"#utility.yul\":7514:7523   */\n      dup2\n        /* \"#utility.yul\":7508:7512   */\n      dup2\n        /* \"#utility.yul\":7504:7524   */\n      sub\n        /* \"#utility.yul\":7500:7501   */\n      0x00\n        /* \"#utility.yul\":7489:7498   */\n      dup4\n        /* \"#utility.yul\":7485:7502   */\n      add\n        /* \"#utility.yul\":7478:7525   */\n      mstore\n        /* \"#utility.yul\":7542:7620   */\n      tag_379\n        /* \"#utility.yul\":7615:7619   */\n      dup2\n        /* \"#utility.yul\":7606:7612   */\n      dup5\n        /* \"#utility.yul\":7542:7620   */\n      tag_342\n      jump\t// in\n    tag_379:\n        /* \"#utility.yul\":7534:7620   */\n      swap1\n      pop\n        /* \"#utility.yul\":7314:7627   */\n      swap3\n      swap2\n      pop\n      pop\n      jump\t// out\n        /* \"#utility.yul\":7633:8052   */\n    tag_180:\n        /* \"#utility.yul\":7799:7803   */\n      0x00\n        /* \"#utility.yul\":7837:7839   */\n      0x20\n        /* \"#utility.yul\":7826:7835   */\n      dup3\n        /* \"#utility.yul\":7822:7840   */\n      add\n        /* \"#utility.yul\":7814:7840   */\n      swap1\n      pop\n        /* \"#utility.yul\":7886:7895   */\n      dup2\n        /* \"#utility.yul\":7880:7884   */\n      dup2\n        /* \"#utility.yul\":7876:7896   */\n      sub\n        /* \"#utility.yul\":7872:7873   */\n      0x00\n        /* \"#utility.yul\":7861:7870   */\n      dup4\n        /* \"#utility.yul\":7857:7874   */\n      add\n        /* \"#utility.yul\":7850:7897   */\n      mstore\n        /* \"#utility.yul\":7914:8045   */\n      tag_381\n        /* \"#utility.yul\":8040:8044   */\n      dup2\n        /* \"#utility.yul\":7914:8045   */\n      tag_352\n      jump\t// in\n    tag_381:\n        /* \"#utility.yul\":7906:8045   */\n      swap1\n      pop\n        /* \"#utility.yul\":7633:8052   */\n      swap2\n      swap1\n      pop\n      jump\t// out\n        /* \"#utility.yul\":8058:8280   */\n    tag_42:\n        /* \"#utility.yul\":8151:8155   */\n      0x00\n        /* \"#utility.yul\":8189:8191   */\n      0x20\n        /* \"#utility.yul\":8178:8187   */\n      dup3\n        /* \"#utility.yul\":8174:8192   */\n      add\n        /* \"#utility.yul\":8166:8192   */\n      swap1\n      pop\n        /* \"#utility.yul\":8202:8273   */\n      tag_383\n        /* \"#utility.yul\":8270:8271   */\n      0x00\n        /* \"#utility.yul\":8259:8268   */\n      dup4\n        /* \"#utility.yul\":8255:8272   */\n      add\n        /* \"#utility.yul\":8246:8252   */\n      dup5\n        /* \"#utility.yul\":8202:8273   */\n      tag_357\n      jump\t// in\n    tag_383:\n        /* \"#utility.yul\":8058:8280   */\n      swap3\n      swap2\n      pop\n      pop\n      jump\t// out\n        /* \"#utility.yul\":8367:8466   */\n    tag_345:\n        /* \"#utility.yul\":8419:8425   */\n      0x00\n        /* \"#utility.yul\":8453:8458   */\n      dup2\n        /* \"#utility.yul\":8447:8459   */\n      mload\n        /* \"#utility.yul\":8437:8459   */\n      swap1\n      pop\n        /* \"#utility.yul\":8367:8466   */\n      swap2\n      swap1\n      pop\n      jump\t// out\n        /* \"#utility.yul\":8472:8641   */\n    tag_347:\n        /* \"#utility.yul\":8556:8567   */\n      0x00\n        /* \"#utility.yul\":8590:8596   */\n      dup3\n        /* \"#utility.yul\":8585:8588   */\n      dup3\n        /* \"#utility.yul\":8578:8597   */\n      mstore\n        /* \"#utility.yul\":8630:8634   */\n      0x20\n        /* \"#utility.yul\":8625:8628   */\n      dup3\n        /* \"#utility.yul\":8621:8635   */\n      add\n        /* \"#utility.yul\":8606:8635   */\n      swap1\n      pop\n        /* \"#utility.yul\":8472:8641   */\n      swap3\n      swap2\n      pop\n      pop\n      jump\t// out\n        /* \"#utility.yul\":8647:8952   */\n    tag_169:\n        /* \"#utility.yul\":8687:8690   */\n      0x00\n        /* \"#utility.yul\":8706:8726   */\n      tag_389\n        /* \"#utility.yul\":8724:8725   */\n      dup3\n        /* \"#utility.yul\":8706:8726   */\n      tag_360\n      jump\t// in\n    tag_389:\n        /* \"#utility.yul\":8701:8726   */\n      swap2\n      pop\n        /* \"#utility.yul\":8740:8760   */\n      tag_390\n        /* \"#utility.yul\":8758:8759   */\n      dup4\n        /* \"#utility.yul\":8740:8760   */\n      tag_360\n      jump\t// in\n    tag_390:\n        /* \"#utility.yul\":8735:8760   */\n      swap3\n      pop\n        /* \"#utility.yul\":8894:8895   */\n      dup3\n        /* \"#utility.yul\":8826:8892   */\n      0xffffffffffffffffffffffffffffffffffffffffffffffffffffffffffffffff\n        /* \"#utility.yul\":8822:8896   */\n      sub\n        /* \"#utility.yul\":8819:8820   */\n      dup3\n        /* \"#utility.yul\":8816:8897   */\n      gt\n        /* \"#utility.yul\":8813:8920   */\n      iszero\n      tag_391\n      jumpi\n        /* \"#utility.yul\":8900:8918   */\n      tag_392\n      tag_393\n      jump\t// in\n    tag_392:\n        /* \"#utility.yul\":8813:8920   */\n    tag_391:\n        /* \"#utility.yul\":8944:8945   */\n      dup3\n        /* \"#utility.yul\":8941:8942   */\n      dup3\n        /* \"#utility.yul\":8937:8946   */\n      add\n        /* \"#utility.yul\":8930:8946   */\n      swap1\n      pop\n        /* \"#utility.yul\":8647:8952   */\n      swap3\n      swap2\n      pop\n      pop\n      jump\t// out\n        /* \"#utility.yul\":8958:9143   */\n    tag_171:\n        /* \"#utility.yul\":8998:8999   */\n      0x00\n        /* \"#utility.yul\":9015:9035   */\n      tag_395\n        /* \"#utility.yul\":9033:9034   */\n      dup3\n        /* \"#utility.yul\":9015:9035   */\n      tag_360\n      jump\t// in\n    tag_395:\n        /* \"#utility.yul\":9010:9035   */\n      swap2\n      pop\n        /* \"#utility.yul\":9049:9069   */\n      tag_396\n        /* \"#utility.yul\":9067:9068   */\n      dup4\n        /* \"#utility.yul\":9049:9069   */\n      tag_360\n      jump\t// in\n    tag_396:\n        /* \"#utility.yul\":9044:9069   */\n      swap3\n      pop\n        /* \"#utility.yul\":9088:9089   */\n      dup3\n        /* \"#utility.yul\":9078:9113   */\n      tag_397\n      jumpi\n        /* \"#utility.yul\":9093:9111   */\n      tag_398\n      tag_399\n      jump\t// in\n    tag_398:\n        /* \"#utility.yul\":9078:9113   */\n    tag_397:\n        /* \"#utility.yul\":9135:9136   */\n      dup3\n        /* \"#utility.yul\":9132:9133   */\n      dup3\n        /* \"#utility.yul\":9128:9137   */\n      div\n        /* \"#utility.yul\":9123:9137   */\n      swap1\n      pop\n        /* \"#utility.yul\":8958:9143   */\n      swap3\n      swap2\n      pop\n      pop\n      jump\t// out\n        /* \"#utility.yul\":9149:9497   */\n    tag_182:\n        /* \"#utility.yul\":9189:9196   */\n      0x00\n        /* \"#utility.yul\":9212:9232   */\n      tag_401\n        /* \"#utility.yul\":9230:9231   */\n      dup3\n        /* \"#utility.yul\":9212:9232   */\n      tag_360\n      jump\t// in\n    tag_401:\n        /* \"#utility.yul\":9207:9232   */\n      swap2\n      pop\n        /* \"#utility.yul\":9246:9266   */\n      tag_402\n        /* \"#utility.yul\":9264:9265   */\n      dup4\n        /* \"#utility.yul\":9246:9266   */\n      tag_360\n      jump\t// in\n    tag_402:\n        /* \"#utility.yul\":9241:9266   */\n      swap3\n      pop\n        /* \"#utility.yul\":9434:9435   */\n      dup2\n        /* \"#utility.yul\":9366:9432   */\n      0xffffffffffffffffffffffffffffffffffffffffffffffffffffffffffffffff\n        /* \"#utility.yul\":9362:9436   */\n      div\n        /* \"#utility.yul\":9359:9360   */\n      dup4\n        /* \"#utility.yul\":9356:9437   */\n      gt\n        /* \"#utility.yul\":9351:9352   */\n      dup3\n        /* \"#utility.yul\":9344:9353   */\n      iszero\n        /* \"#utility.yul\":9337:9354   */\n      iszero\n        /* \"#utility.yul\":9333:9438   */\n      and\n        /* \"#utility.yul\":9330:9461   */\n      iszero\n      tag_403\n      jumpi\n        /* \"#utility.yul\":9441:9459   */\n      tag_404\n      tag_393\n      jump\t// in\n    tag_404:\n        /* \"#utility.yul\":9330:9461   */\n    tag_403:\n        /* \"#utility.yul\":9489:9490   */\n      dup3\n        /* \"#utility.yul\":9486:9487   */\n      dup3\n        /* \"#utility.yul\":9482:9491   */\n      mul\n        /* \"#utility.yul\":9471:9491   */\n      swap1\n      pop\n        /* \"#utility.yul\":9149:9497   */\n      swap3\n      swap2\n      pop\n      pop\n      jump\t// out\n        /* \"#utility.yul\":9503:9694   */\n    tag_193:\n        /* \"#utility.yul\":9543:9547   */\n      0x00\n        /* \"#utility.yul\":9563:9583   */\n      tag_406\n        /* \"#utility.yul\":9581:9582   */\n      dup3\n        /* \"#utility.yul\":9563:9583   */\n      tag_360\n      jump\t// in\n    tag_406:\n        /* \"#utility.yul\":9558:9583   */\n      swap2\n      pop\n        /* \"#utility.yul\":9597:9617   */\n      tag_407\n        /* \"#utility.yul\":9615:9616   */\n      dup4\n        /* \"#utility.yul\":9597:9617   */\n      tag_360\n      jump\t// in\n    tag_407:\n        /* \"#utility.yul\":9592:9617   */\n      swap3\n      pop\n        /* \"#utility.yul\":9636:9637   */\n      dup3\n        /* \"#utility.yul\":9633:9634   */\n      dup3\n        /* \"#utility.yul\":9630:9638   */\n      lt\n        /* \"#utility.yul\":9627:9661   */\n      iszero\n      tag_408\n      jumpi\n        /* \"#utility.yul\":9641:9659   */\n      tag_409\n      tag_393\n      jump\t// in\n    tag_409:\n        /* \"#utility.yul\":9627:9661   */\n    tag_408:\n        /* \"#utility.yul\":9686:9687   */\n      dup3\n        /* \"#utility.yul\":9683:9684   */\n      dup3\n        /* \"#utility.yul\":9679:9688   */\n      sub\n        /* \"#utility.yul\":9671:9688   */\n      swap1\n      pop\n        /* \"#utility.yul\":9503:9694   */\n      swap3\n      swap2\n      pop\n      pop\n      jump\t// out\n        /* \"#utility.yul\":9700:9796   */\n    tag_329:\n        /* \"#utility.yul\":9737:9744   */\n      0x00\n        /* \"#utility.yul\":9766:9790   */\n      tag_411\n        /* \"#utility.yul\":9784:9789   */\n      dup3\n        /* \"#utility.yul\":9766:9790   */\n      tag_412\n      jump\t// in\n    tag_411:\n        /* \"#utility.yul\":9755:9790   */\n      swap1\n      pop\n        /* \"#utility.yul\":9700:9796   */\n      swap2\n      swap1\n      pop\n      jump\t// out\n        /* \"#utility.yul\":9802:9906   */\n    tag_325:\n        /* \"#utility.yul\":9847:9854   */\n      0x00\n        /* \"#utility.yul\":9876:9900   */\n      tag_414\n        /* \"#utility.yul\":9894:9899   */\n      dup3\n        /* \"#utility.yul\":9876:9900   */\n      tag_412\n      jump\t// in\n    tag_414:\n        /* \"#utility.yul\":9865:9900   */\n      swap1\n      pop\n        /* \"#utility.yul\":9802:9906   */\n      swap2\n      swap1\n      pop\n      jump\t// out\n        /* \"#utility.yul\":9912:10002   */\n    tag_333:\n        /* \"#utility.yul\":9946:9953   */\n      0x00\n        /* \"#utility.yul\":9989:9994   */\n      dup2\n        /* \"#utility.yul\":9982:9995   */\n      iszero\n        /* \"#utility.yul\":9975:9996   */\n      iszero\n        /* \"#utility.yul\":9964:9996   */\n      swap1\n      pop\n        /* \"#utility.yul\":9912:10002   */\n      swap2\n      swap1\n      pop\n      jump\t// out\n        /* \"#utility.yul\":10008:10137   */\n    tag_416:\n        /* \"#utility.yul\":10054:10061   */\n      0x00\n        /* \"#utility.yul\":10083:10088   */\n      dup2\n        /* \"#utility.yul\":10072:10088   */\n      swap1\n      pop\n        /* \"#utility.yul\":10089:10131   */\n      tag_418\n        /* \"#utility.yul\":10125:10130   */\n      dup3\n        /* \"#utility.yul\":10089:10131   */\n      tag_419\n      jump\t// in\n    tag_418:\n        /* \"#utility.yul\":10008:10137   */\n      swap2\n      swap1\n      pop\n      jump\t// out\n        /* \"#utility.yul\":10143:10269   */\n    tag_412:\n        /* \"#utility.yul\":10180:10187   */\n      0x00\n        /* \"#utility.yul\":10220:10262   */\n      0xffffffffffffffffffffffffffffffffffffffff\n        /* \"#utility.yul\":10213:10218   */\n      dup3\n        /* \"#utility.yul\":10209:10263   */\n      and\n        /* \"#utility.yul\":10198:10263   */\n      swap1\n      pop\n        /* \"#utility.yul\":10143:10269   */\n      swap2\n      swap1\n      pop\n      jump\t// out\n        /* \"#utility.yul\":10275:10352   */\n    tag_360:\n        /* \"#utility.yul\":10312:10319   */\n      0x00\n        /* \"#utility.yul\":10341:10346   */\n      dup2\n        /* \"#utility.yul\":10330:10346   */\n      swap1\n      pop\n        /* \"#utility.yul\":10275:10352   */\n      swap2\n      swap1\n      pop\n      jump\t// out\n        /* \"#utility.yul\":10358:10505   */\n    tag_337:\n        /* \"#utility.yul\":10429:10438   */\n      0x00\n        /* \"#utility.yul\":10462:10499   */\n      tag_423\n        /* \"#utility.yul\":10493:10498   */\n      dup3\n        /* \"#utility.yul\":10462:10499   */\n      tag_424\n      jump\t// in\n    tag_423:\n        /* \"#utility.yul\":10449:10499   */\n      swap1\n      pop\n        /* \"#utility.yul\":10358:10505   */\n      swap2\n      swap1\n      pop\n      jump\t// out\n        /* \"#utility.yul\":10511:10640   */\n    tag_341:\n        /* \"#utility.yul\":10568:10577   */\n      0x00\n        /* \"#utility.yul\":10601:10634   */\n      tag_426\n        /* \"#utility.yul\":10628:10633   */\n      dup3\n        /* \"#utility.yul\":10601:10634   */\n      tag_416\n      jump\t// in\n    tag_426:\n        /* \"#utility.yul\":10588:10634   */\n      swap1\n      pop\n        /* \"#utility.yul\":10511:10640   */\n      swap2\n      swap1\n      pop\n      jump\t// out\n        /* \"#utility.yul\":10646:10772   */\n    tag_424:\n        /* \"#utility.yul\":10696:10705   */\n      0x00\n        /* \"#utility.yul\":10729:10766   */\n      tag_428\n        /* \"#utility.yul\":10760:10765   */\n      dup3\n        /* \"#utility.yul\":10729:10766   */\n      tag_429\n      jump\t// in\n    tag_428:\n        /* \"#utility.yul\":10716:10766   */\n      swap1\n      pop\n        /* \"#utility.yul\":10646:10772   */\n      swap2\n      swap1\n      pop\n      jump\t// out\n        /* \"#utility.yul\":10778:10891   */\n    tag_429:\n        /* \"#utility.yul\":10828:10837   */\n      0x00\n        /* \"#utility.yul\":10861:10885   */\n      tag_431\n        /* \"#utility.yul\":10879:10884   */\n      dup3\n        /* \"#utility.yul\":10861:10885   */\n      tag_412\n      jump\t// in\n    tag_431:\n        /* \"#utility.yul\":10848:10885   */\n      swap1\n      pop\n        /* \"#utility.yul\":10778:10891   */\n      swap2\n      swap1\n      pop\n      jump\t// out\n        /* \"#utility.yul\":10897:11204   */\n    tag_349:\n        /* \"#utility.yul\":10965:10966   */\n      0x00\n        /* \"#utility.yul\":10975:11088   */\n    tag_433:\n        /* \"#utility.yul\":10989:10995   */\n      dup4\n        /* \"#utility.yul\":10986:10987   */\n      dup2\n        /* \"#utility.yul\":10983:10996   */\n      lt\n        /* \"#utility.yul\":10975:11088   */\n      iszero\n      tag_435\n      jumpi\n        /* \"#utility.yul\":11074:11075   */\n      dup1\n        /* \"#utility.yul\":11069:11072   */\n      dup3\n        /* \"#utility.yul\":11065:11076   */\n      add\n        /* \"#utility.yul\":11059:11077   */\n      mload\n        /* \"#utility.yul\":11055:11056   */\n      dup2\n        /* \"#utility.yul\":11050:11053   */\n      dup5\n        /* \"#utility.yul\":11046:11057   */\n      add\n        /* \"#utility.yul\":11039:11078   */\n      mstore\n        /* \"#utility.yul\":11011:11013   */\n      0x20\n        /* \"#utility.yul\":11008:11009   */\n      dup2\n        /* \"#utility.yul\":11004:11014   */\n      add\n        /* \"#utility.yul\":10999:11014   */\n      swap1\n      pop\n        /* \"#utility.yul\":10975:11088   */\n      jump(tag_433)\n    tag_435:\n        /* \"#utility.yul\":11106:11112   */\n      dup4\n        /* \"#utility.yul\":11103:11104   */\n      dup2\n        /* \"#utility.yul\":11100:11113   */\n      gt\n        /* \"#utility.yul\":11097:11198   */\n      iszero\n      tag_436\n      jumpi\n        /* \"#utility.yul\":11186:11187   */\n      0x00\n        /* \"#utility.yul\":11177:11183   */\n      dup5\n        /* \"#utility.yul\":11172:11175   */\n      dup5\n        /* \"#utility.yul\":11168:11184   */\n      add\n        /* \"#utility.yul\":11161:11188   */\n      mstore\n        /* \"#utility.yul\":11097:11198   */\n    tag_436:\n        /* \"#utility.yul\":10946:11204   */\n      pop\n        /* \"#utility.yul\":10897:11204   */\n      pop\n      pop\n      pop\n      jump\t// out\n        /* \"#utility.yul\":11210:11530   */\n    tag_204:\n        /* \"#utility.yul\":11254:11260   */\n      0x00\n        /* \"#utility.yul\":11291:11292   */\n      0x02\n        /* \"#utility.yul\":11285:11289   */\n      dup3\n        /* \"#utility.yul\":11281:11293   */\n      div\n        /* \"#utility.yul\":11271:11293   */\n      swap1\n      pop\n        /* \"#utility.yul\":11338:11339   */\n      0x01\n        /* \"#utility.yul\":11332:11336   */\n      dup3\n        /* \"#utility.yul\":11328:11340   */\n      and\n        /* \"#utility.yul\":11359:11377   */\n      dup1\n        /* \"#utility.yul\":11349:11430   */\n      tag_438\n      jumpi\n        /* \"#utility.yul\":11415:11419   */\n      0x7f\n        /* \"#utility.yul\":11407:11413   */\n      dup3\n        /* \"#utility.yul\":11403:11420   */\n      and\n        /* \"#utility.yul\":11393:11420   */\n      swap2\n      pop\n        /* \"#utility.yul\":11349:11430   */\n    tag_438:\n        /* \"#utility.yul\":11477:11479   */\n      0x20\n        /* \"#utility.yul\":11469:11475   */\n      dup3\n        /* \"#utility.yul\":11466:11480   */\n      lt\n        /* \"#utility.yul\":11446:11464   */\n      dup2\n        /* \"#utility.yul\":11443:11481   */\n      eq\n        /* \"#utility.yul\":11440:11524   */\n      iszero\n      tag_439\n      jumpi\n        /* \"#utility.yul\":11496:11514   */\n      tag_440\n      tag_441\n      jump\t// in\n    tag_440:\n        /* \"#utility.yul\":11440:11524   */\n    tag_439:\n        /* \"#utility.yul\":11261:11530   */\n      pop\n        /* \"#utility.yul\":11210:11530   */\n      swap2\n      swap1\n      pop\n      jump\t// out\n        /* \"#utility.yul\":11536:11716   */\n    tag_393:\n        /* \"#utility.yul\":11584:11661   */\n      0x4e487b7100000000000000000000000000000000000000000000000000000000\n        /* \"#utility.yul\":11581:11582   */\n      0x00\n        /* \"#utility.yul\":11574:11662   */\n      mstore\n        /* \"#utility.yul\":11681:11685   */\n      0x11\n        /* \"#utility.yul\":11678:11679   */\n      0x04\n        /* \"#utility.yul\":11671:11686   */\n      mstore\n        /* \"#utility.yul\":11705:11709   */\n      0x24\n        /* \"#utility.yul\":11702:11703   */\n      0x00\n        /* \"#utility.yul\":11695:11710   */\n      revert\n        /* \"#utility.yul\":11722:11902   */\n    tag_399:\n        /* \"#utility.yul\":11770:11847   */\n      0x4e487b7100000000000000000000000000000000000000000000000000000000\n        /* \"#utility.yul\":11767:11768   */\n      0x00\n        /* \"#utility.yul\":11760:11848   */\n      mstore\n        /* \"#utility.yul\":11867:11871   */\n      0x12\n        /* \"#utility.yul\":11864:11865   */\n      0x04\n        /* \"#utility.yul\":11857:11872   */\n      mstore\n        /* \"#utility.yul\":11891:11895   */\n      0x24\n        /* \"#utility.yul\":11888:11889   */\n      0x00\n        /* \"#utility.yul\":11881:11896   */\n      revert\n        /* \"#utility.yul\":11908:12088   */\n    tag_160:\n        /* \"#utility.yul\":11956:12033   */\n      0x4e487b7100000000000000000000000000000000000000000000000000000000\n        /* \"#utility.yul\":11953:11954   */\n      0x00\n        /* \"#utility.yul\":11946:12034   */\n      mstore\n        /* \"#utility.yul\":12053:12057   */\n      0x21\n        /* \"#utility.yul\":12050:12051   */\n      0x04\n        /* \"#utility.yul\":12043:12058   */\n      mstore\n        /* \"#utility.yul\":12077:12081   */\n      0x24\n        /* \"#utility.yul\":12074:12075   */\n      0x00\n        /* \"#utility.yul\":12067:12082   */\n      revert\n        /* \"#utility.yul\":12094:12274   */\n    tag_441:\n        /* \"#utility.yul\":12142:12219   */\n      0x4e487b7100000000000000000000000000000000000000000000000000000000\n        /* \"#utility.yul\":12139:12140   */\n      0x00\n        /* \"#utility.yul\":12132:12220   */\n      mstore\n        /* \"#utility.yul\":12239:12243   */\n      0x22\n        /* \"#utility.yul\":12236:12237   */\n      0x04\n        /* \"#utility.yul\":12229:12244   */\n      mstore\n        /* \"#utility.yul\":12263:12267   */\n      0x24\n        /* \"#utility.yul\":12260:12261   */\n      0x00\n        /* \"#utility.yul\":12253:12268   */\n      revert\n        /* \"#utility.yul\":12403:12520   */\n    tag_292:\n        /* \"#utility.yul\":12512:12513   */\n      0x00\n        /* \"#utility.yul\":12509:12510   */\n      dup1\n        /* \"#utility.yul\":12502:12514   */\n      revert\n        /* \"#utility.yul\":12526:12628   */\n    tag_351:\n        /* \"#utility.yul\":12567:12573   */\n      0x00\n        /* \"#utility.yul\":12618:12620   */\n      0x1f\n        /* \"#utility.yul\":12614:12621   */\n      not\n        /* \"#utility.yul\":12609:12611   */\n      0x1f\n        /* \"#utility.yul\":12602:12607   */\n      dup4\n        /* \"#utility.yul\":12598:12612   */\n      add\n        /* \"#utility.yul\":12594:12622   */\n      and\n        /* \"#utility.yul\":12584:12622   */\n      swap1\n      pop\n        /* \"#utility.yul\":12526:12628   */\n      swap2\n      swap1\n      pop\n      jump\t// out\n        /* \"#utility.yul\":12634:12814   */\n    tag_356:\n        /* \"#utility.yul\":12774:12806   */\n      0x4e6f206d6f726520746f6b656e20696e2074686520636f6e7472616374210000\n        /* \"#utility.yul\":12770:12771   */\n      0x00\n        /* \"#utility.yul\":12762:12768   */\n      dup3\n        /* \"#utility.yul\":12758:12772   */\n      add\n        /* \"#utility.yul\":12751:12807   */\n      mstore\n        /* \"#utility.yul\":12634:12814   */\n      pop\n      jump\t// out\n        /* \"#utility.yul\":12820:12934   */\n    tag_419:\n        /* \"#utility.yul\":12902:12903   */\n      0x04\n        /* \"#utility.yul\":12895:12900   */\n      dup2\n        /* \"#utility.yul\":12892:12904   */\n      lt\n        /* \"#utility.yul\":12882:12928   */\n      tag_452\n      jumpi\n        /* \"#utility.yul\":12908:12926   */\n      tag_453\n      tag_160\n      jump\t// in\n    tag_453:\n        /* \"#utility.yul\":12882:12928   */\n    tag_452:\n        /* \"#utility.yul\":12820:12934   */\n      pop\n      jump\t// out\n        /* \"#utility.yul\":12940:13062   */\n    tag_273:\n        /* \"#utility.yul\":13013:13037   */\n      tag_455\n        /* \"#utility.yul\":13031:13036   */\n      dup2\n        /* \"#utility.yul\":13013:13037   */\n      tag_329\n      jump\t// in\n    tag_455:\n        /* \"#utility.yul\":13006:13011   */\n      dup2\n        /* \"#utility.yul\":13003:13038   */\n      eq\n        /* \"#utility.yul\":12993:13056   */\n      tag_456\n      jumpi\n        /* \"#utility.yul\":13052:13053   */\n      0x00\n        /* \"#utility.yul\":13049:13050   */\n      dup1\n        /* \"#utility.yul\":13042:13054   */\n      revert\n        /* \"#utility.yul\":12993:13056   */\n    tag_456:\n        /* \"#utility.yul\":12940:13062   */\n      pop\n      jump\t// out\n        /* \"#utility.yul\":13068:13206   */\n    tag_277:\n        /* \"#utility.yul\":13149:13181   */\n      tag_458\n        /* \"#utility.yul\":13175:13180   */\n      dup2\n        /* \"#utility.yul\":13149:13181   */\n      tag_325\n      jump\t// in\n    tag_458:\n        /* \"#utility.yul\":13142:13147   */\n      dup2\n        /* \"#utility.yul\":13139:13182   */\n      eq\n        /* \"#utility.yul\":13129:13200   */\n      tag_459\n      jumpi\n        /* \"#utility.yul\":13196:13197   */\n      0x00\n        /* \"#utility.yul\":13193:13194   */\n      dup1\n        /* \"#utility.yul\":13186:13198   */\n      revert\n        /* \"#utility.yul\":13129:13200   */\n    tag_459:\n        /* \"#utility.yul\":13068:13206   */\n      pop\n      jump\t// out\n        /* \"#utility.yul\":13212:13328   */\n    tag_281:\n        /* \"#utility.yul\":13282:13303   */\n      tag_461\n        /* \"#utility.yul\":13297:13302   */\n      dup2\n        /* \"#utility.yul\":13282:13303   */\n      tag_333\n      jump\t// in\n    tag_461:\n        /* \"#utility.yul\":13275:13280   */\n      dup2\n        /* \"#utility.yul\":13272:13304   */\n      eq\n        /* \"#utility.yul\":13262:13322   */\n      tag_462\n      jumpi\n        /* \"#utility.yul\":13318:13319   */\n      0x00\n        /* \"#utility.yul\":13315:13316   */\n      dup1\n        /* \"#utility.yul\":13308:13320   */\n      revert\n        /* \"#utility.yul\":13262:13322   */\n    tag_462:\n        /* \"#utility.yul\":13212:13328   */\n      pop\n      jump\t// out\n        /* \"#utility.yul\":13334:13456   */\n    tag_285:\n        /* \"#utility.yul\":13407:13431   */\n      tag_464\n        /* \"#utility.yul\":13425:13430   */\n      dup2\n        /* \"#utility.yul\":13407:13431   */\n      tag_360\n      jump\t// in\n    tag_464:\n        /* \"#utility.yul\":13400:13405   */\n      dup2\n        /* \"#utility.yul\":13397:13432   */\n      eq\n        /* \"#utility.yul\":13387:13450   */\n      tag_465\n      jumpi\n        /* \"#utility.yul\":13446:13447   */\n      0x00\n        /* \"#utility.yul\":13443:13444   */\n      dup1\n        /* \"#utility.yul\":13436:13448   */\n      revert\n        /* \"#utility.yul\":13387:13450   */\n    tag_465:\n        /* \"#utility.yul\":13334:13456   */\n      pop\n      jump\t// out\n\n    auxdata: 0xa26469706673582212200b794acb318f5585e278642c2e31934410c5f95ddf41f3e1e3a68fc25c21603664736f6c63430008070033\n}\n",
				"bytecode": {
					"linkReferences": {},
					"object": "60806040526040518060400160405280600e81526020017f4e6174696f6e7320436f6d6261740000000000000000000000000000000000008152506000908051906020019062000051929190620002dd565b506040518060400160405280600381526020017f4e43540000000000000000000000000000000000000000000000000000000000815250600190805190602001906200009f929190620002dd565b50601260025566038d7ea4c6800060095542600b5562093a8042620000c5919062000402565b600c5562093a80600c54620000db919062000402565b600e55674563918244f40000600f5567016345785d8a00006010553480156200010357600080fd5b506040516200239d3803806200239d8339818101604052810190620001299190620003bb565b6a295be96e6406697200000060038190555033600460006101000a81548173ffffffffffffffffffffffffffffffffffffffff021916908373ffffffffffffffffffffffffffffffffffffffff16021790555060035460056000600460009054906101000a900473ffffffffffffffffffffffffffffffffffffffff1673ffffffffffffffffffffffffffffffffffffffff1673ffffffffffffffffffffffffffffffffffffffff1681526020019081526020016000208190555081600860006101000a81548173ffffffffffffffffffffffffffffffffffffffff021916908373ffffffffffffffffffffffffffffffffffffffff16021790555033600760006101000a81548173ffffffffffffffffffffffffffffffffffffffff021916908373ffffffffffffffffffffffffffffffffffffffff1602179055506000601160006101000a81548160ff021916908360038111156200028f576200028e62000516565b5b021790555080600d60006101000a81548173ffffffffffffffffffffffffffffffffffffffff021916908373ffffffffffffffffffffffffffffffffffffffff1602179055505050620005ad565b828054620002eb90620004b1565b90600052602060002090601f0160209004810192826200030f57600085556200035b565b82601f106200032a57805160ff19168380011785556200035b565b828001600101855582156200035b579182015b828111156200035a5782518255916020019190600101906200033d565b5b5090506200036a91906200036e565b5090565b5b80821115620003895760008160009055506001016200036f565b5090565b6000815190506200039e8162000579565b92915050565b600081519050620003b58162000593565b92915050565b60008060408385031215620003d557620003d462000574565b5b6000620003e585828601620003a4565b9250506020620003f8858286016200038d565b9150509250929050565b60006200040f82620004a7565b91506200041c83620004a7565b9250827fffffffffffffffffffffffffffffffffffffffffffffffffffffffffffffffff03821115620004545762000453620004e7565b5b828201905092915050565b60006200046c8262000487565b9050919050565b6000620004808262000487565b9050919050565b600073ffffffffffffffffffffffffffffffffffffffff82169050919050565b6000819050919050565b60006002820490506001821680620004ca57607f821691505b60208210811415620004e157620004e062000545565b5b50919050565b7f4e487b7100000000000000000000000000000000000000000000000000000000600052601160045260246000fd5b7f4e487b7100000000000000000000000000000000000000000000000000000000600052602160045260246000fd5b7f4e487b7100000000000000000000000000000000000000000000000000000000600052602260045260246000fd5b600080fd5b62000584816200045f565b81146200059057600080fd5b50565b6200059e8162000473565b8114620005aa57600080fd5b50565b611de080620005bd6000396000f3fe6080604052600436106101845760003560e01c80636d58c88f116100d1578063c10b93581161008a578063d0e30db011610064578063d0e30db01461057b578063dd62ed3e146105a6578063e8b5e51f146105e3578063f851a4401461060157610194565b8063c10b9358146104fa578063c59ee1dc14610525578063cc9ba5831461055057610194565b80636d58c88f146103d657806370a08231146103ff5780638ac2c6801461043c57806395d89b4114610467578063a9059cbb14610492578063ab0bcc41146104cf57610194565b806327e235e31161013e578063380d831b11610118578063380d831b1461033e57806344f38756146103555780634d853ee51461038057806355a373d6146103ab57610194565b806327e235e3146102ab578063313ce567146102e8578063378aa7011461031357610194565b80622e131614610199578063046f7da2146101c457806306fdde03146101db578063095ea7b31461020657806318160ddd1461024357806323b872dd1461026e57610194565b366101945761019161062c565b50005b600080fd5b3480156101a557600080fd5b506101ae610a19565b6040516101bb91906119d9565b60405180910390f35b3480156101d057600080fd5b506101d9610a1f565b005b3480156101e757600080fd5b506101f0610aa6565b6040516101fd9190611997565b60405180910390f35b34801561021257600080fd5b5061022d60048036038101906102289190611760565b610b34565b60405161023a9190611946565b60405180910390f35b34801561024f57600080fd5b50610258610c7f565b60405161026591906119d9565b60405180910390f35b34801561027a57600080fd5b506102956004803603810190610290919061170d565b610c85565b6040516102a29190611946565b60405180910390f35b3480156102b757600080fd5b506102d260048036038101906102cd9190611673565b610cac565b6040516102df91906119d9565b60405180910390f35b3480156102f457600080fd5b506102fd610cc4565b60405161030a91906119d9565b60405180910390f35b34801561031f57600080fd5b50610328610cca565b604051610335919061197c565b60405180910390f35b34801561034a57600080fd5b50610353610d4d565b005b34801561036157600080fd5b5061036a610f96565b604051610377919061197c565b60405180910390f35b34801561038c57600080fd5b50610395610fa9565b6040516103a291906118b0565b60405180910390f35b3480156103b757600080fd5b506103c0610fcf565b6040516103cd9190611961565b60405180910390f35b3480156103e257600080fd5b506103fd60048036038101906103f891906116a0565b610ff5565b005b34801561040b57600080fd5b5061042660048036038101906104219190611673565b611093565b60405161043391906119d9565b60405180910390f35b34801561044857600080fd5b506104516110dc565b60405161045e91906119d9565b60405180910390f35b34801561047357600080fd5b5061047c6110e2565b6040516104899190611997565b60405180910390f35b34801561049e57600080fd5b506104b960048036038101906104b49190611760565b611170565b6040516104c69190611946565b60405180910390f35b3480156104db57600080fd5b506104e4611195565b6040516104f191906119d9565b60405180910390f35b34801561050657600080fd5b5061050f61119b565b60405161051c91906119d9565b60405180910390f35b34801561053157600080fd5b5061053a6111a1565b60405161054791906119d9565b60405180910390f35b34801561055c57600080fd5b506105656111a7565b60405161057291906119d9565b60405180910390f35b34801561058757600080fd5b506105906111ad565b60405161059d91906118cb565b60405180910390f35b3480156105b257600080fd5b506105cd60048036038101906105c891906116cd565b6111d3565b6040516105da91906119d9565b60405180910390f35b6105eb61062c565b6040516105f89190611946565b60405180910390f35b34801561060d57600080fd5b5061061661125a565b60405161062391906118b0565b60405180910390f35b6000610636610cca565b601160006101000a81548160ff0219169083600381111561065a57610659611c9d565b5b02179055506001600381111561067357610672611c9d565b5b601160009054906101000a900460ff16600381111561069557610694611c9d565b5b1461069f57600080fd5b60105434101580156106b35750600f543411155b6106bc57600080fd5b34600a60008282546106ce9190611a10565b925050819055506000600954346106e59190611a66565b905080600d60009054906101000a900473ffffffffffffffffffffffffffffffffffffffff1673ffffffffffffffffffffffffffffffffffffffff166370a08231306040518263ffffffff1660e01b815260040161074391906118b0565b60206040518083038186803b15801561075b57600080fd5b505afa15801561076f573d6000803e3d6000fd5b505050506040513d601f19601f8201168201806040525081019061079391906117cd565b10156107d4576040517f08c379a00000000000000000000000000000000000000000000000000000000081526004016107cb906119b9565b60405180910390fd5b600d60009054906101000a900473ffffffffffffffffffffffffffffffffffffffff1673ffffffffffffffffffffffffffffffffffffffff1663a9059cbb33670de0b6b3a7640000846108279190611a97565b6040518363ffffffff1660e01b81526004016108449291906118e6565b602060405180830381600087803b15801561085e57600080fd5b505af1158015610872573d6000803e3d6000fd5b505050506040513d601f19601f8201168201806040525081019061089691906117a0565b61089f57600080fd5b80600560003373ffffffffffffffffffffffffffffffffffffffff1673ffffffffffffffffffffffffffffffffffffffff16815260200190815260200160002060008282546108ee9190611a10565b925050819055508060056000600460009054906101000a900473ffffffffffffffffffffffffffffffffffffffff1673ffffffffffffffffffffffffffffffffffffffff1673ffffffffffffffffffffffffffffffffffffffff16815260200190815260200160002060008282546109669190611af1565b92505081905550600860009054906101000a900473ffffffffffffffffffffffffffffffffffffffff1673ffffffffffffffffffffffffffffffffffffffff166108fc349081150290604051600060405180830381858888f193505050501580156109d5573d6000803e3d6000fd5b507f4ae4bd7655e0d350876a23cd90c4227b13db560e34435c6a488150a9c844bf5f333483604051610a099392919061190f565b60405180910390a1600191505090565b600f5481565b600760009054906101000a900473ffffffffffffffffffffffffffffffffffffffff1673ffffffffffffffffffffffffffffffffffffffff163373ffffffffffffffffffffffffffffffffffffffff1614610a7957600080fd5b6001601160006101000a81548160ff02191690836003811115610a9f57610a9e611c9d565b5b0217905550565b60008054610ab390611c0d565b80601f0160208091040260200160405190810160405280929190818152602001828054610adf90611c0d565b8015610b2c5780601f10610b0157610100808354040283529160200191610b2c565b820191906000526020600020905b815481529060010190602001808311610b0f57829003601f168201915b505050505081565b600081600560003373ffffffffffffffffffffffffffffffffffffffff1673ffffffffffffffffffffffffffffffffffffffff168152602001908152602001600020541015610b8257600080fd5b60008211610b8f57600080fd5b81600660003373ffffffffffffffffffffffffffffffffffffffff1673ffffffffffffffffffffffffffffffffffffffff16815260200190815260200160002060008573ffffffffffffffffffffffffffffffffffffffff1673ffffffffffffffffffffffffffffffffffffffff168152602001908152602001600020819055508273ffffffffffffffffffffffffffffffffffffffff163373ffffffffffffffffffffffffffffffffffffffff167f8c5be1e5ebec7d5bd14f71427d1e84f3dd0314c0f7b2291e5b200ac8c7c3b92584604051610c6d91906119d9565b60405180910390a36001905092915050565b60035481565b6000600e544211610c9557600080fd5b610ca0848484611280565b50600190509392505050565b60056020528060005260406000206000915090505481565b60025481565b6000600380811115610cdf57610cde611c9d565b5b601160009054906101000a900460ff166003811115610d0157610d00611c9d565b5b1415610d105760039050610d4a565b600b54421015610d235760009050610d4a565b600b544210158015610d375750600c544211155b15610d455760019050610d4a565b600290505b90565b600760009054906101000a900473ffffffffffffffffffffffffffffffffffffffff1673ffffffffffffffffffffffffffffffffffffffff163373ffffffffffffffffffffffffffffffffffffffff1614610da757600080fd5b600d60009054906101000a900473ffffffffffffffffffffffffffffffffffffffff1673ffffffffffffffffffffffffffffffffffffffff1663a9059cbb600760009054906101000a900473ffffffffffffffffffffffffffffffffffffffff16600d60009054906101000a900473ffffffffffffffffffffffffffffffffffffffff1673ffffffffffffffffffffffffffffffffffffffff166370a08231306040518263ffffffff1660e01b8152600401610e6391906118b0565b60206040518083038186803b158015610e7b57600080fd5b505afa158015610e8f573d6000803e3d6000fd5b505050506040513d601f19601f82011682018060405250810190610eb391906117cd565b6040518363ffffffff1660e01b8152600401610ed09291906118e6565b602060405180830381600087803b158015610eea57600080fd5b505af1158015610efe573d6000803e3d6000fd5b505050506040513d601f19601f82011682018060405250810190610f2291906117a0565b610f2b57600080fd5b600760009054906101000a900473ffffffffffffffffffffffffffffffffffffffff1673ffffffffffffffffffffffffffffffffffffffff166108fc479081150290604051600060405180830381858888f19350505050158015610f93573d6000803e3d6000fd5b50565b601160009054906101000a900460ff1681565b600460009054906101000a900473ffffffffffffffffffffffffffffffffffffffff1681565b600d60009054906101000a900473ffffffffffffffffffffffffffffffffffffffff1681565b600760009054906101000a900473ffffffffffffffffffffffffffffffffffffffff1673ffffffffffffffffffffffffffffffffffffffff163373ffffffffffffffffffffffffffffffffffffffff161461104f57600080fd5b80600860006101000a81548173ffffffffffffffffffffffffffffffffffffffff021916908373ffffffffffffffffffffffffffffffffffffffff16021790555050565b6000600560008373ffffffffffffffffffffffffffffffffffffffff1673ffffffffffffffffffffffffffffffffffffffff168152602001908152602001600020549050919050565b60105481565b600180546110ef90611c0d565b80601f016020809104026020016040519081016040528092919081815260200182805461111b90611c0d565b80156111685780601f1061113d57610100808354040283529160200191611168565b820191906000526020600020905b81548152906001019060200180831161114b57829003601f168201915b505050505081565b6000600e54421161118057600080fd5b61118a83836114a1565b506001905092915050565b600b5481565b600c5481565b600a5481565b600e5481565b600860009054906101000a900473ffffffffffffffffffffffffffffffffffffffff1681565b6000600660008473ffffffffffffffffffffffffffffffffffffffff1673ffffffffffffffffffffffffffffffffffffffff16815260200190815260200160002060008373ffffffffffffffffffffffffffffffffffffffff1673ffffffffffffffffffffffffffffffffffffffff16815260200190815260200160002054905092915050565b600760009054906101000a900473ffffffffffffffffffffffffffffffffffffffff1681565b600081600660008673ffffffffffffffffffffffffffffffffffffffff1673ffffffffffffffffffffffffffffffffffffffff16815260200190815260200160002060008573ffffffffffffffffffffffffffffffffffffffff1673ffffffffffffffffffffffffffffffffffffffff16815260200190815260200160002054101561130b57600080fd5b81600560008673ffffffffffffffffffffffffffffffffffffffff1673ffffffffffffffffffffffffffffffffffffffff16815260200190815260200160002054101561135757600080fd5b81600560008673ffffffffffffffffffffffffffffffffffffffff1673ffffffffffffffffffffffffffffffffffffffff16815260200190815260200160002060008282546113a69190611af1565b9250508190555081600560008573ffffffffffffffffffffffffffffffffffffffff1673ffffffffffffffffffffffffffffffffffffffff16815260200190815260200160002060008282546113fc9190611a10565b9250508190555081600660008673ffffffffffffffffffffffffffffffffffffffff1673ffffffffffffffffffffffffffffffffffffffff16815260200190815260200160002060008573ffffffffffffffffffffffffffffffffffffffff1673ffffffffffffffffffffffffffffffffffffffff168152602001908152602001600020600082825461148f9190611af1565b92505081905550600190509392505050565b600081600560003373ffffffffffffffffffffffffffffffffffffffff1673ffffffffffffffffffffffffffffffffffffffff1681526020019081526020016000205410156114ef57600080fd5b81600560008573ffffffffffffffffffffffffffffffffffffffff1673ffffffffffffffffffffffffffffffffffffffff168152602001908152602001600020600082825461153e9190611a10565b9250508190555081600560003373ffffffffffffffffffffffffffffffffffffffff1673ffffffffffffffffffffffffffffffffffffffff16815260200190815260200160002060008282546115949190611af1565b925050819055508273ffffffffffffffffffffffffffffffffffffffff163373ffffffffffffffffffffffffffffffffffffffff167fddf252ad1be2c89b69c2b068fc378daa952ba7f163c4a11628f55a4df523b3ef846040516115f891906119d9565b60405180910390a36001905092915050565b60008135905061161981611d4e565b92915050565b60008135905061162e81611d65565b92915050565b60008151905061164381611d7c565b92915050565b60008135905061165881611d93565b92915050565b60008151905061166d81611d93565b92915050565b60006020828403121561168957611688611cfb565b5b60006116978482850161160a565b91505092915050565b6000602082840312156116b6576116b5611cfb565b5b60006116c48482850161161f565b91505092915050565b600080604083850312156116e4576116e3611cfb565b5b60006116f28582860161160a565b92505060206117038582860161160a565b9150509250929050565b60008060006060848603121561172657611725611cfb565b5b60006117348682870161160a565b93505060206117458682870161160a565b925050604061175686828701611649565b9150509250925092565b6000806040838503121561177757611776611cfb565b5b60006117858582860161160a565b925050602061179685828601611649565b9150509250929050565b6000602082840312156117b6576117b5611cfb565b5b60006117c484828501611634565b91505092915050565b6000602082840312156117e3576117e2611cfb565b5b60006117f18482850161165e565b91505092915050565b61180381611b37565b82525050565b61181281611b25565b82525050565b61182181611b49565b82525050565b61183081611b92565b82525050565b61183f81611ba4565b82525050565b6000611850826119f4565b61185a81856119ff565b935061186a818560208601611bda565b61187381611d00565b840191505092915050565b600061188b601e836119ff565b915061189682611d11565b602082019050919050565b6118aa81611b88565b82525050565b60006020820190506118c56000830184611809565b92915050565b60006020820190506118e060008301846117fa565b92915050565b60006040820190506118fb6000830185611809565b61190860208301846118a1565b9392505050565b60006060820190506119246000830186611809565b61193160208301856118a1565b61193e60408301846118a1565b949350505050565b600060208201905061195b6000830184611818565b92915050565b60006020820190506119766000830184611827565b92915050565b60006020820190506119916000830184611836565b92915050565b600060208201905081810360008301526119b18184611845565b905092915050565b600060208201905081810360008301526119d28161187e565b9050919050565b60006020820190506119ee60008301846118a1565b92915050565b600081519050919050565b600082825260208201905092915050565b6000611a1b82611b88565b9150611a2683611b88565b9250827fffffffffffffffffffffffffffffffffffffffffffffffffffffffffffffffff03821115611a5b57611a5a611c3f565b5b828201905092915050565b6000611a7182611b88565b9150611a7c83611b88565b925082611a8c57611a8b611c6e565b5b828204905092915050565b6000611aa282611b88565b9150611aad83611b88565b9250817fffffffffffffffffffffffffffffffffffffffffffffffffffffffffffffffff0483118215151615611ae657611ae5611c3f565b5b828202905092915050565b6000611afc82611b88565b9150611b0783611b88565b925082821015611b1a57611b19611c3f565b5b828203905092915050565b6000611b3082611b68565b9050919050565b6000611b4282611b68565b9050919050565b60008115159050919050565b6000819050611b6382611d3a565b919050565b600073ffffffffffffffffffffffffffffffffffffffff82169050919050565b6000819050919050565b6000611b9d82611bb6565b9050919050565b6000611baf82611b55565b9050919050565b6000611bc182611bc8565b9050919050565b6000611bd382611b68565b9050919050565b60005b83811015611bf8578082015181840152602081019050611bdd565b83811115611c07576000848401525b50505050565b60006002820490506001821680611c2557607f821691505b60208210811415611c3957611c38611ccc565b5b50919050565b7f4e487b7100000000000000000000000000000000000000000000000000000000600052601160045260246000fd5b7f4e487b7100000000000000000000000000000000000000000000000000000000600052601260045260246000fd5b7f4e487b7100000000000000000000000000000000000000000000000000000000600052602160045260246000fd5b7f4e487b7100000000000000000000000000000000000000000000000000000000600052602260045260246000fd5b600080fd5b6000601f19601f8301169050919050565b7f4e6f206d6f726520746f6b656e20696e2074686520636f6e7472616374210000600082015250565b60048110611d4b57611d4a611c9d565b5b50565b611d5781611b25565b8114611d6257600080fd5b50565b611d6e81611b37565b8114611d7957600080fd5b50565b611d8581611b49565b8114611d9057600080fd5b50565b611d9c81611b88565b8114611da757600080fd5b5056fea26469706673582212200b794acb318f5585e278642c2e31934410c5f95ddf41f3e1e3a68fc25c21603664736f6c63430008070033",
					"opcodes": "PUSH1 0x80 PUSH1 0x40 MSTORE PUSH1 0x40 MLOAD DUP1 PUSH1 0x40 ADD PUSH1 0x40 MSTORE DUP1 PUSH1 0xE DUP2 MSTORE PUSH1 0x20 ADD PUSH32 0x4E6174696F6E7320436F6D626174000000000000000000000000000000000000 DUP2 MSTORE POP PUSH1 0x0 SWAP1 DUP1 MLOAD SWAP1 PUSH1 0x20 ADD SWAP1 PUSH3 0x51 SWAP3 SWAP2 SWAP1 PUSH3 0x2DD JUMP JUMPDEST POP PUSH1 0x40 MLOAD DUP1 PUSH1 0x40 ADD PUSH1 0x40 MSTORE DUP1 PUSH1 0x3 DUP2 MSTORE PUSH1 0x20 ADD PUSH32 0x4E43540000000000000000000000000000000000000000000000000000000000 DUP2 MSTORE POP PUSH1 0x1 SWAP1 DUP1 MLOAD SWAP1 PUSH1 0x20 ADD SWAP1 PUSH3 0x9F SWAP3 SWAP2 SWAP1 PUSH3 0x2DD JUMP JUMPDEST POP PUSH1 0x12 PUSH1 0x2 SSTORE PUSH7 0x38D7EA4C68000 PUSH1 0x9 SSTORE TIMESTAMP PUSH1 0xB SSTORE PUSH3 0x93A80 TIMESTAMP PUSH3 0xC5 SWAP2 SWAP1 PUSH3 0x402 JUMP JUMPDEST PUSH1 0xC SSTORE PUSH3 0x93A80 PUSH1 0xC SLOAD PUSH3 0xDB SWAP2 SWAP1 PUSH3 0x402 JUMP JUMPDEST PUSH1 0xE SSTORE PUSH8 0x4563918244F40000 PUSH1 0xF SSTORE PUSH8 0x16345785D8A0000 PUSH1 0x10 SSTORE CALLVALUE DUP1 ISZERO PUSH3 0x103 JUMPI PUSH1 0x0 DUP1 REVERT JUMPDEST POP PUSH1 0x40 MLOAD PUSH3 0x239D CODESIZE SUB DUP1 PUSH3 0x239D DUP4 CODECOPY DUP2 DUP2 ADD PUSH1 0x40 MSTORE DUP2 ADD SWAP1 PUSH3 0x129 SWAP2 SWAP1 PUSH3 0x3BB JUMP JUMPDEST PUSH11 0x295BE96E64066972000000 PUSH1 0x3 DUP2 SWAP1 SSTORE POP CALLER PUSH1 0x4 PUSH1 0x0 PUSH2 0x100 EXP DUP2 SLOAD DUP2 PUSH20 0xFFFFFFFFFFFFFFFFFFFFFFFFFFFFFFFFFFFFFFFF MUL NOT AND SWAP1 DUP4 PUSH20 0xFFFFFFFFFFFFFFFFFFFFFFFFFFFFFFFFFFFFFFFF AND MUL OR SWAP1 SSTORE POP PUSH1 0x3 SLOAD PUSH1 0x5 PUSH1 0x0 PUSH1 0x4 PUSH1 0x0 SWAP1 SLOAD SWAP1 PUSH2 0x100 EXP SWAP1 DIV PUSH20 0xFFFFFFFFFFFFFFFFFFFFFFFFFFFFFFFFFFFFFFFF AND PUSH20 0xFFFFFFFFFFFFFFFFFFFFFFFFFFFFFFFFFFFFFFFF AND PUSH20 0xFFFFFFFFFFFFFFFFFFFFFFFFFFFFFFFFFFFFFFFF AND DUP2 MSTORE PUSH1 0x20 ADD SWAP1 DUP2 MSTORE PUSH1 0x20 ADD PUSH1 0x0 KECCAK256 DUP2 SWAP1 SSTORE POP DUP2 PUSH1 0x8 PUSH1 0x0 PUSH2 0x100 EXP DUP2 SLOAD DUP2 PUSH20 0xFFFFFFFFFFFFFFFFFFFFFFFFFFFFFFFFFFFFFFFF MUL NOT AND SWAP1 DUP4 PUSH20 0xFFFFFFFFFFFFFFFFFFFFFFFFFFFFFFFFFFFFFFFF AND MUL OR SWAP1 SSTORE POP CALLER PUSH1 0x7 PUSH1 0x0 PUSH2 0x100 EXP DUP2 SLOAD DUP2 PUSH20 0xFFFFFFFFFFFFFFFFFFFFFFFFFFFFFFFFFFFFFFFF MUL NOT AND SWAP1 DUP4 PUSH20 0xFFFFFFFFFFFFFFFFFFFFFFFFFFFFFFFFFFFFFFFF AND MUL OR SWAP1 SSTORE POP PUSH1 0x0 PUSH1 0x11 PUSH1 0x0 PUSH2 0x100 EXP DUP2 SLOAD DUP2 PUSH1 0xFF MUL NOT AND SWAP1 DUP4 PUSH1 0x3 DUP2 GT ISZERO PUSH3 0x28F JUMPI PUSH3 0x28E PUSH3 0x516 JUMP JUMPDEST JUMPDEST MUL OR SWAP1 SSTORE POP DUP1 PUSH1 0xD PUSH1 0x0 PUSH2 0x100 EXP DUP2 SLOAD DUP2 PUSH20 0xFFFFFFFFFFFFFFFFFFFFFFFFFFFFFFFFFFFFFFFF MUL NOT AND SWAP1 DUP4 PUSH20 0xFFFFFFFFFFFFFFFFFFFFFFFFFFFFFFFFFFFFFFFF AND MUL OR SWAP1 SSTORE POP POP POP PUSH3 0x5AD JUMP JUMPDEST DUP3 DUP1 SLOAD PUSH3 0x2EB SWAP1 PUSH3 0x4B1 JUMP JUMPDEST SWAP1 PUSH1 0x0 MSTORE PUSH1 0x20 PUSH1 0x0 KECCAK256 SWAP1 PUSH1 0x1F ADD PUSH1 0x20 SWAP1 DIV DUP2 ADD SWAP3 DUP3 PUSH3 0x30F JUMPI PUSH1 0x0 DUP6 SSTORE PUSH3 0x35B JUMP JUMPDEST DUP3 PUSH1 0x1F LT PUSH3 0x32A JUMPI DUP1 MLOAD PUSH1 0xFF NOT AND DUP4 DUP1 ADD OR DUP6 SSTORE PUSH3 0x35B JUMP JUMPDEST DUP3 DUP1 ADD PUSH1 0x1 ADD DUP6 SSTORE DUP3 ISZERO PUSH3 0x35B JUMPI SWAP2 DUP3 ADD JUMPDEST DUP3 DUP2 GT ISZERO PUSH3 0x35A JUMPI DUP3 MLOAD DUP3 SSTORE SWAP2 PUSH1 0x20 ADD SWAP2 SWAP1 PUSH1 0x1 ADD SWAP1 PUSH3 0x33D JUMP JUMPDEST JUMPDEST POP SWAP1 POP PUSH3 0x36A SWAP2 SWAP1 PUSH3 0x36E JUMP JUMPDEST POP SWAP1 JUMP JUMPDEST JUMPDEST DUP1 DUP3 GT ISZERO PUSH3 0x389 JUMPI PUSH1 0x0 DUP2 PUSH1 0x0 SWAP1 SSTORE POP PUSH1 0x1 ADD PUSH3 0x36F JUMP JUMPDEST POP SWAP1 JUMP JUMPDEST PUSH1 0x0 DUP2 MLOAD SWAP1 POP PUSH3 0x39E DUP2 PUSH3 0x579 JUMP JUMPDEST SWAP3 SWAP2 POP POP JUMP JUMPDEST PUSH1 0x0 DUP2 MLOAD SWAP1 POP PUSH3 0x3B5 DUP2 PUSH3 0x593 JUMP JUMPDEST SWAP3 SWAP2 POP POP JUMP JUMPDEST PUSH1 0x0 DUP1 PUSH1 0x40 DUP4 DUP6 SUB SLT ISZERO PUSH3 0x3D5 JUMPI PUSH3 0x3D4 PUSH3 0x574 JUMP JUMPDEST JUMPDEST PUSH1 0x0 PUSH3 0x3E5 DUP6 DUP3 DUP7 ADD PUSH3 0x3A4 JUMP JUMPDEST SWAP3 POP POP PUSH1 0x20 PUSH3 0x3F8 DUP6 DUP3 DUP7 ADD PUSH3 0x38D JUMP JUMPDEST SWAP2 POP POP SWAP3 POP SWAP3 SWAP1 POP JUMP JUMPDEST PUSH1 0x0 PUSH3 0x40F DUP3 PUSH3 0x4A7 JUMP JUMPDEST SWAP2 POP PUSH3 0x41C DUP4 PUSH3 0x4A7 JUMP JUMPDEST SWAP3 POP DUP3 PUSH32 0xFFFFFFFFFFFFFFFFFFFFFFFFFFFFFFFFFFFFFFFFFFFFFFFFFFFFFFFFFFFFFFFF SUB DUP3 GT ISZERO PUSH3 0x454 JUMPI PUSH3 0x453 PUSH3 0x4E7 JUMP JUMPDEST JUMPDEST DUP3 DUP3 ADD SWAP1 POP SWAP3 SWAP2 POP POP JUMP JUMPDEST PUSH1 0x0 PUSH3 0x46C DUP3 PUSH3 0x487 JUMP JUMPDEST SWAP1 POP SWAP2 SWAP1 POP JUMP JUMPDEST PUSH1 0x0 PUSH3 0x480 DUP3 PUSH3 0x487 JUMP JUMPDEST SWAP1 POP SWAP2 SWAP1 POP JUMP JUMPDEST PUSH1 0x0 PUSH20 0xFFFFFFFFFFFFFFFFFFFFFFFFFFFFFFFFFFFFFFFF DUP3 AND SWAP1 POP SWAP2 SWAP1 POP JUMP JUMPDEST PUSH1 0x0 DUP2 SWAP1 POP SWAP2 SWAP1 POP JUMP JUMPDEST PUSH1 0x0 PUSH1 0x2 DUP3 DIV SWAP1 POP PUSH1 0x1 DUP3 AND DUP1 PUSH3 0x4CA JUMPI PUSH1 0x7F DUP3 AND SWAP2 POP JUMPDEST PUSH1 0x20 DUP3 LT DUP2 EQ ISZERO PUSH3 0x4E1 JUMPI PUSH3 0x4E0 PUSH3 0x545 JUMP JUMPDEST JUMPDEST POP SWAP2 SWAP1 POP JUMP JUMPDEST PUSH32 0x4E487B7100000000000000000000000000000000000000000000000000000000 PUSH1 0x0 MSTORE PUSH1 0x11 PUSH1 0x4 MSTORE PUSH1 0x24 PUSH1 0x0 REVERT JUMPDEST PUSH32 0x4E487B7100000000000000000000000000000000000000000000000000000000 PUSH1 0x0 MSTORE PUSH1 0x21 PUSH1 0x4 MSTORE PUSH1 0x24 PUSH1 0x0 REVERT JUMPDEST PUSH32 0x4E487B7100000000000000000000000000000000000000000000000000000000 PUSH1 0x0 MSTORE PUSH1 0x22 PUSH1 0x4 MSTORE PUSH1 0x24 PUSH1 0x0 REVERT JUMPDEST PUSH1 0x0 DUP1 REVERT JUMPDEST PUSH3 0x584 DUP2 PUSH3 0x45F JUMP JUMPDEST DUP2 EQ PUSH3 0x590 JUMPI PUSH1 0x0 DUP1 REVERT JUMPDEST POP JUMP JUMPDEST PUSH3 0x59E DUP2 PUSH3 0x473 JUMP JUMPDEST DUP2 EQ PUSH3 0x5AA JUMPI PUSH1 0x0 DUP1 REVERT JUMPDEST POP JUMP JUMPDEST PUSH2 0x1DE0 DUP1 PUSH3 0x5BD PUSH1 0x0 CODECOPY PUSH1 0x0 RETURN INVALID PUSH1 0x80 PUSH1 0x40 MSTORE PUSH1 0x4 CALLDATASIZE LT PUSH2 0x184 JUMPI PUSH1 0x0 CALLDATALOAD PUSH1 0xE0 SHR DUP1 PUSH4 0x6D58C88F GT PUSH2 0xD1 JUMPI DUP1 PUSH4 0xC10B9358 GT PUSH2 0x8A JUMPI DUP1 PUSH4 0xD0E30DB0 GT PUSH2 0x64 JUMPI DUP1 PUSH4 0xD0E30DB0 EQ PUSH2 0x57B JUMPI DUP1 PUSH4 0xDD62ED3E EQ PUSH2 0x5A6 JUMPI DUP1 PUSH4 0xE8B5E51F EQ PUSH2 0x5E3 JUMPI DUP1 PUSH4 0xF851A440 EQ PUSH2 0x601 JUMPI PUSH2 0x194 JUMP JUMPDEST DUP1 PUSH4 0xC10B9358 EQ PUSH2 0x4FA JUMPI DUP1 PUSH4 0xC59EE1DC EQ PUSH2 0x525 JUMPI DUP1 PUSH4 0xCC9BA583 EQ PUSH2 0x550 JUMPI PUSH2 0x194 JUMP JUMPDEST DUP1 PUSH4 0x6D58C88F EQ PUSH2 0x3D6 JUMPI DUP1 PUSH4 0x70A08231 EQ PUSH2 0x3FF JUMPI DUP1 PUSH4 0x8AC2C680 EQ PUSH2 0x43C JUMPI DUP1 PUSH4 0x95D89B41 EQ PUSH2 0x467 JUMPI DUP1 PUSH4 0xA9059CBB EQ PUSH2 0x492 JUMPI DUP1 PUSH4 0xAB0BCC41 EQ PUSH2 0x4CF JUMPI PUSH2 0x194 JUMP JUMPDEST DUP1 PUSH4 0x27E235E3 GT PUSH2 0x13E JUMPI DUP1 PUSH4 0x380D831B GT PUSH2 0x118 JUMPI DUP1 PUSH4 0x380D831B EQ PUSH2 0x33E JUMPI DUP1 PUSH4 0x44F38756 EQ PUSH2 0x355 JUMPI DUP1 PUSH4 0x4D853EE5 EQ PUSH2 0x380 JUMPI DUP1 PUSH4 0x55A373D6 EQ PUSH2 0x3AB JUMPI PUSH2 0x194 JUMP JUMPDEST DUP1 PUSH4 0x27E235E3 EQ PUSH2 0x2AB JUMPI DUP1 PUSH4 0x313CE567 EQ PUSH2 0x2E8 JUMPI DUP1 PUSH4 0x378AA701 EQ PUSH2 0x313 JUMPI PUSH2 0x194 JUMP JUMPDEST DUP1 PUSH3 0x2E1316 EQ PUSH2 0x199 JUMPI DUP1 PUSH4 0x46F7DA2 EQ PUSH2 0x1C4 JUMPI DUP1 PUSH4 0x6FDDE03 EQ PUSH2 0x1DB JUMPI DUP1 PUSH4 0x95EA7B3 EQ PUSH2 0x206 JUMPI DUP1 PUSH4 0x18160DDD EQ PUSH2 0x243 JUMPI DUP1 PUSH4 0x23B872DD EQ PUSH2 0x26E JUMPI PUSH2 0x194 JUMP JUMPDEST CALLDATASIZE PUSH2 0x194 JUMPI PUSH2 0x191 PUSH2 0x62C JUMP JUMPDEST POP STOP JUMPDEST PUSH1 0x0 DUP1 REVERT JUMPDEST CALLVALUE DUP1 ISZERO PUSH2 0x1A5 JUMPI PUSH1 0x0 DUP1 REVERT JUMPDEST POP PUSH2 0x1AE PUSH2 0xA19 JUMP JUMPDEST PUSH1 0x40 MLOAD PUSH2 0x1BB SWAP2 SWAP1 PUSH2 0x19D9 JUMP JUMPDEST PUSH1 0x40 MLOAD DUP1 SWAP2 SUB SWAP1 RETURN JUMPDEST CALLVALUE DUP1 ISZERO PUSH2 0x1D0 JUMPI PUSH1 0x0 DUP1 REVERT JUMPDEST POP PUSH2 0x1D9 PUSH2 0xA1F JUMP JUMPDEST STOP JUMPDEST CALLVALUE DUP1 ISZERO PUSH2 0x1E7 JUMPI PUSH1 0x0 DUP1 REVERT JUMPDEST POP PUSH2 0x1F0 PUSH2 0xAA6 JUMP JUMPDEST PUSH1 0x40 MLOAD PUSH2 0x1FD SWAP2 SWAP1 PUSH2 0x1997 JUMP JUMPDEST PUSH1 0x40 MLOAD DUP1 SWAP2 SUB SWAP1 RETURN JUMPDEST CALLVALUE DUP1 ISZERO PUSH2 0x212 JUMPI PUSH1 0x0 DUP1 REVERT JUMPDEST POP PUSH2 0x22D PUSH1 0x4 DUP1 CALLDATASIZE SUB DUP2 ADD SWAP1 PUSH2 0x228 SWAP2 SWAP1 PUSH2 0x1760 JUMP JUMPDEST PUSH2 0xB34 JUMP JUMPDEST PUSH1 0x40 MLOAD PUSH2 0x23A SWAP2 SWAP1 PUSH2 0x1946 JUMP JUMPDEST PUSH1 0x40 MLOAD DUP1 SWAP2 SUB SWAP1 RETURN JUMPDEST CALLVALUE DUP1 ISZERO PUSH2 0x24F JUMPI PUSH1 0x0 DUP1 REVERT JUMPDEST POP PUSH2 0x258 PUSH2 0xC7F JUMP JUMPDEST PUSH1 0x40 MLOAD PUSH2 0x265 SWAP2 SWAP1 PUSH2 0x19D9 JUMP JUMPDEST PUSH1 0x40 MLOAD DUP1 SWAP2 SUB SWAP1 RETURN JUMPDEST CALLVALUE DUP1 ISZERO PUSH2 0x27A JUMPI PUSH1 0x0 DUP1 REVERT JUMPDEST POP PUSH2 0x295 PUSH1 0x4 DUP1 CALLDATASIZE SUB DUP2 ADD SWAP1 PUSH2 0x290 SWAP2 SWAP1 PUSH2 0x170D JUMP JUMPDEST PUSH2 0xC85 JUMP JUMPDEST PUSH1 0x40 MLOAD PUSH2 0x2A2 SWAP2 SWAP1 PUSH2 0x1946 JUMP JUMPDEST PUSH1 0x40 MLOAD DUP1 SWAP2 SUB SWAP1 RETURN JUMPDEST CALLVALUE DUP1 ISZERO PUSH2 0x2B7 JUMPI PUSH1 0x0 DUP1 REVERT JUMPDEST POP PUSH2 0x2D2 PUSH1 0x4 DUP1 CALLDATASIZE SUB DUP2 ADD SWAP1 PUSH2 0x2CD SWAP2 SWAP1 PUSH2 0x1673 JUMP JUMPDEST PUSH2 0xCAC JUMP JUMPDEST PUSH1 0x40 MLOAD PUSH2 0x2DF SWAP2 SWAP1 PUSH2 0x19D9 JUMP JUMPDEST PUSH1 0x40 MLOAD DUP1 SWAP2 SUB SWAP1 RETURN JUMPDEST CALLVALUE DUP1 ISZERO PUSH2 0x2F4 JUMPI PUSH1 0x0 DUP1 REVERT JUMPDEST POP PUSH2 0x2FD PUSH2 0xCC4 JUMP JUMPDEST PUSH1 0x40 MLOAD PUSH2 0x30A SWAP2 SWAP1 PUSH2 0x19D9 JUMP JUMPDEST PUSH1 0x40 MLOAD DUP1 SWAP2 SUB SWAP1 RETURN JUMPDEST CALLVALUE DUP1 ISZERO PUSH2 0x31F JUMPI PUSH1 0x0 DUP1 REVERT JUMPDEST POP PUSH2 0x328 PUSH2 0xCCA JUMP JUMPDEST PUSH1 0x40 MLOAD PUSH2 0x335 SWAP2 SWAP1 PUSH2 0x197C JUMP JUMPDEST PUSH1 0x40 MLOAD DUP1 SWAP2 SUB SWAP1 RETURN JUMPDEST CALLVALUE DUP1 ISZERO PUSH2 0x34A JUMPI PUSH1 0x0 DUP1 REVERT JUMPDEST POP PUSH2 0x353 PUSH2 0xD4D JUMP JUMPDEST STOP JUMPDEST CALLVALUE DUP1 ISZERO PUSH2 0x361 JUMPI PUSH1 0x0 DUP1 REVERT JUMPDEST POP PUSH2 0x36A PUSH2 0xF96 JUMP JUMPDEST PUSH1 0x40 MLOAD PUSH2 0x377 SWAP2 SWAP1 PUSH2 0x197C JUMP JUMPDEST PUSH1 0x40 MLOAD DUP1 SWAP2 SUB SWAP1 RETURN JUMPDEST CALLVALUE DUP1 ISZERO PUSH2 0x38C JUMPI PUSH1 0x0 DUP1 REVERT JUMPDEST POP PUSH2 0x395 PUSH2 0xFA9 JUMP JUMPDEST PUSH1 0x40 MLOAD PUSH2 0x3A2 SWAP2 SWAP1 PUSH2 0x18B0 JUMP JUMPDEST PUSH1 0x40 MLOAD DUP1 SWAP2 SUB SWAP1 RETURN JUMPDEST CALLVALUE DUP1 ISZERO PUSH2 0x3B7 JUMPI PUSH1 0x0 DUP1 REVERT JUMPDEST POP PUSH2 0x3C0 PUSH2 0xFCF JUMP JUMPDEST PUSH1 0x40 MLOAD PUSH2 0x3CD SWAP2 SWAP1 PUSH2 0x1961 JUMP JUMPDEST PUSH1 0x40 MLOAD DUP1 SWAP2 SUB SWAP1 RETURN JUMPDEST CALLVALUE DUP1 ISZERO PUSH2 0x3E2 JUMPI PUSH1 0x0 DUP1 REVERT JUMPDEST POP PUSH2 0x3FD PUSH1 0x4 DUP1 CALLDATASIZE SUB DUP2 ADD SWAP1 PUSH2 0x3F8 SWAP2 SWAP1 PUSH2 0x16A0 JUMP JUMPDEST PUSH2 0xFF5 JUMP JUMPDEST STOP JUMPDEST CALLVALUE DUP1 ISZERO PUSH2 0x40B JUMPI PUSH1 0x0 DUP1 REVERT JUMPDEST POP PUSH2 0x426 PUSH1 0x4 DUP1 CALLDATASIZE SUB DUP2 ADD SWAP1 PUSH2 0x421 SWAP2 SWAP1 PUSH2 0x1673 JUMP JUMPDEST PUSH2 0x1093 JUMP JUMPDEST PUSH1 0x40 MLOAD PUSH2 0x433 SWAP2 SWAP1 PUSH2 0x19D9 JUMP JUMPDEST PUSH1 0x40 MLOAD DUP1 SWAP2 SUB SWAP1 RETURN JUMPDEST CALLVALUE DUP1 ISZERO PUSH2 0x448 JUMPI PUSH1 0x0 DUP1 REVERT JUMPDEST POP PUSH2 0x451 PUSH2 0x10DC JUMP JUMPDEST PUSH1 0x40 MLOAD PUSH2 0x45E SWAP2 SWAP1 PUSH2 0x19D9 JUMP JUMPDEST PUSH1 0x40 MLOAD DUP1 SWAP2 SUB SWAP1 RETURN JUMPDEST CALLVALUE DUP1 ISZERO PUSH2 0x473 JUMPI PUSH1 0x0 DUP1 REVERT JUMPDEST POP PUSH2 0x47C PUSH2 0x10E2 JUMP JUMPDEST PUSH1 0x40 MLOAD PUSH2 0x489 SWAP2 SWAP1 PUSH2 0x1997 JUMP JUMPDEST PUSH1 0x40 MLOAD DUP1 SWAP2 SUB SWAP1 RETURN JUMPDEST CALLVALUE DUP1 ISZERO PUSH2 0x49E JUMPI PUSH1 0x0 DUP1 REVERT JUMPDEST POP PUSH2 0x4B9 PUSH1 0x4 DUP1 CALLDATASIZE SUB DUP2 ADD SWAP1 PUSH2 0x4B4 SWAP2 SWAP1 PUSH2 0x1760 JUMP JUMPDEST PUSH2 0x1170 JUMP JUMPDEST PUSH1 0x40 MLOAD PUSH2 0x4C6 SWAP2 SWAP1 PUSH2 0x1946 JUMP JUMPDEST PUSH1 0x40 MLOAD DUP1 SWAP2 SUB SWAP1 RETURN JUMPDEST CALLVALUE DUP1 ISZERO PUSH2 0x4DB JUMPI PUSH1 0x0 DUP1 REVERT JUMPDEST POP PUSH2 0x4E4 PUSH2 0x1195 JUMP JUMPDEST PUSH1 0x40 MLOAD PUSH2 0x4F1 SWAP2 SWAP1 PUSH2 0x19D9 JUMP JUMPDEST PUSH1 0x40 MLOAD DUP1 SWAP2 SUB SWAP1 RETURN JUMPDEST CALLVALUE DUP1 ISZERO PUSH2 0x506 JUMPI PUSH1 0x0 DUP1 REVERT JUMPDEST POP PUSH2 0x50F PUSH2 0x119B JUMP JUMPDEST PUSH1 0x40 MLOAD PUSH2 0x51C SWAP2 SWAP1 PUSH2 0x19D9 JUMP JUMPDEST PUSH1 0x40 MLOAD DUP1 SWAP2 SUB SWAP1 RETURN JUMPDEST CALLVALUE DUP1 ISZERO PUSH2 0x531 JUMPI PUSH1 0x0 DUP1 REVERT JUMPDEST POP PUSH2 0x53A PUSH2 0x11A1 JUMP JUMPDEST PUSH1 0x40 MLOAD PUSH2 0x547 SWAP2 SWAP1 PUSH2 0x19D9 JUMP JUMPDEST PUSH1 0x40 MLOAD DUP1 SWAP2 SUB SWAP1 RETURN JUMPDEST CALLVALUE DUP1 ISZERO PUSH2 0x55C JUMPI PUSH1 0x0 DUP1 REVERT JUMPDEST POP PUSH2 0x565 PUSH2 0x11A7 JUMP JUMPDEST PUSH1 0x40 MLOAD PUSH2 0x572 SWAP2 SWAP1 PUSH2 0x19D9 JUMP JUMPDEST PUSH1 0x40 MLOAD DUP1 SWAP2 SUB SWAP1 RETURN JUMPDEST CALLVALUE DUP1 ISZERO PUSH2 0x587 JUMPI PUSH1 0x0 DUP1 REVERT JUMPDEST POP PUSH2 0x590 PUSH2 0x11AD JUMP JUMPDEST PUSH1 0x40 MLOAD PUSH2 0x59D SWAP2 SWAP1 PUSH2 0x18CB JUMP JUMPDEST PUSH1 0x40 MLOAD DUP1 SWAP2 SUB SWAP1 RETURN JUMPDEST CALLVALUE DUP1 ISZERO PUSH2 0x5B2 JUMPI PUSH1 0x0 DUP1 REVERT JUMPDEST POP PUSH2 0x5CD PUSH1 0x4 DUP1 CALLDATASIZE SUB DUP2 ADD SWAP1 PUSH2 0x5C8 SWAP2 SWAP1 PUSH2 0x16CD JUMP JUMPDEST PUSH2 0x11D3 JUMP JUMPDEST PUSH1 0x40 MLOAD PUSH2 0x5DA SWAP2 SWAP1 PUSH2 0x19D9 JUMP JUMPDEST PUSH1 0x40 MLOAD DUP1 SWAP2 SUB SWAP1 RETURN JUMPDEST PUSH2 0x5EB PUSH2 0x62C JUMP JUMPDEST PUSH1 0x40 MLOAD PUSH2 0x5F8 SWAP2 SWAP1 PUSH2 0x1946 JUMP JUMPDEST PUSH1 0x40 MLOAD DUP1 SWAP2 SUB SWAP1 RETURN JUMPDEST CALLVALUE DUP1 ISZERO PUSH2 0x60D JUMPI PUSH1 0x0 DUP1 REVERT JUMPDEST POP PUSH2 0x616 PUSH2 0x125A JUMP JUMPDEST PUSH1 0x40 MLOAD PUSH2 0x623 SWAP2 SWAP1 PUSH2 0x18B0 JUMP JUMPDEST PUSH1 0x40 MLOAD DUP1 SWAP2 SUB SWAP1 RETURN JUMPDEST PUSH1 0x0 PUSH2 0x636 PUSH2 0xCCA JUMP JUMPDEST PUSH1 0x11 PUSH1 0x0 PUSH2 0x100 EXP DUP2 SLOAD DUP2 PUSH1 0xFF MUL NOT AND SWAP1 DUP4 PUSH1 0x3 DUP2 GT ISZERO PUSH2 0x65A JUMPI PUSH2 0x659 PUSH2 0x1C9D JUMP JUMPDEST JUMPDEST MUL OR SWAP1 SSTORE POP PUSH1 0x1 PUSH1 0x3 DUP2 GT ISZERO PUSH2 0x673 JUMPI PUSH2 0x672 PUSH2 0x1C9D JUMP JUMPDEST JUMPDEST PUSH1 0x11 PUSH1 0x0 SWAP1 SLOAD SWAP1 PUSH2 0x100 EXP SWAP1 DIV PUSH1 0xFF AND PUSH1 0x3 DUP2 GT ISZERO PUSH2 0x695 JUMPI PUSH2 0x694 PUSH2 0x1C9D JUMP JUMPDEST JUMPDEST EQ PUSH2 0x69F JUMPI PUSH1 0x0 DUP1 REVERT JUMPDEST PUSH1 0x10 SLOAD CALLVALUE LT ISZERO DUP1 ISZERO PUSH2 0x6B3 JUMPI POP PUSH1 0xF SLOAD CALLVALUE GT ISZERO JUMPDEST PUSH2 0x6BC JUMPI PUSH1 0x0 DUP1 REVERT JUMPDEST CALLVALUE PUSH1 0xA PUSH1 0x0 DUP3 DUP3 SLOAD PUSH2 0x6CE SWAP2 SWAP1 PUSH2 0x1A10 JUMP JUMPDEST SWAP3 POP POP DUP2 SWAP1 SSTORE POP PUSH1 0x0 PUSH1 0x9 SLOAD CALLVALUE PUSH2 0x6E5 SWAP2 SWAP1 PUSH2 0x1A66 JUMP JUMPDEST SWAP1 POP DUP1 PUSH1 0xD PUSH1 0x0 SWAP1 SLOAD SWAP1 PUSH2 0x100 EXP SWAP1 DIV PUSH20 0xFFFFFFFFFFFFFFFFFFFFFFFFFFFFFFFFFFFFFFFF AND PUSH20 0xFFFFFFFFFFFFFFFFFFFFFFFFFFFFFFFFFFFFFFFF AND PUSH4 0x70A08231 ADDRESS PUSH1 0x40 MLOAD DUP3 PUSH4 0xFFFFFFFF AND PUSH1 0xE0 SHL DUP2 MSTORE PUSH1 0x4 ADD PUSH2 0x743 SWAP2 SWAP1 PUSH2 0x18B0 JUMP JUMPDEST PUSH1 0x20 PUSH1 0x40 MLOAD DUP1 DUP4 SUB DUP2 DUP7 DUP1 EXTCODESIZE ISZERO DUP1 ISZERO PUSH2 0x75B JUMPI PUSH1 0x0 DUP1 REVERT JUMPDEST POP GAS STATICCALL ISZERO DUP1 ISZERO PUSH2 0x76F JUMPI RETURNDATASIZE PUSH1 0x0 DUP1 RETURNDATACOPY RETURNDATASIZE PUSH1 0x0 REVERT JUMPDEST POP POP POP POP PUSH1 0x40 MLOAD RETURNDATASIZE PUSH1 0x1F NOT PUSH1 0x1F DUP3 ADD AND DUP3 ADD DUP1 PUSH1 0x40 MSTORE POP DUP2 ADD SWAP1 PUSH2 0x793 SWAP2 SWAP1 PUSH2 0x17CD JUMP JUMPDEST LT ISZERO PUSH2 0x7D4 JUMPI PUSH1 0x40 MLOAD PUSH32 0x8C379A000000000000000000000000000000000000000000000000000000000 DUP2 MSTORE PUSH1 0x4 ADD PUSH2 0x7CB SWAP1 PUSH2 0x19B9 JUMP JUMPDEST PUSH1 0x40 MLOAD DUP1 SWAP2 SUB SWAP1 REVERT JUMPDEST PUSH1 0xD PUSH1 0x0 SWAP1 SLOAD SWAP1 PUSH2 0x100 EXP SWAP1 DIV PUSH20 0xFFFFFFFFFFFFFFFFFFFFFFFFFFFFFFFFFFFFFFFF AND PUSH20 0xFFFFFFFFFFFFFFFFFFFFFFFFFFFFFFFFFFFFFFFF AND PUSH4 0xA9059CBB CALLER PUSH8 0xDE0B6B3A7640000 DUP5 PUSH2 0x827 SWAP2 SWAP1 PUSH2 0x1A97 JUMP JUMPDEST PUSH1 0x40 MLOAD DUP4 PUSH4 0xFFFFFFFF AND PUSH1 0xE0 SHL DUP2 MSTORE PUSH1 0x4 ADD PUSH2 0x844 SWAP3 SWAP2 SWAP1 PUSH2 0x18E6 JUMP JUMPDEST PUSH1 0x20 PUSH1 0x40 MLOAD DUP1 DUP4 SUB DUP2 PUSH1 0x0 DUP8 DUP1 EXTCODESIZE ISZERO DUP1 ISZERO PUSH2 0x85E JUMPI PUSH1 0x0 DUP1 REVERT JUMPDEST POP GAS CALL ISZERO DUP1 ISZERO PUSH2 0x872 JUMPI RETURNDATASIZE PUSH1 0x0 DUP1 RETURNDATACOPY RETURNDATASIZE PUSH1 0x0 REVERT JUMPDEST POP POP POP POP PUSH1 0x40 MLOAD RETURNDATASIZE PUSH1 0x1F NOT PUSH1 0x1F DUP3 ADD AND DUP3 ADD DUP1 PUSH1 0x40 MSTORE POP DUP2 ADD SWAP1 PUSH2 0x896 SWAP2 SWAP1 PUSH2 0x17A0 JUMP JUMPDEST PUSH2 0x89F JUMPI PUSH1 0x0 DUP1 REVERT JUMPDEST DUP1 PUSH1 0x5 PUSH1 0x0 CALLER PUSH20 0xFFFFFFFFFFFFFFFFFFFFFFFFFFFFFFFFFFFFFFFF AND PUSH20 0xFFFFFFFFFFFFFFFFFFFFFFFFFFFFFFFFFFFFFFFF AND DUP2 MSTORE PUSH1 0x20 ADD SWAP1 DUP2 MSTORE PUSH1 0x20 ADD PUSH1 0x0 KECCAK256 PUSH1 0x0 DUP3 DUP3 SLOAD PUSH2 0x8EE SWAP2 SWAP1 PUSH2 0x1A10 JUMP JUMPDEST SWAP3 POP POP DUP2 SWAP1 SSTORE POP DUP1 PUSH1 0x5 PUSH1 0x0 PUSH1 0x4 PUSH1 0x0 SWAP1 SLOAD SWAP1 PUSH2 0x100 EXP SWAP1 DIV PUSH20 0xFFFFFFFFFFFFFFFFFFFFFFFFFFFFFFFFFFFFFFFF AND PUSH20 0xFFFFFFFFFFFFFFFFFFFFFFFFFFFFFFFFFFFFFFFF AND PUSH20 0xFFFFFFFFFFFFFFFFFFFFFFFFFFFFFFFFFFFFFFFF AND DUP2 MSTORE PUSH1 0x20 ADD SWAP1 DUP2 MSTORE PUSH1 0x20 ADD PUSH1 0x0 KECCAK256 PUSH1 0x0 DUP3 DUP3 SLOAD PUSH2 0x966 SWAP2 SWAP1 PUSH2 0x1AF1 JUMP JUMPDEST SWAP3 POP POP DUP2 SWAP1 SSTORE POP PUSH1 0x8 PUSH1 0x0 SWAP1 SLOAD SWAP1 PUSH2 0x100 EXP SWAP1 DIV PUSH20 0xFFFFFFFFFFFFFFFFFFFFFFFFFFFFFFFFFFFFFFFF AND PUSH20 0xFFFFFFFFFFFFFFFFFFFFFFFFFFFFFFFFFFFFFFFF AND PUSH2 0x8FC CALLVALUE SWAP1 DUP2 ISZERO MUL SWAP1 PUSH1 0x40 MLOAD PUSH1 0x0 PUSH1 0x40 MLOAD DUP1 DUP4 SUB DUP2 DUP6 DUP9 DUP9 CALL SWAP4 POP POP POP POP ISZERO DUP1 ISZERO PUSH2 0x9D5 JUMPI RETURNDATASIZE PUSH1 0x0 DUP1 RETURNDATACOPY RETURNDATASIZE PUSH1 0x0 REVERT JUMPDEST POP PUSH32 0x4AE4BD7655E0D350876A23CD90C4227B13DB560E34435C6A488150A9C844BF5F CALLER CALLVALUE DUP4 PUSH1 0x40 MLOAD PUSH2 0xA09 SWAP4 SWAP3 SWAP2 SWAP1 PUSH2 0x190F JUMP JUMPDEST PUSH1 0x40 MLOAD DUP1 SWAP2 SUB SWAP1 LOG1 PUSH1 0x1 SWAP2 POP POP SWAP1 JUMP JUMPDEST PUSH1 0xF SLOAD DUP2 JUMP JUMPDEST PUSH1 0x7 PUSH1 0x0 SWAP1 SLOAD SWAP1 PUSH2 0x100 EXP SWAP1 DIV PUSH20 0xFFFFFFFFFFFFFFFFFFFFFFFFFFFFFFFFFFFFFFFF AND PUSH20 0xFFFFFFFFFFFFFFFFFFFFFFFFFFFFFFFFFFFFFFFF AND CALLER PUSH20 0xFFFFFFFFFFFFFFFFFFFFFFFFFFFFFFFFFFFFFFFF AND EQ PUSH2 0xA79 JUMPI PUSH1 0x0 DUP1 REVERT JUMPDEST PUSH1 0x1 PUSH1 0x11 PUSH1 0x0 PUSH2 0x100 EXP DUP2 SLOAD DUP2 PUSH1 0xFF MUL NOT AND SWAP1 DUP4 PUSH1 0x3 DUP2 GT ISZERO PUSH2 0xA9F JUMPI PUSH2 0xA9E PUSH2 0x1C9D JUMP JUMPDEST JUMPDEST MUL OR SWAP1 SSTORE POP JUMP JUMPDEST PUSH1 0x0 DUP1 SLOAD PUSH2 0xAB3 SWAP1 PUSH2 0x1C0D JUMP JUMPDEST DUP1 PUSH1 0x1F ADD PUSH1 0x20 DUP1 SWAP2 DIV MUL PUSH1 0x20 ADD PUSH1 0x40 MLOAD SWAP1 DUP2 ADD PUSH1 0x40 MSTORE DUP1 SWAP3 SWAP2 SWAP1 DUP2 DUP2 MSTORE PUSH1 0x20 ADD DUP3 DUP1 SLOAD PUSH2 0xADF SWAP1 PUSH2 0x1C0D JUMP JUMPDEST DUP1 ISZERO PUSH2 0xB2C JUMPI DUP1 PUSH1 0x1F LT PUSH2 0xB01 JUMPI PUSH2 0x100 DUP1 DUP4 SLOAD DIV MUL DUP4 MSTORE SWAP2 PUSH1 0x20 ADD SWAP2 PUSH2 0xB2C JUMP JUMPDEST DUP3 ADD SWAP2 SWAP1 PUSH1 0x0 MSTORE PUSH1 0x20 PUSH1 0x0 KECCAK256 SWAP1 JUMPDEST DUP2 SLOAD DUP2 MSTORE SWAP1 PUSH1 0x1 ADD SWAP1 PUSH1 0x20 ADD DUP1 DUP4 GT PUSH2 0xB0F JUMPI DUP3 SWAP1 SUB PUSH1 0x1F AND DUP3 ADD SWAP2 JUMPDEST POP POP POP POP POP DUP2 JUMP JUMPDEST PUSH1 0x0 DUP2 PUSH1 0x5 PUSH1 0x0 CALLER PUSH20 0xFFFFFFFFFFFFFFFFFFFFFFFFFFFFFFFFFFFFFFFF AND PUSH20 0xFFFFFFFFFFFFFFFFFFFFFFFFFFFFFFFFFFFFFFFF AND DUP2 MSTORE PUSH1 0x20 ADD SWAP1 DUP2 MSTORE PUSH1 0x20 ADD PUSH1 0x0 KECCAK256 SLOAD LT ISZERO PUSH2 0xB82 JUMPI PUSH1 0x0 DUP1 REVERT JUMPDEST PUSH1 0x0 DUP3 GT PUSH2 0xB8F JUMPI PUSH1 0x0 DUP1 REVERT JUMPDEST DUP2 PUSH1 0x6 PUSH1 0x0 CALLER PUSH20 0xFFFFFFFFFFFFFFFFFFFFFFFFFFFFFFFFFFFFFFFF AND PUSH20 0xFFFFFFFFFFFFFFFFFFFFFFFFFFFFFFFFFFFFFFFF AND DUP2 MSTORE PUSH1 0x20 ADD SWAP1 DUP2 MSTORE PUSH1 0x20 ADD PUSH1 0x0 KECCAK256 PUSH1 0x0 DUP6 PUSH20 0xFFFFFFFFFFFFFFFFFFFFFFFFFFFFFFFFFFFFFFFF AND PUSH20 0xFFFFFFFFFFFFFFFFFFFFFFFFFFFFFFFFFFFFFFFF AND DUP2 MSTORE PUSH1 0x20 ADD SWAP1 DUP2 MSTORE PUSH1 0x20 ADD PUSH1 0x0 KECCAK256 DUP2 SWAP1 SSTORE POP DUP3 PUSH20 0xFFFFFFFFFFFFFFFFFFFFFFFFFFFFFFFFFFFFFFFF AND CALLER PUSH20 0xFFFFFFFFFFFFFFFFFFFFFFFFFFFFFFFFFFFFFFFF AND PUSH32 0x8C5BE1E5EBEC7D5BD14F71427D1E84F3DD0314C0F7B2291E5B200AC8C7C3B925 DUP5 PUSH1 0x40 MLOAD PUSH2 0xC6D SWAP2 SWAP1 PUSH2 0x19D9 JUMP JUMPDEST PUSH1 0x40 MLOAD DUP1 SWAP2 SUB SWAP1 LOG3 PUSH1 0x1 SWAP1 POP SWAP3 SWAP2 POP POP JUMP JUMPDEST PUSH1 0x3 SLOAD DUP2 JUMP JUMPDEST PUSH1 0x0 PUSH1 0xE SLOAD TIMESTAMP GT PUSH2 0xC95 JUMPI PUSH1 0x0 DUP1 REVERT JUMPDEST PUSH2 0xCA0 DUP5 DUP5 DUP5 PUSH2 0x1280 JUMP JUMPDEST POP PUSH1 0x1 SWAP1 POP SWAP4 SWAP3 POP POP POP JUMP JUMPDEST PUSH1 0x5 PUSH1 0x20 MSTORE DUP1 PUSH1 0x0 MSTORE PUSH1 0x40 PUSH1 0x0 KECCAK256 PUSH1 0x0 SWAP2 POP SWAP1 POP SLOAD DUP2 JUMP JUMPDEST PUSH1 0x2 SLOAD DUP2 JUMP JUMPDEST PUSH1 0x0 PUSH1 0x3 DUP1 DUP2 GT ISZERO PUSH2 0xCDF JUMPI PUSH2 0xCDE PUSH2 0x1C9D JUMP JUMPDEST JUMPDEST PUSH1 0x11 PUSH1 0x0 SWAP1 SLOAD SWAP1 PUSH2 0x100 EXP SWAP1 DIV PUSH1 0xFF AND PUSH1 0x3 DUP2 GT ISZERO PUSH2 0xD01 JUMPI PUSH2 0xD00 PUSH2 0x1C9D JUMP JUMPDEST JUMPDEST EQ ISZERO PUSH2 0xD10 JUMPI PUSH1 0x3 SWAP1 POP PUSH2 0xD4A JUMP JUMPDEST PUSH1 0xB SLOAD TIMESTAMP LT ISZERO PUSH2 0xD23 JUMPI PUSH1 0x0 SWAP1 POP PUSH2 0xD4A JUMP JUMPDEST PUSH1 0xB SLOAD TIMESTAMP LT ISZERO DUP1 ISZERO PUSH2 0xD37 JUMPI POP PUSH1 0xC SLOAD TIMESTAMP GT ISZERO JUMPDEST ISZERO PUSH2 0xD45 JUMPI PUSH1 0x1 SWAP1 POP PUSH2 0xD4A JUMP JUMPDEST PUSH1 0x2 SWAP1 POP JUMPDEST SWAP1 JUMP JUMPDEST PUSH1 0x7 PUSH1 0x0 SWAP1 SLOAD SWAP1 PUSH2 0x100 EXP SWAP1 DIV PUSH20 0xFFFFFFFFFFFFFFFFFFFFFFFFFFFFFFFFFFFFFFFF AND PUSH20 0xFFFFFFFFFFFFFFFFFFFFFFFFFFFFFFFFFFFFFFFF AND CALLER PUSH20 0xFFFFFFFFFFFFFFFFFFFFFFFFFFFFFFFFFFFFFFFF AND EQ PUSH2 0xDA7 JUMPI PUSH1 0x0 DUP1 REVERT JUMPDEST PUSH1 0xD PUSH1 0x0 SWAP1 SLOAD SWAP1 PUSH2 0x100 EXP SWAP1 DIV PUSH20 0xFFFFFFFFFFFFFFFFFFFFFFFFFFFFFFFFFFFFFFFF AND PUSH20 0xFFFFFFFFFFFFFFFFFFFFFFFFFFFFFFFFFFFFFFFF AND PUSH4 0xA9059CBB PUSH1 0x7 PUSH1 0x0 SWAP1 SLOAD SWAP1 PUSH2 0x100 EXP SWAP1 DIV PUSH20 0xFFFFFFFFFFFFFFFFFFFFFFFFFFFFFFFFFFFFFFFF AND PUSH1 0xD PUSH1 0x0 SWAP1 SLOAD SWAP1 PUSH2 0x100 EXP SWAP1 DIV PUSH20 0xFFFFFFFFFFFFFFFFFFFFFFFFFFFFFFFFFFFFFFFF AND PUSH20 0xFFFFFFFFFFFFFFFFFFFFFFFFFFFFFFFFFFFFFFFF AND PUSH4 0x70A08231 ADDRESS PUSH1 0x40 MLOAD DUP3 PUSH4 0xFFFFFFFF AND PUSH1 0xE0 SHL DUP2 MSTORE PUSH1 0x4 ADD PUSH2 0xE63 SWAP2 SWAP1 PUSH2 0x18B0 JUMP JUMPDEST PUSH1 0x20 PUSH1 0x40 MLOAD DUP1 DUP4 SUB DUP2 DUP7 DUP1 EXTCODESIZE ISZERO DUP1 ISZERO PUSH2 0xE7B JUMPI PUSH1 0x0 DUP1 REVERT JUMPDEST POP GAS STATICCALL ISZERO DUP1 ISZERO PUSH2 0xE8F JUMPI RETURNDATASIZE PUSH1 0x0 DUP1 RETURNDATACOPY RETURNDATASIZE PUSH1 0x0 REVERT JUMPDEST POP POP POP POP PUSH1 0x40 MLOAD RETURNDATASIZE PUSH1 0x1F NOT PUSH1 0x1F DUP3 ADD AND DUP3 ADD DUP1 PUSH1 0x40 MSTORE POP DUP2 ADD SWAP1 PUSH2 0xEB3 SWAP2 SWAP1 PUSH2 0x17CD JUMP JUMPDEST PUSH1 0x40 MLOAD DUP4 PUSH4 0xFFFFFFFF AND PUSH1 0xE0 SHL DUP2 MSTORE PUSH1 0x4 ADD PUSH2 0xED0 SWAP3 SWAP2 SWAP1 PUSH2 0x18E6 JUMP JUMPDEST PUSH1 0x20 PUSH1 0x40 MLOAD DUP1 DUP4 SUB DUP2 PUSH1 0x0 DUP8 DUP1 EXTCODESIZE ISZERO DUP1 ISZERO PUSH2 0xEEA JUMPI PUSH1 0x0 DUP1 REVERT JUMPDEST POP GAS CALL ISZERO DUP1 ISZERO PUSH2 0xEFE JUMPI RETURNDATASIZE PUSH1 0x0 DUP1 RETURNDATACOPY RETURNDATASIZE PUSH1 0x0 REVERT JUMPDEST POP POP POP POP PUSH1 0x40 MLOAD RETURNDATASIZE PUSH1 0x1F NOT PUSH1 0x1F DUP3 ADD AND DUP3 ADD DUP1 PUSH1 0x40 MSTORE POP DUP2 ADD SWAP1 PUSH2 0xF22 SWAP2 SWAP1 PUSH2 0x17A0 JUMP JUMPDEST PUSH2 0xF2B JUMPI PUSH1 0x0 DUP1 REVERT JUMPDEST PUSH1 0x7 PUSH1 0x0 SWAP1 SLOAD SWAP1 PUSH2 0x100 EXP SWAP1 DIV PUSH20 0xFFFFFFFFFFFFFFFFFFFFFFFFFFFFFFFFFFFFFFFF AND PUSH20 0xFFFFFFFFFFFFFFFFFFFFFFFFFFFFFFFFFFFFFFFF AND PUSH2 0x8FC SELFBALANCE SWAP1 DUP2 ISZERO MUL SWAP1 PUSH1 0x40 MLOAD PUSH1 0x0 PUSH1 0x40 MLOAD DUP1 DUP4 SUB DUP2 DUP6 DUP9 DUP9 CALL SWAP4 POP POP POP POP ISZERO DUP1 ISZERO PUSH2 0xF93 JUMPI RETURNDATASIZE PUSH1 0x0 DUP1 RETURNDATACOPY RETURNDATASIZE PUSH1 0x0 REVERT JUMPDEST POP JUMP JUMPDEST PUSH1 0x11 PUSH1 0x0 SWAP1 SLOAD SWAP1 PUSH2 0x100 EXP SWAP1 DIV PUSH1 0xFF AND DUP2 JUMP JUMPDEST PUSH1 0x4 PUSH1 0x0 SWAP1 SLOAD SWAP1 PUSH2 0x100 EXP SWAP1 DIV PUSH20 0xFFFFFFFFFFFFFFFFFFFFFFFFFFFFFFFFFFFFFFFF AND DUP2 JUMP JUMPDEST PUSH1 0xD PUSH1 0x0 SWAP1 SLOAD SWAP1 PUSH2 0x100 EXP SWAP1 DIV PUSH20 0xFFFFFFFFFFFFFFFFFFFFFFFFFFFFFFFFFFFFFFFF AND DUP2 JUMP JUMPDEST PUSH1 0x7 PUSH1 0x0 SWAP1 SLOAD SWAP1 PUSH2 0x100 EXP SWAP1 DIV PUSH20 0xFFFFFFFFFFFFFFFFFFFFFFFFFFFFFFFFFFFFFFFF AND PUSH20 0xFFFFFFFFFFFFFFFFFFFFFFFFFFFFFFFFFFFFFFFF AND CALLER PUSH20 0xFFFFFFFFFFFFFFFFFFFFFFFFFFFFFFFFFFFFFFFF AND EQ PUSH2 0x104F JUMPI PUSH1 0x0 DUP1 REVERT JUMPDEST DUP1 PUSH1 0x8 PUSH1 0x0 PUSH2 0x100 EXP DUP2 SLOAD DUP2 PUSH20 0xFFFFFFFFFFFFFFFFFFFFFFFFFFFFFFFFFFFFFFFF MUL NOT AND SWAP1 DUP4 PUSH20 0xFFFFFFFFFFFFFFFFFFFFFFFFFFFFFFFFFFFFFFFF AND MUL OR SWAP1 SSTORE POP POP JUMP JUMPDEST PUSH1 0x0 PUSH1 0x5 PUSH1 0x0 DUP4 PUSH20 0xFFFFFFFFFFFFFFFFFFFFFFFFFFFFFFFFFFFFFFFF AND PUSH20 0xFFFFFFFFFFFFFFFFFFFFFFFFFFFFFFFFFFFFFFFF AND DUP2 MSTORE PUSH1 0x20 ADD SWAP1 DUP2 MSTORE PUSH1 0x20 ADD PUSH1 0x0 KECCAK256 SLOAD SWAP1 POP SWAP2 SWAP1 POP JUMP JUMPDEST PUSH1 0x10 SLOAD DUP2 JUMP JUMPDEST PUSH1 0x1 DUP1 SLOAD PUSH2 0x10EF SWAP1 PUSH2 0x1C0D JUMP JUMPDEST DUP1 PUSH1 0x1F ADD PUSH1 0x20 DUP1 SWAP2 DIV MUL PUSH1 0x20 ADD PUSH1 0x40 MLOAD SWAP1 DUP2 ADD PUSH1 0x40 MSTORE DUP1 SWAP3 SWAP2 SWAP1 DUP2 DUP2 MSTORE PUSH1 0x20 ADD DUP3 DUP1 SLOAD PUSH2 0x111B SWAP1 PUSH2 0x1C0D JUMP JUMPDEST DUP1 ISZERO PUSH2 0x1168 JUMPI DUP1 PUSH1 0x1F LT PUSH2 0x113D JUMPI PUSH2 0x100 DUP1 DUP4 SLOAD DIV MUL DUP4 MSTORE SWAP2 PUSH1 0x20 ADD SWAP2 PUSH2 0x1168 JUMP JUMPDEST DUP3 ADD SWAP2 SWAP1 PUSH1 0x0 MSTORE PUSH1 0x20 PUSH1 0x0 KECCAK256 SWAP1 JUMPDEST DUP2 SLOAD DUP2 MSTORE SWAP1 PUSH1 0x1 ADD SWAP1 PUSH1 0x20 ADD DUP1 DUP4 GT PUSH2 0x114B JUMPI DUP3 SWAP1 SUB PUSH1 0x1F AND DUP3 ADD SWAP2 JUMPDEST POP POP POP POP POP DUP2 JUMP JUMPDEST PUSH1 0x0 PUSH1 0xE SLOAD TIMESTAMP GT PUSH2 0x1180 JUMPI PUSH1 0x0 DUP1 REVERT JUMPDEST PUSH2 0x118A DUP4 DUP4 PUSH2 0x14A1 JUMP JUMPDEST POP PUSH1 0x1 SWAP1 POP SWAP3 SWAP2 POP POP JUMP JUMPDEST PUSH1 0xB SLOAD DUP2 JUMP JUMPDEST PUSH1 0xC SLOAD DUP2 JUMP JUMPDEST PUSH1 0xA SLOAD DUP2 JUMP JUMPDEST PUSH1 0xE SLOAD DUP2 JUMP JUMPDEST PUSH1 0x8 PUSH1 0x0 SWAP1 SLOAD SWAP1 PUSH2 0x100 EXP SWAP1 DIV PUSH20 0xFFFFFFFFFFFFFFFFFFFFFFFFFFFFFFFFFFFFFFFF AND DUP2 JUMP JUMPDEST PUSH1 0x0 PUSH1 0x6 PUSH1 0x0 DUP5 PUSH20 0xFFFFFFFFFFFFFFFFFFFFFFFFFFFFFFFFFFFFFFFF AND PUSH20 0xFFFFFFFFFFFFFFFFFFFFFFFFFFFFFFFFFFFFFFFF AND DUP2 MSTORE PUSH1 0x20 ADD SWAP1 DUP2 MSTORE PUSH1 0x20 ADD PUSH1 0x0 KECCAK256 PUSH1 0x0 DUP4 PUSH20 0xFFFFFFFFFFFFFFFFFFFFFFFFFFFFFFFFFFFFFFFF AND PUSH20 0xFFFFFFFFFFFFFFFFFFFFFFFFFFFFFFFFFFFFFFFF AND DUP2 MSTORE PUSH1 0x20 ADD SWAP1 DUP2 MSTORE PUSH1 0x20 ADD PUSH1 0x0 KECCAK256 SLOAD SWAP1 POP SWAP3 SWAP2 POP POP JUMP JUMPDEST PUSH1 0x7 PUSH1 0x0 SWAP1 SLOAD SWAP1 PUSH2 0x100 EXP SWAP1 DIV PUSH20 0xFFFFFFFFFFFFFFFFFFFFFFFFFFFFFFFFFFFFFFFF AND DUP2 JUMP JUMPDEST PUSH1 0x0 DUP2 PUSH1 0x6 PUSH1 0x0 DUP7 PUSH20 0xFFFFFFFFFFFFFFFFFFFFFFFFFFFFFFFFFFFFFFFF AND PUSH20 0xFFFFFFFFFFFFFFFFFFFFFFFFFFFFFFFFFFFFFFFF AND DUP2 MSTORE PUSH1 0x20 ADD SWAP1 DUP2 MSTORE PUSH1 0x20 ADD PUSH1 0x0 KECCAK256 PUSH1 0x0 DUP6 PUSH20 0xFFFFFFFFFFFFFFFFFFFFFFFFFFFFFFFFFFFFFFFF AND PUSH20 0xFFFFFFFFFFFFFFFFFFFFFFFFFFFFFFFFFFFFFFFF AND DUP2 MSTORE PUSH1 0x20 ADD SWAP1 DUP2 MSTORE PUSH1 0x20 ADD PUSH1 0x0 KECCAK256 SLOAD LT ISZERO PUSH2 0x130B JUMPI PUSH1 0x0 DUP1 REVERT JUMPDEST DUP2 PUSH1 0x5 PUSH1 0x0 DUP7 PUSH20 0xFFFFFFFFFFFFFFFFFFFFFFFFFFFFFFFFFFFFFFFF AND PUSH20 0xFFFFFFFFFFFFFFFFFFFFFFFFFFFFFFFFFFFFFFFF AND DUP2 MSTORE PUSH1 0x20 ADD SWAP1 DUP2 MSTORE PUSH1 0x20 ADD PUSH1 0x0 KECCAK256 SLOAD LT ISZERO PUSH2 0x1357 JUMPI PUSH1 0x0 DUP1 REVERT JUMPDEST DUP2 PUSH1 0x5 PUSH1 0x0 DUP7 PUSH20 0xFFFFFFFFFFFFFFFFFFFFFFFFFFFFFFFFFFFFFFFF AND PUSH20 0xFFFFFFFFFFFFFFFFFFFFFFFFFFFFFFFFFFFFFFFF AND DUP2 MSTORE PUSH1 0x20 ADD SWAP1 DUP2 MSTORE PUSH1 0x20 ADD PUSH1 0x0 KECCAK256 PUSH1 0x0 DUP3 DUP3 SLOAD PUSH2 0x13A6 SWAP2 SWAP1 PUSH2 0x1AF1 JUMP JUMPDEST SWAP3 POP POP DUP2 SWAP1 SSTORE POP DUP2 PUSH1 0x5 PUSH1 0x0 DUP6 PUSH20 0xFFFFFFFFFFFFFFFFFFFFFFFFFFFFFFFFFFFFFFFF AND PUSH20 0xFFFFFFFFFFFFFFFFFFFFFFFFFFFFFFFFFFFFFFFF AND DUP2 MSTORE PUSH1 0x20 ADD SWAP1 DUP2 MSTORE PUSH1 0x20 ADD PUSH1 0x0 KECCAK256 PUSH1 0x0 DUP3 DUP3 SLOAD PUSH2 0x13FC SWAP2 SWAP1 PUSH2 0x1A10 JUMP JUMPDEST SWAP3 POP POP DUP2 SWAP1 SSTORE POP DUP2 PUSH1 0x6 PUSH1 0x0 DUP7 PUSH20 0xFFFFFFFFFFFFFFFFFFFFFFFFFFFFFFFFFFFFFFFF AND PUSH20 0xFFFFFFFFFFFFFFFFFFFFFFFFFFFFFFFFFFFFFFFF AND DUP2 MSTORE PUSH1 0x20 ADD SWAP1 DUP2 MSTORE PUSH1 0x20 ADD PUSH1 0x0 KECCAK256 PUSH1 0x0 DUP6 PUSH20 0xFFFFFFFFFFFFFFFFFFFFFFFFFFFFFFFFFFFFFFFF AND PUSH20 0xFFFFFFFFFFFFFFFFFFFFFFFFFFFFFFFFFFFFFFFF AND DUP2 MSTORE PUSH1 0x20 ADD SWAP1 DUP2 MSTORE PUSH1 0x20 ADD PUSH1 0x0 KECCAK256 PUSH1 0x0 DUP3 DUP3 SLOAD PUSH2 0x148F SWAP2 SWAP1 PUSH2 0x1AF1 JUMP JUMPDEST SWAP3 POP POP DUP2 SWAP1 SSTORE POP PUSH1 0x1 SWAP1 POP SWAP4 SWAP3 POP POP POP JUMP JUMPDEST PUSH1 0x0 DUP2 PUSH1 0x5 PUSH1 0x0 CALLER PUSH20 0xFFFFFFFFFFFFFFFFFFFFFFFFFFFFFFFFFFFFFFFF AND PUSH20 0xFFFFFFFFFFFFFFFFFFFFFFFFFFFFFFFFFFFFFFFF AND DUP2 MSTORE PUSH1 0x20 ADD SWAP1 DUP2 MSTORE PUSH1 0x20 ADD PUSH1 0x0 KECCAK256 SLOAD LT ISZERO PUSH2 0x14EF JUMPI PUSH1 0x0 DUP1 REVERT JUMPDEST DUP2 PUSH1 0x5 PUSH1 0x0 DUP6 PUSH20 0xFFFFFFFFFFFFFFFFFFFFFFFFFFFFFFFFFFFFFFFF AND PUSH20 0xFFFFFFFFFFFFFFFFFFFFFFFFFFFFFFFFFFFFFFFF AND DUP2 MSTORE PUSH1 0x20 ADD SWAP1 DUP2 MSTORE PUSH1 0x20 ADD PUSH1 0x0 KECCAK256 PUSH1 0x0 DUP3 DUP3 SLOAD PUSH2 0x153E SWAP2 SWAP1 PUSH2 0x1A10 JUMP JUMPDEST SWAP3 POP POP DUP2 SWAP1 SSTORE POP DUP2 PUSH1 0x5 PUSH1 0x0 CALLER PUSH20 0xFFFFFFFFFFFFFFFFFFFFFFFFFFFFFFFFFFFFFFFF AND PUSH20 0xFFFFFFFFFFFFFFFFFFFFFFFFFFFFFFFFFFFFFFFF AND DUP2 MSTORE PUSH1 0x20 ADD SWAP1 DUP2 MSTORE PUSH1 0x20 ADD PUSH1 0x0 KECCAK256 PUSH1 0x0 DUP3 DUP3 SLOAD PUSH2 0x1594 SWAP2 SWAP1 PUSH2 0x1AF1 JUMP JUMPDEST SWAP3 POP POP DUP2 SWAP1 SSTORE POP DUP3 PUSH20 0xFFFFFFFFFFFFFFFFFFFFFFFFFFFFFFFFFFFFFFFF AND CALLER PUSH20 0xFFFFFFFFFFFFFFFFFFFFFFFFFFFFFFFFFFFFFFFF AND PUSH32 0xDDF252AD1BE2C89B69C2B068FC378DAA952BA7F163C4A11628F55A4DF523B3EF DUP5 PUSH1 0x40 MLOAD PUSH2 0x15F8 SWAP2 SWAP1 PUSH2 0x19D9 JUMP JUMPDEST PUSH1 0x40 MLOAD DUP1 SWAP2 SUB SWAP1 LOG3 PUSH1 0x1 SWAP1 POP SWAP3 SWAP2 POP POP JUMP JUMPDEST PUSH1 0x0 DUP2 CALLDATALOAD SWAP1 POP PUSH2 0x1619 DUP2 PUSH2 0x1D4E JUMP JUMPDEST SWAP3 SWAP2 POP POP JUMP JUMPDEST PUSH1 0x0 DUP2 CALLDATALOAD SWAP1 POP PUSH2 0x162E DUP2 PUSH2 0x1D65 JUMP JUMPDEST SWAP3 SWAP2 POP POP JUMP JUMPDEST PUSH1 0x0 DUP2 MLOAD SWAP1 POP PUSH2 0x1643 DUP2 PUSH2 0x1D7C JUMP JUMPDEST SWAP3 SWAP2 POP POP JUMP JUMPDEST PUSH1 0x0 DUP2 CALLDATALOAD SWAP1 POP PUSH2 0x1658 DUP2 PUSH2 0x1D93 JUMP JUMPDEST SWAP3 SWAP2 POP POP JUMP JUMPDEST PUSH1 0x0 DUP2 MLOAD SWAP1 POP PUSH2 0x166D DUP2 PUSH2 0x1D93 JUMP JUMPDEST SWAP3 SWAP2 POP POP JUMP JUMPDEST PUSH1 0x0 PUSH1 0x20 DUP3 DUP5 SUB SLT ISZERO PUSH2 0x1689 JUMPI PUSH2 0x1688 PUSH2 0x1CFB JUMP JUMPDEST JUMPDEST PUSH1 0x0 PUSH2 0x1697 DUP5 DUP3 DUP6 ADD PUSH2 0x160A JUMP JUMPDEST SWAP2 POP POP SWAP3 SWAP2 POP POP JUMP JUMPDEST PUSH1 0x0 PUSH1 0x20 DUP3 DUP5 SUB SLT ISZERO PUSH2 0x16B6 JUMPI PUSH2 0x16B5 PUSH2 0x1CFB JUMP JUMPDEST JUMPDEST PUSH1 0x0 PUSH2 0x16C4 DUP5 DUP3 DUP6 ADD PUSH2 0x161F JUMP JUMPDEST SWAP2 POP POP SWAP3 SWAP2 POP POP JUMP JUMPDEST PUSH1 0x0 DUP1 PUSH1 0x40 DUP4 DUP6 SUB SLT ISZERO PUSH2 0x16E4 JUMPI PUSH2 0x16E3 PUSH2 0x1CFB JUMP JUMPDEST JUMPDEST PUSH1 0x0 PUSH2 0x16F2 DUP6 DUP3 DUP7 ADD PUSH2 0x160A JUMP JUMPDEST SWAP3 POP POP PUSH1 0x20 PUSH2 0x1703 DUP6 DUP3 DUP7 ADD PUSH2 0x160A JUMP JUMPDEST SWAP2 POP POP SWAP3 POP SWAP3 SWAP1 POP JUMP JUMPDEST PUSH1 0x0 DUP1 PUSH1 0x0 PUSH1 0x60 DUP5 DUP7 SUB SLT ISZERO PUSH2 0x1726 JUMPI PUSH2 0x1725 PUSH2 0x1CFB JUMP JUMPDEST JUMPDEST PUSH1 0x0 PUSH2 0x1734 DUP7 DUP3 DUP8 ADD PUSH2 0x160A JUMP JUMPDEST SWAP4 POP POP PUSH1 0x20 PUSH2 0x1745 DUP7 DUP3 DUP8 ADD PUSH2 0x160A JUMP JUMPDEST SWAP3 POP POP PUSH1 0x40 PUSH2 0x1756 DUP7 DUP3 DUP8 ADD PUSH2 0x1649 JUMP JUMPDEST SWAP2 POP POP SWAP3 POP SWAP3 POP SWAP3 JUMP JUMPDEST PUSH1 0x0 DUP1 PUSH1 0x40 DUP4 DUP6 SUB SLT ISZERO PUSH2 0x1777 JUMPI PUSH2 0x1776 PUSH2 0x1CFB JUMP JUMPDEST JUMPDEST PUSH1 0x0 PUSH2 0x1785 DUP6 DUP3 DUP7 ADD PUSH2 0x160A JUMP JUMPDEST SWAP3 POP POP PUSH1 0x20 PUSH2 0x1796 DUP6 DUP3 DUP7 ADD PUSH2 0x1649 JUMP JUMPDEST SWAP2 POP POP SWAP3 POP SWAP3 SWAP1 POP JUMP JUMPDEST PUSH1 0x0 PUSH1 0x20 DUP3 DUP5 SUB SLT ISZERO PUSH2 0x17B6 JUMPI PUSH2 0x17B5 PUSH2 0x1CFB JUMP JUMPDEST JUMPDEST PUSH1 0x0 PUSH2 0x17C4 DUP5 DUP3 DUP6 ADD PUSH2 0x1634 JUMP JUMPDEST SWAP2 POP POP SWAP3 SWAP2 POP POP JUMP JUMPDEST PUSH1 0x0 PUSH1 0x20 DUP3 DUP5 SUB SLT ISZERO PUSH2 0x17E3 JUMPI PUSH2 0x17E2 PUSH2 0x1CFB JUMP JUMPDEST JUMPDEST PUSH1 0x0 PUSH2 0x17F1 DUP5 DUP3 DUP6 ADD PUSH2 0x165E JUMP JUMPDEST SWAP2 POP POP SWAP3 SWAP2 POP POP JUMP JUMPDEST PUSH2 0x1803 DUP2 PUSH2 0x1B37 JUMP JUMPDEST DUP3 MSTORE POP POP JUMP JUMPDEST PUSH2 0x1812 DUP2 PUSH2 0x1B25 JUMP JUMPDEST DUP3 MSTORE POP POP JUMP JUMPDEST PUSH2 0x1821 DUP2 PUSH2 0x1B49 JUMP JUMPDEST DUP3 MSTORE POP POP JUMP JUMPDEST PUSH2 0x1830 DUP2 PUSH2 0x1B92 JUMP JUMPDEST DUP3 MSTORE POP POP JUMP JUMPDEST PUSH2 0x183F DUP2 PUSH2 0x1BA4 JUMP JUMPDEST DUP3 MSTORE POP POP JUMP JUMPDEST PUSH1 0x0 PUSH2 0x1850 DUP3 PUSH2 0x19F4 JUMP JUMPDEST PUSH2 0x185A DUP2 DUP6 PUSH2 0x19FF JUMP JUMPDEST SWAP4 POP PUSH2 0x186A DUP2 DUP6 PUSH1 0x20 DUP7 ADD PUSH2 0x1BDA JUMP JUMPDEST PUSH2 0x1873 DUP2 PUSH2 0x1D00 JUMP JUMPDEST DUP5 ADD SWAP2 POP POP SWAP3 SWAP2 POP POP JUMP JUMPDEST PUSH1 0x0 PUSH2 0x188B PUSH1 0x1E DUP4 PUSH2 0x19FF JUMP JUMPDEST SWAP2 POP PUSH2 0x1896 DUP3 PUSH2 0x1D11 JUMP JUMPDEST PUSH1 0x20 DUP3 ADD SWAP1 POP SWAP2 SWAP1 POP JUMP JUMPDEST PUSH2 0x18AA DUP2 PUSH2 0x1B88 JUMP JUMPDEST DUP3 MSTORE POP POP JUMP JUMPDEST PUSH1 0x0 PUSH1 0x20 DUP3 ADD SWAP1 POP PUSH2 0x18C5 PUSH1 0x0 DUP4 ADD DUP5 PUSH2 0x1809 JUMP JUMPDEST SWAP3 SWAP2 POP POP JUMP JUMPDEST PUSH1 0x0 PUSH1 0x20 DUP3 ADD SWAP1 POP PUSH2 0x18E0 PUSH1 0x0 DUP4 ADD DUP5 PUSH2 0x17FA JUMP JUMPDEST SWAP3 SWAP2 POP POP JUMP JUMPDEST PUSH1 0x0 PUSH1 0x40 DUP3 ADD SWAP1 POP PUSH2 0x18FB PUSH1 0x0 DUP4 ADD DUP6 PUSH2 0x1809 JUMP JUMPDEST PUSH2 0x1908 PUSH1 0x20 DUP4 ADD DUP5 PUSH2 0x18A1 JUMP JUMPDEST SWAP4 SWAP3 POP POP POP JUMP JUMPDEST PUSH1 0x0 PUSH1 0x60 DUP3 ADD SWAP1 POP PUSH2 0x1924 PUSH1 0x0 DUP4 ADD DUP7 PUSH2 0x1809 JUMP JUMPDEST PUSH2 0x1931 PUSH1 0x20 DUP4 ADD DUP6 PUSH2 0x18A1 JUMP JUMPDEST PUSH2 0x193E PUSH1 0x40 DUP4 ADD DUP5 PUSH2 0x18A1 JUMP JUMPDEST SWAP5 SWAP4 POP POP POP POP JUMP JUMPDEST PUSH1 0x0 PUSH1 0x20 DUP3 ADD SWAP1 POP PUSH2 0x195B PUSH1 0x0 DUP4 ADD DUP5 PUSH2 0x1818 JUMP JUMPDEST SWAP3 SWAP2 POP POP JUMP JUMPDEST PUSH1 0x0 PUSH1 0x20 DUP3 ADD SWAP1 POP PUSH2 0x1976 PUSH1 0x0 DUP4 ADD DUP5 PUSH2 0x1827 JUMP JUMPDEST SWAP3 SWAP2 POP POP JUMP JUMPDEST PUSH1 0x0 PUSH1 0x20 DUP3 ADD SWAP1 POP PUSH2 0x1991 PUSH1 0x0 DUP4 ADD DUP5 PUSH2 0x1836 JUMP JUMPDEST SWAP3 SWAP2 POP POP JUMP JUMPDEST PUSH1 0x0 PUSH1 0x20 DUP3 ADD SWAP1 POP DUP2 DUP2 SUB PUSH1 0x0 DUP4 ADD MSTORE PUSH2 0x19B1 DUP2 DUP5 PUSH2 0x1845 JUMP JUMPDEST SWAP1 POP SWAP3 SWAP2 POP POP JUMP JUMPDEST PUSH1 0x0 PUSH1 0x20 DUP3 ADD SWAP1 POP DUP2 DUP2 SUB PUSH1 0x0 DUP4 ADD MSTORE PUSH2 0x19D2 DUP2 PUSH2 0x187E JUMP JUMPDEST SWAP1 POP SWAP2 SWAP1 POP JUMP JUMPDEST PUSH1 0x0 PUSH1 0x20 DUP3 ADD SWAP1 POP PUSH2 0x19EE PUSH1 0x0 DUP4 ADD DUP5 PUSH2 0x18A1 JUMP JUMPDEST SWAP3 SWAP2 POP POP JUMP JUMPDEST PUSH1 0x0 DUP2 MLOAD SWAP1 POP SWAP2 SWAP1 POP JUMP JUMPDEST PUSH1 0x0 DUP3 DUP3 MSTORE PUSH1 0x20 DUP3 ADD SWAP1 POP SWAP3 SWAP2 POP POP JUMP JUMPDEST PUSH1 0x0 PUSH2 0x1A1B DUP3 PUSH2 0x1B88 JUMP JUMPDEST SWAP2 POP PUSH2 0x1A26 DUP4 PUSH2 0x1B88 JUMP JUMPDEST SWAP3 POP DUP3 PUSH32 0xFFFFFFFFFFFFFFFFFFFFFFFFFFFFFFFFFFFFFFFFFFFFFFFFFFFFFFFFFFFFFFFF SUB DUP3 GT ISZERO PUSH2 0x1A5B JUMPI PUSH2 0x1A5A PUSH2 0x1C3F JUMP JUMPDEST JUMPDEST DUP3 DUP3 ADD SWAP1 POP SWAP3 SWAP2 POP POP JUMP JUMPDEST PUSH1 0x0 PUSH2 0x1A71 DUP3 PUSH2 0x1B88 JUMP JUMPDEST SWAP2 POP PUSH2 0x1A7C DUP4 PUSH2 0x1B88 JUMP JUMPDEST SWAP3 POP DUP3 PUSH2 0x1A8C JUMPI PUSH2 0x1A8B PUSH2 0x1C6E JUMP JUMPDEST JUMPDEST DUP3 DUP3 DIV SWAP1 POP SWAP3 SWAP2 POP POP JUMP JUMPDEST PUSH1 0x0 PUSH2 0x1AA2 DUP3 PUSH2 0x1B88 JUMP JUMPDEST SWAP2 POP PUSH2 0x1AAD DUP4 PUSH2 0x1B88 JUMP JUMPDEST SWAP3 POP DUP2 PUSH32 0xFFFFFFFFFFFFFFFFFFFFFFFFFFFFFFFFFFFFFFFFFFFFFFFFFFFFFFFFFFFFFFFF DIV DUP4 GT DUP3 ISZERO ISZERO AND ISZERO PUSH2 0x1AE6 JUMPI PUSH2 0x1AE5 PUSH2 0x1C3F JUMP JUMPDEST JUMPDEST DUP3 DUP3 MUL SWAP1 POP SWAP3 SWAP2 POP POP JUMP JUMPDEST PUSH1 0x0 PUSH2 0x1AFC DUP3 PUSH2 0x1B88 JUMP JUMPDEST SWAP2 POP PUSH2 0x1B07 DUP4 PUSH2 0x1B88 JUMP JUMPDEST SWAP3 POP DUP3 DUP3 LT ISZERO PUSH2 0x1B1A JUMPI PUSH2 0x1B19 PUSH2 0x1C3F JUMP JUMPDEST JUMPDEST DUP3 DUP3 SUB SWAP1 POP SWAP3 SWAP2 POP POP JUMP JUMPDEST PUSH1 0x0 PUSH2 0x1B30 DUP3 PUSH2 0x1B68 JUMP JUMPDEST SWAP1 POP SWAP2 SWAP1 POP JUMP JUMPDEST PUSH1 0x0 PUSH2 0x1B42 DUP3 PUSH2 0x1B68 JUMP JUMPDEST SWAP1 POP SWAP2 SWAP1 POP JUMP JUMPDEST PUSH1 0x0 DUP2 ISZERO ISZERO SWAP1 POP SWAP2 SWAP1 POP JUMP JUMPDEST PUSH1 0x0 DUP2 SWAP1 POP PUSH2 0x1B63 DUP3 PUSH2 0x1D3A JUMP JUMPDEST SWAP2 SWAP1 POP JUMP JUMPDEST PUSH1 0x0 PUSH20 0xFFFFFFFFFFFFFFFFFFFFFFFFFFFFFFFFFFFFFFFF DUP3 AND SWAP1 POP SWAP2 SWAP1 POP JUMP JUMPDEST PUSH1 0x0 DUP2 SWAP1 POP SWAP2 SWAP1 POP JUMP JUMPDEST PUSH1 0x0 PUSH2 0x1B9D DUP3 PUSH2 0x1BB6 JUMP JUMPDEST SWAP1 POP SWAP2 SWAP1 POP JUMP JUMPDEST PUSH1 0x0 PUSH2 0x1BAF DUP3 PUSH2 0x1B55 JUMP JUMPDEST SWAP1 POP SWAP2 SWAP1 POP JUMP JUMPDEST PUSH1 0x0 PUSH2 0x1BC1 DUP3 PUSH2 0x1BC8 JUMP JUMPDEST SWAP1 POP SWAP2 SWAP1 POP JUMP JUMPDEST PUSH1 0x0 PUSH2 0x1BD3 DUP3 PUSH2 0x1B68 JUMP JUMPDEST SWAP1 POP SWAP2 SWAP1 POP JUMP JUMPDEST PUSH1 0x0 JUMPDEST DUP4 DUP2 LT ISZERO PUSH2 0x1BF8 JUMPI DUP1 DUP3 ADD MLOAD DUP2 DUP5 ADD MSTORE PUSH1 0x20 DUP2 ADD SWAP1 POP PUSH2 0x1BDD JUMP JUMPDEST DUP4 DUP2 GT ISZERO PUSH2 0x1C07 JUMPI PUSH1 0x0 DUP5 DUP5 ADD MSTORE JUMPDEST POP POP POP POP JUMP JUMPDEST PUSH1 0x0 PUSH1 0x2 DUP3 DIV SWAP1 POP PUSH1 0x1 DUP3 AND DUP1 PUSH2 0x1C25 JUMPI PUSH1 0x7F DUP3 AND SWAP2 POP JUMPDEST PUSH1 0x20 DUP3 LT DUP2 EQ ISZERO PUSH2 0x1C39 JUMPI PUSH2 0x1C38 PUSH2 0x1CCC JUMP JUMPDEST JUMPDEST POP SWAP2 SWAP1 POP JUMP JUMPDEST PUSH32 0x4E487B7100000000000000000000000000000000000000000000000000000000 PUSH1 0x0 MSTORE PUSH1 0x11 PUSH1 0x4 MSTORE PUSH1 0x24 PUSH1 0x0 REVERT JUMPDEST PUSH32 0x4E487B7100000000000000000000000000000000000000000000000000000000 PUSH1 0x0 MSTORE PUSH1 0x12 PUSH1 0x4 MSTORE PUSH1 0x24 PUSH1 0x0 REVERT JUMPDEST PUSH32 0x4E487B7100000000000000000000000000000000000000000000000000000000 PUSH1 0x0 MSTORE PUSH1 0x21 PUSH1 0x4 MSTORE PUSH1 0x24 PUSH1 0x0 REVERT JUMPDEST PUSH32 0x4E487B7100000000000000000000000000000000000000000000000000000000 PUSH1 0x0 MSTORE PUSH1 0x22 PUSH1 0x4 MSTORE PUSH1 0x24 PUSH1 0x0 REVERT JUMPDEST PUSH1 0x0 DUP1 REVERT JUMPDEST PUSH1 0x0 PUSH1 0x1F NOT PUSH1 0x1F DUP4 ADD AND SWAP1 POP SWAP2 SWAP1 POP JUMP JUMPDEST PUSH32 0x4E6F206D6F726520746F6B656E20696E2074686520636F6E7472616374210000 PUSH1 0x0 DUP3 ADD MSTORE POP JUMP JUMPDEST PUSH1 0x4 DUP2 LT PUSH2 0x1D4B JUMPI PUSH2 0x1D4A PUSH2 0x1C9D JUMP JUMPDEST JUMPDEST POP JUMP JUMPDEST PUSH2 0x1D57 DUP2 PUSH2 0x1B25 JUMP JUMPDEST DUP2 EQ PUSH2 0x1D62 JUMPI PUSH1 0x0 DUP1 REVERT JUMPDEST POP JUMP JUMPDEST PUSH2 0x1D6E DUP2 PUSH2 0x1B37 JUMP JUMPDEST DUP2 EQ PUSH2 0x1D79 JUMPI PUSH1 0x0 DUP1 REVERT JUMPDEST POP JUMP JUMPDEST PUSH2 0x1D85 DUP2 PUSH2 0x1B49 JUMP JUMPDEST DUP2 EQ PUSH2 0x1D90 JUMPI PUSH1 0x0 DUP1 REVERT JUMPDEST POP JUMP JUMPDEST PUSH2 0x1D9C DUP2 PUSH2 0x1B88 JUMP JUMPDEST DUP2 EQ PUSH2 0x1DA7 JUMPI PUSH1 0x0 DUP1 REVERT JUMPDEST POP JUMP INVALID LOG2 PUSH5 0x6970667358 0x22 SLT KECCAK256 SIGNEXTEND PUSH26 0x4ACB318F5585E278642C2E31934410C5F95DDF41F3E1E3A68FC2 0x5C 0x21 PUSH1 0x36 PUSH5 0x736F6C6343 STOP ADDMOD SMOD STOP CALLER "
				},
				"gasEstimates": {
					"creation": {
						"codeDepositCost": "1529600",
						"executionCost": "infinite",
						"totalCost": "infinite"
					},
					"external": {
						"admin()": "2624",
						"allowance(address,address)": "infinite",
						"approve(address,uint256)": "infinite",
						"balanceOf(address)": "2886",
						"balances(address)": "2860",
						"changeDepositAddress(address)": "26915",
						"decimals()": "2497",
						"deposit()": "2558",
						"endSale()": "infinite",
						"founder()": "2603",
						"getCurrentState()": "9133",
						"icoState()": "2627",
						"invest()": "infinite",
						"maxInvestment()": "2453",
						"minInvestment()": "2496",
						"name()": "infinite",
						"raisedAmount()": "2496",
						"resume()": "26647",
						"saleEnd()": "2474",
						"saleStart()": "2562",
						"symbol()": "infinite",
						"tokenContract()": "2711",
						"tokenTradeStart()": "2518",
						"totalSupply()": "2541",
						"transfer(address,uint256)": "infinite",
						"transferFrom(address,address,uint256)": "infinite"
					}
				},
				"methodIdentifiers": {
					"admin()": "f851a440",
					"allowance(address,address)": "dd62ed3e",
					"approve(address,uint256)": "095ea7b3",
					"balanceOf(address)": "70a08231",
					"balances(address)": "27e235e3",
					"changeDepositAddress(address)": "6d58c88f",
					"decimals()": "313ce567",
					"deposit()": "d0e30db0",
					"endSale()": "380d831b",
					"founder()": "4d853ee5",
					"getCurrentState()": "378aa701",
					"icoState()": "44f38756",
					"invest()": "e8b5e51f",
					"maxInvestment()": "002e1316",
					"minInvestment()": "8ac2c680",
					"name()": "06fdde03",
					"raisedAmount()": "c59ee1dc",
					"resume()": "046f7da2",
					"saleEnd()": "c10b9358",
					"saleStart()": "ab0bcc41",
					"symbol()": "95d89b41",
					"tokenContract()": "55a373d6",
					"tokenTradeStart()": "cc9ba583",
					"totalSupply()": "18160ddd",
					"transfer(address,uint256)": "a9059cbb",
					"transferFrom(address,address,uint256)": "23b872dd"
				}
			},
			"storageLayout": {
				"storage": [
					{
						"astId": 73,
						"contract": "contracts/nct v4.sol:CryptosICO",
						"label": "name",
						"offset": 0,
						"slot": "0",
						"type": "t_string_storage"
					},
					{
						"astId": 76,
						"contract": "contracts/nct v4.sol:CryptosICO",
						"label": "symbol",
						"offset": 0,
						"slot": "1",
						"type": "t_string_storage"
					},
					{
						"astId": 79,
						"contract": "contracts/nct v4.sol:CryptosICO",
						"label": "decimals",
						"offset": 0,
						"slot": "2",
						"type": "t_uint256"
					},
					{
						"astId": 82,
						"contract": "contracts/nct v4.sol:CryptosICO",
						"label": "totalSupply",
						"offset": 0,
						"slot": "3",
						"type": "t_uint256"
					},
					{
						"astId": 84,
						"contract": "contracts/nct v4.sol:CryptosICO",
						"label": "founder",
						"offset": 0,
						"slot": "4",
						"type": "t_address"
					},
					{
						"astId": 88,
						"contract": "contracts/nct v4.sol:CryptosICO",
						"label": "balances",
						"offset": 0,
						"slot": "5",
						"type": "t_mapping(t_address,t_uint256)"
					},
					{
						"astId": 94,
						"contract": "contracts/nct v4.sol:CryptosICO",
						"label": "allowed",
						"offset": 0,
						"slot": "6",
						"type": "t_mapping(t_address,t_mapping(t_address,t_uint256))"
					},
					{
						"astId": 291,
						"contract": "contracts/nct v4.sol:CryptosICO",
						"label": "admin",
						"offset": 0,
						"slot": "7",
						"type": "t_address"
					},
					{
						"astId": 293,
						"contract": "contracts/nct v4.sol:CryptosICO",
						"label": "deposit",
						"offset": 0,
						"slot": "8",
						"type": "t_address_payable"
					},
					{
						"astId": 296,
						"contract": "contracts/nct v4.sol:CryptosICO",
						"label": "tokenPrice",
						"offset": 0,
						"slot": "9",
						"type": "t_uint256"
					},
					{
						"astId": 298,
						"contract": "contracts/nct v4.sol:CryptosICO",
						"label": "raisedAmount",
						"offset": 0,
						"slot": "10",
						"type": "t_uint256"
					},
					{
						"astId": 302,
						"contract": "contracts/nct v4.sol:CryptosICO",
						"label": "saleStart",
						"offset": 0,
						"slot": "11",
						"type": "t_uint256"
					},
					{
						"astId": 308,
						"contract": "contracts/nct v4.sol:CryptosICO",
						"label": "saleEnd",
						"offset": 0,
						"slot": "12",
						"type": "t_uint256"
					},
					{
						"astId": 311,
						"contract": "contracts/nct v4.sol:CryptosICO",
						"label": "tokenContract",
						"offset": 0,
						"slot": "13",
						"type": "t_contract(ERC20Interface)68"
					},
					{
						"astId": 316,
						"contract": "contracts/nct v4.sol:CryptosICO",
						"label": "tokenTradeStart",
						"offset": 0,
						"slot": "14",
						"type": "t_uint256"
					},
					{
						"astId": 319,
						"contract": "contracts/nct v4.sol:CryptosICO",
						"label": "maxInvestment",
						"offset": 0,
						"slot": "15",
						"type": "t_uint256"
					},
					{
						"astId": 322,
						"contract": "contracts/nct v4.sol:CryptosICO",
						"label": "minInvestment",
						"offset": 0,
						"slot": "16",
						"type": "t_uint256"
					},
					{
						"astId": 330,
						"contract": "contracts/nct v4.sol:CryptosICO",
						"label": "icoState",
						"offset": 0,
						"slot": "17",
						"type": "t_enum(State)327"
					}
				],
				"types": {
					"t_address": {
						"encoding": "inplace",
						"label": "address",
						"numberOfBytes": "20"
					},
					"t_address_payable": {
						"encoding": "inplace",
						"label": "address payable",
						"numberOfBytes": "20"
					},
					"t_contract(ERC20Interface)68": {
						"encoding": "inplace",
						"label": "contract ERC20Interface",
						"numberOfBytes": "20"
					},
					"t_enum(State)327": {
						"encoding": "inplace",
						"label": "enum CryptosICO.State",
						"numberOfBytes": "1"
					},
					"t_mapping(t_address,t_mapping(t_address,t_uint256))": {
						"encoding": "mapping",
						"key": "t_address",
						"label": "mapping(address => mapping(address => uint256))",
						"numberOfBytes": "32",
						"value": "t_mapping(t_address,t_uint256)"
					},
					"t_mapping(t_address,t_uint256)": {
						"encoding": "mapping",
						"key": "t_address",
						"label": "mapping(address => uint256)",
						"numberOfBytes": "32",
						"value": "t_uint256"
					},
					"t_string_storage": {
						"encoding": "bytes",
						"label": "string",
						"numberOfBytes": "32"
					},
					"t_uint256": {
						"encoding": "inplace",
						"label": "uint256",
						"numberOfBytes": "32"
					}
				}
			},
			"userdoc": {
				"kind": "user",
				"methods": {},
				"version": 1
			}
		}
	}
}