{
	"contracts/nct v4.sol": {
		"CryptosICO": {
			"abi": [
				{
					"inputs": [
						{
							"internalType": "address payable",
							"name": "_deposit",
							"type": "address"
						},
						{
							"internalType": "address",
							"name": "tokenAddress",
							"type": "address"
						}
					],
					"stateMutability": "nonpayable",
					"type": "constructor"
				},
				{
					"anonymous": false,
					"inputs": [
						{
							"indexed": true,
							"internalType": "address",
							"name": "tokenOwner",
							"type": "address"
						},
						{
							"indexed": true,
							"internalType": "address",
							"name": "spender",
							"type": "address"
						},
						{
							"indexed": false,
							"internalType": "uint256",
							"name": "tokens",
							"type": "uint256"
						}
					],
					"name": "Approval",
					"type": "event"
				},
				{
					"anonymous": false,
					"inputs": [
						{
							"indexed": false,
							"internalType": "address",
							"name": "investor",
							"type": "address"
						},
						{
							"indexed": false,
							"internalType": "uint256",
							"name": "value",
							"type": "uint256"
						},
						{
							"indexed": false,
							"internalType": "uint256",
							"name": "tokens",
							"type": "uint256"
						}
					],
					"name": "Invest",
					"type": "event"
				},
				{
					"anonymous": false,
					"inputs": [
						{
							"indexed": true,
							"internalType": "address",
							"name": "from",
							"type": "address"
						},
						{
							"indexed": true,
							"internalType": "address",
							"name": "to",
							"type": "address"
						},
						{
							"indexed": false,
							"internalType": "uint256",
							"name": "tokens",
							"type": "uint256"
						}
					],
					"name": "Transfer",
					"type": "event"
				},
				{
					"inputs": [],
					"name": "admin",
					"outputs": [
						{
							"internalType": "address",
							"name": "",
							"type": "address"
						}
					],
					"stateMutability": "view",
					"type": "function"
				},
				{
					"inputs": [
						{
							"internalType": "address",
							"name": "tokenOwner",
							"type": "address"
						},
						{
							"internalType": "address",
							"name": "spender",
							"type": "address"
						}
					],
					"name": "allowance",
					"outputs": [
						{
							"internalType": "uint256",
							"name": "",
							"type": "uint256"
						}
					],
					"stateMutability": "view",
					"type": "function"
				},
				{
					"inputs": [
						{
							"internalType": "address",
							"name": "spender",
							"type": "address"
						},
						{
							"internalType": "uint256",
							"name": "tokens",
							"type": "uint256"
						}
					],
					"name": "approve",
					"outputs": [
						{
							"internalType": "bool",
							"name": "success",
							"type": "bool"
						}
					],
					"stateMutability": "nonpayable",
					"type": "function"
				},
				{
					"inputs": [
						{
							"internalType": "address",
							"name": "tokenOwner",
							"type": "address"
						}
					],
					"name": "balanceOf",
					"outputs": [
						{
							"internalType": "uint256",
							"name": "balance",
							"type": "uint256"
						}
					],
					"stateMutability": "view",
					"type": "function"
				},
				{
					"inputs": [
						{
							"internalType": "address",
							"name": "",
							"type": "address"
						}
					],
					"name": "balances",
					"outputs": [
						{
							"internalType": "uint256",
							"name": "",
							"type": "uint256"
						}
					],
					"stateMutability": "view",
					"type": "function"
				},
				{
					"inputs": [
						{
							"internalType": "address payable",
							"name": "newDeposit",
							"type": "address"
						}
					],
					"name": "changeDepositAddress",
					"outputs": [],
					"stateMutability": "nonpayable",
					"type": "function"
				},
				{
					"inputs": [],
					"name": "decimals",
					"outputs": [
						{
							"internalType": "uint256",
							"name": "",
							"type": "uint256"
						}
					],
					"stateMutability": "view",
					"type": "function"
				},
				{
					"inputs": [],
					"name": "deposit",
					"outputs": [
						{
							"internalType": "address payable",
							"name": "",
							"type": "address"
						}
					],
					"stateMutability": "view",
					"type": "function"
				},
				{
					"inputs": [],
					"name": "endSale",
					"outputs": [],
					"stateMutability": "nonpayable",
					"type": "function"
				},
				{
					"inputs": [],
					"name": "founder",
					"outputs": [
						{
							"internalType": "address",
							"name": "",
							"type": "address"
						}
					],
					"stateMutability": "view",
					"type": "function"
				},
				{
					"inputs": [],
					"name": "getCurrentState",
					"outputs": [
						{
							"internalType": "enum CryptosICO.State",
							"name": "",
							"type": "uint8"
						}
					],
					"stateMutability": "view",
					"type": "function"
				},
				{
					"inputs": [
						{
							"internalType": "uint256",
							"name": "token",
							"type": "uint256"
						}
					],
					"name": "getPrice",
					"outputs": [
						{
							"internalType": "uint256",
							"name": "",
							"type": "uint256"
						}
					],
					"stateMutability": "view",
					"type": "function"
				},
				{
					"inputs": [],
					"name": "icoState",
					"outputs": [
						{
							"internalType": "enum CryptosICO.State",
							"name": "",
							"type": "uint8"
						}
					],
					"stateMutability": "view",
					"type": "function"
				},
				{
					"inputs": [
						{
							"internalType": "uint256",
							"name": "token",
							"type": "uint256"
						}
					],
					"name": "invest",
					"outputs": [
						{
							"internalType": "bool",
							"name": "",
							"type": "bool"
						}
					],
					"stateMutability": "payable",
					"type": "function"
				},
				{
					"inputs": [],
					"name": "maxInvestment",
					"outputs": [
						{
							"internalType": "uint256",
							"name": "",
							"type": "uint256"
						}
					],
					"stateMutability": "view",
					"type": "function"
				},
				{
					"inputs": [],
					"name": "minInvestment",
					"outputs": [
						{
							"internalType": "uint256",
							"name": "",
							"type": "uint256"
						}
					],
					"stateMutability": "view",
					"type": "function"
				},
				{
					"inputs": [],
					"name": "name",
					"outputs": [
						{
							"internalType": "string",
							"name": "",
							"type": "string"
						}
					],
					"stateMutability": "view",
					"type": "function"
				},
				{
					"inputs": [],
					"name": "prie",
					"outputs": [
						{
							"internalType": "uint256",
							"name": "",
							"type": "uint256"
						}
					],
					"stateMutability": "view",
					"type": "function"
				},
				{
					"inputs": [],
					"name": "raisedAmount",
					"outputs": [
						{
							"internalType": "uint256",
							"name": "",
							"type": "uint256"
						}
					],
					"stateMutability": "view",
					"type": "function"
				},
				{
					"inputs": [],
					"name": "resume",
					"outputs": [],
					"stateMutability": "nonpayable",
					"type": "function"
				},
				{
					"inputs": [],
					"name": "saleEnd",
					"outputs": [
						{
							"internalType": "uint256",
							"name": "",
							"type": "uint256"
						}
					],
					"stateMutability": "view",
					"type": "function"
				},
				{
					"inputs": [],
					"name": "saleStart",
					"outputs": [
						{
							"internalType": "uint256",
							"name": "",
							"type": "uint256"
						}
					],
					"stateMutability": "view",
					"type": "function"
				},
				{
					"inputs": [
						{
							"internalType": "uint256",
							"name": "_tokenPrice",
							"type": "uint256"
						}
					],
					"name": "setPrice",
					"outputs": [],
					"stateMutability": "nonpayable",
					"type": "function"
				},
				{
					"inputs": [],
					"name": "symbol",
					"outputs": [
						{
							"internalType": "string",
							"name": "",
							"type": "string"
						}
					],
					"stateMutability": "view",
					"type": "function"
				},
				{
					"inputs": [],
					"name": "tokenContract",
					"outputs": [
						{
							"internalType": "contract ERC20Interface",
							"name": "",
							"type": "address"
						}
					],
					"stateMutability": "view",
					"type": "function"
				},
				{
					"inputs": [],
					"name": "tokenTradeStart",
					"outputs": [
						{
							"internalType": "uint256",
							"name": "",
							"type": "uint256"
						}
					],
					"stateMutability": "view",
					"type": "function"
				},
				{
					"inputs": [],
					"name": "totalSupply",
					"outputs": [
						{
							"internalType": "uint256",
							"name": "",
							"type": "uint256"
						}
					],
					"stateMutability": "view",
					"type": "function"
				},
				{
					"inputs": [
						{
							"internalType": "address",
							"name": "to",
							"type": "address"
						},
						{
							"internalType": "uint256",
							"name": "tokens",
							"type": "uint256"
						}
					],
					"name": "transfer",
					"outputs": [
						{
							"internalType": "bool",
							"name": "success",
							"type": "bool"
						}
					],
					"stateMutability": "nonpayable",
					"type": "function"
				},
				{
					"inputs": [
						{
							"internalType": "address",
							"name": "from",
							"type": "address"
						},
						{
							"internalType": "address",
							"name": "to",
							"type": "address"
						},
						{
							"internalType": "uint256",
							"name": "tokens",
							"type": "uint256"
						}
					],
					"name": "transferFrom",
					"outputs": [
						{
							"internalType": "bool",
							"name": "success",
							"type": "bool"
						}
					],
					"stateMutability": "nonpayable",
					"type": "function"
				}
			],
			"devdoc": {
				"kind": "dev",
				"methods": {},
				"version": 1
			},
			"evm": {
				"assembly": "    /* \"contracts/nct v4.sol\":3211:7633  contract CryptosICO is Cryptos {\r... */\n  mstore(0x40, 0x80)\n    /* \"contracts/nct v4.sol\":1237:1274  string public name = \"Nations Combat\" */\n  mload(0x40)\n  dup1\n  0x40\n  add\n  0x40\n  mstore\n  dup1\n  0x0e\n  dup2\n  mstore\n  0x20\n  add\n  0x4e6174696f6e7320436f6d626174000000000000000000000000000000000000\n  dup2\n  mstore\n  pop\n  0x00\n  swap1\n  dup1\n  mload\n  swap1\n  0x20\n  add\n  swap1\n  tag_1\n  swap3\n  swap2\n  swap1\n  tag_2\n  jump\t// in\ntag_1:\n  pop\n    /* \"contracts/nct v4.sol\":1281:1309  string public symbol = \"NCT\" */\n  mload(0x40)\n  dup1\n  0x40\n  add\n  0x40\n  mstore\n  dup1\n  0x03\n  dup2\n  mstore\n  0x20\n  add\n  0x4e43540000000000000000000000000000000000000000000000000000000000\n  dup2\n  mstore\n  pop\n  0x01\n  swap1\n  dup1\n  mload\n  swap1\n  0x20\n  add\n  swap1\n  tag_3\n  swap3\n  swap2\n  swap1\n  tag_2\n  jump\t// in\ntag_3:\n  pop\n    /* \"contracts/nct v4.sol\":1342:1344  18 */\n  0x12\n    /* \"contracts/nct v4.sol\":1316:1344  uint256 public decimals = 18 */\n  0x02\n  sstore\n    /* \"contracts/nct v4.sol\":3334:3345  0.001 ether */\n  0x038d7ea4c68000\n    /* \"contracts/nct v4.sol\":3313:3345  uint256 tokenPrice = 0.001 ether */\n  0x09\n  sstore\n    /* \"contracts/nct v4.sol\":3415:3417  10 */\n  0x0a\n    /* \"contracts/nct v4.sol\":3393:3417  uint256 public prie = 10 */\n  dup1\n  sstore\n    /* \"contracts/nct v4.sol\":3518:3533  block.timestamp */\n  timestamp\n    /* \"contracts/nct v4.sol\":3491:3533  uint256 public saleStart = block.timestamp */\n  0x0c\n  sstore\n    /* \"contracts/nct v4.sol\":3583:3589  604800 */\n  0x093a80\n    /* \"contracts/nct v4.sol\":3565:3580  block.timestamp */\n  timestamp\n    /* \"contracts/nct v4.sol\":3565:3589  block.timestamp + 604800 */\n  tag_4\n  swap2\n  swap1\n  tag_5\n  jump\t// in\ntag_4:\n    /* \"contracts/nct v4.sol\":3540:3589  uint256 public saleEnd = block.timestamp + 604800 */\n  0x0d\n  sstore\n    /* \"contracts/nct v4.sol\":3692:3698  604800 */\n  0x093a80\n    /* \"contracts/nct v4.sol\":3682:3689  saleEnd */\n  sload(0x0d)\n    /* \"contracts/nct v4.sol\":3682:3698  saleEnd + 604800 */\n  tag_6\n  swap2\n  swap1\n  tag_5\n  jump\t// in\ntag_6:\n    /* \"contracts/nct v4.sol\":3649:3698  uint256 public tokenTradeStart = saleEnd + 604800 */\n  0x0f\n  sstore\n    /* \"contracts/nct v4.sol\":3775:3782  5 ether */\n  0x4563918244f40000\n    /* \"contracts/nct v4.sol\":3744:3782  uint256 public maxInvestment = 5 ether */\n  0x10\n  sstore\n    /* \"contracts/nct v4.sol\":3820:3831  0.001 ether */\n  0x038d7ea4c68000\n    /* \"contracts/nct v4.sol\":3789:3831  uint256 public minInvestment = 0.001 ether */\n  0x11\n  sstore\n    /* \"contracts/nct v4.sol\":3984:4204  constructor(address payable _deposit, address tokenAddress) {\r... */\n  callvalue\n  dup1\n  iszero\n  tag_7\n  jumpi\n  0x00\n  dup1\n  revert\ntag_7:\n  pop\n  mload(0x40)\n  sub(codesize, bytecodeSize)\n  dup1\n  bytecodeSize\n  dup4\n  codecopy\n  dup2\n  dup2\n  add\n  0x40\n  mstore\n  dup2\n  add\n  swap1\n  tag_8\n  swap2\n  swap1\n  tag_9\n  jump\t// in\ntag_8:\n    /* \"contracts/nct v4.sol\":1653:1668  50000000*10**18 */\n  0x295be96e64066972000000\n    /* \"contracts/nct v4.sol\":1639:1650  totalSupply */\n  0x03\n    /* \"contracts/nct v4.sol\":1639:1668  totalSupply = 50000000*10**18 */\n  dup2\n  swap1\n  sstore\n  pop\n    /* \"contracts/nct v4.sol\":1689:1699  msg.sender */\n  caller\n    /* \"contracts/nct v4.sol\":1679:1686  founder */\n  0x04\n  0x00\n    /* \"contracts/nct v4.sol\":1679:1699  founder = msg.sender */\n  0x0100\n  exp\n  dup2\n  sload\n  dup2\n  0xffffffffffffffffffffffffffffffffffffffff\n  mul\n  not\n  and\n  swap1\n  dup4\n  0xffffffffffffffffffffffffffffffffffffffff\n  and\n  mul\n  or\n  swap1\n  sstore\n  pop\n    /* \"contracts/nct v4.sol\":1730:1741  totalSupply */\n  sload(0x03)\n    /* \"contracts/nct v4.sol\":1710:1718  balances */\n  0x05\n    /* \"contracts/nct v4.sol\":1710:1727  balances[founder] */\n  0x00\n    /* \"contracts/nct v4.sol\":1719:1726  founder */\n  0x04\n  0x00\n  swap1\n  sload\n  swap1\n  0x0100\n  exp\n  swap1\n  div\n  0xffffffffffffffffffffffffffffffffffffffff\n  and\n    /* \"contracts/nct v4.sol\":1710:1727  balances[founder] */\n  0xffffffffffffffffffffffffffffffffffffffff\n  and\n  0xffffffffffffffffffffffffffffffffffffffff\n  and\n  dup2\n  mstore\n  0x20\n  add\n  swap1\n  dup2\n  mstore\n  0x20\n  add\n  0x00\n  keccak256\n    /* \"contracts/nct v4.sol\":1710:1741  balances[founder] = totalSupply */\n  dup2\n  swap1\n  sstore\n  pop\n    /* \"contracts/nct v4.sol\":4065:4073  _deposit */\n  dup2\n    /* \"contracts/nct v4.sol\":4055:4062  deposit */\n  0x08\n  0x00\n    /* \"contracts/nct v4.sol\":4055:4073  deposit = _deposit */\n  0x0100\n  exp\n  dup2\n  sload\n  dup2\n  0xffffffffffffffffffffffffffffffffffffffff\n  mul\n  not\n  and\n  swap1\n  dup4\n  0xffffffffffffffffffffffffffffffffffffffff\n  and\n  mul\n  or\n  swap1\n  sstore\n  pop\n    /* \"contracts/nct v4.sol\":4092:4102  msg.sender */\n  caller\n    /* \"contracts/nct v4.sol\":4084:4089  admin */\n  0x07\n  0x00\n    /* \"contracts/nct v4.sol\":4084:4102  admin = msg.sender */\n  0x0100\n  exp\n  dup2\n  sload\n  dup2\n  0xffffffffffffffffffffffffffffffffffffffff\n  mul\n  not\n  and\n  swap1\n  dup4\n  0xffffffffffffffffffffffffffffffffffffffff\n  and\n  mul\n  or\n  swap1\n  sstore\n  pop\n    /* \"contracts/nct v4.sol\":4124:4141  State.beforeStart */\n  0x00\n    /* \"contracts/nct v4.sol\":4113:4121  icoState */\n  0x12\n  0x00\n    /* \"contracts/nct v4.sol\":4113:4141  icoState = State.beforeStart */\n  0x0100\n  exp\n  dup2\n  sload\n  dup2\n  0xff\n  mul\n  not\n  and\n  swap1\n  dup4\n  0x03\n  dup2\n  gt\n  iszero\n  tag_14\n  jumpi\n  tag_15\n  tag_16\n  jump\t// in\ntag_15:\ntag_14:\n  mul\n  or\n  swap1\n  sstore\n  pop\n    /* \"contracts/nct v4.sol\":4183:4195  tokenAddress */\n  dup1\n    /* \"contracts/nct v4.sol\":4152:4165  tokenContract */\n  0x0e\n  0x00\n    /* \"contracts/nct v4.sol\":4152:4196  tokenContract = ERC20Interface(tokenAddress) */\n  0x0100\n  exp\n  dup2\n  sload\n  dup2\n  0xffffffffffffffffffffffffffffffffffffffff\n  mul\n  not\n  and\n  swap1\n  dup4\n  0xffffffffffffffffffffffffffffffffffffffff\n  and\n  mul\n  or\n  swap1\n  sstore\n  pop\n    /* \"contracts/nct v4.sol\":3984:4204  constructor(address payable _deposit, address tokenAddress) {\r... */\n  pop\n  pop\n    /* \"contracts/nct v4.sol\":3211:7633  contract CryptosICO is Cryptos {\r... */\n  jump(tag_17)\ntag_2:\n  dup3\n  dup1\n  sload\n  tag_18\n  swap1\n  tag_19\n  jump\t// in\ntag_18:\n  swap1\n  0x00\n  mstore\n  keccak256(0x00, 0x20)\n  swap1\n  0x1f\n  add\n  0x20\n  swap1\n  div\n  dup2\n  add\n  swap3\n  dup3\n  tag_21\n  jumpi\n  0x00\n  dup6\n  sstore\n  jump(tag_20)\ntag_21:\n  dup3\n  0x1f\n  lt\n  tag_22\n  jumpi\n  dup1\n  mload\n  not(0xff)\n  and\n  dup4\n  dup1\n  add\n  or\n  dup6\n  sstore\n  jump(tag_20)\ntag_22:\n  dup3\n  dup1\n  add\n  0x01\n  add\n  dup6\n  sstore\n  dup3\n  iszero\n  tag_20\n  jumpi\n  swap2\n  dup3\n  add\ntag_23:\n  dup3\n  dup2\n  gt\n  iszero\n  tag_24\n  jumpi\n  dup3\n  mload\n  dup3\n  sstore\n  swap2\n  0x20\n  add\n  swap2\n  swap1\n  0x01\n  add\n  swap1\n  jump(tag_23)\ntag_24:\ntag_20:\n  pop\n  swap1\n  pop\n  tag_25\n  swap2\n  swap1\n  tag_26\n  jump\t// in\ntag_25:\n  pop\n  swap1\n  jump\t// out\ntag_26:\ntag_27:\n  dup1\n  dup3\n  gt\n  iszero\n  tag_28\n  jumpi\n  0x00\n  dup2\n  0x00\n  swap1\n  sstore\n  pop\n  0x01\n  add\n  jump(tag_27)\ntag_28:\n  pop\n  swap1\n  jump\t// out\n    /* \"#utility.yul\":7:150   */\ntag_30:\n    /* \"#utility.yul\":64:69   */\n  0x00\n    /* \"#utility.yul\":95:101   */\n  dup2\n    /* \"#utility.yul\":89:102   */\n  mload\n    /* \"#utility.yul\":80:102   */\n  swap1\n  pop\n    /* \"#utility.yul\":111:144   */\n  tag_32\n    /* \"#utility.yul\":138:143   */\n  dup2\n    /* \"#utility.yul\":111:144   */\n  tag_33\n  jump\t// in\ntag_32:\n    /* \"#utility.yul\":7:150   */\n  swap3\n  swap2\n  pop\n  pop\n  jump\t// out\n    /* \"#utility.yul\":156:315   */\ntag_34:\n    /* \"#utility.yul\":221:226   */\n  0x00\n    /* \"#utility.yul\":252:258   */\n  dup2\n    /* \"#utility.yul\":246:259   */\n  mload\n    /* \"#utility.yul\":237:259   */\n  swap1\n  pop\n    /* \"#utility.yul\":268:309   */\n  tag_36\n    /* \"#utility.yul\":303:308   */\n  dup2\n    /* \"#utility.yul\":268:309   */\n  tag_37\n  jump\t// in\ntag_36:\n    /* \"#utility.yul\":156:315   */\n  swap3\n  swap2\n  pop\n  pop\n  jump\t// out\n    /* \"#utility.yul\":321:844   */\ntag_9:\n    /* \"#utility.yul\":408:414   */\n  0x00\n    /* \"#utility.yul\":416:422   */\n  dup1\n    /* \"#utility.yul\":465:467   */\n  0x40\n    /* \"#utility.yul\":453:462   */\n  dup4\n    /* \"#utility.yul\":444:451   */\n  dup6\n    /* \"#utility.yul\":440:463   */\n  sub\n    /* \"#utility.yul\":436:468   */\n  slt\n    /* \"#utility.yul\":433:552   */\n  iszero\n  tag_39\n  jumpi\n    /* \"#utility.yul\":471:550   */\n  tag_40\n  tag_41\n  jump\t// in\ntag_40:\n    /* \"#utility.yul\":433:552   */\ntag_39:\n    /* \"#utility.yul\":591:592   */\n  0x00\n    /* \"#utility.yul\":616:688   */\n  tag_42\n    /* \"#utility.yul\":680:687   */\n  dup6\n    /* \"#utility.yul\":671:677   */\n  dup3\n    /* \"#utility.yul\":660:669   */\n  dup7\n    /* \"#utility.yul\":656:678   */\n  add\n    /* \"#utility.yul\":616:688   */\n  tag_34\n  jump\t// in\ntag_42:\n    /* \"#utility.yul\":606:688   */\n  swap3\n  pop\n    /* \"#utility.yul\":562:698   */\n  pop\n    /* \"#utility.yul\":737:739   */\n  0x20\n    /* \"#utility.yul\":763:827   */\n  tag_43\n    /* \"#utility.yul\":819:826   */\n  dup6\n    /* \"#utility.yul\":810:816   */\n  dup3\n    /* \"#utility.yul\":799:808   */\n  dup7\n    /* \"#utility.yul\":795:817   */\n  add\n    /* \"#utility.yul\":763:827   */\n  tag_30\n  jump\t// in\ntag_43:\n    /* \"#utility.yul\":753:827   */\n  swap2\n  pop\n    /* \"#utility.yul\":708:837   */\n  pop\n    /* \"#utility.yul\":321:844   */\n  swap3\n  pop\n  swap3\n  swap1\n  pop\n  jump\t// out\n    /* \"#utility.yul\":931:1236   */\ntag_5:\n    /* \"#utility.yul\":971:974   */\n  0x00\n    /* \"#utility.yul\":990:1010   */\n  tag_47\n    /* \"#utility.yul\":1008:1009   */\n  dup3\n    /* \"#utility.yul\":990:1010   */\n  tag_48\n  jump\t// in\ntag_47:\n    /* \"#utility.yul\":985:1010   */\n  swap2\n  pop\n    /* \"#utility.yul\":1024:1044   */\n  tag_49\n    /* \"#utility.yul\":1042:1043   */\n  dup4\n    /* \"#utility.yul\":1024:1044   */\n  tag_48\n  jump\t// in\ntag_49:\n    /* \"#utility.yul\":1019:1044   */\n  swap3\n  pop\n    /* \"#utility.yul\":1178:1179   */\n  dup3\n    /* \"#utility.yul\":1110:1176   */\n  0xffffffffffffffffffffffffffffffffffffffffffffffffffffffffffffffff\n    /* \"#utility.yul\":1106:1180   */\n  sub\n    /* \"#utility.yul\":1103:1104   */\n  dup3\n    /* \"#utility.yul\":1100:1181   */\n  gt\n    /* \"#utility.yul\":1097:1204   */\n  iszero\n  tag_50\n  jumpi\n    /* \"#utility.yul\":1184:1202   */\n  tag_51\n  tag_52\n  jump\t// in\ntag_51:\n    /* \"#utility.yul\":1097:1204   */\ntag_50:\n    /* \"#utility.yul\":1228:1229   */\n  dup3\n    /* \"#utility.yul\":1225:1226   */\n  dup3\n    /* \"#utility.yul\":1221:1230   */\n  add\n    /* \"#utility.yul\":1214:1230   */\n  swap1\n  pop\n    /* \"#utility.yul\":931:1236   */\n  swap3\n  swap2\n  pop\n  pop\n  jump\t// out\n    /* \"#utility.yul\":1242:1338   */\ntag_53:\n    /* \"#utility.yul\":1279:1286   */\n  0x00\n    /* \"#utility.yul\":1308:1332   */\n  tag_55\n    /* \"#utility.yul\":1326:1331   */\n  dup3\n    /* \"#utility.yul\":1308:1332   */\n  tag_56\n  jump\t// in\ntag_55:\n    /* \"#utility.yul\":1297:1332   */\n  swap1\n  pop\n    /* \"#utility.yul\":1242:1338   */\n  swap2\n  swap1\n  pop\n  jump\t// out\n    /* \"#utility.yul\":1344:1448   */\ntag_57:\n    /* \"#utility.yul\":1389:1396   */\n  0x00\n    /* \"#utility.yul\":1418:1442   */\n  tag_59\n    /* \"#utility.yul\":1436:1441   */\n  dup3\n    /* \"#utility.yul\":1418:1442   */\n  tag_56\n  jump\t// in\ntag_59:\n    /* \"#utility.yul\":1407:1442   */\n  swap1\n  pop\n    /* \"#utility.yul\":1344:1448   */\n  swap2\n  swap1\n  pop\n  jump\t// out\n    /* \"#utility.yul\":1454:1580   */\ntag_56:\n    /* \"#utility.yul\":1491:1498   */\n  0x00\n    /* \"#utility.yul\":1531:1573   */\n  0xffffffffffffffffffffffffffffffffffffffff\n    /* \"#utility.yul\":1524:1529   */\n  dup3\n    /* \"#utility.yul\":1520:1574   */\n  and\n    /* \"#utility.yul\":1509:1574   */\n  swap1\n  pop\n    /* \"#utility.yul\":1454:1580   */\n  swap2\n  swap1\n  pop\n  jump\t// out\n    /* \"#utility.yul\":1586:1663   */\ntag_48:\n    /* \"#utility.yul\":1623:1630   */\n  0x00\n    /* \"#utility.yul\":1652:1657   */\n  dup2\n    /* \"#utility.yul\":1641:1657   */\n  swap1\n  pop\n    /* \"#utility.yul\":1586:1663   */\n  swap2\n  swap1\n  pop\n  jump\t// out\n    /* \"#utility.yul\":1669:1989   */\ntag_19:\n    /* \"#utility.yul\":1713:1719   */\n  0x00\n    /* \"#utility.yul\":1750:1751   */\n  0x02\n    /* \"#utility.yul\":1744:1748   */\n  dup3\n    /* \"#utility.yul\":1740:1752   */\n  div\n    /* \"#utility.yul\":1730:1752   */\n  swap1\n  pop\n    /* \"#utility.yul\":1797:1798   */\n  0x01\n    /* \"#utility.yul\":1791:1795   */\n  dup3\n    /* \"#utility.yul\":1787:1799   */\n  and\n    /* \"#utility.yul\":1818:1836   */\n  dup1\n    /* \"#utility.yul\":1808:1889   */\n  tag_63\n  jumpi\n    /* \"#utility.yul\":1874:1878   */\n  0x7f\n    /* \"#utility.yul\":1866:1872   */\n  dup3\n    /* \"#utility.yul\":1862:1879   */\n  and\n    /* \"#utility.yul\":1852:1879   */\n  swap2\n  pop\n    /* \"#utility.yul\":1808:1889   */\ntag_63:\n    /* \"#utility.yul\":1936:1938   */\n  0x20\n    /* \"#utility.yul\":1928:1934   */\n  dup3\n    /* \"#utility.yul\":1925:1939   */\n  lt\n    /* \"#utility.yul\":1905:1923   */\n  dup2\n    /* \"#utility.yul\":1902:1940   */\n  eq\n    /* \"#utility.yul\":1899:1983   */\n  iszero\n  tag_64\n  jumpi\n    /* \"#utility.yul\":1955:1973   */\n  tag_65\n  tag_66\n  jump\t// in\ntag_65:\n    /* \"#utility.yul\":1899:1983   */\ntag_64:\n    /* \"#utility.yul\":1720:1989   */\n  pop\n    /* \"#utility.yul\":1669:1989   */\n  swap2\n  swap1\n  pop\n  jump\t// out\n    /* \"#utility.yul\":1995:2175   */\ntag_52:\n    /* \"#utility.yul\":2043:2120   */\n  0x4e487b7100000000000000000000000000000000000000000000000000000000\n    /* \"#utility.yul\":2040:2041   */\n  0x00\n    /* \"#utility.yul\":2033:2121   */\n  mstore\n    /* \"#utility.yul\":2140:2144   */\n  0x11\n    /* \"#utility.yul\":2137:2138   */\n  0x04\n    /* \"#utility.yul\":2130:2145   */\n  mstore\n    /* \"#utility.yul\":2164:2168   */\n  0x24\n    /* \"#utility.yul\":2161:2162   */\n  0x00\n    /* \"#utility.yul\":2154:2169   */\n  revert\n    /* \"#utility.yul\":2181:2361   */\ntag_16:\n    /* \"#utility.yul\":2229:2306   */\n  0x4e487b7100000000000000000000000000000000000000000000000000000000\n    /* \"#utility.yul\":2226:2227   */\n  0x00\n    /* \"#utility.yul\":2219:2307   */\n  mstore\n    /* \"#utility.yul\":2326:2330   */\n  0x21\n    /* \"#utility.yul\":2323:2324   */\n  0x04\n    /* \"#utility.yul\":2316:2331   */\n  mstore\n    /* \"#utility.yul\":2350:2354   */\n  0x24\n    /* \"#utility.yul\":2347:2348   */\n  0x00\n    /* \"#utility.yul\":2340:2355   */\n  revert\n    /* \"#utility.yul\":2367:2547   */\ntag_66:\n    /* \"#utility.yul\":2415:2492   */\n  0x4e487b7100000000000000000000000000000000000000000000000000000000\n    /* \"#utility.yul\":2412:2413   */\n  0x00\n    /* \"#utility.yul\":2405:2493   */\n  mstore\n    /* \"#utility.yul\":2512:2516   */\n  0x22\n    /* \"#utility.yul\":2509:2510   */\n  0x04\n    /* \"#utility.yul\":2502:2517   */\n  mstore\n    /* \"#utility.yul\":2536:2540   */\n  0x24\n    /* \"#utility.yul\":2533:2534   */\n  0x00\n    /* \"#utility.yul\":2526:2541   */\n  revert\n    /* \"#utility.yul\":2676:2793   */\ntag_41:\n    /* \"#utility.yul\":2785:2786   */\n  0x00\n    /* \"#utility.yul\":2782:2783   */\n  dup1\n    /* \"#utility.yul\":2775:2787   */\n  revert\n    /* \"#utility.yul\":2799:2921   */\ntag_33:\n    /* \"#utility.yul\":2872:2896   */\n  tag_74\n    /* \"#utility.yul\":2890:2895   */\n  dup2\n    /* \"#utility.yul\":2872:2896   */\n  tag_53\n  jump\t// in\ntag_74:\n    /* \"#utility.yul\":2865:2870   */\n  dup2\n    /* \"#utility.yul\":2862:2897   */\n  eq\n    /* \"#utility.yul\":2852:2915   */\n  tag_75\n  jumpi\n    /* \"#utility.yul\":2911:2912   */\n  0x00\n    /* \"#utility.yul\":2908:2909   */\n  dup1\n    /* \"#utility.yul\":2901:2913   */\n  revert\n    /* \"#utility.yul\":2852:2915   */\ntag_75:\n    /* \"#utility.yul\":2799:2921   */\n  pop\n  jump\t// out\n    /* \"#utility.yul\":2927:3065   */\ntag_37:\n    /* \"#utility.yul\":3008:3040   */\n  tag_77\n    /* \"#utility.yul\":3034:3039   */\n  dup2\n    /* \"#utility.yul\":3008:3040   */\n  tag_57\n  jump\t// in\ntag_77:\n    /* \"#utility.yul\":3001:3006   */\n  dup2\n    /* \"#utility.yul\":2998:3041   */\n  eq\n    /* \"#utility.yul\":2988:3059   */\n  tag_78\n  jumpi\n    /* \"#utility.yul\":3055:3056   */\n  0x00\n    /* \"#utility.yul\":3052:3053   */\n  dup1\n    /* \"#utility.yul\":3045:3057   */\n  revert\n    /* \"#utility.yul\":2988:3059   */\ntag_78:\n    /* \"#utility.yul\":2927:3065   */\n  pop\n  jump\t// out\n    /* \"contracts/nct v4.sol\":3211:7633  contract CryptosICO is Cryptos {\r... */\ntag_17:\n  dataSize(sub_0)\n  dup1\n  dataOffset(sub_0)\n  0x00\n  codecopy\n  0x00\n  return\nstop\n\nsub_0: assembly {\n        /* \"contracts/nct v4.sol\":3211:7633  contract CryptosICO is Cryptos {\r... */\n      mstore(0x40, 0x80)\n      jumpi(tag_1, lt(calldatasize, 0x04))\n      shr(0xe0, calldataload(0x00))\n      dup1\n      0x6d58c88f\n      gt\n      tag_31\n      jumpi\n      dup1\n      0xab0bcc41\n      gt\n      tag_32\n      jumpi\n      dup1\n      0xd0e30db0\n      gt\n      tag_33\n      jumpi\n      dup1\n      0xd0e30db0\n      eq\n      tag_27\n      jumpi\n      dup1\n      0xdd62ed3e\n      eq\n      tag_28\n      jumpi\n      dup1\n      0xe7572230\n      eq\n      tag_29\n      jumpi\n      dup1\n      0xf851a440\n      eq\n      tag_30\n      jumpi\n      jump(tag_1)\n    tag_33:\n      dup1\n      0xab0bcc41\n      eq\n      tag_23\n      jumpi\n      dup1\n      0xc10b9358\n      eq\n      tag_24\n      jumpi\n      dup1\n      0xc59ee1dc\n      eq\n      tag_25\n      jumpi\n      dup1\n      0xcc9ba583\n      eq\n      tag_26\n      jumpi\n      jump(tag_1)\n    tag_32:\n      dup1\n      0x8ac2c680\n      gt\n      tag_34\n      jumpi\n      dup1\n      0x8ac2c680\n      eq\n      tag_19\n      jumpi\n      dup1\n      0x91b7f5ed\n      eq\n      tag_20\n      jumpi\n      dup1\n      0x95d89b41\n      eq\n      tag_21\n      jumpi\n      dup1\n      0xa9059cbb\n      eq\n      tag_22\n      jumpi\n      jump(tag_1)\n    tag_34:\n      dup1\n      0x6d58c88f\n      eq\n      tag_16\n      jumpi\n      dup1\n      0x6e463658\n      eq\n      tag_17\n      jumpi\n      dup1\n      0x70a08231\n      eq\n      tag_18\n      jumpi\n      jump(tag_1)\n    tag_31:\n      dup1\n      0x2afcf480\n      gt\n      tag_35\n      jumpi\n      dup1\n      0x380d831b\n      gt\n      tag_36\n      jumpi\n      dup1\n      0x380d831b\n      eq\n      tag_12\n      jumpi\n      dup1\n      0x44f38756\n      eq\n      tag_13\n      jumpi\n      dup1\n      0x4d853ee5\n      eq\n      tag_14\n      jumpi\n      dup1\n      0x55a373d6\n      eq\n      tag_15\n      jumpi\n      jump(tag_1)\n    tag_36:\n      dup1\n      0x2afcf480\n      eq\n      tag_9\n      jumpi\n      dup1\n      0x313ce567\n      eq\n      tag_10\n      jumpi\n      dup1\n      0x378aa701\n      eq\n      tag_11\n      jumpi\n      jump(tag_1)\n    tag_35:\n      dup1\n      0x095ea7b3\n      gt\n      tag_37\n      jumpi\n      dup1\n      0x095ea7b3\n      eq\n      tag_5\n      jumpi\n      dup1\n      0x18160ddd\n      eq\n      tag_6\n      jumpi\n      dup1\n      0x23b872dd\n      eq\n      tag_7\n      jumpi\n      dup1\n      0x27e235e3\n      eq\n      tag_8\n      jumpi\n      jump(tag_1)\n    tag_37:\n      dup1\n      0x2e1316\n      eq\n      tag_2\n      jumpi\n      dup1\n      0x046f7da2\n      eq\n      tag_3\n      jumpi\n      dup1\n      0x06fdde03\n      eq\n      tag_4\n      jumpi\n    tag_1:\n      0x00\n      dup1\n      revert\n        /* \"contracts/nct v4.sol\":3744:3782  uint256 public maxInvestment = 5 ether */\n    tag_2:\n      callvalue\n      dup1\n      iszero\n      tag_38\n      jumpi\n      0x00\n      dup1\n      revert\n    tag_38:\n      pop\n      tag_39\n      tag_40\n      jump\t// in\n    tag_39:\n      mload(0x40)\n      tag_41\n      swap2\n      swap1\n      tag_42\n      jump\t// in\n    tag_41:\n      mload(0x40)\n      dup1\n      swap2\n      sub\n      swap1\n      return\n        /* \"contracts/nct v4.sol\":4300:4378  function resume() public onlyAdmin {\r... */\n    tag_3:\n      callvalue\n      dup1\n      iszero\n      tag_43\n      jumpi\n      0x00\n      dup1\n      revert\n    tag_43:\n      pop\n      tag_44\n      tag_45\n      jump\t// in\n    tag_44:\n      stop\n        /* \"contracts/nct v4.sol\":1237:1274  string public name = \"Nations Combat\" */\n    tag_4:\n      callvalue\n      dup1\n      iszero\n      tag_46\n      jumpi\n      0x00\n      dup1\n      revert\n    tag_46:\n      pop\n      tag_47\n      tag_48\n      jump\t// in\n    tag_47:\n      mload(0x40)\n      tag_49\n      swap2\n      swap1\n      tag_50\n      jump\t// in\n    tag_49:\n      mload(0x40)\n      dup1\n      swap2\n      sub\n      swap1\n      return\n        /* \"contracts/nct v4.sol\":2484:2820  function approve(address spender, uint256 tokens)\r... */\n    tag_5:\n      callvalue\n      dup1\n      iszero\n      tag_51\n      jumpi\n      0x00\n      dup1\n      revert\n    tag_51:\n      pop\n      tag_52\n      0x04\n      dup1\n      calldatasize\n      sub\n      dup2\n      add\n      swap1\n      tag_53\n      swap2\n      swap1\n      tag_54\n      jump\t// in\n    tag_53:\n      tag_55\n      jump\t// in\n    tag_52:\n      mload(0x40)\n      tag_56\n      swap2\n      swap1\n      tag_57\n      jump\t// in\n    tag_56:\n      mload(0x40)\n      dup1\n      swap2\n      sub\n      swap1\n      return\n        /* \"contracts/nct v4.sol\":1351:1386  uint256 public override totalSupply */\n    tag_6:\n      callvalue\n      dup1\n      iszero\n      tag_58\n      jumpi\n      0x00\n      dup1\n      revert\n    tag_58:\n      pop\n      tag_59\n      tag_60\n      jump\t// in\n    tag_59:\n      mload(0x40)\n      tag_61\n      swap2\n      swap1\n      tag_42\n      jump\t// in\n    tag_61:\n      mload(0x40)\n      dup1\n      swap2\n      sub\n      swap1\n      return\n        /* \"contracts/nct v4.sol\":7255:7630  function transferFrom(\r... */\n    tag_7:\n      callvalue\n      dup1\n      iszero\n      tag_62\n      jumpi\n      0x00\n      dup1\n      revert\n    tag_62:\n      pop\n      tag_63\n      0x04\n      dup1\n      calldatasize\n      sub\n      dup2\n      add\n      swap1\n      tag_64\n      swap2\n      swap1\n      tag_65\n      jump\t// in\n    tag_64:\n      tag_66\n      jump\t// in\n    tag_63:\n      mload(0x40)\n      tag_67\n      swap2\n      swap1\n      tag_57\n      jump\t// in\n    tag_67:\n      mload(0x40)\n      dup1\n      swap2\n      sub\n      swap1\n      return\n        /* \"contracts/nct v4.sol\":1424:1467  mapping(address => uint256) public balances */\n    tag_8:\n      callvalue\n      dup1\n      iszero\n      tag_68\n      jumpi\n      0x00\n      dup1\n      revert\n    tag_68:\n      pop\n      tag_69\n      0x04\n      dup1\n      calldatasize\n      sub\n      dup2\n      add\n      swap1\n      tag_70\n      swap2\n      swap1\n      tag_71\n      jump\t// in\n    tag_70:\n      tag_72\n      jump\t// in\n    tag_69:\n      mload(0x40)\n      tag_73\n      swap2\n      swap1\n      tag_42\n      jump\t// in\n    tag_73:\n      mload(0x40)\n      dup1\n      swap2\n      sub\n      swap1\n      return\n        /* \"contracts/nct v4.sol\":5393:6319  function invest(uint256 token) public payable returns (bool) {\r... */\n    tag_9:\n      tag_74\n      0x04\n      dup1\n      calldatasize\n      sub\n      dup2\n      add\n      swap1\n      tag_75\n      swap2\n      swap1\n      tag_76\n      jump\t// in\n    tag_75:\n      tag_77\n      jump\t// in\n    tag_74:\n      mload(0x40)\n      tag_78\n      swap2\n      swap1\n      tag_57\n      jump\t// in\n    tag_78:\n      mload(0x40)\n      dup1\n      swap2\n      sub\n      swap1\n      return\n        /* \"contracts/nct v4.sol\":1316:1344  uint256 public decimals = 18 */\n    tag_10:\n      callvalue\n      dup1\n      iszero\n      tag_79\n      jumpi\n      0x00\n      dup1\n      revert\n    tag_79:\n      pop\n      tag_80\n      tag_81\n      jump\t// in\n    tag_80:\n      mload(0x40)\n      tag_82\n      swap2\n      swap1\n      tag_42\n      jump\t// in\n    tag_82:\n      mload(0x40)\n      dup1\n      swap2\n      sub\n      swap1\n      return\n        /* \"contracts/nct v4.sol\":4508:4918  function getCurrentState() public view returns (State) {\r... */\n    tag_11:\n      callvalue\n      dup1\n      iszero\n      tag_83\n      jumpi\n      0x00\n      dup1\n      revert\n    tag_83:\n      pop\n      tag_84\n      tag_85\n      jump\t// in\n    tag_84:\n      mload(0x40)\n      tag_86\n      swap2\n      swap1\n      tag_87\n      jump\t// in\n    tag_86:\n      mload(0x40)\n      dup1\n      swap2\n      sub\n      swap1\n      return\n        /* \"contracts/nct v4.sol\":6846:7247  function endSale() public {\r... */\n    tag_12:\n      callvalue\n      dup1\n      iszero\n      tag_88\n      jumpi\n      0x00\n      dup1\n      revert\n    tag_88:\n      pop\n      tag_89\n      tag_90\n      jump\t// in\n    tag_89:\n      stop\n        /* \"contracts/nct v4.sol\":3954:3975  State public icoState */\n    tag_13:\n      callvalue\n      dup1\n      iszero\n      tag_91\n      jumpi\n      0x00\n      dup1\n      revert\n    tag_91:\n      pop\n      tag_92\n      tag_93\n      jump\t// in\n    tag_92:\n      mload(0x40)\n      tag_94\n      swap2\n      swap1\n      tag_87\n      jump\t// in\n    tag_94:\n      mload(0x40)\n      dup1\n      swap2\n      sub\n      swap1\n      return\n        /* \"contracts/nct v4.sol\":1395:1417  address public founder */\n    tag_14:\n      callvalue\n      dup1\n      iszero\n      tag_95\n      jumpi\n      0x00\n      dup1\n      revert\n    tag_95:\n      pop\n      tag_96\n      tag_97\n      jump\t// in\n    tag_96:\n      mload(0x40)\n      tag_98\n      swap2\n      swap1\n      tag_99\n      jump\t// in\n    tag_98:\n      mload(0x40)\n      dup1\n      swap2\n      sub\n      swap1\n      return\n        /* \"contracts/nct v4.sol\":3607:3642  ERC20Interface public tokenContract */\n    tag_15:\n      callvalue\n      dup1\n      iszero\n      tag_100\n      jumpi\n      0x00\n      dup1\n      revert\n    tag_100:\n      pop\n      tag_101\n      tag_102\n      jump\t// in\n    tag_101:\n      mload(0x40)\n      tag_103\n      swap2\n      swap1\n      tag_104\n      jump\t// in\n    tag_103:\n      mload(0x40)\n      dup1\n      swap2\n      sub\n      swap1\n      return\n        /* \"contracts/nct v4.sol\":4386:4500  function changeDepositAddress(address payable newDeposit) public onlyAdmin {\r... */\n    tag_16:\n      callvalue\n      dup1\n      iszero\n      tag_105\n      jumpi\n      0x00\n      dup1\n      revert\n    tag_105:\n      pop\n      tag_106\n      0x04\n      dup1\n      calldatasize\n      sub\n      dup2\n      add\n      swap1\n      tag_107\n      swap2\n      swap1\n      tag_108\n      jump\t// in\n    tag_107:\n      tag_109\n      jump\t// in\n    tag_106:\n      stop\n        /* \"contracts/nct v4.sol\":3393:3417  uint256 public prie = 10 */\n    tag_17:\n      callvalue\n      dup1\n      iszero\n      tag_110\n      jumpi\n      0x00\n      dup1\n      revert\n    tag_110:\n      pop\n      tag_111\n      tag_112\n      jump\t// in\n    tag_111:\n      mload(0x40)\n      tag_113\n      swap2\n      swap1\n      tag_42\n      jump\t// in\n    tag_113:\n      mload(0x40)\n      dup1\n      swap2\n      sub\n      swap1\n      return\n        /* \"contracts/nct v4.sol\":1757:1930  function balanceOf(address tokenOwner)\r... */\n    tag_18:\n      callvalue\n      dup1\n      iszero\n      tag_114\n      jumpi\n      0x00\n      dup1\n      revert\n    tag_114:\n      pop\n      tag_115\n      0x04\n      dup1\n      calldatasize\n      sub\n      dup2\n      add\n      swap1\n      tag_116\n      swap2\n      swap1\n      tag_71\n      jump\t// in\n    tag_116:\n      tag_117\n      jump\t// in\n    tag_115:\n      mload(0x40)\n      tag_118\n      swap2\n      swap1\n      tag_42\n      jump\t// in\n    tag_118:\n      mload(0x40)\n      dup1\n      swap2\n      sub\n      swap1\n      return\n        /* \"contracts/nct v4.sol\":3789:3831  uint256 public minInvestment = 0.001 ether */\n    tag_19:\n      callvalue\n      dup1\n      iszero\n      tag_119\n      jumpi\n      0x00\n      dup1\n      revert\n    tag_119:\n      pop\n      tag_120\n      tag_121\n      jump\t// in\n    tag_120:\n      mload(0x40)\n      tag_122\n      swap2\n      swap1\n      tag_42\n      jump\t// in\n    tag_122:\n      mload(0x40)\n      dup1\n      swap2\n      sub\n      swap1\n      return\n        /* \"contracts/nct v4.sol\":5103:5222  function setPrice(uint256 _tokenPrice)public {\r... */\n    tag_20:\n      callvalue\n      dup1\n      iszero\n      tag_123\n      jumpi\n      0x00\n      dup1\n      revert\n    tag_123:\n      pop\n      tag_124\n      0x04\n      dup1\n      calldatasize\n      sub\n      dup2\n      add\n      swap1\n      tag_125\n      swap2\n      swap1\n      tag_76\n      jump\t// in\n    tag_125:\n      tag_126\n      jump\t// in\n    tag_124:\n      stop\n        /* \"contracts/nct v4.sol\":1281:1309  string public symbol = \"NCT\" */\n    tag_21:\n      callvalue\n      dup1\n      iszero\n      tag_127\n      jumpi\n      0x00\n      dup1\n      revert\n    tag_127:\n      pop\n      tag_128\n      tag_129\n      jump\t// in\n    tag_128:\n      mload(0x40)\n      tag_130\n      swap2\n      swap1\n      tag_50\n      jump\t// in\n    tag_130:\n      mload(0x40)\n      dup1\n      swap2\n      sub\n      swap1\n      return\n        /* \"contracts/nct v4.sol\":6434:6838  function transfer(address to, uint256 tokens)\r... */\n    tag_22:\n      callvalue\n      dup1\n      iszero\n      tag_131\n      jumpi\n      0x00\n      dup1\n      revert\n    tag_131:\n      pop\n      tag_132\n      0x04\n      dup1\n      calldatasize\n      sub\n      dup2\n      add\n      swap1\n      tag_133\n      swap2\n      swap1\n      tag_54\n      jump\t// in\n    tag_133:\n      tag_134\n      jump\t// in\n    tag_132:\n      mload(0x40)\n      tag_135\n      swap2\n      swap1\n      tag_57\n      jump\t// in\n    tag_135:\n      mload(0x40)\n      dup1\n      swap2\n      sub\n      swap1\n      return\n        /* \"contracts/nct v4.sol\":3491:3533  uint256 public saleStart = block.timestamp */\n    tag_23:\n      callvalue\n      dup1\n      iszero\n      tag_136\n      jumpi\n      0x00\n      dup1\n      revert\n    tag_136:\n      pop\n      tag_137\n      tag_138\n      jump\t// in\n    tag_137:\n      mload(0x40)\n      tag_139\n      swap2\n      swap1\n      tag_42\n      jump\t// in\n    tag_139:\n      mload(0x40)\n      dup1\n      swap2\n      sub\n      swap1\n      return\n        /* \"contracts/nct v4.sol\":3540:3589  uint256 public saleEnd = block.timestamp + 604800 */\n    tag_24:\n      callvalue\n      dup1\n      iszero\n      tag_140\n      jumpi\n      0x00\n      dup1\n      revert\n    tag_140:\n      pop\n      tag_141\n      tag_142\n      jump\t// in\n    tag_141:\n      mload(0x40)\n      tag_143\n      swap2\n      swap1\n      tag_42\n      jump\t// in\n    tag_143:\n      mload(0x40)\n      dup1\n      swap2\n      sub\n      swap1\n      return\n        /* \"contracts/nct v4.sol\":3428:3455  uint256 public raisedAmount */\n    tag_25:\n      callvalue\n      dup1\n      iszero\n      tag_144\n      jumpi\n      0x00\n      dup1\n      revert\n    tag_144:\n      pop\n      tag_145\n      tag_146\n      jump\t// in\n    tag_145:\n      mload(0x40)\n      tag_147\n      swap2\n      swap1\n      tag_42\n      jump\t// in\n    tag_147:\n      mload(0x40)\n      dup1\n      swap2\n      sub\n      swap1\n      return\n        /* \"contracts/nct v4.sol\":3649:3698  uint256 public tokenTradeStart = saleEnd + 604800 */\n    tag_26:\n      callvalue\n      dup1\n      iszero\n      tag_148\n      jumpi\n      0x00\n      dup1\n      revert\n    tag_148:\n      pop\n      tag_149\n      tag_150\n      jump\t// in\n    tag_149:\n      mload(0x40)\n      tag_151\n      swap2\n      swap1\n      tag_42\n      jump\t// in\n    tag_151:\n      mload(0x40)\n      dup1\n      swap2\n      sub\n      swap1\n      return\n        /* \"contracts/nct v4.sol\":3276:3306  address payable public deposit */\n    tag_27:\n      callvalue\n      dup1\n      iszero\n      tag_152\n      jumpi\n      0x00\n      dup1\n      revert\n    tag_152:\n      pop\n      tag_153\n      tag_154\n      jump\t// in\n    tag_153:\n      mload(0x40)\n      tag_155\n      swap2\n      swap1\n      tag_156\n      jump\t// in\n    tag_155:\n      mload(0x40)\n      dup1\n      swap2\n      sub\n      swap1\n      return\n        /* \"contracts/nct v4.sol\":2286:2476  function allowance(address tokenOwner, address spender)\r... */\n    tag_28:\n      callvalue\n      dup1\n      iszero\n      tag_157\n      jumpi\n      0x00\n      dup1\n      revert\n    tag_157:\n      pop\n      tag_158\n      0x04\n      dup1\n      calldatasize\n      sub\n      dup2\n      add\n      swap1\n      tag_159\n      swap2\n      swap1\n      tag_160\n      jump\t// in\n    tag_159:\n      tag_161\n      jump\t// in\n    tag_158:\n      mload(0x40)\n      tag_162\n      swap2\n      swap1\n      tag_42\n      jump\t// in\n    tag_162:\n      mload(0x40)\n      dup1\n      swap2\n      sub\n      swap1\n      return\n        /* \"contracts/nct v4.sol\":5224:5330  function getPrice(uint256 token) public view returns(uint256){\r... */\n    tag_29:\n      callvalue\n      dup1\n      iszero\n      tag_163\n      jumpi\n      0x00\n      dup1\n      revert\n    tag_163:\n      pop\n      tag_164\n      0x04\n      dup1\n      calldatasize\n      sub\n      dup2\n      add\n      swap1\n      tag_165\n      swap2\n      swap1\n      tag_76\n      jump\t// in\n    tag_165:\n      tag_166\n      jump\t// in\n    tag_164:\n      mload(0x40)\n      tag_167\n      swap2\n      swap1\n      tag_42\n      jump\t// in\n    tag_167:\n      mload(0x40)\n      dup1\n      swap2\n      sub\n      swap1\n      return\n        /* \"contracts/nct v4.sol\":3249:3269  address public admin */\n    tag_30:\n      callvalue\n      dup1\n      iszero\n      tag_168\n      jumpi\n      0x00\n      dup1\n      revert\n    tag_168:\n      pop\n      tag_169\n      tag_170\n      jump\t// in\n    tag_169:\n      mload(0x40)\n      tag_171\n      swap2\n      swap1\n      tag_99\n      jump\t// in\n    tag_171:\n      mload(0x40)\n      dup1\n      swap2\n      sub\n      swap1\n      return\n        /* \"contracts/nct v4.sol\":3744:3782  uint256 public maxInvestment = 5 ether */\n    tag_40:\n      sload(0x10)\n      dup2\n      jump\t// out\n        /* \"contracts/nct v4.sol\":4300:4378  function resume() public onlyAdmin {\r... */\n    tag_45:\n        /* \"contracts/nct v4.sol\":4266:4271  admin */\n      0x07\n      0x00\n      swap1\n      sload\n      swap1\n      0x0100\n      exp\n      swap1\n      div\n      0xffffffffffffffffffffffffffffffffffffffff\n      and\n        /* \"contracts/nct v4.sol\":4252:4271  msg.sender == admin */\n      0xffffffffffffffffffffffffffffffffffffffff\n      and\n        /* \"contracts/nct v4.sol\":4252:4262  msg.sender */\n      caller\n        /* \"contracts/nct v4.sol\":4252:4271  msg.sender == admin */\n      0xffffffffffffffffffffffffffffffffffffffff\n      and\n      eq\n        /* \"contracts/nct v4.sol\":4244:4272  require(msg.sender == admin) */\n      tag_173\n      jumpi\n      0x00\n      dup1\n      revert\n    tag_173:\n        /* \"contracts/nct v4.sol\":4357:4370  State.running */\n      0x01\n        /* \"contracts/nct v4.sol\":4346:4354  icoState */\n      0x12\n      0x00\n        /* \"contracts/nct v4.sol\":4346:4370  icoState = State.running */\n      0x0100\n      exp\n      dup2\n      sload\n      dup2\n      0xff\n      mul\n      not\n      and\n      swap1\n      dup4\n      0x03\n      dup2\n      gt\n      iszero\n      tag_175\n      jumpi\n      tag_176\n      tag_177\n      jump\t// in\n    tag_176:\n    tag_175:\n      mul\n      or\n      swap1\n      sstore\n      pop\n        /* \"contracts/nct v4.sol\":4300:4378  function resume() public onlyAdmin {\r... */\n      jump\t// out\n        /* \"contracts/nct v4.sol\":1237:1274  string public name = \"Nations Combat\" */\n    tag_48:\n      0x00\n      dup1\n      sload\n      tag_178\n      swap1\n      tag_179\n      jump\t// in\n    tag_178:\n      dup1\n      0x1f\n      add\n      0x20\n      dup1\n      swap2\n      div\n      mul\n      0x20\n      add\n      mload(0x40)\n      swap1\n      dup2\n      add\n      0x40\n      mstore\n      dup1\n      swap3\n      swap2\n      swap1\n      dup2\n      dup2\n      mstore\n      0x20\n      add\n      dup3\n      dup1\n      sload\n      tag_180\n      swap1\n      tag_179\n      jump\t// in\n    tag_180:\n      dup1\n      iszero\n      tag_181\n      jumpi\n      dup1\n      0x1f\n      lt\n      tag_182\n      jumpi\n      0x0100\n      dup1\n      dup4\n      sload\n      div\n      mul\n      dup4\n      mstore\n      swap2\n      0x20\n      add\n      swap2\n      jump(tag_181)\n    tag_182:\n      dup3\n      add\n      swap2\n      swap1\n      0x00\n      mstore\n      keccak256(0x00, 0x20)\n      swap1\n    tag_183:\n      dup2\n      sload\n      dup2\n      mstore\n      swap1\n      0x01\n      add\n      swap1\n      0x20\n      add\n      dup1\n      dup4\n      gt\n      tag_183\n      jumpi\n      dup3\n      swap1\n      sub\n      0x1f\n      and\n      dup3\n      add\n      swap2\n    tag_181:\n      pop\n      pop\n      pop\n      pop\n      pop\n      dup2\n      jump\t// out\n        /* \"contracts/nct v4.sol\":2484:2820  function approve(address spender, uint256 tokens)\r... */\n    tag_55:\n        /* \"contracts/nct v4.sol\":2586:2598  bool success */\n      0x00\n        /* \"contracts/nct v4.sol\":2648:2654  tokens */\n      dup2\n        /* \"contracts/nct v4.sol\":2624:2632  balances */\n      0x05\n        /* \"contracts/nct v4.sol\":2624:2644  balances[msg.sender] */\n      0x00\n        /* \"contracts/nct v4.sol\":2633:2643  msg.sender */\n      caller\n        /* \"contracts/nct v4.sol\":2624:2644  balances[msg.sender] */\n      0xffffffffffffffffffffffffffffffffffffffff\n      and\n      0xffffffffffffffffffffffffffffffffffffffff\n      and\n      dup2\n      mstore\n      0x20\n      add\n      swap1\n      dup2\n      mstore\n      0x20\n      add\n      0x00\n      keccak256\n      sload\n        /* \"contracts/nct v4.sol\":2624:2654  balances[msg.sender] >= tokens */\n      lt\n      iszero\n        /* \"contracts/nct v4.sol\":2616:2655  require(balances[msg.sender] >= tokens) */\n      tag_185\n      jumpi\n      0x00\n      dup1\n      revert\n    tag_185:\n        /* \"contracts/nct v4.sol\":2683:2684  0 */\n      0x00\n        /* \"contracts/nct v4.sol\":2674:2680  tokens */\n      dup3\n        /* \"contracts/nct v4.sol\":2674:2684  tokens > 0 */\n      gt\n        /* \"contracts/nct v4.sol\":2666:2685  require(tokens > 0) */\n      tag_186\n      jumpi\n      0x00\n      dup1\n      revert\n    tag_186:\n        /* \"contracts/nct v4.sol\":2729:2735  tokens */\n      dup2\n        /* \"contracts/nct v4.sol\":2698:2705  allowed */\n      0x06\n        /* \"contracts/nct v4.sol\":2698:2717  allowed[msg.sender] */\n      0x00\n        /* \"contracts/nct v4.sol\":2706:2716  msg.sender */\n      caller\n        /* \"contracts/nct v4.sol\":2698:2717  allowed[msg.sender] */\n      0xffffffffffffffffffffffffffffffffffffffff\n      and\n      0xffffffffffffffffffffffffffffffffffffffff\n      and\n      dup2\n      mstore\n      0x20\n      add\n      swap1\n      dup2\n      mstore\n      0x20\n      add\n      0x00\n      keccak256\n        /* \"contracts/nct v4.sol\":2698:2726  allowed[msg.sender][spender] */\n      0x00\n        /* \"contracts/nct v4.sol\":2718:2725  spender */\n      dup6\n        /* \"contracts/nct v4.sol\":2698:2726  allowed[msg.sender][spender] */\n      0xffffffffffffffffffffffffffffffffffffffff\n      and\n      0xffffffffffffffffffffffffffffffffffffffff\n      and\n      dup2\n      mstore\n      0x20\n      add\n      swap1\n      dup2\n      mstore\n      0x20\n      add\n      0x00\n      keccak256\n        /* \"contracts/nct v4.sol\":2698:2735  allowed[msg.sender][spender] = tokens */\n      dup2\n      swap1\n      sstore\n      pop\n        /* \"contracts/nct v4.sol\":2774:2781  spender */\n      dup3\n        /* \"contracts/nct v4.sol\":2753:2790  Approval(msg.sender, spender, tokens) */\n      0xffffffffffffffffffffffffffffffffffffffff\n      and\n        /* \"contracts/nct v4.sol\":2762:2772  msg.sender */\n      caller\n        /* \"contracts/nct v4.sol\":2753:2790  Approval(msg.sender, spender, tokens) */\n      0xffffffffffffffffffffffffffffffffffffffff\n      and\n      0x8c5be1e5ebec7d5bd14f71427d1e84f3dd0314c0f7b2291e5b200ac8c7c3b925\n        /* \"contracts/nct v4.sol\":2783:2789  tokens */\n      dup5\n        /* \"contracts/nct v4.sol\":2753:2790  Approval(msg.sender, spender, tokens) */\n      mload(0x40)\n      tag_187\n      swap2\n      swap1\n      tag_42\n      jump\t// in\n    tag_187:\n      mload(0x40)\n      dup1\n      swap2\n      sub\n      swap1\n      log3\n        /* \"contracts/nct v4.sol\":2808:2812  true */\n      0x01\n        /* \"contracts/nct v4.sol\":2801:2812  return true */\n      swap1\n      pop\n        /* \"contracts/nct v4.sol\":2484:2820  function approve(address spender, uint256 tokens)\r... */\n      swap3\n      swap2\n      pop\n      pop\n      jump\t// out\n        /* \"contracts/nct v4.sol\":1351:1386  uint256 public override totalSupply */\n    tag_60:\n      sload(0x03)\n      dup2\n      jump\t// out\n        /* \"contracts/nct v4.sol\":7255:7630  function transferFrom(\r... */\n    tag_66:\n        /* \"contracts/nct v4.sol\":7378:7390  bool success */\n      0x00\n        /* \"contracts/nct v4.sol\":7429:7444  tokenTradeStart */\n      sload(0x0f)\n        /* \"contracts/nct v4.sol\":7411:7426  block.timestamp */\n      timestamp\n        /* \"contracts/nct v4.sol\":7411:7444  block.timestamp > tokenTradeStart */\n      gt\n        /* \"contracts/nct v4.sol\":7403:7445  require(block.timestamp > tokenTradeStart) */\n      tag_189\n      jumpi\n      0x00\n      dup1\n      revert\n    tag_189:\n        /* \"contracts/nct v4.sol\":7519:7557  Cryptos.transferFrom(from, to, tokens) */\n      tag_190\n        /* \"contracts/nct v4.sol\":7540:7544  from */\n      dup5\n        /* \"contracts/nct v4.sol\":7546:7548  to */\n      dup5\n        /* \"contracts/nct v4.sol\":7550:7556  tokens */\n      dup5\n        /* \"contracts/nct v4.sol\":7519:7539  Cryptos.transferFrom */\n      tag_191\n        /* \"contracts/nct v4.sol\":7519:7557  Cryptos.transferFrom(from, to, tokens) */\n      jump\t// in\n    tag_190:\n      pop\n        /* \"contracts/nct v4.sol\":7618:7622  true */\n      0x01\n        /* \"contracts/nct v4.sol\":7611:7622  return true */\n      swap1\n      pop\n        /* \"contracts/nct v4.sol\":7255:7630  function transferFrom(\r... */\n      swap4\n      swap3\n      pop\n      pop\n      pop\n      jump\t// out\n        /* \"contracts/nct v4.sol\":1424:1467  mapping(address => uint256) public balances */\n    tag_72:\n      mstore(0x20, 0x05)\n      dup1\n      0x00\n      mstore\n      keccak256(0x00, 0x40)\n      0x00\n      swap2\n      pop\n      swap1\n      pop\n      sload\n      dup2\n      jump\t// out\n        /* \"contracts/nct v4.sol\":5393:6319  function invest(uint256 token) public payable returns (bool) {\r... */\n    tag_77:\n        /* \"contracts/nct v4.sol\":5448:5452  bool */\n      0x00\n        /* \"contracts/nct v4.sol\":5476:5493  getCurrentState() */\n      tag_193\n        /* \"contracts/nct v4.sol\":5476:5491  getCurrentState */\n      tag_85\n        /* \"contracts/nct v4.sol\":5476:5493  getCurrentState() */\n      jump\t// in\n    tag_193:\n        /* \"contracts/nct v4.sol\":5465:5473  icoState */\n      0x12\n      0x00\n        /* \"contracts/nct v4.sol\":5465:5493  icoState = getCurrentState() */\n      0x0100\n      exp\n      dup2\n      sload\n      dup2\n      0xff\n      mul\n      not\n      and\n      swap1\n      dup4\n      0x03\n      dup2\n      gt\n      iszero\n      tag_194\n      jumpi\n      tag_195\n      tag_177\n      jump\t// in\n    tag_195:\n    tag_194:\n      mul\n      or\n      swap1\n      sstore\n      pop\n        /* \"contracts/nct v4.sol\":5524:5537  State.running */\n      0x01\n        /* \"contracts/nct v4.sol\":5512:5537  icoState == State.running */\n      0x03\n      dup2\n      gt\n      iszero\n      tag_196\n      jumpi\n      tag_197\n      tag_177\n      jump\t// in\n    tag_197:\n    tag_196:\n        /* \"contracts/nct v4.sol\":5512:5520  icoState */\n      0x12\n      0x00\n      swap1\n      sload\n      swap1\n      0x0100\n      exp\n      swap1\n      div\n      0xff\n      and\n        /* \"contracts/nct v4.sol\":5512:5537  icoState == State.running */\n      0x03\n      dup2\n      gt\n      iszero\n      tag_198\n      jumpi\n      tag_199\n      tag_177\n      jump\t// in\n    tag_199:\n    tag_198:\n      eq\n        /* \"contracts/nct v4.sol\":5504:5562  require(icoState == State.running ,\"State is not running\") */\n      tag_200\n      jumpi\n      mload(0x40)\n      0x08c379a000000000000000000000000000000000000000000000000000000000\n      dup2\n      mstore\n      0x04\n      add\n      tag_201\n      swap1\n      tag_202\n      jump\t// in\n    tag_201:\n      mload(0x40)\n      dup1\n      swap2\n      sub\n      swap1\n      revert\n    tag_200:\n        /* \"contracts/nct v4.sol\":5586:5613  multiply(token, tokenPrice) */\n      tag_203\n        /* \"contracts/nct v4.sol\":5595:5600  token */\n      dup3\n        /* \"contracts/nct v4.sol\":5602:5612  tokenPrice */\n      sload(0x09)\n        /* \"contracts/nct v4.sol\":5586:5594  multiply */\n      tag_204\n        /* \"contracts/nct v4.sol\":5586:5613  multiply(token, tokenPrice) */\n      jump\t// in\n    tag_203:\n        /* \"contracts/nct v4.sol\":5573:5582  msg.value */\n      callvalue\n        /* \"contracts/nct v4.sol\":5573:5613  msg.value == multiply(token, tokenPrice) */\n      eq\n        /* \"contracts/nct v4.sol\":5565:5639  require(msg.value == multiply(token, tokenPrice),\"eth sent is not enough\") */\n      tag_205\n      jumpi\n      mload(0x40)\n      0x08c379a000000000000000000000000000000000000000000000000000000000\n      dup2\n      mstore\n      0x04\n      add\n      tag_206\n      swap1\n      tag_207\n      jump\t// in\n    tag_206:\n      mload(0x40)\n      dup1\n      swap2\n      sub\n      swap1\n      revert\n    tag_205:\n        /* \"contracts/nct v4.sol\":5705:5711  10**18 */\n      0x0de0b6b3a7640000\n        /* \"contracts/nct v4.sol\":5699:5704  token */\n      dup3\n        /* \"contracts/nct v4.sol\":5699:5711  token*10**18 */\n      tag_208\n      swap2\n      swap1\n      tag_209\n      jump\t// in\n    tag_208:\n        /* \"contracts/nct v4.sol\":5658:5671  tokenContract */\n      0x0e\n      0x00\n      swap1\n      sload\n      swap1\n      0x0100\n      exp\n      swap1\n      div\n      0xffffffffffffffffffffffffffffffffffffffff\n      and\n        /* \"contracts/nct v4.sol\":5658:5681  tokenContract.balanceOf */\n      0xffffffffffffffffffffffffffffffffffffffff\n      and\n      0x70a08231\n        /* \"contracts/nct v4.sol\":5690:5694  this */\n      address\n        /* \"contracts/nct v4.sol\":5658:5696  tokenContract.balanceOf(address(this)) */\n      mload(0x40)\n      dup3\n      0xffffffff\n      and\n      0xe0\n      shl\n      dup2\n      mstore\n      0x04\n      add\n      tag_210\n      swap2\n      swap1\n      tag_99\n      jump\t// in\n    tag_210:\n      0x20\n      mload(0x40)\n      dup1\n      dup4\n      sub\n      dup2\n      dup7\n      dup1\n      extcodesize\n      iszero\n      dup1\n      iszero\n      tag_211\n      jumpi\n      0x00\n      dup1\n      revert\n    tag_211:\n      pop\n      gas\n      staticcall\n      iszero\n      dup1\n      iszero\n      tag_213\n      jumpi\n      returndatasize\n      0x00\n      dup1\n      returndatacopy\n      revert(0x00, returndatasize)\n    tag_213:\n      pop\n      pop\n      pop\n      pop\n      mload(0x40)\n      returndatasize\n      not(0x1f)\n      0x1f\n      dup3\n      add\n      and\n      dup3\n      add\n      dup1\n      0x40\n      mstore\n      pop\n      dup2\n      add\n      swap1\n      tag_214\n      swap2\n      swap1\n      tag_215\n      jump\t// in\n    tag_214:\n        /* \"contracts/nct v4.sol\":5658:5711  tokenContract.balanceOf(address(this))>= token*10**18 */\n      lt\n      iszero\n        /* \"contracts/nct v4.sol\":5650:5745  require(tokenContract.balanceOf(address(this))>= token*10**18,\"No more token in the contract!\") */\n      tag_216\n      jumpi\n      mload(0x40)\n      0x08c379a000000000000000000000000000000000000000000000000000000000\n      dup2\n      mstore\n      0x04\n      add\n      tag_217\n      swap1\n      tag_218\n      jump\t// in\n    tag_217:\n      mload(0x40)\n      dup1\n      swap2\n      sub\n      swap1\n      revert\n    tag_216:\n        /* \"contracts/nct v4.sol\":5764:5777  tokenContract */\n      0x0e\n      0x00\n      swap1\n      sload\n      swap1\n      0x0100\n      exp\n      swap1\n      div\n      0xffffffffffffffffffffffffffffffffffffffff\n      and\n        /* \"contracts/nct v4.sol\":5764:5786  tokenContract.transfer */\n      0xffffffffffffffffffffffffffffffffffffffff\n      and\n      0xa9059cbb\n        /* \"contracts/nct v4.sol\":5787:5797  msg.sender */\n      caller\n        /* \"contracts/nct v4.sol\":5805:5811  10**18 */\n      0x0de0b6b3a7640000\n        /* \"contracts/nct v4.sol\":5799:5804  token */\n      dup6\n        /* \"contracts/nct v4.sol\":5799:5811  token*10**18 */\n      tag_219\n      swap2\n      swap1\n      tag_209\n      jump\t// in\n    tag_219:\n        /* \"contracts/nct v4.sol\":5764:5812  tokenContract.transfer(msg.sender, token*10**18) */\n      mload(0x40)\n      dup4\n      0xffffffff\n      and\n      0xe0\n      shl\n      dup2\n      mstore\n      0x04\n      add\n      tag_220\n      swap3\n      swap2\n      swap1\n      tag_221\n      jump\t// in\n    tag_220:\n      0x20\n      mload(0x40)\n      dup1\n      dup4\n      sub\n      dup2\n      0x00\n      dup8\n      dup1\n      extcodesize\n      iszero\n      dup1\n      iszero\n      tag_222\n      jumpi\n      0x00\n      dup1\n      revert\n    tag_222:\n      pop\n      gas\n      call\n      iszero\n      dup1\n      iszero\n      tag_224\n      jumpi\n      returndatasize\n      0x00\n      dup1\n      returndatacopy\n      revert(0x00, returndatasize)\n    tag_224:\n      pop\n      pop\n      pop\n      pop\n      mload(0x40)\n      returndatasize\n      not(0x1f)\n      0x1f\n      dup3\n      add\n      and\n      dup3\n      add\n      dup1\n      0x40\n      mstore\n      pop\n      dup2\n      add\n      swap1\n      tag_225\n      swap2\n      swap1\n      tag_226\n      jump\t// in\n    tag_225:\n        /* \"contracts/nct v4.sol\":5756:5813  require(tokenContract.transfer(msg.sender, token*10**18)) */\n      tag_227\n      jumpi\n      0x00\n      dup1\n      revert\n    tag_227:\n        /* \"contracts/nct v4.sol\":5857:5870  minInvestment */\n      sload(0x11)\n        /* \"contracts/nct v4.sol\":5844:5853  msg.value */\n      callvalue\n        /* \"contracts/nct v4.sol\":5844:5870  msg.value >= minInvestment */\n      lt\n      iszero\n        /* \"contracts/nct v4.sol\":5844:5900  msg.value >= minInvestment && msg.value <= maxInvestment */\n      dup1\n      iszero\n      tag_228\n      jumpi\n      pop\n        /* \"contracts/nct v4.sol\":5887:5900  maxInvestment */\n      sload(0x10)\n        /* \"contracts/nct v4.sol\":5874:5883  msg.value */\n      callvalue\n        /* \"contracts/nct v4.sol\":5874:5900  msg.value <= maxInvestment */\n      gt\n      iszero\n        /* \"contracts/nct v4.sol\":5844:5900  msg.value >= minInvestment && msg.value <= maxInvestment */\n    tag_228:\n        /* \"contracts/nct v4.sol\":5836:5934  require(msg.value >= minInvestment && msg.value <= maxInvestment,\"Max or Min investment Exceeded\") */\n      tag_229\n      jumpi\n      mload(0x40)\n      0x08c379a000000000000000000000000000000000000000000000000000000000\n      dup2\n      mstore\n      0x04\n      add\n      tag_230\n      swap1\n      tag_231\n      jump\t// in\n    tag_230:\n      mload(0x40)\n      dup1\n      swap2\n      sub\n      swap1\n      revert\n    tag_229:\n        /* \"contracts/nct v4.sol\":5963:5972  msg.value */\n      callvalue\n        /* \"contracts/nct v4.sol\":5947:5959  raisedAmount */\n      0x0b\n      0x00\n        /* \"contracts/nct v4.sol\":5947:5972  raisedAmount += msg.value */\n      dup3\n      dup3\n      sload\n      tag_232\n      swap2\n      swap1\n      tag_233\n      jump\t// in\n    tag_232:\n      swap3\n      pop\n      pop\n      dup2\n      swap1\n      sstore\n      pop\n        /* \"contracts/nct v4.sol\":6089:6094  token */\n      dup2\n        /* \"contracts/nct v4.sol\":6065:6073  balances */\n      0x05\n        /* \"contracts/nct v4.sol\":6065:6085  balances[msg.sender] */\n      0x00\n        /* \"contracts/nct v4.sol\":6074:6084  msg.sender */\n      caller\n        /* \"contracts/nct v4.sol\":6065:6085  balances[msg.sender] */\n      0xffffffffffffffffffffffffffffffffffffffff\n      and\n      0xffffffffffffffffffffffffffffffffffffffff\n      and\n      dup2\n      mstore\n      0x20\n      add\n      swap1\n      dup2\n      mstore\n      0x20\n      add\n      0x00\n      keccak256\n      0x00\n        /* \"contracts/nct v4.sol\":6065:6094  balances[msg.sender] += token */\n      dup3\n      dup3\n      sload\n      tag_234\n      swap2\n      swap1\n      tag_233\n      jump\t// in\n    tag_234:\n      swap3\n      pop\n      pop\n      dup2\n      swap1\n      sstore\n      pop\n        /* \"contracts/nct v4.sol\":6126:6131  token */\n      dup2\n        /* \"contracts/nct v4.sol\":6105:6113  balances */\n      0x05\n        /* \"contracts/nct v4.sol\":6105:6122  balances[founder] */\n      0x00\n        /* \"contracts/nct v4.sol\":6114:6121  founder */\n      0x04\n      0x00\n      swap1\n      sload\n      swap1\n      0x0100\n      exp\n      swap1\n      div\n      0xffffffffffffffffffffffffffffffffffffffff\n      and\n        /* \"contracts/nct v4.sol\":6105:6122  balances[founder] */\n      0xffffffffffffffffffffffffffffffffffffffff\n      and\n      0xffffffffffffffffffffffffffffffffffffffff\n      and\n      dup2\n      mstore\n      0x20\n      add\n      swap1\n      dup2\n      mstore\n      0x20\n      add\n      0x00\n      keccak256\n      0x00\n        /* \"contracts/nct v4.sol\":6105:6131  balances[founder] -= token */\n      dup3\n      dup3\n      sload\n      tag_235\n      swap2\n      swap1\n      tag_236\n      jump\t// in\n    tag_235:\n      swap3\n      pop\n      pop\n      dup2\n      swap1\n      sstore\n      pop\n        /* \"contracts/nct v4.sol\":6142:6149  deposit */\n      0x08\n      0x00\n      swap1\n      sload\n      swap1\n      0x0100\n      exp\n      swap1\n      div\n      0xffffffffffffffffffffffffffffffffffffffff\n      and\n        /* \"contracts/nct v4.sol\":6142:6158  deposit.transfer */\n      0xffffffffffffffffffffffffffffffffffffffff\n      and\n        /* \"contracts/nct v4.sol\":6142:6169  deposit.transfer(msg.value) */\n      0x08fc\n        /* \"contracts/nct v4.sol\":6159:6168  msg.value */\n      callvalue\n        /* \"contracts/nct v4.sol\":6142:6169  deposit.transfer(msg.value) */\n      swap1\n      dup2\n      iszero\n      mul\n      swap1\n      mload(0x40)\n      0x00\n      mload(0x40)\n      dup1\n      dup4\n      sub\n      dup2\n      dup6\n      dup9\n      dup9\n      call\n      swap4\n      pop\n      pop\n      pop\n      pop\n      iszero\n      dup1\n      iszero\n      tag_238\n      jumpi\n      returndatasize\n      0x00\n      dup1\n      returndatacopy\n      revert(0x00, returndatasize)\n    tag_238:\n      pop\n        /* \"contracts/nct v4.sol\":6251:6287  Invest(msg.sender, msg.value, token) */\n      0x4ae4bd7655e0d350876a23cd90c4227b13db560e34435c6a488150a9c844bf5f\n        /* \"contracts/nct v4.sol\":6258:6268  msg.sender */\n      caller\n        /* \"contracts/nct v4.sol\":6270:6279  msg.value */\n      callvalue\n        /* \"contracts/nct v4.sol\":6281:6286  token */\n      dup5\n        /* \"contracts/nct v4.sol\":6251:6287  Invest(msg.sender, msg.value, token) */\n      mload(0x40)\n      tag_239\n      swap4\n      swap3\n      swap2\n      swap1\n      tag_240\n      jump\t// in\n    tag_239:\n      mload(0x40)\n      dup1\n      swap2\n      sub\n      swap1\n      log1\n        /* \"contracts/nct v4.sol\":6307:6311  true */\n      0x01\n        /* \"contracts/nct v4.sol\":6300:6311  return true */\n      swap1\n      pop\n        /* \"contracts/nct v4.sol\":5393:6319  function invest(uint256 token) public payable returns (bool) {\r... */\n      swap2\n      swap1\n      pop\n      jump\t// out\n        /* \"contracts/nct v4.sol\":1316:1344  uint256 public decimals = 18 */\n    tag_81:\n      sload(0x02)\n      dup2\n      jump\t// out\n        /* \"contracts/nct v4.sol\":4508:4918  function getCurrentState() public view returns (State) {\r... */\n    tag_85:\n        /* \"contracts/nct v4.sol\":4556:4561  State */\n      0x00\n        /* \"contracts/nct v4.sol\":4590:4602  State.halted */\n      0x03\n        /* \"contracts/nct v4.sol\":4578:4602  icoState == State.halted */\n      dup1\n      dup2\n      gt\n      iszero\n      tag_242\n      jumpi\n      tag_243\n      tag_177\n      jump\t// in\n    tag_243:\n    tag_242:\n        /* \"contracts/nct v4.sol\":4578:4586  icoState */\n      0x12\n      0x00\n      swap1\n      sload\n      swap1\n      0x0100\n      exp\n      swap1\n      div\n      0xff\n      and\n        /* \"contracts/nct v4.sol\":4578:4602  icoState == State.halted */\n      0x03\n      dup2\n      gt\n      iszero\n      tag_244\n      jumpi\n      tag_245\n      tag_177\n      jump\t// in\n    tag_245:\n    tag_244:\n      eq\n        /* \"contracts/nct v4.sol\":4574:4911  if (icoState == State.halted) {\r... */\n      iszero\n      tag_246\n      jumpi\n        /* \"contracts/nct v4.sol\":4626:4638  State.halted */\n      0x03\n        /* \"contracts/nct v4.sol\":4619:4638  return State.halted */\n      swap1\n      pop\n      jump(tag_241)\n        /* \"contracts/nct v4.sol\":4574:4911  if (icoState == State.halted) {\r... */\n    tag_246:\n        /* \"contracts/nct v4.sol\":4678:4687  saleStart */\n      sload(0x0c)\n        /* \"contracts/nct v4.sol\":4660:4675  block.timestamp */\n      timestamp\n        /* \"contracts/nct v4.sol\":4660:4687  block.timestamp < saleStart */\n      lt\n        /* \"contracts/nct v4.sol\":4656:4911  if (block.timestamp < saleStart) {\r... */\n      iszero\n      tag_248\n      jumpi\n        /* \"contracts/nct v4.sol\":4711:4728  State.beforeStart */\n      0x00\n        /* \"contracts/nct v4.sol\":4704:4728  return State.beforeStart */\n      swap1\n      pop\n      jump(tag_241)\n        /* \"contracts/nct v4.sol\":4656:4911  if (block.timestamp < saleStart) {\r... */\n    tag_248:\n        /* \"contracts/nct v4.sol\":4769:4778  saleStart */\n      sload(0x0c)\n        /* \"contracts/nct v4.sol\":4750:4765  block.timestamp */\n      timestamp\n        /* \"contracts/nct v4.sol\":4750:4778  block.timestamp >= saleStart */\n      lt\n      iszero\n        /* \"contracts/nct v4.sol\":4750:4808  block.timestamp >= saleStart && block.timestamp <= saleEnd */\n      dup1\n      iszero\n      tag_250\n      jumpi\n      pop\n        /* \"contracts/nct v4.sol\":4801:4808  saleEnd */\n      sload(0x0d)\n        /* \"contracts/nct v4.sol\":4782:4797  block.timestamp */\n      timestamp\n        /* \"contracts/nct v4.sol\":4782:4808  block.timestamp <= saleEnd */\n      gt\n      iszero\n        /* \"contracts/nct v4.sol\":4750:4808  block.timestamp >= saleStart && block.timestamp <= saleEnd */\n    tag_250:\n        /* \"contracts/nct v4.sol\":4746:4911  if (block.timestamp >= saleStart && block.timestamp <= saleEnd) {\r... */\n      iszero\n      tag_251\n      jumpi\n        /* \"contracts/nct v4.sol\":4832:4845  State.running */\n      0x01\n        /* \"contracts/nct v4.sol\":4825:4845  return State.running */\n      swap1\n      pop\n      jump(tag_241)\n        /* \"contracts/nct v4.sol\":4746:4911  if (block.timestamp >= saleStart && block.timestamp <= saleEnd) {\r... */\n    tag_251:\n        /* \"contracts/nct v4.sol\":4885:4899  State.afterEnd */\n      0x02\n        /* \"contracts/nct v4.sol\":4878:4899  return State.afterEnd */\n      swap1\n      pop\n        /* \"contracts/nct v4.sol\":4508:4918  function getCurrentState() public view returns (State) {\r... */\n    tag_241:\n      swap1\n      jump\t// out\n        /* \"contracts/nct v4.sol\":6846:7247  function endSale() public {\r... */\n    tag_90:\n        /* \"contracts/nct v4.sol\":6905:6910  admin */\n      0x07\n      0x00\n      swap1\n      sload\n      swap1\n      0x0100\n      exp\n      swap1\n      div\n      0xffffffffffffffffffffffffffffffffffffffff\n      and\n        /* \"contracts/nct v4.sol\":6891:6910  msg.sender == admin */\n      0xffffffffffffffffffffffffffffffffffffffff\n      and\n        /* \"contracts/nct v4.sol\":6891:6901  msg.sender */\n      caller\n        /* \"contracts/nct v4.sol\":6891:6910  msg.sender == admin */\n      0xffffffffffffffffffffffffffffffffffffffff\n      and\n      eq\n        /* \"contracts/nct v4.sol\":6883:6911  require(msg.sender == admin) */\n      tag_254\n      jumpi\n      0x00\n      dup1\n      revert\n    tag_254:\n        /* \"contracts/nct v4.sol\":6944:6957  tokenContract */\n      0x0e\n      0x00\n      swap1\n      sload\n      swap1\n      0x0100\n      exp\n      swap1\n      div\n      0xffffffffffffffffffffffffffffffffffffffff\n      and\n        /* \"contracts/nct v4.sol\":6944:6966  tokenContract.transfer */\n      0xffffffffffffffffffffffffffffffffffffffff\n      and\n      0xa9059cbb\n        /* \"contracts/nct v4.sol\":6985:6990  admin */\n      0x07\n      0x00\n      swap1\n      sload\n      swap1\n      0x0100\n      exp\n      swap1\n      div\n      0xffffffffffffffffffffffffffffffffffffffff\n      and\n        /* \"contracts/nct v4.sol\":7009:7022  tokenContract */\n      0x0e\n      0x00\n      swap1\n      sload\n      swap1\n      0x0100\n      exp\n      swap1\n      div\n      0xffffffffffffffffffffffffffffffffffffffff\n      and\n        /* \"contracts/nct v4.sol\":7009:7032  tokenContract.balanceOf */\n      0xffffffffffffffffffffffffffffffffffffffff\n      and\n      0x70a08231\n        /* \"contracts/nct v4.sol\":7041:7045  this */\n      address\n        /* \"contracts/nct v4.sol\":7009:7047  tokenContract.balanceOf(address(this)) */\n      mload(0x40)\n      dup3\n      0xffffffff\n      and\n      0xe0\n      shl\n      dup2\n      mstore\n      0x04\n      add\n      tag_255\n      swap2\n      swap1\n      tag_99\n      jump\t// in\n    tag_255:\n      0x20\n      mload(0x40)\n      dup1\n      dup4\n      sub\n      dup2\n      dup7\n      dup1\n      extcodesize\n      iszero\n      dup1\n      iszero\n      tag_256\n      jumpi\n      0x00\n      dup1\n      revert\n    tag_256:\n      pop\n      gas\n      staticcall\n      iszero\n      dup1\n      iszero\n      tag_258\n      jumpi\n      returndatasize\n      0x00\n      dup1\n      returndatacopy\n      revert(0x00, returndatasize)\n    tag_258:\n      pop\n      pop\n      pop\n      pop\n      mload(0x40)\n      returndatasize\n      not(0x1f)\n      0x1f\n      dup3\n      add\n      and\n      dup3\n      add\n      dup1\n      0x40\n      mstore\n      pop\n      dup2\n      add\n      swap1\n      tag_259\n      swap2\n      swap1\n      tag_215\n      jump\t// in\n    tag_259:\n        /* \"contracts/nct v4.sol\":6944:7062  tokenContract.transfer(\r... */\n      mload(0x40)\n      dup4\n      0xffffffff\n      and\n      0xe0\n      shl\n      dup2\n      mstore\n      0x04\n      add\n      tag_260\n      swap3\n      swap2\n      swap1\n      tag_221\n      jump\t// in\n    tag_260:\n      0x20\n      mload(0x40)\n      dup1\n      dup4\n      sub\n      dup2\n      0x00\n      dup8\n      dup1\n      extcodesize\n      iszero\n      dup1\n      iszero\n      tag_261\n      jumpi\n      0x00\n      dup1\n      revert\n    tag_261:\n      pop\n      gas\n      call\n      iszero\n      dup1\n      iszero\n      tag_263\n      jumpi\n      returndatasize\n      0x00\n      dup1\n      returndatacopy\n      revert(0x00, returndatasize)\n    tag_263:\n      pop\n      pop\n      pop\n      pop\n      mload(0x40)\n      returndatasize\n      not(0x1f)\n      0x1f\n      dup3\n      add\n      and\n      dup3\n      add\n      dup1\n      0x40\n      mstore\n      pop\n      dup2\n      add\n      swap1\n      tag_264\n      swap2\n      swap1\n      tag_226\n      jump\t// in\n    tag_264:\n        /* \"contracts/nct v4.sol\":6922:7073  require(\r... */\n      tag_265\n      jumpi\n      0x00\n      dup1\n      revert\n    tag_265:\n        /* \"contracts/nct v4.sol\":7201:7206  admin */\n      0x07\n      0x00\n      swap1\n      sload\n      swap1\n      0x0100\n      exp\n      swap1\n      div\n      0xffffffffffffffffffffffffffffffffffffffff\n      and\n        /* \"contracts/nct v4.sol\":7193:7216  payable(admin).transfer */\n      0xffffffffffffffffffffffffffffffffffffffff\n      and\n        /* \"contracts/nct v4.sol\":7193:7239  payable(admin).transfer(address(this).balance) */\n      0x08fc\n        /* \"contracts/nct v4.sol\":7217:7238  address(this).balance */\n      selfbalance\n        /* \"contracts/nct v4.sol\":7193:7239  payable(admin).transfer(address(this).balance) */\n      swap1\n      dup2\n      iszero\n      mul\n      swap1\n      mload(0x40)\n      0x00\n      mload(0x40)\n      dup1\n      dup4\n      sub\n      dup2\n      dup6\n      dup9\n      dup9\n      call\n      swap4\n      pop\n      pop\n      pop\n      pop\n      iszero\n      dup1\n      iszero\n      tag_267\n      jumpi\n      returndatasize\n      0x00\n      dup1\n      returndatacopy\n      revert(0x00, returndatasize)\n    tag_267:\n      pop\n        /* \"contracts/nct v4.sol\":6846:7247  function endSale() public {\r... */\n      jump\t// out\n        /* \"contracts/nct v4.sol\":3954:3975  State public icoState */\n    tag_93:\n      0x12\n      0x00\n      swap1\n      sload\n      swap1\n      0x0100\n      exp\n      swap1\n      div\n      0xff\n      and\n      dup2\n      jump\t// out\n        /* \"contracts/nct v4.sol\":1395:1417  address public founder */\n    tag_97:\n      0x04\n      0x00\n      swap1\n      sload\n      swap1\n      0x0100\n      exp\n      swap1\n      div\n      0xffffffffffffffffffffffffffffffffffffffff\n      and\n      dup2\n      jump\t// out\n        /* \"contracts/nct v4.sol\":3607:3642  ERC20Interface public tokenContract */\n    tag_102:\n      0x0e\n      0x00\n      swap1\n      sload\n      swap1\n      0x0100\n      exp\n      swap1\n      div\n      0xffffffffffffffffffffffffffffffffffffffff\n      and\n      dup2\n      jump\t// out\n        /* \"contracts/nct v4.sol\":4386:4500  function changeDepositAddress(address payable newDeposit) public onlyAdmin {\r... */\n    tag_109:\n        /* \"contracts/nct v4.sol\":4266:4271  admin */\n      0x07\n      0x00\n      swap1\n      sload\n      swap1\n      0x0100\n      exp\n      swap1\n      div\n      0xffffffffffffffffffffffffffffffffffffffff\n      and\n        /* \"contracts/nct v4.sol\":4252:4271  msg.sender == admin */\n      0xffffffffffffffffffffffffffffffffffffffff\n      and\n        /* \"contracts/nct v4.sol\":4252:4262  msg.sender */\n      caller\n        /* \"contracts/nct v4.sol\":4252:4271  msg.sender == admin */\n      0xffffffffffffffffffffffffffffffffffffffff\n      and\n      eq\n        /* \"contracts/nct v4.sol\":4244:4272  require(msg.sender == admin) */\n      tag_269\n      jumpi\n      0x00\n      dup1\n      revert\n    tag_269:\n        /* \"contracts/nct v4.sol\":4482:4492  newDeposit */\n      dup1\n        /* \"contracts/nct v4.sol\":4472:4479  deposit */\n      0x08\n      0x00\n        /* \"contracts/nct v4.sol\":4472:4492  deposit = newDeposit */\n      0x0100\n      exp\n      dup2\n      sload\n      dup2\n      0xffffffffffffffffffffffffffffffffffffffff\n      mul\n      not\n      and\n      swap1\n      dup4\n      0xffffffffffffffffffffffffffffffffffffffff\n      and\n      mul\n      or\n      swap1\n      sstore\n      pop\n        /* \"contracts/nct v4.sol\":4386:4500  function changeDepositAddress(address payable newDeposit) public onlyAdmin {\r... */\n      pop\n      jump\t// out\n        /* \"contracts/nct v4.sol\":3393:3417  uint256 public prie = 10 */\n    tag_112:\n      sload(0x0a)\n      dup2\n      jump\t// out\n        /* \"contracts/nct v4.sol\":1757:1930  function balanceOf(address tokenOwner)\r... */\n    tag_117:\n        /* \"contracts/nct v4.sol\":1862:1877  uint256 balance */\n      0x00\n        /* \"contracts/nct v4.sol\":1902:1910  balances */\n      0x05\n        /* \"contracts/nct v4.sol\":1902:1922  balances[tokenOwner] */\n      0x00\n        /* \"contracts/nct v4.sol\":1911:1921  tokenOwner */\n      dup4\n        /* \"contracts/nct v4.sol\":1902:1922  balances[tokenOwner] */\n      0xffffffffffffffffffffffffffffffffffffffff\n      and\n      0xffffffffffffffffffffffffffffffffffffffff\n      and\n      dup2\n      mstore\n      0x20\n      add\n      swap1\n      dup2\n      mstore\n      0x20\n      add\n      0x00\n      keccak256\n      sload\n        /* \"contracts/nct v4.sol\":1895:1922  return balances[tokenOwner] */\n      swap1\n      pop\n        /* \"contracts/nct v4.sol\":1757:1930  function balanceOf(address tokenOwner)\r... */\n      swap2\n      swap1\n      pop\n      jump\t// out\n        /* \"contracts/nct v4.sol\":3789:3831  uint256 public minInvestment = 0.001 ether */\n    tag_121:\n      sload(0x11)\n      dup2\n      jump\t// out\n        /* \"contracts/nct v4.sol\":5103:5222  function setPrice(uint256 _tokenPrice)public {\r... */\n    tag_126:\n        /* \"contracts/nct v4.sol\":5168:5179  _tokenPrice */\n      dup1\n        /* \"contracts/nct v4.sol\":5155:5165  tokenPrice */\n      0x09\n        /* \"contracts/nct v4.sol\":5155:5179  tokenPrice = _tokenPrice */\n      dup2\n      swap1\n      sstore\n      pop\n        /* \"contracts/nct v4.sol\":5103:5222  function setPrice(uint256 _tokenPrice)public {\r... */\n      pop\n      jump\t// out\n        /* \"contracts/nct v4.sol\":1281:1309  string public symbol = \"NCT\" */\n    tag_129:\n      0x01\n      dup1\n      sload\n      tag_273\n      swap1\n      tag_179\n      jump\t// in\n    tag_273:\n      dup1\n      0x1f\n      add\n      0x20\n      dup1\n      swap2\n      div\n      mul\n      0x20\n      add\n      mload(0x40)\n      swap1\n      dup2\n      add\n      0x40\n      mstore\n      dup1\n      swap3\n      swap2\n      swap1\n      dup2\n      dup2\n      mstore\n      0x20\n      add\n      dup3\n      dup1\n      sload\n      tag_274\n      swap1\n      tag_179\n      jump\t// in\n    tag_274:\n      dup1\n      iszero\n      tag_275\n      jumpi\n      dup1\n      0x1f\n      lt\n      tag_276\n      jumpi\n      0x0100\n      dup1\n      dup4\n      sload\n      div\n      mul\n      dup4\n      mstore\n      swap2\n      0x20\n      add\n      swap2\n      jump(tag_275)\n    tag_276:\n      dup3\n      add\n      swap2\n      swap1\n      0x00\n      mstore\n      keccak256(0x00, 0x20)\n      swap1\n    tag_277:\n      dup2\n      sload\n      dup2\n      mstore\n      swap1\n      0x01\n      add\n      swap1\n      0x20\n      add\n      dup1\n      dup4\n      gt\n      tag_277\n      jumpi\n      dup3\n      swap1\n      sub\n      0x1f\n      and\n      dup3\n      add\n      swap2\n    tag_275:\n      pop\n      pop\n      pop\n      pop\n      pop\n      dup2\n      jump\t// out\n        /* \"contracts/nct v4.sol\":6434:6838  function transfer(address to, uint256 tokens)\r... */\n    tag_134:\n        /* \"contracts/nct v4.sol\":6532:6544  bool success */\n      0x00\n        /* \"contracts/nct v4.sol\":6588:6603  tokenTradeStart */\n      sload(0x0f)\n        /* \"contracts/nct v4.sol\":6570:6585  block.timestamp */\n      timestamp\n        /* \"contracts/nct v4.sol\":6570:6603  block.timestamp > tokenTradeStart */\n      gt\n        /* \"contracts/nct v4.sol\":6562:6604  require(block.timestamp > tokenTradeStart) */\n      tag_279\n      jumpi\n      0x00\n      dup1\n      revert\n    tag_279:\n        /* \"contracts/nct v4.sol\":6741:6767  super.transfer(to, tokens) */\n      tag_280\n        /* \"contracts/nct v4.sol\":6756:6758  to */\n      dup4\n        /* \"contracts/nct v4.sol\":6760:6766  tokens */\n      dup4\n        /* \"contracts/nct v4.sol\":6741:6755  super.transfer */\n      tag_281\n        /* \"contracts/nct v4.sol\":6741:6767  super.transfer(to, tokens) */\n      jump\t// in\n    tag_280:\n      pop\n        /* \"contracts/nct v4.sol\":6826:6830  true */\n      0x01\n        /* \"contracts/nct v4.sol\":6819:6830  return true */\n      swap1\n      pop\n        /* \"contracts/nct v4.sol\":6434:6838  function transfer(address to, uint256 tokens)\r... */\n      swap3\n      swap2\n      pop\n      pop\n      jump\t// out\n        /* \"contracts/nct v4.sol\":3491:3533  uint256 public saleStart = block.timestamp */\n    tag_138:\n      sload(0x0c)\n      dup2\n      jump\t// out\n        /* \"contracts/nct v4.sol\":3540:3589  uint256 public saleEnd = block.timestamp + 604800 */\n    tag_142:\n      sload(0x0d)\n      dup2\n      jump\t// out\n        /* \"contracts/nct v4.sol\":3428:3455  uint256 public raisedAmount */\n    tag_146:\n      sload(0x0b)\n      dup2\n      jump\t// out\n        /* \"contracts/nct v4.sol\":3649:3698  uint256 public tokenTradeStart = saleEnd + 604800 */\n    tag_150:\n      sload(0x0f)\n      dup2\n      jump\t// out\n        /* \"contracts/nct v4.sol\":3276:3306  address payable public deposit */\n    tag_154:\n      0x08\n      0x00\n      swap1\n      sload\n      swap1\n      0x0100\n      exp\n      swap1\n      div\n      0xffffffffffffffffffffffffffffffffffffffff\n      and\n      dup2\n      jump\t// out\n        /* \"contracts/nct v4.sol\":2286:2476  function allowance(address tokenOwner, address spender)\r... */\n    tag_161:\n        /* \"contracts/nct v4.sol\":2408:2415  uint256 */\n      0x00\n        /* \"contracts/nct v4.sol\":2440:2447  allowed */\n      0x06\n        /* \"contracts/nct v4.sol\":2440:2459  allowed[tokenOwner] */\n      0x00\n        /* \"contracts/nct v4.sol\":2448:2458  tokenOwner */\n      dup5\n        /* \"contracts/nct v4.sol\":2440:2459  allowed[tokenOwner] */\n      0xffffffffffffffffffffffffffffffffffffffff\n      and\n      0xffffffffffffffffffffffffffffffffffffffff\n      and\n      dup2\n      mstore\n      0x20\n      add\n      swap1\n      dup2\n      mstore\n      0x20\n      add\n      0x00\n      keccak256\n        /* \"contracts/nct v4.sol\":2440:2468  allowed[tokenOwner][spender] */\n      0x00\n        /* \"contracts/nct v4.sol\":2460:2467  spender */\n      dup4\n        /* \"contracts/nct v4.sol\":2440:2468  allowed[tokenOwner][spender] */\n      0xffffffffffffffffffffffffffffffffffffffff\n      and\n      0xffffffffffffffffffffffffffffffffffffffff\n      and\n      dup2\n      mstore\n      0x20\n      add\n      swap1\n      dup2\n      mstore\n      0x20\n      add\n      0x00\n      keccak256\n      sload\n        /* \"contracts/nct v4.sol\":2433:2468  return allowed[tokenOwner][spender] */\n      swap1\n      pop\n        /* \"contracts/nct v4.sol\":2286:2476  function allowance(address tokenOwner, address spender)\r... */\n      swap3\n      swap2\n      pop\n      pop\n      jump\t// out\n        /* \"contracts/nct v4.sol\":5224:5330  function getPrice(uint256 token) public view returns(uint256){\r... */\n    tag_166:\n        /* \"contracts/nct v4.sol\":5277:5284  uint256 */\n      0x00\n        /* \"contracts/nct v4.sol\":5299:5326  multiply(token, tokenPrice) */\n      tag_284\n        /* \"contracts/nct v4.sol\":5308:5313  token */\n      dup3\n        /* \"contracts/nct v4.sol\":5315:5325  tokenPrice */\n      sload(0x09)\n        /* \"contracts/nct v4.sol\":5299:5307  multiply */\n      tag_204\n        /* \"contracts/nct v4.sol\":5299:5326  multiply(token, tokenPrice) */\n      jump\t// in\n    tag_284:\n        /* \"contracts/nct v4.sol\":5292:5326  return multiply(token, tokenPrice) */\n      swap1\n      pop\n        /* \"contracts/nct v4.sol\":5224:5330  function getPrice(uint256 token) public view returns(uint256){\r... */\n      swap2\n      swap1\n      pop\n      jump\t// out\n        /* \"contracts/nct v4.sol\":3249:3269  address public admin */\n    tag_170:\n      0x07\n      0x00\n      swap1\n      sload\n      swap1\n      0x0100\n      exp\n      swap1\n      div\n      0xffffffffffffffffffffffffffffffffffffffff\n      and\n      dup2\n      jump\t// out\n        /* \"contracts/nct v4.sol\":2828:3204  function transferFrom(\r... */\n    tag_191:\n        /* \"contracts/nct v4.sol\":2959:2971  bool success */\n      0x00\n        /* \"contracts/nct v4.sol\":3013:3019  tokens */\n      dup2\n        /* \"contracts/nct v4.sol\":2992:2999  allowed */\n      0x06\n        /* \"contracts/nct v4.sol\":2992:3005  allowed[from] */\n      0x00\n        /* \"contracts/nct v4.sol\":3000:3004  from */\n      dup7\n        /* \"contracts/nct v4.sol\":2992:3005  allowed[from] */\n      0xffffffffffffffffffffffffffffffffffffffff\n      and\n      0xffffffffffffffffffffffffffffffffffffffff\n      and\n      dup2\n      mstore\n      0x20\n      add\n      swap1\n      dup2\n      mstore\n      0x20\n      add\n      0x00\n      keccak256\n        /* \"contracts/nct v4.sol\":2992:3009  allowed[from][to] */\n      0x00\n        /* \"contracts/nct v4.sol\":3006:3008  to */\n      dup6\n        /* \"contracts/nct v4.sol\":2992:3009  allowed[from][to] */\n      0xffffffffffffffffffffffffffffffffffffffff\n      and\n      0xffffffffffffffffffffffffffffffffffffffff\n      and\n      dup2\n      mstore\n      0x20\n      add\n      swap1\n      dup2\n      mstore\n      0x20\n      add\n      0x00\n      keccak256\n      sload\n        /* \"contracts/nct v4.sol\":2992:3019  allowed[from][to] >= tokens */\n      lt\n      iszero\n        /* \"contracts/nct v4.sol\":2984:3020  require(allowed[from][to] >= tokens) */\n      tag_286\n      jumpi\n      0x00\n      dup1\n      revert\n    tag_286:\n        /* \"contracts/nct v4.sol\":3057:3063  tokens */\n      dup2\n        /* \"contracts/nct v4.sol\":3039:3047  balances */\n      0x05\n        /* \"contracts/nct v4.sol\":3039:3053  balances[from] */\n      0x00\n        /* \"contracts/nct v4.sol\":3048:3052  from */\n      dup7\n        /* \"contracts/nct v4.sol\":3039:3053  balances[from] */\n      0xffffffffffffffffffffffffffffffffffffffff\n      and\n      0xffffffffffffffffffffffffffffffffffffffff\n      and\n      dup2\n      mstore\n      0x20\n      add\n      swap1\n      dup2\n      mstore\n      0x20\n      add\n      0x00\n      keccak256\n      sload\n        /* \"contracts/nct v4.sol\":3039:3063  balances[from] >= tokens */\n      lt\n      iszero\n        /* \"contracts/nct v4.sol\":3031:3064  require(balances[from] >= tokens) */\n      tag_287\n      jumpi\n      0x00\n      dup1\n      revert\n    tag_287:\n        /* \"contracts/nct v4.sol\":3095:3101  tokens */\n      dup2\n        /* \"contracts/nct v4.sol\":3077:3085  balances */\n      0x05\n        /* \"contracts/nct v4.sol\":3077:3091  balances[from] */\n      0x00\n        /* \"contracts/nct v4.sol\":3086:3090  from */\n      dup7\n        /* \"contracts/nct v4.sol\":3077:3091  balances[from] */\n      0xffffffffffffffffffffffffffffffffffffffff\n      and\n      0xffffffffffffffffffffffffffffffffffffffff\n      and\n      dup2\n      mstore\n      0x20\n      add\n      swap1\n      dup2\n      mstore\n      0x20\n      add\n      0x00\n      keccak256\n      0x00\n        /* \"contracts/nct v4.sol\":3077:3101  balances[from] -= tokens */\n      dup3\n      dup3\n      sload\n      tag_288\n      swap2\n      swap1\n      tag_236\n      jump\t// in\n    tag_288:\n      swap3\n      pop\n      pop\n      dup2\n      swap1\n      sstore\n      pop\n        /* \"contracts/nct v4.sol\":3128:3134  tokens */\n      dup2\n        /* \"contracts/nct v4.sol\":3112:3120  balances */\n      0x05\n        /* \"contracts/nct v4.sol\":3112:3124  balances[to] */\n      0x00\n        /* \"contracts/nct v4.sol\":3121:3123  to */\n      dup6\n        /* \"contracts/nct v4.sol\":3112:3124  balances[to] */\n      0xffffffffffffffffffffffffffffffffffffffff\n      and\n      0xffffffffffffffffffffffffffffffffffffffff\n      and\n      dup2\n      mstore\n      0x20\n      add\n      swap1\n      dup2\n      mstore\n      0x20\n      add\n      0x00\n      keccak256\n      0x00\n        /* \"contracts/nct v4.sol\":3112:3134  balances[to] += tokens */\n      dup3\n      dup3\n      sload\n      tag_289\n      swap2\n      swap1\n      tag_233\n      jump\t// in\n    tag_289:\n      swap3\n      pop\n      pop\n      dup2\n      swap1\n      sstore\n      pop\n        /* \"contracts/nct v4.sol\":3166:3172  tokens */\n      dup2\n        /* \"contracts/nct v4.sol\":3145:3152  allowed */\n      0x06\n        /* \"contracts/nct v4.sol\":3145:3158  allowed[from] */\n      0x00\n        /* \"contracts/nct v4.sol\":3153:3157  from */\n      dup7\n        /* \"contracts/nct v4.sol\":3145:3158  allowed[from] */\n      0xffffffffffffffffffffffffffffffffffffffff\n      and\n      0xffffffffffffffffffffffffffffffffffffffff\n      and\n      dup2\n      mstore\n      0x20\n      add\n      swap1\n      dup2\n      mstore\n      0x20\n      add\n      0x00\n      keccak256\n        /* \"contracts/nct v4.sol\":3145:3162  allowed[from][to] */\n      0x00\n        /* \"contracts/nct v4.sol\":3159:3161  to */\n      dup6\n        /* \"contracts/nct v4.sol\":3145:3162  allowed[from][to] */\n      0xffffffffffffffffffffffffffffffffffffffff\n      and\n      0xffffffffffffffffffffffffffffffffffffffff\n      and\n      dup2\n      mstore\n      0x20\n      add\n      swap1\n      dup2\n      mstore\n      0x20\n      add\n      0x00\n      keccak256\n      0x00\n        /* \"contracts/nct v4.sol\":3145:3172  allowed[from][to] -= tokens */\n      dup3\n      dup3\n      sload\n      tag_290\n      swap2\n      swap1\n      tag_236\n      jump\t// in\n    tag_290:\n      swap3\n      pop\n      pop\n      dup2\n      swap1\n      sstore\n      pop\n        /* \"contracts/nct v4.sol\":3192:3196  true */\n      0x01\n        /* \"contracts/nct v4.sol\":3185:3196  return true */\n      swap1\n      pop\n        /* \"contracts/nct v4.sol\":2828:3204  function transferFrom(\r... */\n      swap4\n      swap3\n      pop\n      pop\n      pop\n      jump\t// out\n        /* \"contracts/nct v4.sol\":4920:5031  function multiply(uint x, uint y) internal pure returns (uint z) {\r... */\n    tag_204:\n        /* \"contracts/nct v4.sol\":4977:4983  uint z */\n      0x00\n        /* \"contracts/nct v4.sol\":5001:5002  0 */\n      dup1\n        /* \"contracts/nct v4.sol\":4996:4997  y */\n      dup3\n        /* \"contracts/nct v4.sol\":4996:5002  y == 0 */\n      eq\n        /* \"contracts/nct v4.sol\":4996:5026  y == 0 || (z = x * y) / y == x */\n      dup1\n      tag_292\n      jumpi\n      pop\n        /* \"contracts/nct v4.sol\":5025:5026  x */\n      dup3\n        /* \"contracts/nct v4.sol\":5020:5021  y */\n      dup3\n        /* \"contracts/nct v4.sol\":5015:5016  y */\n      dup4\n        /* \"contracts/nct v4.sol\":5011:5012  x */\n      dup6\n        /* \"contracts/nct v4.sol\":5011:5016  x * y */\n      tag_293\n      swap2\n      swap1\n      tag_209\n      jump\t// in\n    tag_293:\n        /* \"contracts/nct v4.sol\":5007:5016  z = x * y */\n      swap3\n      pop\n      dup3\n        /* \"contracts/nct v4.sol\":5006:5021  (z = x * y) / y */\n      tag_294\n      swap2\n      swap1\n      tag_295\n      jump\t// in\n    tag_294:\n        /* \"contracts/nct v4.sol\":5006:5026  (z = x * y) / y == x */\n      eq\n        /* \"contracts/nct v4.sol\":4996:5026  y == 0 || (z = x * y) / y == x */\n    tag_292:\n        /* \"contracts/nct v4.sol\":4988:5027  require(y == 0 || (z = x * y) / y == x) */\n      tag_296\n      jumpi\n      0x00\n      dup1\n      revert\n    tag_296:\n        /* \"contracts/nct v4.sol\":4920:5031  function multiply(uint x, uint y) internal pure returns (uint z) {\r... */\n      swap3\n      swap2\n      pop\n      pop\n      jump\t// out\n        /* \"contracts/nct v4.sol\":1938:2278  function transfer(address to, uint256 tokens)\r... */\n    tag_281:\n        /* \"contracts/nct v4.sol\":2053:2065  bool success */\n      0x00\n        /* \"contracts/nct v4.sol\":2115:2121  tokens */\n      dup2\n        /* \"contracts/nct v4.sol\":2091:2099  balances */\n      0x05\n        /* \"contracts/nct v4.sol\":2091:2111  balances[msg.sender] */\n      0x00\n        /* \"contracts/nct v4.sol\":2100:2110  msg.sender */\n      caller\n        /* \"contracts/nct v4.sol\":2091:2111  balances[msg.sender] */\n      0xffffffffffffffffffffffffffffffffffffffff\n      and\n      0xffffffffffffffffffffffffffffffffffffffff\n      and\n      dup2\n      mstore\n      0x20\n      add\n      swap1\n      dup2\n      mstore\n      0x20\n      add\n      0x00\n      keccak256\n      sload\n        /* \"contracts/nct v4.sol\":2091:2121  balances[msg.sender] >= tokens */\n      lt\n      iszero\n        /* \"contracts/nct v4.sol\":2083:2122  require(balances[msg.sender] >= tokens) */\n      tag_298\n      jumpi\n      0x00\n      dup1\n      revert\n    tag_298:\n        /* \"contracts/nct v4.sol\":2151:2157  tokens */\n      dup2\n        /* \"contracts/nct v4.sol\":2135:2143  balances */\n      0x05\n        /* \"contracts/nct v4.sol\":2135:2147  balances[to] */\n      0x00\n        /* \"contracts/nct v4.sol\":2144:2146  to */\n      dup6\n        /* \"contracts/nct v4.sol\":2135:2147  balances[to] */\n      0xffffffffffffffffffffffffffffffffffffffff\n      and\n      0xffffffffffffffffffffffffffffffffffffffff\n      and\n      dup2\n      mstore\n      0x20\n      add\n      swap1\n      dup2\n      mstore\n      0x20\n      add\n      0x00\n      keccak256\n      0x00\n        /* \"contracts/nct v4.sol\":2135:2157  balances[to] += tokens */\n      dup3\n      dup3\n      sload\n      tag_299\n      swap2\n      swap1\n      tag_233\n      jump\t// in\n    tag_299:\n      swap3\n      pop\n      pop\n      dup2\n      swap1\n      sstore\n      pop\n        /* \"contracts/nct v4.sol\":2192:2198  tokens */\n      dup2\n        /* \"contracts/nct v4.sol\":2168:2176  balances */\n      0x05\n        /* \"contracts/nct v4.sol\":2168:2188  balances[msg.sender] */\n      0x00\n        /* \"contracts/nct v4.sol\":2177:2187  msg.sender */\n      caller\n        /* \"contracts/nct v4.sol\":2168:2188  balances[msg.sender] */\n      0xffffffffffffffffffffffffffffffffffffffff\n      and\n      0xffffffffffffffffffffffffffffffffffffffff\n      and\n      dup2\n      mstore\n      0x20\n      add\n      swap1\n      dup2\n      mstore\n      0x20\n      add\n      0x00\n      keccak256\n      0x00\n        /* \"contracts/nct v4.sol\":2168:2198  balances[msg.sender] -= tokens */\n      dup3\n      dup3\n      sload\n      tag_300\n      swap2\n      swap1\n      tag_236\n      jump\t// in\n    tag_300:\n      swap3\n      pop\n      pop\n      dup2\n      swap1\n      sstore\n      pop\n        /* \"contracts/nct v4.sol\":2235:2237  to */\n      dup3\n        /* \"contracts/nct v4.sol\":2214:2246  Transfer(msg.sender, to, tokens) */\n      0xffffffffffffffffffffffffffffffffffffffff\n      and\n        /* \"contracts/nct v4.sol\":2223:2233  msg.sender */\n      caller\n        /* \"contracts/nct v4.sol\":2214:2246  Transfer(msg.sender, to, tokens) */\n      0xffffffffffffffffffffffffffffffffffffffff\n      and\n      0xddf252ad1be2c89b69c2b068fc378daa952ba7f163c4a11628f55a4df523b3ef\n        /* \"contracts/nct v4.sol\":2239:2245  tokens */\n      dup5\n        /* \"contracts/nct v4.sol\":2214:2246  Transfer(msg.sender, to, tokens) */\n      mload(0x40)\n      tag_301\n      swap2\n      swap1\n      tag_42\n      jump\t// in\n    tag_301:\n      mload(0x40)\n      dup1\n      swap2\n      sub\n      swap1\n      log3\n        /* \"contracts/nct v4.sol\":2266:2270  true */\n      0x01\n        /* \"contracts/nct v4.sol\":2259:2270  return true */\n      swap1\n      pop\n        /* \"contracts/nct v4.sol\":1938:2278  function transfer(address to, uint256 tokens)\r... */\n      swap3\n      swap2\n      pop\n      pop\n      jump\t// out\n        /* \"#utility.yul\":7:146   */\n    tag_303:\n        /* \"#utility.yul\":53:58   */\n      0x00\n        /* \"#utility.yul\":91:97   */\n      dup2\n        /* \"#utility.yul\":78:98   */\n      calldataload\n        /* \"#utility.yul\":69:98   */\n      swap1\n      pop\n        /* \"#utility.yul\":107:140   */\n      tag_305\n        /* \"#utility.yul\":134:139   */\n      dup2\n        /* \"#utility.yul\":107:140   */\n      tag_306\n      jump\t// in\n    tag_305:\n        /* \"#utility.yul\":7:146   */\n      swap3\n      swap2\n      pop\n      pop\n      jump\t// out\n        /* \"#utility.yul\":152:307   */\n    tag_307:\n        /* \"#utility.yul\":206:211   */\n      0x00\n        /* \"#utility.yul\":244:250   */\n      dup2\n        /* \"#utility.yul\":231:251   */\n      calldataload\n        /* \"#utility.yul\":222:251   */\n      swap1\n      pop\n        /* \"#utility.yul\":260:301   */\n      tag_309\n        /* \"#utility.yul\":295:300   */\n      dup2\n        /* \"#utility.yul\":260:301   */\n      tag_310\n      jump\t// in\n    tag_309:\n        /* \"#utility.yul\":152:307   */\n      swap3\n      swap2\n      pop\n      pop\n      jump\t// out\n        /* \"#utility.yul\":313:450   */\n    tag_311:\n        /* \"#utility.yul\":367:372   */\n      0x00\n        /* \"#utility.yul\":398:404   */\n      dup2\n        /* \"#utility.yul\":392:405   */\n      mload\n        /* \"#utility.yul\":383:405   */\n      swap1\n      pop\n        /* \"#utility.yul\":414:444   */\n      tag_313\n        /* \"#utility.yul\":438:443   */\n      dup2\n        /* \"#utility.yul\":414:444   */\n      tag_314\n      jump\t// in\n    tag_313:\n        /* \"#utility.yul\":313:450   */\n      swap3\n      swap2\n      pop\n      pop\n      jump\t// out\n        /* \"#utility.yul\":456:595   */\n    tag_315:\n        /* \"#utility.yul\":502:507   */\n      0x00\n        /* \"#utility.yul\":540:546   */\n      dup2\n        /* \"#utility.yul\":527:547   */\n      calldataload\n        /* \"#utility.yul\":518:547   */\n      swap1\n      pop\n        /* \"#utility.yul\":556:589   */\n      tag_317\n        /* \"#utility.yul\":583:588   */\n      dup2\n        /* \"#utility.yul\":556:589   */\n      tag_318\n      jump\t// in\n    tag_317:\n        /* \"#utility.yul\":456:595   */\n      swap3\n      swap2\n      pop\n      pop\n      jump\t// out\n        /* \"#utility.yul\":601:744   */\n    tag_319:\n        /* \"#utility.yul\":658:663   */\n      0x00\n        /* \"#utility.yul\":689:695   */\n      dup2\n        /* \"#utility.yul\":683:696   */\n      mload\n        /* \"#utility.yul\":674:696   */\n      swap1\n      pop\n        /* \"#utility.yul\":705:738   */\n      tag_321\n        /* \"#utility.yul\":732:737   */\n      dup2\n        /* \"#utility.yul\":705:738   */\n      tag_318\n      jump\t// in\n    tag_321:\n        /* \"#utility.yul\":601:744   */\n      swap3\n      swap2\n      pop\n      pop\n      jump\t// out\n        /* \"#utility.yul\":750:1079   */\n    tag_71:\n        /* \"#utility.yul\":809:815   */\n      0x00\n        /* \"#utility.yul\":858:860   */\n      0x20\n        /* \"#utility.yul\":846:855   */\n      dup3\n        /* \"#utility.yul\":837:844   */\n      dup5\n        /* \"#utility.yul\":833:856   */\n      sub\n        /* \"#utility.yul\":829:861   */\n      slt\n        /* \"#utility.yul\":826:945   */\n      iszero\n      tag_323\n      jumpi\n        /* \"#utility.yul\":864:943   */\n      tag_324\n      tag_325\n      jump\t// in\n    tag_324:\n        /* \"#utility.yul\":826:945   */\n    tag_323:\n        /* \"#utility.yul\":984:985   */\n      0x00\n        /* \"#utility.yul\":1009:1062   */\n      tag_326\n        /* \"#utility.yul\":1054:1061   */\n      dup5\n        /* \"#utility.yul\":1045:1051   */\n      dup3\n        /* \"#utility.yul\":1034:1043   */\n      dup6\n        /* \"#utility.yul\":1030:1052   */\n      add\n        /* \"#utility.yul\":1009:1062   */\n      tag_303\n      jump\t// in\n    tag_326:\n        /* \"#utility.yul\":999:1062   */\n      swap2\n      pop\n        /* \"#utility.yul\":955:1072   */\n      pop\n        /* \"#utility.yul\":750:1079   */\n      swap3\n      swap2\n      pop\n      pop\n      jump\t// out\n        /* \"#utility.yul\":1085:1430   */\n    tag_108:\n        /* \"#utility.yul\":1152:1158   */\n      0x00\n        /* \"#utility.yul\":1201:1203   */\n      0x20\n        /* \"#utility.yul\":1189:1198   */\n      dup3\n        /* \"#utility.yul\":1180:1187   */\n      dup5\n        /* \"#utility.yul\":1176:1199   */\n      sub\n        /* \"#utility.yul\":1172:1204   */\n      slt\n        /* \"#utility.yul\":1169:1288   */\n      iszero\n      tag_328\n      jumpi\n        /* \"#utility.yul\":1207:1286   */\n      tag_329\n      tag_325\n      jump\t// in\n    tag_329:\n        /* \"#utility.yul\":1169:1288   */\n    tag_328:\n        /* \"#utility.yul\":1327:1328   */\n      0x00\n        /* \"#utility.yul\":1352:1413   */\n      tag_330\n        /* \"#utility.yul\":1405:1412   */\n      dup5\n        /* \"#utility.yul\":1396:1402   */\n      dup3\n        /* \"#utility.yul\":1385:1394   */\n      dup6\n        /* \"#utility.yul\":1381:1403   */\n      add\n        /* \"#utility.yul\":1352:1413   */\n      tag_307\n      jump\t// in\n    tag_330:\n        /* \"#utility.yul\":1342:1413   */\n      swap2\n      pop\n        /* \"#utility.yul\":1298:1423   */\n      pop\n        /* \"#utility.yul\":1085:1430   */\n      swap3\n      swap2\n      pop\n      pop\n      jump\t// out\n        /* \"#utility.yul\":1436:1910   */\n    tag_160:\n        /* \"#utility.yul\":1504:1510   */\n      0x00\n        /* \"#utility.yul\":1512:1518   */\n      dup1\n        /* \"#utility.yul\":1561:1563   */\n      0x40\n        /* \"#utility.yul\":1549:1558   */\n      dup4\n        /* \"#utility.yul\":1540:1547   */\n      dup6\n        /* \"#utility.yul\":1536:1559   */\n      sub\n        /* \"#utility.yul\":1532:1564   */\n      slt\n        /* \"#utility.yul\":1529:1648   */\n      iszero\n      tag_332\n      jumpi\n        /* \"#utility.yul\":1567:1646   */\n      tag_333\n      tag_325\n      jump\t// in\n    tag_333:\n        /* \"#utility.yul\":1529:1648   */\n    tag_332:\n        /* \"#utility.yul\":1687:1688   */\n      0x00\n        /* \"#utility.yul\":1712:1765   */\n      tag_334\n        /* \"#utility.yul\":1757:1764   */\n      dup6\n        /* \"#utility.yul\":1748:1754   */\n      dup3\n        /* \"#utility.yul\":1737:1746   */\n      dup7\n        /* \"#utility.yul\":1733:1755   */\n      add\n        /* \"#utility.yul\":1712:1765   */\n      tag_303\n      jump\t// in\n    tag_334:\n        /* \"#utility.yul\":1702:1765   */\n      swap3\n      pop\n        /* \"#utility.yul\":1658:1775   */\n      pop\n        /* \"#utility.yul\":1814:1816   */\n      0x20\n        /* \"#utility.yul\":1840:1893   */\n      tag_335\n        /* \"#utility.yul\":1885:1892   */\n      dup6\n        /* \"#utility.yul\":1876:1882   */\n      dup3\n        /* \"#utility.yul\":1865:1874   */\n      dup7\n        /* \"#utility.yul\":1861:1883   */\n      add\n        /* \"#utility.yul\":1840:1893   */\n      tag_303\n      jump\t// in\n    tag_335:\n        /* \"#utility.yul\":1830:1893   */\n      swap2\n      pop\n        /* \"#utility.yul\":1785:1903   */\n      pop\n        /* \"#utility.yul\":1436:1910   */\n      swap3\n      pop\n      swap3\n      swap1\n      pop\n      jump\t// out\n        /* \"#utility.yul\":1916:2535   */\n    tag_65:\n        /* \"#utility.yul\":1993:1999   */\n      0x00\n        /* \"#utility.yul\":2001:2007   */\n      dup1\n        /* \"#utility.yul\":2009:2015   */\n      0x00\n        /* \"#utility.yul\":2058:2060   */\n      0x60\n        /* \"#utility.yul\":2046:2055   */\n      dup5\n        /* \"#utility.yul\":2037:2044   */\n      dup7\n        /* \"#utility.yul\":2033:2056   */\n      sub\n        /* \"#utility.yul\":2029:2061   */\n      slt\n        /* \"#utility.yul\":2026:2145   */\n      iszero\n      tag_337\n      jumpi\n        /* \"#utility.yul\":2064:2143   */\n      tag_338\n      tag_325\n      jump\t// in\n    tag_338:\n        /* \"#utility.yul\":2026:2145   */\n    tag_337:\n        /* \"#utility.yul\":2184:2185   */\n      0x00\n        /* \"#utility.yul\":2209:2262   */\n      tag_339\n        /* \"#utility.yul\":2254:2261   */\n      dup7\n        /* \"#utility.yul\":2245:2251   */\n      dup3\n        /* \"#utility.yul\":2234:2243   */\n      dup8\n        /* \"#utility.yul\":2230:2252   */\n      add\n        /* \"#utility.yul\":2209:2262   */\n      tag_303\n      jump\t// in\n    tag_339:\n        /* \"#utility.yul\":2199:2262   */\n      swap4\n      pop\n        /* \"#utility.yul\":2155:2272   */\n      pop\n        /* \"#utility.yul\":2311:2313   */\n      0x20\n        /* \"#utility.yul\":2337:2390   */\n      tag_340\n        /* \"#utility.yul\":2382:2389   */\n      dup7\n        /* \"#utility.yul\":2373:2379   */\n      dup3\n        /* \"#utility.yul\":2362:2371   */\n      dup8\n        /* \"#utility.yul\":2358:2380   */\n      add\n        /* \"#utility.yul\":2337:2390   */\n      tag_303\n      jump\t// in\n    tag_340:\n        /* \"#utility.yul\":2327:2390   */\n      swap3\n      pop\n        /* \"#utility.yul\":2282:2400   */\n      pop\n        /* \"#utility.yul\":2439:2441   */\n      0x40\n        /* \"#utility.yul\":2465:2518   */\n      tag_341\n        /* \"#utility.yul\":2510:2517   */\n      dup7\n        /* \"#utility.yul\":2501:2507   */\n      dup3\n        /* \"#utility.yul\":2490:2499   */\n      dup8\n        /* \"#utility.yul\":2486:2508   */\n      add\n        /* \"#utility.yul\":2465:2518   */\n      tag_315\n      jump\t// in\n    tag_341:\n        /* \"#utility.yul\":2455:2518   */\n      swap2\n      pop\n        /* \"#utility.yul\":2410:2528   */\n      pop\n        /* \"#utility.yul\":1916:2535   */\n      swap3\n      pop\n      swap3\n      pop\n      swap3\n      jump\t// out\n        /* \"#utility.yul\":2541:3015   */\n    tag_54:\n        /* \"#utility.yul\":2609:2615   */\n      0x00\n        /* \"#utility.yul\":2617:2623   */\n      dup1\n        /* \"#utility.yul\":2666:2668   */\n      0x40\n        /* \"#utility.yul\":2654:2663   */\n      dup4\n        /* \"#utility.yul\":2645:2652   */\n      dup6\n        /* \"#utility.yul\":2641:2664   */\n      sub\n        /* \"#utility.yul\":2637:2669   */\n      slt\n        /* \"#utility.yul\":2634:2753   */\n      iszero\n      tag_343\n      jumpi\n        /* \"#utility.yul\":2672:2751   */\n      tag_344\n      tag_325\n      jump\t// in\n    tag_344:\n        /* \"#utility.yul\":2634:2753   */\n    tag_343:\n        /* \"#utility.yul\":2792:2793   */\n      0x00\n        /* \"#utility.yul\":2817:2870   */\n      tag_345\n        /* \"#utility.yul\":2862:2869   */\n      dup6\n        /* \"#utility.yul\":2853:2859   */\n      dup3\n        /* \"#utility.yul\":2842:2851   */\n      dup7\n        /* \"#utility.yul\":2838:2860   */\n      add\n        /* \"#utility.yul\":2817:2870   */\n      tag_303\n      jump\t// in\n    tag_345:\n        /* \"#utility.yul\":2807:2870   */\n      swap3\n      pop\n        /* \"#utility.yul\":2763:2880   */\n      pop\n        /* \"#utility.yul\":2919:2921   */\n      0x20\n        /* \"#utility.yul\":2945:2998   */\n      tag_346\n        /* \"#utility.yul\":2990:2997   */\n      dup6\n        /* \"#utility.yul\":2981:2987   */\n      dup3\n        /* \"#utility.yul\":2970:2979   */\n      dup7\n        /* \"#utility.yul\":2966:2988   */\n      add\n        /* \"#utility.yul\":2945:2998   */\n      tag_315\n      jump\t// in\n    tag_346:\n        /* \"#utility.yul\":2935:2998   */\n      swap2\n      pop\n        /* \"#utility.yul\":2890:3008   */\n      pop\n        /* \"#utility.yul\":2541:3015   */\n      swap3\n      pop\n      swap3\n      swap1\n      pop\n      jump\t// out\n        /* \"#utility.yul\":3021:3366   */\n    tag_226:\n        /* \"#utility.yul\":3088:3094   */\n      0x00\n        /* \"#utility.yul\":3137:3139   */\n      0x20\n        /* \"#utility.yul\":3125:3134   */\n      dup3\n        /* \"#utility.yul\":3116:3123   */\n      dup5\n        /* \"#utility.yul\":3112:3135   */\n      sub\n        /* \"#utility.yul\":3108:3140   */\n      slt\n        /* \"#utility.yul\":3105:3224   */\n      iszero\n      tag_348\n      jumpi\n        /* \"#utility.yul\":3143:3222   */\n      tag_349\n      tag_325\n      jump\t// in\n    tag_349:\n        /* \"#utility.yul\":3105:3224   */\n    tag_348:\n        /* \"#utility.yul\":3263:3264   */\n      0x00\n        /* \"#utility.yul\":3288:3349   */\n      tag_350\n        /* \"#utility.yul\":3341:3348   */\n      dup5\n        /* \"#utility.yul\":3332:3338   */\n      dup3\n        /* \"#utility.yul\":3321:3330   */\n      dup6\n        /* \"#utility.yul\":3317:3339   */\n      add\n        /* \"#utility.yul\":3288:3349   */\n      tag_311\n      jump\t// in\n    tag_350:\n        /* \"#utility.yul\":3278:3349   */\n      swap2\n      pop\n        /* \"#utility.yul\":3234:3359   */\n      pop\n        /* \"#utility.yul\":3021:3366   */\n      swap3\n      swap2\n      pop\n      pop\n      jump\t// out\n        /* \"#utility.yul\":3372:3701   */\n    tag_76:\n        /* \"#utility.yul\":3431:3437   */\n      0x00\n        /* \"#utility.yul\":3480:3482   */\n      0x20\n        /* \"#utility.yul\":3468:3477   */\n      dup3\n        /* \"#utility.yul\":3459:3466   */\n      dup5\n        /* \"#utility.yul\":3455:3478   */\n      sub\n        /* \"#utility.yul\":3451:3483   */\n      slt\n        /* \"#utility.yul\":3448:3567   */\n      iszero\n      tag_352\n      jumpi\n        /* \"#utility.yul\":3486:3565   */\n      tag_353\n      tag_325\n      jump\t// in\n    tag_353:\n        /* \"#utility.yul\":3448:3567   */\n    tag_352:\n        /* \"#utility.yul\":3606:3607   */\n      0x00\n        /* \"#utility.yul\":3631:3684   */\n      tag_354\n        /* \"#utility.yul\":3676:3683   */\n      dup5\n        /* \"#utility.yul\":3667:3673   */\n      dup3\n        /* \"#utility.yul\":3656:3665   */\n      dup6\n        /* \"#utility.yul\":3652:3674   */\n      add\n        /* \"#utility.yul\":3631:3684   */\n      tag_315\n      jump\t// in\n    tag_354:\n        /* \"#utility.yul\":3621:3684   */\n      swap2\n      pop\n        /* \"#utility.yul\":3577:3694   */\n      pop\n        /* \"#utility.yul\":3372:3701   */\n      swap3\n      swap2\n      pop\n      pop\n      jump\t// out\n        /* \"#utility.yul\":3707:4058   */\n    tag_215:\n        /* \"#utility.yul\":3777:3783   */\n      0x00\n        /* \"#utility.yul\":3826:3828   */\n      0x20\n        /* \"#utility.yul\":3814:3823   */\n      dup3\n        /* \"#utility.yul\":3805:3812   */\n      dup5\n        /* \"#utility.yul\":3801:3824   */\n      sub\n        /* \"#utility.yul\":3797:3829   */\n      slt\n        /* \"#utility.yul\":3794:3913   */\n      iszero\n      tag_356\n      jumpi\n        /* \"#utility.yul\":3832:3911   */\n      tag_357\n      tag_325\n      jump\t// in\n    tag_357:\n        /* \"#utility.yul\":3794:3913   */\n    tag_356:\n        /* \"#utility.yul\":3952:3953   */\n      0x00\n        /* \"#utility.yul\":3977:4041   */\n      tag_358\n        /* \"#utility.yul\":4033:4040   */\n      dup5\n        /* \"#utility.yul\":4024:4030   */\n      dup3\n        /* \"#utility.yul\":4013:4022   */\n      dup6\n        /* \"#utility.yul\":4009:4031   */\n      add\n        /* \"#utility.yul\":3977:4041   */\n      tag_319\n      jump\t// in\n    tag_358:\n        /* \"#utility.yul\":3967:4041   */\n      swap2\n      pop\n        /* \"#utility.yul\":3923:4051   */\n      pop\n        /* \"#utility.yul\":3707:4058   */\n      swap3\n      swap2\n      pop\n      pop\n      jump\t// out\n        /* \"#utility.yul\":4064:4206   */\n    tag_359:\n        /* \"#utility.yul\":4167:4199   */\n      tag_361\n        /* \"#utility.yul\":4193:4198   */\n      dup2\n        /* \"#utility.yul\":4167:4199   */\n      tag_362\n      jump\t// in\n    tag_361:\n        /* \"#utility.yul\":4162:4165   */\n      dup3\n        /* \"#utility.yul\":4155:4200   */\n      mstore\n        /* \"#utility.yul\":4064:4206   */\n      pop\n      pop\n      jump\t// out\n        /* \"#utility.yul\":4212:4330   */\n    tag_363:\n        /* \"#utility.yul\":4299:4323   */\n      tag_365\n        /* \"#utility.yul\":4317:4322   */\n      dup2\n        /* \"#utility.yul\":4299:4323   */\n      tag_366\n      jump\t// in\n    tag_365:\n        /* \"#utility.yul\":4294:4297   */\n      dup3\n        /* \"#utility.yul\":4287:4324   */\n      mstore\n        /* \"#utility.yul\":4212:4330   */\n      pop\n      pop\n      jump\t// out\n        /* \"#utility.yul\":4336:4445   */\n    tag_367:\n        /* \"#utility.yul\":4417:4438   */\n      tag_369\n        /* \"#utility.yul\":4432:4437   */\n      dup2\n        /* \"#utility.yul\":4417:4438   */\n      tag_370\n      jump\t// in\n    tag_369:\n        /* \"#utility.yul\":4412:4415   */\n      dup3\n        /* \"#utility.yul\":4405:4439   */\n      mstore\n        /* \"#utility.yul\":4336:4445   */\n      pop\n      pop\n      jump\t// out\n        /* \"#utility.yul\":4451:4624   */\n    tag_371:\n        /* \"#utility.yul\":4559:4617   */\n      tag_373\n        /* \"#utility.yul\":4611:4616   */\n      dup2\n        /* \"#utility.yul\":4559:4617   */\n      tag_374\n      jump\t// in\n    tag_373:\n        /* \"#utility.yul\":4554:4557   */\n      dup3\n        /* \"#utility.yul\":4547:4618   */\n      mstore\n        /* \"#utility.yul\":4451:4624   */\n      pop\n      pop\n      jump\t// out\n        /* \"#utility.yul\":4630:4775   */\n    tag_375:\n        /* \"#utility.yul\":4724:4768   */\n      tag_377\n        /* \"#utility.yul\":4762:4767   */\n      dup2\n        /* \"#utility.yul\":4724:4768   */\n      tag_378\n      jump\t// in\n    tag_377:\n        /* \"#utility.yul\":4719:4722   */\n      dup3\n        /* \"#utility.yul\":4712:4769   */\n      mstore\n        /* \"#utility.yul\":4630:4775   */\n      pop\n      pop\n      jump\t// out\n        /* \"#utility.yul\":4781:5145   */\n    tag_379:\n        /* \"#utility.yul\":4869:4872   */\n      0x00\n        /* \"#utility.yul\":4897:4936   */\n      tag_381\n        /* \"#utility.yul\":4930:4935   */\n      dup3\n        /* \"#utility.yul\":4897:4936   */\n      tag_382\n      jump\t// in\n    tag_381:\n        /* \"#utility.yul\":4952:5023   */\n      tag_383\n        /* \"#utility.yul\":5016:5022   */\n      dup2\n        /* \"#utility.yul\":5011:5014   */\n      dup6\n        /* \"#utility.yul\":4952:5023   */\n      tag_384\n      jump\t// in\n    tag_383:\n        /* \"#utility.yul\":4945:5023   */\n      swap4\n      pop\n        /* \"#utility.yul\":5032:5084   */\n      tag_385\n        /* \"#utility.yul\":5077:5083   */\n      dup2\n        /* \"#utility.yul\":5072:5075   */\n      dup6\n        /* \"#utility.yul\":5065:5069   */\n      0x20\n        /* \"#utility.yul\":5058:5063   */\n      dup7\n        /* \"#utility.yul\":5054:5070   */\n      add\n        /* \"#utility.yul\":5032:5084   */\n      tag_386\n      jump\t// in\n    tag_385:\n        /* \"#utility.yul\":5109:5138   */\n      tag_387\n        /* \"#utility.yul\":5131:5137   */\n      dup2\n        /* \"#utility.yul\":5109:5138   */\n      tag_388\n      jump\t// in\n    tag_387:\n        /* \"#utility.yul\":5104:5107   */\n      dup5\n        /* \"#utility.yul\":5100:5139   */\n      add\n        /* \"#utility.yul\":5093:5139   */\n      swap2\n      pop\n        /* \"#utility.yul\":4873:5145   */\n      pop\n        /* \"#utility.yul\":4781:5145   */\n      swap3\n      swap2\n      pop\n      pop\n      jump\t// out\n        /* \"#utility.yul\":5151:5517   */\n    tag_389:\n        /* \"#utility.yul\":5293:5296   */\n      0x00\n        /* \"#utility.yul\":5314:5381   */\n      tag_391\n        /* \"#utility.yul\":5378:5380   */\n      0x14\n        /* \"#utility.yul\":5373:5376   */\n      dup4\n        /* \"#utility.yul\":5314:5381   */\n      tag_384\n      jump\t// in\n    tag_391:\n        /* \"#utility.yul\":5307:5381   */\n      swap2\n      pop\n        /* \"#utility.yul\":5390:5483   */\n      tag_392\n        /* \"#utility.yul\":5479:5482   */\n      dup3\n        /* \"#utility.yul\":5390:5483   */\n      tag_393\n      jump\t// in\n    tag_392:\n        /* \"#utility.yul\":5508:5510   */\n      0x20\n        /* \"#utility.yul\":5503:5506   */\n      dup3\n        /* \"#utility.yul\":5499:5511   */\n      add\n        /* \"#utility.yul\":5492:5511   */\n      swap1\n      pop\n        /* \"#utility.yul\":5151:5517   */\n      swap2\n      swap1\n      pop\n      jump\t// out\n        /* \"#utility.yul\":5523:5889   */\n    tag_394:\n        /* \"#utility.yul\":5665:5668   */\n      0x00\n        /* \"#utility.yul\":5686:5753   */\n      tag_396\n        /* \"#utility.yul\":5750:5752   */\n      0x1e\n        /* \"#utility.yul\":5745:5748   */\n      dup4\n        /* \"#utility.yul\":5686:5753   */\n      tag_384\n      jump\t// in\n    tag_396:\n        /* \"#utility.yul\":5679:5753   */\n      swap2\n      pop\n        /* \"#utility.yul\":5762:5855   */\n      tag_397\n        /* \"#utility.yul\":5851:5854   */\n      dup3\n        /* \"#utility.yul\":5762:5855   */\n      tag_398\n      jump\t// in\n    tag_397:\n        /* \"#utility.yul\":5880:5882   */\n      0x20\n        /* \"#utility.yul\":5875:5878   */\n      dup3\n        /* \"#utility.yul\":5871:5883   */\n      add\n        /* \"#utility.yul\":5864:5883   */\n      swap1\n      pop\n        /* \"#utility.yul\":5523:5889   */\n      swap2\n      swap1\n      pop\n      jump\t// out\n        /* \"#utility.yul\":5895:6261   */\n    tag_399:\n        /* \"#utility.yul\":6037:6040   */\n      0x00\n        /* \"#utility.yul\":6058:6125   */\n      tag_401\n        /* \"#utility.yul\":6122:6124   */\n      0x16\n        /* \"#utility.yul\":6117:6120   */\n      dup4\n        /* \"#utility.yul\":6058:6125   */\n      tag_384\n      jump\t// in\n    tag_401:\n        /* \"#utility.yul\":6051:6125   */\n      swap2\n      pop\n        /* \"#utility.yul\":6134:6227   */\n      tag_402\n        /* \"#utility.yul\":6223:6226   */\n      dup3\n        /* \"#utility.yul\":6134:6227   */\n      tag_403\n      jump\t// in\n    tag_402:\n        /* \"#utility.yul\":6252:6254   */\n      0x20\n        /* \"#utility.yul\":6247:6250   */\n      dup3\n        /* \"#utility.yul\":6243:6255   */\n      add\n        /* \"#utility.yul\":6236:6255   */\n      swap1\n      pop\n        /* \"#utility.yul\":5895:6261   */\n      swap2\n      swap1\n      pop\n      jump\t// out\n        /* \"#utility.yul\":6267:6633   */\n    tag_404:\n        /* \"#utility.yul\":6409:6412   */\n      0x00\n        /* \"#utility.yul\":6430:6497   */\n      tag_406\n        /* \"#utility.yul\":6494:6496   */\n      0x1e\n        /* \"#utility.yul\":6489:6492   */\n      dup4\n        /* \"#utility.yul\":6430:6497   */\n      tag_384\n      jump\t// in\n    tag_406:\n        /* \"#utility.yul\":6423:6497   */\n      swap2\n      pop\n        /* \"#utility.yul\":6506:6599   */\n      tag_407\n        /* \"#utility.yul\":6595:6598   */\n      dup3\n        /* \"#utility.yul\":6506:6599   */\n      tag_408\n      jump\t// in\n    tag_407:\n        /* \"#utility.yul\":6624:6626   */\n      0x20\n        /* \"#utility.yul\":6619:6622   */\n      dup3\n        /* \"#utility.yul\":6615:6627   */\n      add\n        /* \"#utility.yul\":6608:6627   */\n      swap1\n      pop\n        /* \"#utility.yul\":6267:6633   */\n      swap2\n      swap1\n      pop\n      jump\t// out\n        /* \"#utility.yul\":6639:6757   */\n    tag_409:\n        /* \"#utility.yul\":6726:6750   */\n      tag_411\n        /* \"#utility.yul\":6744:6749   */\n      dup2\n        /* \"#utility.yul\":6726:6750   */\n      tag_412\n      jump\t// in\n    tag_411:\n        /* \"#utility.yul\":6721:6724   */\n      dup3\n        /* \"#utility.yul\":6714:6751   */\n      mstore\n        /* \"#utility.yul\":6639:6757   */\n      pop\n      pop\n      jump\t// out\n        /* \"#utility.yul\":6763:6985   */\n    tag_99:\n        /* \"#utility.yul\":6856:6860   */\n      0x00\n        /* \"#utility.yul\":6894:6896   */\n      0x20\n        /* \"#utility.yul\":6883:6892   */\n      dup3\n        /* \"#utility.yul\":6879:6897   */\n      add\n        /* \"#utility.yul\":6871:6897   */\n      swap1\n      pop\n        /* \"#utility.yul\":6907:6978   */\n      tag_414\n        /* \"#utility.yul\":6975:6976   */\n      0x00\n        /* \"#utility.yul\":6964:6973   */\n      dup4\n        /* \"#utility.yul\":6960:6977   */\n      add\n        /* \"#utility.yul\":6951:6957   */\n      dup5\n        /* \"#utility.yul\":6907:6978   */\n      tag_363\n      jump\t// in\n    tag_414:\n        /* \"#utility.yul\":6763:6985   */\n      swap3\n      swap2\n      pop\n      pop\n      jump\t// out\n        /* \"#utility.yul\":6991:7245   */\n    tag_156:\n        /* \"#utility.yul\":7100:7104   */\n      0x00\n        /* \"#utility.yul\":7138:7140   */\n      0x20\n        /* \"#utility.yul\":7127:7136   */\n      dup3\n        /* \"#utility.yul\":7123:7141   */\n      add\n        /* \"#utility.yul\":7115:7141   */\n      swap1\n      pop\n        /* \"#utility.yul\":7151:7238   */\n      tag_416\n        /* \"#utility.yul\":7235:7236   */\n      0x00\n        /* \"#utility.yul\":7224:7233   */\n      dup4\n        /* \"#utility.yul\":7220:7237   */\n      add\n        /* \"#utility.yul\":7211:7217   */\n      dup5\n        /* \"#utility.yul\":7151:7238   */\n      tag_359\n      jump\t// in\n    tag_416:\n        /* \"#utility.yul\":6991:7245   */\n      swap3\n      swap2\n      pop\n      pop\n      jump\t// out\n        /* \"#utility.yul\":7251:7583   */\n    tag_221:\n        /* \"#utility.yul\":7372:7376   */\n      0x00\n        /* \"#utility.yul\":7410:7412   */\n      0x40\n        /* \"#utility.yul\":7399:7408   */\n      dup3\n        /* \"#utility.yul\":7395:7413   */\n      add\n        /* \"#utility.yul\":7387:7413   */\n      swap1\n      pop\n        /* \"#utility.yul\":7423:7494   */\n      tag_418\n        /* \"#utility.yul\":7491:7492   */\n      0x00\n        /* \"#utility.yul\":7480:7489   */\n      dup4\n        /* \"#utility.yul\":7476:7493   */\n      add\n        /* \"#utility.yul\":7467:7473   */\n      dup6\n        /* \"#utility.yul\":7423:7494   */\n      tag_363\n      jump\t// in\n    tag_418:\n        /* \"#utility.yul\":7504:7576   */\n      tag_419\n        /* \"#utility.yul\":7572:7574   */\n      0x20\n        /* \"#utility.yul\":7561:7570   */\n      dup4\n        /* \"#utility.yul\":7557:7575   */\n      add\n        /* \"#utility.yul\":7548:7554   */\n      dup5\n        /* \"#utility.yul\":7504:7576   */\n      tag_409\n      jump\t// in\n    tag_419:\n        /* \"#utility.yul\":7251:7583   */\n      swap4\n      swap3\n      pop\n      pop\n      pop\n      jump\t// out\n        /* \"#utility.yul\":7589:8031   */\n    tag_240:\n        /* \"#utility.yul\":7738:7742   */\n      0x00\n        /* \"#utility.yul\":7776:7778   */\n      0x60\n        /* \"#utility.yul\":7765:7774   */\n      dup3\n        /* \"#utility.yul\":7761:7779   */\n      add\n        /* \"#utility.yul\":7753:7779   */\n      swap1\n      pop\n        /* \"#utility.yul\":7789:7860   */\n      tag_421\n        /* \"#utility.yul\":7857:7858   */\n      0x00\n        /* \"#utility.yul\":7846:7855   */\n      dup4\n        /* \"#utility.yul\":7842:7859   */\n      add\n        /* \"#utility.yul\":7833:7839   */\n      dup7\n        /* \"#utility.yul\":7789:7860   */\n      tag_363\n      jump\t// in\n    tag_421:\n        /* \"#utility.yul\":7870:7942   */\n      tag_422\n        /* \"#utility.yul\":7938:7940   */\n      0x20\n        /* \"#utility.yul\":7927:7936   */\n      dup4\n        /* \"#utility.yul\":7923:7941   */\n      add\n        /* \"#utility.yul\":7914:7920   */\n      dup6\n        /* \"#utility.yul\":7870:7942   */\n      tag_409\n      jump\t// in\n    tag_422:\n        /* \"#utility.yul\":7952:8024   */\n      tag_423\n        /* \"#utility.yul\":8020:8022   */\n      0x40\n        /* \"#utility.yul\":8009:8018   */\n      dup4\n        /* \"#utility.yul\":8005:8023   */\n      add\n        /* \"#utility.yul\":7996:8002   */\n      dup5\n        /* \"#utility.yul\":7952:8024   */\n      tag_409\n      jump\t// in\n    tag_423:\n        /* \"#utility.yul\":7589:8031   */\n      swap5\n      swap4\n      pop\n      pop\n      pop\n      pop\n      jump\t// out\n        /* \"#utility.yul\":8037:8247   */\n    tag_57:\n        /* \"#utility.yul\":8124:8128   */\n      0x00\n        /* \"#utility.yul\":8162:8164   */\n      0x20\n        /* \"#utility.yul\":8151:8160   */\n      dup3\n        /* \"#utility.yul\":8147:8165   */\n      add\n        /* \"#utility.yul\":8139:8165   */\n      swap1\n      pop\n        /* \"#utility.yul\":8175:8240   */\n      tag_425\n        /* \"#utility.yul\":8237:8238   */\n      0x00\n        /* \"#utility.yul\":8226:8235   */\n      dup4\n        /* \"#utility.yul\":8222:8239   */\n      add\n        /* \"#utility.yul\":8213:8219   */\n      dup5\n        /* \"#utility.yul\":8175:8240   */\n      tag_367\n      jump\t// in\n    tag_425:\n        /* \"#utility.yul\":8037:8247   */\n      swap3\n      swap2\n      pop\n      pop\n      jump\t// out\n        /* \"#utility.yul\":8253:8517   */\n    tag_104:\n        /* \"#utility.yul\":8367:8371   */\n      0x00\n        /* \"#utility.yul\":8405:8407   */\n      0x20\n        /* \"#utility.yul\":8394:8403   */\n      dup3\n        /* \"#utility.yul\":8390:8408   */\n      add\n        /* \"#utility.yul\":8382:8408   */\n      swap1\n      pop\n        /* \"#utility.yul\":8418:8510   */\n      tag_427\n        /* \"#utility.yul\":8507:8508   */\n      0x00\n        /* \"#utility.yul\":8496:8505   */\n      dup4\n        /* \"#utility.yul\":8492:8509   */\n      add\n        /* \"#utility.yul\":8483:8489   */\n      dup5\n        /* \"#utility.yul\":8418:8510   */\n      tag_371\n      jump\t// in\n    tag_427:\n        /* \"#utility.yul\":8253:8517   */\n      swap3\n      swap2\n      pop\n      pop\n      jump\t// out\n        /* \"#utility.yul\":8523:8759   */\n    tag_87:\n        /* \"#utility.yul\":8623:8627   */\n      0x00\n        /* \"#utility.yul\":8661:8663   */\n      0x20\n        /* \"#utility.yul\":8650:8659   */\n      dup3\n        /* \"#utility.yul\":8646:8664   */\n      add\n        /* \"#utility.yul\":8638:8664   */\n      swap1\n      pop\n        /* \"#utility.yul\":8674:8752   */\n      tag_429\n        /* \"#utility.yul\":8749:8750   */\n      0x00\n        /* \"#utility.yul\":8738:8747   */\n      dup4\n        /* \"#utility.yul\":8734:8751   */\n      add\n        /* \"#utility.yul\":8725:8731   */\n      dup5\n        /* \"#utility.yul\":8674:8752   */\n      tag_375\n      jump\t// in\n    tag_429:\n        /* \"#utility.yul\":8523:8759   */\n      swap3\n      swap2\n      pop\n      pop\n      jump\t// out\n        /* \"#utility.yul\":8765:9078   */\n    tag_50:\n        /* \"#utility.yul\":8878:8882   */\n      0x00\n        /* \"#utility.yul\":8916:8918   */\n      0x20\n        /* \"#utility.yul\":8905:8914   */\n      dup3\n        /* \"#utility.yul\":8901:8919   */\n      add\n        /* \"#utility.yul\":8893:8919   */\n      swap1\n      pop\n        /* \"#utility.yul\":8965:8974   */\n      dup2\n        /* \"#utility.yul\":8959:8963   */\n      dup2\n        /* \"#utility.yul\":8955:8975   */\n      sub\n        /* \"#utility.yul\":8951:8952   */\n      0x00\n        /* \"#utility.yul\":8940:8949   */\n      dup4\n        /* \"#utility.yul\":8936:8953   */\n      add\n        /* \"#utility.yul\":8929:8976   */\n      mstore\n        /* \"#utility.yul\":8993:9071   */\n      tag_431\n        /* \"#utility.yul\":9066:9070   */\n      dup2\n        /* \"#utility.yul\":9057:9063   */\n      dup5\n        /* \"#utility.yul\":8993:9071   */\n      tag_379\n      jump\t// in\n    tag_431:\n        /* \"#utility.yul\":8985:9071   */\n      swap1\n      pop\n        /* \"#utility.yul\":8765:9078   */\n      swap3\n      swap2\n      pop\n      pop\n      jump\t// out\n        /* \"#utility.yul\":9084:9503   */\n    tag_202:\n        /* \"#utility.yul\":9250:9254   */\n      0x00\n        /* \"#utility.yul\":9288:9290   */\n      0x20\n        /* \"#utility.yul\":9277:9286   */\n      dup3\n        /* \"#utility.yul\":9273:9291   */\n      add\n        /* \"#utility.yul\":9265:9291   */\n      swap1\n      pop\n        /* \"#utility.yul\":9337:9346   */\n      dup2\n        /* \"#utility.yul\":9331:9335   */\n      dup2\n        /* \"#utility.yul\":9327:9347   */\n      sub\n        /* \"#utility.yul\":9323:9324   */\n      0x00\n        /* \"#utility.yul\":9312:9321   */\n      dup4\n        /* \"#utility.yul\":9308:9325   */\n      add\n        /* \"#utility.yul\":9301:9348   */\n      mstore\n        /* \"#utility.yul\":9365:9496   */\n      tag_433\n        /* \"#utility.yul\":9491:9495   */\n      dup2\n        /* \"#utility.yul\":9365:9496   */\n      tag_389\n      jump\t// in\n    tag_433:\n        /* \"#utility.yul\":9357:9496   */\n      swap1\n      pop\n        /* \"#utility.yul\":9084:9503   */\n      swap2\n      swap1\n      pop\n      jump\t// out\n        /* \"#utility.yul\":9509:9928   */\n    tag_231:\n        /* \"#utility.yul\":9675:9679   */\n      0x00\n        /* \"#utility.yul\":9713:9715   */\n      0x20\n        /* \"#utility.yul\":9702:9711   */\n      dup3\n        /* \"#utility.yul\":9698:9716   */\n      add\n        /* \"#utility.yul\":9690:9716   */\n      swap1\n      pop\n        /* \"#utility.yul\":9762:9771   */\n      dup2\n        /* \"#utility.yul\":9756:9760   */\n      dup2\n        /* \"#utility.yul\":9752:9772   */\n      sub\n        /* \"#utility.yul\":9748:9749   */\n      0x00\n        /* \"#utility.yul\":9737:9746   */\n      dup4\n        /* \"#utility.yul\":9733:9750   */\n      add\n        /* \"#utility.yul\":9726:9773   */\n      mstore\n        /* \"#utility.yul\":9790:9921   */\n      tag_435\n        /* \"#utility.yul\":9916:9920   */\n      dup2\n        /* \"#utility.yul\":9790:9921   */\n      tag_394\n      jump\t// in\n    tag_435:\n        /* \"#utility.yul\":9782:9921   */\n      swap1\n      pop\n        /* \"#utility.yul\":9509:9928   */\n      swap2\n      swap1\n      pop\n      jump\t// out\n        /* \"#utility.yul\":9934:10353   */\n    tag_207:\n        /* \"#utility.yul\":10100:10104   */\n      0x00\n        /* \"#utility.yul\":10138:10140   */\n      0x20\n        /* \"#utility.yul\":10127:10136   */\n      dup3\n        /* \"#utility.yul\":10123:10141   */\n      add\n        /* \"#utility.yul\":10115:10141   */\n      swap1\n      pop\n        /* \"#utility.yul\":10187:10196   */\n      dup2\n        /* \"#utility.yul\":10181:10185   */\n      dup2\n        /* \"#utility.yul\":10177:10197   */\n      sub\n        /* \"#utility.yul\":10173:10174   */\n      0x00\n        /* \"#utility.yul\":10162:10171   */\n      dup4\n        /* \"#utility.yul\":10158:10175   */\n      add\n        /* \"#utility.yul\":10151:10198   */\n      mstore\n        /* \"#utility.yul\":10215:10346   */\n      tag_437\n        /* \"#utility.yul\":10341:10345   */\n      dup2\n        /* \"#utility.yul\":10215:10346   */\n      tag_399\n      jump\t// in\n    tag_437:\n        /* \"#utility.yul\":10207:10346   */\n      swap1\n      pop\n        /* \"#utility.yul\":9934:10353   */\n      swap2\n      swap1\n      pop\n      jump\t// out\n        /* \"#utility.yul\":10359:10778   */\n    tag_218:\n        /* \"#utility.yul\":10525:10529   */\n      0x00\n        /* \"#utility.yul\":10563:10565   */\n      0x20\n        /* \"#utility.yul\":10552:10561   */\n      dup3\n        /* \"#utility.yul\":10548:10566   */\n      add\n        /* \"#utility.yul\":10540:10566   */\n      swap1\n      pop\n        /* \"#utility.yul\":10612:10621   */\n      dup2\n        /* \"#utility.yul\":10606:10610   */\n      dup2\n        /* \"#utility.yul\":10602:10622   */\n      sub\n        /* \"#utility.yul\":10598:10599   */\n      0x00\n        /* \"#utility.yul\":10587:10596   */\n      dup4\n        /* \"#utility.yul\":10583:10600   */\n      add\n        /* \"#utility.yul\":10576:10623   */\n      mstore\n        /* \"#utility.yul\":10640:10771   */\n      tag_439\n        /* \"#utility.yul\":10766:10770   */\n      dup2\n        /* \"#utility.yul\":10640:10771   */\n      tag_404\n      jump\t// in\n    tag_439:\n        /* \"#utility.yul\":10632:10771   */\n      swap1\n      pop\n        /* \"#utility.yul\":10359:10778   */\n      swap2\n      swap1\n      pop\n      jump\t// out\n        /* \"#utility.yul\":10784:11006   */\n    tag_42:\n        /* \"#utility.yul\":10877:10881   */\n      0x00\n        /* \"#utility.yul\":10915:10917   */\n      0x20\n        /* \"#utility.yul\":10904:10913   */\n      dup3\n        /* \"#utility.yul\":10900:10918   */\n      add\n        /* \"#utility.yul\":10892:10918   */\n      swap1\n      pop\n        /* \"#utility.yul\":10928:10999   */\n      tag_441\n        /* \"#utility.yul\":10996:10997   */\n      0x00\n        /* \"#utility.yul\":10985:10994   */\n      dup4\n        /* \"#utility.yul\":10981:10998   */\n      add\n        /* \"#utility.yul\":10972:10978   */\n      dup5\n        /* \"#utility.yul\":10928:10999   */\n      tag_409\n      jump\t// in\n    tag_441:\n        /* \"#utility.yul\":10784:11006   */\n      swap3\n      swap2\n      pop\n      pop\n      jump\t// out\n        /* \"#utility.yul\":11093:11192   */\n    tag_382:\n        /* \"#utility.yul\":11145:11151   */\n      0x00\n        /* \"#utility.yul\":11179:11184   */\n      dup2\n        /* \"#utility.yul\":11173:11185   */\n      mload\n        /* \"#utility.yul\":11163:11185   */\n      swap1\n      pop\n        /* \"#utility.yul\":11093:11192   */\n      swap2\n      swap1\n      pop\n      jump\t// out\n        /* \"#utility.yul\":11198:11367   */\n    tag_384:\n        /* \"#utility.yul\":11282:11293   */\n      0x00\n        /* \"#utility.yul\":11316:11322   */\n      dup3\n        /* \"#utility.yul\":11311:11314   */\n      dup3\n        /* \"#utility.yul\":11304:11323   */\n      mstore\n        /* \"#utility.yul\":11356:11360   */\n      0x20\n        /* \"#utility.yul\":11351:11354   */\n      dup3\n        /* \"#utility.yul\":11347:11361   */\n      add\n        /* \"#utility.yul\":11332:11361   */\n      swap1\n      pop\n        /* \"#utility.yul\":11198:11367   */\n      swap3\n      swap2\n      pop\n      pop\n      jump\t// out\n        /* \"#utility.yul\":11373:11678   */\n    tag_233:\n        /* \"#utility.yul\":11413:11416   */\n      0x00\n        /* \"#utility.yul\":11432:11452   */\n      tag_447\n        /* \"#utility.yul\":11450:11451   */\n      dup3\n        /* \"#utility.yul\":11432:11452   */\n      tag_412\n      jump\t// in\n    tag_447:\n        /* \"#utility.yul\":11427:11452   */\n      swap2\n      pop\n        /* \"#utility.yul\":11466:11486   */\n      tag_448\n        /* \"#utility.yul\":11484:11485   */\n      dup4\n        /* \"#utility.yul\":11466:11486   */\n      tag_412\n      jump\t// in\n    tag_448:\n        /* \"#utility.yul\":11461:11486   */\n      swap3\n      pop\n        /* \"#utility.yul\":11620:11621   */\n      dup3\n        /* \"#utility.yul\":11552:11618   */\n      0xffffffffffffffffffffffffffffffffffffffffffffffffffffffffffffffff\n        /* \"#utility.yul\":11548:11622   */\n      sub\n        /* \"#utility.yul\":11545:11546   */\n      dup3\n        /* \"#utility.yul\":11542:11623   */\n      gt\n        /* \"#utility.yul\":11539:11646   */\n      iszero\n      tag_449\n      jumpi\n        /* \"#utility.yul\":11626:11644   */\n      tag_450\n      tag_451\n      jump\t// in\n    tag_450:\n        /* \"#utility.yul\":11539:11646   */\n    tag_449:\n        /* \"#utility.yul\":11670:11671   */\n      dup3\n        /* \"#utility.yul\":11667:11668   */\n      dup3\n        /* \"#utility.yul\":11663:11672   */\n      add\n        /* \"#utility.yul\":11656:11672   */\n      swap1\n      pop\n        /* \"#utility.yul\":11373:11678   */\n      swap3\n      swap2\n      pop\n      pop\n      jump\t// out\n        /* \"#utility.yul\":11684:11869   */\n    tag_295:\n        /* \"#utility.yul\":11724:11725   */\n      0x00\n        /* \"#utility.yul\":11741:11761   */\n      tag_453\n        /* \"#utility.yul\":11759:11760   */\n      dup3\n        /* \"#utility.yul\":11741:11761   */\n      tag_412\n      jump\t// in\n    tag_453:\n        /* \"#utility.yul\":11736:11761   */\n      swap2\n      pop\n        /* \"#utility.yul\":11775:11795   */\n      tag_454\n        /* \"#utility.yul\":11793:11794   */\n      dup4\n        /* \"#utility.yul\":11775:11795   */\n      tag_412\n      jump\t// in\n    tag_454:\n        /* \"#utility.yul\":11770:11795   */\n      swap3\n      pop\n        /* \"#utility.yul\":11814:11815   */\n      dup3\n        /* \"#utility.yul\":11804:11839   */\n      tag_455\n      jumpi\n        /* \"#utility.yul\":11819:11837   */\n      tag_456\n      tag_457\n      jump\t// in\n    tag_456:\n        /* \"#utility.yul\":11804:11839   */\n    tag_455:\n        /* \"#utility.yul\":11861:11862   */\n      dup3\n        /* \"#utility.yul\":11858:11859   */\n      dup3\n        /* \"#utility.yul\":11854:11863   */\n      div\n        /* \"#utility.yul\":11849:11863   */\n      swap1\n      pop\n        /* \"#utility.yul\":11684:11869   */\n      swap3\n      swap2\n      pop\n      pop\n      jump\t// out\n        /* \"#utility.yul\":11875:12223   */\n    tag_209:\n        /* \"#utility.yul\":11915:11922   */\n      0x00\n        /* \"#utility.yul\":11938:11958   */\n      tag_459\n        /* \"#utility.yul\":11956:11957   */\n      dup3\n        /* \"#utility.yul\":11938:11958   */\n      tag_412\n      jump\t// in\n    tag_459:\n        /* \"#utility.yul\":11933:11958   */\n      swap2\n      pop\n        /* \"#utility.yul\":11972:11992   */\n      tag_460\n        /* \"#utility.yul\":11990:11991   */\n      dup4\n        /* \"#utility.yul\":11972:11992   */\n      tag_412\n      jump\t// in\n    tag_460:\n        /* \"#utility.yul\":11967:11992   */\n      swap3\n      pop\n        /* \"#utility.yul\":12160:12161   */\n      dup2\n        /* \"#utility.yul\":12092:12158   */\n      0xffffffffffffffffffffffffffffffffffffffffffffffffffffffffffffffff\n        /* \"#utility.yul\":12088:12162   */\n      div\n        /* \"#utility.yul\":12085:12086   */\n      dup4\n        /* \"#utility.yul\":12082:12163   */\n      gt\n        /* \"#utility.yul\":12077:12078   */\n      dup3\n        /* \"#utility.yul\":12070:12079   */\n      iszero\n        /* \"#utility.yul\":12063:12080   */\n      iszero\n        /* \"#utility.yul\":12059:12164   */\n      and\n        /* \"#utility.yul\":12056:12187   */\n      iszero\n      tag_461\n      jumpi\n        /* \"#utility.yul\":12167:12185   */\n      tag_462\n      tag_451\n      jump\t// in\n    tag_462:\n        /* \"#utility.yul\":12056:12187   */\n    tag_461:\n        /* \"#utility.yul\":12215:12216   */\n      dup3\n        /* \"#utility.yul\":12212:12213   */\n      dup3\n        /* \"#utility.yul\":12208:12217   */\n      mul\n        /* \"#utility.yul\":12197:12217   */\n      swap1\n      pop\n        /* \"#utility.yul\":11875:12223   */\n      swap3\n      swap2\n      pop\n      pop\n      jump\t// out\n        /* \"#utility.yul\":12229:12420   */\n    tag_236:\n        /* \"#utility.yul\":12269:12273   */\n      0x00\n        /* \"#utility.yul\":12289:12309   */\n      tag_464\n        /* \"#utility.yul\":12307:12308   */\n      dup3\n        /* \"#utility.yul\":12289:12309   */\n      tag_412\n      jump\t// in\n    tag_464:\n        /* \"#utility.yul\":12284:12309   */\n      swap2\n      pop\n        /* \"#utility.yul\":12323:12343   */\n      tag_465\n        /* \"#utility.yul\":12341:12342   */\n      dup4\n        /* \"#utility.yul\":12323:12343   */\n      tag_412\n      jump\t// in\n    tag_465:\n        /* \"#utility.yul\":12318:12343   */\n      swap3\n      pop\n        /* \"#utility.yul\":12362:12363   */\n      dup3\n        /* \"#utility.yul\":12359:12360   */\n      dup3\n        /* \"#utility.yul\":12356:12364   */\n      lt\n        /* \"#utility.yul\":12353:12387   */\n      iszero\n      tag_466\n      jumpi\n        /* \"#utility.yul\":12367:12385   */\n      tag_467\n      tag_451\n      jump\t// in\n    tag_467:\n        /* \"#utility.yul\":12353:12387   */\n    tag_466:\n        /* \"#utility.yul\":12412:12413   */\n      dup3\n        /* \"#utility.yul\":12409:12410   */\n      dup3\n        /* \"#utility.yul\":12405:12414   */\n      sub\n        /* \"#utility.yul\":12397:12414   */\n      swap1\n      pop\n        /* \"#utility.yul\":12229:12420   */\n      swap3\n      swap2\n      pop\n      pop\n      jump\t// out\n        /* \"#utility.yul\":12426:12522   */\n    tag_366:\n        /* \"#utility.yul\":12463:12470   */\n      0x00\n        /* \"#utility.yul\":12492:12516   */\n      tag_469\n        /* \"#utility.yul\":12510:12515   */\n      dup3\n        /* \"#utility.yul\":12492:12516   */\n      tag_470\n      jump\t// in\n    tag_469:\n        /* \"#utility.yul\":12481:12516   */\n      swap1\n      pop\n        /* \"#utility.yul\":12426:12522   */\n      swap2\n      swap1\n      pop\n      jump\t// out\n        /* \"#utility.yul\":12528:12632   */\n    tag_362:\n        /* \"#utility.yul\":12573:12580   */\n      0x00\n        /* \"#utility.yul\":12602:12626   */\n      tag_472\n        /* \"#utility.yul\":12620:12625   */\n      dup3\n        /* \"#utility.yul\":12602:12626   */\n      tag_470\n      jump\t// in\n    tag_472:\n        /* \"#utility.yul\":12591:12626   */\n      swap1\n      pop\n        /* \"#utility.yul\":12528:12632   */\n      swap2\n      swap1\n      pop\n      jump\t// out\n        /* \"#utility.yul\":12638:12728   */\n    tag_370:\n        /* \"#utility.yul\":12672:12679   */\n      0x00\n        /* \"#utility.yul\":12715:12720   */\n      dup2\n        /* \"#utility.yul\":12708:12721   */\n      iszero\n        /* \"#utility.yul\":12701:12722   */\n      iszero\n        /* \"#utility.yul\":12690:12722   */\n      swap1\n      pop\n        /* \"#utility.yul\":12638:12728   */\n      swap2\n      swap1\n      pop\n      jump\t// out\n        /* \"#utility.yul\":12734:12863   */\n    tag_474:\n        /* \"#utility.yul\":12780:12787   */\n      0x00\n        /* \"#utility.yul\":12809:12814   */\n      dup2\n        /* \"#utility.yul\":12798:12814   */\n      swap1\n      pop\n        /* \"#utility.yul\":12815:12857   */\n      tag_476\n        /* \"#utility.yul\":12851:12856   */\n      dup3\n        /* \"#utility.yul\":12815:12857   */\n      tag_477\n      jump\t// in\n    tag_476:\n        /* \"#utility.yul\":12734:12863   */\n      swap2\n      swap1\n      pop\n      jump\t// out\n        /* \"#utility.yul\":12869:12995   */\n    tag_470:\n        /* \"#utility.yul\":12906:12913   */\n      0x00\n        /* \"#utility.yul\":12946:12988   */\n      0xffffffffffffffffffffffffffffffffffffffff\n        /* \"#utility.yul\":12939:12944   */\n      dup3\n        /* \"#utility.yul\":12935:12989   */\n      and\n        /* \"#utility.yul\":12924:12989   */\n      swap1\n      pop\n        /* \"#utility.yul\":12869:12995   */\n      swap2\n      swap1\n      pop\n      jump\t// out\n        /* \"#utility.yul\":13001:13078   */\n    tag_412:\n        /* \"#utility.yul\":13038:13045   */\n      0x00\n        /* \"#utility.yul\":13067:13072   */\n      dup2\n        /* \"#utility.yul\":13056:13072   */\n      swap1\n      pop\n        /* \"#utility.yul\":13001:13078   */\n      swap2\n      swap1\n      pop\n      jump\t// out\n        /* \"#utility.yul\":13084:13231   */\n    tag_374:\n        /* \"#utility.yul\":13155:13164   */\n      0x00\n        /* \"#utility.yul\":13188:13225   */\n      tag_481\n        /* \"#utility.yul\":13219:13224   */\n      dup3\n        /* \"#utility.yul\":13188:13225   */\n      tag_482\n      jump\t// in\n    tag_481:\n        /* \"#utility.yul\":13175:13225   */\n      swap1\n      pop\n        /* \"#utility.yul\":13084:13231   */\n      swap2\n      swap1\n      pop\n      jump\t// out\n        /* \"#utility.yul\":13237:13366   */\n    tag_378:\n        /* \"#utility.yul\":13294:13303   */\n      0x00\n        /* \"#utility.yul\":13327:13360   */\n      tag_484\n        /* \"#utility.yul\":13354:13359   */\n      dup3\n        /* \"#utility.yul\":13327:13360   */\n      tag_474\n      jump\t// in\n    tag_484:\n        /* \"#utility.yul\":13314:13360   */\n      swap1\n      pop\n        /* \"#utility.yul\":13237:13366   */\n      swap2\n      swap1\n      pop\n      jump\t// out\n        /* \"#utility.yul\":13372:13498   */\n    tag_482:\n        /* \"#utility.yul\":13422:13431   */\n      0x00\n        /* \"#utility.yul\":13455:13492   */\n      tag_486\n        /* \"#utility.yul\":13486:13491   */\n      dup3\n        /* \"#utility.yul\":13455:13492   */\n      tag_487\n      jump\t// in\n    tag_486:\n        /* \"#utility.yul\":13442:13492   */\n      swap1\n      pop\n        /* \"#utility.yul\":13372:13498   */\n      swap2\n      swap1\n      pop\n      jump\t// out\n        /* \"#utility.yul\":13504:13617   */\n    tag_487:\n        /* \"#utility.yul\":13554:13563   */\n      0x00\n        /* \"#utility.yul\":13587:13611   */\n      tag_489\n        /* \"#utility.yul\":13605:13610   */\n      dup3\n        /* \"#utility.yul\":13587:13611   */\n      tag_470\n      jump\t// in\n    tag_489:\n        /* \"#utility.yul\":13574:13611   */\n      swap1\n      pop\n        /* \"#utility.yul\":13504:13617   */\n      swap2\n      swap1\n      pop\n      jump\t// out\n        /* \"#utility.yul\":13623:13930   */\n    tag_386:\n        /* \"#utility.yul\":13691:13692   */\n      0x00\n        /* \"#utility.yul\":13701:13814   */\n    tag_491:\n        /* \"#utility.yul\":13715:13721   */\n      dup4\n        /* \"#utility.yul\":13712:13713   */\n      dup2\n        /* \"#utility.yul\":13709:13722   */\n      lt\n        /* \"#utility.yul\":13701:13814   */\n      iszero\n      tag_493\n      jumpi\n        /* \"#utility.yul\":13800:13801   */\n      dup1\n        /* \"#utility.yul\":13795:13798   */\n      dup3\n        /* \"#utility.yul\":13791:13802   */\n      add\n        /* \"#utility.yul\":13785:13803   */\n      mload\n        /* \"#utility.yul\":13781:13782   */\n      dup2\n        /* \"#utility.yul\":13776:13779   */\n      dup5\n        /* \"#utility.yul\":13772:13783   */\n      add\n        /* \"#utility.yul\":13765:13804   */\n      mstore\n        /* \"#utility.yul\":13737:13739   */\n      0x20\n        /* \"#utility.yul\":13734:13735   */\n      dup2\n        /* \"#utility.yul\":13730:13740   */\n      add\n        /* \"#utility.yul\":13725:13740   */\n      swap1\n      pop\n        /* \"#utility.yul\":13701:13814   */\n      jump(tag_491)\n    tag_493:\n        /* \"#utility.yul\":13832:13838   */\n      dup4\n        /* \"#utility.yul\":13829:13830   */\n      dup2\n        /* \"#utility.yul\":13826:13839   */\n      gt\n        /* \"#utility.yul\":13823:13924   */\n      iszero\n      tag_494\n      jumpi\n        /* \"#utility.yul\":13912:13913   */\n      0x00\n        /* \"#utility.yul\":13903:13909   */\n      dup5\n        /* \"#utility.yul\":13898:13901   */\n      dup5\n        /* \"#utility.yul\":13894:13910   */\n      add\n        /* \"#utility.yul\":13887:13914   */\n      mstore\n        /* \"#utility.yul\":13823:13924   */\n    tag_494:\n        /* \"#utility.yul\":13672:13930   */\n      pop\n        /* \"#utility.yul\":13623:13930   */\n      pop\n      pop\n      pop\n      jump\t// out\n        /* \"#utility.yul\":13936:14256   */\n    tag_179:\n        /* \"#utility.yul\":13980:13986   */\n      0x00\n        /* \"#utility.yul\":14017:14018   */\n      0x02\n        /* \"#utility.yul\":14011:14015   */\n      dup3\n        /* \"#utility.yul\":14007:14019   */\n      div\n        /* \"#utility.yul\":13997:14019   */\n      swap1\n      pop\n        /* \"#utility.yul\":14064:14065   */\n      0x01\n        /* \"#utility.yul\":14058:14062   */\n      dup3\n        /* \"#utility.yul\":14054:14066   */\n      and\n        /* \"#utility.yul\":14085:14103   */\n      dup1\n        /* \"#utility.yul\":14075:14156   */\n      tag_496\n      jumpi\n        /* \"#utility.yul\":14141:14145   */\n      0x7f\n        /* \"#utility.yul\":14133:14139   */\n      dup3\n        /* \"#utility.yul\":14129:14146   */\n      and\n        /* \"#utility.yul\":14119:14146   */\n      swap2\n      pop\n        /* \"#utility.yul\":14075:14156   */\n    tag_496:\n        /* \"#utility.yul\":14203:14205   */\n      0x20\n        /* \"#utility.yul\":14195:14201   */\n      dup3\n        /* \"#utility.yul\":14192:14206   */\n      lt\n        /* \"#utility.yul\":14172:14190   */\n      dup2\n        /* \"#utility.yul\":14169:14207   */\n      eq\n        /* \"#utility.yul\":14166:14250   */\n      iszero\n      tag_497\n      jumpi\n        /* \"#utility.yul\":14222:14240   */\n      tag_498\n      tag_499\n      jump\t// in\n    tag_498:\n        /* \"#utility.yul\":14166:14250   */\n    tag_497:\n        /* \"#utility.yul\":13987:14256   */\n      pop\n        /* \"#utility.yul\":13936:14256   */\n      swap2\n      swap1\n      pop\n      jump\t// out\n        /* \"#utility.yul\":14262:14442   */\n    tag_451:\n        /* \"#utility.yul\":14310:14387   */\n      0x4e487b7100000000000000000000000000000000000000000000000000000000\n        /* \"#utility.yul\":14307:14308   */\n      0x00\n        /* \"#utility.yul\":14300:14388   */\n      mstore\n        /* \"#utility.yul\":14407:14411   */\n      0x11\n        /* \"#utility.yul\":14404:14405   */\n      0x04\n        /* \"#utility.yul\":14397:14412   */\n      mstore\n        /* \"#utility.yul\":14431:14435   */\n      0x24\n        /* \"#utility.yul\":14428:14429   */\n      0x00\n        /* \"#utility.yul\":14421:14436   */\n      revert\n        /* \"#utility.yul\":14448:14628   */\n    tag_457:\n        /* \"#utility.yul\":14496:14573   */\n      0x4e487b7100000000000000000000000000000000000000000000000000000000\n        /* \"#utility.yul\":14493:14494   */\n      0x00\n        /* \"#utility.yul\":14486:14574   */\n      mstore\n        /* \"#utility.yul\":14593:14597   */\n      0x12\n        /* \"#utility.yul\":14590:14591   */\n      0x04\n        /* \"#utility.yul\":14583:14598   */\n      mstore\n        /* \"#utility.yul\":14617:14621   */\n      0x24\n        /* \"#utility.yul\":14614:14615   */\n      0x00\n        /* \"#utility.yul\":14607:14622   */\n      revert\n        /* \"#utility.yul\":14634:14814   */\n    tag_177:\n        /* \"#utility.yul\":14682:14759   */\n      0x4e487b7100000000000000000000000000000000000000000000000000000000\n        /* \"#utility.yul\":14679:14680   */\n      0x00\n        /* \"#utility.yul\":14672:14760   */\n      mstore\n        /* \"#utility.yul\":14779:14783   */\n      0x21\n        /* \"#utility.yul\":14776:14777   */\n      0x04\n        /* \"#utility.yul\":14769:14784   */\n      mstore\n        /* \"#utility.yul\":14803:14807   */\n      0x24\n        /* \"#utility.yul\":14800:14801   */\n      0x00\n        /* \"#utility.yul\":14793:14808   */\n      revert\n        /* \"#utility.yul\":14820:15000   */\n    tag_499:\n        /* \"#utility.yul\":14868:14945   */\n      0x4e487b7100000000000000000000000000000000000000000000000000000000\n        /* \"#utility.yul\":14865:14866   */\n      0x00\n        /* \"#utility.yul\":14858:14946   */\n      mstore\n        /* \"#utility.yul\":14965:14969   */\n      0x22\n        /* \"#utility.yul\":14962:14963   */\n      0x04\n        /* \"#utility.yul\":14955:14970   */\n      mstore\n        /* \"#utility.yul\":14989:14993   */\n      0x24\n        /* \"#utility.yul\":14986:14987   */\n      0x00\n        /* \"#utility.yul\":14979:14994   */\n      revert\n        /* \"#utility.yul\":15129:15246   */\n    tag_325:\n        /* \"#utility.yul\":15238:15239   */\n      0x00\n        /* \"#utility.yul\":15235:15236   */\n      dup1\n        /* \"#utility.yul\":15228:15240   */\n      revert\n        /* \"#utility.yul\":15252:15354   */\n    tag_388:\n        /* \"#utility.yul\":15293:15299   */\n      0x00\n        /* \"#utility.yul\":15344:15346   */\n      0x1f\n        /* \"#utility.yul\":15340:15347   */\n      not\n        /* \"#utility.yul\":15335:15337   */\n      0x1f\n        /* \"#utility.yul\":15328:15333   */\n      dup4\n        /* \"#utility.yul\":15324:15338   */\n      add\n        /* \"#utility.yul\":15320:15348   */\n      and\n        /* \"#utility.yul\":15310:15348   */\n      swap1\n      pop\n        /* \"#utility.yul\":15252:15354   */\n      swap2\n      swap1\n      pop\n      jump\t// out\n        /* \"#utility.yul\":15360:15530   */\n    tag_393:\n        /* \"#utility.yul\":15500:15522   */\n      0x5374617465206973206e6f742072756e6e696e67000000000000000000000000\n        /* \"#utility.yul\":15496:15497   */\n      0x00\n        /* \"#utility.yul\":15488:15494   */\n      dup3\n        /* \"#utility.yul\":15484:15498   */\n      add\n        /* \"#utility.yul\":15477:15523   */\n      mstore\n        /* \"#utility.yul\":15360:15530   */\n      pop\n      jump\t// out\n        /* \"#utility.yul\":15536:15716   */\n    tag_398:\n        /* \"#utility.yul\":15676:15708   */\n      0x4d6178206f72204d696e20696e766573746d656e742045786365656465640000\n        /* \"#utility.yul\":15672:15673   */\n      0x00\n        /* \"#utility.yul\":15664:15670   */\n      dup3\n        /* \"#utility.yul\":15660:15674   */\n      add\n        /* \"#utility.yul\":15653:15709   */\n      mstore\n        /* \"#utility.yul\":15536:15716   */\n      pop\n      jump\t// out\n        /* \"#utility.yul\":15722:15894   */\n    tag_403:\n        /* \"#utility.yul\":15862:15886   */\n      0x6574682073656e74206973206e6f7420656e6f75676800000000000000000000\n        /* \"#utility.yul\":15858:15859   */\n      0x00\n        /* \"#utility.yul\":15850:15856   */\n      dup3\n        /* \"#utility.yul\":15846:15860   */\n      add\n        /* \"#utility.yul\":15839:15887   */\n      mstore\n        /* \"#utility.yul\":15722:15894   */\n      pop\n      jump\t// out\n        /* \"#utility.yul\":15900:16080   */\n    tag_408:\n        /* \"#utility.yul\":16040:16072   */\n      0x4e6f206d6f726520746f6b656e20696e2074686520636f6e7472616374210000\n        /* \"#utility.yul\":16036:16037   */\n      0x00\n        /* \"#utility.yul\":16028:16034   */\n      dup3\n        /* \"#utility.yul\":16024:16038   */\n      add\n        /* \"#utility.yul\":16017:16073   */\n      mstore\n        /* \"#utility.yul\":15900:16080   */\n      pop\n      jump\t// out\n        /* \"#utility.yul\":16086:16200   */\n    tag_477:\n        /* \"#utility.yul\":16168:16169   */\n      0x04\n        /* \"#utility.yul\":16161:16166   */\n      dup2\n        /* \"#utility.yul\":16158:16170   */\n      lt\n        /* \"#utility.yul\":16148:16194   */\n      tag_513\n      jumpi\n        /* \"#utility.yul\":16174:16192   */\n      tag_514\n      tag_177\n      jump\t// in\n    tag_514:\n        /* \"#utility.yul\":16148:16194   */\n    tag_513:\n        /* \"#utility.yul\":16086:16200   */\n      pop\n      jump\t// out\n        /* \"#utility.yul\":16206:16328   */\n    tag_306:\n        /* \"#utility.yul\":16279:16303   */\n      tag_516\n        /* \"#utility.yul\":16297:16302   */\n      dup2\n        /* \"#utility.yul\":16279:16303   */\n      tag_366\n      jump\t// in\n    tag_516:\n        /* \"#utility.yul\":16272:16277   */\n      dup2\n        /* \"#utility.yul\":16269:16304   */\n      eq\n        /* \"#utility.yul\":16259:16322   */\n      tag_517\n      jumpi\n        /* \"#utility.yul\":16318:16319   */\n      0x00\n        /* \"#utility.yul\":16315:16316   */\n      dup1\n        /* \"#utility.yul\":16308:16320   */\n      revert\n        /* \"#utility.yul\":16259:16322   */\n    tag_517:\n        /* \"#utility.yul\":16206:16328   */\n      pop\n      jump\t// out\n        /* \"#utility.yul\":16334:16472   */\n    tag_310:\n        /* \"#utility.yul\":16415:16447   */\n      tag_519\n        /* \"#utility.yul\":16441:16446   */\n      dup2\n        /* \"#utility.yul\":16415:16447   */\n      tag_362\n      jump\t// in\n    tag_519:\n        /* \"#utility.yul\":16408:16413   */\n      dup2\n        /* \"#utility.yul\":16405:16448   */\n      eq\n        /* \"#utility.yul\":16395:16466   */\n      tag_520\n      jumpi\n        /* \"#utility.yul\":16462:16463   */\n      0x00\n        /* \"#utility.yul\":16459:16460   */\n      dup1\n        /* \"#utility.yul\":16452:16464   */\n      revert\n        /* \"#utility.yul\":16395:16466   */\n    tag_520:\n        /* \"#utility.yul\":16334:16472   */\n      pop\n      jump\t// out\n        /* \"#utility.yul\":16478:16594   */\n    tag_314:\n        /* \"#utility.yul\":16548:16569   */\n      tag_522\n        /* \"#utility.yul\":16563:16568   */\n      dup2\n        /* \"#utility.yul\":16548:16569   */\n      tag_370\n      jump\t// in\n    tag_522:\n        /* \"#utility.yul\":16541:16546   */\n      dup2\n        /* \"#utility.yul\":16538:16570   */\n      eq\n        /* \"#utility.yul\":16528:16588   */\n      tag_523\n      jumpi\n        /* \"#utility.yul\":16584:16585   */\n      0x00\n        /* \"#utility.yul\":16581:16582   */\n      dup1\n        /* \"#utility.yul\":16574:16586   */\n      revert\n        /* \"#utility.yul\":16528:16588   */\n    tag_523:\n        /* \"#utility.yul\":16478:16594   */\n      pop\n      jump\t// out\n        /* \"#utility.yul\":16600:16722   */\n    tag_318:\n        /* \"#utility.yul\":16673:16697   */\n      tag_525\n        /* \"#utility.yul\":16691:16696   */\n      dup2\n        /* \"#utility.yul\":16673:16697   */\n      tag_412\n      jump\t// in\n    tag_525:\n        /* \"#utility.yul\":16666:16671   */\n      dup2\n        /* \"#utility.yul\":16663:16698   */\n      eq\n        /* \"#utility.yul\":16653:16716   */\n      tag_526\n      jumpi\n        /* \"#utility.yul\":16712:16713   */\n      0x00\n        /* \"#utility.yul\":16709:16710   */\n      dup1\n        /* \"#utility.yul\":16702:16714   */\n      revert\n        /* \"#utility.yul\":16653:16716   */\n    tag_526:\n        /* \"#utility.yul\":16600:16722   */\n      pop\n      jump\t// out\n\n    auxdata: 0xa264697066735822122003f34cf7ab6b23ffddf472387a7b02967fbdfa123c0e4a58c923175e5dc6d83164736f6c63430008070033\n}\n",
				"bytecode": {
					"linkReferences": {},
					"object": "60806040526040518060400160405280600e81526020017f4e6174696f6e7320436f6d6261740000000000000000000000000000000000008152506000908051906020019062000051929190620002e0565b506040518060400160405280600381526020017f4e43540000000000000000000000000000000000000000000000000000000000815250600190805190602001906200009f929190620002e0565b50601260025566038d7ea4c68000600955600a805542600c5562093a8042620000c9919062000405565b600d5562093a80600d54620000df919062000405565b600f55674563918244f4000060105566038d7ea4c680006011553480156200010657600080fd5b50604051620026f8380380620026f883398181016040528101906200012c9190620003be565b6a295be96e6406697200000060038190555033600460006101000a81548173ffffffffffffffffffffffffffffffffffffffff021916908373ffffffffffffffffffffffffffffffffffffffff16021790555060035460056000600460009054906101000a900473ffffffffffffffffffffffffffffffffffffffff1673ffffffffffffffffffffffffffffffffffffffff1673ffffffffffffffffffffffffffffffffffffffff1681526020019081526020016000208190555081600860006101000a81548173ffffffffffffffffffffffffffffffffffffffff021916908373ffffffffffffffffffffffffffffffffffffffff16021790555033600760006101000a81548173ffffffffffffffffffffffffffffffffffffffff021916908373ffffffffffffffffffffffffffffffffffffffff1602179055506000601260006101000a81548160ff0219169083600381111562000292576200029162000519565b5b021790555080600e60006101000a81548173ffffffffffffffffffffffffffffffffffffffff021916908373ffffffffffffffffffffffffffffffffffffffff1602179055505050620005b0565b828054620002ee90620004b4565b90600052602060002090601f0160209004810192826200031257600085556200035e565b82601f106200032d57805160ff19168380011785556200035e565b828001600101855582156200035e579182015b828111156200035d57825182559160200191906001019062000340565b5b5090506200036d919062000371565b5090565b5b808211156200038c57600081600090555060010162000372565b5090565b600081519050620003a1816200057c565b92915050565b600081519050620003b88162000596565b92915050565b60008060408385031215620003d857620003d762000577565b5b6000620003e885828601620003a7565b9250506020620003fb8582860162000390565b9150509250929050565b60006200041282620004aa565b91506200041f83620004aa565b9250827fffffffffffffffffffffffffffffffffffffffffffffffffffffffffffffffff03821115620004575762000456620004ea565b5b828201905092915050565b60006200046f826200048a565b9050919050565b600062000483826200048a565b9050919050565b600073ffffffffffffffffffffffffffffffffffffffff82169050919050565b6000819050919050565b60006002820490506001821680620004cd57607f821691505b60208210811415620004e457620004e362000548565b5b50919050565b7f4e487b7100000000000000000000000000000000000000000000000000000000600052601160045260246000fd5b7f4e487b7100000000000000000000000000000000000000000000000000000000600052602160045260246000fd5b7f4e487b7100000000000000000000000000000000000000000000000000000000600052602260045260246000fd5b600080fd5b620005878162000462565b81146200059357600080fd5b50565b620005a18162000476565b8114620005ad57600080fd5b50565b61213880620005c06000396000f3fe6080604052600436106101c15760003560e01c80636d58c88f116100f7578063ab0bcc4111610095578063d0e30db011610064578063d0e30db01461062c578063dd62ed3e14610657578063e757223014610694578063f851a440146106d1576101c1565b8063ab0bcc4114610580578063c10b9358146105ab578063c59ee1dc146105d6578063cc9ba58314610601576101c1565b80638ac2c680116100d15780638ac2c680146104c457806391b7f5ed146104ef57806395d89b4114610518578063a9059cbb14610543576101c1565b80636d58c88f146104335780636e4636581461045c57806370a0823114610487576101c1565b80632afcf48011610164578063380d831b1161013e578063380d831b1461039b57806344f38756146103b25780634d853ee5146103dd57806355a373d614610408576101c1565b80632afcf48014610315578063313ce56714610345578063378aa70114610370576101c1565b8063095ea7b3116101a0578063095ea7b31461023357806318160ddd1461027057806323b872dd1461029b57806327e235e3146102d8576101c1565b80622e1316146101c6578063046f7da2146101f157806306fdde0314610208575b600080fd5b3480156101d257600080fd5b506101db6106fc565b6040516101e89190611cb6565b60405180910390f35b3480156101fd57600080fd5b50610206610702565b005b34801561021457600080fd5b5061021d610789565b60405161022a9190611c14565b60405180910390f35b34801561023f57600080fd5b5061025a60048036038101906102559190611947565b610817565b6040516102679190611bc3565b60405180910390f35b34801561027c57600080fd5b50610285610962565b6040516102929190611cb6565b60405180910390f35b3480156102a757600080fd5b506102c260048036038101906102bd91906118f4565b610968565b6040516102cf9190611bc3565b60405180910390f35b3480156102e457600080fd5b506102ff60048036038101906102fa919061185a565b61098f565b60405161030c9190611cb6565b60405180910390f35b61032f600480360381019061032a91906119b4565b6109a7565b60405161033c9190611bc3565b60405180910390f35b34801561035157600080fd5b5061035a610e4f565b6040516103679190611cb6565b60405180910390f35b34801561037c57600080fd5b50610385610e55565b6040516103929190611bf9565b60405180910390f35b3480156103a757600080fd5b506103b0610ed8565b005b3480156103be57600080fd5b506103c7611121565b6040516103d49190611bf9565b60405180910390f35b3480156103e957600080fd5b506103f2611134565b6040516103ff9190611b2d565b60405180910390f35b34801561041457600080fd5b5061041d61115a565b60405161042a9190611bde565b60405180910390f35b34801561043f57600080fd5b5061045a60048036038101906104559190611887565b611180565b005b34801561046857600080fd5b5061047161121e565b60405161047e9190611cb6565b60405180910390f35b34801561049357600080fd5b506104ae60048036038101906104a9919061185a565b611224565b6040516104bb9190611cb6565b60405180910390f35b3480156104d057600080fd5b506104d961126d565b6040516104e69190611cb6565b60405180910390f35b3480156104fb57600080fd5b50610516600480360381019061051191906119b4565b611273565b005b34801561052457600080fd5b5061052d61127d565b60405161053a9190611c14565b60405180910390f35b34801561054f57600080fd5b5061056a60048036038101906105659190611947565b61130b565b6040516105779190611bc3565b60405180910390f35b34801561058c57600080fd5b50610595611330565b6040516105a29190611cb6565b60405180910390f35b3480156105b757600080fd5b506105c0611336565b6040516105cd9190611cb6565b60405180910390f35b3480156105e257600080fd5b506105eb61133c565b6040516105f89190611cb6565b60405180910390f35b34801561060d57600080fd5b50610616611342565b6040516106239190611cb6565b60405180910390f35b34801561063857600080fd5b50610641611348565b60405161064e9190611b48565b60405180910390f35b34801561066357600080fd5b5061067e600480360381019061067991906118b4565b61136e565b60405161068b9190611cb6565b60405180910390f35b3480156106a057600080fd5b506106bb60048036038101906106b691906119b4565b6113f5565b6040516106c89190611cb6565b60405180910390f35b3480156106dd57600080fd5b506106e661140a565b6040516106f39190611b2d565b60405180910390f35b60105481565b600760009054906101000a900473ffffffffffffffffffffffffffffffffffffffff1673ffffffffffffffffffffffffffffffffffffffff163373ffffffffffffffffffffffffffffffffffffffff161461075c57600080fd5b6001601260006101000a81548160ff0219169083600381111561078257610781611f7a565b5b0217905550565b6000805461079690611eea565b80601f01602080910402602001604051908101604052809291908181526020018280546107c290611eea565b801561080f5780601f106107e45761010080835404028352916020019161080f565b820191906000526020600020905b8154815290600101906020018083116107f257829003601f168201915b505050505081565b600081600560003373ffffffffffffffffffffffffffffffffffffffff1673ffffffffffffffffffffffffffffffffffffffff16815260200190815260200160002054101561086557600080fd5b6000821161087257600080fd5b81600660003373ffffffffffffffffffffffffffffffffffffffff1673ffffffffffffffffffffffffffffffffffffffff16815260200190815260200160002060008573ffffffffffffffffffffffffffffffffffffffff1673ffffffffffffffffffffffffffffffffffffffff168152602001908152602001600020819055508273ffffffffffffffffffffffffffffffffffffffff163373ffffffffffffffffffffffffffffffffffffffff167f8c5be1e5ebec7d5bd14f71427d1e84f3dd0314c0f7b2291e5b200ac8c7c3b925846040516109509190611cb6565b60405180910390a36001905092915050565b60035481565b6000600f54421161097857600080fd5b610983848484611430565b50600190509392505050565b60056020528060005260406000206000915090505481565b60006109b1610e55565b601260006101000a81548160ff021916908360038111156109d5576109d4611f7a565b5b0217905550600160038111156109ee576109ed611f7a565b5b601260009054906101000a900460ff166003811115610a1057610a0f611f7a565b5b14610a50576040517f08c379a0000000000000000000000000000000000000000000000000000000008152600401610a4790611c36565b60405180910390fd5b610a5c82600954611651565b3414610a9d576040517f08c379a0000000000000000000000000000000000000000000000000000000008152600401610a9490611c76565b60405180910390fd5b670de0b6b3a764000082610ab19190611d74565b600e60009054906101000a900473ffffffffffffffffffffffffffffffffffffffff1673ffffffffffffffffffffffffffffffffffffffff166370a08231306040518263ffffffff1660e01b8152600401610b0c9190611b2d565b60206040518083038186803b158015610b2457600080fd5b505afa158015610b38573d6000803e3d6000fd5b505050506040513d601f19601f82011682018060405250810190610b5c91906119e1565b1015610b9d576040517f08c379a0000000000000000000000000000000000000000000000000000000008152600401610b9490611c96565b60405180910390fd5b600e60009054906101000a900473ffffffffffffffffffffffffffffffffffffffff1673ffffffffffffffffffffffffffffffffffffffff1663a9059cbb33670de0b6b3a764000085610bf09190611d74565b6040518363ffffffff1660e01b8152600401610c0d929190611b63565b602060405180830381600087803b158015610c2757600080fd5b505af1158015610c3b573d6000803e3d6000fd5b505050506040513d601f19601f82011682018060405250810190610c5f9190611987565b610c6857600080fd5b6011543410158015610c7c57506010543411155b610cbb576040517f08c379a0000000000000000000000000000000000000000000000000000000008152600401610cb290611c56565b60405180910390fd5b34600b6000828254610ccd9190611ced565b9250508190555081600560003373ffffffffffffffffffffffffffffffffffffffff1673ffffffffffffffffffffffffffffffffffffffff1681526020019081526020016000206000828254610d239190611ced565b925050819055508160056000600460009054906101000a900473ffffffffffffffffffffffffffffffffffffffff1673ffffffffffffffffffffffffffffffffffffffff1673ffffffffffffffffffffffffffffffffffffffff1681526020019081526020016000206000828254610d9b9190611dce565b92505081905550600860009054906101000a900473ffffffffffffffffffffffffffffffffffffffff1673ffffffffffffffffffffffffffffffffffffffff166108fc349081150290604051600060405180830381858888f19350505050158015610e0a573d6000803e3d6000fd5b507f4ae4bd7655e0d350876a23cd90c4227b13db560e34435c6a488150a9c844bf5f333484604051610e3e93929190611b8c565b60405180910390a160019050919050565b60025481565b6000600380811115610e6a57610e69611f7a565b5b601260009054906101000a900460ff166003811115610e8c57610e8b611f7a565b5b1415610e9b5760039050610ed5565b600c54421015610eae5760009050610ed5565b600c544210158015610ec25750600d544211155b15610ed05760019050610ed5565b600290505b90565b600760009054906101000a900473ffffffffffffffffffffffffffffffffffffffff1673ffffffffffffffffffffffffffffffffffffffff163373ffffffffffffffffffffffffffffffffffffffff1614610f3257600080fd5b600e60009054906101000a900473ffffffffffffffffffffffffffffffffffffffff1673ffffffffffffffffffffffffffffffffffffffff1663a9059cbb600760009054906101000a900473ffffffffffffffffffffffffffffffffffffffff16600e60009054906101000a900473ffffffffffffffffffffffffffffffffffffffff1673ffffffffffffffffffffffffffffffffffffffff166370a08231306040518263ffffffff1660e01b8152600401610fee9190611b2d565b60206040518083038186803b15801561100657600080fd5b505afa15801561101a573d6000803e3d6000fd5b505050506040513d601f19601f8201168201806040525081019061103e91906119e1565b6040518363ffffffff1660e01b815260040161105b929190611b63565b602060405180830381600087803b15801561107557600080fd5b505af1158015611089573d6000803e3d6000fd5b505050506040513d601f19601f820116820180604052508101906110ad9190611987565b6110b657600080fd5b600760009054906101000a900473ffffffffffffffffffffffffffffffffffffffff1673ffffffffffffffffffffffffffffffffffffffff166108fc479081150290604051600060405180830381858888f1935050505015801561111e573d6000803e3d6000fd5b50565b601260009054906101000a900460ff1681565b600460009054906101000a900473ffffffffffffffffffffffffffffffffffffffff1681565b600e60009054906101000a900473ffffffffffffffffffffffffffffffffffffffff1681565b600760009054906101000a900473ffffffffffffffffffffffffffffffffffffffff1673ffffffffffffffffffffffffffffffffffffffff163373ffffffffffffffffffffffffffffffffffffffff16146111da57600080fd5b80600860006101000a81548173ffffffffffffffffffffffffffffffffffffffff021916908373ffffffffffffffffffffffffffffffffffffffff16021790555050565b600a5481565b6000600560008373ffffffffffffffffffffffffffffffffffffffff1673ffffffffffffffffffffffffffffffffffffffff168152602001908152602001600020549050919050565b60115481565b8060098190555050565b6001805461128a90611eea565b80601f01602080910402602001604051908101604052809291908181526020018280546112b690611eea565b80156113035780601f106112d857610100808354040283529160200191611303565b820191906000526020600020905b8154815290600101906020018083116112e657829003601f168201915b505050505081565b6000600f54421161131b57600080fd5b6113258383611688565b506001905092915050565b600c5481565b600d5481565b600b5481565b600f5481565b600860009054906101000a900473ffffffffffffffffffffffffffffffffffffffff1681565b6000600660008473ffffffffffffffffffffffffffffffffffffffff1673ffffffffffffffffffffffffffffffffffffffff16815260200190815260200160002060008373ffffffffffffffffffffffffffffffffffffffff1673ffffffffffffffffffffffffffffffffffffffff16815260200190815260200160002054905092915050565b600061140382600954611651565b9050919050565b600760009054906101000a900473ffffffffffffffffffffffffffffffffffffffff1681565b600081600660008673ffffffffffffffffffffffffffffffffffffffff1673ffffffffffffffffffffffffffffffffffffffff16815260200190815260200160002060008573ffffffffffffffffffffffffffffffffffffffff1673ffffffffffffffffffffffffffffffffffffffff1681526020019081526020016000205410156114bb57600080fd5b81600560008673ffffffffffffffffffffffffffffffffffffffff1673ffffffffffffffffffffffffffffffffffffffff16815260200190815260200160002054101561150757600080fd5b81600560008673ffffffffffffffffffffffffffffffffffffffff1673ffffffffffffffffffffffffffffffffffffffff16815260200190815260200160002060008282546115569190611dce565b9250508190555081600560008573ffffffffffffffffffffffffffffffffffffffff1673ffffffffffffffffffffffffffffffffffffffff16815260200190815260200160002060008282546115ac9190611ced565b9250508190555081600660008673ffffffffffffffffffffffffffffffffffffffff1673ffffffffffffffffffffffffffffffffffffffff16815260200190815260200160002060008573ffffffffffffffffffffffffffffffffffffffff1673ffffffffffffffffffffffffffffffffffffffff168152602001908152602001600020600082825461163f9190611dce565b92505081905550600190509392505050565b60008082148061167957508282838561166a9190611d74565b9250826116779190611d43565b145b61168257600080fd5b92915050565b600081600560003373ffffffffffffffffffffffffffffffffffffffff1673ffffffffffffffffffffffffffffffffffffffff1681526020019081526020016000205410156116d657600080fd5b81600560008573ffffffffffffffffffffffffffffffffffffffff1673ffffffffffffffffffffffffffffffffffffffff16815260200190815260200160002060008282546117259190611ced565b9250508190555081600560003373ffffffffffffffffffffffffffffffffffffffff1673ffffffffffffffffffffffffffffffffffffffff168152602001908152602001600020600082825461177b9190611dce565b925050819055508273ffffffffffffffffffffffffffffffffffffffff163373ffffffffffffffffffffffffffffffffffffffff167fddf252ad1be2c89b69c2b068fc378daa952ba7f163c4a11628f55a4df523b3ef846040516117df9190611cb6565b60405180910390a36001905092915050565b600081359050611800816120a6565b92915050565b600081359050611815816120bd565b92915050565b60008151905061182a816120d4565b92915050565b60008135905061183f816120eb565b92915050565b600081519050611854816120eb565b92915050565b6000602082840312156118705761186f611fd8565b5b600061187e848285016117f1565b91505092915050565b60006020828403121561189d5761189c611fd8565b5b60006118ab84828501611806565b91505092915050565b600080604083850312156118cb576118ca611fd8565b5b60006118d9858286016117f1565b92505060206118ea858286016117f1565b9150509250929050565b60008060006060848603121561190d5761190c611fd8565b5b600061191b868287016117f1565b935050602061192c868287016117f1565b925050604061193d86828701611830565b9150509250925092565b6000806040838503121561195e5761195d611fd8565b5b600061196c858286016117f1565b925050602061197d85828601611830565b9150509250929050565b60006020828403121561199d5761199c611fd8565b5b60006119ab8482850161181b565b91505092915050565b6000602082840312156119ca576119c9611fd8565b5b60006119d884828501611830565b91505092915050565b6000602082840312156119f7576119f6611fd8565b5b6000611a0584828501611845565b91505092915050565b611a1781611e14565b82525050565b611a2681611e02565b82525050565b611a3581611e26565b82525050565b611a4481611e6f565b82525050565b611a5381611e81565b82525050565b6000611a6482611cd1565b611a6e8185611cdc565b9350611a7e818560208601611eb7565b611a8781611fdd565b840191505092915050565b6000611a9f601483611cdc565b9150611aaa82611fee565b602082019050919050565b6000611ac2601e83611cdc565b9150611acd82612017565b602082019050919050565b6000611ae5601683611cdc565b9150611af082612040565b602082019050919050565b6000611b08601e83611cdc565b9150611b1382612069565b602082019050919050565b611b2781611e65565b82525050565b6000602082019050611b426000830184611a1d565b92915050565b6000602082019050611b5d6000830184611a0e565b92915050565b6000604082019050611b786000830185611a1d565b611b856020830184611b1e565b9392505050565b6000606082019050611ba16000830186611a1d565b611bae6020830185611b1e565b611bbb6040830184611b1e565b949350505050565b6000602082019050611bd86000830184611a2c565b92915050565b6000602082019050611bf36000830184611a3b565b92915050565b6000602082019050611c0e6000830184611a4a565b92915050565b60006020820190508181036000830152611c2e8184611a59565b905092915050565b60006020820190508181036000830152611c4f81611a92565b9050919050565b60006020820190508181036000830152611c6f81611ab5565b9050919050565b60006020820190508181036000830152611c8f81611ad8565b9050919050565b60006020820190508181036000830152611caf81611afb565b9050919050565b6000602082019050611ccb6000830184611b1e565b92915050565b600081519050919050565b600082825260208201905092915050565b6000611cf882611e65565b9150611d0383611e65565b9250827fffffffffffffffffffffffffffffffffffffffffffffffffffffffffffffffff03821115611d3857611d37611f1c565b5b828201905092915050565b6000611d4e82611e65565b9150611d5983611e65565b925082611d6957611d68611f4b565b5b828204905092915050565b6000611d7f82611e65565b9150611d8a83611e65565b9250817fffffffffffffffffffffffffffffffffffffffffffffffffffffffffffffffff0483118215151615611dc357611dc2611f1c565b5b828202905092915050565b6000611dd982611e65565b9150611de483611e65565b925082821015611df757611df6611f1c565b5b828203905092915050565b6000611e0d82611e45565b9050919050565b6000611e1f82611e45565b9050919050565b60008115159050919050565b6000819050611e4082612092565b919050565b600073ffffffffffffffffffffffffffffffffffffffff82169050919050565b6000819050919050565b6000611e7a82611e93565b9050919050565b6000611e8c82611e32565b9050919050565b6000611e9e82611ea5565b9050919050565b6000611eb082611e45565b9050919050565b60005b83811015611ed5578082015181840152602081019050611eba565b83811115611ee4576000848401525b50505050565b60006002820490506001821680611f0257607f821691505b60208210811415611f1657611f15611fa9565b5b50919050565b7f4e487b7100000000000000000000000000000000000000000000000000000000600052601160045260246000fd5b7f4e487b7100000000000000000000000000000000000000000000000000000000600052601260045260246000fd5b7f4e487b7100000000000000000000000000000000000000000000000000000000600052602160045260246000fd5b7f4e487b7100000000000000000000000000000000000000000000000000000000600052602260045260246000fd5b600080fd5b6000601f19601f8301169050919050565b7f5374617465206973206e6f742072756e6e696e67000000000000000000000000600082015250565b7f4d6178206f72204d696e20696e766573746d656e742045786365656465640000600082015250565b7f6574682073656e74206973206e6f7420656e6f75676800000000000000000000600082015250565b7f4e6f206d6f726520746f6b656e20696e2074686520636f6e7472616374210000600082015250565b600481106120a3576120a2611f7a565b5b50565b6120af81611e02565b81146120ba57600080fd5b50565b6120c681611e14565b81146120d157600080fd5b50565b6120dd81611e26565b81146120e857600080fd5b50565b6120f481611e65565b81146120ff57600080fd5b5056fea264697066735822122003f34cf7ab6b23ffddf472387a7b02967fbdfa123c0e4a58c923175e5dc6d83164736f6c63430008070033",
					"opcodes": "PUSH1 0x80 PUSH1 0x40 MSTORE PUSH1 0x40 MLOAD DUP1 PUSH1 0x40 ADD PUSH1 0x40 MSTORE DUP1 PUSH1 0xE DUP2 MSTORE PUSH1 0x20 ADD PUSH32 0x4E6174696F6E7320436F6D626174000000000000000000000000000000000000 DUP2 MSTORE POP PUSH1 0x0 SWAP1 DUP1 MLOAD SWAP1 PUSH1 0x20 ADD SWAP1 PUSH3 0x51 SWAP3 SWAP2 SWAP1 PUSH3 0x2E0 JUMP JUMPDEST POP PUSH1 0x40 MLOAD DUP1 PUSH1 0x40 ADD PUSH1 0x40 MSTORE DUP1 PUSH1 0x3 DUP2 MSTORE PUSH1 0x20 ADD PUSH32 0x4E43540000000000000000000000000000000000000000000000000000000000 DUP2 MSTORE POP PUSH1 0x1 SWAP1 DUP1 MLOAD SWAP1 PUSH1 0x20 ADD SWAP1 PUSH3 0x9F SWAP3 SWAP2 SWAP1 PUSH3 0x2E0 JUMP JUMPDEST POP PUSH1 0x12 PUSH1 0x2 SSTORE PUSH7 0x38D7EA4C68000 PUSH1 0x9 SSTORE PUSH1 0xA DUP1 SSTORE TIMESTAMP PUSH1 0xC SSTORE PUSH3 0x93A80 TIMESTAMP PUSH3 0xC9 SWAP2 SWAP1 PUSH3 0x405 JUMP JUMPDEST PUSH1 0xD SSTORE PUSH3 0x93A80 PUSH1 0xD SLOAD PUSH3 0xDF SWAP2 SWAP1 PUSH3 0x405 JUMP JUMPDEST PUSH1 0xF SSTORE PUSH8 0x4563918244F40000 PUSH1 0x10 SSTORE PUSH7 0x38D7EA4C68000 PUSH1 0x11 SSTORE CALLVALUE DUP1 ISZERO PUSH3 0x106 JUMPI PUSH1 0x0 DUP1 REVERT JUMPDEST POP PUSH1 0x40 MLOAD PUSH3 0x26F8 CODESIZE SUB DUP1 PUSH3 0x26F8 DUP4 CODECOPY DUP2 DUP2 ADD PUSH1 0x40 MSTORE DUP2 ADD SWAP1 PUSH3 0x12C SWAP2 SWAP1 PUSH3 0x3BE JUMP JUMPDEST PUSH11 0x295BE96E64066972000000 PUSH1 0x3 DUP2 SWAP1 SSTORE POP CALLER PUSH1 0x4 PUSH1 0x0 PUSH2 0x100 EXP DUP2 SLOAD DUP2 PUSH20 0xFFFFFFFFFFFFFFFFFFFFFFFFFFFFFFFFFFFFFFFF MUL NOT AND SWAP1 DUP4 PUSH20 0xFFFFFFFFFFFFFFFFFFFFFFFFFFFFFFFFFFFFFFFF AND MUL OR SWAP1 SSTORE POP PUSH1 0x3 SLOAD PUSH1 0x5 PUSH1 0x0 PUSH1 0x4 PUSH1 0x0 SWAP1 SLOAD SWAP1 PUSH2 0x100 EXP SWAP1 DIV PUSH20 0xFFFFFFFFFFFFFFFFFFFFFFFFFFFFFFFFFFFFFFFF AND PUSH20 0xFFFFFFFFFFFFFFFFFFFFFFFFFFFFFFFFFFFFFFFF AND PUSH20 0xFFFFFFFFFFFFFFFFFFFFFFFFFFFFFFFFFFFFFFFF AND DUP2 MSTORE PUSH1 0x20 ADD SWAP1 DUP2 MSTORE PUSH1 0x20 ADD PUSH1 0x0 KECCAK256 DUP2 SWAP1 SSTORE POP DUP2 PUSH1 0x8 PUSH1 0x0 PUSH2 0x100 EXP DUP2 SLOAD DUP2 PUSH20 0xFFFFFFFFFFFFFFFFFFFFFFFFFFFFFFFFFFFFFFFF MUL NOT AND SWAP1 DUP4 PUSH20 0xFFFFFFFFFFFFFFFFFFFFFFFFFFFFFFFFFFFFFFFF AND MUL OR SWAP1 SSTORE POP CALLER PUSH1 0x7 PUSH1 0x0 PUSH2 0x100 EXP DUP2 SLOAD DUP2 PUSH20 0xFFFFFFFFFFFFFFFFFFFFFFFFFFFFFFFFFFFFFFFF MUL NOT AND SWAP1 DUP4 PUSH20 0xFFFFFFFFFFFFFFFFFFFFFFFFFFFFFFFFFFFFFFFF AND MUL OR SWAP1 SSTORE POP PUSH1 0x0 PUSH1 0x12 PUSH1 0x0 PUSH2 0x100 EXP DUP2 SLOAD DUP2 PUSH1 0xFF MUL NOT AND SWAP1 DUP4 PUSH1 0x3 DUP2 GT ISZERO PUSH3 0x292 JUMPI PUSH3 0x291 PUSH3 0x519 JUMP JUMPDEST JUMPDEST MUL OR SWAP1 SSTORE POP DUP1 PUSH1 0xE PUSH1 0x0 PUSH2 0x100 EXP DUP2 SLOAD DUP2 PUSH20 0xFFFFFFFFFFFFFFFFFFFFFFFFFFFFFFFFFFFFFFFF MUL NOT AND SWAP1 DUP4 PUSH20 0xFFFFFFFFFFFFFFFFFFFFFFFFFFFFFFFFFFFFFFFF AND MUL OR SWAP1 SSTORE POP POP POP PUSH3 0x5B0 JUMP JUMPDEST DUP3 DUP1 SLOAD PUSH3 0x2EE SWAP1 PUSH3 0x4B4 JUMP JUMPDEST SWAP1 PUSH1 0x0 MSTORE PUSH1 0x20 PUSH1 0x0 KECCAK256 SWAP1 PUSH1 0x1F ADD PUSH1 0x20 SWAP1 DIV DUP2 ADD SWAP3 DUP3 PUSH3 0x312 JUMPI PUSH1 0x0 DUP6 SSTORE PUSH3 0x35E JUMP JUMPDEST DUP3 PUSH1 0x1F LT PUSH3 0x32D JUMPI DUP1 MLOAD PUSH1 0xFF NOT AND DUP4 DUP1 ADD OR DUP6 SSTORE PUSH3 0x35E JUMP JUMPDEST DUP3 DUP1 ADD PUSH1 0x1 ADD DUP6 SSTORE DUP3 ISZERO PUSH3 0x35E JUMPI SWAP2 DUP3 ADD JUMPDEST DUP3 DUP2 GT ISZERO PUSH3 0x35D JUMPI DUP3 MLOAD DUP3 SSTORE SWAP2 PUSH1 0x20 ADD SWAP2 SWAP1 PUSH1 0x1 ADD SWAP1 PUSH3 0x340 JUMP JUMPDEST JUMPDEST POP SWAP1 POP PUSH3 0x36D SWAP2 SWAP1 PUSH3 0x371 JUMP JUMPDEST POP SWAP1 JUMP JUMPDEST JUMPDEST DUP1 DUP3 GT ISZERO PUSH3 0x38C JUMPI PUSH1 0x0 DUP2 PUSH1 0x0 SWAP1 SSTORE POP PUSH1 0x1 ADD PUSH3 0x372 JUMP JUMPDEST POP SWAP1 JUMP JUMPDEST PUSH1 0x0 DUP2 MLOAD SWAP1 POP PUSH3 0x3A1 DUP2 PUSH3 0x57C JUMP JUMPDEST SWAP3 SWAP2 POP POP JUMP JUMPDEST PUSH1 0x0 DUP2 MLOAD SWAP1 POP PUSH3 0x3B8 DUP2 PUSH3 0x596 JUMP JUMPDEST SWAP3 SWAP2 POP POP JUMP JUMPDEST PUSH1 0x0 DUP1 PUSH1 0x40 DUP4 DUP6 SUB SLT ISZERO PUSH3 0x3D8 JUMPI PUSH3 0x3D7 PUSH3 0x577 JUMP JUMPDEST JUMPDEST PUSH1 0x0 PUSH3 0x3E8 DUP6 DUP3 DUP7 ADD PUSH3 0x3A7 JUMP JUMPDEST SWAP3 POP POP PUSH1 0x20 PUSH3 0x3FB DUP6 DUP3 DUP7 ADD PUSH3 0x390 JUMP JUMPDEST SWAP2 POP POP SWAP3 POP SWAP3 SWAP1 POP JUMP JUMPDEST PUSH1 0x0 PUSH3 0x412 DUP3 PUSH3 0x4AA JUMP JUMPDEST SWAP2 POP PUSH3 0x41F DUP4 PUSH3 0x4AA JUMP JUMPDEST SWAP3 POP DUP3 PUSH32 0xFFFFFFFFFFFFFFFFFFFFFFFFFFFFFFFFFFFFFFFFFFFFFFFFFFFFFFFFFFFFFFFF SUB DUP3 GT ISZERO PUSH3 0x457 JUMPI PUSH3 0x456 PUSH3 0x4EA JUMP JUMPDEST JUMPDEST DUP3 DUP3 ADD SWAP1 POP SWAP3 SWAP2 POP POP JUMP JUMPDEST PUSH1 0x0 PUSH3 0x46F DUP3 PUSH3 0x48A JUMP JUMPDEST SWAP1 POP SWAP2 SWAP1 POP JUMP JUMPDEST PUSH1 0x0 PUSH3 0x483 DUP3 PUSH3 0x48A JUMP JUMPDEST SWAP1 POP SWAP2 SWAP1 POP JUMP JUMPDEST PUSH1 0x0 PUSH20 0xFFFFFFFFFFFFFFFFFFFFFFFFFFFFFFFFFFFFFFFF DUP3 AND SWAP1 POP SWAP2 SWAP1 POP JUMP JUMPDEST PUSH1 0x0 DUP2 SWAP1 POP SWAP2 SWAP1 POP JUMP JUMPDEST PUSH1 0x0 PUSH1 0x2 DUP3 DIV SWAP1 POP PUSH1 0x1 DUP3 AND DUP1 PUSH3 0x4CD JUMPI PUSH1 0x7F DUP3 AND SWAP2 POP JUMPDEST PUSH1 0x20 DUP3 LT DUP2 EQ ISZERO PUSH3 0x4E4 JUMPI PUSH3 0x4E3 PUSH3 0x548 JUMP JUMPDEST JUMPDEST POP SWAP2 SWAP1 POP JUMP JUMPDEST PUSH32 0x4E487B7100000000000000000000000000000000000000000000000000000000 PUSH1 0x0 MSTORE PUSH1 0x11 PUSH1 0x4 MSTORE PUSH1 0x24 PUSH1 0x0 REVERT JUMPDEST PUSH32 0x4E487B7100000000000000000000000000000000000000000000000000000000 PUSH1 0x0 MSTORE PUSH1 0x21 PUSH1 0x4 MSTORE PUSH1 0x24 PUSH1 0x0 REVERT JUMPDEST PUSH32 0x4E487B7100000000000000000000000000000000000000000000000000000000 PUSH1 0x0 MSTORE PUSH1 0x22 PUSH1 0x4 MSTORE PUSH1 0x24 PUSH1 0x0 REVERT JUMPDEST PUSH1 0x0 DUP1 REVERT JUMPDEST PUSH3 0x587 DUP2 PUSH3 0x462 JUMP JUMPDEST DUP2 EQ PUSH3 0x593 JUMPI PUSH1 0x0 DUP1 REVERT JUMPDEST POP JUMP JUMPDEST PUSH3 0x5A1 DUP2 PUSH3 0x476 JUMP JUMPDEST DUP2 EQ PUSH3 0x5AD JUMPI PUSH1 0x0 DUP1 REVERT JUMPDEST POP JUMP JUMPDEST PUSH2 0x2138 DUP1 PUSH3 0x5C0 PUSH1 0x0 CODECOPY PUSH1 0x0 RETURN INVALID PUSH1 0x80 PUSH1 0x40 MSTORE PUSH1 0x4 CALLDATASIZE LT PUSH2 0x1C1 JUMPI PUSH1 0x0 CALLDATALOAD PUSH1 0xE0 SHR DUP1 PUSH4 0x6D58C88F GT PUSH2 0xF7 JUMPI DUP1 PUSH4 0xAB0BCC41 GT PUSH2 0x95 JUMPI DUP1 PUSH4 0xD0E30DB0 GT PUSH2 0x64 JUMPI DUP1 PUSH4 0xD0E30DB0 EQ PUSH2 0x62C JUMPI DUP1 PUSH4 0xDD62ED3E EQ PUSH2 0x657 JUMPI DUP1 PUSH4 0xE7572230 EQ PUSH2 0x694 JUMPI DUP1 PUSH4 0xF851A440 EQ PUSH2 0x6D1 JUMPI PUSH2 0x1C1 JUMP JUMPDEST DUP1 PUSH4 0xAB0BCC41 EQ PUSH2 0x580 JUMPI DUP1 PUSH4 0xC10B9358 EQ PUSH2 0x5AB JUMPI DUP1 PUSH4 0xC59EE1DC EQ PUSH2 0x5D6 JUMPI DUP1 PUSH4 0xCC9BA583 EQ PUSH2 0x601 JUMPI PUSH2 0x1C1 JUMP JUMPDEST DUP1 PUSH4 0x8AC2C680 GT PUSH2 0xD1 JUMPI DUP1 PUSH4 0x8AC2C680 EQ PUSH2 0x4C4 JUMPI DUP1 PUSH4 0x91B7F5ED EQ PUSH2 0x4EF JUMPI DUP1 PUSH4 0x95D89B41 EQ PUSH2 0x518 JUMPI DUP1 PUSH4 0xA9059CBB EQ PUSH2 0x543 JUMPI PUSH2 0x1C1 JUMP JUMPDEST DUP1 PUSH4 0x6D58C88F EQ PUSH2 0x433 JUMPI DUP1 PUSH4 0x6E463658 EQ PUSH2 0x45C JUMPI DUP1 PUSH4 0x70A08231 EQ PUSH2 0x487 JUMPI PUSH2 0x1C1 JUMP JUMPDEST DUP1 PUSH4 0x2AFCF480 GT PUSH2 0x164 JUMPI DUP1 PUSH4 0x380D831B GT PUSH2 0x13E JUMPI DUP1 PUSH4 0x380D831B EQ PUSH2 0x39B JUMPI DUP1 PUSH4 0x44F38756 EQ PUSH2 0x3B2 JUMPI DUP1 PUSH4 0x4D853EE5 EQ PUSH2 0x3DD JUMPI DUP1 PUSH4 0x55A373D6 EQ PUSH2 0x408 JUMPI PUSH2 0x1C1 JUMP JUMPDEST DUP1 PUSH4 0x2AFCF480 EQ PUSH2 0x315 JUMPI DUP1 PUSH4 0x313CE567 EQ PUSH2 0x345 JUMPI DUP1 PUSH4 0x378AA701 EQ PUSH2 0x370 JUMPI PUSH2 0x1C1 JUMP JUMPDEST DUP1 PUSH4 0x95EA7B3 GT PUSH2 0x1A0 JUMPI DUP1 PUSH4 0x95EA7B3 EQ PUSH2 0x233 JUMPI DUP1 PUSH4 0x18160DDD EQ PUSH2 0x270 JUMPI DUP1 PUSH4 0x23B872DD EQ PUSH2 0x29B JUMPI DUP1 PUSH4 0x27E235E3 EQ PUSH2 0x2D8 JUMPI PUSH2 0x1C1 JUMP JUMPDEST DUP1 PUSH3 0x2E1316 EQ PUSH2 0x1C6 JUMPI DUP1 PUSH4 0x46F7DA2 EQ PUSH2 0x1F1 JUMPI DUP1 PUSH4 0x6FDDE03 EQ PUSH2 0x208 JUMPI JUMPDEST PUSH1 0x0 DUP1 REVERT JUMPDEST CALLVALUE DUP1 ISZERO PUSH2 0x1D2 JUMPI PUSH1 0x0 DUP1 REVERT JUMPDEST POP PUSH2 0x1DB PUSH2 0x6FC JUMP JUMPDEST PUSH1 0x40 MLOAD PUSH2 0x1E8 SWAP2 SWAP1 PUSH2 0x1CB6 JUMP JUMPDEST PUSH1 0x40 MLOAD DUP1 SWAP2 SUB SWAP1 RETURN JUMPDEST CALLVALUE DUP1 ISZERO PUSH2 0x1FD JUMPI PUSH1 0x0 DUP1 REVERT JUMPDEST POP PUSH2 0x206 PUSH2 0x702 JUMP JUMPDEST STOP JUMPDEST CALLVALUE DUP1 ISZERO PUSH2 0x214 JUMPI PUSH1 0x0 DUP1 REVERT JUMPDEST POP PUSH2 0x21D PUSH2 0x789 JUMP JUMPDEST PUSH1 0x40 MLOAD PUSH2 0x22A SWAP2 SWAP1 PUSH2 0x1C14 JUMP JUMPDEST PUSH1 0x40 MLOAD DUP1 SWAP2 SUB SWAP1 RETURN JUMPDEST CALLVALUE DUP1 ISZERO PUSH2 0x23F JUMPI PUSH1 0x0 DUP1 REVERT JUMPDEST POP PUSH2 0x25A PUSH1 0x4 DUP1 CALLDATASIZE SUB DUP2 ADD SWAP1 PUSH2 0x255 SWAP2 SWAP1 PUSH2 0x1947 JUMP JUMPDEST PUSH2 0x817 JUMP JUMPDEST PUSH1 0x40 MLOAD PUSH2 0x267 SWAP2 SWAP1 PUSH2 0x1BC3 JUMP JUMPDEST PUSH1 0x40 MLOAD DUP1 SWAP2 SUB SWAP1 RETURN JUMPDEST CALLVALUE DUP1 ISZERO PUSH2 0x27C JUMPI PUSH1 0x0 DUP1 REVERT JUMPDEST POP PUSH2 0x285 PUSH2 0x962 JUMP JUMPDEST PUSH1 0x40 MLOAD PUSH2 0x292 SWAP2 SWAP1 PUSH2 0x1CB6 JUMP JUMPDEST PUSH1 0x40 MLOAD DUP1 SWAP2 SUB SWAP1 RETURN JUMPDEST CALLVALUE DUP1 ISZERO PUSH2 0x2A7 JUMPI PUSH1 0x0 DUP1 REVERT JUMPDEST POP PUSH2 0x2C2 PUSH1 0x4 DUP1 CALLDATASIZE SUB DUP2 ADD SWAP1 PUSH2 0x2BD SWAP2 SWAP1 PUSH2 0x18F4 JUMP JUMPDEST PUSH2 0x968 JUMP JUMPDEST PUSH1 0x40 MLOAD PUSH2 0x2CF SWAP2 SWAP1 PUSH2 0x1BC3 JUMP JUMPDEST PUSH1 0x40 MLOAD DUP1 SWAP2 SUB SWAP1 RETURN JUMPDEST CALLVALUE DUP1 ISZERO PUSH2 0x2E4 JUMPI PUSH1 0x0 DUP1 REVERT JUMPDEST POP PUSH2 0x2FF PUSH1 0x4 DUP1 CALLDATASIZE SUB DUP2 ADD SWAP1 PUSH2 0x2FA SWAP2 SWAP1 PUSH2 0x185A JUMP JUMPDEST PUSH2 0x98F JUMP JUMPDEST PUSH1 0x40 MLOAD PUSH2 0x30C SWAP2 SWAP1 PUSH2 0x1CB6 JUMP JUMPDEST PUSH1 0x40 MLOAD DUP1 SWAP2 SUB SWAP1 RETURN JUMPDEST PUSH2 0x32F PUSH1 0x4 DUP1 CALLDATASIZE SUB DUP2 ADD SWAP1 PUSH2 0x32A SWAP2 SWAP1 PUSH2 0x19B4 JUMP JUMPDEST PUSH2 0x9A7 JUMP JUMPDEST PUSH1 0x40 MLOAD PUSH2 0x33C SWAP2 SWAP1 PUSH2 0x1BC3 JUMP JUMPDEST PUSH1 0x40 MLOAD DUP1 SWAP2 SUB SWAP1 RETURN JUMPDEST CALLVALUE DUP1 ISZERO PUSH2 0x351 JUMPI PUSH1 0x0 DUP1 REVERT JUMPDEST POP PUSH2 0x35A PUSH2 0xE4F JUMP JUMPDEST PUSH1 0x40 MLOAD PUSH2 0x367 SWAP2 SWAP1 PUSH2 0x1CB6 JUMP JUMPDEST PUSH1 0x40 MLOAD DUP1 SWAP2 SUB SWAP1 RETURN JUMPDEST CALLVALUE DUP1 ISZERO PUSH2 0x37C JUMPI PUSH1 0x0 DUP1 REVERT JUMPDEST POP PUSH2 0x385 PUSH2 0xE55 JUMP JUMPDEST PUSH1 0x40 MLOAD PUSH2 0x392 SWAP2 SWAP1 PUSH2 0x1BF9 JUMP JUMPDEST PUSH1 0x40 MLOAD DUP1 SWAP2 SUB SWAP1 RETURN JUMPDEST CALLVALUE DUP1 ISZERO PUSH2 0x3A7 JUMPI PUSH1 0x0 DUP1 REVERT JUMPDEST POP PUSH2 0x3B0 PUSH2 0xED8 JUMP JUMPDEST STOP JUMPDEST CALLVALUE DUP1 ISZERO PUSH2 0x3BE JUMPI PUSH1 0x0 DUP1 REVERT JUMPDEST POP PUSH2 0x3C7 PUSH2 0x1121 JUMP JUMPDEST PUSH1 0x40 MLOAD PUSH2 0x3D4 SWAP2 SWAP1 PUSH2 0x1BF9 JUMP JUMPDEST PUSH1 0x40 MLOAD DUP1 SWAP2 SUB SWAP1 RETURN JUMPDEST CALLVALUE DUP1 ISZERO PUSH2 0x3E9 JUMPI PUSH1 0x0 DUP1 REVERT JUMPDEST POP PUSH2 0x3F2 PUSH2 0x1134 JUMP JUMPDEST PUSH1 0x40 MLOAD PUSH2 0x3FF SWAP2 SWAP1 PUSH2 0x1B2D JUMP JUMPDEST PUSH1 0x40 MLOAD DUP1 SWAP2 SUB SWAP1 RETURN JUMPDEST CALLVALUE DUP1 ISZERO PUSH2 0x414 JUMPI PUSH1 0x0 DUP1 REVERT JUMPDEST POP PUSH2 0x41D PUSH2 0x115A JUMP JUMPDEST PUSH1 0x40 MLOAD PUSH2 0x42A SWAP2 SWAP1 PUSH2 0x1BDE JUMP JUMPDEST PUSH1 0x40 MLOAD DUP1 SWAP2 SUB SWAP1 RETURN JUMPDEST CALLVALUE DUP1 ISZERO PUSH2 0x43F JUMPI PUSH1 0x0 DUP1 REVERT JUMPDEST POP PUSH2 0x45A PUSH1 0x4 DUP1 CALLDATASIZE SUB DUP2 ADD SWAP1 PUSH2 0x455 SWAP2 SWAP1 PUSH2 0x1887 JUMP JUMPDEST PUSH2 0x1180 JUMP JUMPDEST STOP JUMPDEST CALLVALUE DUP1 ISZERO PUSH2 0x468 JUMPI PUSH1 0x0 DUP1 REVERT JUMPDEST POP PUSH2 0x471 PUSH2 0x121E JUMP JUMPDEST PUSH1 0x40 MLOAD PUSH2 0x47E SWAP2 SWAP1 PUSH2 0x1CB6 JUMP JUMPDEST PUSH1 0x40 MLOAD DUP1 SWAP2 SUB SWAP1 RETURN JUMPDEST CALLVALUE DUP1 ISZERO PUSH2 0x493 JUMPI PUSH1 0x0 DUP1 REVERT JUMPDEST POP PUSH2 0x4AE PUSH1 0x4 DUP1 CALLDATASIZE SUB DUP2 ADD SWAP1 PUSH2 0x4A9 SWAP2 SWAP1 PUSH2 0x185A JUMP JUMPDEST PUSH2 0x1224 JUMP JUMPDEST PUSH1 0x40 MLOAD PUSH2 0x4BB SWAP2 SWAP1 PUSH2 0x1CB6 JUMP JUMPDEST PUSH1 0x40 MLOAD DUP1 SWAP2 SUB SWAP1 RETURN JUMPDEST CALLVALUE DUP1 ISZERO PUSH2 0x4D0 JUMPI PUSH1 0x0 DUP1 REVERT JUMPDEST POP PUSH2 0x4D9 PUSH2 0x126D JUMP JUMPDEST PUSH1 0x40 MLOAD PUSH2 0x4E6 SWAP2 SWAP1 PUSH2 0x1CB6 JUMP JUMPDEST PUSH1 0x40 MLOAD DUP1 SWAP2 SUB SWAP1 RETURN JUMPDEST CALLVALUE DUP1 ISZERO PUSH2 0x4FB JUMPI PUSH1 0x0 DUP1 REVERT JUMPDEST POP PUSH2 0x516 PUSH1 0x4 DUP1 CALLDATASIZE SUB DUP2 ADD SWAP1 PUSH2 0x511 SWAP2 SWAP1 PUSH2 0x19B4 JUMP JUMPDEST PUSH2 0x1273 JUMP JUMPDEST STOP JUMPDEST CALLVALUE DUP1 ISZERO PUSH2 0x524 JUMPI PUSH1 0x0 DUP1 REVERT JUMPDEST POP PUSH2 0x52D PUSH2 0x127D JUMP JUMPDEST PUSH1 0x40 MLOAD PUSH2 0x53A SWAP2 SWAP1 PUSH2 0x1C14 JUMP JUMPDEST PUSH1 0x40 MLOAD DUP1 SWAP2 SUB SWAP1 RETURN JUMPDEST CALLVALUE DUP1 ISZERO PUSH2 0x54F JUMPI PUSH1 0x0 DUP1 REVERT JUMPDEST POP PUSH2 0x56A PUSH1 0x4 DUP1 CALLDATASIZE SUB DUP2 ADD SWAP1 PUSH2 0x565 SWAP2 SWAP1 PUSH2 0x1947 JUMP JUMPDEST PUSH2 0x130B JUMP JUMPDEST PUSH1 0x40 MLOAD PUSH2 0x577 SWAP2 SWAP1 PUSH2 0x1BC3 JUMP JUMPDEST PUSH1 0x40 MLOAD DUP1 SWAP2 SUB SWAP1 RETURN JUMPDEST CALLVALUE DUP1 ISZERO PUSH2 0x58C JUMPI PUSH1 0x0 DUP1 REVERT JUMPDEST POP PUSH2 0x595 PUSH2 0x1330 JUMP JUMPDEST PUSH1 0x40 MLOAD PUSH2 0x5A2 SWAP2 SWAP1 PUSH2 0x1CB6 JUMP JUMPDEST PUSH1 0x40 MLOAD DUP1 SWAP2 SUB SWAP1 RETURN JUMPDEST CALLVALUE DUP1 ISZERO PUSH2 0x5B7 JUMPI PUSH1 0x0 DUP1 REVERT JUMPDEST POP PUSH2 0x5C0 PUSH2 0x1336 JUMP JUMPDEST PUSH1 0x40 MLOAD PUSH2 0x5CD SWAP2 SWAP1 PUSH2 0x1CB6 JUMP JUMPDEST PUSH1 0x40 MLOAD DUP1 SWAP2 SUB SWAP1 RETURN JUMPDEST CALLVALUE DUP1 ISZERO PUSH2 0x5E2 JUMPI PUSH1 0x0 DUP1 REVERT JUMPDEST POP PUSH2 0x5EB PUSH2 0x133C JUMP JUMPDEST PUSH1 0x40 MLOAD PUSH2 0x5F8 SWAP2 SWAP1 PUSH2 0x1CB6 JUMP JUMPDEST PUSH1 0x40 MLOAD DUP1 SWAP2 SUB SWAP1 RETURN JUMPDEST CALLVALUE DUP1 ISZERO PUSH2 0x60D JUMPI PUSH1 0x0 DUP1 REVERT JUMPDEST POP PUSH2 0x616 PUSH2 0x1342 JUMP JUMPDEST PUSH1 0x40 MLOAD PUSH2 0x623 SWAP2 SWAP1 PUSH2 0x1CB6 JUMP JUMPDEST PUSH1 0x40 MLOAD DUP1 SWAP2 SUB SWAP1 RETURN JUMPDEST CALLVALUE DUP1 ISZERO PUSH2 0x638 JUMPI PUSH1 0x0 DUP1 REVERT JUMPDEST POP PUSH2 0x641 PUSH2 0x1348 JUMP JUMPDEST PUSH1 0x40 MLOAD PUSH2 0x64E SWAP2 SWAP1 PUSH2 0x1B48 JUMP JUMPDEST PUSH1 0x40 MLOAD DUP1 SWAP2 SUB SWAP1 RETURN JUMPDEST CALLVALUE DUP1 ISZERO PUSH2 0x663 JUMPI PUSH1 0x0 DUP1 REVERT JUMPDEST POP PUSH2 0x67E PUSH1 0x4 DUP1 CALLDATASIZE SUB DUP2 ADD SWAP1 PUSH2 0x679 SWAP2 SWAP1 PUSH2 0x18B4 JUMP JUMPDEST PUSH2 0x136E JUMP JUMPDEST PUSH1 0x40 MLOAD PUSH2 0x68B SWAP2 SWAP1 PUSH2 0x1CB6 JUMP JUMPDEST PUSH1 0x40 MLOAD DUP1 SWAP2 SUB SWAP1 RETURN JUMPDEST CALLVALUE DUP1 ISZERO PUSH2 0x6A0 JUMPI PUSH1 0x0 DUP1 REVERT JUMPDEST POP PUSH2 0x6BB PUSH1 0x4 DUP1 CALLDATASIZE SUB DUP2 ADD SWAP1 PUSH2 0x6B6 SWAP2 SWAP1 PUSH2 0x19B4 JUMP JUMPDEST PUSH2 0x13F5 JUMP JUMPDEST PUSH1 0x40 MLOAD PUSH2 0x6C8 SWAP2 SWAP1 PUSH2 0x1CB6 JUMP JUMPDEST PUSH1 0x40 MLOAD DUP1 SWAP2 SUB SWAP1 RETURN JUMPDEST CALLVALUE DUP1 ISZERO PUSH2 0x6DD JUMPI PUSH1 0x0 DUP1 REVERT JUMPDEST POP PUSH2 0x6E6 PUSH2 0x140A JUMP JUMPDEST PUSH1 0x40 MLOAD PUSH2 0x6F3 SWAP2 SWAP1 PUSH2 0x1B2D JUMP JUMPDEST PUSH1 0x40 MLOAD DUP1 SWAP2 SUB SWAP1 RETURN JUMPDEST PUSH1 0x10 SLOAD DUP2 JUMP JUMPDEST PUSH1 0x7 PUSH1 0x0 SWAP1 SLOAD SWAP1 PUSH2 0x100 EXP SWAP1 DIV PUSH20 0xFFFFFFFFFFFFFFFFFFFFFFFFFFFFFFFFFFFFFFFF AND PUSH20 0xFFFFFFFFFFFFFFFFFFFFFFFFFFFFFFFFFFFFFFFF AND CALLER PUSH20 0xFFFFFFFFFFFFFFFFFFFFFFFFFFFFFFFFFFFFFFFF AND EQ PUSH2 0x75C JUMPI PUSH1 0x0 DUP1 REVERT JUMPDEST PUSH1 0x1 PUSH1 0x12 PUSH1 0x0 PUSH2 0x100 EXP DUP2 SLOAD DUP2 PUSH1 0xFF MUL NOT AND SWAP1 DUP4 PUSH1 0x3 DUP2 GT ISZERO PUSH2 0x782 JUMPI PUSH2 0x781 PUSH2 0x1F7A JUMP JUMPDEST JUMPDEST MUL OR SWAP1 SSTORE POP JUMP JUMPDEST PUSH1 0x0 DUP1 SLOAD PUSH2 0x796 SWAP1 PUSH2 0x1EEA JUMP JUMPDEST DUP1 PUSH1 0x1F ADD PUSH1 0x20 DUP1 SWAP2 DIV MUL PUSH1 0x20 ADD PUSH1 0x40 MLOAD SWAP1 DUP2 ADD PUSH1 0x40 MSTORE DUP1 SWAP3 SWAP2 SWAP1 DUP2 DUP2 MSTORE PUSH1 0x20 ADD DUP3 DUP1 SLOAD PUSH2 0x7C2 SWAP1 PUSH2 0x1EEA JUMP JUMPDEST DUP1 ISZERO PUSH2 0x80F JUMPI DUP1 PUSH1 0x1F LT PUSH2 0x7E4 JUMPI PUSH2 0x100 DUP1 DUP4 SLOAD DIV MUL DUP4 MSTORE SWAP2 PUSH1 0x20 ADD SWAP2 PUSH2 0x80F JUMP JUMPDEST DUP3 ADD SWAP2 SWAP1 PUSH1 0x0 MSTORE PUSH1 0x20 PUSH1 0x0 KECCAK256 SWAP1 JUMPDEST DUP2 SLOAD DUP2 MSTORE SWAP1 PUSH1 0x1 ADD SWAP1 PUSH1 0x20 ADD DUP1 DUP4 GT PUSH2 0x7F2 JUMPI DUP3 SWAP1 SUB PUSH1 0x1F AND DUP3 ADD SWAP2 JUMPDEST POP POP POP POP POP DUP2 JUMP JUMPDEST PUSH1 0x0 DUP2 PUSH1 0x5 PUSH1 0x0 CALLER PUSH20 0xFFFFFFFFFFFFFFFFFFFFFFFFFFFFFFFFFFFFFFFF AND PUSH20 0xFFFFFFFFFFFFFFFFFFFFFFFFFFFFFFFFFFFFFFFF AND DUP2 MSTORE PUSH1 0x20 ADD SWAP1 DUP2 MSTORE PUSH1 0x20 ADD PUSH1 0x0 KECCAK256 SLOAD LT ISZERO PUSH2 0x865 JUMPI PUSH1 0x0 DUP1 REVERT JUMPDEST PUSH1 0x0 DUP3 GT PUSH2 0x872 JUMPI PUSH1 0x0 DUP1 REVERT JUMPDEST DUP2 PUSH1 0x6 PUSH1 0x0 CALLER PUSH20 0xFFFFFFFFFFFFFFFFFFFFFFFFFFFFFFFFFFFFFFFF AND PUSH20 0xFFFFFFFFFFFFFFFFFFFFFFFFFFFFFFFFFFFFFFFF AND DUP2 MSTORE PUSH1 0x20 ADD SWAP1 DUP2 MSTORE PUSH1 0x20 ADD PUSH1 0x0 KECCAK256 PUSH1 0x0 DUP6 PUSH20 0xFFFFFFFFFFFFFFFFFFFFFFFFFFFFFFFFFFFFFFFF AND PUSH20 0xFFFFFFFFFFFFFFFFFFFFFFFFFFFFFFFFFFFFFFFF AND DUP2 MSTORE PUSH1 0x20 ADD SWAP1 DUP2 MSTORE PUSH1 0x20 ADD PUSH1 0x0 KECCAK256 DUP2 SWAP1 SSTORE POP DUP3 PUSH20 0xFFFFFFFFFFFFFFFFFFFFFFFFFFFFFFFFFFFFFFFF AND CALLER PUSH20 0xFFFFFFFFFFFFFFFFFFFFFFFFFFFFFFFFFFFFFFFF AND PUSH32 0x8C5BE1E5EBEC7D5BD14F71427D1E84F3DD0314C0F7B2291E5B200AC8C7C3B925 DUP5 PUSH1 0x40 MLOAD PUSH2 0x950 SWAP2 SWAP1 PUSH2 0x1CB6 JUMP JUMPDEST PUSH1 0x40 MLOAD DUP1 SWAP2 SUB SWAP1 LOG3 PUSH1 0x1 SWAP1 POP SWAP3 SWAP2 POP POP JUMP JUMPDEST PUSH1 0x3 SLOAD DUP2 JUMP JUMPDEST PUSH1 0x0 PUSH1 0xF SLOAD TIMESTAMP GT PUSH2 0x978 JUMPI PUSH1 0x0 DUP1 REVERT JUMPDEST PUSH2 0x983 DUP5 DUP5 DUP5 PUSH2 0x1430 JUMP JUMPDEST POP PUSH1 0x1 SWAP1 POP SWAP4 SWAP3 POP POP POP JUMP JUMPDEST PUSH1 0x5 PUSH1 0x20 MSTORE DUP1 PUSH1 0x0 MSTORE PUSH1 0x40 PUSH1 0x0 KECCAK256 PUSH1 0x0 SWAP2 POP SWAP1 POP SLOAD DUP2 JUMP JUMPDEST PUSH1 0x0 PUSH2 0x9B1 PUSH2 0xE55 JUMP JUMPDEST PUSH1 0x12 PUSH1 0x0 PUSH2 0x100 EXP DUP2 SLOAD DUP2 PUSH1 0xFF MUL NOT AND SWAP1 DUP4 PUSH1 0x3 DUP2 GT ISZERO PUSH2 0x9D5 JUMPI PUSH2 0x9D4 PUSH2 0x1F7A JUMP JUMPDEST JUMPDEST MUL OR SWAP1 SSTORE POP PUSH1 0x1 PUSH1 0x3 DUP2 GT ISZERO PUSH2 0x9EE JUMPI PUSH2 0x9ED PUSH2 0x1F7A JUMP JUMPDEST JUMPDEST PUSH1 0x12 PUSH1 0x0 SWAP1 SLOAD SWAP1 PUSH2 0x100 EXP SWAP1 DIV PUSH1 0xFF AND PUSH1 0x3 DUP2 GT ISZERO PUSH2 0xA10 JUMPI PUSH2 0xA0F PUSH2 0x1F7A JUMP JUMPDEST JUMPDEST EQ PUSH2 0xA50 JUMPI PUSH1 0x40 MLOAD PUSH32 0x8C379A000000000000000000000000000000000000000000000000000000000 DUP2 MSTORE PUSH1 0x4 ADD PUSH2 0xA47 SWAP1 PUSH2 0x1C36 JUMP JUMPDEST PUSH1 0x40 MLOAD DUP1 SWAP2 SUB SWAP1 REVERT JUMPDEST PUSH2 0xA5C DUP3 PUSH1 0x9 SLOAD PUSH2 0x1651 JUMP JUMPDEST CALLVALUE EQ PUSH2 0xA9D JUMPI PUSH1 0x40 MLOAD PUSH32 0x8C379A000000000000000000000000000000000000000000000000000000000 DUP2 MSTORE PUSH1 0x4 ADD PUSH2 0xA94 SWAP1 PUSH2 0x1C76 JUMP JUMPDEST PUSH1 0x40 MLOAD DUP1 SWAP2 SUB SWAP1 REVERT JUMPDEST PUSH8 0xDE0B6B3A7640000 DUP3 PUSH2 0xAB1 SWAP2 SWAP1 PUSH2 0x1D74 JUMP JUMPDEST PUSH1 0xE PUSH1 0x0 SWAP1 SLOAD SWAP1 PUSH2 0x100 EXP SWAP1 DIV PUSH20 0xFFFFFFFFFFFFFFFFFFFFFFFFFFFFFFFFFFFFFFFF AND PUSH20 0xFFFFFFFFFFFFFFFFFFFFFFFFFFFFFFFFFFFFFFFF AND PUSH4 0x70A08231 ADDRESS PUSH1 0x40 MLOAD DUP3 PUSH4 0xFFFFFFFF AND PUSH1 0xE0 SHL DUP2 MSTORE PUSH1 0x4 ADD PUSH2 0xB0C SWAP2 SWAP1 PUSH2 0x1B2D JUMP JUMPDEST PUSH1 0x20 PUSH1 0x40 MLOAD DUP1 DUP4 SUB DUP2 DUP7 DUP1 EXTCODESIZE ISZERO DUP1 ISZERO PUSH2 0xB24 JUMPI PUSH1 0x0 DUP1 REVERT JUMPDEST POP GAS STATICCALL ISZERO DUP1 ISZERO PUSH2 0xB38 JUMPI RETURNDATASIZE PUSH1 0x0 DUP1 RETURNDATACOPY RETURNDATASIZE PUSH1 0x0 REVERT JUMPDEST POP POP POP POP PUSH1 0x40 MLOAD RETURNDATASIZE PUSH1 0x1F NOT PUSH1 0x1F DUP3 ADD AND DUP3 ADD DUP1 PUSH1 0x40 MSTORE POP DUP2 ADD SWAP1 PUSH2 0xB5C SWAP2 SWAP1 PUSH2 0x19E1 JUMP JUMPDEST LT ISZERO PUSH2 0xB9D JUMPI PUSH1 0x40 MLOAD PUSH32 0x8C379A000000000000000000000000000000000000000000000000000000000 DUP2 MSTORE PUSH1 0x4 ADD PUSH2 0xB94 SWAP1 PUSH2 0x1C96 JUMP JUMPDEST PUSH1 0x40 MLOAD DUP1 SWAP2 SUB SWAP1 REVERT JUMPDEST PUSH1 0xE PUSH1 0x0 SWAP1 SLOAD SWAP1 PUSH2 0x100 EXP SWAP1 DIV PUSH20 0xFFFFFFFFFFFFFFFFFFFFFFFFFFFFFFFFFFFFFFFF AND PUSH20 0xFFFFFFFFFFFFFFFFFFFFFFFFFFFFFFFFFFFFFFFF AND PUSH4 0xA9059CBB CALLER PUSH8 0xDE0B6B3A7640000 DUP6 PUSH2 0xBF0 SWAP2 SWAP1 PUSH2 0x1D74 JUMP JUMPDEST PUSH1 0x40 MLOAD DUP4 PUSH4 0xFFFFFFFF AND PUSH1 0xE0 SHL DUP2 MSTORE PUSH1 0x4 ADD PUSH2 0xC0D SWAP3 SWAP2 SWAP1 PUSH2 0x1B63 JUMP JUMPDEST PUSH1 0x20 PUSH1 0x40 MLOAD DUP1 DUP4 SUB DUP2 PUSH1 0x0 DUP8 DUP1 EXTCODESIZE ISZERO DUP1 ISZERO PUSH2 0xC27 JUMPI PUSH1 0x0 DUP1 REVERT JUMPDEST POP GAS CALL ISZERO DUP1 ISZERO PUSH2 0xC3B JUMPI RETURNDATASIZE PUSH1 0x0 DUP1 RETURNDATACOPY RETURNDATASIZE PUSH1 0x0 REVERT JUMPDEST POP POP POP POP PUSH1 0x40 MLOAD RETURNDATASIZE PUSH1 0x1F NOT PUSH1 0x1F DUP3 ADD AND DUP3 ADD DUP1 PUSH1 0x40 MSTORE POP DUP2 ADD SWAP1 PUSH2 0xC5F SWAP2 SWAP1 PUSH2 0x1987 JUMP JUMPDEST PUSH2 0xC68 JUMPI PUSH1 0x0 DUP1 REVERT JUMPDEST PUSH1 0x11 SLOAD CALLVALUE LT ISZERO DUP1 ISZERO PUSH2 0xC7C JUMPI POP PUSH1 0x10 SLOAD CALLVALUE GT ISZERO JUMPDEST PUSH2 0xCBB JUMPI PUSH1 0x40 MLOAD PUSH32 0x8C379A000000000000000000000000000000000000000000000000000000000 DUP2 MSTORE PUSH1 0x4 ADD PUSH2 0xCB2 SWAP1 PUSH2 0x1C56 JUMP JUMPDEST PUSH1 0x40 MLOAD DUP1 SWAP2 SUB SWAP1 REVERT JUMPDEST CALLVALUE PUSH1 0xB PUSH1 0x0 DUP3 DUP3 SLOAD PUSH2 0xCCD SWAP2 SWAP1 PUSH2 0x1CED JUMP JUMPDEST SWAP3 POP POP DUP2 SWAP1 SSTORE POP DUP2 PUSH1 0x5 PUSH1 0x0 CALLER PUSH20 0xFFFFFFFFFFFFFFFFFFFFFFFFFFFFFFFFFFFFFFFF AND PUSH20 0xFFFFFFFFFFFFFFFFFFFFFFFFFFFFFFFFFFFFFFFF AND DUP2 MSTORE PUSH1 0x20 ADD SWAP1 DUP2 MSTORE PUSH1 0x20 ADD PUSH1 0x0 KECCAK256 PUSH1 0x0 DUP3 DUP3 SLOAD PUSH2 0xD23 SWAP2 SWAP1 PUSH2 0x1CED JUMP JUMPDEST SWAP3 POP POP DUP2 SWAP1 SSTORE POP DUP2 PUSH1 0x5 PUSH1 0x0 PUSH1 0x4 PUSH1 0x0 SWAP1 SLOAD SWAP1 PUSH2 0x100 EXP SWAP1 DIV PUSH20 0xFFFFFFFFFFFFFFFFFFFFFFFFFFFFFFFFFFFFFFFF AND PUSH20 0xFFFFFFFFFFFFFFFFFFFFFFFFFFFFFFFFFFFFFFFF AND PUSH20 0xFFFFFFFFFFFFFFFFFFFFFFFFFFFFFFFFFFFFFFFF AND DUP2 MSTORE PUSH1 0x20 ADD SWAP1 DUP2 MSTORE PUSH1 0x20 ADD PUSH1 0x0 KECCAK256 PUSH1 0x0 DUP3 DUP3 SLOAD PUSH2 0xD9B SWAP2 SWAP1 PUSH2 0x1DCE JUMP JUMPDEST SWAP3 POP POP DUP2 SWAP1 SSTORE POP PUSH1 0x8 PUSH1 0x0 SWAP1 SLOAD SWAP1 PUSH2 0x100 EXP SWAP1 DIV PUSH20 0xFFFFFFFFFFFFFFFFFFFFFFFFFFFFFFFFFFFFFFFF AND PUSH20 0xFFFFFFFFFFFFFFFFFFFFFFFFFFFFFFFFFFFFFFFF AND PUSH2 0x8FC CALLVALUE SWAP1 DUP2 ISZERO MUL SWAP1 PUSH1 0x40 MLOAD PUSH1 0x0 PUSH1 0x40 MLOAD DUP1 DUP4 SUB DUP2 DUP6 DUP9 DUP9 CALL SWAP4 POP POP POP POP ISZERO DUP1 ISZERO PUSH2 0xE0A JUMPI RETURNDATASIZE PUSH1 0x0 DUP1 RETURNDATACOPY RETURNDATASIZE PUSH1 0x0 REVERT JUMPDEST POP PUSH32 0x4AE4BD7655E0D350876A23CD90C4227B13DB560E34435C6A488150A9C844BF5F CALLER CALLVALUE DUP5 PUSH1 0x40 MLOAD PUSH2 0xE3E SWAP4 SWAP3 SWAP2 SWAP1 PUSH2 0x1B8C JUMP JUMPDEST PUSH1 0x40 MLOAD DUP1 SWAP2 SUB SWAP1 LOG1 PUSH1 0x1 SWAP1 POP SWAP2 SWAP1 POP JUMP JUMPDEST PUSH1 0x2 SLOAD DUP2 JUMP JUMPDEST PUSH1 0x0 PUSH1 0x3 DUP1 DUP2 GT ISZERO PUSH2 0xE6A JUMPI PUSH2 0xE69 PUSH2 0x1F7A JUMP JUMPDEST JUMPDEST PUSH1 0x12 PUSH1 0x0 SWAP1 SLOAD SWAP1 PUSH2 0x100 EXP SWAP1 DIV PUSH1 0xFF AND PUSH1 0x3 DUP2 GT ISZERO PUSH2 0xE8C JUMPI PUSH2 0xE8B PUSH2 0x1F7A JUMP JUMPDEST JUMPDEST EQ ISZERO PUSH2 0xE9B JUMPI PUSH1 0x3 SWAP1 POP PUSH2 0xED5 JUMP JUMPDEST PUSH1 0xC SLOAD TIMESTAMP LT ISZERO PUSH2 0xEAE JUMPI PUSH1 0x0 SWAP1 POP PUSH2 0xED5 JUMP JUMPDEST PUSH1 0xC SLOAD TIMESTAMP LT ISZERO DUP1 ISZERO PUSH2 0xEC2 JUMPI POP PUSH1 0xD SLOAD TIMESTAMP GT ISZERO JUMPDEST ISZERO PUSH2 0xED0 JUMPI PUSH1 0x1 SWAP1 POP PUSH2 0xED5 JUMP JUMPDEST PUSH1 0x2 SWAP1 POP JUMPDEST SWAP1 JUMP JUMPDEST PUSH1 0x7 PUSH1 0x0 SWAP1 SLOAD SWAP1 PUSH2 0x100 EXP SWAP1 DIV PUSH20 0xFFFFFFFFFFFFFFFFFFFFFFFFFFFFFFFFFFFFFFFF AND PUSH20 0xFFFFFFFFFFFFFFFFFFFFFFFFFFFFFFFFFFFFFFFF AND CALLER PUSH20 0xFFFFFFFFFFFFFFFFFFFFFFFFFFFFFFFFFFFFFFFF AND EQ PUSH2 0xF32 JUMPI PUSH1 0x0 DUP1 REVERT JUMPDEST PUSH1 0xE PUSH1 0x0 SWAP1 SLOAD SWAP1 PUSH2 0x100 EXP SWAP1 DIV PUSH20 0xFFFFFFFFFFFFFFFFFFFFFFFFFFFFFFFFFFFFFFFF AND PUSH20 0xFFFFFFFFFFFFFFFFFFFFFFFFFFFFFFFFFFFFFFFF AND PUSH4 0xA9059CBB PUSH1 0x7 PUSH1 0x0 SWAP1 SLOAD SWAP1 PUSH2 0x100 EXP SWAP1 DIV PUSH20 0xFFFFFFFFFFFFFFFFFFFFFFFFFFFFFFFFFFFFFFFF AND PUSH1 0xE PUSH1 0x0 SWAP1 SLOAD SWAP1 PUSH2 0x100 EXP SWAP1 DIV PUSH20 0xFFFFFFFFFFFFFFFFFFFFFFFFFFFFFFFFFFFFFFFF AND PUSH20 0xFFFFFFFFFFFFFFFFFFFFFFFFFFFFFFFFFFFFFFFF AND PUSH4 0x70A08231 ADDRESS PUSH1 0x40 MLOAD DUP3 PUSH4 0xFFFFFFFF AND PUSH1 0xE0 SHL DUP2 MSTORE PUSH1 0x4 ADD PUSH2 0xFEE SWAP2 SWAP1 PUSH2 0x1B2D JUMP JUMPDEST PUSH1 0x20 PUSH1 0x40 MLOAD DUP1 DUP4 SUB DUP2 DUP7 DUP1 EXTCODESIZE ISZERO DUP1 ISZERO PUSH2 0x1006 JUMPI PUSH1 0x0 DUP1 REVERT JUMPDEST POP GAS STATICCALL ISZERO DUP1 ISZERO PUSH2 0x101A JUMPI RETURNDATASIZE PUSH1 0x0 DUP1 RETURNDATACOPY RETURNDATASIZE PUSH1 0x0 REVERT JUMPDEST POP POP POP POP PUSH1 0x40 MLOAD RETURNDATASIZE PUSH1 0x1F NOT PUSH1 0x1F DUP3 ADD AND DUP3 ADD DUP1 PUSH1 0x40 MSTORE POP DUP2 ADD SWAP1 PUSH2 0x103E SWAP2 SWAP1 PUSH2 0x19E1 JUMP JUMPDEST PUSH1 0x40 MLOAD DUP4 PUSH4 0xFFFFFFFF AND PUSH1 0xE0 SHL DUP2 MSTORE PUSH1 0x4 ADD PUSH2 0x105B SWAP3 SWAP2 SWAP1 PUSH2 0x1B63 JUMP JUMPDEST PUSH1 0x20 PUSH1 0x40 MLOAD DUP1 DUP4 SUB DUP2 PUSH1 0x0 DUP8 DUP1 EXTCODESIZE ISZERO DUP1 ISZERO PUSH2 0x1075 JUMPI PUSH1 0x0 DUP1 REVERT JUMPDEST POP GAS CALL ISZERO DUP1 ISZERO PUSH2 0x1089 JUMPI RETURNDATASIZE PUSH1 0x0 DUP1 RETURNDATACOPY RETURNDATASIZE PUSH1 0x0 REVERT JUMPDEST POP POP POP POP PUSH1 0x40 MLOAD RETURNDATASIZE PUSH1 0x1F NOT PUSH1 0x1F DUP3 ADD AND DUP3 ADD DUP1 PUSH1 0x40 MSTORE POP DUP2 ADD SWAP1 PUSH2 0x10AD SWAP2 SWAP1 PUSH2 0x1987 JUMP JUMPDEST PUSH2 0x10B6 JUMPI PUSH1 0x0 DUP1 REVERT JUMPDEST PUSH1 0x7 PUSH1 0x0 SWAP1 SLOAD SWAP1 PUSH2 0x100 EXP SWAP1 DIV PUSH20 0xFFFFFFFFFFFFFFFFFFFFFFFFFFFFFFFFFFFFFFFF AND PUSH20 0xFFFFFFFFFFFFFFFFFFFFFFFFFFFFFFFFFFFFFFFF AND PUSH2 0x8FC SELFBALANCE SWAP1 DUP2 ISZERO MUL SWAP1 PUSH1 0x40 MLOAD PUSH1 0x0 PUSH1 0x40 MLOAD DUP1 DUP4 SUB DUP2 DUP6 DUP9 DUP9 CALL SWAP4 POP POP POP POP ISZERO DUP1 ISZERO PUSH2 0x111E JUMPI RETURNDATASIZE PUSH1 0x0 DUP1 RETURNDATACOPY RETURNDATASIZE PUSH1 0x0 REVERT JUMPDEST POP JUMP JUMPDEST PUSH1 0x12 PUSH1 0x0 SWAP1 SLOAD SWAP1 PUSH2 0x100 EXP SWAP1 DIV PUSH1 0xFF AND DUP2 JUMP JUMPDEST PUSH1 0x4 PUSH1 0x0 SWAP1 SLOAD SWAP1 PUSH2 0x100 EXP SWAP1 DIV PUSH20 0xFFFFFFFFFFFFFFFFFFFFFFFFFFFFFFFFFFFFFFFF AND DUP2 JUMP JUMPDEST PUSH1 0xE PUSH1 0x0 SWAP1 SLOAD SWAP1 PUSH2 0x100 EXP SWAP1 DIV PUSH20 0xFFFFFFFFFFFFFFFFFFFFFFFFFFFFFFFFFFFFFFFF AND DUP2 JUMP JUMPDEST PUSH1 0x7 PUSH1 0x0 SWAP1 SLOAD SWAP1 PUSH2 0x100 EXP SWAP1 DIV PUSH20 0xFFFFFFFFFFFFFFFFFFFFFFFFFFFFFFFFFFFFFFFF AND PUSH20 0xFFFFFFFFFFFFFFFFFFFFFFFFFFFFFFFFFFFFFFFF AND CALLER PUSH20 0xFFFFFFFFFFFFFFFFFFFFFFFFFFFFFFFFFFFFFFFF AND EQ PUSH2 0x11DA JUMPI PUSH1 0x0 DUP1 REVERT JUMPDEST DUP1 PUSH1 0x8 PUSH1 0x0 PUSH2 0x100 EXP DUP2 SLOAD DUP2 PUSH20 0xFFFFFFFFFFFFFFFFFFFFFFFFFFFFFFFFFFFFFFFF MUL NOT AND SWAP1 DUP4 PUSH20 0xFFFFFFFFFFFFFFFFFFFFFFFFFFFFFFFFFFFFFFFF AND MUL OR SWAP1 SSTORE POP POP JUMP JUMPDEST PUSH1 0xA SLOAD DUP2 JUMP JUMPDEST PUSH1 0x0 PUSH1 0x5 PUSH1 0x0 DUP4 PUSH20 0xFFFFFFFFFFFFFFFFFFFFFFFFFFFFFFFFFFFFFFFF AND PUSH20 0xFFFFFFFFFFFFFFFFFFFFFFFFFFFFFFFFFFFFFFFF AND DUP2 MSTORE PUSH1 0x20 ADD SWAP1 DUP2 MSTORE PUSH1 0x20 ADD PUSH1 0x0 KECCAK256 SLOAD SWAP1 POP SWAP2 SWAP1 POP JUMP JUMPDEST PUSH1 0x11 SLOAD DUP2 JUMP JUMPDEST DUP1 PUSH1 0x9 DUP2 SWAP1 SSTORE POP POP JUMP JUMPDEST PUSH1 0x1 DUP1 SLOAD PUSH2 0x128A SWAP1 PUSH2 0x1EEA JUMP JUMPDEST DUP1 PUSH1 0x1F ADD PUSH1 0x20 DUP1 SWAP2 DIV MUL PUSH1 0x20 ADD PUSH1 0x40 MLOAD SWAP1 DUP2 ADD PUSH1 0x40 MSTORE DUP1 SWAP3 SWAP2 SWAP1 DUP2 DUP2 MSTORE PUSH1 0x20 ADD DUP3 DUP1 SLOAD PUSH2 0x12B6 SWAP1 PUSH2 0x1EEA JUMP JUMPDEST DUP1 ISZERO PUSH2 0x1303 JUMPI DUP1 PUSH1 0x1F LT PUSH2 0x12D8 JUMPI PUSH2 0x100 DUP1 DUP4 SLOAD DIV MUL DUP4 MSTORE SWAP2 PUSH1 0x20 ADD SWAP2 PUSH2 0x1303 JUMP JUMPDEST DUP3 ADD SWAP2 SWAP1 PUSH1 0x0 MSTORE PUSH1 0x20 PUSH1 0x0 KECCAK256 SWAP1 JUMPDEST DUP2 SLOAD DUP2 MSTORE SWAP1 PUSH1 0x1 ADD SWAP1 PUSH1 0x20 ADD DUP1 DUP4 GT PUSH2 0x12E6 JUMPI DUP3 SWAP1 SUB PUSH1 0x1F AND DUP3 ADD SWAP2 JUMPDEST POP POP POP POP POP DUP2 JUMP JUMPDEST PUSH1 0x0 PUSH1 0xF SLOAD TIMESTAMP GT PUSH2 0x131B JUMPI PUSH1 0x0 DUP1 REVERT JUMPDEST PUSH2 0x1325 DUP4 DUP4 PUSH2 0x1688 JUMP JUMPDEST POP PUSH1 0x1 SWAP1 POP SWAP3 SWAP2 POP POP JUMP JUMPDEST PUSH1 0xC SLOAD DUP2 JUMP JUMPDEST PUSH1 0xD SLOAD DUP2 JUMP JUMPDEST PUSH1 0xB SLOAD DUP2 JUMP JUMPDEST PUSH1 0xF SLOAD DUP2 JUMP JUMPDEST PUSH1 0x8 PUSH1 0x0 SWAP1 SLOAD SWAP1 PUSH2 0x100 EXP SWAP1 DIV PUSH20 0xFFFFFFFFFFFFFFFFFFFFFFFFFFFFFFFFFFFFFFFF AND DUP2 JUMP JUMPDEST PUSH1 0x0 PUSH1 0x6 PUSH1 0x0 DUP5 PUSH20 0xFFFFFFFFFFFFFFFFFFFFFFFFFFFFFFFFFFFFFFFF AND PUSH20 0xFFFFFFFFFFFFFFFFFFFFFFFFFFFFFFFFFFFFFFFF AND DUP2 MSTORE PUSH1 0x20 ADD SWAP1 DUP2 MSTORE PUSH1 0x20 ADD PUSH1 0x0 KECCAK256 PUSH1 0x0 DUP4 PUSH20 0xFFFFFFFFFFFFFFFFFFFFFFFFFFFFFFFFFFFFFFFF AND PUSH20 0xFFFFFFFFFFFFFFFFFFFFFFFFFFFFFFFFFFFFFFFF AND DUP2 MSTORE PUSH1 0x20 ADD SWAP1 DUP2 MSTORE PUSH1 0x20 ADD PUSH1 0x0 KECCAK256 SLOAD SWAP1 POP SWAP3 SWAP2 POP POP JUMP JUMPDEST PUSH1 0x0 PUSH2 0x1403 DUP3 PUSH1 0x9 SLOAD PUSH2 0x1651 JUMP JUMPDEST SWAP1 POP SWAP2 SWAP1 POP JUMP JUMPDEST PUSH1 0x7 PUSH1 0x0 SWAP1 SLOAD SWAP1 PUSH2 0x100 EXP SWAP1 DIV PUSH20 0xFFFFFFFFFFFFFFFFFFFFFFFFFFFFFFFFFFFFFFFF AND DUP2 JUMP JUMPDEST PUSH1 0x0 DUP2 PUSH1 0x6 PUSH1 0x0 DUP7 PUSH20 0xFFFFFFFFFFFFFFFFFFFFFFFFFFFFFFFFFFFFFFFF AND PUSH20 0xFFFFFFFFFFFFFFFFFFFFFFFFFFFFFFFFFFFFFFFF AND DUP2 MSTORE PUSH1 0x20 ADD SWAP1 DUP2 MSTORE PUSH1 0x20 ADD PUSH1 0x0 KECCAK256 PUSH1 0x0 DUP6 PUSH20 0xFFFFFFFFFFFFFFFFFFFFFFFFFFFFFFFFFFFFFFFF AND PUSH20 0xFFFFFFFFFFFFFFFFFFFFFFFFFFFFFFFFFFFFFFFF AND DUP2 MSTORE PUSH1 0x20 ADD SWAP1 DUP2 MSTORE PUSH1 0x20 ADD PUSH1 0x0 KECCAK256 SLOAD LT ISZERO PUSH2 0x14BB JUMPI PUSH1 0x0 DUP1 REVERT JUMPDEST DUP2 PUSH1 0x5 PUSH1 0x0 DUP7 PUSH20 0xFFFFFFFFFFFFFFFFFFFFFFFFFFFFFFFFFFFFFFFF AND PUSH20 0xFFFFFFFFFFFFFFFFFFFFFFFFFFFFFFFFFFFFFFFF AND DUP2 MSTORE PUSH1 0x20 ADD SWAP1 DUP2 MSTORE PUSH1 0x20 ADD PUSH1 0x0 KECCAK256 SLOAD LT ISZERO PUSH2 0x1507 JUMPI PUSH1 0x0 DUP1 REVERT JUMPDEST DUP2 PUSH1 0x5 PUSH1 0x0 DUP7 PUSH20 0xFFFFFFFFFFFFFFFFFFFFFFFFFFFFFFFFFFFFFFFF AND PUSH20 0xFFFFFFFFFFFFFFFFFFFFFFFFFFFFFFFFFFFFFFFF AND DUP2 MSTORE PUSH1 0x20 ADD SWAP1 DUP2 MSTORE PUSH1 0x20 ADD PUSH1 0x0 KECCAK256 PUSH1 0x0 DUP3 DUP3 SLOAD PUSH2 0x1556 SWAP2 SWAP1 PUSH2 0x1DCE JUMP JUMPDEST SWAP3 POP POP DUP2 SWAP1 SSTORE POP DUP2 PUSH1 0x5 PUSH1 0x0 DUP6 PUSH20 0xFFFFFFFFFFFFFFFFFFFFFFFFFFFFFFFFFFFFFFFF AND PUSH20 0xFFFFFFFFFFFFFFFFFFFFFFFFFFFFFFFFFFFFFFFF AND DUP2 MSTORE PUSH1 0x20 ADD SWAP1 DUP2 MSTORE PUSH1 0x20 ADD PUSH1 0x0 KECCAK256 PUSH1 0x0 DUP3 DUP3 SLOAD PUSH2 0x15AC SWAP2 SWAP1 PUSH2 0x1CED JUMP JUMPDEST SWAP3 POP POP DUP2 SWAP1 SSTORE POP DUP2 PUSH1 0x6 PUSH1 0x0 DUP7 PUSH20 0xFFFFFFFFFFFFFFFFFFFFFFFFFFFFFFFFFFFFFFFF AND PUSH20 0xFFFFFFFFFFFFFFFFFFFFFFFFFFFFFFFFFFFFFFFF AND DUP2 MSTORE PUSH1 0x20 ADD SWAP1 DUP2 MSTORE PUSH1 0x20 ADD PUSH1 0x0 KECCAK256 PUSH1 0x0 DUP6 PUSH20 0xFFFFFFFFFFFFFFFFFFFFFFFFFFFFFFFFFFFFFFFF AND PUSH20 0xFFFFFFFFFFFFFFFFFFFFFFFFFFFFFFFFFFFFFFFF AND DUP2 MSTORE PUSH1 0x20 ADD SWAP1 DUP2 MSTORE PUSH1 0x20 ADD PUSH1 0x0 KECCAK256 PUSH1 0x0 DUP3 DUP3 SLOAD PUSH2 0x163F SWAP2 SWAP1 PUSH2 0x1DCE JUMP JUMPDEST SWAP3 POP POP DUP2 SWAP1 SSTORE POP PUSH1 0x1 SWAP1 POP SWAP4 SWAP3 POP POP POP JUMP JUMPDEST PUSH1 0x0 DUP1 DUP3 EQ DUP1 PUSH2 0x1679 JUMPI POP DUP3 DUP3 DUP4 DUP6 PUSH2 0x166A SWAP2 SWAP1 PUSH2 0x1D74 JUMP JUMPDEST SWAP3 POP DUP3 PUSH2 0x1677 SWAP2 SWAP1 PUSH2 0x1D43 JUMP JUMPDEST EQ JUMPDEST PUSH2 0x1682 JUMPI PUSH1 0x0 DUP1 REVERT JUMPDEST SWAP3 SWAP2 POP POP JUMP JUMPDEST PUSH1 0x0 DUP2 PUSH1 0x5 PUSH1 0x0 CALLER PUSH20 0xFFFFFFFFFFFFFFFFFFFFFFFFFFFFFFFFFFFFFFFF AND PUSH20 0xFFFFFFFFFFFFFFFFFFFFFFFFFFFFFFFFFFFFFFFF AND DUP2 MSTORE PUSH1 0x20 ADD SWAP1 DUP2 MSTORE PUSH1 0x20 ADD PUSH1 0x0 KECCAK256 SLOAD LT ISZERO PUSH2 0x16D6 JUMPI PUSH1 0x0 DUP1 REVERT JUMPDEST DUP2 PUSH1 0x5 PUSH1 0x0 DUP6 PUSH20 0xFFFFFFFFFFFFFFFFFFFFFFFFFFFFFFFFFFFFFFFF AND PUSH20 0xFFFFFFFFFFFFFFFFFFFFFFFFFFFFFFFFFFFFFFFF AND DUP2 MSTORE PUSH1 0x20 ADD SWAP1 DUP2 MSTORE PUSH1 0x20 ADD PUSH1 0x0 KECCAK256 PUSH1 0x0 DUP3 DUP3 SLOAD PUSH2 0x1725 SWAP2 SWAP1 PUSH2 0x1CED JUMP JUMPDEST SWAP3 POP POP DUP2 SWAP1 SSTORE POP DUP2 PUSH1 0x5 PUSH1 0x0 CALLER PUSH20 0xFFFFFFFFFFFFFFFFFFFFFFFFFFFFFFFFFFFFFFFF AND PUSH20 0xFFFFFFFFFFFFFFFFFFFFFFFFFFFFFFFFFFFFFFFF AND DUP2 MSTORE PUSH1 0x20 ADD SWAP1 DUP2 MSTORE PUSH1 0x20 ADD PUSH1 0x0 KECCAK256 PUSH1 0x0 DUP3 DUP3 SLOAD PUSH2 0x177B SWAP2 SWAP1 PUSH2 0x1DCE JUMP JUMPDEST SWAP3 POP POP DUP2 SWAP1 SSTORE POP DUP3 PUSH20 0xFFFFFFFFFFFFFFFFFFFFFFFFFFFFFFFFFFFFFFFF AND CALLER PUSH20 0xFFFFFFFFFFFFFFFFFFFFFFFFFFFFFFFFFFFFFFFF AND PUSH32 0xDDF252AD1BE2C89B69C2B068FC378DAA952BA7F163C4A11628F55A4DF523B3EF DUP5 PUSH1 0x40 MLOAD PUSH2 0x17DF SWAP2 SWAP1 PUSH2 0x1CB6 JUMP JUMPDEST PUSH1 0x40 MLOAD DUP1 SWAP2 SUB SWAP1 LOG3 PUSH1 0x1 SWAP1 POP SWAP3 SWAP2 POP POP JUMP JUMPDEST PUSH1 0x0 DUP2 CALLDATALOAD SWAP1 POP PUSH2 0x1800 DUP2 PUSH2 0x20A6 JUMP JUMPDEST SWAP3 SWAP2 POP POP JUMP JUMPDEST PUSH1 0x0 DUP2 CALLDATALOAD SWAP1 POP PUSH2 0x1815 DUP2 PUSH2 0x20BD JUMP JUMPDEST SWAP3 SWAP2 POP POP JUMP JUMPDEST PUSH1 0x0 DUP2 MLOAD SWAP1 POP PUSH2 0x182A DUP2 PUSH2 0x20D4 JUMP JUMPDEST SWAP3 SWAP2 POP POP JUMP JUMPDEST PUSH1 0x0 DUP2 CALLDATALOAD SWAP1 POP PUSH2 0x183F DUP2 PUSH2 0x20EB JUMP JUMPDEST SWAP3 SWAP2 POP POP JUMP JUMPDEST PUSH1 0x0 DUP2 MLOAD SWAP1 POP PUSH2 0x1854 DUP2 PUSH2 0x20EB JUMP JUMPDEST SWAP3 SWAP2 POP POP JUMP JUMPDEST PUSH1 0x0 PUSH1 0x20 DUP3 DUP5 SUB SLT ISZERO PUSH2 0x1870 JUMPI PUSH2 0x186F PUSH2 0x1FD8 JUMP JUMPDEST JUMPDEST PUSH1 0x0 PUSH2 0x187E DUP5 DUP3 DUP6 ADD PUSH2 0x17F1 JUMP JUMPDEST SWAP2 POP POP SWAP3 SWAP2 POP POP JUMP JUMPDEST PUSH1 0x0 PUSH1 0x20 DUP3 DUP5 SUB SLT ISZERO PUSH2 0x189D JUMPI PUSH2 0x189C PUSH2 0x1FD8 JUMP JUMPDEST JUMPDEST PUSH1 0x0 PUSH2 0x18AB DUP5 DUP3 DUP6 ADD PUSH2 0x1806 JUMP JUMPDEST SWAP2 POP POP SWAP3 SWAP2 POP POP JUMP JUMPDEST PUSH1 0x0 DUP1 PUSH1 0x40 DUP4 DUP6 SUB SLT ISZERO PUSH2 0x18CB JUMPI PUSH2 0x18CA PUSH2 0x1FD8 JUMP JUMPDEST JUMPDEST PUSH1 0x0 PUSH2 0x18D9 DUP6 DUP3 DUP7 ADD PUSH2 0x17F1 JUMP JUMPDEST SWAP3 POP POP PUSH1 0x20 PUSH2 0x18EA DUP6 DUP3 DUP7 ADD PUSH2 0x17F1 JUMP JUMPDEST SWAP2 POP POP SWAP3 POP SWAP3 SWAP1 POP JUMP JUMPDEST PUSH1 0x0 DUP1 PUSH1 0x0 PUSH1 0x60 DUP5 DUP7 SUB SLT ISZERO PUSH2 0x190D JUMPI PUSH2 0x190C PUSH2 0x1FD8 JUMP JUMPDEST JUMPDEST PUSH1 0x0 PUSH2 0x191B DUP7 DUP3 DUP8 ADD PUSH2 0x17F1 JUMP JUMPDEST SWAP4 POP POP PUSH1 0x20 PUSH2 0x192C DUP7 DUP3 DUP8 ADD PUSH2 0x17F1 JUMP JUMPDEST SWAP3 POP POP PUSH1 0x40 PUSH2 0x193D DUP7 DUP3 DUP8 ADD PUSH2 0x1830 JUMP JUMPDEST SWAP2 POP POP SWAP3 POP SWAP3 POP SWAP3 JUMP JUMPDEST PUSH1 0x0 DUP1 PUSH1 0x40 DUP4 DUP6 SUB SLT ISZERO PUSH2 0x195E JUMPI PUSH2 0x195D PUSH2 0x1FD8 JUMP JUMPDEST JUMPDEST PUSH1 0x0 PUSH2 0x196C DUP6 DUP3 DUP7 ADD PUSH2 0x17F1 JUMP JUMPDEST SWAP3 POP POP PUSH1 0x20 PUSH2 0x197D DUP6 DUP3 DUP7 ADD PUSH2 0x1830 JUMP JUMPDEST SWAP2 POP POP SWAP3 POP SWAP3 SWAP1 POP JUMP JUMPDEST PUSH1 0x0 PUSH1 0x20 DUP3 DUP5 SUB SLT ISZERO PUSH2 0x199D JUMPI PUSH2 0x199C PUSH2 0x1FD8 JUMP JUMPDEST JUMPDEST PUSH1 0x0 PUSH2 0x19AB DUP5 DUP3 DUP6 ADD PUSH2 0x181B JUMP JUMPDEST SWAP2 POP POP SWAP3 SWAP2 POP POP JUMP JUMPDEST PUSH1 0x0 PUSH1 0x20 DUP3 DUP5 SUB SLT ISZERO PUSH2 0x19CA JUMPI PUSH2 0x19C9 PUSH2 0x1FD8 JUMP JUMPDEST JUMPDEST PUSH1 0x0 PUSH2 0x19D8 DUP5 DUP3 DUP6 ADD PUSH2 0x1830 JUMP JUMPDEST SWAP2 POP POP SWAP3 SWAP2 POP POP JUMP JUMPDEST PUSH1 0x0 PUSH1 0x20 DUP3 DUP5 SUB SLT ISZERO PUSH2 0x19F7 JUMPI PUSH2 0x19F6 PUSH2 0x1FD8 JUMP JUMPDEST JUMPDEST PUSH1 0x0 PUSH2 0x1A05 DUP5 DUP3 DUP6 ADD PUSH2 0x1845 JUMP JUMPDEST SWAP2 POP POP SWAP3 SWAP2 POP POP JUMP JUMPDEST PUSH2 0x1A17 DUP2 PUSH2 0x1E14 JUMP JUMPDEST DUP3 MSTORE POP POP JUMP JUMPDEST PUSH2 0x1A26 DUP2 PUSH2 0x1E02 JUMP JUMPDEST DUP3 MSTORE POP POP JUMP JUMPDEST PUSH2 0x1A35 DUP2 PUSH2 0x1E26 JUMP JUMPDEST DUP3 MSTORE POP POP JUMP JUMPDEST PUSH2 0x1A44 DUP2 PUSH2 0x1E6F JUMP JUMPDEST DUP3 MSTORE POP POP JUMP JUMPDEST PUSH2 0x1A53 DUP2 PUSH2 0x1E81 JUMP JUMPDEST DUP3 MSTORE POP POP JUMP JUMPDEST PUSH1 0x0 PUSH2 0x1A64 DUP3 PUSH2 0x1CD1 JUMP JUMPDEST PUSH2 0x1A6E DUP2 DUP6 PUSH2 0x1CDC JUMP JUMPDEST SWAP4 POP PUSH2 0x1A7E DUP2 DUP6 PUSH1 0x20 DUP7 ADD PUSH2 0x1EB7 JUMP JUMPDEST PUSH2 0x1A87 DUP2 PUSH2 0x1FDD JUMP JUMPDEST DUP5 ADD SWAP2 POP POP SWAP3 SWAP2 POP POP JUMP JUMPDEST PUSH1 0x0 PUSH2 0x1A9F PUSH1 0x14 DUP4 PUSH2 0x1CDC JUMP JUMPDEST SWAP2 POP PUSH2 0x1AAA DUP3 PUSH2 0x1FEE JUMP JUMPDEST PUSH1 0x20 DUP3 ADD SWAP1 POP SWAP2 SWAP1 POP JUMP JUMPDEST PUSH1 0x0 PUSH2 0x1AC2 PUSH1 0x1E DUP4 PUSH2 0x1CDC JUMP JUMPDEST SWAP2 POP PUSH2 0x1ACD DUP3 PUSH2 0x2017 JUMP JUMPDEST PUSH1 0x20 DUP3 ADD SWAP1 POP SWAP2 SWAP1 POP JUMP JUMPDEST PUSH1 0x0 PUSH2 0x1AE5 PUSH1 0x16 DUP4 PUSH2 0x1CDC JUMP JUMPDEST SWAP2 POP PUSH2 0x1AF0 DUP3 PUSH2 0x2040 JUMP JUMPDEST PUSH1 0x20 DUP3 ADD SWAP1 POP SWAP2 SWAP1 POP JUMP JUMPDEST PUSH1 0x0 PUSH2 0x1B08 PUSH1 0x1E DUP4 PUSH2 0x1CDC JUMP JUMPDEST SWAP2 POP PUSH2 0x1B13 DUP3 PUSH2 0x2069 JUMP JUMPDEST PUSH1 0x20 DUP3 ADD SWAP1 POP SWAP2 SWAP1 POP JUMP JUMPDEST PUSH2 0x1B27 DUP2 PUSH2 0x1E65 JUMP JUMPDEST DUP3 MSTORE POP POP JUMP JUMPDEST PUSH1 0x0 PUSH1 0x20 DUP3 ADD SWAP1 POP PUSH2 0x1B42 PUSH1 0x0 DUP4 ADD DUP5 PUSH2 0x1A1D JUMP JUMPDEST SWAP3 SWAP2 POP POP JUMP JUMPDEST PUSH1 0x0 PUSH1 0x20 DUP3 ADD SWAP1 POP PUSH2 0x1B5D PUSH1 0x0 DUP4 ADD DUP5 PUSH2 0x1A0E JUMP JUMPDEST SWAP3 SWAP2 POP POP JUMP JUMPDEST PUSH1 0x0 PUSH1 0x40 DUP3 ADD SWAP1 POP PUSH2 0x1B78 PUSH1 0x0 DUP4 ADD DUP6 PUSH2 0x1A1D JUMP JUMPDEST PUSH2 0x1B85 PUSH1 0x20 DUP4 ADD DUP5 PUSH2 0x1B1E JUMP JUMPDEST SWAP4 SWAP3 POP POP POP JUMP JUMPDEST PUSH1 0x0 PUSH1 0x60 DUP3 ADD SWAP1 POP PUSH2 0x1BA1 PUSH1 0x0 DUP4 ADD DUP7 PUSH2 0x1A1D JUMP JUMPDEST PUSH2 0x1BAE PUSH1 0x20 DUP4 ADD DUP6 PUSH2 0x1B1E JUMP JUMPDEST PUSH2 0x1BBB PUSH1 0x40 DUP4 ADD DUP5 PUSH2 0x1B1E JUMP JUMPDEST SWAP5 SWAP4 POP POP POP POP JUMP JUMPDEST PUSH1 0x0 PUSH1 0x20 DUP3 ADD SWAP1 POP PUSH2 0x1BD8 PUSH1 0x0 DUP4 ADD DUP5 PUSH2 0x1A2C JUMP JUMPDEST SWAP3 SWAP2 POP POP JUMP JUMPDEST PUSH1 0x0 PUSH1 0x20 DUP3 ADD SWAP1 POP PUSH2 0x1BF3 PUSH1 0x0 DUP4 ADD DUP5 PUSH2 0x1A3B JUMP JUMPDEST SWAP3 SWAP2 POP POP JUMP JUMPDEST PUSH1 0x0 PUSH1 0x20 DUP3 ADD SWAP1 POP PUSH2 0x1C0E PUSH1 0x0 DUP4 ADD DUP5 PUSH2 0x1A4A JUMP JUMPDEST SWAP3 SWAP2 POP POP JUMP JUMPDEST PUSH1 0x0 PUSH1 0x20 DUP3 ADD SWAP1 POP DUP2 DUP2 SUB PUSH1 0x0 DUP4 ADD MSTORE PUSH2 0x1C2E DUP2 DUP5 PUSH2 0x1A59 JUMP JUMPDEST SWAP1 POP SWAP3 SWAP2 POP POP JUMP JUMPDEST PUSH1 0x0 PUSH1 0x20 DUP3 ADD SWAP1 POP DUP2 DUP2 SUB PUSH1 0x0 DUP4 ADD MSTORE PUSH2 0x1C4F DUP2 PUSH2 0x1A92 JUMP JUMPDEST SWAP1 POP SWAP2 SWAP1 POP JUMP JUMPDEST PUSH1 0x0 PUSH1 0x20 DUP3 ADD SWAP1 POP DUP2 DUP2 SUB PUSH1 0x0 DUP4 ADD MSTORE PUSH2 0x1C6F DUP2 PUSH2 0x1AB5 JUMP JUMPDEST SWAP1 POP SWAP2 SWAP1 POP JUMP JUMPDEST PUSH1 0x0 PUSH1 0x20 DUP3 ADD SWAP1 POP DUP2 DUP2 SUB PUSH1 0x0 DUP4 ADD MSTORE PUSH2 0x1C8F DUP2 PUSH2 0x1AD8 JUMP JUMPDEST SWAP1 POP SWAP2 SWAP1 POP JUMP JUMPDEST PUSH1 0x0 PUSH1 0x20 DUP3 ADD SWAP1 POP DUP2 DUP2 SUB PUSH1 0x0 DUP4 ADD MSTORE PUSH2 0x1CAF DUP2 PUSH2 0x1AFB JUMP JUMPDEST SWAP1 POP SWAP2 SWAP1 POP JUMP JUMPDEST PUSH1 0x0 PUSH1 0x20 DUP3 ADD SWAP1 POP PUSH2 0x1CCB PUSH1 0x0 DUP4 ADD DUP5 PUSH2 0x1B1E JUMP JUMPDEST SWAP3 SWAP2 POP POP JUMP JUMPDEST PUSH1 0x0 DUP2 MLOAD SWAP1 POP SWAP2 SWAP1 POP JUMP JUMPDEST PUSH1 0x0 DUP3 DUP3 MSTORE PUSH1 0x20 DUP3 ADD SWAP1 POP SWAP3 SWAP2 POP POP JUMP JUMPDEST PUSH1 0x0 PUSH2 0x1CF8 DUP3 PUSH2 0x1E65 JUMP JUMPDEST SWAP2 POP PUSH2 0x1D03 DUP4 PUSH2 0x1E65 JUMP JUMPDEST SWAP3 POP DUP3 PUSH32 0xFFFFFFFFFFFFFFFFFFFFFFFFFFFFFFFFFFFFFFFFFFFFFFFFFFFFFFFFFFFFFFFF SUB DUP3 GT ISZERO PUSH2 0x1D38 JUMPI PUSH2 0x1D37 PUSH2 0x1F1C JUMP JUMPDEST JUMPDEST DUP3 DUP3 ADD SWAP1 POP SWAP3 SWAP2 POP POP JUMP JUMPDEST PUSH1 0x0 PUSH2 0x1D4E DUP3 PUSH2 0x1E65 JUMP JUMPDEST SWAP2 POP PUSH2 0x1D59 DUP4 PUSH2 0x1E65 JUMP JUMPDEST SWAP3 POP DUP3 PUSH2 0x1D69 JUMPI PUSH2 0x1D68 PUSH2 0x1F4B JUMP JUMPDEST JUMPDEST DUP3 DUP3 DIV SWAP1 POP SWAP3 SWAP2 POP POP JUMP JUMPDEST PUSH1 0x0 PUSH2 0x1D7F DUP3 PUSH2 0x1E65 JUMP JUMPDEST SWAP2 POP PUSH2 0x1D8A DUP4 PUSH2 0x1E65 JUMP JUMPDEST SWAP3 POP DUP2 PUSH32 0xFFFFFFFFFFFFFFFFFFFFFFFFFFFFFFFFFFFFFFFFFFFFFFFFFFFFFFFFFFFFFFFF DIV DUP4 GT DUP3 ISZERO ISZERO AND ISZERO PUSH2 0x1DC3 JUMPI PUSH2 0x1DC2 PUSH2 0x1F1C JUMP JUMPDEST JUMPDEST DUP3 DUP3 MUL SWAP1 POP SWAP3 SWAP2 POP POP JUMP JUMPDEST PUSH1 0x0 PUSH2 0x1DD9 DUP3 PUSH2 0x1E65 JUMP JUMPDEST SWAP2 POP PUSH2 0x1DE4 DUP4 PUSH2 0x1E65 JUMP JUMPDEST SWAP3 POP DUP3 DUP3 LT ISZERO PUSH2 0x1DF7 JUMPI PUSH2 0x1DF6 PUSH2 0x1F1C JUMP JUMPDEST JUMPDEST DUP3 DUP3 SUB SWAP1 POP SWAP3 SWAP2 POP POP JUMP JUMPDEST PUSH1 0x0 PUSH2 0x1E0D DUP3 PUSH2 0x1E45 JUMP JUMPDEST SWAP1 POP SWAP2 SWAP1 POP JUMP JUMPDEST PUSH1 0x0 PUSH2 0x1E1F DUP3 PUSH2 0x1E45 JUMP JUMPDEST SWAP1 POP SWAP2 SWAP1 POP JUMP JUMPDEST PUSH1 0x0 DUP2 ISZERO ISZERO SWAP1 POP SWAP2 SWAP1 POP JUMP JUMPDEST PUSH1 0x0 DUP2 SWAP1 POP PUSH2 0x1E40 DUP3 PUSH2 0x2092 JUMP JUMPDEST SWAP2 SWAP1 POP JUMP JUMPDEST PUSH1 0x0 PUSH20 0xFFFFFFFFFFFFFFFFFFFFFFFFFFFFFFFFFFFFFFFF DUP3 AND SWAP1 POP SWAP2 SWAP1 POP JUMP JUMPDEST PUSH1 0x0 DUP2 SWAP1 POP SWAP2 SWAP1 POP JUMP JUMPDEST PUSH1 0x0 PUSH2 0x1E7A DUP3 PUSH2 0x1E93 JUMP JUMPDEST SWAP1 POP SWAP2 SWAP1 POP JUMP JUMPDEST PUSH1 0x0 PUSH2 0x1E8C DUP3 PUSH2 0x1E32 JUMP JUMPDEST SWAP1 POP SWAP2 SWAP1 POP JUMP JUMPDEST PUSH1 0x0 PUSH2 0x1E9E DUP3 PUSH2 0x1EA5 JUMP JUMPDEST SWAP1 POP SWAP2 SWAP1 POP JUMP JUMPDEST PUSH1 0x0 PUSH2 0x1EB0 DUP3 PUSH2 0x1E45 JUMP JUMPDEST SWAP1 POP SWAP2 SWAP1 POP JUMP JUMPDEST PUSH1 0x0 JUMPDEST DUP4 DUP2 LT ISZERO PUSH2 0x1ED5 JUMPI DUP1 DUP3 ADD MLOAD DUP2 DUP5 ADD MSTORE PUSH1 0x20 DUP2 ADD SWAP1 POP PUSH2 0x1EBA JUMP JUMPDEST DUP4 DUP2 GT ISZERO PUSH2 0x1EE4 JUMPI PUSH1 0x0 DUP5 DUP5 ADD MSTORE JUMPDEST POP POP POP POP JUMP JUMPDEST PUSH1 0x0 PUSH1 0x2 DUP3 DIV SWAP1 POP PUSH1 0x1 DUP3 AND DUP1 PUSH2 0x1F02 JUMPI PUSH1 0x7F DUP3 AND SWAP2 POP JUMPDEST PUSH1 0x20 DUP3 LT DUP2 EQ ISZERO PUSH2 0x1F16 JUMPI PUSH2 0x1F15 PUSH2 0x1FA9 JUMP JUMPDEST JUMPDEST POP SWAP2 SWAP1 POP JUMP JUMPDEST PUSH32 0x4E487B7100000000000000000000000000000000000000000000000000000000 PUSH1 0x0 MSTORE PUSH1 0x11 PUSH1 0x4 MSTORE PUSH1 0x24 PUSH1 0x0 REVERT JUMPDEST PUSH32 0x4E487B7100000000000000000000000000000000000000000000000000000000 PUSH1 0x0 MSTORE PUSH1 0x12 PUSH1 0x4 MSTORE PUSH1 0x24 PUSH1 0x0 REVERT JUMPDEST PUSH32 0x4E487B7100000000000000000000000000000000000000000000000000000000 PUSH1 0x0 MSTORE PUSH1 0x21 PUSH1 0x4 MSTORE PUSH1 0x24 PUSH1 0x0 REVERT JUMPDEST PUSH32 0x4E487B7100000000000000000000000000000000000000000000000000000000 PUSH1 0x0 MSTORE PUSH1 0x22 PUSH1 0x4 MSTORE PUSH1 0x24 PUSH1 0x0 REVERT JUMPDEST PUSH1 0x0 DUP1 REVERT JUMPDEST PUSH1 0x0 PUSH1 0x1F NOT PUSH1 0x1F DUP4 ADD AND SWAP1 POP SWAP2 SWAP1 POP JUMP JUMPDEST PUSH32 0x5374617465206973206E6F742072756E6E696E67000000000000000000000000 PUSH1 0x0 DUP3 ADD MSTORE POP JUMP JUMPDEST PUSH32 0x4D6178206F72204D696E20696E766573746D656E742045786365656465640000 PUSH1 0x0 DUP3 ADD MSTORE POP JUMP JUMPDEST PUSH32 0x6574682073656E74206973206E6F7420656E6F75676800000000000000000000 PUSH1 0x0 DUP3 ADD MSTORE POP JUMP JUMPDEST PUSH32 0x4E6F206D6F726520746F6B656E20696E2074686520636F6E7472616374210000 PUSH1 0x0 DUP3 ADD MSTORE POP JUMP JUMPDEST PUSH1 0x4 DUP2 LT PUSH2 0x20A3 JUMPI PUSH2 0x20A2 PUSH2 0x1F7A JUMP JUMPDEST JUMPDEST POP JUMP JUMPDEST PUSH2 0x20AF DUP2 PUSH2 0x1E02 JUMP JUMPDEST DUP2 EQ PUSH2 0x20BA JUMPI PUSH1 0x0 DUP1 REVERT JUMPDEST POP JUMP JUMPDEST PUSH2 0x20C6 DUP2 PUSH2 0x1E14 JUMP JUMPDEST DUP2 EQ PUSH2 0x20D1 JUMPI PUSH1 0x0 DUP1 REVERT JUMPDEST POP JUMP JUMPDEST PUSH2 0x20DD DUP2 PUSH2 0x1E26 JUMP JUMPDEST DUP2 EQ PUSH2 0x20E8 JUMPI PUSH1 0x0 DUP1 REVERT JUMPDEST POP JUMP JUMPDEST PUSH2 0x20F4 DUP2 PUSH2 0x1E65 JUMP JUMPDEST DUP2 EQ PUSH2 0x20FF JUMPI PUSH1 0x0 DUP1 REVERT JUMPDEST POP JUMP INVALID LOG2 PUSH5 0x6970667358 0x22 SLT KECCAK256 SUB RETURN 0x4C 0xF7 0xAB PUSH12 0x23FFDDF472387A7B02967FBD STATICCALL SLT EXTCODECOPY 0xE 0x4A PC 0xC9 0x23 OR 0x5E 0x5D 0xC6 0xD8 BALANCE PUSH5 0x736F6C6343 STOP ADDMOD SMOD STOP CALLER "
				},
				"gasEstimates": {
					"creation": {
						"codeDepositCost": "1700800",
						"executionCost": "infinite",
						"totalCost": "infinite"
					},
					"external": {
						"admin()": "2624",
						"allowance(address,address)": "infinite",
						"approve(address,uint256)": "infinite",
						"balanceOf(address)": "2931",
						"balances(address)": "2926",
						"changeDepositAddress(address)": "26938",
						"decimals()": "2497",
						"deposit()": "2558",
						"endSale()": "infinite",
						"founder()": "2603",
						"getCurrentState()": "9133",
						"getPrice(uint256)": "infinite",
						"icoState()": "2627",
						"invest(uint256)": "infinite",
						"maxInvestment()": "2476",
						"minInvestment()": "2474",
						"name()": "infinite",
						"prie()": "2497",
						"raisedAmount()": "2518",
						"resume()": "26670",
						"saleEnd()": "2496",
						"saleStart()": "2474",
						"setPrice(uint256)": "22587",
						"symbol()": "infinite",
						"tokenContract()": "2711",
						"tokenTradeStart()": "2540",
						"totalSupply()": "2497",
						"transfer(address,uint256)": "infinite",
						"transferFrom(address,address,uint256)": "infinite"
					},
					"internal": {
						"multiply(uint256,uint256)": "infinite"
					}
				},
				"methodIdentifiers": {
					"admin()": "f851a440",
					"allowance(address,address)": "dd62ed3e",
					"approve(address,uint256)": "095ea7b3",
					"balanceOf(address)": "70a08231",
					"balances(address)": "27e235e3",
					"changeDepositAddress(address)": "6d58c88f",
					"decimals()": "313ce567",
					"deposit()": "d0e30db0",
					"endSale()": "380d831b",
					"founder()": "4d853ee5",
					"getCurrentState()": "378aa701",
					"getPrice(uint256)": "e7572230",
					"icoState()": "44f38756",
					"invest(uint256)": "2afcf480",
					"maxInvestment()": "002e1316",
					"minInvestment()": "8ac2c680",
					"name()": "06fdde03",
					"prie()": "6e463658",
					"raisedAmount()": "c59ee1dc",
					"resume()": "046f7da2",
					"saleEnd()": "c10b9358",
					"saleStart()": "ab0bcc41",
					"setPrice(uint256)": "91b7f5ed",
					"symbol()": "95d89b41",
					"tokenContract()": "55a373d6",
					"tokenTradeStart()": "cc9ba583",
					"totalSupply()": "18160ddd",
					"transfer(address,uint256)": "a9059cbb",
					"transferFrom(address,address,uint256)": "23b872dd"
				}
			},
			"storageLayout": {
				"storage": [
					{
						"astId": 73,
						"contract": "contracts/nct v4.sol:CryptosICO",
						"label": "name",
						"offset": 0,
						"slot": "0",
						"type": "t_string_storage"
					},
					{
						"astId": 76,
						"contract": "contracts/nct v4.sol:CryptosICO",
						"label": "symbol",
						"offset": 0,
						"slot": "1",
						"type": "t_string_storage"
					},
					{
						"astId": 79,
						"contract": "contracts/nct v4.sol:CryptosICO",
						"label": "decimals",
						"offset": 0,
						"slot": "2",
						"type": "t_uint256"
					},
					{
						"astId": 82,
						"contract": "contracts/nct v4.sol:CryptosICO",
						"label": "totalSupply",
						"offset": 0,
						"slot": "3",
						"type": "t_uint256"
					},
					{
						"astId": 84,
						"contract": "contracts/nct v4.sol:CryptosICO",
						"label": "founder",
						"offset": 0,
						"slot": "4",
						"type": "t_address"
					},
					{
						"astId": 88,
						"contract": "contracts/nct v4.sol:CryptosICO",
						"label": "balances",
						"offset": 0,
						"slot": "5",
						"type": "t_mapping(t_address,t_uint256)"
					},
					{
						"astId": 94,
						"contract": "contracts/nct v4.sol:CryptosICO",
						"label": "allowed",
						"offset": 0,
						"slot": "6",
						"type": "t_mapping(t_address,t_mapping(t_address,t_uint256))"
					},
					{
						"astId": 291,
						"contract": "contracts/nct v4.sol:CryptosICO",
						"label": "admin",
						"offset": 0,
						"slot": "7",
						"type": "t_address"
					},
					{
						"astId": 293,
						"contract": "contracts/nct v4.sol:CryptosICO",
						"label": "deposit",
						"offset": 0,
						"slot": "8",
						"type": "t_address_payable"
					},
					{
						"astId": 296,
						"contract": "contracts/nct v4.sol:CryptosICO",
						"label": "tokenPrice",
						"offset": 0,
						"slot": "9",
						"type": "t_uint256"
					},
					{
						"astId": 299,
						"contract": "contracts/nct v4.sol:CryptosICO",
						"label": "prie",
						"offset": 0,
						"slot": "10",
						"type": "t_uint256"
					},
					{
						"astId": 301,
						"contract": "contracts/nct v4.sol:CryptosICO",
						"label": "raisedAmount",
						"offset": 0,
						"slot": "11",
						"type": "t_uint256"
					},
					{
						"astId": 305,
						"contract": "contracts/nct v4.sol:CryptosICO",
						"label": "saleStart",
						"offset": 0,
						"slot": "12",
						"type": "t_uint256"
					},
					{
						"astId": 311,
						"contract": "contracts/nct v4.sol:CryptosICO",
						"label": "saleEnd",
						"offset": 0,
						"slot": "13",
						"type": "t_uint256"
					},
					{
						"astId": 314,
						"contract": "contracts/nct v4.sol:CryptosICO",
						"label": "tokenContract",
						"offset": 0,
						"slot": "14",
						"type": "t_contract(ERC20Interface)68"
					},
					{
						"astId": 319,
						"contract": "contracts/nct v4.sol:CryptosICO",
						"label": "tokenTradeStart",
						"offset": 0,
						"slot": "15",
						"type": "t_uint256"
					},
					{
						"astId": 322,
						"contract": "contracts/nct v4.sol:CryptosICO",
						"label": "maxInvestment",
						"offset": 0,
						"slot": "16",
						"type": "t_uint256"
					},
					{
						"astId": 325,
						"contract": "contracts/nct v4.sol:CryptosICO",
						"label": "minInvestment",
						"offset": 0,
						"slot": "17",
						"type": "t_uint256"
					},
					{
						"astId": 333,
						"contract": "contracts/nct v4.sol:CryptosICO",
						"label": "icoState",
						"offset": 0,
						"slot": "18",
						"type": "t_enum(State)330"
					}
				],
				"types": {
					"t_address": {
						"encoding": "inplace",
						"label": "address",
						"numberOfBytes": "20"
					},
					"t_address_payable": {
						"encoding": "inplace",
						"label": "address payable",
						"numberOfBytes": "20"
					},
					"t_contract(ERC20Interface)68": {
						"encoding": "inplace",
						"label": "contract ERC20Interface",
						"numberOfBytes": "20"
					},
					"t_enum(State)330": {
						"encoding": "inplace",
						"label": "enum CryptosICO.State",
						"numberOfBytes": "1"
					},
					"t_mapping(t_address,t_mapping(t_address,t_uint256))": {
						"encoding": "mapping",
						"key": "t_address",
						"label": "mapping(address => mapping(address => uint256))",
						"numberOfBytes": "32",
						"value": "t_mapping(t_address,t_uint256)"
					},
					"t_mapping(t_address,t_uint256)": {
						"encoding": "mapping",
						"key": "t_address",
						"label": "mapping(address => uint256)",
						"numberOfBytes": "32",
						"value": "t_uint256"
					},
					"t_string_storage": {
						"encoding": "bytes",
						"label": "string",
						"numberOfBytes": "32"
					},
					"t_uint256": {
						"encoding": "inplace",
						"label": "uint256",
						"numberOfBytes": "32"
					}
				}
			},
			"userdoc": {
				"kind": "user",
				"methods": {},
				"version": 1
			}
		}
	}
}