{
	"contracts/testContract.sol": {
		"CryptosICO": {
			"abi": [
				{
					"inputs": [
						{
							"internalType": "address payable",
							"name": "_deposit",
							"type": "address"
						}
					],
					"stateMutability": "nonpayable",
					"type": "constructor"
				},
				{
					"anonymous": false,
					"inputs": [
						{
							"indexed": true,
							"internalType": "address",
							"name": "tokenOwner",
							"type": "address"
						},
						{
							"indexed": true,
							"internalType": "address",
							"name": "spender",
							"type": "address"
						},
						{
							"indexed": false,
							"internalType": "uint256",
							"name": "tokens",
							"type": "uint256"
						}
					],
					"name": "Approval",
					"type": "event"
				},
				{
					"anonymous": false,
					"inputs": [
						{
							"indexed": false,
							"internalType": "address",
							"name": "investor",
							"type": "address"
						},
						{
							"indexed": false,
							"internalType": "uint256",
							"name": "value",
							"type": "uint256"
						},
						{
							"indexed": false,
							"internalType": "uint256",
							"name": "tokens",
							"type": "uint256"
						}
					],
					"name": "Invest",
					"type": "event"
				},
				{
					"anonymous": false,
					"inputs": [
						{
							"indexed": true,
							"internalType": "address",
							"name": "from",
							"type": "address"
						},
						{
							"indexed": true,
							"internalType": "address",
							"name": "to",
							"type": "address"
						},
						{
							"indexed": false,
							"internalType": "uint256",
							"name": "tokens",
							"type": "uint256"
						}
					],
					"name": "Transfer",
					"type": "event"
				},
				{
					"inputs": [],
					"name": "admin",
					"outputs": [
						{
							"internalType": "address",
							"name": "",
							"type": "address"
						}
					],
					"stateMutability": "view",
					"type": "function"
				},
				{
					"inputs": [
						{
							"internalType": "address",
							"name": "tokenOwner",
							"type": "address"
						},
						{
							"internalType": "address",
							"name": "spender",
							"type": "address"
						}
					],
					"name": "allowance",
					"outputs": [
						{
							"internalType": "uint256",
							"name": "",
							"type": "uint256"
						}
					],
					"stateMutability": "view",
					"type": "function"
				},
				{
					"inputs": [
						{
							"internalType": "address",
							"name": "spender",
							"type": "address"
						},
						{
							"internalType": "uint256",
							"name": "tokens",
							"type": "uint256"
						}
					],
					"name": "approve",
					"outputs": [
						{
							"internalType": "bool",
							"name": "success",
							"type": "bool"
						}
					],
					"stateMutability": "nonpayable",
					"type": "function"
				},
				{
					"inputs": [
						{
							"internalType": "address",
							"name": "tokenOwner",
							"type": "address"
						}
					],
					"name": "balanceOf",
					"outputs": [
						{
							"internalType": "uint256",
							"name": "balance",
							"type": "uint256"
						}
					],
					"stateMutability": "view",
					"type": "function"
				},
				{
					"inputs": [
						{
							"internalType": "address",
							"name": "",
							"type": "address"
						}
					],
					"name": "balances",
					"outputs": [
						{
							"internalType": "uint256",
							"name": "",
							"type": "uint256"
						}
					],
					"stateMutability": "view",
					"type": "function"
				},
				{
					"inputs": [],
					"name": "burn",
					"outputs": [
						{
							"internalType": "bool",
							"name": "",
							"type": "bool"
						}
					],
					"stateMutability": "nonpayable",
					"type": "function"
				},
				{
					"inputs": [
						{
							"internalType": "address payable",
							"name": "newDeposit",
							"type": "address"
						}
					],
					"name": "changeDepositAddress",
					"outputs": [],
					"stateMutability": "nonpayable",
					"type": "function"
				},
				{
					"inputs": [],
					"name": "decimals",
					"outputs": [
						{
							"internalType": "uint256",
							"name": "",
							"type": "uint256"
						}
					],
					"stateMutability": "view",
					"type": "function"
				},
				{
					"inputs": [],
					"name": "deposit",
					"outputs": [
						{
							"internalType": "address payable",
							"name": "",
							"type": "address"
						}
					],
					"stateMutability": "view",
					"type": "function"
				},
				{
					"inputs": [],
					"name": "founder",
					"outputs": [
						{
							"internalType": "address",
							"name": "",
							"type": "address"
						}
					],
					"stateMutability": "view",
					"type": "function"
				},
				{
					"inputs": [],
					"name": "getCurrentState",
					"outputs": [
						{
							"internalType": "enum CryptosICO.State",
							"name": "",
							"type": "uint8"
						}
					],
					"stateMutability": "view",
					"type": "function"
				},
				{
					"inputs": [],
					"name": "halt",
					"outputs": [],
					"stateMutability": "nonpayable",
					"type": "function"
				},
				{
					"inputs": [],
					"name": "hardCap",
					"outputs": [
						{
							"internalType": "uint256",
							"name": "",
							"type": "uint256"
						}
					],
					"stateMutability": "view",
					"type": "function"
				},
				{
					"inputs": [],
					"name": "icoState",
					"outputs": [
						{
							"internalType": "enum CryptosICO.State",
							"name": "",
							"type": "uint8"
						}
					],
					"stateMutability": "view",
					"type": "function"
				},
				{
					"inputs": [],
					"name": "invest",
					"outputs": [
						{
							"internalType": "bool",
							"name": "",
							"type": "bool"
						}
					],
					"stateMutability": "payable",
					"type": "function"
				},
				{
					"inputs": [],
					"name": "maxInvestment",
					"outputs": [
						{
							"internalType": "uint256",
							"name": "",
							"type": "uint256"
						}
					],
					"stateMutability": "view",
					"type": "function"
				},
				{
					"inputs": [],
					"name": "minInvestment",
					"outputs": [
						{
							"internalType": "uint256",
							"name": "",
							"type": "uint256"
						}
					],
					"stateMutability": "view",
					"type": "function"
				},
				{
					"inputs": [],
					"name": "name",
					"outputs": [
						{
							"internalType": "string",
							"name": "",
							"type": "string"
						}
					],
					"stateMutability": "view",
					"type": "function"
				},
				{
					"inputs": [],
					"name": "raisedAmount",
					"outputs": [
						{
							"internalType": "uint256",
							"name": "",
							"type": "uint256"
						}
					],
					"stateMutability": "view",
					"type": "function"
				},
				{
					"inputs": [],
					"name": "resume",
					"outputs": [],
					"stateMutability": "nonpayable",
					"type": "function"
				},
				{
					"inputs": [],
					"name": "saleEnd",
					"outputs": [
						{
							"internalType": "uint256",
							"name": "",
							"type": "uint256"
						}
					],
					"stateMutability": "view",
					"type": "function"
				},
				{
					"inputs": [],
					"name": "saleStart",
					"outputs": [
						{
							"internalType": "uint256",
							"name": "",
							"type": "uint256"
						}
					],
					"stateMutability": "view",
					"type": "function"
				},
				{
					"inputs": [],
					"name": "symbol",
					"outputs": [
						{
							"internalType": "string",
							"name": "",
							"type": "string"
						}
					],
					"stateMutability": "view",
					"type": "function"
				},
				{
					"inputs": [],
					"name": "tokenTradeStart",
					"outputs": [
						{
							"internalType": "uint256",
							"name": "",
							"type": "uint256"
						}
					],
					"stateMutability": "view",
					"type": "function"
				},
				{
					"inputs": [],
					"name": "totalSupply",
					"outputs": [
						{
							"internalType": "uint256",
							"name": "",
							"type": "uint256"
						}
					],
					"stateMutability": "view",
					"type": "function"
				},
				{
					"inputs": [
						{
							"internalType": "address",
							"name": "to",
							"type": "address"
						},
						{
							"internalType": "uint256",
							"name": "tokens",
							"type": "uint256"
						}
					],
					"name": "transfer",
					"outputs": [
						{
							"internalType": "bool",
							"name": "success",
							"type": "bool"
						}
					],
					"stateMutability": "nonpayable",
					"type": "function"
				},
				{
					"inputs": [
						{
							"internalType": "address",
							"name": "from",
							"type": "address"
						},
						{
							"internalType": "address",
							"name": "to",
							"type": "address"
						},
						{
							"internalType": "uint256",
							"name": "tokens",
							"type": "uint256"
						}
					],
					"name": "transferFrom",
					"outputs": [
						{
							"internalType": "bool",
							"name": "success",
							"type": "bool"
						}
					],
					"stateMutability": "nonpayable",
					"type": "function"
				},
				{
					"stateMutability": "payable",
					"type": "receive"
				}
			],
			"devdoc": {
				"kind": "dev",
				"methods": {},
				"version": 1
			},
			"evm": {
				"assembly": "    /* \"contracts/testContract.sol\":2922:6627  contract CryptosICO is Cryptos{\r... */\n  mstore(0x40, 0x80)\n    /* \"contracts/testContract.sol\":1062:1092  string public name = \"Cryptos\" */\n  mload(0x40)\n  dup1\n  0x40\n  add\n  0x40\n  mstore\n  dup1\n  0x07\n  dup2\n  mstore\n  0x20\n  add\n  0x43727970746f7300000000000000000000000000000000000000000000000000\n  dup2\n  mstore\n  pop\n  0x00\n  swap1\n  dup1\n  mload\n  swap1\n  0x20\n  add\n  swap1\n  tag_1\n  swap3\n  swap2\n  swap1\n  tag_2\n  jump\t// in\ntag_1:\n  pop\n    /* \"contracts/testContract.sol\":1099:1128  string public symbol = \"CRPT\" */\n  mload(0x40)\n  dup1\n  0x40\n  add\n  0x40\n  mstore\n  dup1\n  0x04\n  dup2\n  mstore\n  0x20\n  add\n  0x4352505400000000000000000000000000000000000000000000000000000000\n  dup2\n  mstore\n  pop\n  0x01\n  swap1\n  dup1\n  mload\n  swap1\n  0x20\n  add\n  swap1\n  tag_3\n  swap3\n  swap2\n  swap1\n  tag_2\n  jump\t// in\ntag_3:\n  pop\n    /* \"contracts/testContract.sol\":1158:1159  0 */\n  0x00\n    /* \"contracts/testContract.sol\":1135:1159  uint public decimals = 0 */\n  0x02\n  sstore\n    /* \"contracts/testContract.sol\":3041:3052  0.001 ether */\n  0x038d7ea4c68000\n    /* \"contracts/testContract.sol\":3023:3052  uint tokenPrice = 0.001 ether */\n  0x09\n  sstore\n    /* \"contracts/testContract.sol\":3119:3128  300 ether */\n  0x1043561a8829300000\n    /* \"contracts/testContract.sol\":3097:3128  uint public hardCap = 300 ether */\n  0x0a\n  sstore\n    /* \"contracts/testContract.sol\":3219:3234  block.timestamp */\n  timestamp\n    /* \"contracts/testContract.sol\":3195:3234  uint public saleStart = block.timestamp */\n  0x0c\n  sstore\n    /* \"contracts/testContract.sol\":3281:3287  604800 */\n  0x093a80\n    /* \"contracts/testContract.sol\":3263:3278  block.timestamp */\n  timestamp\n    /* \"contracts/testContract.sol\":3263:3287  block.timestamp + 604800 */\n  tag_4\n  swap2\n  swap1\n  tag_5\n  jump\t// in\ntag_4:\n    /* \"contracts/testContract.sol\":3241:3287  uint public saleEnd = block.timestamp + 604800 */\n  0x0d\n  sstore\n    /* \"contracts/testContract.sol\":3351:3357  604800 */\n  0x093a80\n    /* \"contracts/testContract.sol\":3341:3348  saleEnd */\n  sload(0x0d)\n    /* \"contracts/testContract.sol\":3341:3357  saleEnd + 604800 */\n  tag_6\n  swap2\n  swap1\n  tag_5\n  jump\t// in\ntag_6:\n    /* \"contracts/testContract.sol\":3311:3357  uint public tokenTradeStart = saleEnd + 604800 */\n  0x0e\n  sstore\n    /* \"contracts/testContract.sol\":3431:3438  5 ether */\n  0x4563918244f40000\n    /* \"contracts/testContract.sol\":3403:3438  uint public maxInvestment = 5 ether */\n  0x0f\n  sstore\n    /* \"contracts/testContract.sol\":3473:3482  0.1 ether */\n  0x016345785d8a0000\n    /* \"contracts/testContract.sol\":3445:3482  uint public minInvestment = 0.1 ether */\n  0x10\n  sstore\n    /* \"contracts/testContract.sol\":3602:3746  constructor(address payable _deposit){\r... */\n  callvalue\n  dup1\n  iszero\n  tag_7\n  jumpi\n  0x00\n  dup1\n  revert\ntag_7:\n  pop\n  mload(0x40)\n  sub(codesize, bytecodeSize)\n  dup1\n  bytecodeSize\n  dup4\n  codecopy\n  dup2\n  dup2\n  add\n  0x40\n  mstore\n  dup2\n  add\n  swap1\n  tag_8\n  swap2\n  swap1\n  tag_9\n  jump\t// in\ntag_8:\n    /* \"contracts/testContract.sol\":1474:1481  1000000 */\n  0x0f4240\n    /* \"contracts/testContract.sol\":1460:1471  totalSupply */\n  0x03\n    /* \"contracts/testContract.sol\":1460:1481  totalSupply = 1000000 */\n  dup2\n  swap1\n  sstore\n  pop\n    /* \"contracts/testContract.sol\":1502:1512  msg.sender */\n  caller\n    /* \"contracts/testContract.sol\":1492:1499  founder */\n  0x04\n  0x00\n    /* \"contracts/testContract.sol\":1492:1512  founder = msg.sender */\n  0x0100\n  exp\n  dup2\n  sload\n  dup2\n  0xffffffffffffffffffffffffffffffffffffffff\n  mul\n  not\n  and\n  swap1\n  dup4\n  0xffffffffffffffffffffffffffffffffffffffff\n  and\n  mul\n  or\n  swap1\n  sstore\n  pop\n    /* \"contracts/testContract.sol\":1543:1554  totalSupply */\n  sload(0x03)\n    /* \"contracts/testContract.sol\":1523:1531  balances */\n  0x05\n    /* \"contracts/testContract.sol\":1523:1540  balances[founder] */\n  0x00\n    /* \"contracts/testContract.sol\":1532:1539  founder */\n  0x04\n  0x00\n  swap1\n  sload\n  swap1\n  0x0100\n  exp\n  swap1\n  div\n  0xffffffffffffffffffffffffffffffffffffffff\n  and\n    /* \"contracts/testContract.sol\":1523:1540  balances[founder] */\n  0xffffffffffffffffffffffffffffffffffffffff\n  and\n  0xffffffffffffffffffffffffffffffffffffffff\n  and\n  dup2\n  mstore\n  0x20\n  add\n  swap1\n  dup2\n  mstore\n  0x20\n  add\n  0x00\n  keccak256\n    /* \"contracts/testContract.sol\":1523:1554  balances[founder] = totalSupply */\n  dup2\n  swap1\n  sstore\n  pop\n    /* \"contracts/testContract.sol\":3660:3668  _deposit */\n  dup1\n    /* \"contracts/testContract.sol\":3650:3657  deposit */\n  0x08\n  0x00\n    /* \"contracts/testContract.sol\":3650:3668  deposit = _deposit */\n  0x0100\n  exp\n  dup2\n  sload\n  dup2\n  0xffffffffffffffffffffffffffffffffffffffff\n  mul\n  not\n  and\n  swap1\n  dup4\n  0xffffffffffffffffffffffffffffffffffffffff\n  and\n  mul\n  or\n  swap1\n  sstore\n  pop\n    /* \"contracts/testContract.sol\":3688:3698  msg.sender */\n  caller\n    /* \"contracts/testContract.sol\":3680:3685  admin */\n  0x07\n  0x00\n    /* \"contracts/testContract.sol\":3680:3698  admin = msg.sender */\n  0x0100\n  exp\n  dup2\n  sload\n  dup2\n  0xffffffffffffffffffffffffffffffffffffffff\n  mul\n  not\n  and\n  swap1\n  dup4\n  0xffffffffffffffffffffffffffffffffffffffff\n  and\n  mul\n  or\n  swap1\n  sstore\n  pop\n    /* \"contracts/testContract.sol\":3721:3738  State.beforeStart */\n  0x00\n    /* \"contracts/testContract.sol\":3710:3718  icoState */\n  0x11\n  0x00\n    /* \"contracts/testContract.sol\":3710:3738  icoState = State.beforeStart */\n  0x0100\n  exp\n  dup2\n  sload\n  dup2\n  0xff\n  mul\n  not\n  and\n  swap1\n  dup4\n  0x03\n  dup2\n  gt\n  iszero\n  tag_14\n  jumpi\n  tag_15\n  tag_16\n  jump\t// in\ntag_15:\ntag_14:\n  mul\n  or\n  swap1\n  sstore\n  pop\n    /* \"contracts/testContract.sol\":3602:3746  constructor(address payable _deposit){\r... */\n  pop\n    /* \"contracts/testContract.sol\":2922:6627  contract CryptosICO is Cryptos{\r... */\n  jump(tag_17)\ntag_2:\n  dup3\n  dup1\n  sload\n  tag_18\n  swap1\n  tag_19\n  jump\t// in\ntag_18:\n  swap1\n  0x00\n  mstore\n  keccak256(0x00, 0x20)\n  swap1\n  0x1f\n  add\n  0x20\n  swap1\n  div\n  dup2\n  add\n  swap3\n  dup3\n  tag_21\n  jumpi\n  0x00\n  dup6\n  sstore\n  jump(tag_20)\ntag_21:\n  dup3\n  0x1f\n  lt\n  tag_22\n  jumpi\n  dup1\n  mload\n  not(0xff)\n  and\n  dup4\n  dup1\n  add\n  or\n  dup6\n  sstore\n  jump(tag_20)\ntag_22:\n  dup3\n  dup1\n  add\n  0x01\n  add\n  dup6\n  sstore\n  dup3\n  iszero\n  tag_20\n  jumpi\n  swap2\n  dup3\n  add\ntag_23:\n  dup3\n  dup2\n  gt\n  iszero\n  tag_24\n  jumpi\n  dup3\n  mload\n  dup3\n  sstore\n  swap2\n  0x20\n  add\n  swap2\n  swap1\n  0x01\n  add\n  swap1\n  jump(tag_23)\ntag_24:\ntag_20:\n  pop\n  swap1\n  pop\n  tag_25\n  swap2\n  swap1\n  tag_26\n  jump\t// in\ntag_25:\n  pop\n  swap1\n  jump\t// out\ntag_26:\ntag_27:\n  dup1\n  dup3\n  gt\n  iszero\n  tag_28\n  jumpi\n  0x00\n  dup2\n  0x00\n  swap1\n  sstore\n  pop\n  0x01\n  add\n  jump(tag_27)\ntag_28:\n  pop\n  swap1\n  jump\t// out\n    /* \"#utility.yul\":7:166   */\ntag_30:\n    /* \"#utility.yul\":72:77   */\n  0x00\n    /* \"#utility.yul\":103:109   */\n  dup2\n    /* \"#utility.yul\":97:110   */\n  mload\n    /* \"#utility.yul\":88:110   */\n  swap1\n  pop\n    /* \"#utility.yul\":119:160   */\n  tag_32\n    /* \"#utility.yul\":154:159   */\n  dup2\n    /* \"#utility.yul\":119:160   */\n  tag_33\n  jump\t// in\ntag_32:\n    /* \"#utility.yul\":7:166   */\n  swap3\n  swap2\n  pop\n  pop\n  jump\t// out\n    /* \"#utility.yul\":172:539   */\ntag_9:\n    /* \"#utility.yul\":250:256   */\n  0x00\n    /* \"#utility.yul\":299:301   */\n  0x20\n    /* \"#utility.yul\":287:296   */\n  dup3\n    /* \"#utility.yul\":278:285   */\n  dup5\n    /* \"#utility.yul\":274:297   */\n  sub\n    /* \"#utility.yul\":270:302   */\n  slt\n    /* \"#utility.yul\":267:386   */\n  iszero\n  tag_35\n  jumpi\n    /* \"#utility.yul\":305:384   */\n  tag_36\n  tag_37\n  jump\t// in\ntag_36:\n    /* \"#utility.yul\":267:386   */\ntag_35:\n    /* \"#utility.yul\":425:426   */\n  0x00\n    /* \"#utility.yul\":450:522   */\n  tag_38\n    /* \"#utility.yul\":514:521   */\n  dup5\n    /* \"#utility.yul\":505:511   */\n  dup3\n    /* \"#utility.yul\":494:503   */\n  dup6\n    /* \"#utility.yul\":490:512   */\n  add\n    /* \"#utility.yul\":450:522   */\n  tag_30\n  jump\t// in\ntag_38:\n    /* \"#utility.yul\":440:522   */\n  swap2\n  pop\n    /* \"#utility.yul\":396:532   */\n  pop\n    /* \"#utility.yul\":172:539   */\n  swap3\n  swap2\n  pop\n  pop\n  jump\t// out\n    /* \"#utility.yul\":626:931   */\ntag_5:\n    /* \"#utility.yul\":666:669   */\n  0x00\n    /* \"#utility.yul\":685:705   */\n  tag_42\n    /* \"#utility.yul\":703:704   */\n  dup3\n    /* \"#utility.yul\":685:705   */\n  tag_43\n  jump\t// in\ntag_42:\n    /* \"#utility.yul\":680:705   */\n  swap2\n  pop\n    /* \"#utility.yul\":719:739   */\n  tag_44\n    /* \"#utility.yul\":737:738   */\n  dup4\n    /* \"#utility.yul\":719:739   */\n  tag_43\n  jump\t// in\ntag_44:\n    /* \"#utility.yul\":714:739   */\n  swap3\n  pop\n    /* \"#utility.yul\":873:874   */\n  dup3\n    /* \"#utility.yul\":805:871   */\n  0xffffffffffffffffffffffffffffffffffffffffffffffffffffffffffffffff\n    /* \"#utility.yul\":801:875   */\n  sub\n    /* \"#utility.yul\":798:799   */\n  dup3\n    /* \"#utility.yul\":795:876   */\n  gt\n    /* \"#utility.yul\":792:899   */\n  iszero\n  tag_45\n  jumpi\n    /* \"#utility.yul\":879:897   */\n  tag_46\n  tag_47\n  jump\t// in\ntag_46:\n    /* \"#utility.yul\":792:899   */\ntag_45:\n    /* \"#utility.yul\":923:924   */\n  dup3\n    /* \"#utility.yul\":920:921   */\n  dup3\n    /* \"#utility.yul\":916:925   */\n  add\n    /* \"#utility.yul\":909:925   */\n  swap1\n  pop\n    /* \"#utility.yul\":626:931   */\n  swap3\n  swap2\n  pop\n  pop\n  jump\t// out\n    /* \"#utility.yul\":937:1041   */\ntag_48:\n    /* \"#utility.yul\":982:989   */\n  0x00\n    /* \"#utility.yul\":1011:1035   */\n  tag_50\n    /* \"#utility.yul\":1029:1034   */\n  dup3\n    /* \"#utility.yul\":1011:1035   */\n  tag_51\n  jump\t// in\ntag_50:\n    /* \"#utility.yul\":1000:1035   */\n  swap1\n  pop\n    /* \"#utility.yul\":937:1041   */\n  swap2\n  swap1\n  pop\n  jump\t// out\n    /* \"#utility.yul\":1047:1173   */\ntag_51:\n    /* \"#utility.yul\":1084:1091   */\n  0x00\n    /* \"#utility.yul\":1124:1166   */\n  0xffffffffffffffffffffffffffffffffffffffff\n    /* \"#utility.yul\":1117:1122   */\n  dup3\n    /* \"#utility.yul\":1113:1167   */\n  and\n    /* \"#utility.yul\":1102:1167   */\n  swap1\n  pop\n    /* \"#utility.yul\":1047:1173   */\n  swap2\n  swap1\n  pop\n  jump\t// out\n    /* \"#utility.yul\":1179:1256   */\ntag_43:\n    /* \"#utility.yul\":1216:1223   */\n  0x00\n    /* \"#utility.yul\":1245:1250   */\n  dup2\n    /* \"#utility.yul\":1234:1250   */\n  swap1\n  pop\n    /* \"#utility.yul\":1179:1256   */\n  swap2\n  swap1\n  pop\n  jump\t// out\n    /* \"#utility.yul\":1262:1582   */\ntag_19:\n    /* \"#utility.yul\":1306:1312   */\n  0x00\n    /* \"#utility.yul\":1343:1344   */\n  0x02\n    /* \"#utility.yul\":1337:1341   */\n  dup3\n    /* \"#utility.yul\":1333:1345   */\n  div\n    /* \"#utility.yul\":1323:1345   */\n  swap1\n  pop\n    /* \"#utility.yul\":1390:1391   */\n  0x01\n    /* \"#utility.yul\":1384:1388   */\n  dup3\n    /* \"#utility.yul\":1380:1392   */\n  and\n    /* \"#utility.yul\":1411:1429   */\n  dup1\n    /* \"#utility.yul\":1401:1482   */\n  tag_55\n  jumpi\n    /* \"#utility.yul\":1467:1471   */\n  0x7f\n    /* \"#utility.yul\":1459:1465   */\n  dup3\n    /* \"#utility.yul\":1455:1472   */\n  and\n    /* \"#utility.yul\":1445:1472   */\n  swap2\n  pop\n    /* \"#utility.yul\":1401:1482   */\ntag_55:\n    /* \"#utility.yul\":1529:1531   */\n  0x20\n    /* \"#utility.yul\":1521:1527   */\n  dup3\n    /* \"#utility.yul\":1518:1532   */\n  lt\n    /* \"#utility.yul\":1498:1516   */\n  dup2\n    /* \"#utility.yul\":1495:1533   */\n  eq\n    /* \"#utility.yul\":1492:1576   */\n  iszero\n  tag_56\n  jumpi\n    /* \"#utility.yul\":1548:1566   */\n  tag_57\n  tag_58\n  jump\t// in\ntag_57:\n    /* \"#utility.yul\":1492:1576   */\ntag_56:\n    /* \"#utility.yul\":1313:1582   */\n  pop\n    /* \"#utility.yul\":1262:1582   */\n  swap2\n  swap1\n  pop\n  jump\t// out\n    /* \"#utility.yul\":1588:1768   */\ntag_47:\n    /* \"#utility.yul\":1636:1713   */\n  0x4e487b7100000000000000000000000000000000000000000000000000000000\n    /* \"#utility.yul\":1633:1634   */\n  0x00\n    /* \"#utility.yul\":1626:1714   */\n  mstore\n    /* \"#utility.yul\":1733:1737   */\n  0x11\n    /* \"#utility.yul\":1730:1731   */\n  0x04\n    /* \"#utility.yul\":1723:1738   */\n  mstore\n    /* \"#utility.yul\":1757:1761   */\n  0x24\n    /* \"#utility.yul\":1754:1755   */\n  0x00\n    /* \"#utility.yul\":1747:1762   */\n  revert\n    /* \"#utility.yul\":1774:1954   */\ntag_16:\n    /* \"#utility.yul\":1822:1899   */\n  0x4e487b7100000000000000000000000000000000000000000000000000000000\n    /* \"#utility.yul\":1819:1820   */\n  0x00\n    /* \"#utility.yul\":1812:1900   */\n  mstore\n    /* \"#utility.yul\":1919:1923   */\n  0x21\n    /* \"#utility.yul\":1916:1917   */\n  0x04\n    /* \"#utility.yul\":1909:1924   */\n  mstore\n    /* \"#utility.yul\":1943:1947   */\n  0x24\n    /* \"#utility.yul\":1940:1941   */\n  0x00\n    /* \"#utility.yul\":1933:1948   */\n  revert\n    /* \"#utility.yul\":1960:2140   */\ntag_58:\n    /* \"#utility.yul\":2008:2085   */\n  0x4e487b7100000000000000000000000000000000000000000000000000000000\n    /* \"#utility.yul\":2005:2006   */\n  0x00\n    /* \"#utility.yul\":1998:2086   */\n  mstore\n    /* \"#utility.yul\":2105:2109   */\n  0x22\n    /* \"#utility.yul\":2102:2103   */\n  0x04\n    /* \"#utility.yul\":2095:2110   */\n  mstore\n    /* \"#utility.yul\":2129:2133   */\n  0x24\n    /* \"#utility.yul\":2126:2127   */\n  0x00\n    /* \"#utility.yul\":2119:2134   */\n  revert\n    /* \"#utility.yul\":2269:2386   */\ntag_37:\n    /* \"#utility.yul\":2378:2379   */\n  0x00\n    /* \"#utility.yul\":2375:2376   */\n  dup1\n    /* \"#utility.yul\":2368:2380   */\n  revert\n    /* \"#utility.yul\":2392:2530   */\ntag_33:\n    /* \"#utility.yul\":2473:2505   */\n  tag_66\n    /* \"#utility.yul\":2499:2504   */\n  dup2\n    /* \"#utility.yul\":2473:2505   */\n  tag_48\n  jump\t// in\ntag_66:\n    /* \"#utility.yul\":2466:2471   */\n  dup2\n    /* \"#utility.yul\":2463:2506   */\n  eq\n    /* \"#utility.yul\":2453:2524   */\n  tag_67\n  jumpi\n    /* \"#utility.yul\":2520:2521   */\n  0x00\n    /* \"#utility.yul\":2517:2518   */\n  dup1\n    /* \"#utility.yul\":2510:2522   */\n  revert\n    /* \"#utility.yul\":2453:2524   */\ntag_67:\n    /* \"#utility.yul\":2392:2530   */\n  pop\n  jump\t// out\n    /* \"contracts/testContract.sol\":2922:6627  contract CryptosICO is Cryptos{\r... */\ntag_17:\n  dataSize(sub_0)\n  dup1\n  dataOffset(sub_0)\n  0x00\n  codecopy\n  0x00\n  return\nstop\n\nsub_0: assembly {\n        /* \"contracts/testContract.sol\":2922:6627  contract CryptosICO is Cryptos{\r... */\n      mstore(0x40, 0x80)\n      jumpi(tag_1, lt(calldatasize, 0x04))\n      shr(0xe0, calldataload(0x00))\n      dup1\n      0x6d58c88f\n      gt\n      tag_30\n      jumpi\n      dup1\n      0xc59ee1dc\n      gt\n      tag_31\n      jumpi\n      dup1\n      0xdd62ed3e\n      gt\n      tag_32\n      jumpi\n      dup1\n      0xdd62ed3e\n      eq\n      tag_26\n      jumpi\n      dup1\n      0xe8b5e51f\n      eq\n      tag_27\n      jumpi\n      dup1\n      0xf851a440\n      eq\n      tag_28\n      jumpi\n      dup1\n      0xfb86a404\n      eq\n      tag_29\n      jumpi\n      jump(tag_2)\n    tag_32:\n      dup1\n      0xc59ee1dc\n      eq\n      tag_23\n      jumpi\n      dup1\n      0xcc9ba583\n      eq\n      tag_24\n      jumpi\n      dup1\n      0xd0e30db0\n      eq\n      tag_25\n      jumpi\n      jump(tag_2)\n    tag_31:\n      dup1\n      0x95d89b41\n      gt\n      tag_33\n      jumpi\n      dup1\n      0x95d89b41\n      eq\n      tag_19\n      jumpi\n      dup1\n      0xa9059cbb\n      eq\n      tag_20\n      jumpi\n      dup1\n      0xab0bcc41\n      eq\n      tag_21\n      jumpi\n      dup1\n      0xc10b9358\n      eq\n      tag_22\n      jumpi\n      jump(tag_2)\n    tag_33:\n      dup1\n      0x6d58c88f\n      eq\n      tag_16\n      jumpi\n      dup1\n      0x70a08231\n      eq\n      tag_17\n      jumpi\n      dup1\n      0x8ac2c680\n      eq\n      tag_18\n      jumpi\n      jump(tag_2)\n    tag_30:\n      dup1\n      0x27e235e3\n      gt\n      tag_34\n      jumpi\n      dup1\n      0x44df8e70\n      gt\n      tag_35\n      jumpi\n      dup1\n      0x44df8e70\n      eq\n      tag_12\n      jumpi\n      dup1\n      0x44f38756\n      eq\n      tag_13\n      jumpi\n      dup1\n      0x4d853ee5\n      eq\n      tag_14\n      jumpi\n      dup1\n      0x5ed7ca5b\n      eq\n      tag_15\n      jumpi\n      jump(tag_2)\n    tag_35:\n      dup1\n      0x27e235e3\n      eq\n      tag_9\n      jumpi\n      dup1\n      0x313ce567\n      eq\n      tag_10\n      jumpi\n      dup1\n      0x378aa701\n      eq\n      tag_11\n      jumpi\n      jump(tag_2)\n    tag_34:\n      dup1\n      0x2e1316\n      eq\n      tag_3\n      jumpi\n      dup1\n      0x046f7da2\n      eq\n      tag_4\n      jumpi\n      dup1\n      0x06fdde03\n      eq\n      tag_5\n      jumpi\n      dup1\n      0x095ea7b3\n      eq\n      tag_6\n      jumpi\n      dup1\n      0x18160ddd\n      eq\n      tag_7\n      jumpi\n      dup1\n      0x23b872dd\n      eq\n      tag_8\n      jumpi\n      jump(tag_2)\n    tag_1:\n      jumpi(tag_2, calldatasize)\n        /* \"contracts/testContract.sol\":5604:5612  invest() */\n      tag_38\n        /* \"contracts/testContract.sol\":5604:5610  invest */\n      tag_39\n        /* \"contracts/testContract.sol\":5604:5612  invest() */\n      jump\t// in\n    tag_38:\n      pop\n        /* \"contracts/testContract.sol\":2922:6627  contract CryptosICO is Cryptos{\r... */\n      stop\n    tag_2:\n      0x00\n      dup1\n      revert\n        /* \"contracts/testContract.sol\":3403:3438  uint public maxInvestment = 5 ether */\n    tag_3:\n      callvalue\n      dup1\n      iszero\n      tag_40\n      jumpi\n      0x00\n      dup1\n      revert\n    tag_40:\n      pop\n      tag_41\n      tag_42\n      jump\t// in\n    tag_41:\n      mload(0x40)\n      tag_43\n      swap2\n      swap1\n      tag_44\n      jump\t// in\n    tag_43:\n      mload(0x40)\n      dup1\n      swap2\n      sub\n      swap1\n      return\n        /* \"contracts/testContract.sol\":3972:4049  function resume() public onlyAdmin{\r... */\n    tag_4:\n      callvalue\n      dup1\n      iszero\n      tag_45\n      jumpi\n      0x00\n      dup1\n      revert\n    tag_45:\n      pop\n      tag_46\n      tag_47\n      jump\t// in\n    tag_46:\n      stop\n        /* \"contracts/testContract.sol\":1062:1092  string public name = \"Cryptos\" */\n    tag_5:\n      callvalue\n      dup1\n      iszero\n      tag_48\n      jumpi\n      0x00\n      dup1\n      revert\n    tag_48:\n      pop\n      tag_49\n      tag_50\n      jump\t// in\n    tag_49:\n      mload(0x40)\n      tag_51\n      swap2\n      swap1\n      tag_52\n      jump\t// in\n    tag_51:\n      mload(0x40)\n      dup1\n      swap2\n      sub\n      swap1\n      return\n        /* \"contracts/testContract.sol\":2216:2532  function approve(address spender, uint tokens) public override returns (bool success){\r... */\n    tag_6:\n      callvalue\n      dup1\n      iszero\n      tag_53\n      jumpi\n      0x00\n      dup1\n      revert\n    tag_53:\n      pop\n      tag_54\n      0x04\n      dup1\n      calldatasize\n      sub\n      dup2\n      add\n      swap1\n      tag_55\n      swap2\n      swap1\n      tag_56\n      jump\t// in\n    tag_55:\n      tag_57\n      jump\t// in\n    tag_54:\n      mload(0x40)\n      tag_58\n      swap2\n      swap1\n      tag_59\n      jump\t// in\n    tag_58:\n      mload(0x40)\n      dup1\n      swap2\n      sub\n      swap1\n      return\n        /* \"contracts/testContract.sol\":1166:1198  uint public override totalSupply */\n    tag_7:\n      callvalue\n      dup1\n      iszero\n      tag_60\n      jumpi\n      0x00\n      dup1\n      revert\n    tag_60:\n      pop\n      tag_61\n      tag_62\n      jump\t// in\n    tag_61:\n      mload(0x40)\n      tag_63\n      swap2\n      swap1\n      tag_44\n      jump\t// in\n    tag_63:\n      mload(0x40)\n      dup1\n      swap2\n      sub\n      swap1\n      return\n        /* \"contracts/testContract.sol\":6272:6624  function transferFrom(address from, address to, uint tokens) public override returns (bool success){\r... */\n    tag_8:\n      callvalue\n      dup1\n      iszero\n      tag_64\n      jumpi\n      0x00\n      dup1\n      revert\n    tag_64:\n      pop\n      tag_65\n      0x04\n      dup1\n      calldatasize\n      sub\n      dup2\n      add\n      swap1\n      tag_66\n      swap2\n      swap1\n      tag_67\n      jump\t// in\n    tag_66:\n      tag_68\n      jump\t// in\n    tag_65:\n      mload(0x40)\n      tag_69\n      swap2\n      swap1\n      tag_59\n      jump\t// in\n    tag_69:\n      mload(0x40)\n      dup1\n      swap2\n      sub\n      swap1\n      return\n        /* \"contracts/testContract.sol\":1240:1280  mapping(address => uint) public balances */\n    tag_9:\n      callvalue\n      dup1\n      iszero\n      tag_70\n      jumpi\n      0x00\n      dup1\n      revert\n    tag_70:\n      pop\n      tag_71\n      0x04\n      dup1\n      calldatasize\n      sub\n      dup2\n      add\n      swap1\n      tag_72\n      swap2\n      swap1\n      tag_73\n      jump\t// in\n    tag_72:\n      tag_74\n      jump\t// in\n    tag_71:\n      mload(0x40)\n      tag_75\n      swap2\n      swap1\n      tag_44\n      jump\t// in\n    tag_75:\n      mload(0x40)\n      dup1\n      swap2\n      sub\n      swap1\n      return\n        /* \"contracts/testContract.sol\":1135:1159  uint public decimals = 0 */\n    tag_10:\n      callvalue\n      dup1\n      iszero\n      tag_76\n      jumpi\n      0x00\n      dup1\n      revert\n    tag_76:\n      pop\n      tag_77\n      tag_78\n      jump\t// in\n    tag_77:\n      mload(0x40)\n      tag_79\n      swap2\n      swap1\n      tag_44\n      jump\t// in\n    tag_79:\n      mload(0x40)\n      dup1\n      swap2\n      sub\n      swap1\n      return\n        /* \"contracts/testContract.sol\":4198:4596  function getCurrentState() public view returns(State){\r... */\n    tag_11:\n      callvalue\n      dup1\n      iszero\n      tag_80\n      jumpi\n      0x00\n      dup1\n      revert\n    tag_80:\n      pop\n      tag_81\n      tag_82\n      jump\t// in\n    tag_81:\n      mload(0x40)\n      tag_83\n      swap2\n      swap1\n      tag_84\n      jump\t// in\n    tag_83:\n      mload(0x40)\n      dup1\n      swap2\n      sub\n      swap1\n      return\n        /* \"contracts/testContract.sol\":5666:5859  function burn() public returns(bool){\r... */\n    tag_12:\n      callvalue\n      dup1\n      iszero\n      tag_85\n      jumpi\n      0x00\n      dup1\n      revert\n    tag_85:\n      pop\n      tag_86\n      tag_87\n      jump\t// in\n    tag_86:\n      mload(0x40)\n      tag_88\n      swap2\n      swap1\n      tag_59\n      jump\t// in\n    tag_88:\n      mload(0x40)\n      dup1\n      swap2\n      sub\n      swap1\n      return\n        /* \"contracts/testContract.sol\":3568:3589  State public icoState */\n    tag_13:\n      callvalue\n      dup1\n      iszero\n      tag_89\n      jumpi\n      0x00\n      dup1\n      revert\n    tag_89:\n      pop\n      tag_90\n      tag_91\n      jump\t// in\n    tag_90:\n      mload(0x40)\n      tag_92\n      swap2\n      swap1\n      tag_84\n      jump\t// in\n    tag_92:\n      mload(0x40)\n      dup1\n      swap2\n      sub\n      swap1\n      return\n        /* \"contracts/testContract.sol\":1211:1233  address public founder */\n    tag_14:\n      callvalue\n      dup1\n      iszero\n      tag_93\n      jumpi\n      0x00\n      dup1\n      revert\n    tag_93:\n      pop\n      tag_94\n      tag_95\n      jump\t// in\n    tag_94:\n      mload(0x40)\n      tag_96\n      swap2\n      swap1\n      tag_97\n      jump\t// in\n    tag_96:\n      mload(0x40)\n      dup1\n      swap2\n      sub\n      swap1\n      return\n        /* \"contracts/testContract.sol\":3880:3954  function halt() public onlyAdmin{\r... */\n    tag_15:\n      callvalue\n      dup1\n      iszero\n      tag_98\n      jumpi\n      0x00\n      dup1\n      revert\n    tag_98:\n      pop\n      tag_99\n      tag_100\n      jump\t// in\n    tag_99:\n      stop\n        /* \"contracts/testContract.sol\":4067:4180  function changeDepositAddress(address payable newDeposit) public onlyAdmin{\r... */\n    tag_16:\n      callvalue\n      dup1\n      iszero\n      tag_101\n      jumpi\n      0x00\n      dup1\n      revert\n    tag_101:\n      pop\n      tag_102\n      0x04\n      dup1\n      calldatasize\n      sub\n      dup2\n      add\n      swap1\n      tag_103\n      swap2\n      swap1\n      tag_104\n      jump\t// in\n    tag_103:\n      tag_105\n      jump\t// in\n    tag_102:\n      stop\n        /* \"contracts/testContract.sol\":1580:1708  function balanceOf(address tokenOwner) public view override returns (uint balance){\r... */\n    tag_17:\n      callvalue\n      dup1\n      iszero\n      tag_106\n      jumpi\n      0x00\n      dup1\n      revert\n    tag_106:\n      pop\n      tag_107\n      0x04\n      dup1\n      calldatasize\n      sub\n      dup2\n      add\n      swap1\n      tag_108\n      swap2\n      swap1\n      tag_73\n      jump\t// in\n    tag_108:\n      tag_109\n      jump\t// in\n    tag_107:\n      mload(0x40)\n      tag_110\n      swap2\n      swap1\n      tag_44\n      jump\t// in\n    tag_110:\n      mload(0x40)\n      dup1\n      swap2\n      sub\n      swap1\n      return\n        /* \"contracts/testContract.sol\":3445:3482  uint public minInvestment = 0.1 ether */\n    tag_18:\n      callvalue\n      dup1\n      iszero\n      tag_111\n      jumpi\n      0x00\n      dup1\n      revert\n    tag_111:\n      pop\n      tag_112\n      tag_113\n      jump\t// in\n    tag_112:\n      mload(0x40)\n      tag_114\n      swap2\n      swap1\n      tag_44\n      jump\t// in\n    tag_114:\n      mload(0x40)\n      dup1\n      swap2\n      sub\n      swap1\n      return\n        /* \"contracts/testContract.sol\":1099:1128  string public symbol = \"CRPT\" */\n    tag_19:\n      callvalue\n      dup1\n      iszero\n      tag_115\n      jumpi\n      0x00\n      dup1\n      revert\n    tag_115:\n      pop\n      tag_116\n      tag_117\n      jump\t// in\n    tag_116:\n      mload(0x40)\n      tag_118\n      swap2\n      swap1\n      tag_52\n      jump\t// in\n    tag_118:\n      mload(0x40)\n      dup1\n      swap2\n      sub\n      swap1\n      return\n        /* \"contracts/testContract.sol\":5877:6254  function transfer(address to, uint tokens) public override returns (bool success){\r... */\n    tag_20:\n      callvalue\n      dup1\n      iszero\n      tag_119\n      jumpi\n      0x00\n      dup1\n      revert\n    tag_119:\n      pop\n      tag_120\n      0x04\n      dup1\n      calldatasize\n      sub\n      dup2\n      add\n      swap1\n      tag_121\n      swap2\n      swap1\n      tag_56\n      jump\t// in\n    tag_121:\n      tag_122\n      jump\t// in\n    tag_120:\n      mload(0x40)\n      tag_123\n      swap2\n      swap1\n      tag_59\n      jump\t// in\n    tag_123:\n      mload(0x40)\n      dup1\n      swap2\n      sub\n      swap1\n      return\n        /* \"contracts/testContract.sol\":3195:3234  uint public saleStart = block.timestamp */\n    tag_21:\n      callvalue\n      dup1\n      iszero\n      tag_124\n      jumpi\n      0x00\n      dup1\n      revert\n    tag_124:\n      pop\n      tag_125\n      tag_126\n      jump\t// in\n    tag_125:\n      mload(0x40)\n      tag_127\n      swap2\n      swap1\n      tag_44\n      jump\t// in\n    tag_127:\n      mload(0x40)\n      dup1\n      swap2\n      sub\n      swap1\n      return\n        /* \"contracts/testContract.sol\":3241:3287  uint public saleEnd = block.timestamp + 604800 */\n    tag_22:\n      callvalue\n      dup1\n      iszero\n      tag_128\n      jumpi\n      0x00\n      dup1\n      revert\n    tag_128:\n      pop\n      tag_129\n      tag_130\n      jump\t// in\n    tag_129:\n      mload(0x40)\n      tag_131\n      swap2\n      swap1\n      tag_44\n      jump\t// in\n    tag_131:\n      mload(0x40)\n      dup1\n      swap2\n      sub\n      swap1\n      return\n        /* \"contracts/testContract.sol\":3135:3159  uint public raisedAmount */\n    tag_23:\n      callvalue\n      dup1\n      iszero\n      tag_132\n      jumpi\n      0x00\n      dup1\n      revert\n    tag_132:\n      pop\n      tag_133\n      tag_134\n      jump\t// in\n    tag_133:\n      mload(0x40)\n      tag_135\n      swap2\n      swap1\n      tag_44\n      jump\t// in\n    tag_135:\n      mload(0x40)\n      dup1\n      swap2\n      sub\n      swap1\n      return\n        /* \"contracts/testContract.sol\":3311:3357  uint public tokenTradeStart = saleEnd + 604800 */\n    tag_24:\n      callvalue\n      dup1\n      iszero\n      tag_136\n      jumpi\n      0x00\n      dup1\n      revert\n    tag_136:\n      pop\n      tag_137\n      tag_138\n      jump\t// in\n    tag_137:\n      mload(0x40)\n      tag_139\n      swap2\n      swap1\n      tag_44\n      jump\t// in\n    tag_139:\n      mload(0x40)\n      dup1\n      swap2\n      sub\n      swap1\n      return\n        /* \"contracts/testContract.sol\":2986:3016  address payable public deposit */\n    tag_25:\n      callvalue\n      dup1\n      iszero\n      tag_140\n      jumpi\n      0x00\n      dup1\n      revert\n    tag_140:\n      pop\n      tag_141\n      tag_142\n      jump\t// in\n    tag_141:\n      mload(0x40)\n      tag_143\n      swap2\n      swap1\n      tag_144\n      jump\t// in\n    tag_143:\n      mload(0x40)\n      dup1\n      swap2\n      sub\n      swap1\n      return\n        /* \"contracts/testContract.sol\":2054:2198  function allowance(address tokenOwner, address spender) public view override returns(uint){\r... */\n    tag_26:\n      callvalue\n      dup1\n      iszero\n      tag_145\n      jumpi\n      0x00\n      dup1\n      revert\n    tag_145:\n      pop\n      tag_146\n      0x04\n      dup1\n      calldatasize\n      sub\n      dup2\n      add\n      swap1\n      tag_147\n      swap2\n      swap1\n      tag_148\n      jump\t// in\n    tag_147:\n      tag_149\n      jump\t// in\n    tag_146:\n      mload(0x40)\n      tag_150\n      swap2\n      swap1\n      tag_44\n      jump\t// in\n    tag_150:\n      mload(0x40)\n      dup1\n      swap2\n      sub\n      swap1\n      return\n        /* \"contracts/testContract.sol\":4737:5457  function invest() payable public returns(bool){ \r... */\n    tag_27:\n      tag_151\n      tag_39\n      jump\t// in\n    tag_151:\n      mload(0x40)\n      tag_152\n      swap2\n      swap1\n      tag_59\n      jump\t// in\n    tag_152:\n      mload(0x40)\n      dup1\n      swap2\n      sub\n      swap1\n      return\n        /* \"contracts/testContract.sol\":2959:2979  address public admin */\n    tag_28:\n      callvalue\n      dup1\n      iszero\n      tag_153\n      jumpi\n      0x00\n      dup1\n      revert\n    tag_153:\n      pop\n      tag_154\n      tag_155\n      jump\t// in\n    tag_154:\n      mload(0x40)\n      tag_156\n      swap2\n      swap1\n      tag_97\n      jump\t// in\n    tag_156:\n      mload(0x40)\n      dup1\n      swap2\n      sub\n      swap1\n      return\n        /* \"contracts/testContract.sol\":3097:3128  uint public hardCap = 300 ether */\n    tag_29:\n      callvalue\n      dup1\n      iszero\n      tag_157\n      jumpi\n      0x00\n      dup1\n      revert\n    tag_157:\n      pop\n      tag_158\n      tag_159\n      jump\t// in\n    tag_158:\n      mload(0x40)\n      tag_160\n      swap2\n      swap1\n      tag_44\n      jump\t// in\n    tag_160:\n      mload(0x40)\n      dup1\n      swap2\n      sub\n      swap1\n      return\n        /* \"contracts/testContract.sol\":4737:5457  function invest() payable public returns(bool){ \r... */\n    tag_39:\n        /* \"contracts/testContract.sol\":4778:4782  bool */\n      0x00\n        /* \"contracts/testContract.sol\":4806:4823  getCurrentState() */\n      tag_162\n        /* \"contracts/testContract.sol\":4806:4821  getCurrentState */\n      tag_82\n        /* \"contracts/testContract.sol\":4806:4823  getCurrentState() */\n      jump\t// in\n    tag_162:\n        /* \"contracts/testContract.sol\":4795:4803  icoState */\n      0x11\n      0x00\n        /* \"contracts/testContract.sol\":4795:4823  icoState = getCurrentState() */\n      0x0100\n      exp\n      dup2\n      sload\n      dup2\n      0xff\n      mul\n      not\n      and\n      swap1\n      dup4\n      0x03\n      dup2\n      gt\n      iszero\n      tag_163\n      jumpi\n      tag_164\n      tag_165\n      jump\t// in\n    tag_164:\n    tag_163:\n      mul\n      or\n      swap1\n      sstore\n      pop\n        /* \"contracts/testContract.sol\":4854:4867  State.running */\n      0x01\n        /* \"contracts/testContract.sol\":4842:4867  icoState == State.running */\n      0x03\n      dup2\n      gt\n      iszero\n      tag_166\n      jumpi\n      tag_167\n      tag_165\n      jump\t// in\n    tag_167:\n    tag_166:\n        /* \"contracts/testContract.sol\":4842:4850  icoState */\n      0x11\n      0x00\n      swap1\n      sload\n      swap1\n      0x0100\n      exp\n      swap1\n      div\n      0xff\n      and\n        /* \"contracts/testContract.sol\":4842:4867  icoState == State.running */\n      0x03\n      dup2\n      gt\n      iszero\n      tag_168\n      jumpi\n      tag_169\n      tag_165\n      jump\t// in\n    tag_169:\n    tag_168:\n      eq\n        /* \"contracts/testContract.sol\":4834:4868  require(icoState == State.running) */\n      tag_170\n      jumpi\n      0x00\n      dup1\n      revert\n    tag_170:\n        /* \"contracts/testContract.sol\":4900:4913  minInvestment */\n      sload(0x10)\n        /* \"contracts/testContract.sol\":4887:4896  msg.value */\n      callvalue\n        /* \"contracts/testContract.sol\":4887:4913  msg.value >= minInvestment */\n      lt\n      iszero\n        /* \"contracts/testContract.sol\":4887:4943  msg.value >= minInvestment && msg.value <= maxInvestment */\n      dup1\n      iszero\n      tag_171\n      jumpi\n      pop\n        /* \"contracts/testContract.sol\":4930:4943  maxInvestment */\n      sload(0x0f)\n        /* \"contracts/testContract.sol\":4917:4926  msg.value */\n      callvalue\n        /* \"contracts/testContract.sol\":4917:4943  msg.value <= maxInvestment */\n      gt\n      iszero\n        /* \"contracts/testContract.sol\":4887:4943  msg.value >= minInvestment && msg.value <= maxInvestment */\n    tag_171:\n        /* \"contracts/testContract.sol\":4879:4944  require(msg.value >= minInvestment && msg.value <= maxInvestment) */\n      tag_172\n      jumpi\n      0x00\n      dup1\n      revert\n    tag_172:\n        /* \"contracts/testContract.sol\":4981:4990  msg.value */\n      callvalue\n        /* \"contracts/testContract.sol\":4965:4977  raisedAmount */\n      0x0b\n      0x00\n        /* \"contracts/testContract.sol\":4965:4990  raisedAmount += msg.value */\n      dup3\n      dup3\n      sload\n      tag_173\n      swap2\n      swap1\n      tag_174\n      jump\t// in\n    tag_173:\n      swap3\n      pop\n      pop\n      dup2\n      swap1\n      sstore\n      pop\n        /* \"contracts/testContract.sol\":5025:5032  hardCap */\n      sload(0x0a)\n        /* \"contracts/testContract.sol\":5009:5021  raisedAmount */\n      sload(0x0b)\n        /* \"contracts/testContract.sol\":5009:5032  raisedAmount <= hardCap */\n      gt\n      iszero\n        /* \"contracts/testContract.sol\":5001:5033  require(raisedAmount <= hardCap) */\n      tag_175\n      jumpi\n      0x00\n      dup1\n      revert\n    tag_175:\n        /* \"contracts/testContract.sol\":5054:5065  uint tokens */\n      0x00\n        /* \"contracts/testContract.sol\":5080:5090  tokenPrice */\n      sload(0x09)\n        /* \"contracts/testContract.sol\":5068:5077  msg.value */\n      callvalue\n        /* \"contracts/testContract.sol\":5068:5090  msg.value / tokenPrice */\n      tag_176\n      swap2\n      swap1\n      tag_177\n      jump\t// in\n    tag_176:\n        /* \"contracts/testContract.sol\":5054:5090  uint tokens = msg.value / tokenPrice */\n      swap1\n      pop\n        /* \"contracts/testContract.sol\":5207:5213  tokens */\n      dup1\n        /* \"contracts/testContract.sol\":5183:5191  balances */\n      0x05\n        /* \"contracts/testContract.sol\":5183:5203  balances[msg.sender] */\n      0x00\n        /* \"contracts/testContract.sol\":5192:5202  msg.sender */\n      caller\n        /* \"contracts/testContract.sol\":5183:5203  balances[msg.sender] */\n      0xffffffffffffffffffffffffffffffffffffffff\n      and\n      0xffffffffffffffffffffffffffffffffffffffff\n      and\n      dup2\n      mstore\n      0x20\n      add\n      swap1\n      dup2\n      mstore\n      0x20\n      add\n      0x00\n      keccak256\n      0x00\n        /* \"contracts/testContract.sol\":5183:5213  balances[msg.sender] += tokens */\n      dup3\n      dup3\n      sload\n      tag_178\n      swap2\n      swap1\n      tag_174\n      jump\t// in\n    tag_178:\n      swap3\n      pop\n      pop\n      dup2\n      swap1\n      sstore\n      pop\n        /* \"contracts/testContract.sol\":5245:5251  tokens */\n      dup1\n        /* \"contracts/testContract.sol\":5224:5232  balances */\n      0x05\n        /* \"contracts/testContract.sol\":5224:5241  balances[founder] */\n      0x00\n        /* \"contracts/testContract.sol\":5233:5240  founder */\n      0x04\n      0x00\n      swap1\n      sload\n      swap1\n      0x0100\n      exp\n      swap1\n      div\n      0xffffffffffffffffffffffffffffffffffffffff\n      and\n        /* \"contracts/testContract.sol\":5224:5241  balances[founder] */\n      0xffffffffffffffffffffffffffffffffffffffff\n      and\n      0xffffffffffffffffffffffffffffffffffffffff\n      and\n      dup2\n      mstore\n      0x20\n      add\n      swap1\n      dup2\n      mstore\n      0x20\n      add\n      0x00\n      keccak256\n      0x00\n        /* \"contracts/testContract.sol\":5224:5251  balances[founder] -= tokens */\n      dup3\n      dup3\n      sload\n      tag_179\n      swap2\n      swap1\n      tag_180\n      jump\t// in\n    tag_179:\n      swap3\n      pop\n      pop\n      dup2\n      swap1\n      sstore\n      pop\n        /* \"contracts/testContract.sol\":5263:5270  deposit */\n      0x08\n      0x00\n      swap1\n      sload\n      swap1\n      0x0100\n      exp\n      swap1\n      div\n      0xffffffffffffffffffffffffffffffffffffffff\n      and\n        /* \"contracts/testContract.sol\":5263:5279  deposit.transfer */\n      0xffffffffffffffffffffffffffffffffffffffff\n      and\n        /* \"contracts/testContract.sol\":5263:5290  deposit.transfer(msg.value) */\n      0x08fc\n        /* \"contracts/testContract.sol\":5280:5289  msg.value */\n      callvalue\n        /* \"contracts/testContract.sol\":5263:5290  deposit.transfer(msg.value) */\n      swap1\n      dup2\n      iszero\n      mul\n      swap1\n      mload(0x40)\n      0x00\n      mload(0x40)\n      dup1\n      dup4\n      sub\n      dup2\n      dup6\n      dup9\n      dup9\n      call\n      swap4\n      pop\n      pop\n      pop\n      pop\n      iszero\n      dup1\n      iszero\n      tag_182\n      jumpi\n      returndatasize\n      0x00\n      dup1\n      returndatacopy\n      revert(0x00, returndatasize)\n    tag_182:\n      pop\n        /* \"contracts/testContract.sol\":5380:5417  Invest(msg.sender, msg.value, tokens) */\n      0x4ae4bd7655e0d350876a23cd90c4227b13db560e34435c6a488150a9c844bf5f\n        /* \"contracts/testContract.sol\":5387:5397  msg.sender */\n      caller\n        /* \"contracts/testContract.sol\":5399:5408  msg.value */\n      callvalue\n        /* \"contracts/testContract.sol\":5410:5416  tokens */\n      dup4\n        /* \"contracts/testContract.sol\":5380:5417  Invest(msg.sender, msg.value, tokens) */\n      mload(0x40)\n      tag_183\n      swap4\n      swap3\n      swap2\n      swap1\n      tag_184\n      jump\t// in\n    tag_183:\n      mload(0x40)\n      dup1\n      swap2\n      sub\n      swap1\n      log1\n        /* \"contracts/testContract.sol\":5445:5449  true */\n      0x01\n        /* \"contracts/testContract.sol\":5438:5449  return true */\n      swap2\n      pop\n      pop\n        /* \"contracts/testContract.sol\":4737:5457  function invest() payable public returns(bool){ \r... */\n      swap1\n      jump\t// out\n        /* \"contracts/testContract.sol\":3403:3438  uint public maxInvestment = 5 ether */\n    tag_42:\n      sload(0x0f)\n      dup2\n      jump\t// out\n        /* \"contracts/testContract.sol\":3972:4049  function resume() public onlyAdmin{\r... */\n    tag_47:\n        /* \"contracts/testContract.sol\":3813:3818  admin */\n      0x07\n      0x00\n      swap1\n      sload\n      swap1\n      0x0100\n      exp\n      swap1\n      div\n      0xffffffffffffffffffffffffffffffffffffffff\n      and\n        /* \"contracts/testContract.sol\":3799:3818  msg.sender == admin */\n      0xffffffffffffffffffffffffffffffffffffffff\n      and\n        /* \"contracts/testContract.sol\":3799:3809  msg.sender */\n      caller\n        /* \"contracts/testContract.sol\":3799:3818  msg.sender == admin */\n      0xffffffffffffffffffffffffffffffffffffffff\n      and\n      eq\n        /* \"contracts/testContract.sol\":3791:3819  require(msg.sender == admin) */\n      tag_186\n      jumpi\n      0x00\n      dup1\n      revert\n    tag_186:\n        /* \"contracts/testContract.sol\":4028:4041  State.running */\n      0x01\n        /* \"contracts/testContract.sol\":4017:4025  icoState */\n      0x11\n      0x00\n        /* \"contracts/testContract.sol\":4017:4041  icoState = State.running */\n      0x0100\n      exp\n      dup2\n      sload\n      dup2\n      0xff\n      mul\n      not\n      and\n      swap1\n      dup4\n      0x03\n      dup2\n      gt\n      iszero\n      tag_188\n      jumpi\n      tag_189\n      tag_165\n      jump\t// in\n    tag_189:\n    tag_188:\n      mul\n      or\n      swap1\n      sstore\n      pop\n        /* \"contracts/testContract.sol\":3972:4049  function resume() public onlyAdmin{\r... */\n      jump\t// out\n        /* \"contracts/testContract.sol\":1062:1092  string public name = \"Cryptos\" */\n    tag_50:\n      0x00\n      dup1\n      sload\n      tag_190\n      swap1\n      tag_191\n      jump\t// in\n    tag_190:\n      dup1\n      0x1f\n      add\n      0x20\n      dup1\n      swap2\n      div\n      mul\n      0x20\n      add\n      mload(0x40)\n      swap1\n      dup2\n      add\n      0x40\n      mstore\n      dup1\n      swap3\n      swap2\n      swap1\n      dup2\n      dup2\n      mstore\n      0x20\n      add\n      dup3\n      dup1\n      sload\n      tag_192\n      swap1\n      tag_191\n      jump\t// in\n    tag_192:\n      dup1\n      iszero\n      tag_193\n      jumpi\n      dup1\n      0x1f\n      lt\n      tag_194\n      jumpi\n      0x0100\n      dup1\n      dup4\n      sload\n      div\n      mul\n      dup4\n      mstore\n      swap2\n      0x20\n      add\n      swap2\n      jump(tag_193)\n    tag_194:\n      dup3\n      add\n      swap2\n      swap1\n      0x00\n      mstore\n      keccak256(0x00, 0x20)\n      swap1\n    tag_195:\n      dup2\n      sload\n      dup2\n      mstore\n      swap1\n      0x01\n      add\n      swap1\n      0x20\n      add\n      dup1\n      dup4\n      gt\n      tag_195\n      jumpi\n      dup3\n      swap1\n      sub\n      0x1f\n      and\n      dup3\n      add\n      swap2\n    tag_193:\n      pop\n      pop\n      pop\n      pop\n      pop\n      dup2\n      jump\t// out\n        /* \"contracts/testContract.sol\":2216:2532  function approve(address spender, uint tokens) public override returns (bool success){\r... */\n    tag_57:\n        /* \"contracts/testContract.sol\":2288:2300  bool success */\n      0x00\n        /* \"contracts/testContract.sol\":2344:2350  tokens */\n      dup2\n        /* \"contracts/testContract.sol\":2320:2328  balances */\n      0x05\n        /* \"contracts/testContract.sol\":2320:2340  balances[msg.sender] */\n      0x00\n        /* \"contracts/testContract.sol\":2329:2339  msg.sender */\n      caller\n        /* \"contracts/testContract.sol\":2320:2340  balances[msg.sender] */\n      0xffffffffffffffffffffffffffffffffffffffff\n      and\n      0xffffffffffffffffffffffffffffffffffffffff\n      and\n      dup2\n      mstore\n      0x20\n      add\n      swap1\n      dup2\n      mstore\n      0x20\n      add\n      0x00\n      keccak256\n      sload\n        /* \"contracts/testContract.sol\":2320:2350  balances[msg.sender] >= tokens */\n      lt\n      iszero\n        /* \"contracts/testContract.sol\":2312:2351  require(balances[msg.sender] >= tokens) */\n      tag_197\n      jumpi\n      0x00\n      dup1\n      revert\n    tag_197:\n        /* \"contracts/testContract.sol\":2379:2380  0 */\n      0x00\n        /* \"contracts/testContract.sol\":2370:2376  tokens */\n      dup3\n        /* \"contracts/testContract.sol\":2370:2380  tokens > 0 */\n      gt\n        /* \"contracts/testContract.sol\":2362:2381  require(tokens > 0) */\n      tag_198\n      jumpi\n      0x00\n      dup1\n      revert\n    tag_198:\n        /* \"contracts/testContract.sol\":2433:2439  tokens */\n      dup2\n        /* \"contracts/testContract.sol\":2402:2409  allowed */\n      0x06\n        /* \"contracts/testContract.sol\":2402:2421  allowed[msg.sender] */\n      0x00\n        /* \"contracts/testContract.sol\":2410:2420  msg.sender */\n      caller\n        /* \"contracts/testContract.sol\":2402:2421  allowed[msg.sender] */\n      0xffffffffffffffffffffffffffffffffffffffff\n      and\n      0xffffffffffffffffffffffffffffffffffffffff\n      and\n      dup2\n      mstore\n      0x20\n      add\n      swap1\n      dup2\n      mstore\n      0x20\n      add\n      0x00\n      keccak256\n        /* \"contracts/testContract.sol\":2402:2430  allowed[msg.sender][spender] */\n      0x00\n        /* \"contracts/testContract.sol\":2422:2429  spender */\n      dup6\n        /* \"contracts/testContract.sol\":2402:2430  allowed[msg.sender][spender] */\n      0xffffffffffffffffffffffffffffffffffffffff\n      and\n      0xffffffffffffffffffffffffffffffffffffffff\n      and\n      dup2\n      mstore\n      0x20\n      add\n      swap1\n      dup2\n      mstore\n      0x20\n      add\n      0x00\n      keccak256\n        /* \"contracts/testContract.sol\":2402:2439  allowed[msg.sender][spender] = tokens */\n      dup2\n      swap1\n      sstore\n      pop\n        /* \"contracts/testContract.sol\":2486:2493  spender */\n      dup3\n        /* \"contracts/testContract.sol\":2465:2502  Approval(msg.sender, spender, tokens) */\n      0xffffffffffffffffffffffffffffffffffffffff\n      and\n        /* \"contracts/testContract.sol\":2474:2484  msg.sender */\n      caller\n        /* \"contracts/testContract.sol\":2465:2502  Approval(msg.sender, spender, tokens) */\n      0xffffffffffffffffffffffffffffffffffffffff\n      and\n      0x8c5be1e5ebec7d5bd14f71427d1e84f3dd0314c0f7b2291e5b200ac8c7c3b925\n        /* \"contracts/testContract.sol\":2495:2501  tokens */\n      dup5\n        /* \"contracts/testContract.sol\":2465:2502  Approval(msg.sender, spender, tokens) */\n      mload(0x40)\n      tag_199\n      swap2\n      swap1\n      tag_44\n      jump\t// in\n    tag_199:\n      mload(0x40)\n      dup1\n      swap2\n      sub\n      swap1\n      log3\n        /* \"contracts/testContract.sol\":2520:2524  true */\n      0x01\n        /* \"contracts/testContract.sol\":2513:2524  return true */\n      swap1\n      pop\n        /* \"contracts/testContract.sol\":2216:2532  function approve(address spender, uint tokens) public override returns (bool success){\r... */\n      swap3\n      swap2\n      pop\n      pop\n      jump\t// out\n        /* \"contracts/testContract.sol\":1166:1198  uint public override totalSupply */\n    tag_62:\n      sload(0x03)\n      dup2\n      jump\t// out\n        /* \"contracts/testContract.sol\":6272:6624  function transferFrom(address from, address to, uint tokens) public override returns (bool success){\r... */\n    tag_68:\n        /* \"contracts/testContract.sol\":6358:6370  bool success */\n      0x00\n        /* \"contracts/testContract.sol\":6408:6423  tokenTradeStart */\n      sload(0x0e)\n        /* \"contracts/testContract.sol\":6390:6405  block.timestamp */\n      timestamp\n        /* \"contracts/testContract.sol\":6390:6423  block.timestamp > tokenTradeStart */\n      gt\n        /* \"contracts/testContract.sol\":6382:6424  require(block.timestamp > tokenTradeStart) */\n      tag_201\n      jumpi\n      0x00\n      dup1\n      revert\n    tag_201:\n        /* \"contracts/testContract.sol\":6505:6543  Cryptos.transferFrom(from, to, tokens) */\n      tag_202\n        /* \"contracts/testContract.sol\":6526:6530  from */\n      dup5\n        /* \"contracts/testContract.sol\":6532:6534  to */\n      dup5\n        /* \"contracts/testContract.sol\":6536:6542  tokens */\n      dup5\n        /* \"contracts/testContract.sol\":6505:6525  Cryptos.transferFrom */\n      tag_203\n        /* \"contracts/testContract.sol\":6505:6543  Cryptos.transferFrom(from, to, tokens) */\n      jump\t// in\n    tag_202:\n      pop\n        /* \"contracts/testContract.sol\":6605:6609  true */\n      0x01\n        /* \"contracts/testContract.sol\":6598:6609  return true */\n      swap1\n      pop\n        /* \"contracts/testContract.sol\":6272:6624  function transferFrom(address from, address to, uint tokens) public override returns (bool success){\r... */\n      swap4\n      swap3\n      pop\n      pop\n      pop\n      jump\t// out\n        /* \"contracts/testContract.sol\":1240:1280  mapping(address => uint) public balances */\n    tag_74:\n      mstore(0x20, 0x05)\n      dup1\n      0x00\n      mstore\n      keccak256(0x00, 0x40)\n      0x00\n      swap2\n      pop\n      swap1\n      pop\n      sload\n      dup2\n      jump\t// out\n        /* \"contracts/testContract.sol\":1135:1159  uint public decimals = 0 */\n    tag_78:\n      sload(0x02)\n      dup2\n      jump\t// out\n        /* \"contracts/testContract.sol\":4198:4596  function getCurrentState() public view returns(State){\r... */\n    tag_82:\n        /* \"contracts/testContract.sol\":4245:4250  State */\n      0x00\n        /* \"contracts/testContract.sol\":4277:4289  State.halted */\n      0x03\n        /* \"contracts/testContract.sol\":4265:4289  icoState == State.halted */\n      dup1\n      dup2\n      gt\n      iszero\n      tag_205\n      jumpi\n      tag_206\n      tag_165\n      jump\t// in\n    tag_206:\n    tag_205:\n        /* \"contracts/testContract.sol\":4265:4273  icoState */\n      0x11\n      0x00\n      swap1\n      sload\n      swap1\n      0x0100\n      exp\n      swap1\n      div\n      0xff\n      and\n        /* \"contracts/testContract.sol\":4265:4289  icoState == State.halted */\n      0x03\n      dup2\n      gt\n      iszero\n      tag_207\n      jumpi\n      tag_208\n      tag_165\n      jump\t// in\n    tag_208:\n    tag_207:\n      eq\n        /* \"contracts/testContract.sol\":4262:4589  if(icoState == State.halted){\r... */\n      iszero\n      tag_209\n      jumpi\n        /* \"contracts/testContract.sol\":4312:4324  State.halted */\n      0x03\n        /* \"contracts/testContract.sol\":4305:4324  return State.halted */\n      swap1\n      pop\n      jump(tag_204)\n        /* \"contracts/testContract.sol\":4262:4589  if(icoState == State.halted){\r... */\n    tag_209:\n        /* \"contracts/testContract.sol\":4362:4371  saleStart */\n      sload(0x0c)\n        /* \"contracts/testContract.sol\":4344:4359  block.timestamp */\n      timestamp\n        /* \"contracts/testContract.sol\":4344:4371  block.timestamp < saleStart */\n      lt\n        /* \"contracts/testContract.sol\":4341:4589  if(block.timestamp < saleStart){\r... */\n      iszero\n      tag_211\n      jumpi\n        /* \"contracts/testContract.sol\":4394:4411  State.beforeStart */\n      0x00\n        /* \"contracts/testContract.sol\":4387:4411  return State.beforeStart */\n      swap1\n      pop\n      jump(tag_204)\n        /* \"contracts/testContract.sol\":4341:4589  if(block.timestamp < saleStart){\r... */\n    tag_211:\n        /* \"contracts/testContract.sol\":4450:4459  saleStart */\n      sload(0x0c)\n        /* \"contracts/testContract.sol\":4431:4446  block.timestamp */\n      timestamp\n        /* \"contracts/testContract.sol\":4431:4459  block.timestamp >= saleStart */\n      lt\n      iszero\n        /* \"contracts/testContract.sol\":4431:4489  block.timestamp >= saleStart && block.timestamp <= saleEnd */\n      dup1\n      iszero\n      tag_213\n      jumpi\n      pop\n        /* \"contracts/testContract.sol\":4482:4489  saleEnd */\n      sload(0x0d)\n        /* \"contracts/testContract.sol\":4463:4478  block.timestamp */\n      timestamp\n        /* \"contracts/testContract.sol\":4463:4489  block.timestamp <= saleEnd */\n      gt\n      iszero\n        /* \"contracts/testContract.sol\":4431:4489  block.timestamp >= saleStart && block.timestamp <= saleEnd */\n    tag_213:\n        /* \"contracts/testContract.sol\":4428:4589  if(block.timestamp >= saleStart && block.timestamp <= saleEnd){\r... */\n      iszero\n      tag_214\n      jumpi\n        /* \"contracts/testContract.sol\":4512:4525  State.running */\n      0x01\n        /* \"contracts/testContract.sol\":4505:4525  return State.running */\n      swap1\n      pop\n      jump(tag_204)\n        /* \"contracts/testContract.sol\":4428:4589  if(block.timestamp >= saleStart && block.timestamp <= saleEnd){\r... */\n    tag_214:\n        /* \"contracts/testContract.sol\":4563:4577  State.afterEnd */\n      0x02\n        /* \"contracts/testContract.sol\":4556:4577  return State.afterEnd */\n      swap1\n      pop\n        /* \"contracts/testContract.sol\":4198:4596  function getCurrentState() public view returns(State){\r... */\n    tag_204:\n      swap1\n      jump\t// out\n        /* \"contracts/testContract.sol\":5666:5859  function burn() public returns(bool){\r... */\n    tag_87:\n        /* \"contracts/testContract.sol\":5697:5701  bool */\n      0x00\n        /* \"contracts/testContract.sol\":5724:5741  getCurrentState() */\n      tag_217\n        /* \"contracts/testContract.sol\":5724:5739  getCurrentState */\n      tag_82\n        /* \"contracts/testContract.sol\":5724:5741  getCurrentState() */\n      jump\t// in\n    tag_217:\n        /* \"contracts/testContract.sol\":5713:5721  icoState */\n      0x11\n      0x00\n        /* \"contracts/testContract.sol\":5713:5741  icoState = getCurrentState() */\n      0x0100\n      exp\n      dup2\n      sload\n      dup2\n      0xff\n      mul\n      not\n      and\n      swap1\n      dup4\n      0x03\n      dup2\n      gt\n      iszero\n      tag_218\n      jumpi\n      tag_219\n      tag_165\n      jump\t// in\n    tag_219:\n    tag_218:\n      mul\n      or\n      swap1\n      sstore\n      pop\n        /* \"contracts/testContract.sol\":5772:5786  State.afterEnd */\n      0x02\n        /* \"contracts/testContract.sol\":5760:5786  icoState == State.afterEnd */\n      0x03\n      dup2\n      gt\n      iszero\n      tag_220\n      jumpi\n      tag_221\n      tag_165\n      jump\t// in\n    tag_221:\n    tag_220:\n        /* \"contracts/testContract.sol\":5760:5768  icoState */\n      0x11\n      0x00\n      swap1\n      sload\n      swap1\n      0x0100\n      exp\n      swap1\n      div\n      0xff\n      and\n        /* \"contracts/testContract.sol\":5760:5786  icoState == State.afterEnd */\n      0x03\n      dup2\n      gt\n      iszero\n      tag_222\n      jumpi\n      tag_223\n      tag_165\n      jump\t// in\n    tag_223:\n    tag_222:\n      eq\n        /* \"contracts/testContract.sol\":5752:5787  require(icoState == State.afterEnd) */\n      tag_224\n      jumpi\n      0x00\n      dup1\n      revert\n    tag_224:\n        /* \"contracts/testContract.sol\":5818:5819  0 */\n      0x00\n        /* \"contracts/testContract.sol\":5798:5806  balances */\n      0x05\n        /* \"contracts/testContract.sol\":5798:5815  balances[founder] */\n      0x00\n        /* \"contracts/testContract.sol\":5807:5814  founder */\n      0x04\n      0x00\n      swap1\n      sload\n      swap1\n      0x0100\n      exp\n      swap1\n      div\n      0xffffffffffffffffffffffffffffffffffffffff\n      and\n        /* \"contracts/testContract.sol\":5798:5815  balances[founder] */\n      0xffffffffffffffffffffffffffffffffffffffff\n      and\n      0xffffffffffffffffffffffffffffffffffffffff\n      and\n      dup2\n      mstore\n      0x20\n      add\n      swap1\n      dup2\n      mstore\n      0x20\n      add\n      0x00\n      keccak256\n        /* \"contracts/testContract.sol\":5798:5819  balances[founder] = 0 */\n      dup2\n      swap1\n      sstore\n      pop\n        /* \"contracts/testContract.sol\":5837:5841  true */\n      0x01\n        /* \"contracts/testContract.sol\":5830:5841  return true */\n      swap1\n      pop\n        /* \"contracts/testContract.sol\":5666:5859  function burn() public returns(bool){\r... */\n      swap1\n      jump\t// out\n        /* \"contracts/testContract.sol\":3568:3589  State public icoState */\n    tag_91:\n      0x11\n      0x00\n      swap1\n      sload\n      swap1\n      0x0100\n      exp\n      swap1\n      div\n      0xff\n      and\n      dup2\n      jump\t// out\n        /* \"contracts/testContract.sol\":1211:1233  address public founder */\n    tag_95:\n      0x04\n      0x00\n      swap1\n      sload\n      swap1\n      0x0100\n      exp\n      swap1\n      div\n      0xffffffffffffffffffffffffffffffffffffffff\n      and\n      dup2\n      jump\t// out\n        /* \"contracts/testContract.sol\":3880:3954  function halt() public onlyAdmin{\r... */\n    tag_100:\n        /* \"contracts/testContract.sol\":3813:3818  admin */\n      0x07\n      0x00\n      swap1\n      sload\n      swap1\n      0x0100\n      exp\n      swap1\n      div\n      0xffffffffffffffffffffffffffffffffffffffff\n      and\n        /* \"contracts/testContract.sol\":3799:3818  msg.sender == admin */\n      0xffffffffffffffffffffffffffffffffffffffff\n      and\n        /* \"contracts/testContract.sol\":3799:3809  msg.sender */\n      caller\n        /* \"contracts/testContract.sol\":3799:3818  msg.sender == admin */\n      0xffffffffffffffffffffffffffffffffffffffff\n      and\n      eq\n        /* \"contracts/testContract.sol\":3791:3819  require(msg.sender == admin) */\n      tag_226\n      jumpi\n      0x00\n      dup1\n      revert\n    tag_226:\n        /* \"contracts/testContract.sol\":3934:3946  State.halted */\n      0x03\n        /* \"contracts/testContract.sol\":3923:3931  icoState */\n      0x11\n      0x00\n        /* \"contracts/testContract.sol\":3923:3946  icoState = State.halted */\n      0x0100\n      exp\n      dup2\n      sload\n      dup2\n      0xff\n      mul\n      not\n      and\n      swap1\n      dup4\n      0x03\n      dup2\n      gt\n      iszero\n      tag_228\n      jumpi\n      tag_229\n      tag_165\n      jump\t// in\n    tag_229:\n    tag_228:\n      mul\n      or\n      swap1\n      sstore\n      pop\n        /* \"contracts/testContract.sol\":3880:3954  function halt() public onlyAdmin{\r... */\n      jump\t// out\n        /* \"contracts/testContract.sol\":4067:4180  function changeDepositAddress(address payable newDeposit) public onlyAdmin{\r... */\n    tag_105:\n        /* \"contracts/testContract.sol\":3813:3818  admin */\n      0x07\n      0x00\n      swap1\n      sload\n      swap1\n      0x0100\n      exp\n      swap1\n      div\n      0xffffffffffffffffffffffffffffffffffffffff\n      and\n        /* \"contracts/testContract.sol\":3799:3818  msg.sender == admin */\n      0xffffffffffffffffffffffffffffffffffffffff\n      and\n        /* \"contracts/testContract.sol\":3799:3809  msg.sender */\n      caller\n        /* \"contracts/testContract.sol\":3799:3818  msg.sender == admin */\n      0xffffffffffffffffffffffffffffffffffffffff\n      and\n      eq\n        /* \"contracts/testContract.sol\":3791:3819  require(msg.sender == admin) */\n      tag_231\n      jumpi\n      0x00\n      dup1\n      revert\n    tag_231:\n        /* \"contracts/testContract.sol\":4162:4172  newDeposit */\n      dup1\n        /* \"contracts/testContract.sol\":4152:4159  deposit */\n      0x08\n      0x00\n        /* \"contracts/testContract.sol\":4152:4172  deposit = newDeposit */\n      0x0100\n      exp\n      dup2\n      sload\n      dup2\n      0xffffffffffffffffffffffffffffffffffffffff\n      mul\n      not\n      and\n      swap1\n      dup4\n      0xffffffffffffffffffffffffffffffffffffffff\n      and\n      mul\n      or\n      swap1\n      sstore\n      pop\n        /* \"contracts/testContract.sol\":4067:4180  function changeDepositAddress(address payable newDeposit) public onlyAdmin{\r... */\n      pop\n      jump\t// out\n        /* \"contracts/testContract.sol\":1580:1708  function balanceOf(address tokenOwner) public view override returns (uint balance){\r... */\n    tag_109:\n        /* \"contracts/testContract.sol\":1649:1661  uint balance */\n      0x00\n        /* \"contracts/testContract.sol\":1680:1688  balances */\n      0x05\n        /* \"contracts/testContract.sol\":1680:1700  balances[tokenOwner] */\n      0x00\n        /* \"contracts/testContract.sol\":1689:1699  tokenOwner */\n      dup4\n        /* \"contracts/testContract.sol\":1680:1700  balances[tokenOwner] */\n      0xffffffffffffffffffffffffffffffffffffffff\n      and\n      0xffffffffffffffffffffffffffffffffffffffff\n      and\n      dup2\n      mstore\n      0x20\n      add\n      swap1\n      dup2\n      mstore\n      0x20\n      add\n      0x00\n      keccak256\n      sload\n        /* \"contracts/testContract.sol\":1673:1700  return balances[tokenOwner] */\n      swap1\n      pop\n        /* \"contracts/testContract.sol\":1580:1708  function balanceOf(address tokenOwner) public view override returns (uint balance){\r... */\n      swap2\n      swap1\n      pop\n      jump\t// out\n        /* \"contracts/testContract.sol\":3445:3482  uint public minInvestment = 0.1 ether */\n    tag_113:\n      sload(0x10)\n      dup2\n      jump\t// out\n        /* \"contracts/testContract.sol\":1099:1128  string public symbol = \"CRPT\" */\n    tag_117:\n      0x01\n      dup1\n      sload\n      tag_234\n      swap1\n      tag_191\n      jump\t// in\n    tag_234:\n      dup1\n      0x1f\n      add\n      0x20\n      dup1\n      swap2\n      div\n      mul\n      0x20\n      add\n      mload(0x40)\n      swap1\n      dup2\n      add\n      0x40\n      mstore\n      dup1\n      swap3\n      swap2\n      swap1\n      dup2\n      dup2\n      mstore\n      0x20\n      add\n      dup3\n      dup1\n      sload\n      tag_235\n      swap1\n      tag_191\n      jump\t// in\n    tag_235:\n      dup1\n      iszero\n      tag_236\n      jumpi\n      dup1\n      0x1f\n      lt\n      tag_237\n      jumpi\n      0x0100\n      dup1\n      dup4\n      sload\n      div\n      mul\n      dup4\n      mstore\n      swap2\n      0x20\n      add\n      swap2\n      jump(tag_236)\n    tag_237:\n      dup3\n      add\n      swap2\n      swap1\n      0x00\n      mstore\n      keccak256(0x00, 0x20)\n      swap1\n    tag_238:\n      dup2\n      sload\n      dup2\n      mstore\n      swap1\n      0x01\n      add\n      swap1\n      0x20\n      add\n      dup1\n      dup4\n      gt\n      tag_238\n      jumpi\n      dup3\n      swap1\n      sub\n      0x1f\n      and\n      dup3\n      add\n      swap2\n    tag_236:\n      pop\n      pop\n      pop\n      pop\n      pop\n      dup2\n      jump\t// out\n        /* \"contracts/testContract.sol\":5877:6254  function transfer(address to, uint tokens) public override returns (bool success){\r... */\n    tag_122:\n        /* \"contracts/testContract.sol\":5945:5957  bool success */\n      0x00\n        /* \"contracts/testContract.sol\":5995:6010  tokenTradeStart */\n      sload(0x0e)\n        /* \"contracts/testContract.sol\":5977:5992  block.timestamp */\n      timestamp\n        /* \"contracts/testContract.sol\":5977:6010  block.timestamp > tokenTradeStart */\n      gt\n        /* \"contracts/testContract.sol\":5969:6011  require(block.timestamp > tokenTradeStart) */\n      tag_240\n      jumpi\n      0x00\n      dup1\n      revert\n    tag_240:\n        /* \"contracts/testContract.sol\":6156:6182  super.transfer(to, tokens) */\n      tag_241\n        /* \"contracts/testContract.sol\":6171:6173  to */\n      dup4\n        /* \"contracts/testContract.sol\":6175:6181  tokens */\n      dup4\n        /* \"contracts/testContract.sol\":6156:6170  super.transfer */\n      tag_242\n        /* \"contracts/testContract.sol\":6156:6182  super.transfer(to, tokens) */\n      jump\t// in\n    tag_241:\n      pop\n        /* \"contracts/testContract.sol\":6242:6246  true */\n      0x01\n        /* \"contracts/testContract.sol\":6235:6246  return true */\n      swap1\n      pop\n        /* \"contracts/testContract.sol\":5877:6254  function transfer(address to, uint tokens) public override returns (bool success){\r... */\n      swap3\n      swap2\n      pop\n      pop\n      jump\t// out\n        /* \"contracts/testContract.sol\":3195:3234  uint public saleStart = block.timestamp */\n    tag_126:\n      sload(0x0c)\n      dup2\n      jump\t// out\n        /* \"contracts/testContract.sol\":3241:3287  uint public saleEnd = block.timestamp + 604800 */\n    tag_130:\n      sload(0x0d)\n      dup2\n      jump\t// out\n        /* \"contracts/testContract.sol\":3135:3159  uint public raisedAmount */\n    tag_134:\n      sload(0x0b)\n      dup2\n      jump\t// out\n        /* \"contracts/testContract.sol\":3311:3357  uint public tokenTradeStart = saleEnd + 604800 */\n    tag_138:\n      sload(0x0e)\n      dup2\n      jump\t// out\n        /* \"contracts/testContract.sol\":2986:3016  address payable public deposit */\n    tag_142:\n      0x08\n      0x00\n      swap1\n      sload\n      swap1\n      0x0100\n      exp\n      swap1\n      div\n      0xffffffffffffffffffffffffffffffffffffffff\n      and\n      dup2\n      jump\t// out\n        /* \"contracts/testContract.sol\":2054:2198  function allowance(address tokenOwner, address spender) public view override returns(uint){\r... */\n    tag_149:\n        /* \"contracts/testContract.sol\":2139:2143  uint */\n      0x00\n        /* \"contracts/testContract.sol\":2162:2169  allowed */\n      0x06\n        /* \"contracts/testContract.sol\":2162:2181  allowed[tokenOwner] */\n      0x00\n        /* \"contracts/testContract.sol\":2170:2180  tokenOwner */\n      dup5\n        /* \"contracts/testContract.sol\":2162:2181  allowed[tokenOwner] */\n      0xffffffffffffffffffffffffffffffffffffffff\n      and\n      0xffffffffffffffffffffffffffffffffffffffff\n      and\n      dup2\n      mstore\n      0x20\n      add\n      swap1\n      dup2\n      mstore\n      0x20\n      add\n      0x00\n      keccak256\n        /* \"contracts/testContract.sol\":2162:2190  allowed[tokenOwner][spender] */\n      0x00\n        /* \"contracts/testContract.sol\":2182:2189  spender */\n      dup4\n        /* \"contracts/testContract.sol\":2162:2190  allowed[tokenOwner][spender] */\n      0xffffffffffffffffffffffffffffffffffffffff\n      and\n      0xffffffffffffffffffffffffffffffffffffffff\n      and\n      dup2\n      mstore\n      0x20\n      add\n      swap1\n      dup2\n      mstore\n      0x20\n      add\n      0x00\n      keccak256\n      sload\n        /* \"contracts/testContract.sol\":2155:2190  return allowed[tokenOwner][spender] */\n      swap1\n      pop\n        /* \"contracts/testContract.sol\":2054:2198  function allowance(address tokenOwner, address spender) public view override returns(uint){\r... */\n      swap3\n      swap2\n      pop\n      pop\n      jump\t// out\n        /* \"contracts/testContract.sol\":2959:2979  address public admin */\n    tag_155:\n      0x07\n      0x00\n      swap1\n      sload\n      swap1\n      0x0100\n      exp\n      swap1\n      div\n      0xffffffffffffffffffffffffffffffffffffffff\n      and\n      dup2\n      jump\t// out\n        /* \"contracts/testContract.sol\":3097:3128  uint public hardCap = 300 ether */\n    tag_159:\n      sload(0x0a)\n      dup2\n      jump\t// out\n        /* \"contracts/testContract.sol\":2550:2913  function transferFrom(address from, address to, uint tokens) public virtual override returns (bool success){\r... */\n    tag_203:\n        /* \"contracts/testContract.sol\":2644:2656  bool success */\n      0x00\n        /* \"contracts/testContract.sol\":2698:2704  tokens */\n      dup2\n        /* \"contracts/testContract.sol\":2677:2684  allowed */\n      0x06\n        /* \"contracts/testContract.sol\":2677:2690  allowed[from] */\n      0x00\n        /* \"contracts/testContract.sol\":2685:2689  from */\n      dup7\n        /* \"contracts/testContract.sol\":2677:2690  allowed[from] */\n      0xffffffffffffffffffffffffffffffffffffffff\n      and\n      0xffffffffffffffffffffffffffffffffffffffff\n      and\n      dup2\n      mstore\n      0x20\n      add\n      swap1\n      dup2\n      mstore\n      0x20\n      add\n      0x00\n      keccak256\n        /* \"contracts/testContract.sol\":2677:2694  allowed[from][to] */\n      0x00\n        /* \"contracts/testContract.sol\":2691:2693  to */\n      dup6\n        /* \"contracts/testContract.sol\":2677:2694  allowed[from][to] */\n      0xffffffffffffffffffffffffffffffffffffffff\n      and\n      0xffffffffffffffffffffffffffffffffffffffff\n      and\n      dup2\n      mstore\n      0x20\n      add\n      swap1\n      dup2\n      mstore\n      0x20\n      add\n      0x00\n      keccak256\n      sload\n        /* \"contracts/testContract.sol\":2677:2704  allowed[from][to] >= tokens */\n      lt\n      iszero\n        /* \"contracts/testContract.sol\":2669:2705  require(allowed[from][to] >= tokens) */\n      tag_245\n      jumpi\n      0x00\n      dup1\n      revert\n    tag_245:\n        /* \"contracts/testContract.sol\":2743:2749  tokens */\n      dup2\n        /* \"contracts/testContract.sol\":2725:2733  balances */\n      0x05\n        /* \"contracts/testContract.sol\":2725:2739  balances[from] */\n      0x00\n        /* \"contracts/testContract.sol\":2734:2738  from */\n      dup7\n        /* \"contracts/testContract.sol\":2725:2739  balances[from] */\n      0xffffffffffffffffffffffffffffffffffffffff\n      and\n      0xffffffffffffffffffffffffffffffffffffffff\n      and\n      dup2\n      mstore\n      0x20\n      add\n      swap1\n      dup2\n      mstore\n      0x20\n      add\n      0x00\n      keccak256\n      sload\n        /* \"contracts/testContract.sol\":2725:2749  balances[from] >= tokens */\n      lt\n      iszero\n        /* \"contracts/testContract.sol\":2717:2750  require(balances[from] >= tokens) */\n      tag_246\n      jumpi\n      0x00\n      dup1\n      revert\n    tag_246:\n        /* \"contracts/testContract.sol\":2791:2797  tokens */\n      dup2\n        /* \"contracts/testContract.sol\":2773:2781  balances */\n      0x05\n        /* \"contracts/testContract.sol\":2773:2787  balances[from] */\n      0x00\n        /* \"contracts/testContract.sol\":2782:2786  from */\n      dup7\n        /* \"contracts/testContract.sol\":2773:2787  balances[from] */\n      0xffffffffffffffffffffffffffffffffffffffff\n      and\n      0xffffffffffffffffffffffffffffffffffffffff\n      and\n      dup2\n      mstore\n      0x20\n      add\n      swap1\n      dup2\n      mstore\n      0x20\n      add\n      0x00\n      keccak256\n      0x00\n        /* \"contracts/testContract.sol\":2773:2797  balances[from] -= tokens */\n      dup3\n      dup3\n      sload\n      tag_247\n      swap2\n      swap1\n      tag_180\n      jump\t// in\n    tag_247:\n      swap3\n      pop\n      pop\n      dup2\n      swap1\n      sstore\n      pop\n        /* \"contracts/testContract.sol\":2825:2831  tokens */\n      dup2\n        /* \"contracts/testContract.sol\":2809:2817  balances */\n      0x05\n        /* \"contracts/testContract.sol\":2809:2821  balances[to] */\n      0x00\n        /* \"contracts/testContract.sol\":2818:2820  to */\n      dup6\n        /* \"contracts/testContract.sol\":2809:2821  balances[to] */\n      0xffffffffffffffffffffffffffffffffffffffff\n      and\n      0xffffffffffffffffffffffffffffffffffffffff\n      and\n      dup2\n      mstore\n      0x20\n      add\n      swap1\n      dup2\n      mstore\n      0x20\n      add\n      0x00\n      keccak256\n      0x00\n        /* \"contracts/testContract.sol\":2809:2831  balances[to] += tokens */\n      dup3\n      dup3\n      sload\n      tag_248\n      swap2\n      swap1\n      tag_174\n      jump\t// in\n    tag_248:\n      swap3\n      pop\n      pop\n      dup2\n      swap1\n      sstore\n      pop\n        /* \"contracts/testContract.sol\":2864:2870  tokens */\n      dup2\n        /* \"contracts/testContract.sol\":2843:2850  allowed */\n      0x06\n        /* \"contracts/testContract.sol\":2843:2856  allowed[from] */\n      0x00\n        /* \"contracts/testContract.sol\":2851:2855  from */\n      dup7\n        /* \"contracts/testContract.sol\":2843:2856  allowed[from] */\n      0xffffffffffffffffffffffffffffffffffffffff\n      and\n      0xffffffffffffffffffffffffffffffffffffffff\n      and\n      dup2\n      mstore\n      0x20\n      add\n      swap1\n      dup2\n      mstore\n      0x20\n      add\n      0x00\n      keccak256\n        /* \"contracts/testContract.sol\":2843:2860  allowed[from][to] */\n      0x00\n        /* \"contracts/testContract.sol\":2857:2859  to */\n      dup6\n        /* \"contracts/testContract.sol\":2843:2860  allowed[from][to] */\n      0xffffffffffffffffffffffffffffffffffffffff\n      and\n      0xffffffffffffffffffffffffffffffffffffffff\n      and\n      dup2\n      mstore\n      0x20\n      add\n      swap1\n      dup2\n      mstore\n      0x20\n      add\n      0x00\n      keccak256\n      0x00\n        /* \"contracts/testContract.sol\":2843:2870  allowed[from][to] -= tokens */\n      dup3\n      dup3\n      sload\n      tag_249\n      swap2\n      swap1\n      tag_180\n      jump\t// in\n    tag_249:\n      swap3\n      pop\n      pop\n      dup2\n      swap1\n      sstore\n      pop\n        /* \"contracts/testContract.sol\":2900:2904  true */\n      0x01\n        /* \"contracts/testContract.sol\":2893:2904  return true */\n      swap1\n      pop\n        /* \"contracts/testContract.sol\":2550:2913  function transferFrom(address from, address to, uint tokens) public virtual override returns (bool success){\r... */\n      swap4\n      swap3\n      pop\n      pop\n      pop\n      jump\t// out\n        /* \"contracts/testContract.sol\":1726:2036  function transfer(address to, uint tokens) public virtual override returns(bool success){\r... */\n    tag_242:\n        /* \"contracts/testContract.sol\":1801:1813  bool success */\n      0x00\n        /* \"contracts/testContract.sol\":1857:1863  tokens */\n      dup2\n        /* \"contracts/testContract.sol\":1833:1841  balances */\n      0x05\n        /* \"contracts/testContract.sol\":1833:1853  balances[msg.sender] */\n      0x00\n        /* \"contracts/testContract.sol\":1842:1852  msg.sender */\n      caller\n        /* \"contracts/testContract.sol\":1833:1853  balances[msg.sender] */\n      0xffffffffffffffffffffffffffffffffffffffff\n      and\n      0xffffffffffffffffffffffffffffffffffffffff\n      and\n      dup2\n      mstore\n      0x20\n      add\n      swap1\n      dup2\n      mstore\n      0x20\n      add\n      0x00\n      keccak256\n      sload\n        /* \"contracts/testContract.sol\":1833:1863  balances[msg.sender] >= tokens */\n      lt\n      iszero\n        /* \"contracts/testContract.sol\":1825:1864  require(balances[msg.sender] >= tokens) */\n      tag_251\n      jumpi\n      0x00\n      dup1\n      revert\n    tag_251:\n        /* \"contracts/testContract.sol\":1901:1907  tokens */\n      dup2\n        /* \"contracts/testContract.sol\":1885:1893  balances */\n      0x05\n        /* \"contracts/testContract.sol\":1885:1897  balances[to] */\n      0x00\n        /* \"contracts/testContract.sol\":1894:1896  to */\n      dup6\n        /* \"contracts/testContract.sol\":1885:1897  balances[to] */\n      0xffffffffffffffffffffffffffffffffffffffff\n      and\n      0xffffffffffffffffffffffffffffffffffffffff\n      and\n      dup2\n      mstore\n      0x20\n      add\n      swap1\n      dup2\n      mstore\n      0x20\n      add\n      0x00\n      keccak256\n      0x00\n        /* \"contracts/testContract.sol\":1885:1907  balances[to] += tokens */\n      dup3\n      dup3\n      sload\n      tag_252\n      swap2\n      swap1\n      tag_174\n      jump\t// in\n    tag_252:\n      swap3\n      pop\n      pop\n      dup2\n      swap1\n      sstore\n      pop\n        /* \"contracts/testContract.sol\":1942:1948  tokens */\n      dup2\n        /* \"contracts/testContract.sol\":1918:1926  balances */\n      0x05\n        /* \"contracts/testContract.sol\":1918:1938  balances[msg.sender] */\n      0x00\n        /* \"contracts/testContract.sol\":1927:1937  msg.sender */\n      caller\n        /* \"contracts/testContract.sol\":1918:1938  balances[msg.sender] */\n      0xffffffffffffffffffffffffffffffffffffffff\n      and\n      0xffffffffffffffffffffffffffffffffffffffff\n      and\n      dup2\n      mstore\n      0x20\n      add\n      swap1\n      dup2\n      mstore\n      0x20\n      add\n      0x00\n      keccak256\n      0x00\n        /* \"contracts/testContract.sol\":1918:1948  balances[msg.sender] -= tokens */\n      dup3\n      dup3\n      sload\n      tag_253\n      swap2\n      swap1\n      tag_180\n      jump\t// in\n    tag_253:\n      swap3\n      pop\n      pop\n      dup2\n      swap1\n      sstore\n      pop\n        /* \"contracts/testContract.sol\":1985:1987  to */\n      dup3\n        /* \"contracts/testContract.sol\":1964:1996  Transfer(msg.sender, to, tokens) */\n      0xffffffffffffffffffffffffffffffffffffffff\n      and\n        /* \"contracts/testContract.sol\":1973:1983  msg.sender */\n      caller\n        /* \"contracts/testContract.sol\":1964:1996  Transfer(msg.sender, to, tokens) */\n      0xffffffffffffffffffffffffffffffffffffffff\n      and\n      0xddf252ad1be2c89b69c2b068fc378daa952ba7f163c4a11628f55a4df523b3ef\n        /* \"contracts/testContract.sol\":1989:1995  tokens */\n      dup5\n        /* \"contracts/testContract.sol\":1964:1996  Transfer(msg.sender, to, tokens) */\n      mload(0x40)\n      tag_254\n      swap2\n      swap1\n      tag_44\n      jump\t// in\n    tag_254:\n      mload(0x40)\n      dup1\n      swap2\n      sub\n      swap1\n      log3\n        /* \"contracts/testContract.sol\":2024:2028  true */\n      0x01\n        /* \"contracts/testContract.sol\":2017:2028  return true */\n      swap1\n      pop\n        /* \"contracts/testContract.sol\":1726:2036  function transfer(address to, uint tokens) public virtual override returns(bool success){\r... */\n      swap3\n      swap2\n      pop\n      pop\n      jump\t// out\n        /* \"#utility.yul\":7:146   */\n    tag_256:\n        /* \"#utility.yul\":53:58   */\n      0x00\n        /* \"#utility.yul\":91:97   */\n      dup2\n        /* \"#utility.yul\":78:98   */\n      calldataload\n        /* \"#utility.yul\":69:98   */\n      swap1\n      pop\n        /* \"#utility.yul\":107:140   */\n      tag_258\n        /* \"#utility.yul\":134:139   */\n      dup2\n        /* \"#utility.yul\":107:140   */\n      tag_259\n      jump\t// in\n    tag_258:\n        /* \"#utility.yul\":7:146   */\n      swap3\n      swap2\n      pop\n      pop\n      jump\t// out\n        /* \"#utility.yul\":152:307   */\n    tag_260:\n        /* \"#utility.yul\":206:211   */\n      0x00\n        /* \"#utility.yul\":244:250   */\n      dup2\n        /* \"#utility.yul\":231:251   */\n      calldataload\n        /* \"#utility.yul\":222:251   */\n      swap1\n      pop\n        /* \"#utility.yul\":260:301   */\n      tag_262\n        /* \"#utility.yul\":295:300   */\n      dup2\n        /* \"#utility.yul\":260:301   */\n      tag_263\n      jump\t// in\n    tag_262:\n        /* \"#utility.yul\":152:307   */\n      swap3\n      swap2\n      pop\n      pop\n      jump\t// out\n        /* \"#utility.yul\":313:452   */\n    tag_264:\n        /* \"#utility.yul\":359:364   */\n      0x00\n        /* \"#utility.yul\":397:403   */\n      dup2\n        /* \"#utility.yul\":384:404   */\n      calldataload\n        /* \"#utility.yul\":375:404   */\n      swap1\n      pop\n        /* \"#utility.yul\":413:446   */\n      tag_266\n        /* \"#utility.yul\":440:445   */\n      dup2\n        /* \"#utility.yul\":413:446   */\n      tag_267\n      jump\t// in\n    tag_266:\n        /* \"#utility.yul\":313:452   */\n      swap3\n      swap2\n      pop\n      pop\n      jump\t// out\n        /* \"#utility.yul\":458:787   */\n    tag_73:\n        /* \"#utility.yul\":517:523   */\n      0x00\n        /* \"#utility.yul\":566:568   */\n      0x20\n        /* \"#utility.yul\":554:563   */\n      dup3\n        /* \"#utility.yul\":545:552   */\n      dup5\n        /* \"#utility.yul\":541:564   */\n      sub\n        /* \"#utility.yul\":537:569   */\n      slt\n        /* \"#utility.yul\":534:653   */\n      iszero\n      tag_269\n      jumpi\n        /* \"#utility.yul\":572:651   */\n      tag_270\n      tag_271\n      jump\t// in\n    tag_270:\n        /* \"#utility.yul\":534:653   */\n    tag_269:\n        /* \"#utility.yul\":692:693   */\n      0x00\n        /* \"#utility.yul\":717:770   */\n      tag_272\n        /* \"#utility.yul\":762:769   */\n      dup5\n        /* \"#utility.yul\":753:759   */\n      dup3\n        /* \"#utility.yul\":742:751   */\n      dup6\n        /* \"#utility.yul\":738:760   */\n      add\n        /* \"#utility.yul\":717:770   */\n      tag_256\n      jump\t// in\n    tag_272:\n        /* \"#utility.yul\":707:770   */\n      swap2\n      pop\n        /* \"#utility.yul\":663:780   */\n      pop\n        /* \"#utility.yul\":458:787   */\n      swap3\n      swap2\n      pop\n      pop\n      jump\t// out\n        /* \"#utility.yul\":793:1138   */\n    tag_104:\n        /* \"#utility.yul\":860:866   */\n      0x00\n        /* \"#utility.yul\":909:911   */\n      0x20\n        /* \"#utility.yul\":897:906   */\n      dup3\n        /* \"#utility.yul\":888:895   */\n      dup5\n        /* \"#utility.yul\":884:907   */\n      sub\n        /* \"#utility.yul\":880:912   */\n      slt\n        /* \"#utility.yul\":877:996   */\n      iszero\n      tag_274\n      jumpi\n        /* \"#utility.yul\":915:994   */\n      tag_275\n      tag_271\n      jump\t// in\n    tag_275:\n        /* \"#utility.yul\":877:996   */\n    tag_274:\n        /* \"#utility.yul\":1035:1036   */\n      0x00\n        /* \"#utility.yul\":1060:1121   */\n      tag_276\n        /* \"#utility.yul\":1113:1120   */\n      dup5\n        /* \"#utility.yul\":1104:1110   */\n      dup3\n        /* \"#utility.yul\":1093:1102   */\n      dup6\n        /* \"#utility.yul\":1089:1111   */\n      add\n        /* \"#utility.yul\":1060:1121   */\n      tag_260\n      jump\t// in\n    tag_276:\n        /* \"#utility.yul\":1050:1121   */\n      swap2\n      pop\n        /* \"#utility.yul\":1006:1131   */\n      pop\n        /* \"#utility.yul\":793:1138   */\n      swap3\n      swap2\n      pop\n      pop\n      jump\t// out\n        /* \"#utility.yul\":1144:1618   */\n    tag_148:\n        /* \"#utility.yul\":1212:1218   */\n      0x00\n        /* \"#utility.yul\":1220:1226   */\n      dup1\n        /* \"#utility.yul\":1269:1271   */\n      0x40\n        /* \"#utility.yul\":1257:1266   */\n      dup4\n        /* \"#utility.yul\":1248:1255   */\n      dup6\n        /* \"#utility.yul\":1244:1267   */\n      sub\n        /* \"#utility.yul\":1240:1272   */\n      slt\n        /* \"#utility.yul\":1237:1356   */\n      iszero\n      tag_278\n      jumpi\n        /* \"#utility.yul\":1275:1354   */\n      tag_279\n      tag_271\n      jump\t// in\n    tag_279:\n        /* \"#utility.yul\":1237:1356   */\n    tag_278:\n        /* \"#utility.yul\":1395:1396   */\n      0x00\n        /* \"#utility.yul\":1420:1473   */\n      tag_280\n        /* \"#utility.yul\":1465:1472   */\n      dup6\n        /* \"#utility.yul\":1456:1462   */\n      dup3\n        /* \"#utility.yul\":1445:1454   */\n      dup7\n        /* \"#utility.yul\":1441:1463   */\n      add\n        /* \"#utility.yul\":1420:1473   */\n      tag_256\n      jump\t// in\n    tag_280:\n        /* \"#utility.yul\":1410:1473   */\n      swap3\n      pop\n        /* \"#utility.yul\":1366:1483   */\n      pop\n        /* \"#utility.yul\":1522:1524   */\n      0x20\n        /* \"#utility.yul\":1548:1601   */\n      tag_281\n        /* \"#utility.yul\":1593:1600   */\n      dup6\n        /* \"#utility.yul\":1584:1590   */\n      dup3\n        /* \"#utility.yul\":1573:1582   */\n      dup7\n        /* \"#utility.yul\":1569:1591   */\n      add\n        /* \"#utility.yul\":1548:1601   */\n      tag_256\n      jump\t// in\n    tag_281:\n        /* \"#utility.yul\":1538:1601   */\n      swap2\n      pop\n        /* \"#utility.yul\":1493:1611   */\n      pop\n        /* \"#utility.yul\":1144:1618   */\n      swap3\n      pop\n      swap3\n      swap1\n      pop\n      jump\t// out\n        /* \"#utility.yul\":1624:2243   */\n    tag_67:\n        /* \"#utility.yul\":1701:1707   */\n      0x00\n        /* \"#utility.yul\":1709:1715   */\n      dup1\n        /* \"#utility.yul\":1717:1723   */\n      0x00\n        /* \"#utility.yul\":1766:1768   */\n      0x60\n        /* \"#utility.yul\":1754:1763   */\n      dup5\n        /* \"#utility.yul\":1745:1752   */\n      dup7\n        /* \"#utility.yul\":1741:1764   */\n      sub\n        /* \"#utility.yul\":1737:1769   */\n      slt\n        /* \"#utility.yul\":1734:1853   */\n      iszero\n      tag_283\n      jumpi\n        /* \"#utility.yul\":1772:1851   */\n      tag_284\n      tag_271\n      jump\t// in\n    tag_284:\n        /* \"#utility.yul\":1734:1853   */\n    tag_283:\n        /* \"#utility.yul\":1892:1893   */\n      0x00\n        /* \"#utility.yul\":1917:1970   */\n      tag_285\n        /* \"#utility.yul\":1962:1969   */\n      dup7\n        /* \"#utility.yul\":1953:1959   */\n      dup3\n        /* \"#utility.yul\":1942:1951   */\n      dup8\n        /* \"#utility.yul\":1938:1960   */\n      add\n        /* \"#utility.yul\":1917:1970   */\n      tag_256\n      jump\t// in\n    tag_285:\n        /* \"#utility.yul\":1907:1970   */\n      swap4\n      pop\n        /* \"#utility.yul\":1863:1980   */\n      pop\n        /* \"#utility.yul\":2019:2021   */\n      0x20\n        /* \"#utility.yul\":2045:2098   */\n      tag_286\n        /* \"#utility.yul\":2090:2097   */\n      dup7\n        /* \"#utility.yul\":2081:2087   */\n      dup3\n        /* \"#utility.yul\":2070:2079   */\n      dup8\n        /* \"#utility.yul\":2066:2088   */\n      add\n        /* \"#utility.yul\":2045:2098   */\n      tag_256\n      jump\t// in\n    tag_286:\n        /* \"#utility.yul\":2035:2098   */\n      swap3\n      pop\n        /* \"#utility.yul\":1990:2108   */\n      pop\n        /* \"#utility.yul\":2147:2149   */\n      0x40\n        /* \"#utility.yul\":2173:2226   */\n      tag_287\n        /* \"#utility.yul\":2218:2225   */\n      dup7\n        /* \"#utility.yul\":2209:2215   */\n      dup3\n        /* \"#utility.yul\":2198:2207   */\n      dup8\n        /* \"#utility.yul\":2194:2216   */\n      add\n        /* \"#utility.yul\":2173:2226   */\n      tag_264\n      jump\t// in\n    tag_287:\n        /* \"#utility.yul\":2163:2226   */\n      swap2\n      pop\n        /* \"#utility.yul\":2118:2236   */\n      pop\n        /* \"#utility.yul\":1624:2243   */\n      swap3\n      pop\n      swap3\n      pop\n      swap3\n      jump\t// out\n        /* \"#utility.yul\":2249:2723   */\n    tag_56:\n        /* \"#utility.yul\":2317:2323   */\n      0x00\n        /* \"#utility.yul\":2325:2331   */\n      dup1\n        /* \"#utility.yul\":2374:2376   */\n      0x40\n        /* \"#utility.yul\":2362:2371   */\n      dup4\n        /* \"#utility.yul\":2353:2360   */\n      dup6\n        /* \"#utility.yul\":2349:2372   */\n      sub\n        /* \"#utility.yul\":2345:2377   */\n      slt\n        /* \"#utility.yul\":2342:2461   */\n      iszero\n      tag_289\n      jumpi\n        /* \"#utility.yul\":2380:2459   */\n      tag_290\n      tag_271\n      jump\t// in\n    tag_290:\n        /* \"#utility.yul\":2342:2461   */\n    tag_289:\n        /* \"#utility.yul\":2500:2501   */\n      0x00\n        /* \"#utility.yul\":2525:2578   */\n      tag_291\n        /* \"#utility.yul\":2570:2577   */\n      dup6\n        /* \"#utility.yul\":2561:2567   */\n      dup3\n        /* \"#utility.yul\":2550:2559   */\n      dup7\n        /* \"#utility.yul\":2546:2568   */\n      add\n        /* \"#utility.yul\":2525:2578   */\n      tag_256\n      jump\t// in\n    tag_291:\n        /* \"#utility.yul\":2515:2578   */\n      swap3\n      pop\n        /* \"#utility.yul\":2471:2588   */\n      pop\n        /* \"#utility.yul\":2627:2629   */\n      0x20\n        /* \"#utility.yul\":2653:2706   */\n      tag_292\n        /* \"#utility.yul\":2698:2705   */\n      dup6\n        /* \"#utility.yul\":2689:2695   */\n      dup3\n        /* \"#utility.yul\":2678:2687   */\n      dup7\n        /* \"#utility.yul\":2674:2696   */\n      add\n        /* \"#utility.yul\":2653:2706   */\n      tag_264\n      jump\t// in\n    tag_292:\n        /* \"#utility.yul\":2643:2706   */\n      swap2\n      pop\n        /* \"#utility.yul\":2598:2716   */\n      pop\n        /* \"#utility.yul\":2249:2723   */\n      swap3\n      pop\n      swap3\n      swap1\n      pop\n      jump\t// out\n        /* \"#utility.yul\":2729:2871   */\n    tag_293:\n        /* \"#utility.yul\":2832:2864   */\n      tag_295\n        /* \"#utility.yul\":2858:2863   */\n      dup2\n        /* \"#utility.yul\":2832:2864   */\n      tag_296\n      jump\t// in\n    tag_295:\n        /* \"#utility.yul\":2827:2830   */\n      dup3\n        /* \"#utility.yul\":2820:2865   */\n      mstore\n        /* \"#utility.yul\":2729:2871   */\n      pop\n      pop\n      jump\t// out\n        /* \"#utility.yul\":2877:2995   */\n    tag_297:\n        /* \"#utility.yul\":2964:2988   */\n      tag_299\n        /* \"#utility.yul\":2982:2987   */\n      dup2\n        /* \"#utility.yul\":2964:2988   */\n      tag_300\n      jump\t// in\n    tag_299:\n        /* \"#utility.yul\":2959:2962   */\n      dup3\n        /* \"#utility.yul\":2952:2989   */\n      mstore\n        /* \"#utility.yul\":2877:2995   */\n      pop\n      pop\n      jump\t// out\n        /* \"#utility.yul\":3001:3110   */\n    tag_301:\n        /* \"#utility.yul\":3082:3103   */\n      tag_303\n        /* \"#utility.yul\":3097:3102   */\n      dup2\n        /* \"#utility.yul\":3082:3103   */\n      tag_304\n      jump\t// in\n    tag_303:\n        /* \"#utility.yul\":3077:3080   */\n      dup3\n        /* \"#utility.yul\":3070:3104   */\n      mstore\n        /* \"#utility.yul\":3001:3110   */\n      pop\n      pop\n      jump\t// out\n        /* \"#utility.yul\":3116:3261   */\n    tag_305:\n        /* \"#utility.yul\":3210:3254   */\n      tag_307\n        /* \"#utility.yul\":3248:3253   */\n      dup2\n        /* \"#utility.yul\":3210:3254   */\n      tag_308\n      jump\t// in\n    tag_307:\n        /* \"#utility.yul\":3205:3208   */\n      dup3\n        /* \"#utility.yul\":3198:3255   */\n      mstore\n        /* \"#utility.yul\":3116:3261   */\n      pop\n      pop\n      jump\t// out\n        /* \"#utility.yul\":3267:3631   */\n    tag_309:\n        /* \"#utility.yul\":3355:3358   */\n      0x00\n        /* \"#utility.yul\":3383:3422   */\n      tag_311\n        /* \"#utility.yul\":3416:3421   */\n      dup3\n        /* \"#utility.yul\":3383:3422   */\n      tag_312\n      jump\t// in\n    tag_311:\n        /* \"#utility.yul\":3438:3509   */\n      tag_313\n        /* \"#utility.yul\":3502:3508   */\n      dup2\n        /* \"#utility.yul\":3497:3500   */\n      dup6\n        /* \"#utility.yul\":3438:3509   */\n      tag_314\n      jump\t// in\n    tag_313:\n        /* \"#utility.yul\":3431:3509   */\n      swap4\n      pop\n        /* \"#utility.yul\":3518:3570   */\n      tag_315\n        /* \"#utility.yul\":3563:3569   */\n      dup2\n        /* \"#utility.yul\":3558:3561   */\n      dup6\n        /* \"#utility.yul\":3551:3555   */\n      0x20\n        /* \"#utility.yul\":3544:3549   */\n      dup7\n        /* \"#utility.yul\":3540:3556   */\n      add\n        /* \"#utility.yul\":3518:3570   */\n      tag_316\n      jump\t// in\n    tag_315:\n        /* \"#utility.yul\":3595:3624   */\n      tag_317\n        /* \"#utility.yul\":3617:3623   */\n      dup2\n        /* \"#utility.yul\":3595:3624   */\n      tag_318\n      jump\t// in\n    tag_317:\n        /* \"#utility.yul\":3590:3593   */\n      dup5\n        /* \"#utility.yul\":3586:3625   */\n      add\n        /* \"#utility.yul\":3579:3625   */\n      swap2\n      pop\n        /* \"#utility.yul\":3359:3631   */\n      pop\n        /* \"#utility.yul\":3267:3631   */\n      swap3\n      swap2\n      pop\n      pop\n      jump\t// out\n        /* \"#utility.yul\":3637:3755   */\n    tag_319:\n        /* \"#utility.yul\":3724:3748   */\n      tag_321\n        /* \"#utility.yul\":3742:3747   */\n      dup2\n        /* \"#utility.yul\":3724:3748   */\n      tag_322\n      jump\t// in\n    tag_321:\n        /* \"#utility.yul\":3719:3722   */\n      dup3\n        /* \"#utility.yul\":3712:3749   */\n      mstore\n        /* \"#utility.yul\":3637:3755   */\n      pop\n      pop\n      jump\t// out\n        /* \"#utility.yul\":3761:3983   */\n    tag_97:\n        /* \"#utility.yul\":3854:3858   */\n      0x00\n        /* \"#utility.yul\":3892:3894   */\n      0x20\n        /* \"#utility.yul\":3881:3890   */\n      dup3\n        /* \"#utility.yul\":3877:3895   */\n      add\n        /* \"#utility.yul\":3869:3895   */\n      swap1\n      pop\n        /* \"#utility.yul\":3905:3976   */\n      tag_324\n        /* \"#utility.yul\":3973:3974   */\n      0x00\n        /* \"#utility.yul\":3962:3971   */\n      dup4\n        /* \"#utility.yul\":3958:3975   */\n      add\n        /* \"#utility.yul\":3949:3955   */\n      dup5\n        /* \"#utility.yul\":3905:3976   */\n      tag_297\n      jump\t// in\n    tag_324:\n        /* \"#utility.yul\":3761:3983   */\n      swap3\n      swap2\n      pop\n      pop\n      jump\t// out\n        /* \"#utility.yul\":3989:4243   */\n    tag_144:\n        /* \"#utility.yul\":4098:4102   */\n      0x00\n        /* \"#utility.yul\":4136:4138   */\n      0x20\n        /* \"#utility.yul\":4125:4134   */\n      dup3\n        /* \"#utility.yul\":4121:4139   */\n      add\n        /* \"#utility.yul\":4113:4139   */\n      swap1\n      pop\n        /* \"#utility.yul\":4149:4236   */\n      tag_326\n        /* \"#utility.yul\":4233:4234   */\n      0x00\n        /* \"#utility.yul\":4222:4231   */\n      dup4\n        /* \"#utility.yul\":4218:4235   */\n      add\n        /* \"#utility.yul\":4209:4215   */\n      dup5\n        /* \"#utility.yul\":4149:4236   */\n      tag_293\n      jump\t// in\n    tag_326:\n        /* \"#utility.yul\":3989:4243   */\n      swap3\n      swap2\n      pop\n      pop\n      jump\t// out\n        /* \"#utility.yul\":4249:4691   */\n    tag_184:\n        /* \"#utility.yul\":4398:4402   */\n      0x00\n        /* \"#utility.yul\":4436:4438   */\n      0x60\n        /* \"#utility.yul\":4425:4434   */\n      dup3\n        /* \"#utility.yul\":4421:4439   */\n      add\n        /* \"#utility.yul\":4413:4439   */\n      swap1\n      pop\n        /* \"#utility.yul\":4449:4520   */\n      tag_328\n        /* \"#utility.yul\":4517:4518   */\n      0x00\n        /* \"#utility.yul\":4506:4515   */\n      dup4\n        /* \"#utility.yul\":4502:4519   */\n      add\n        /* \"#utility.yul\":4493:4499   */\n      dup7\n        /* \"#utility.yul\":4449:4520   */\n      tag_297\n      jump\t// in\n    tag_328:\n        /* \"#utility.yul\":4530:4602   */\n      tag_329\n        /* \"#utility.yul\":4598:4600   */\n      0x20\n        /* \"#utility.yul\":4587:4596   */\n      dup4\n        /* \"#utility.yul\":4583:4601   */\n      add\n        /* \"#utility.yul\":4574:4580   */\n      dup6\n        /* \"#utility.yul\":4530:4602   */\n      tag_319\n      jump\t// in\n    tag_329:\n        /* \"#utility.yul\":4612:4684   */\n      tag_330\n        /* \"#utility.yul\":4680:4682   */\n      0x40\n        /* \"#utility.yul\":4669:4678   */\n      dup4\n        /* \"#utility.yul\":4665:4683   */\n      add\n        /* \"#utility.yul\":4656:4662   */\n      dup5\n        /* \"#utility.yul\":4612:4684   */\n      tag_319\n      jump\t// in\n    tag_330:\n        /* \"#utility.yul\":4249:4691   */\n      swap5\n      swap4\n      pop\n      pop\n      pop\n      pop\n      jump\t// out\n        /* \"#utility.yul\":4697:4907   */\n    tag_59:\n        /* \"#utility.yul\":4784:4788   */\n      0x00\n        /* \"#utility.yul\":4822:4824   */\n      0x20\n        /* \"#utility.yul\":4811:4820   */\n      dup3\n        /* \"#utility.yul\":4807:4825   */\n      add\n        /* \"#utility.yul\":4799:4825   */\n      swap1\n      pop\n        /* \"#utility.yul\":4835:4900   */\n      tag_332\n        /* \"#utility.yul\":4897:4898   */\n      0x00\n        /* \"#utility.yul\":4886:4895   */\n      dup4\n        /* \"#utility.yul\":4882:4899   */\n      add\n        /* \"#utility.yul\":4873:4879   */\n      dup5\n        /* \"#utility.yul\":4835:4900   */\n      tag_301\n      jump\t// in\n    tag_332:\n        /* \"#utility.yul\":4697:4907   */\n      swap3\n      swap2\n      pop\n      pop\n      jump\t// out\n        /* \"#utility.yul\":4913:5149   */\n    tag_84:\n        /* \"#utility.yul\":5013:5017   */\n      0x00\n        /* \"#utility.yul\":5051:5053   */\n      0x20\n        /* \"#utility.yul\":5040:5049   */\n      dup3\n        /* \"#utility.yul\":5036:5054   */\n      add\n        /* \"#utility.yul\":5028:5054   */\n      swap1\n      pop\n        /* \"#utility.yul\":5064:5142   */\n      tag_334\n        /* \"#utility.yul\":5139:5140   */\n      0x00\n        /* \"#utility.yul\":5128:5137   */\n      dup4\n        /* \"#utility.yul\":5124:5141   */\n      add\n        /* \"#utility.yul\":5115:5121   */\n      dup5\n        /* \"#utility.yul\":5064:5142   */\n      tag_305\n      jump\t// in\n    tag_334:\n        /* \"#utility.yul\":4913:5149   */\n      swap3\n      swap2\n      pop\n      pop\n      jump\t// out\n        /* \"#utility.yul\":5155:5468   */\n    tag_52:\n        /* \"#utility.yul\":5268:5272   */\n      0x00\n        /* \"#utility.yul\":5306:5308   */\n      0x20\n        /* \"#utility.yul\":5295:5304   */\n      dup3\n        /* \"#utility.yul\":5291:5309   */\n      add\n        /* \"#utility.yul\":5283:5309   */\n      swap1\n      pop\n        /* \"#utility.yul\":5355:5364   */\n      dup2\n        /* \"#utility.yul\":5349:5353   */\n      dup2\n        /* \"#utility.yul\":5345:5365   */\n      sub\n        /* \"#utility.yul\":5341:5342   */\n      0x00\n        /* \"#utility.yul\":5330:5339   */\n      dup4\n        /* \"#utility.yul\":5326:5343   */\n      add\n        /* \"#utility.yul\":5319:5366   */\n      mstore\n        /* \"#utility.yul\":5383:5461   */\n      tag_336\n        /* \"#utility.yul\":5456:5460   */\n      dup2\n        /* \"#utility.yul\":5447:5453   */\n      dup5\n        /* \"#utility.yul\":5383:5461   */\n      tag_309\n      jump\t// in\n    tag_336:\n        /* \"#utility.yul\":5375:5461   */\n      swap1\n      pop\n        /* \"#utility.yul\":5155:5468   */\n      swap3\n      swap2\n      pop\n      pop\n      jump\t// out\n        /* \"#utility.yul\":5474:5696   */\n    tag_44:\n        /* \"#utility.yul\":5567:5571   */\n      0x00\n        /* \"#utility.yul\":5605:5607   */\n      0x20\n        /* \"#utility.yul\":5594:5603   */\n      dup3\n        /* \"#utility.yul\":5590:5608   */\n      add\n        /* \"#utility.yul\":5582:5608   */\n      swap1\n      pop\n        /* \"#utility.yul\":5618:5689   */\n      tag_338\n        /* \"#utility.yul\":5686:5687   */\n      0x00\n        /* \"#utility.yul\":5675:5684   */\n      dup4\n        /* \"#utility.yul\":5671:5688   */\n      add\n        /* \"#utility.yul\":5662:5668   */\n      dup5\n        /* \"#utility.yul\":5618:5689   */\n      tag_319\n      jump\t// in\n    tag_338:\n        /* \"#utility.yul\":5474:5696   */\n      swap3\n      swap2\n      pop\n      pop\n      jump\t// out\n        /* \"#utility.yul\":5783:5882   */\n    tag_312:\n        /* \"#utility.yul\":5835:5841   */\n      0x00\n        /* \"#utility.yul\":5869:5874   */\n      dup2\n        /* \"#utility.yul\":5863:5875   */\n      mload\n        /* \"#utility.yul\":5853:5875   */\n      swap1\n      pop\n        /* \"#utility.yul\":5783:5882   */\n      swap2\n      swap1\n      pop\n      jump\t// out\n        /* \"#utility.yul\":5888:6057   */\n    tag_314:\n        /* \"#utility.yul\":5972:5983   */\n      0x00\n        /* \"#utility.yul\":6006:6012   */\n      dup3\n        /* \"#utility.yul\":6001:6004   */\n      dup3\n        /* \"#utility.yul\":5994:6013   */\n      mstore\n        /* \"#utility.yul\":6046:6050   */\n      0x20\n        /* \"#utility.yul\":6041:6044   */\n      dup3\n        /* \"#utility.yul\":6037:6051   */\n      add\n        /* \"#utility.yul\":6022:6051   */\n      swap1\n      pop\n        /* \"#utility.yul\":5888:6057   */\n      swap3\n      swap2\n      pop\n      pop\n      jump\t// out\n        /* \"#utility.yul\":6063:6368   */\n    tag_174:\n        /* \"#utility.yul\":6103:6106   */\n      0x00\n        /* \"#utility.yul\":6122:6142   */\n      tag_344\n        /* \"#utility.yul\":6140:6141   */\n      dup3\n        /* \"#utility.yul\":6122:6142   */\n      tag_322\n      jump\t// in\n    tag_344:\n        /* \"#utility.yul\":6117:6142   */\n      swap2\n      pop\n        /* \"#utility.yul\":6156:6176   */\n      tag_345\n        /* \"#utility.yul\":6174:6175   */\n      dup4\n        /* \"#utility.yul\":6156:6176   */\n      tag_322\n      jump\t// in\n    tag_345:\n        /* \"#utility.yul\":6151:6176   */\n      swap3\n      pop\n        /* \"#utility.yul\":6310:6311   */\n      dup3\n        /* \"#utility.yul\":6242:6308   */\n      0xffffffffffffffffffffffffffffffffffffffffffffffffffffffffffffffff\n        /* \"#utility.yul\":6238:6312   */\n      sub\n        /* \"#utility.yul\":6235:6236   */\n      dup3\n        /* \"#utility.yul\":6232:6313   */\n      gt\n        /* \"#utility.yul\":6229:6336   */\n      iszero\n      tag_346\n      jumpi\n        /* \"#utility.yul\":6316:6334   */\n      tag_347\n      tag_348\n      jump\t// in\n    tag_347:\n        /* \"#utility.yul\":6229:6336   */\n    tag_346:\n        /* \"#utility.yul\":6360:6361   */\n      dup3\n        /* \"#utility.yul\":6357:6358   */\n      dup3\n        /* \"#utility.yul\":6353:6362   */\n      add\n        /* \"#utility.yul\":6346:6362   */\n      swap1\n      pop\n        /* \"#utility.yul\":6063:6368   */\n      swap3\n      swap2\n      pop\n      pop\n      jump\t// out\n        /* \"#utility.yul\":6374:6559   */\n    tag_177:\n        /* \"#utility.yul\":6414:6415   */\n      0x00\n        /* \"#utility.yul\":6431:6451   */\n      tag_350\n        /* \"#utility.yul\":6449:6450   */\n      dup3\n        /* \"#utility.yul\":6431:6451   */\n      tag_322\n      jump\t// in\n    tag_350:\n        /* \"#utility.yul\":6426:6451   */\n      swap2\n      pop\n        /* \"#utility.yul\":6465:6485   */\n      tag_351\n        /* \"#utility.yul\":6483:6484   */\n      dup4\n        /* \"#utility.yul\":6465:6485   */\n      tag_322\n      jump\t// in\n    tag_351:\n        /* \"#utility.yul\":6460:6485   */\n      swap3\n      pop\n        /* \"#utility.yul\":6504:6505   */\n      dup3\n        /* \"#utility.yul\":6494:6529   */\n      tag_352\n      jumpi\n        /* \"#utility.yul\":6509:6527   */\n      tag_353\n      tag_354\n      jump\t// in\n    tag_353:\n        /* \"#utility.yul\":6494:6529   */\n    tag_352:\n        /* \"#utility.yul\":6551:6552   */\n      dup3\n        /* \"#utility.yul\":6548:6549   */\n      dup3\n        /* \"#utility.yul\":6544:6553   */\n      div\n        /* \"#utility.yul\":6539:6553   */\n      swap1\n      pop\n        /* \"#utility.yul\":6374:6559   */\n      swap3\n      swap2\n      pop\n      pop\n      jump\t// out\n        /* \"#utility.yul\":6565:6756   */\n    tag_180:\n        /* \"#utility.yul\":6605:6609   */\n      0x00\n        /* \"#utility.yul\":6625:6645   */\n      tag_356\n        /* \"#utility.yul\":6643:6644   */\n      dup3\n        /* \"#utility.yul\":6625:6645   */\n      tag_322\n      jump\t// in\n    tag_356:\n        /* \"#utility.yul\":6620:6645   */\n      swap2\n      pop\n        /* \"#utility.yul\":6659:6679   */\n      tag_357\n        /* \"#utility.yul\":6677:6678   */\n      dup4\n        /* \"#utility.yul\":6659:6679   */\n      tag_322\n      jump\t// in\n    tag_357:\n        /* \"#utility.yul\":6654:6679   */\n      swap3\n      pop\n        /* \"#utility.yul\":6698:6699   */\n      dup3\n        /* \"#utility.yul\":6695:6696   */\n      dup3\n        /* \"#utility.yul\":6692:6700   */\n      lt\n        /* \"#utility.yul\":6689:6723   */\n      iszero\n      tag_358\n      jumpi\n        /* \"#utility.yul\":6703:6721   */\n      tag_359\n      tag_348\n      jump\t// in\n    tag_359:\n        /* \"#utility.yul\":6689:6723   */\n    tag_358:\n        /* \"#utility.yul\":6748:6749   */\n      dup3\n        /* \"#utility.yul\":6745:6746   */\n      dup3\n        /* \"#utility.yul\":6741:6750   */\n      sub\n        /* \"#utility.yul\":6733:6750   */\n      swap1\n      pop\n        /* \"#utility.yul\":6565:6756   */\n      swap3\n      swap2\n      pop\n      pop\n      jump\t// out\n        /* \"#utility.yul\":6762:6858   */\n    tag_300:\n        /* \"#utility.yul\":6799:6806   */\n      0x00\n        /* \"#utility.yul\":6828:6852   */\n      tag_361\n        /* \"#utility.yul\":6846:6851   */\n      dup3\n        /* \"#utility.yul\":6828:6852   */\n      tag_362\n      jump\t// in\n    tag_361:\n        /* \"#utility.yul\":6817:6852   */\n      swap1\n      pop\n        /* \"#utility.yul\":6762:6858   */\n      swap2\n      swap1\n      pop\n      jump\t// out\n        /* \"#utility.yul\":6864:6968   */\n    tag_296:\n        /* \"#utility.yul\":6909:6916   */\n      0x00\n        /* \"#utility.yul\":6938:6962   */\n      tag_364\n        /* \"#utility.yul\":6956:6961   */\n      dup3\n        /* \"#utility.yul\":6938:6962   */\n      tag_362\n      jump\t// in\n    tag_364:\n        /* \"#utility.yul\":6927:6962   */\n      swap1\n      pop\n        /* \"#utility.yul\":6864:6968   */\n      swap2\n      swap1\n      pop\n      jump\t// out\n        /* \"#utility.yul\":6974:7064   */\n    tag_304:\n        /* \"#utility.yul\":7008:7015   */\n      0x00\n        /* \"#utility.yul\":7051:7056   */\n      dup2\n        /* \"#utility.yul\":7044:7057   */\n      iszero\n        /* \"#utility.yul\":7037:7058   */\n      iszero\n        /* \"#utility.yul\":7026:7058   */\n      swap1\n      pop\n        /* \"#utility.yul\":6974:7064   */\n      swap2\n      swap1\n      pop\n      jump\t// out\n        /* \"#utility.yul\":7070:7199   */\n    tag_366:\n        /* \"#utility.yul\":7116:7123   */\n      0x00\n        /* \"#utility.yul\":7145:7150   */\n      dup2\n        /* \"#utility.yul\":7134:7150   */\n      swap1\n      pop\n        /* \"#utility.yul\":7151:7193   */\n      tag_368\n        /* \"#utility.yul\":7187:7192   */\n      dup3\n        /* \"#utility.yul\":7151:7193   */\n      tag_369\n      jump\t// in\n    tag_368:\n        /* \"#utility.yul\":7070:7199   */\n      swap2\n      swap1\n      pop\n      jump\t// out\n        /* \"#utility.yul\":7205:7331   */\n    tag_362:\n        /* \"#utility.yul\":7242:7249   */\n      0x00\n        /* \"#utility.yul\":7282:7324   */\n      0xffffffffffffffffffffffffffffffffffffffff\n        /* \"#utility.yul\":7275:7280   */\n      dup3\n        /* \"#utility.yul\":7271:7325   */\n      and\n        /* \"#utility.yul\":7260:7325   */\n      swap1\n      pop\n        /* \"#utility.yul\":7205:7331   */\n      swap2\n      swap1\n      pop\n      jump\t// out\n        /* \"#utility.yul\":7337:7414   */\n    tag_322:\n        /* \"#utility.yul\":7374:7381   */\n      0x00\n        /* \"#utility.yul\":7403:7408   */\n      dup2\n        /* \"#utility.yul\":7392:7408   */\n      swap1\n      pop\n        /* \"#utility.yul\":7337:7414   */\n      swap2\n      swap1\n      pop\n      jump\t// out\n        /* \"#utility.yul\":7420:7549   */\n    tag_308:\n        /* \"#utility.yul\":7477:7486   */\n      0x00\n        /* \"#utility.yul\":7510:7543   */\n      tag_373\n        /* \"#utility.yul\":7537:7542   */\n      dup3\n        /* \"#utility.yul\":7510:7543   */\n      tag_366\n      jump\t// in\n    tag_373:\n        /* \"#utility.yul\":7497:7543   */\n      swap1\n      pop\n        /* \"#utility.yul\":7420:7549   */\n      swap2\n      swap1\n      pop\n      jump\t// out\n        /* \"#utility.yul\":7555:7862   */\n    tag_316:\n        /* \"#utility.yul\":7623:7624   */\n      0x00\n        /* \"#utility.yul\":7633:7746   */\n    tag_375:\n        /* \"#utility.yul\":7647:7653   */\n      dup4\n        /* \"#utility.yul\":7644:7645   */\n      dup2\n        /* \"#utility.yul\":7641:7654   */\n      lt\n        /* \"#utility.yul\":7633:7746   */\n      iszero\n      tag_377\n      jumpi\n        /* \"#utility.yul\":7732:7733   */\n      dup1\n        /* \"#utility.yul\":7727:7730   */\n      dup3\n        /* \"#utility.yul\":7723:7734   */\n      add\n        /* \"#utility.yul\":7717:7735   */\n      mload\n        /* \"#utility.yul\":7713:7714   */\n      dup2\n        /* \"#utility.yul\":7708:7711   */\n      dup5\n        /* \"#utility.yul\":7704:7715   */\n      add\n        /* \"#utility.yul\":7697:7736   */\n      mstore\n        /* \"#utility.yul\":7669:7671   */\n      0x20\n        /* \"#utility.yul\":7666:7667   */\n      dup2\n        /* \"#utility.yul\":7662:7672   */\n      add\n        /* \"#utility.yul\":7657:7672   */\n      swap1\n      pop\n        /* \"#utility.yul\":7633:7746   */\n      jump(tag_375)\n    tag_377:\n        /* \"#utility.yul\":7764:7770   */\n      dup4\n        /* \"#utility.yul\":7761:7762   */\n      dup2\n        /* \"#utility.yul\":7758:7771   */\n      gt\n        /* \"#utility.yul\":7755:7856   */\n      iszero\n      tag_378\n      jumpi\n        /* \"#utility.yul\":7844:7845   */\n      0x00\n        /* \"#utility.yul\":7835:7841   */\n      dup5\n        /* \"#utility.yul\":7830:7833   */\n      dup5\n        /* \"#utility.yul\":7826:7842   */\n      add\n        /* \"#utility.yul\":7819:7846   */\n      mstore\n        /* \"#utility.yul\":7755:7856   */\n    tag_378:\n        /* \"#utility.yul\":7604:7862   */\n      pop\n        /* \"#utility.yul\":7555:7862   */\n      pop\n      pop\n      pop\n      jump\t// out\n        /* \"#utility.yul\":7868:8188   */\n    tag_191:\n        /* \"#utility.yul\":7912:7918   */\n      0x00\n        /* \"#utility.yul\":7949:7950   */\n      0x02\n        /* \"#utility.yul\":7943:7947   */\n      dup3\n        /* \"#utility.yul\":7939:7951   */\n      div\n        /* \"#utility.yul\":7929:7951   */\n      swap1\n      pop\n        /* \"#utility.yul\":7996:7997   */\n      0x01\n        /* \"#utility.yul\":7990:7994   */\n      dup3\n        /* \"#utility.yul\":7986:7998   */\n      and\n        /* \"#utility.yul\":8017:8035   */\n      dup1\n        /* \"#utility.yul\":8007:8088   */\n      tag_380\n      jumpi\n        /* \"#utility.yul\":8073:8077   */\n      0x7f\n        /* \"#utility.yul\":8065:8071   */\n      dup3\n        /* \"#utility.yul\":8061:8078   */\n      and\n        /* \"#utility.yul\":8051:8078   */\n      swap2\n      pop\n        /* \"#utility.yul\":8007:8088   */\n    tag_380:\n        /* \"#utility.yul\":8135:8137   */\n      0x20\n        /* \"#utility.yul\":8127:8133   */\n      dup3\n        /* \"#utility.yul\":8124:8138   */\n      lt\n        /* \"#utility.yul\":8104:8122   */\n      dup2\n        /* \"#utility.yul\":8101:8139   */\n      eq\n        /* \"#utility.yul\":8098:8182   */\n      iszero\n      tag_381\n      jumpi\n        /* \"#utility.yul\":8154:8172   */\n      tag_382\n      tag_383\n      jump\t// in\n    tag_382:\n        /* \"#utility.yul\":8098:8182   */\n    tag_381:\n        /* \"#utility.yul\":7919:8188   */\n      pop\n        /* \"#utility.yul\":7868:8188   */\n      swap2\n      swap1\n      pop\n      jump\t// out\n        /* \"#utility.yul\":8194:8374   */\n    tag_348:\n        /* \"#utility.yul\":8242:8319   */\n      0x4e487b7100000000000000000000000000000000000000000000000000000000\n        /* \"#utility.yul\":8239:8240   */\n      0x00\n        /* \"#utility.yul\":8232:8320   */\n      mstore\n        /* \"#utility.yul\":8339:8343   */\n      0x11\n        /* \"#utility.yul\":8336:8337   */\n      0x04\n        /* \"#utility.yul\":8329:8344   */\n      mstore\n        /* \"#utility.yul\":8363:8367   */\n      0x24\n        /* \"#utility.yul\":8360:8361   */\n      0x00\n        /* \"#utility.yul\":8353:8368   */\n      revert\n        /* \"#utility.yul\":8380:8560   */\n    tag_354:\n        /* \"#utility.yul\":8428:8505   */\n      0x4e487b7100000000000000000000000000000000000000000000000000000000\n        /* \"#utility.yul\":8425:8426   */\n      0x00\n        /* \"#utility.yul\":8418:8506   */\n      mstore\n        /* \"#utility.yul\":8525:8529   */\n      0x12\n        /* \"#utility.yul\":8522:8523   */\n      0x04\n        /* \"#utility.yul\":8515:8530   */\n      mstore\n        /* \"#utility.yul\":8549:8553   */\n      0x24\n        /* \"#utility.yul\":8546:8547   */\n      0x00\n        /* \"#utility.yul\":8539:8554   */\n      revert\n        /* \"#utility.yul\":8566:8746   */\n    tag_165:\n        /* \"#utility.yul\":8614:8691   */\n      0x4e487b7100000000000000000000000000000000000000000000000000000000\n        /* \"#utility.yul\":8611:8612   */\n      0x00\n        /* \"#utility.yul\":8604:8692   */\n      mstore\n        /* \"#utility.yul\":8711:8715   */\n      0x21\n        /* \"#utility.yul\":8708:8709   */\n      0x04\n        /* \"#utility.yul\":8701:8716   */\n      mstore\n        /* \"#utility.yul\":8735:8739   */\n      0x24\n        /* \"#utility.yul\":8732:8733   */\n      0x00\n        /* \"#utility.yul\":8725:8740   */\n      revert\n        /* \"#utility.yul\":8752:8932   */\n    tag_383:\n        /* \"#utility.yul\":8800:8877   */\n      0x4e487b7100000000000000000000000000000000000000000000000000000000\n        /* \"#utility.yul\":8797:8798   */\n      0x00\n        /* \"#utility.yul\":8790:8878   */\n      mstore\n        /* \"#utility.yul\":8897:8901   */\n      0x22\n        /* \"#utility.yul\":8894:8895   */\n      0x04\n        /* \"#utility.yul\":8887:8902   */\n      mstore\n        /* \"#utility.yul\":8921:8925   */\n      0x24\n        /* \"#utility.yul\":8918:8919   */\n      0x00\n        /* \"#utility.yul\":8911:8926   */\n      revert\n        /* \"#utility.yul\":9061:9178   */\n    tag_271:\n        /* \"#utility.yul\":9170:9171   */\n      0x00\n        /* \"#utility.yul\":9167:9168   */\n      dup1\n        /* \"#utility.yul\":9160:9172   */\n      revert\n        /* \"#utility.yul\":9184:9286   */\n    tag_318:\n        /* \"#utility.yul\":9225:9231   */\n      0x00\n        /* \"#utility.yul\":9276:9278   */\n      0x1f\n        /* \"#utility.yul\":9272:9279   */\n      not\n        /* \"#utility.yul\":9267:9269   */\n      0x1f\n        /* \"#utility.yul\":9260:9265   */\n      dup4\n        /* \"#utility.yul\":9256:9270   */\n      add\n        /* \"#utility.yul\":9252:9280   */\n      and\n        /* \"#utility.yul\":9242:9280   */\n      swap1\n      pop\n        /* \"#utility.yul\":9184:9286   */\n      swap2\n      swap1\n      pop\n      jump\t// out\n        /* \"#utility.yul\":9292:9406   */\n    tag_369:\n        /* \"#utility.yul\":9374:9375   */\n      0x04\n        /* \"#utility.yul\":9367:9372   */\n      dup2\n        /* \"#utility.yul\":9364:9376   */\n      lt\n        /* \"#utility.yul\":9354:9400   */\n      tag_393\n      jumpi\n        /* \"#utility.yul\":9380:9398   */\n      tag_394\n      tag_165\n      jump\t// in\n    tag_394:\n        /* \"#utility.yul\":9354:9400   */\n    tag_393:\n        /* \"#utility.yul\":9292:9406   */\n      pop\n      jump\t// out\n        /* \"#utility.yul\":9412:9534   */\n    tag_259:\n        /* \"#utility.yul\":9485:9509   */\n      tag_396\n        /* \"#utility.yul\":9503:9508   */\n      dup2\n        /* \"#utility.yul\":9485:9509   */\n      tag_300\n      jump\t// in\n    tag_396:\n        /* \"#utility.yul\":9478:9483   */\n      dup2\n        /* \"#utility.yul\":9475:9510   */\n      eq\n        /* \"#utility.yul\":9465:9528   */\n      tag_397\n      jumpi\n        /* \"#utility.yul\":9524:9525   */\n      0x00\n        /* \"#utility.yul\":9521:9522   */\n      dup1\n        /* \"#utility.yul\":9514:9526   */\n      revert\n        /* \"#utility.yul\":9465:9528   */\n    tag_397:\n        /* \"#utility.yul\":9412:9534   */\n      pop\n      jump\t// out\n        /* \"#utility.yul\":9540:9678   */\n    tag_263:\n        /* \"#utility.yul\":9621:9653   */\n      tag_399\n        /* \"#utility.yul\":9647:9652   */\n      dup2\n        /* \"#utility.yul\":9621:9653   */\n      tag_296\n      jump\t// in\n    tag_399:\n        /* \"#utility.yul\":9614:9619   */\n      dup2\n        /* \"#utility.yul\":9611:9654   */\n      eq\n        /* \"#utility.yul\":9601:9672   */\n      tag_400\n      jumpi\n        /* \"#utility.yul\":9668:9669   */\n      0x00\n        /* \"#utility.yul\":9665:9666   */\n      dup1\n        /* \"#utility.yul\":9658:9670   */\n      revert\n        /* \"#utility.yul\":9601:9672   */\n    tag_400:\n        /* \"#utility.yul\":9540:9678   */\n      pop\n      jump\t// out\n        /* \"#utility.yul\":9684:9806   */\n    tag_267:\n        /* \"#utility.yul\":9757:9781   */\n      tag_402\n        /* \"#utility.yul\":9775:9780   */\n      dup2\n        /* \"#utility.yul\":9757:9781   */\n      tag_322\n      jump\t// in\n    tag_402:\n        /* \"#utility.yul\":9750:9755   */\n      dup2\n        /* \"#utility.yul\":9747:9782   */\n      eq\n        /* \"#utility.yul\":9737:9800   */\n      tag_403\n      jumpi\n        /* \"#utility.yul\":9796:9797   */\n      0x00\n        /* \"#utility.yul\":9793:9794   */\n      dup1\n        /* \"#utility.yul\":9786:9798   */\n      revert\n        /* \"#utility.yul\":9737:9800   */\n    tag_403:\n        /* \"#utility.yul\":9684:9806   */\n      pop\n      jump\t// out\n\n    auxdata: 0xa2646970667358221220d173765d477df856141d228e7de44d6f8ae5bcbad28abf1db96b9779a794057f64736f6c63430008070033\n}\n",
				"bytecode": {
					"linkReferences": {},
					"object": "60806040526040518060400160405280600781526020017f43727970746f73000000000000000000000000000000000000000000000000008152506000908051906020019062000051929190620002a0565b506040518060400160405280600481526020017f4352505400000000000000000000000000000000000000000000000000000000815250600190805190602001906200009f929190620002a0565b50600060025566038d7ea4c68000600955681043561a8829300000600a5542600c5562093a8042620000d2919062000399565b600d5562093a80600d54620000e8919062000399565b600e55674563918244f40000600f5567016345785d8a00006010553480156200011057600080fd5b5060405162001eba38038062001eba833981810160405281019062000136919062000367565b620f424060038190555033600460006101000a81548173ffffffffffffffffffffffffffffffffffffffff021916908373ffffffffffffffffffffffffffffffffffffffff16021790555060035460056000600460009054906101000a900473ffffffffffffffffffffffffffffffffffffffff1673ffffffffffffffffffffffffffffffffffffffff1673ffffffffffffffffffffffffffffffffffffffff1681526020019081526020016000208190555080600860006101000a81548173ffffffffffffffffffffffffffffffffffffffff021916908373ffffffffffffffffffffffffffffffffffffffff16021790555033600760006101000a81548173ffffffffffffffffffffffffffffffffffffffff021916908373ffffffffffffffffffffffffffffffffffffffff1602179055506000601160006101000a81548160ff0219169083600381111562000294576200029362000499565b5b02179055505062000516565b828054620002ae9062000434565b90600052602060002090601f016020900481019282620002d257600085556200031e565b82601f10620002ed57805160ff19168380011785556200031e565b828001600101855582156200031e579182015b828111156200031d57825182559160200191906001019062000300565b5b5090506200032d919062000331565b5090565b5b808211156200034c57600081600090555060010162000332565b5090565b6000815190506200036181620004fc565b92915050565b60006020828403121562000380576200037f620004f7565b5b6000620003908482850162000350565b91505092915050565b6000620003a6826200042a565b9150620003b3836200042a565b9250827fffffffffffffffffffffffffffffffffffffffffffffffffffffffffffffffff03821115620003eb57620003ea6200046a565b5b828201905092915050565b600062000403826200040a565b9050919050565b600073ffffffffffffffffffffffffffffffffffffffff82169050919050565b6000819050919050565b600060028204905060018216806200044d57607f821691505b60208210811415620004645762000463620004c8565b5b50919050565b7f4e487b7100000000000000000000000000000000000000000000000000000000600052601160045260246000fd5b7f4e487b7100000000000000000000000000000000000000000000000000000000600052602160045260246000fd5b7f4e487b7100000000000000000000000000000000000000000000000000000000600052602260045260246000fd5b600080fd5b6200050781620003f6565b81146200051357600080fd5b50565b61199480620005266000396000f3fe60806040526004361061019f5760003560e01c80636d58c88f116100ec578063c59ee1dc1161008a578063dd62ed3e11610064578063dd62ed3e146105c1578063e8b5e51f146105fe578063f851a4401461061c578063fb86a40414610647576101af565b8063c59ee1dc14610540578063cc9ba5831461056b578063d0e30db014610596576101af565b806395d89b41116100c657806395d89b4114610482578063a9059cbb146104ad578063ab0bcc41146104ea578063c10b935814610515576101af565b80636d58c88f146103f157806370a082311461041a5780638ac2c68014610457576101af565b806327e235e31161015957806344df8e701161013357806344df8e701461035957806344f38756146103845780634d853ee5146103af5780635ed7ca5b146103da576101af565b806327e235e3146102c6578063313ce56714610303578063378aa7011461032e576101af565b80622e1316146101b4578063046f7da2146101df57806306fdde03146101f6578063095ea7b31461022157806318160ddd1461025e57806323b872dd14610289576101af565b366101af576101ac610672565b50005b600080fd5b3480156101c057600080fd5b506101c96108b8565b6040516101d6919061165d565b60405180910390f35b3480156101eb57600080fd5b506101f46108be565b005b34801561020257600080fd5b5061020b610945565b604051610218919061163b565b60405180910390f35b34801561022d57600080fd5b50610248600480360381019061024391906114d4565b6109d3565b6040516102559190611605565b60405180910390f35b34801561026a57600080fd5b50610273610b1e565b604051610280919061165d565b60405180910390f35b34801561029557600080fd5b506102b060048036038101906102ab9190611481565b610b24565b6040516102bd9190611605565b60405180910390f35b3480156102d257600080fd5b506102ed60048036038101906102e891906113e7565b610b4b565b6040516102fa919061165d565b60405180910390f35b34801561030f57600080fd5b50610318610b63565b604051610325919061165d565b60405180910390f35b34801561033a57600080fd5b50610343610b69565b6040516103509190611620565b60405180910390f35b34801561036557600080fd5b5061036e610bec565b60405161037b9190611605565b60405180910390f35b34801561039057600080fd5b50610399610ccd565b6040516103a69190611620565b60405180910390f35b3480156103bb57600080fd5b506103c4610ce0565b6040516103d19190611598565b60405180910390f35b3480156103e657600080fd5b506103ef610d06565b005b3480156103fd57600080fd5b5061041860048036038101906104139190611414565b610d8d565b005b34801561042657600080fd5b50610441600480360381019061043c91906113e7565b610e2b565b60405161044e919061165d565b60405180910390f35b34801561046357600080fd5b5061046c610e74565b604051610479919061165d565b60405180910390f35b34801561048e57600080fd5b50610497610e7a565b6040516104a4919061163b565b60405180910390f35b3480156104b957600080fd5b506104d460048036038101906104cf91906114d4565b610f08565b6040516104e19190611605565b60405180910390f35b3480156104f657600080fd5b506104ff610f2d565b60405161050c919061165d565b60405180910390f35b34801561052157600080fd5b5061052a610f33565b604051610537919061165d565b60405180910390f35b34801561054c57600080fd5b50610555610f39565b604051610562919061165d565b60405180910390f35b34801561057757600080fd5b50610580610f3f565b60405161058d919061165d565b60405180910390f35b3480156105a257600080fd5b506105ab610f45565b6040516105b891906115b3565b60405180910390f35b3480156105cd57600080fd5b506105e860048036038101906105e39190611441565b610f6b565b6040516105f5919061165d565b60405180910390f35b610606610672565b6040516106139190611605565b60405180910390f35b34801561062857600080fd5b50610631610ff2565b60405161063e9190611598565b60405180910390f35b34801561065357600080fd5b5061065c611018565b604051610669919061165d565b60405180910390f35b600061067c610b69565b601160006101000a81548160ff021916908360038111156106a05761069f611891565b5b0217905550600160038111156106b9576106b8611891565b5b601160009054906101000a900460ff1660038111156106db576106da611891565b5b146106e557600080fd5b60105434101580156106f95750600f543411155b61070257600080fd5b34600b60008282546107149190611694565b92505081905550600a54600b54111561072c57600080fd5b60006009543461073c91906116ea565b905080600560003373ffffffffffffffffffffffffffffffffffffffff1673ffffffffffffffffffffffffffffffffffffffff168152602001908152602001600020600082825461078d9190611694565b925050819055508060056000600460009054906101000a900473ffffffffffffffffffffffffffffffffffffffff1673ffffffffffffffffffffffffffffffffffffffff1673ffffffffffffffffffffffffffffffffffffffff1681526020019081526020016000206000828254610805919061171b565b92505081905550600860009054906101000a900473ffffffffffffffffffffffffffffffffffffffff1673ffffffffffffffffffffffffffffffffffffffff166108fc349081150290604051600060405180830381858888f19350505050158015610874573d6000803e3d6000fd5b507f4ae4bd7655e0d350876a23cd90c4227b13db560e34435c6a488150a9c844bf5f3334836040516108a8939291906115ce565b60405180910390a1600191505090565b600f5481565b600760009054906101000a900473ffffffffffffffffffffffffffffffffffffffff1673ffffffffffffffffffffffffffffffffffffffff163373ffffffffffffffffffffffffffffffffffffffff161461091857600080fd5b6001601160006101000a81548160ff0219169083600381111561093e5761093d611891565b5b0217905550565b6000805461095290611801565b80601f016020809104026020016040519081016040528092919081815260200182805461097e90611801565b80156109cb5780601f106109a0576101008083540402835291602001916109cb565b820191906000526020600020905b8154815290600101906020018083116109ae57829003601f168201915b505050505081565b600081600560003373ffffffffffffffffffffffffffffffffffffffff1673ffffffffffffffffffffffffffffffffffffffff168152602001908152602001600020541015610a2157600080fd5b60008211610a2e57600080fd5b81600660003373ffffffffffffffffffffffffffffffffffffffff1673ffffffffffffffffffffffffffffffffffffffff16815260200190815260200160002060008573ffffffffffffffffffffffffffffffffffffffff1673ffffffffffffffffffffffffffffffffffffffff168152602001908152602001600020819055508273ffffffffffffffffffffffffffffffffffffffff163373ffffffffffffffffffffffffffffffffffffffff167f8c5be1e5ebec7d5bd14f71427d1e84f3dd0314c0f7b2291e5b200ac8c7c3b92584604051610b0c919061165d565b60405180910390a36001905092915050565b60035481565b6000600e544211610b3457600080fd5b610b3f84848461101e565b50600190509392505050565b60056020528060005260406000206000915090505481565b60025481565b6000600380811115610b7e57610b7d611891565b5b601160009054906101000a900460ff166003811115610ba057610b9f611891565b5b1415610baf5760039050610be9565b600c54421015610bc25760009050610be9565b600c544210158015610bd65750600d544211155b15610be45760019050610be9565b600290505b90565b6000610bf6610b69565b601160006101000a81548160ff02191690836003811115610c1a57610c19611891565b5b021790555060026003811115610c3357610c32611891565b5b601160009054906101000a900460ff166003811115610c5557610c54611891565b5b14610c5f57600080fd5b600060056000600460009054906101000a900473ffffffffffffffffffffffffffffffffffffffff1673ffffffffffffffffffffffffffffffffffffffff1673ffffffffffffffffffffffffffffffffffffffff168152602001908152602001600020819055506001905090565b601160009054906101000a900460ff1681565b600460009054906101000a900473ffffffffffffffffffffffffffffffffffffffff1681565b600760009054906101000a900473ffffffffffffffffffffffffffffffffffffffff1673ffffffffffffffffffffffffffffffffffffffff163373ffffffffffffffffffffffffffffffffffffffff1614610d6057600080fd5b6003601160006101000a81548160ff02191690836003811115610d8657610d85611891565b5b0217905550565b600760009054906101000a900473ffffffffffffffffffffffffffffffffffffffff1673ffffffffffffffffffffffffffffffffffffffff163373ffffffffffffffffffffffffffffffffffffffff1614610de757600080fd5b80600860006101000a81548173ffffffffffffffffffffffffffffffffffffffff021916908373ffffffffffffffffffffffffffffffffffffffff16021790555050565b6000600560008373ffffffffffffffffffffffffffffffffffffffff1673ffffffffffffffffffffffffffffffffffffffff168152602001908152602001600020549050919050565b60105481565b60018054610e8790611801565b80601f0160208091040260200160405190810160405280929190818152602001828054610eb390611801565b8015610f005780601f10610ed557610100808354040283529160200191610f00565b820191906000526020600020905b815481529060010190602001808311610ee357829003601f168201915b505050505081565b6000600e544211610f1857600080fd5b610f22838361123f565b506001905092915050565b600c5481565b600d5481565b600b5481565b600e5481565b600860009054906101000a900473ffffffffffffffffffffffffffffffffffffffff1681565b6000600660008473ffffffffffffffffffffffffffffffffffffffff1673ffffffffffffffffffffffffffffffffffffffff16815260200190815260200160002060008373ffffffffffffffffffffffffffffffffffffffff1673ffffffffffffffffffffffffffffffffffffffff16815260200190815260200160002054905092915050565b600760009054906101000a900473ffffffffffffffffffffffffffffffffffffffff1681565b600a5481565b600081600660008673ffffffffffffffffffffffffffffffffffffffff1673ffffffffffffffffffffffffffffffffffffffff16815260200190815260200160002060008573ffffffffffffffffffffffffffffffffffffffff1673ffffffffffffffffffffffffffffffffffffffff1681526020019081526020016000205410156110a957600080fd5b81600560008673ffffffffffffffffffffffffffffffffffffffff1673ffffffffffffffffffffffffffffffffffffffff1681526020019081526020016000205410156110f557600080fd5b81600560008673ffffffffffffffffffffffffffffffffffffffff1673ffffffffffffffffffffffffffffffffffffffff1681526020019081526020016000206000828254611144919061171b565b9250508190555081600560008573ffffffffffffffffffffffffffffffffffffffff1673ffffffffffffffffffffffffffffffffffffffff168152602001908152602001600020600082825461119a9190611694565b9250508190555081600660008673ffffffffffffffffffffffffffffffffffffffff1673ffffffffffffffffffffffffffffffffffffffff16815260200190815260200160002060008573ffffffffffffffffffffffffffffffffffffffff1673ffffffffffffffffffffffffffffffffffffffff168152602001908152602001600020600082825461122d919061171b565b92505081905550600190509392505050565b600081600560003373ffffffffffffffffffffffffffffffffffffffff1673ffffffffffffffffffffffffffffffffffffffff16815260200190815260200160002054101561128d57600080fd5b81600560008573ffffffffffffffffffffffffffffffffffffffff1673ffffffffffffffffffffffffffffffffffffffff16815260200190815260200160002060008282546112dc9190611694565b9250508190555081600560003373ffffffffffffffffffffffffffffffffffffffff1673ffffffffffffffffffffffffffffffffffffffff1681526020019081526020016000206000828254611332919061171b565b925050819055508273ffffffffffffffffffffffffffffffffffffffff163373ffffffffffffffffffffffffffffffffffffffff167fddf252ad1be2c89b69c2b068fc378daa952ba7f163c4a11628f55a4df523b3ef84604051611396919061165d565b60405180910390a36001905092915050565b6000813590506113b781611919565b92915050565b6000813590506113cc81611930565b92915050565b6000813590506113e181611947565b92915050565b6000602082840312156113fd576113fc6118ef565b5b600061140b848285016113a8565b91505092915050565b60006020828403121561142a576114296118ef565b5b6000611438848285016113bd565b91505092915050565b60008060408385031215611458576114576118ef565b5b6000611466858286016113a8565b9250506020611477858286016113a8565b9150509250929050565b60008060006060848603121561149a576114996118ef565b5b60006114a8868287016113a8565b93505060206114b9868287016113a8565b92505060406114ca868287016113d2565b9150509250925092565b600080604083850312156114eb576114ea6118ef565b5b60006114f9858286016113a8565b925050602061150a858286016113d2565b9150509250929050565b61151d81611761565b82525050565b61152c8161174f565b82525050565b61153b81611773565b82525050565b61154a816117bc565b82525050565b600061155b82611678565b6115658185611683565b93506115758185602086016117ce565b61157e816118f4565b840191505092915050565b611592816117b2565b82525050565b60006020820190506115ad6000830184611523565b92915050565b60006020820190506115c86000830184611514565b92915050565b60006060820190506115e36000830186611523565b6115f06020830185611589565b6115fd6040830184611589565b949350505050565b600060208201905061161a6000830184611532565b92915050565b60006020820190506116356000830184611541565b92915050565b600060208201905081810360008301526116558184611550565b905092915050565b60006020820190506116726000830184611589565b92915050565b600081519050919050565b600082825260208201905092915050565b600061169f826117b2565b91506116aa836117b2565b9250827fffffffffffffffffffffffffffffffffffffffffffffffffffffffffffffffff038211156116df576116de611833565b5b828201905092915050565b60006116f5826117b2565b9150611700836117b2565b9250826117105761170f611862565b5b828204905092915050565b6000611726826117b2565b9150611731836117b2565b92508282101561174457611743611833565b5b828203905092915050565b600061175a82611792565b9050919050565b600061176c82611792565b9050919050565b60008115159050919050565b600081905061178d82611905565b919050565b600073ffffffffffffffffffffffffffffffffffffffff82169050919050565b6000819050919050565b60006117c78261177f565b9050919050565b60005b838110156117ec5780820151818401526020810190506117d1565b838111156117fb576000848401525b50505050565b6000600282049050600182168061181957607f821691505b6020821081141561182d5761182c6118c0565b5b50919050565b7f4e487b7100000000000000000000000000000000000000000000000000000000600052601160045260246000fd5b7f4e487b7100000000000000000000000000000000000000000000000000000000600052601260045260246000fd5b7f4e487b7100000000000000000000000000000000000000000000000000000000600052602160045260246000fd5b7f4e487b7100000000000000000000000000000000000000000000000000000000600052602260045260246000fd5b600080fd5b6000601f19601f8301169050919050565b6004811061191657611915611891565b5b50565b6119228161174f565b811461192d57600080fd5b50565b61193981611761565b811461194457600080fd5b50565b611950816117b2565b811461195b57600080fd5b5056fea2646970667358221220d173765d477df856141d228e7de44d6f8ae5bcbad28abf1db96b9779a794057f64736f6c63430008070033",
					"opcodes": "PUSH1 0x80 PUSH1 0x40 MSTORE PUSH1 0x40 MLOAD DUP1 PUSH1 0x40 ADD PUSH1 0x40 MSTORE DUP1 PUSH1 0x7 DUP2 MSTORE PUSH1 0x20 ADD PUSH32 0x43727970746F7300000000000000000000000000000000000000000000000000 DUP2 MSTORE POP PUSH1 0x0 SWAP1 DUP1 MLOAD SWAP1 PUSH1 0x20 ADD SWAP1 PUSH3 0x51 SWAP3 SWAP2 SWAP1 PUSH3 0x2A0 JUMP JUMPDEST POP PUSH1 0x40 MLOAD DUP1 PUSH1 0x40 ADD PUSH1 0x40 MSTORE DUP1 PUSH1 0x4 DUP2 MSTORE PUSH1 0x20 ADD PUSH32 0x4352505400000000000000000000000000000000000000000000000000000000 DUP2 MSTORE POP PUSH1 0x1 SWAP1 DUP1 MLOAD SWAP1 PUSH1 0x20 ADD SWAP1 PUSH3 0x9F SWAP3 SWAP2 SWAP1 PUSH3 0x2A0 JUMP JUMPDEST POP PUSH1 0x0 PUSH1 0x2 SSTORE PUSH7 0x38D7EA4C68000 PUSH1 0x9 SSTORE PUSH9 0x1043561A8829300000 PUSH1 0xA SSTORE TIMESTAMP PUSH1 0xC SSTORE PUSH3 0x93A80 TIMESTAMP PUSH3 0xD2 SWAP2 SWAP1 PUSH3 0x399 JUMP JUMPDEST PUSH1 0xD SSTORE PUSH3 0x93A80 PUSH1 0xD SLOAD PUSH3 0xE8 SWAP2 SWAP1 PUSH3 0x399 JUMP JUMPDEST PUSH1 0xE SSTORE PUSH8 0x4563918244F40000 PUSH1 0xF SSTORE PUSH8 0x16345785D8A0000 PUSH1 0x10 SSTORE CALLVALUE DUP1 ISZERO PUSH3 0x110 JUMPI PUSH1 0x0 DUP1 REVERT JUMPDEST POP PUSH1 0x40 MLOAD PUSH3 0x1EBA CODESIZE SUB DUP1 PUSH3 0x1EBA DUP4 CODECOPY DUP2 DUP2 ADD PUSH1 0x40 MSTORE DUP2 ADD SWAP1 PUSH3 0x136 SWAP2 SWAP1 PUSH3 0x367 JUMP JUMPDEST PUSH3 0xF4240 PUSH1 0x3 DUP2 SWAP1 SSTORE POP CALLER PUSH1 0x4 PUSH1 0x0 PUSH2 0x100 EXP DUP2 SLOAD DUP2 PUSH20 0xFFFFFFFFFFFFFFFFFFFFFFFFFFFFFFFFFFFFFFFF MUL NOT AND SWAP1 DUP4 PUSH20 0xFFFFFFFFFFFFFFFFFFFFFFFFFFFFFFFFFFFFFFFF AND MUL OR SWAP1 SSTORE POP PUSH1 0x3 SLOAD PUSH1 0x5 PUSH1 0x0 PUSH1 0x4 PUSH1 0x0 SWAP1 SLOAD SWAP1 PUSH2 0x100 EXP SWAP1 DIV PUSH20 0xFFFFFFFFFFFFFFFFFFFFFFFFFFFFFFFFFFFFFFFF AND PUSH20 0xFFFFFFFFFFFFFFFFFFFFFFFFFFFFFFFFFFFFFFFF AND PUSH20 0xFFFFFFFFFFFFFFFFFFFFFFFFFFFFFFFFFFFFFFFF AND DUP2 MSTORE PUSH1 0x20 ADD SWAP1 DUP2 MSTORE PUSH1 0x20 ADD PUSH1 0x0 KECCAK256 DUP2 SWAP1 SSTORE POP DUP1 PUSH1 0x8 PUSH1 0x0 PUSH2 0x100 EXP DUP2 SLOAD DUP2 PUSH20 0xFFFFFFFFFFFFFFFFFFFFFFFFFFFFFFFFFFFFFFFF MUL NOT AND SWAP1 DUP4 PUSH20 0xFFFFFFFFFFFFFFFFFFFFFFFFFFFFFFFFFFFFFFFF AND MUL OR SWAP1 SSTORE POP CALLER PUSH1 0x7 PUSH1 0x0 PUSH2 0x100 EXP DUP2 SLOAD DUP2 PUSH20 0xFFFFFFFFFFFFFFFFFFFFFFFFFFFFFFFFFFFFFFFF MUL NOT AND SWAP1 DUP4 PUSH20 0xFFFFFFFFFFFFFFFFFFFFFFFFFFFFFFFFFFFFFFFF AND MUL OR SWAP1 SSTORE POP PUSH1 0x0 PUSH1 0x11 PUSH1 0x0 PUSH2 0x100 EXP DUP2 SLOAD DUP2 PUSH1 0xFF MUL NOT AND SWAP1 DUP4 PUSH1 0x3 DUP2 GT ISZERO PUSH3 0x294 JUMPI PUSH3 0x293 PUSH3 0x499 JUMP JUMPDEST JUMPDEST MUL OR SWAP1 SSTORE POP POP PUSH3 0x516 JUMP JUMPDEST DUP3 DUP1 SLOAD PUSH3 0x2AE SWAP1 PUSH3 0x434 JUMP JUMPDEST SWAP1 PUSH1 0x0 MSTORE PUSH1 0x20 PUSH1 0x0 KECCAK256 SWAP1 PUSH1 0x1F ADD PUSH1 0x20 SWAP1 DIV DUP2 ADD SWAP3 DUP3 PUSH3 0x2D2 JUMPI PUSH1 0x0 DUP6 SSTORE PUSH3 0x31E JUMP JUMPDEST DUP3 PUSH1 0x1F LT PUSH3 0x2ED JUMPI DUP1 MLOAD PUSH1 0xFF NOT AND DUP4 DUP1 ADD OR DUP6 SSTORE PUSH3 0x31E JUMP JUMPDEST DUP3 DUP1 ADD PUSH1 0x1 ADD DUP6 SSTORE DUP3 ISZERO PUSH3 0x31E JUMPI SWAP2 DUP3 ADD JUMPDEST DUP3 DUP2 GT ISZERO PUSH3 0x31D JUMPI DUP3 MLOAD DUP3 SSTORE SWAP2 PUSH1 0x20 ADD SWAP2 SWAP1 PUSH1 0x1 ADD SWAP1 PUSH3 0x300 JUMP JUMPDEST JUMPDEST POP SWAP1 POP PUSH3 0x32D SWAP2 SWAP1 PUSH3 0x331 JUMP JUMPDEST POP SWAP1 JUMP JUMPDEST JUMPDEST DUP1 DUP3 GT ISZERO PUSH3 0x34C JUMPI PUSH1 0x0 DUP2 PUSH1 0x0 SWAP1 SSTORE POP PUSH1 0x1 ADD PUSH3 0x332 JUMP JUMPDEST POP SWAP1 JUMP JUMPDEST PUSH1 0x0 DUP2 MLOAD SWAP1 POP PUSH3 0x361 DUP2 PUSH3 0x4FC JUMP JUMPDEST SWAP3 SWAP2 POP POP JUMP JUMPDEST PUSH1 0x0 PUSH1 0x20 DUP3 DUP5 SUB SLT ISZERO PUSH3 0x380 JUMPI PUSH3 0x37F PUSH3 0x4F7 JUMP JUMPDEST JUMPDEST PUSH1 0x0 PUSH3 0x390 DUP5 DUP3 DUP6 ADD PUSH3 0x350 JUMP JUMPDEST SWAP2 POP POP SWAP3 SWAP2 POP POP JUMP JUMPDEST PUSH1 0x0 PUSH3 0x3A6 DUP3 PUSH3 0x42A JUMP JUMPDEST SWAP2 POP PUSH3 0x3B3 DUP4 PUSH3 0x42A JUMP JUMPDEST SWAP3 POP DUP3 PUSH32 0xFFFFFFFFFFFFFFFFFFFFFFFFFFFFFFFFFFFFFFFFFFFFFFFFFFFFFFFFFFFFFFFF SUB DUP3 GT ISZERO PUSH3 0x3EB JUMPI PUSH3 0x3EA PUSH3 0x46A JUMP JUMPDEST JUMPDEST DUP3 DUP3 ADD SWAP1 POP SWAP3 SWAP2 POP POP JUMP JUMPDEST PUSH1 0x0 PUSH3 0x403 DUP3 PUSH3 0x40A JUMP JUMPDEST SWAP1 POP SWAP2 SWAP1 POP JUMP JUMPDEST PUSH1 0x0 PUSH20 0xFFFFFFFFFFFFFFFFFFFFFFFFFFFFFFFFFFFFFFFF DUP3 AND SWAP1 POP SWAP2 SWAP1 POP JUMP JUMPDEST PUSH1 0x0 DUP2 SWAP1 POP SWAP2 SWAP1 POP JUMP JUMPDEST PUSH1 0x0 PUSH1 0x2 DUP3 DIV SWAP1 POP PUSH1 0x1 DUP3 AND DUP1 PUSH3 0x44D JUMPI PUSH1 0x7F DUP3 AND SWAP2 POP JUMPDEST PUSH1 0x20 DUP3 LT DUP2 EQ ISZERO PUSH3 0x464 JUMPI PUSH3 0x463 PUSH3 0x4C8 JUMP JUMPDEST JUMPDEST POP SWAP2 SWAP1 POP JUMP JUMPDEST PUSH32 0x4E487B7100000000000000000000000000000000000000000000000000000000 PUSH1 0x0 MSTORE PUSH1 0x11 PUSH1 0x4 MSTORE PUSH1 0x24 PUSH1 0x0 REVERT JUMPDEST PUSH32 0x4E487B7100000000000000000000000000000000000000000000000000000000 PUSH1 0x0 MSTORE PUSH1 0x21 PUSH1 0x4 MSTORE PUSH1 0x24 PUSH1 0x0 REVERT JUMPDEST PUSH32 0x4E487B7100000000000000000000000000000000000000000000000000000000 PUSH1 0x0 MSTORE PUSH1 0x22 PUSH1 0x4 MSTORE PUSH1 0x24 PUSH1 0x0 REVERT JUMPDEST PUSH1 0x0 DUP1 REVERT JUMPDEST PUSH3 0x507 DUP2 PUSH3 0x3F6 JUMP JUMPDEST DUP2 EQ PUSH3 0x513 JUMPI PUSH1 0x0 DUP1 REVERT JUMPDEST POP JUMP JUMPDEST PUSH2 0x1994 DUP1 PUSH3 0x526 PUSH1 0x0 CODECOPY PUSH1 0x0 RETURN INVALID PUSH1 0x80 PUSH1 0x40 MSTORE PUSH1 0x4 CALLDATASIZE LT PUSH2 0x19F JUMPI PUSH1 0x0 CALLDATALOAD PUSH1 0xE0 SHR DUP1 PUSH4 0x6D58C88F GT PUSH2 0xEC JUMPI DUP1 PUSH4 0xC59EE1DC GT PUSH2 0x8A JUMPI DUP1 PUSH4 0xDD62ED3E GT PUSH2 0x64 JUMPI DUP1 PUSH4 0xDD62ED3E EQ PUSH2 0x5C1 JUMPI DUP1 PUSH4 0xE8B5E51F EQ PUSH2 0x5FE JUMPI DUP1 PUSH4 0xF851A440 EQ PUSH2 0x61C JUMPI DUP1 PUSH4 0xFB86A404 EQ PUSH2 0x647 JUMPI PUSH2 0x1AF JUMP JUMPDEST DUP1 PUSH4 0xC59EE1DC EQ PUSH2 0x540 JUMPI DUP1 PUSH4 0xCC9BA583 EQ PUSH2 0x56B JUMPI DUP1 PUSH4 0xD0E30DB0 EQ PUSH2 0x596 JUMPI PUSH2 0x1AF JUMP JUMPDEST DUP1 PUSH4 0x95D89B41 GT PUSH2 0xC6 JUMPI DUP1 PUSH4 0x95D89B41 EQ PUSH2 0x482 JUMPI DUP1 PUSH4 0xA9059CBB EQ PUSH2 0x4AD JUMPI DUP1 PUSH4 0xAB0BCC41 EQ PUSH2 0x4EA JUMPI DUP1 PUSH4 0xC10B9358 EQ PUSH2 0x515 JUMPI PUSH2 0x1AF JUMP JUMPDEST DUP1 PUSH4 0x6D58C88F EQ PUSH2 0x3F1 JUMPI DUP1 PUSH4 0x70A08231 EQ PUSH2 0x41A JUMPI DUP1 PUSH4 0x8AC2C680 EQ PUSH2 0x457 JUMPI PUSH2 0x1AF JUMP JUMPDEST DUP1 PUSH4 0x27E235E3 GT PUSH2 0x159 JUMPI DUP1 PUSH4 0x44DF8E70 GT PUSH2 0x133 JUMPI DUP1 PUSH4 0x44DF8E70 EQ PUSH2 0x359 JUMPI DUP1 PUSH4 0x44F38756 EQ PUSH2 0x384 JUMPI DUP1 PUSH4 0x4D853EE5 EQ PUSH2 0x3AF JUMPI DUP1 PUSH4 0x5ED7CA5B EQ PUSH2 0x3DA JUMPI PUSH2 0x1AF JUMP JUMPDEST DUP1 PUSH4 0x27E235E3 EQ PUSH2 0x2C6 JUMPI DUP1 PUSH4 0x313CE567 EQ PUSH2 0x303 JUMPI DUP1 PUSH4 0x378AA701 EQ PUSH2 0x32E JUMPI PUSH2 0x1AF JUMP JUMPDEST DUP1 PUSH3 0x2E1316 EQ PUSH2 0x1B4 JUMPI DUP1 PUSH4 0x46F7DA2 EQ PUSH2 0x1DF JUMPI DUP1 PUSH4 0x6FDDE03 EQ PUSH2 0x1F6 JUMPI DUP1 PUSH4 0x95EA7B3 EQ PUSH2 0x221 JUMPI DUP1 PUSH4 0x18160DDD EQ PUSH2 0x25E JUMPI DUP1 PUSH4 0x23B872DD EQ PUSH2 0x289 JUMPI PUSH2 0x1AF JUMP JUMPDEST CALLDATASIZE PUSH2 0x1AF JUMPI PUSH2 0x1AC PUSH2 0x672 JUMP JUMPDEST POP STOP JUMPDEST PUSH1 0x0 DUP1 REVERT JUMPDEST CALLVALUE DUP1 ISZERO PUSH2 0x1C0 JUMPI PUSH1 0x0 DUP1 REVERT JUMPDEST POP PUSH2 0x1C9 PUSH2 0x8B8 JUMP JUMPDEST PUSH1 0x40 MLOAD PUSH2 0x1D6 SWAP2 SWAP1 PUSH2 0x165D JUMP JUMPDEST PUSH1 0x40 MLOAD DUP1 SWAP2 SUB SWAP1 RETURN JUMPDEST CALLVALUE DUP1 ISZERO PUSH2 0x1EB JUMPI PUSH1 0x0 DUP1 REVERT JUMPDEST POP PUSH2 0x1F4 PUSH2 0x8BE JUMP JUMPDEST STOP JUMPDEST CALLVALUE DUP1 ISZERO PUSH2 0x202 JUMPI PUSH1 0x0 DUP1 REVERT JUMPDEST POP PUSH2 0x20B PUSH2 0x945 JUMP JUMPDEST PUSH1 0x40 MLOAD PUSH2 0x218 SWAP2 SWAP1 PUSH2 0x163B JUMP JUMPDEST PUSH1 0x40 MLOAD DUP1 SWAP2 SUB SWAP1 RETURN JUMPDEST CALLVALUE DUP1 ISZERO PUSH2 0x22D JUMPI PUSH1 0x0 DUP1 REVERT JUMPDEST POP PUSH2 0x248 PUSH1 0x4 DUP1 CALLDATASIZE SUB DUP2 ADD SWAP1 PUSH2 0x243 SWAP2 SWAP1 PUSH2 0x14D4 JUMP JUMPDEST PUSH2 0x9D3 JUMP JUMPDEST PUSH1 0x40 MLOAD PUSH2 0x255 SWAP2 SWAP1 PUSH2 0x1605 JUMP JUMPDEST PUSH1 0x40 MLOAD DUP1 SWAP2 SUB SWAP1 RETURN JUMPDEST CALLVALUE DUP1 ISZERO PUSH2 0x26A JUMPI PUSH1 0x0 DUP1 REVERT JUMPDEST POP PUSH2 0x273 PUSH2 0xB1E JUMP JUMPDEST PUSH1 0x40 MLOAD PUSH2 0x280 SWAP2 SWAP1 PUSH2 0x165D JUMP JUMPDEST PUSH1 0x40 MLOAD DUP1 SWAP2 SUB SWAP1 RETURN JUMPDEST CALLVALUE DUP1 ISZERO PUSH2 0x295 JUMPI PUSH1 0x0 DUP1 REVERT JUMPDEST POP PUSH2 0x2B0 PUSH1 0x4 DUP1 CALLDATASIZE SUB DUP2 ADD SWAP1 PUSH2 0x2AB SWAP2 SWAP1 PUSH2 0x1481 JUMP JUMPDEST PUSH2 0xB24 JUMP JUMPDEST PUSH1 0x40 MLOAD PUSH2 0x2BD SWAP2 SWAP1 PUSH2 0x1605 JUMP JUMPDEST PUSH1 0x40 MLOAD DUP1 SWAP2 SUB SWAP1 RETURN JUMPDEST CALLVALUE DUP1 ISZERO PUSH2 0x2D2 JUMPI PUSH1 0x0 DUP1 REVERT JUMPDEST POP PUSH2 0x2ED PUSH1 0x4 DUP1 CALLDATASIZE SUB DUP2 ADD SWAP1 PUSH2 0x2E8 SWAP2 SWAP1 PUSH2 0x13E7 JUMP JUMPDEST PUSH2 0xB4B JUMP JUMPDEST PUSH1 0x40 MLOAD PUSH2 0x2FA SWAP2 SWAP1 PUSH2 0x165D JUMP JUMPDEST PUSH1 0x40 MLOAD DUP1 SWAP2 SUB SWAP1 RETURN JUMPDEST CALLVALUE DUP1 ISZERO PUSH2 0x30F JUMPI PUSH1 0x0 DUP1 REVERT JUMPDEST POP PUSH2 0x318 PUSH2 0xB63 JUMP JUMPDEST PUSH1 0x40 MLOAD PUSH2 0x325 SWAP2 SWAP1 PUSH2 0x165D JUMP JUMPDEST PUSH1 0x40 MLOAD DUP1 SWAP2 SUB SWAP1 RETURN JUMPDEST CALLVALUE DUP1 ISZERO PUSH2 0x33A JUMPI PUSH1 0x0 DUP1 REVERT JUMPDEST POP PUSH2 0x343 PUSH2 0xB69 JUMP JUMPDEST PUSH1 0x40 MLOAD PUSH2 0x350 SWAP2 SWAP1 PUSH2 0x1620 JUMP JUMPDEST PUSH1 0x40 MLOAD DUP1 SWAP2 SUB SWAP1 RETURN JUMPDEST CALLVALUE DUP1 ISZERO PUSH2 0x365 JUMPI PUSH1 0x0 DUP1 REVERT JUMPDEST POP PUSH2 0x36E PUSH2 0xBEC JUMP JUMPDEST PUSH1 0x40 MLOAD PUSH2 0x37B SWAP2 SWAP1 PUSH2 0x1605 JUMP JUMPDEST PUSH1 0x40 MLOAD DUP1 SWAP2 SUB SWAP1 RETURN JUMPDEST CALLVALUE DUP1 ISZERO PUSH2 0x390 JUMPI PUSH1 0x0 DUP1 REVERT JUMPDEST POP PUSH2 0x399 PUSH2 0xCCD JUMP JUMPDEST PUSH1 0x40 MLOAD PUSH2 0x3A6 SWAP2 SWAP1 PUSH2 0x1620 JUMP JUMPDEST PUSH1 0x40 MLOAD DUP1 SWAP2 SUB SWAP1 RETURN JUMPDEST CALLVALUE DUP1 ISZERO PUSH2 0x3BB JUMPI PUSH1 0x0 DUP1 REVERT JUMPDEST POP PUSH2 0x3C4 PUSH2 0xCE0 JUMP JUMPDEST PUSH1 0x40 MLOAD PUSH2 0x3D1 SWAP2 SWAP1 PUSH2 0x1598 JUMP JUMPDEST PUSH1 0x40 MLOAD DUP1 SWAP2 SUB SWAP1 RETURN JUMPDEST CALLVALUE DUP1 ISZERO PUSH2 0x3E6 JUMPI PUSH1 0x0 DUP1 REVERT JUMPDEST POP PUSH2 0x3EF PUSH2 0xD06 JUMP JUMPDEST STOP JUMPDEST CALLVALUE DUP1 ISZERO PUSH2 0x3FD JUMPI PUSH1 0x0 DUP1 REVERT JUMPDEST POP PUSH2 0x418 PUSH1 0x4 DUP1 CALLDATASIZE SUB DUP2 ADD SWAP1 PUSH2 0x413 SWAP2 SWAP1 PUSH2 0x1414 JUMP JUMPDEST PUSH2 0xD8D JUMP JUMPDEST STOP JUMPDEST CALLVALUE DUP1 ISZERO PUSH2 0x426 JUMPI PUSH1 0x0 DUP1 REVERT JUMPDEST POP PUSH2 0x441 PUSH1 0x4 DUP1 CALLDATASIZE SUB DUP2 ADD SWAP1 PUSH2 0x43C SWAP2 SWAP1 PUSH2 0x13E7 JUMP JUMPDEST PUSH2 0xE2B JUMP JUMPDEST PUSH1 0x40 MLOAD PUSH2 0x44E SWAP2 SWAP1 PUSH2 0x165D JUMP JUMPDEST PUSH1 0x40 MLOAD DUP1 SWAP2 SUB SWAP1 RETURN JUMPDEST CALLVALUE DUP1 ISZERO PUSH2 0x463 JUMPI PUSH1 0x0 DUP1 REVERT JUMPDEST POP PUSH2 0x46C PUSH2 0xE74 JUMP JUMPDEST PUSH1 0x40 MLOAD PUSH2 0x479 SWAP2 SWAP1 PUSH2 0x165D JUMP JUMPDEST PUSH1 0x40 MLOAD DUP1 SWAP2 SUB SWAP1 RETURN JUMPDEST CALLVALUE DUP1 ISZERO PUSH2 0x48E JUMPI PUSH1 0x0 DUP1 REVERT JUMPDEST POP PUSH2 0x497 PUSH2 0xE7A JUMP JUMPDEST PUSH1 0x40 MLOAD PUSH2 0x4A4 SWAP2 SWAP1 PUSH2 0x163B JUMP JUMPDEST PUSH1 0x40 MLOAD DUP1 SWAP2 SUB SWAP1 RETURN JUMPDEST CALLVALUE DUP1 ISZERO PUSH2 0x4B9 JUMPI PUSH1 0x0 DUP1 REVERT JUMPDEST POP PUSH2 0x4D4 PUSH1 0x4 DUP1 CALLDATASIZE SUB DUP2 ADD SWAP1 PUSH2 0x4CF SWAP2 SWAP1 PUSH2 0x14D4 JUMP JUMPDEST PUSH2 0xF08 JUMP JUMPDEST PUSH1 0x40 MLOAD PUSH2 0x4E1 SWAP2 SWAP1 PUSH2 0x1605 JUMP JUMPDEST PUSH1 0x40 MLOAD DUP1 SWAP2 SUB SWAP1 RETURN JUMPDEST CALLVALUE DUP1 ISZERO PUSH2 0x4F6 JUMPI PUSH1 0x0 DUP1 REVERT JUMPDEST POP PUSH2 0x4FF PUSH2 0xF2D JUMP JUMPDEST PUSH1 0x40 MLOAD PUSH2 0x50C SWAP2 SWAP1 PUSH2 0x165D JUMP JUMPDEST PUSH1 0x40 MLOAD DUP1 SWAP2 SUB SWAP1 RETURN JUMPDEST CALLVALUE DUP1 ISZERO PUSH2 0x521 JUMPI PUSH1 0x0 DUP1 REVERT JUMPDEST POP PUSH2 0x52A PUSH2 0xF33 JUMP JUMPDEST PUSH1 0x40 MLOAD PUSH2 0x537 SWAP2 SWAP1 PUSH2 0x165D JUMP JUMPDEST PUSH1 0x40 MLOAD DUP1 SWAP2 SUB SWAP1 RETURN JUMPDEST CALLVALUE DUP1 ISZERO PUSH2 0x54C JUMPI PUSH1 0x0 DUP1 REVERT JUMPDEST POP PUSH2 0x555 PUSH2 0xF39 JUMP JUMPDEST PUSH1 0x40 MLOAD PUSH2 0x562 SWAP2 SWAP1 PUSH2 0x165D JUMP JUMPDEST PUSH1 0x40 MLOAD DUP1 SWAP2 SUB SWAP1 RETURN JUMPDEST CALLVALUE DUP1 ISZERO PUSH2 0x577 JUMPI PUSH1 0x0 DUP1 REVERT JUMPDEST POP PUSH2 0x580 PUSH2 0xF3F JUMP JUMPDEST PUSH1 0x40 MLOAD PUSH2 0x58D SWAP2 SWAP1 PUSH2 0x165D JUMP JUMPDEST PUSH1 0x40 MLOAD DUP1 SWAP2 SUB SWAP1 RETURN JUMPDEST CALLVALUE DUP1 ISZERO PUSH2 0x5A2 JUMPI PUSH1 0x0 DUP1 REVERT JUMPDEST POP PUSH2 0x5AB PUSH2 0xF45 JUMP JUMPDEST PUSH1 0x40 MLOAD PUSH2 0x5B8 SWAP2 SWAP1 PUSH2 0x15B3 JUMP JUMPDEST PUSH1 0x40 MLOAD DUP1 SWAP2 SUB SWAP1 RETURN JUMPDEST CALLVALUE DUP1 ISZERO PUSH2 0x5CD JUMPI PUSH1 0x0 DUP1 REVERT JUMPDEST POP PUSH2 0x5E8 PUSH1 0x4 DUP1 CALLDATASIZE SUB DUP2 ADD SWAP1 PUSH2 0x5E3 SWAP2 SWAP1 PUSH2 0x1441 JUMP JUMPDEST PUSH2 0xF6B JUMP JUMPDEST PUSH1 0x40 MLOAD PUSH2 0x5F5 SWAP2 SWAP1 PUSH2 0x165D JUMP JUMPDEST PUSH1 0x40 MLOAD DUP1 SWAP2 SUB SWAP1 RETURN JUMPDEST PUSH2 0x606 PUSH2 0x672 JUMP JUMPDEST PUSH1 0x40 MLOAD PUSH2 0x613 SWAP2 SWAP1 PUSH2 0x1605 JUMP JUMPDEST PUSH1 0x40 MLOAD DUP1 SWAP2 SUB SWAP1 RETURN JUMPDEST CALLVALUE DUP1 ISZERO PUSH2 0x628 JUMPI PUSH1 0x0 DUP1 REVERT JUMPDEST POP PUSH2 0x631 PUSH2 0xFF2 JUMP JUMPDEST PUSH1 0x40 MLOAD PUSH2 0x63E SWAP2 SWAP1 PUSH2 0x1598 JUMP JUMPDEST PUSH1 0x40 MLOAD DUP1 SWAP2 SUB SWAP1 RETURN JUMPDEST CALLVALUE DUP1 ISZERO PUSH2 0x653 JUMPI PUSH1 0x0 DUP1 REVERT JUMPDEST POP PUSH2 0x65C PUSH2 0x1018 JUMP JUMPDEST PUSH1 0x40 MLOAD PUSH2 0x669 SWAP2 SWAP1 PUSH2 0x165D JUMP JUMPDEST PUSH1 0x40 MLOAD DUP1 SWAP2 SUB SWAP1 RETURN JUMPDEST PUSH1 0x0 PUSH2 0x67C PUSH2 0xB69 JUMP JUMPDEST PUSH1 0x11 PUSH1 0x0 PUSH2 0x100 EXP DUP2 SLOAD DUP2 PUSH1 0xFF MUL NOT AND SWAP1 DUP4 PUSH1 0x3 DUP2 GT ISZERO PUSH2 0x6A0 JUMPI PUSH2 0x69F PUSH2 0x1891 JUMP JUMPDEST JUMPDEST MUL OR SWAP1 SSTORE POP PUSH1 0x1 PUSH1 0x3 DUP2 GT ISZERO PUSH2 0x6B9 JUMPI PUSH2 0x6B8 PUSH2 0x1891 JUMP JUMPDEST JUMPDEST PUSH1 0x11 PUSH1 0x0 SWAP1 SLOAD SWAP1 PUSH2 0x100 EXP SWAP1 DIV PUSH1 0xFF AND PUSH1 0x3 DUP2 GT ISZERO PUSH2 0x6DB JUMPI PUSH2 0x6DA PUSH2 0x1891 JUMP JUMPDEST JUMPDEST EQ PUSH2 0x6E5 JUMPI PUSH1 0x0 DUP1 REVERT JUMPDEST PUSH1 0x10 SLOAD CALLVALUE LT ISZERO DUP1 ISZERO PUSH2 0x6F9 JUMPI POP PUSH1 0xF SLOAD CALLVALUE GT ISZERO JUMPDEST PUSH2 0x702 JUMPI PUSH1 0x0 DUP1 REVERT JUMPDEST CALLVALUE PUSH1 0xB PUSH1 0x0 DUP3 DUP3 SLOAD PUSH2 0x714 SWAP2 SWAP1 PUSH2 0x1694 JUMP JUMPDEST SWAP3 POP POP DUP2 SWAP1 SSTORE POP PUSH1 0xA SLOAD PUSH1 0xB SLOAD GT ISZERO PUSH2 0x72C JUMPI PUSH1 0x0 DUP1 REVERT JUMPDEST PUSH1 0x0 PUSH1 0x9 SLOAD CALLVALUE PUSH2 0x73C SWAP2 SWAP1 PUSH2 0x16EA JUMP JUMPDEST SWAP1 POP DUP1 PUSH1 0x5 PUSH1 0x0 CALLER PUSH20 0xFFFFFFFFFFFFFFFFFFFFFFFFFFFFFFFFFFFFFFFF AND PUSH20 0xFFFFFFFFFFFFFFFFFFFFFFFFFFFFFFFFFFFFFFFF AND DUP2 MSTORE PUSH1 0x20 ADD SWAP1 DUP2 MSTORE PUSH1 0x20 ADD PUSH1 0x0 KECCAK256 PUSH1 0x0 DUP3 DUP3 SLOAD PUSH2 0x78D SWAP2 SWAP1 PUSH2 0x1694 JUMP JUMPDEST SWAP3 POP POP DUP2 SWAP1 SSTORE POP DUP1 PUSH1 0x5 PUSH1 0x0 PUSH1 0x4 PUSH1 0x0 SWAP1 SLOAD SWAP1 PUSH2 0x100 EXP SWAP1 DIV PUSH20 0xFFFFFFFFFFFFFFFFFFFFFFFFFFFFFFFFFFFFFFFF AND PUSH20 0xFFFFFFFFFFFFFFFFFFFFFFFFFFFFFFFFFFFFFFFF AND PUSH20 0xFFFFFFFFFFFFFFFFFFFFFFFFFFFFFFFFFFFFFFFF AND DUP2 MSTORE PUSH1 0x20 ADD SWAP1 DUP2 MSTORE PUSH1 0x20 ADD PUSH1 0x0 KECCAK256 PUSH1 0x0 DUP3 DUP3 SLOAD PUSH2 0x805 SWAP2 SWAP1 PUSH2 0x171B JUMP JUMPDEST SWAP3 POP POP DUP2 SWAP1 SSTORE POP PUSH1 0x8 PUSH1 0x0 SWAP1 SLOAD SWAP1 PUSH2 0x100 EXP SWAP1 DIV PUSH20 0xFFFFFFFFFFFFFFFFFFFFFFFFFFFFFFFFFFFFFFFF AND PUSH20 0xFFFFFFFFFFFFFFFFFFFFFFFFFFFFFFFFFFFFFFFF AND PUSH2 0x8FC CALLVALUE SWAP1 DUP2 ISZERO MUL SWAP1 PUSH1 0x40 MLOAD PUSH1 0x0 PUSH1 0x40 MLOAD DUP1 DUP4 SUB DUP2 DUP6 DUP9 DUP9 CALL SWAP4 POP POP POP POP ISZERO DUP1 ISZERO PUSH2 0x874 JUMPI RETURNDATASIZE PUSH1 0x0 DUP1 RETURNDATACOPY RETURNDATASIZE PUSH1 0x0 REVERT JUMPDEST POP PUSH32 0x4AE4BD7655E0D350876A23CD90C4227B13DB560E34435C6A488150A9C844BF5F CALLER CALLVALUE DUP4 PUSH1 0x40 MLOAD PUSH2 0x8A8 SWAP4 SWAP3 SWAP2 SWAP1 PUSH2 0x15CE JUMP JUMPDEST PUSH1 0x40 MLOAD DUP1 SWAP2 SUB SWAP1 LOG1 PUSH1 0x1 SWAP2 POP POP SWAP1 JUMP JUMPDEST PUSH1 0xF SLOAD DUP2 JUMP JUMPDEST PUSH1 0x7 PUSH1 0x0 SWAP1 SLOAD SWAP1 PUSH2 0x100 EXP SWAP1 DIV PUSH20 0xFFFFFFFFFFFFFFFFFFFFFFFFFFFFFFFFFFFFFFFF AND PUSH20 0xFFFFFFFFFFFFFFFFFFFFFFFFFFFFFFFFFFFFFFFF AND CALLER PUSH20 0xFFFFFFFFFFFFFFFFFFFFFFFFFFFFFFFFFFFFFFFF AND EQ PUSH2 0x918 JUMPI PUSH1 0x0 DUP1 REVERT JUMPDEST PUSH1 0x1 PUSH1 0x11 PUSH1 0x0 PUSH2 0x100 EXP DUP2 SLOAD DUP2 PUSH1 0xFF MUL NOT AND SWAP1 DUP4 PUSH1 0x3 DUP2 GT ISZERO PUSH2 0x93E JUMPI PUSH2 0x93D PUSH2 0x1891 JUMP JUMPDEST JUMPDEST MUL OR SWAP1 SSTORE POP JUMP JUMPDEST PUSH1 0x0 DUP1 SLOAD PUSH2 0x952 SWAP1 PUSH2 0x1801 JUMP JUMPDEST DUP1 PUSH1 0x1F ADD PUSH1 0x20 DUP1 SWAP2 DIV MUL PUSH1 0x20 ADD PUSH1 0x40 MLOAD SWAP1 DUP2 ADD PUSH1 0x40 MSTORE DUP1 SWAP3 SWAP2 SWAP1 DUP2 DUP2 MSTORE PUSH1 0x20 ADD DUP3 DUP1 SLOAD PUSH2 0x97E SWAP1 PUSH2 0x1801 JUMP JUMPDEST DUP1 ISZERO PUSH2 0x9CB JUMPI DUP1 PUSH1 0x1F LT PUSH2 0x9A0 JUMPI PUSH2 0x100 DUP1 DUP4 SLOAD DIV MUL DUP4 MSTORE SWAP2 PUSH1 0x20 ADD SWAP2 PUSH2 0x9CB JUMP JUMPDEST DUP3 ADD SWAP2 SWAP1 PUSH1 0x0 MSTORE PUSH1 0x20 PUSH1 0x0 KECCAK256 SWAP1 JUMPDEST DUP2 SLOAD DUP2 MSTORE SWAP1 PUSH1 0x1 ADD SWAP1 PUSH1 0x20 ADD DUP1 DUP4 GT PUSH2 0x9AE JUMPI DUP3 SWAP1 SUB PUSH1 0x1F AND DUP3 ADD SWAP2 JUMPDEST POP POP POP POP POP DUP2 JUMP JUMPDEST PUSH1 0x0 DUP2 PUSH1 0x5 PUSH1 0x0 CALLER PUSH20 0xFFFFFFFFFFFFFFFFFFFFFFFFFFFFFFFFFFFFFFFF AND PUSH20 0xFFFFFFFFFFFFFFFFFFFFFFFFFFFFFFFFFFFFFFFF AND DUP2 MSTORE PUSH1 0x20 ADD SWAP1 DUP2 MSTORE PUSH1 0x20 ADD PUSH1 0x0 KECCAK256 SLOAD LT ISZERO PUSH2 0xA21 JUMPI PUSH1 0x0 DUP1 REVERT JUMPDEST PUSH1 0x0 DUP3 GT PUSH2 0xA2E JUMPI PUSH1 0x0 DUP1 REVERT JUMPDEST DUP2 PUSH1 0x6 PUSH1 0x0 CALLER PUSH20 0xFFFFFFFFFFFFFFFFFFFFFFFFFFFFFFFFFFFFFFFF AND PUSH20 0xFFFFFFFFFFFFFFFFFFFFFFFFFFFFFFFFFFFFFFFF AND DUP2 MSTORE PUSH1 0x20 ADD SWAP1 DUP2 MSTORE PUSH1 0x20 ADD PUSH1 0x0 KECCAK256 PUSH1 0x0 DUP6 PUSH20 0xFFFFFFFFFFFFFFFFFFFFFFFFFFFFFFFFFFFFFFFF AND PUSH20 0xFFFFFFFFFFFFFFFFFFFFFFFFFFFFFFFFFFFFFFFF AND DUP2 MSTORE PUSH1 0x20 ADD SWAP1 DUP2 MSTORE PUSH1 0x20 ADD PUSH1 0x0 KECCAK256 DUP2 SWAP1 SSTORE POP DUP3 PUSH20 0xFFFFFFFFFFFFFFFFFFFFFFFFFFFFFFFFFFFFFFFF AND CALLER PUSH20 0xFFFFFFFFFFFFFFFFFFFFFFFFFFFFFFFFFFFFFFFF AND PUSH32 0x8C5BE1E5EBEC7D5BD14F71427D1E84F3DD0314C0F7B2291E5B200AC8C7C3B925 DUP5 PUSH1 0x40 MLOAD PUSH2 0xB0C SWAP2 SWAP1 PUSH2 0x165D JUMP JUMPDEST PUSH1 0x40 MLOAD DUP1 SWAP2 SUB SWAP1 LOG3 PUSH1 0x1 SWAP1 POP SWAP3 SWAP2 POP POP JUMP JUMPDEST PUSH1 0x3 SLOAD DUP2 JUMP JUMPDEST PUSH1 0x0 PUSH1 0xE SLOAD TIMESTAMP GT PUSH2 0xB34 JUMPI PUSH1 0x0 DUP1 REVERT JUMPDEST PUSH2 0xB3F DUP5 DUP5 DUP5 PUSH2 0x101E JUMP JUMPDEST POP PUSH1 0x1 SWAP1 POP SWAP4 SWAP3 POP POP POP JUMP JUMPDEST PUSH1 0x5 PUSH1 0x20 MSTORE DUP1 PUSH1 0x0 MSTORE PUSH1 0x40 PUSH1 0x0 KECCAK256 PUSH1 0x0 SWAP2 POP SWAP1 POP SLOAD DUP2 JUMP JUMPDEST PUSH1 0x2 SLOAD DUP2 JUMP JUMPDEST PUSH1 0x0 PUSH1 0x3 DUP1 DUP2 GT ISZERO PUSH2 0xB7E JUMPI PUSH2 0xB7D PUSH2 0x1891 JUMP JUMPDEST JUMPDEST PUSH1 0x11 PUSH1 0x0 SWAP1 SLOAD SWAP1 PUSH2 0x100 EXP SWAP1 DIV PUSH1 0xFF AND PUSH1 0x3 DUP2 GT ISZERO PUSH2 0xBA0 JUMPI PUSH2 0xB9F PUSH2 0x1891 JUMP JUMPDEST JUMPDEST EQ ISZERO PUSH2 0xBAF JUMPI PUSH1 0x3 SWAP1 POP PUSH2 0xBE9 JUMP JUMPDEST PUSH1 0xC SLOAD TIMESTAMP LT ISZERO PUSH2 0xBC2 JUMPI PUSH1 0x0 SWAP1 POP PUSH2 0xBE9 JUMP JUMPDEST PUSH1 0xC SLOAD TIMESTAMP LT ISZERO DUP1 ISZERO PUSH2 0xBD6 JUMPI POP PUSH1 0xD SLOAD TIMESTAMP GT ISZERO JUMPDEST ISZERO PUSH2 0xBE4 JUMPI PUSH1 0x1 SWAP1 POP PUSH2 0xBE9 JUMP JUMPDEST PUSH1 0x2 SWAP1 POP JUMPDEST SWAP1 JUMP JUMPDEST PUSH1 0x0 PUSH2 0xBF6 PUSH2 0xB69 JUMP JUMPDEST PUSH1 0x11 PUSH1 0x0 PUSH2 0x100 EXP DUP2 SLOAD DUP2 PUSH1 0xFF MUL NOT AND SWAP1 DUP4 PUSH1 0x3 DUP2 GT ISZERO PUSH2 0xC1A JUMPI PUSH2 0xC19 PUSH2 0x1891 JUMP JUMPDEST JUMPDEST MUL OR SWAP1 SSTORE POP PUSH1 0x2 PUSH1 0x3 DUP2 GT ISZERO PUSH2 0xC33 JUMPI PUSH2 0xC32 PUSH2 0x1891 JUMP JUMPDEST JUMPDEST PUSH1 0x11 PUSH1 0x0 SWAP1 SLOAD SWAP1 PUSH2 0x100 EXP SWAP1 DIV PUSH1 0xFF AND PUSH1 0x3 DUP2 GT ISZERO PUSH2 0xC55 JUMPI PUSH2 0xC54 PUSH2 0x1891 JUMP JUMPDEST JUMPDEST EQ PUSH2 0xC5F JUMPI PUSH1 0x0 DUP1 REVERT JUMPDEST PUSH1 0x0 PUSH1 0x5 PUSH1 0x0 PUSH1 0x4 PUSH1 0x0 SWAP1 SLOAD SWAP1 PUSH2 0x100 EXP SWAP1 DIV PUSH20 0xFFFFFFFFFFFFFFFFFFFFFFFFFFFFFFFFFFFFFFFF AND PUSH20 0xFFFFFFFFFFFFFFFFFFFFFFFFFFFFFFFFFFFFFFFF AND PUSH20 0xFFFFFFFFFFFFFFFFFFFFFFFFFFFFFFFFFFFFFFFF AND DUP2 MSTORE PUSH1 0x20 ADD SWAP1 DUP2 MSTORE PUSH1 0x20 ADD PUSH1 0x0 KECCAK256 DUP2 SWAP1 SSTORE POP PUSH1 0x1 SWAP1 POP SWAP1 JUMP JUMPDEST PUSH1 0x11 PUSH1 0x0 SWAP1 SLOAD SWAP1 PUSH2 0x100 EXP SWAP1 DIV PUSH1 0xFF AND DUP2 JUMP JUMPDEST PUSH1 0x4 PUSH1 0x0 SWAP1 SLOAD SWAP1 PUSH2 0x100 EXP SWAP1 DIV PUSH20 0xFFFFFFFFFFFFFFFFFFFFFFFFFFFFFFFFFFFFFFFF AND DUP2 JUMP JUMPDEST PUSH1 0x7 PUSH1 0x0 SWAP1 SLOAD SWAP1 PUSH2 0x100 EXP SWAP1 DIV PUSH20 0xFFFFFFFFFFFFFFFFFFFFFFFFFFFFFFFFFFFFFFFF AND PUSH20 0xFFFFFFFFFFFFFFFFFFFFFFFFFFFFFFFFFFFFFFFF AND CALLER PUSH20 0xFFFFFFFFFFFFFFFFFFFFFFFFFFFFFFFFFFFFFFFF AND EQ PUSH2 0xD60 JUMPI PUSH1 0x0 DUP1 REVERT JUMPDEST PUSH1 0x3 PUSH1 0x11 PUSH1 0x0 PUSH2 0x100 EXP DUP2 SLOAD DUP2 PUSH1 0xFF MUL NOT AND SWAP1 DUP4 PUSH1 0x3 DUP2 GT ISZERO PUSH2 0xD86 JUMPI PUSH2 0xD85 PUSH2 0x1891 JUMP JUMPDEST JUMPDEST MUL OR SWAP1 SSTORE POP JUMP JUMPDEST PUSH1 0x7 PUSH1 0x0 SWAP1 SLOAD SWAP1 PUSH2 0x100 EXP SWAP1 DIV PUSH20 0xFFFFFFFFFFFFFFFFFFFFFFFFFFFFFFFFFFFFFFFF AND PUSH20 0xFFFFFFFFFFFFFFFFFFFFFFFFFFFFFFFFFFFFFFFF AND CALLER PUSH20 0xFFFFFFFFFFFFFFFFFFFFFFFFFFFFFFFFFFFFFFFF AND EQ PUSH2 0xDE7 JUMPI PUSH1 0x0 DUP1 REVERT JUMPDEST DUP1 PUSH1 0x8 PUSH1 0x0 PUSH2 0x100 EXP DUP2 SLOAD DUP2 PUSH20 0xFFFFFFFFFFFFFFFFFFFFFFFFFFFFFFFFFFFFFFFF MUL NOT AND SWAP1 DUP4 PUSH20 0xFFFFFFFFFFFFFFFFFFFFFFFFFFFFFFFFFFFFFFFF AND MUL OR SWAP1 SSTORE POP POP JUMP JUMPDEST PUSH1 0x0 PUSH1 0x5 PUSH1 0x0 DUP4 PUSH20 0xFFFFFFFFFFFFFFFFFFFFFFFFFFFFFFFFFFFFFFFF AND PUSH20 0xFFFFFFFFFFFFFFFFFFFFFFFFFFFFFFFFFFFFFFFF AND DUP2 MSTORE PUSH1 0x20 ADD SWAP1 DUP2 MSTORE PUSH1 0x20 ADD PUSH1 0x0 KECCAK256 SLOAD SWAP1 POP SWAP2 SWAP1 POP JUMP JUMPDEST PUSH1 0x10 SLOAD DUP2 JUMP JUMPDEST PUSH1 0x1 DUP1 SLOAD PUSH2 0xE87 SWAP1 PUSH2 0x1801 JUMP JUMPDEST DUP1 PUSH1 0x1F ADD PUSH1 0x20 DUP1 SWAP2 DIV MUL PUSH1 0x20 ADD PUSH1 0x40 MLOAD SWAP1 DUP2 ADD PUSH1 0x40 MSTORE DUP1 SWAP3 SWAP2 SWAP1 DUP2 DUP2 MSTORE PUSH1 0x20 ADD DUP3 DUP1 SLOAD PUSH2 0xEB3 SWAP1 PUSH2 0x1801 JUMP JUMPDEST DUP1 ISZERO PUSH2 0xF00 JUMPI DUP1 PUSH1 0x1F LT PUSH2 0xED5 JUMPI PUSH2 0x100 DUP1 DUP4 SLOAD DIV MUL DUP4 MSTORE SWAP2 PUSH1 0x20 ADD SWAP2 PUSH2 0xF00 JUMP JUMPDEST DUP3 ADD SWAP2 SWAP1 PUSH1 0x0 MSTORE PUSH1 0x20 PUSH1 0x0 KECCAK256 SWAP1 JUMPDEST DUP2 SLOAD DUP2 MSTORE SWAP1 PUSH1 0x1 ADD SWAP1 PUSH1 0x20 ADD DUP1 DUP4 GT PUSH2 0xEE3 JUMPI DUP3 SWAP1 SUB PUSH1 0x1F AND DUP3 ADD SWAP2 JUMPDEST POP POP POP POP POP DUP2 JUMP JUMPDEST PUSH1 0x0 PUSH1 0xE SLOAD TIMESTAMP GT PUSH2 0xF18 JUMPI PUSH1 0x0 DUP1 REVERT JUMPDEST PUSH2 0xF22 DUP4 DUP4 PUSH2 0x123F JUMP JUMPDEST POP PUSH1 0x1 SWAP1 POP SWAP3 SWAP2 POP POP JUMP JUMPDEST PUSH1 0xC SLOAD DUP2 JUMP JUMPDEST PUSH1 0xD SLOAD DUP2 JUMP JUMPDEST PUSH1 0xB SLOAD DUP2 JUMP JUMPDEST PUSH1 0xE SLOAD DUP2 JUMP JUMPDEST PUSH1 0x8 PUSH1 0x0 SWAP1 SLOAD SWAP1 PUSH2 0x100 EXP SWAP1 DIV PUSH20 0xFFFFFFFFFFFFFFFFFFFFFFFFFFFFFFFFFFFFFFFF AND DUP2 JUMP JUMPDEST PUSH1 0x0 PUSH1 0x6 PUSH1 0x0 DUP5 PUSH20 0xFFFFFFFFFFFFFFFFFFFFFFFFFFFFFFFFFFFFFFFF AND PUSH20 0xFFFFFFFFFFFFFFFFFFFFFFFFFFFFFFFFFFFFFFFF AND DUP2 MSTORE PUSH1 0x20 ADD SWAP1 DUP2 MSTORE PUSH1 0x20 ADD PUSH1 0x0 KECCAK256 PUSH1 0x0 DUP4 PUSH20 0xFFFFFFFFFFFFFFFFFFFFFFFFFFFFFFFFFFFFFFFF AND PUSH20 0xFFFFFFFFFFFFFFFFFFFFFFFFFFFFFFFFFFFFFFFF AND DUP2 MSTORE PUSH1 0x20 ADD SWAP1 DUP2 MSTORE PUSH1 0x20 ADD PUSH1 0x0 KECCAK256 SLOAD SWAP1 POP SWAP3 SWAP2 POP POP JUMP JUMPDEST PUSH1 0x7 PUSH1 0x0 SWAP1 SLOAD SWAP1 PUSH2 0x100 EXP SWAP1 DIV PUSH20 0xFFFFFFFFFFFFFFFFFFFFFFFFFFFFFFFFFFFFFFFF AND DUP2 JUMP JUMPDEST PUSH1 0xA SLOAD DUP2 JUMP JUMPDEST PUSH1 0x0 DUP2 PUSH1 0x6 PUSH1 0x0 DUP7 PUSH20 0xFFFFFFFFFFFFFFFFFFFFFFFFFFFFFFFFFFFFFFFF AND PUSH20 0xFFFFFFFFFFFFFFFFFFFFFFFFFFFFFFFFFFFFFFFF AND DUP2 MSTORE PUSH1 0x20 ADD SWAP1 DUP2 MSTORE PUSH1 0x20 ADD PUSH1 0x0 KECCAK256 PUSH1 0x0 DUP6 PUSH20 0xFFFFFFFFFFFFFFFFFFFFFFFFFFFFFFFFFFFFFFFF AND PUSH20 0xFFFFFFFFFFFFFFFFFFFFFFFFFFFFFFFFFFFFFFFF AND DUP2 MSTORE PUSH1 0x20 ADD SWAP1 DUP2 MSTORE PUSH1 0x20 ADD PUSH1 0x0 KECCAK256 SLOAD LT ISZERO PUSH2 0x10A9 JUMPI PUSH1 0x0 DUP1 REVERT JUMPDEST DUP2 PUSH1 0x5 PUSH1 0x0 DUP7 PUSH20 0xFFFFFFFFFFFFFFFFFFFFFFFFFFFFFFFFFFFFFFFF AND PUSH20 0xFFFFFFFFFFFFFFFFFFFFFFFFFFFFFFFFFFFFFFFF AND DUP2 MSTORE PUSH1 0x20 ADD SWAP1 DUP2 MSTORE PUSH1 0x20 ADD PUSH1 0x0 KECCAK256 SLOAD LT ISZERO PUSH2 0x10F5 JUMPI PUSH1 0x0 DUP1 REVERT JUMPDEST DUP2 PUSH1 0x5 PUSH1 0x0 DUP7 PUSH20 0xFFFFFFFFFFFFFFFFFFFFFFFFFFFFFFFFFFFFFFFF AND PUSH20 0xFFFFFFFFFFFFFFFFFFFFFFFFFFFFFFFFFFFFFFFF AND DUP2 MSTORE PUSH1 0x20 ADD SWAP1 DUP2 MSTORE PUSH1 0x20 ADD PUSH1 0x0 KECCAK256 PUSH1 0x0 DUP3 DUP3 SLOAD PUSH2 0x1144 SWAP2 SWAP1 PUSH2 0x171B JUMP JUMPDEST SWAP3 POP POP DUP2 SWAP1 SSTORE POP DUP2 PUSH1 0x5 PUSH1 0x0 DUP6 PUSH20 0xFFFFFFFFFFFFFFFFFFFFFFFFFFFFFFFFFFFFFFFF AND PUSH20 0xFFFFFFFFFFFFFFFFFFFFFFFFFFFFFFFFFFFFFFFF AND DUP2 MSTORE PUSH1 0x20 ADD SWAP1 DUP2 MSTORE PUSH1 0x20 ADD PUSH1 0x0 KECCAK256 PUSH1 0x0 DUP3 DUP3 SLOAD PUSH2 0x119A SWAP2 SWAP1 PUSH2 0x1694 JUMP JUMPDEST SWAP3 POP POP DUP2 SWAP1 SSTORE POP DUP2 PUSH1 0x6 PUSH1 0x0 DUP7 PUSH20 0xFFFFFFFFFFFFFFFFFFFFFFFFFFFFFFFFFFFFFFFF AND PUSH20 0xFFFFFFFFFFFFFFFFFFFFFFFFFFFFFFFFFFFFFFFF AND DUP2 MSTORE PUSH1 0x20 ADD SWAP1 DUP2 MSTORE PUSH1 0x20 ADD PUSH1 0x0 KECCAK256 PUSH1 0x0 DUP6 PUSH20 0xFFFFFFFFFFFFFFFFFFFFFFFFFFFFFFFFFFFFFFFF AND PUSH20 0xFFFFFFFFFFFFFFFFFFFFFFFFFFFFFFFFFFFFFFFF AND DUP2 MSTORE PUSH1 0x20 ADD SWAP1 DUP2 MSTORE PUSH1 0x20 ADD PUSH1 0x0 KECCAK256 PUSH1 0x0 DUP3 DUP3 SLOAD PUSH2 0x122D SWAP2 SWAP1 PUSH2 0x171B JUMP JUMPDEST SWAP3 POP POP DUP2 SWAP1 SSTORE POP PUSH1 0x1 SWAP1 POP SWAP4 SWAP3 POP POP POP JUMP JUMPDEST PUSH1 0x0 DUP2 PUSH1 0x5 PUSH1 0x0 CALLER PUSH20 0xFFFFFFFFFFFFFFFFFFFFFFFFFFFFFFFFFFFFFFFF AND PUSH20 0xFFFFFFFFFFFFFFFFFFFFFFFFFFFFFFFFFFFFFFFF AND DUP2 MSTORE PUSH1 0x20 ADD SWAP1 DUP2 MSTORE PUSH1 0x20 ADD PUSH1 0x0 KECCAK256 SLOAD LT ISZERO PUSH2 0x128D JUMPI PUSH1 0x0 DUP1 REVERT JUMPDEST DUP2 PUSH1 0x5 PUSH1 0x0 DUP6 PUSH20 0xFFFFFFFFFFFFFFFFFFFFFFFFFFFFFFFFFFFFFFFF AND PUSH20 0xFFFFFFFFFFFFFFFFFFFFFFFFFFFFFFFFFFFFFFFF AND DUP2 MSTORE PUSH1 0x20 ADD SWAP1 DUP2 MSTORE PUSH1 0x20 ADD PUSH1 0x0 KECCAK256 PUSH1 0x0 DUP3 DUP3 SLOAD PUSH2 0x12DC SWAP2 SWAP1 PUSH2 0x1694 JUMP JUMPDEST SWAP3 POP POP DUP2 SWAP1 SSTORE POP DUP2 PUSH1 0x5 PUSH1 0x0 CALLER PUSH20 0xFFFFFFFFFFFFFFFFFFFFFFFFFFFFFFFFFFFFFFFF AND PUSH20 0xFFFFFFFFFFFFFFFFFFFFFFFFFFFFFFFFFFFFFFFF AND DUP2 MSTORE PUSH1 0x20 ADD SWAP1 DUP2 MSTORE PUSH1 0x20 ADD PUSH1 0x0 KECCAK256 PUSH1 0x0 DUP3 DUP3 SLOAD PUSH2 0x1332 SWAP2 SWAP1 PUSH2 0x171B JUMP JUMPDEST SWAP3 POP POP DUP2 SWAP1 SSTORE POP DUP3 PUSH20 0xFFFFFFFFFFFFFFFFFFFFFFFFFFFFFFFFFFFFFFFF AND CALLER PUSH20 0xFFFFFFFFFFFFFFFFFFFFFFFFFFFFFFFFFFFFFFFF AND PUSH32 0xDDF252AD1BE2C89B69C2B068FC378DAA952BA7F163C4A11628F55A4DF523B3EF DUP5 PUSH1 0x40 MLOAD PUSH2 0x1396 SWAP2 SWAP1 PUSH2 0x165D JUMP JUMPDEST PUSH1 0x40 MLOAD DUP1 SWAP2 SUB SWAP1 LOG3 PUSH1 0x1 SWAP1 POP SWAP3 SWAP2 POP POP JUMP JUMPDEST PUSH1 0x0 DUP2 CALLDATALOAD SWAP1 POP PUSH2 0x13B7 DUP2 PUSH2 0x1919 JUMP JUMPDEST SWAP3 SWAP2 POP POP JUMP JUMPDEST PUSH1 0x0 DUP2 CALLDATALOAD SWAP1 POP PUSH2 0x13CC DUP2 PUSH2 0x1930 JUMP JUMPDEST SWAP3 SWAP2 POP POP JUMP JUMPDEST PUSH1 0x0 DUP2 CALLDATALOAD SWAP1 POP PUSH2 0x13E1 DUP2 PUSH2 0x1947 JUMP JUMPDEST SWAP3 SWAP2 POP POP JUMP JUMPDEST PUSH1 0x0 PUSH1 0x20 DUP3 DUP5 SUB SLT ISZERO PUSH2 0x13FD JUMPI PUSH2 0x13FC PUSH2 0x18EF JUMP JUMPDEST JUMPDEST PUSH1 0x0 PUSH2 0x140B DUP5 DUP3 DUP6 ADD PUSH2 0x13A8 JUMP JUMPDEST SWAP2 POP POP SWAP3 SWAP2 POP POP JUMP JUMPDEST PUSH1 0x0 PUSH1 0x20 DUP3 DUP5 SUB SLT ISZERO PUSH2 0x142A JUMPI PUSH2 0x1429 PUSH2 0x18EF JUMP JUMPDEST JUMPDEST PUSH1 0x0 PUSH2 0x1438 DUP5 DUP3 DUP6 ADD PUSH2 0x13BD JUMP JUMPDEST SWAP2 POP POP SWAP3 SWAP2 POP POP JUMP JUMPDEST PUSH1 0x0 DUP1 PUSH1 0x40 DUP4 DUP6 SUB SLT ISZERO PUSH2 0x1458 JUMPI PUSH2 0x1457 PUSH2 0x18EF JUMP JUMPDEST JUMPDEST PUSH1 0x0 PUSH2 0x1466 DUP6 DUP3 DUP7 ADD PUSH2 0x13A8 JUMP JUMPDEST SWAP3 POP POP PUSH1 0x20 PUSH2 0x1477 DUP6 DUP3 DUP7 ADD PUSH2 0x13A8 JUMP JUMPDEST SWAP2 POP POP SWAP3 POP SWAP3 SWAP1 POP JUMP JUMPDEST PUSH1 0x0 DUP1 PUSH1 0x0 PUSH1 0x60 DUP5 DUP7 SUB SLT ISZERO PUSH2 0x149A JUMPI PUSH2 0x1499 PUSH2 0x18EF JUMP JUMPDEST JUMPDEST PUSH1 0x0 PUSH2 0x14A8 DUP7 DUP3 DUP8 ADD PUSH2 0x13A8 JUMP JUMPDEST SWAP4 POP POP PUSH1 0x20 PUSH2 0x14B9 DUP7 DUP3 DUP8 ADD PUSH2 0x13A8 JUMP JUMPDEST SWAP3 POP POP PUSH1 0x40 PUSH2 0x14CA DUP7 DUP3 DUP8 ADD PUSH2 0x13D2 JUMP JUMPDEST SWAP2 POP POP SWAP3 POP SWAP3 POP SWAP3 JUMP JUMPDEST PUSH1 0x0 DUP1 PUSH1 0x40 DUP4 DUP6 SUB SLT ISZERO PUSH2 0x14EB JUMPI PUSH2 0x14EA PUSH2 0x18EF JUMP JUMPDEST JUMPDEST PUSH1 0x0 PUSH2 0x14F9 DUP6 DUP3 DUP7 ADD PUSH2 0x13A8 JUMP JUMPDEST SWAP3 POP POP PUSH1 0x20 PUSH2 0x150A DUP6 DUP3 DUP7 ADD PUSH2 0x13D2 JUMP JUMPDEST SWAP2 POP POP SWAP3 POP SWAP3 SWAP1 POP JUMP JUMPDEST PUSH2 0x151D DUP2 PUSH2 0x1761 JUMP JUMPDEST DUP3 MSTORE POP POP JUMP JUMPDEST PUSH2 0x152C DUP2 PUSH2 0x174F JUMP JUMPDEST DUP3 MSTORE POP POP JUMP JUMPDEST PUSH2 0x153B DUP2 PUSH2 0x1773 JUMP JUMPDEST DUP3 MSTORE POP POP JUMP JUMPDEST PUSH2 0x154A DUP2 PUSH2 0x17BC JUMP JUMPDEST DUP3 MSTORE POP POP JUMP JUMPDEST PUSH1 0x0 PUSH2 0x155B DUP3 PUSH2 0x1678 JUMP JUMPDEST PUSH2 0x1565 DUP2 DUP6 PUSH2 0x1683 JUMP JUMPDEST SWAP4 POP PUSH2 0x1575 DUP2 DUP6 PUSH1 0x20 DUP7 ADD PUSH2 0x17CE JUMP JUMPDEST PUSH2 0x157E DUP2 PUSH2 0x18F4 JUMP JUMPDEST DUP5 ADD SWAP2 POP POP SWAP3 SWAP2 POP POP JUMP JUMPDEST PUSH2 0x1592 DUP2 PUSH2 0x17B2 JUMP JUMPDEST DUP3 MSTORE POP POP JUMP JUMPDEST PUSH1 0x0 PUSH1 0x20 DUP3 ADD SWAP1 POP PUSH2 0x15AD PUSH1 0x0 DUP4 ADD DUP5 PUSH2 0x1523 JUMP JUMPDEST SWAP3 SWAP2 POP POP JUMP JUMPDEST PUSH1 0x0 PUSH1 0x20 DUP3 ADD SWAP1 POP PUSH2 0x15C8 PUSH1 0x0 DUP4 ADD DUP5 PUSH2 0x1514 JUMP JUMPDEST SWAP3 SWAP2 POP POP JUMP JUMPDEST PUSH1 0x0 PUSH1 0x60 DUP3 ADD SWAP1 POP PUSH2 0x15E3 PUSH1 0x0 DUP4 ADD DUP7 PUSH2 0x1523 JUMP JUMPDEST PUSH2 0x15F0 PUSH1 0x20 DUP4 ADD DUP6 PUSH2 0x1589 JUMP JUMPDEST PUSH2 0x15FD PUSH1 0x40 DUP4 ADD DUP5 PUSH2 0x1589 JUMP JUMPDEST SWAP5 SWAP4 POP POP POP POP JUMP JUMPDEST PUSH1 0x0 PUSH1 0x20 DUP3 ADD SWAP1 POP PUSH2 0x161A PUSH1 0x0 DUP4 ADD DUP5 PUSH2 0x1532 JUMP JUMPDEST SWAP3 SWAP2 POP POP JUMP JUMPDEST PUSH1 0x0 PUSH1 0x20 DUP3 ADD SWAP1 POP PUSH2 0x1635 PUSH1 0x0 DUP4 ADD DUP5 PUSH2 0x1541 JUMP JUMPDEST SWAP3 SWAP2 POP POP JUMP JUMPDEST PUSH1 0x0 PUSH1 0x20 DUP3 ADD SWAP1 POP DUP2 DUP2 SUB PUSH1 0x0 DUP4 ADD MSTORE PUSH2 0x1655 DUP2 DUP5 PUSH2 0x1550 JUMP JUMPDEST SWAP1 POP SWAP3 SWAP2 POP POP JUMP JUMPDEST PUSH1 0x0 PUSH1 0x20 DUP3 ADD SWAP1 POP PUSH2 0x1672 PUSH1 0x0 DUP4 ADD DUP5 PUSH2 0x1589 JUMP JUMPDEST SWAP3 SWAP2 POP POP JUMP JUMPDEST PUSH1 0x0 DUP2 MLOAD SWAP1 POP SWAP2 SWAP1 POP JUMP JUMPDEST PUSH1 0x0 DUP3 DUP3 MSTORE PUSH1 0x20 DUP3 ADD SWAP1 POP SWAP3 SWAP2 POP POP JUMP JUMPDEST PUSH1 0x0 PUSH2 0x169F DUP3 PUSH2 0x17B2 JUMP JUMPDEST SWAP2 POP PUSH2 0x16AA DUP4 PUSH2 0x17B2 JUMP JUMPDEST SWAP3 POP DUP3 PUSH32 0xFFFFFFFFFFFFFFFFFFFFFFFFFFFFFFFFFFFFFFFFFFFFFFFFFFFFFFFFFFFFFFFF SUB DUP3 GT ISZERO PUSH2 0x16DF JUMPI PUSH2 0x16DE PUSH2 0x1833 JUMP JUMPDEST JUMPDEST DUP3 DUP3 ADD SWAP1 POP SWAP3 SWAP2 POP POP JUMP JUMPDEST PUSH1 0x0 PUSH2 0x16F5 DUP3 PUSH2 0x17B2 JUMP JUMPDEST SWAP2 POP PUSH2 0x1700 DUP4 PUSH2 0x17B2 JUMP JUMPDEST SWAP3 POP DUP3 PUSH2 0x1710 JUMPI PUSH2 0x170F PUSH2 0x1862 JUMP JUMPDEST JUMPDEST DUP3 DUP3 DIV SWAP1 POP SWAP3 SWAP2 POP POP JUMP JUMPDEST PUSH1 0x0 PUSH2 0x1726 DUP3 PUSH2 0x17B2 JUMP JUMPDEST SWAP2 POP PUSH2 0x1731 DUP4 PUSH2 0x17B2 JUMP JUMPDEST SWAP3 POP DUP3 DUP3 LT ISZERO PUSH2 0x1744 JUMPI PUSH2 0x1743 PUSH2 0x1833 JUMP JUMPDEST JUMPDEST DUP3 DUP3 SUB SWAP1 POP SWAP3 SWAP2 POP POP JUMP JUMPDEST PUSH1 0x0 PUSH2 0x175A DUP3 PUSH2 0x1792 JUMP JUMPDEST SWAP1 POP SWAP2 SWAP1 POP JUMP JUMPDEST PUSH1 0x0 PUSH2 0x176C DUP3 PUSH2 0x1792 JUMP JUMPDEST SWAP1 POP SWAP2 SWAP1 POP JUMP JUMPDEST PUSH1 0x0 DUP2 ISZERO ISZERO SWAP1 POP SWAP2 SWAP1 POP JUMP JUMPDEST PUSH1 0x0 DUP2 SWAP1 POP PUSH2 0x178D DUP3 PUSH2 0x1905 JUMP JUMPDEST SWAP2 SWAP1 POP JUMP JUMPDEST PUSH1 0x0 PUSH20 0xFFFFFFFFFFFFFFFFFFFFFFFFFFFFFFFFFFFFFFFF DUP3 AND SWAP1 POP SWAP2 SWAP1 POP JUMP JUMPDEST PUSH1 0x0 DUP2 SWAP1 POP SWAP2 SWAP1 POP JUMP JUMPDEST PUSH1 0x0 PUSH2 0x17C7 DUP3 PUSH2 0x177F JUMP JUMPDEST SWAP1 POP SWAP2 SWAP1 POP JUMP JUMPDEST PUSH1 0x0 JUMPDEST DUP4 DUP2 LT ISZERO PUSH2 0x17EC JUMPI DUP1 DUP3 ADD MLOAD DUP2 DUP5 ADD MSTORE PUSH1 0x20 DUP2 ADD SWAP1 POP PUSH2 0x17D1 JUMP JUMPDEST DUP4 DUP2 GT ISZERO PUSH2 0x17FB JUMPI PUSH1 0x0 DUP5 DUP5 ADD MSTORE JUMPDEST POP POP POP POP JUMP JUMPDEST PUSH1 0x0 PUSH1 0x2 DUP3 DIV SWAP1 POP PUSH1 0x1 DUP3 AND DUP1 PUSH2 0x1819 JUMPI PUSH1 0x7F DUP3 AND SWAP2 POP JUMPDEST PUSH1 0x20 DUP3 LT DUP2 EQ ISZERO PUSH2 0x182D JUMPI PUSH2 0x182C PUSH2 0x18C0 JUMP JUMPDEST JUMPDEST POP SWAP2 SWAP1 POP JUMP JUMPDEST PUSH32 0x4E487B7100000000000000000000000000000000000000000000000000000000 PUSH1 0x0 MSTORE PUSH1 0x11 PUSH1 0x4 MSTORE PUSH1 0x24 PUSH1 0x0 REVERT JUMPDEST PUSH32 0x4E487B7100000000000000000000000000000000000000000000000000000000 PUSH1 0x0 MSTORE PUSH1 0x12 PUSH1 0x4 MSTORE PUSH1 0x24 PUSH1 0x0 REVERT JUMPDEST PUSH32 0x4E487B7100000000000000000000000000000000000000000000000000000000 PUSH1 0x0 MSTORE PUSH1 0x21 PUSH1 0x4 MSTORE PUSH1 0x24 PUSH1 0x0 REVERT JUMPDEST PUSH32 0x4E487B7100000000000000000000000000000000000000000000000000000000 PUSH1 0x0 MSTORE PUSH1 0x22 PUSH1 0x4 MSTORE PUSH1 0x24 PUSH1 0x0 REVERT JUMPDEST PUSH1 0x0 DUP1 REVERT JUMPDEST PUSH1 0x0 PUSH1 0x1F NOT PUSH1 0x1F DUP4 ADD AND SWAP1 POP SWAP2 SWAP1 POP JUMP JUMPDEST PUSH1 0x4 DUP2 LT PUSH2 0x1916 JUMPI PUSH2 0x1915 PUSH2 0x1891 JUMP JUMPDEST JUMPDEST POP JUMP JUMPDEST PUSH2 0x1922 DUP2 PUSH2 0x174F JUMP JUMPDEST DUP2 EQ PUSH2 0x192D JUMPI PUSH1 0x0 DUP1 REVERT JUMPDEST POP JUMP JUMPDEST PUSH2 0x1939 DUP2 PUSH2 0x1761 JUMP JUMPDEST DUP2 EQ PUSH2 0x1944 JUMPI PUSH1 0x0 DUP1 REVERT JUMPDEST POP JUMP JUMPDEST PUSH2 0x1950 DUP2 PUSH2 0x17B2 JUMP JUMPDEST DUP2 EQ PUSH2 0x195B JUMPI PUSH1 0x0 DUP1 REVERT JUMPDEST POP JUMP INVALID LOG2 PUSH5 0x6970667358 0x22 SLT KECCAK256 0xD1 PUSH20 0x765D477DF856141D228E7DE44D6F8AE5BCBAD28A 0xBF SAR 0xB9 PUSH12 0x9779A794057F64736F6C6343 STOP ADDMOD SMOD STOP CALLER "
				},
				"gasEstimates": {
					"creation": {
						"codeDepositCost": "1309600",
						"executionCost": "infinite",
						"totalCost": "infinite"
					},
					"external": {
						"admin()": "2602",
						"allowance(address,address)": "infinite",
						"approve(address,uint256)": "infinite",
						"balanceOf(address)": "2909",
						"balances(address)": "2860",
						"burn()": "35332",
						"changeDepositAddress(address)": "26938",
						"decimals()": "2497",
						"deposit()": "2603",
						"founder()": "2603",
						"getCurrentState()": "9133",
						"halt()": "26712",
						"hardCap()": "2539",
						"icoState()": "2627",
						"invest()": "infinite",
						"maxInvestment()": "2453",
						"minInvestment()": "2519",
						"name()": "infinite",
						"raisedAmount()": "2474",
						"resume()": "26647",
						"saleEnd()": "2540",
						"saleStart()": "2518",
						"symbol()": "infinite",
						"tokenTradeStart()": "2496",
						"totalSupply()": "2541",
						"transfer(address,uint256)": "infinite",
						"transferFrom(address,address,uint256)": "infinite"
					}
				},
				"methodIdentifiers": {
					"admin()": "f851a440",
					"allowance(address,address)": "dd62ed3e",
					"approve(address,uint256)": "095ea7b3",
					"balanceOf(address)": "70a08231",
					"balances(address)": "27e235e3",
					"burn()": "44df8e70",
					"changeDepositAddress(address)": "6d58c88f",
					"decimals()": "313ce567",
					"deposit()": "d0e30db0",
					"founder()": "4d853ee5",
					"getCurrentState()": "378aa701",
					"halt()": "5ed7ca5b",
					"hardCap()": "fb86a404",
					"icoState()": "44f38756",
					"invest()": "e8b5e51f",
					"maxInvestment()": "002e1316",
					"minInvestment()": "8ac2c680",
					"name()": "06fdde03",
					"raisedAmount()": "c59ee1dc",
					"resume()": "046f7da2",
					"saleEnd()": "c10b9358",
					"saleStart()": "ab0bcc41",
					"symbol()": "95d89b41",
					"tokenTradeStart()": "cc9ba583",
					"totalSupply()": "18160ddd",
					"transfer(address,uint256)": "a9059cbb",
					"transferFrom(address,address,uint256)": "23b872dd"
				}
			},
			"storageLayout": {
				"storage": [
					{
						"astId": 73,
						"contract": "contracts/testContract.sol:CryptosICO",
						"label": "name",
						"offset": 0,
						"slot": "0",
						"type": "t_string_storage"
					},
					{
						"astId": 76,
						"contract": "contracts/testContract.sol:CryptosICO",
						"label": "symbol",
						"offset": 0,
						"slot": "1",
						"type": "t_string_storage"
					},
					{
						"astId": 79,
						"contract": "contracts/testContract.sol:CryptosICO",
						"label": "decimals",
						"offset": 0,
						"slot": "2",
						"type": "t_uint256"
					},
					{
						"astId": 82,
						"contract": "contracts/testContract.sol:CryptosICO",
						"label": "totalSupply",
						"offset": 0,
						"slot": "3",
						"type": "t_uint256"
					},
					{
						"astId": 84,
						"contract": "contracts/testContract.sol:CryptosICO",
						"label": "founder",
						"offset": 0,
						"slot": "4",
						"type": "t_address"
					},
					{
						"astId": 88,
						"contract": "contracts/testContract.sol:CryptosICO",
						"label": "balances",
						"offset": 0,
						"slot": "5",
						"type": "t_mapping(t_address,t_uint256)"
					},
					{
						"astId": 94,
						"contract": "contracts/testContract.sol:CryptosICO",
						"label": "allowed",
						"offset": 0,
						"slot": "6",
						"type": "t_mapping(t_address,t_mapping(t_address,t_uint256))"
					},
					{
						"astId": 287,
						"contract": "contracts/testContract.sol:CryptosICO",
						"label": "admin",
						"offset": 0,
						"slot": "7",
						"type": "t_address"
					},
					{
						"astId": 289,
						"contract": "contracts/testContract.sol:CryptosICO",
						"label": "deposit",
						"offset": 0,
						"slot": "8",
						"type": "t_address_payable"
					},
					{
						"astId": 292,
						"contract": "contracts/testContract.sol:CryptosICO",
						"label": "tokenPrice",
						"offset": 0,
						"slot": "9",
						"type": "t_uint256"
					},
					{
						"astId": 295,
						"contract": "contracts/testContract.sol:CryptosICO",
						"label": "hardCap",
						"offset": 0,
						"slot": "10",
						"type": "t_uint256"
					},
					{
						"astId": 297,
						"contract": "contracts/testContract.sol:CryptosICO",
						"label": "raisedAmount",
						"offset": 0,
						"slot": "11",
						"type": "t_uint256"
					},
					{
						"astId": 301,
						"contract": "contracts/testContract.sol:CryptosICO",
						"label": "saleStart",
						"offset": 0,
						"slot": "12",
						"type": "t_uint256"
					},
					{
						"astId": 307,
						"contract": "contracts/testContract.sol:CryptosICO",
						"label": "saleEnd",
						"offset": 0,
						"slot": "13",
						"type": "t_uint256"
					},
					{
						"astId": 312,
						"contract": "contracts/testContract.sol:CryptosICO",
						"label": "tokenTradeStart",
						"offset": 0,
						"slot": "14",
						"type": "t_uint256"
					},
					{
						"astId": 315,
						"contract": "contracts/testContract.sol:CryptosICO",
						"label": "maxInvestment",
						"offset": 0,
						"slot": "15",
						"type": "t_uint256"
					},
					{
						"astId": 318,
						"contract": "contracts/testContract.sol:CryptosICO",
						"label": "minInvestment",
						"offset": 0,
						"slot": "16",
						"type": "t_uint256"
					},
					{
						"astId": 326,
						"contract": "contracts/testContract.sol:CryptosICO",
						"label": "icoState",
						"offset": 0,
						"slot": "17",
						"type": "t_enum(State)323"
					}
				],
				"types": {
					"t_address": {
						"encoding": "inplace",
						"label": "address",
						"numberOfBytes": "20"
					},
					"t_address_payable": {
						"encoding": "inplace",
						"label": "address payable",
						"numberOfBytes": "20"
					},
					"t_enum(State)323": {
						"encoding": "inplace",
						"label": "enum CryptosICO.State",
						"numberOfBytes": "1"
					},
					"t_mapping(t_address,t_mapping(t_address,t_uint256))": {
						"encoding": "mapping",
						"key": "t_address",
						"label": "mapping(address => mapping(address => uint256))",
						"numberOfBytes": "32",
						"value": "t_mapping(t_address,t_uint256)"
					},
					"t_mapping(t_address,t_uint256)": {
						"encoding": "mapping",
						"key": "t_address",
						"label": "mapping(address => uint256)",
						"numberOfBytes": "32",
						"value": "t_uint256"
					},
					"t_string_storage": {
						"encoding": "bytes",
						"label": "string",
						"numberOfBytes": "32"
					},
					"t_uint256": {
						"encoding": "inplace",
						"label": "uint256",
						"numberOfBytes": "32"
					}
				}
			},
			"userdoc": {
				"kind": "user",
				"methods": {},
				"version": 1
			}
		}
	}
}