{
	"Practice Projects/Lottery/lottery.sol": {
		"Lottery": {
			"abi": [
				{
					"inputs": [],
					"stateMutability": "nonpayable",
					"type": "constructor"
				},
				{
					"inputs": [],
					"name": "getBalance",
					"outputs": [
						{
							"internalType": "uint256",
							"name": "",
							"type": "uint256"
						}
					],
					"stateMutability": "view",
					"type": "function"
				},
				{
					"inputs": [],
					"name": "manager",
					"outputs": [
						{
							"internalType": "address payable",
							"name": "",
							"type": "address"
						}
					],
					"stateMutability": "view",
					"type": "function"
				},
				{
					"inputs": [],
					"name": "pickWinner",
					"outputs": [],
					"stateMutability": "nonpayable",
					"type": "function"
				},
				{
					"inputs": [
						{
							"internalType": "uint256",
							"name": "",
							"type": "uint256"
						}
					],
					"name": "players",
					"outputs": [
						{
							"internalType": "address payable",
							"name": "",
							"type": "address"
						}
					],
					"stateMutability": "view",
					"type": "function"
				},
				{
					"inputs": [],
					"name": "random",
					"outputs": [
						{
							"internalType": "uint256",
							"name": "",
							"type": "uint256"
						}
					],
					"stateMutability": "view",
					"type": "function"
				},
				{
					"stateMutability": "payable",
					"type": "receive"
				}
			],
			"devdoc": {
				"kind": "dev",
				"methods": {},
				"version": 1
			},
			"evm": {
				"assembly": "    /* \"Practice Projects/Lottery/lottery.sol\":27:1141  contract Lottery{\r... */\n  mstore(0x40, 0x80)\n    /* \"Practice Projects/Lottery/lottery.sol\":129:189  constructor(){\r... */\n  callvalue\n  dup1\n  iszero\n  tag_1\n  jumpi\n  0x00\n  dup1\n  revert\ntag_1:\n  pop\n    /* \"Practice Projects/Lottery/lottery.sol\":170:180  msg.sender */\n  caller\n    /* \"Practice Projects/Lottery/lottery.sol\":153:160  manager */\n  0x01\n  0x00\n    /* \"Practice Projects/Lottery/lottery.sol\":153:181  manager =payable(msg.sender) */\n  0x0100\n  exp\n  dup2\n  sload\n  dup2\n  0xffffffffffffffffffffffffffffffffffffffff\n  mul\n  not\n  and\n  swap1\n  dup4\n  0xffffffffffffffffffffffffffffffffffffffff\n  and\n  mul\n  or\n  swap1\n  sstore\n  pop\n    /* \"Practice Projects/Lottery/lottery.sol\":27:1141  contract Lottery{\r... */\n  dataSize(sub_0)\n  dup1\n  dataOffset(sub_0)\n  0x00\n  codecopy\n  0x00\n  return\nstop\n\nsub_0: assembly {\n        /* \"Practice Projects/Lottery/lottery.sol\":27:1141  contract Lottery{\r... */\n      mstore(0x40, 0x80)\n      jumpi(tag_1, lt(calldatasize, 0x04))\n      shr(0xe0, calldataload(0x00))\n      dup1\n      0x12065fe0\n      eq\n      tag_3\n      jumpi\n      dup1\n      0x481c6a75\n      eq\n      tag_4\n      jumpi\n      dup1\n      0x5d495aea\n      eq\n      tag_5\n      jumpi\n      dup1\n      0x5ec01e4d\n      eq\n      tag_6\n      jumpi\n      dup1\n      0xf71d96cb\n      eq\n      tag_7\n      jumpi\n      jump(tag_2)\n    tag_1:\n      jumpi(tag_2, calldatasize)\n        /* \"Practice Projects/Lottery/lottery.sol\":255:264  0.1 ether */\n      0x016345785d8a0000\n        /* \"Practice Projects/Lottery/lottery.sol\":242:251  msg.value */\n      callvalue\n        /* \"Practice Projects/Lottery/lottery.sol\":242:264  msg.value == 0.1 ether */\n      eq\n        /* \"Practice Projects/Lottery/lottery.sol\":234:265  require(msg.value == 0.1 ether) */\n      tag_10\n      jumpi\n      0x00\n      dup1\n      revert\n    tag_10:\n        /* \"Practice Projects/Lottery/lottery.sol\":319:326  players */\n      0x00\n        /* \"Practice Projects/Lottery/lottery.sol\":340:350  msg.sender */\n      caller\n        /* \"Practice Projects/Lottery/lottery.sol\":319:352  players.push(payable(msg.sender)) */\n      swap1\n      dup1\n      0x01\n      dup2\n      sload\n      add\n      dup1\n      dup3\n      sstore\n      dup1\n      swap2\n      pop\n      pop\n      0x01\n      swap1\n      sub\n      swap1\n      0x00\n      mstore\n      keccak256(0x00, 0x20)\n      add\n      0x00\n      swap1\n      swap2\n      swap1\n      swap2\n      swap1\n      swap2\n      0x0100\n      exp\n      dup2\n      sload\n      dup2\n      0xffffffffffffffffffffffffffffffffffffffff\n      mul\n      not\n      and\n      swap1\n      dup4\n      0xffffffffffffffffffffffffffffffffffffffff\n      and\n      mul\n      or\n      swap1\n      sstore\n      pop\n        /* \"Practice Projects/Lottery/lottery.sol\":27:1141  contract Lottery{\r... */\n      stop\n    tag_2:\n      0x00\n      dup1\n      revert\n        /* \"Practice Projects/Lottery/lottery.sol\":368:462  function getBalance() public view returns(uint){\r... */\n    tag_3:\n      callvalue\n      dup1\n      iszero\n      tag_12\n      jumpi\n      0x00\n      dup1\n      revert\n    tag_12:\n      pop\n      tag_13\n      tag_14\n      jump\t// in\n    tag_13:\n      mload(0x40)\n      tag_15\n      swap2\n      swap1\n      tag_16\n      jump\t// in\n    tag_15:\n      mload(0x40)\n      dup1\n      swap2\n      sub\n      swap1\n      return\n        /* \"Practice Projects/Lottery/lottery.sol\":90:120  address payable public manager */\n    tag_4:\n      callvalue\n      dup1\n      iszero\n      tag_17\n      jumpi\n      0x00\n      dup1\n      revert\n    tag_17:\n      pop\n      tag_18\n      tag_19\n      jump\t// in\n    tag_18:\n      mload(0x40)\n      tag_20\n      swap2\n      swap1\n      tag_21\n      jump\t// in\n    tag_20:\n      mload(0x40)\n      dup1\n      swap2\n      sub\n      swap1\n      return\n        /* \"Practice Projects/Lottery/lottery.sol\":761:1138  function pickWinner()public{\r... */\n    tag_5:\n      callvalue\n      dup1\n      iszero\n      tag_22\n      jumpi\n      0x00\n      dup1\n      revert\n    tag_22:\n      pop\n      tag_23\n      tag_24\n      jump\t// in\n    tag_23:\n      stop\n        /* \"Practice Projects/Lottery/lottery.sol\":470:622  function random()public view returns(uint){\r... */\n    tag_6:\n      callvalue\n      dup1\n      iszero\n      tag_25\n      jumpi\n      0x00\n      dup1\n      revert\n    tag_25:\n      pop\n      tag_26\n      tag_27\n      jump\t// in\n    tag_26:\n      mload(0x40)\n      tag_28\n      swap2\n      swap1\n      tag_16\n      jump\t// in\n    tag_28:\n      mload(0x40)\n      dup1\n      swap2\n      sub\n      swap1\n      return\n        /* \"Practice Projects/Lottery/lottery.sol\":50:83  address payable [] public players */\n    tag_7:\n      callvalue\n      dup1\n      iszero\n      tag_29\n      jumpi\n      0x00\n      dup1\n      revert\n    tag_29:\n      pop\n      tag_30\n      0x04\n      dup1\n      calldatasize\n      sub\n      dup2\n      add\n      swap1\n      tag_31\n      swap2\n      swap1\n      tag_32\n      jump\t// in\n    tag_31:\n      tag_33\n      jump\t// in\n    tag_30:\n      mload(0x40)\n      tag_34\n      swap2\n      swap1\n      tag_21\n      jump\t// in\n    tag_34:\n      mload(0x40)\n      dup1\n      swap2\n      sub\n      swap1\n      return\n        /* \"Practice Projects/Lottery/lottery.sol\":368:462  function getBalance() public view returns(uint){\r... */\n    tag_14:\n        /* \"Practice Projects/Lottery/lottery.sol\":410:414  uint */\n      0x00\n        /* \"Practice Projects/Lottery/lottery.sol\":433:454  address(this).balance */\n      selfbalance\n        /* \"Practice Projects/Lottery/lottery.sol\":426:454  return address(this).balance */\n      swap1\n      pop\n        /* \"Practice Projects/Lottery/lottery.sol\":368:462  function getBalance() public view returns(uint){\r... */\n      swap1\n      jump\t// out\n        /* \"Practice Projects/Lottery/lottery.sol\":90:120  address payable public manager */\n    tag_19:\n      0x01\n      0x00\n      swap1\n      sload\n      swap1\n      0x0100\n      exp\n      swap1\n      div\n      0xffffffffffffffffffffffffffffffffffffffff\n      and\n      dup2\n      jump\t// out\n        /* \"Practice Projects/Lottery/lottery.sol\":761:1138  function pickWinner()public{\r... */\n    tag_24:\n        /* \"Practice Projects/Lottery/lottery.sol\":868:870  10 */\n      0x0a\n        /* \"Practice Projects/Lottery/lottery.sol\":850:857  players */\n      0x00\n        /* \"Practice Projects/Lottery/lottery.sol\":850:864  players.length */\n      dup1\n      sload\n      swap1\n      pop\n        /* \"Practice Projects/Lottery/lottery.sol\":850:870  players.length >= 10 */\n      lt\n      iszero\n        /* \"Practice Projects/Lottery/lottery.sol\":842:871  require(players.length >= 10) */\n      tag_37\n      jumpi\n      0x00\n      dup1\n      revert\n    tag_37:\n        /* \"Practice Projects/Lottery/lottery.sol\":932:938  uint r */\n      0x00\n        /* \"Practice Projects/Lottery/lottery.sol\":941:949  random() */\n      tag_38\n        /* \"Practice Projects/Lottery/lottery.sol\":941:947  random */\n      tag_27\n        /* \"Practice Projects/Lottery/lottery.sol\":941:949  random() */\n      jump\t// in\n    tag_38:\n        /* \"Practice Projects/Lottery/lottery.sol\":932:949  uint r = random() */\n      swap1\n      pop\n        /* \"Practice Projects/Lottery/lottery.sol\":960:970  uint index */\n      0x00\n        /* \"Practice Projects/Lottery/lottery.sol\":975:982  players */\n      dup1\n        /* \"Practice Projects/Lottery/lottery.sol\":975:989  players.length */\n      dup1\n      sload\n      swap1\n      pop\n        /* \"Practice Projects/Lottery/lottery.sol\":973:974  r */\n      dup3\n        /* \"Practice Projects/Lottery/lottery.sol\":973:989  r%players.length */\n      tag_39\n      swap2\n      swap1\n      tag_40\n      jump\t// in\n    tag_39:\n        /* \"Practice Projects/Lottery/lottery.sol\":960:989  uint index = r%players.length */\n      swap1\n      pop\n        /* \"Practice Projects/Lottery/lottery.sol\":1002:1024  address payable winner */\n      0x00\n        /* \"Practice Projects/Lottery/lottery.sol\":1027:1034  players */\n      dup1\n        /* \"Practice Projects/Lottery/lottery.sol\":1035:1040  index */\n      dup3\n        /* \"Practice Projects/Lottery/lottery.sol\":1027:1041  players[index] */\n      dup2\n      sload\n      dup2\n      lt\n      tag_41\n      jumpi\n      tag_42\n      tag_43\n      jump\t// in\n    tag_42:\n    tag_41:\n      swap1\n      0x00\n      mstore\n      keccak256(0x00, 0x20)\n      add\n      0x00\n      swap1\n      sload\n      swap1\n      0x0100\n      exp\n      swap1\n      div\n      0xffffffffffffffffffffffffffffffffffffffff\n      and\n        /* \"Practice Projects/Lottery/lottery.sol\":1002:1041  address payable winner = players[index] */\n      swap1\n      pop\n        /* \"Practice Projects/Lottery/lottery.sol\":1054:1060  winner */\n      dup1\n        /* \"Practice Projects/Lottery/lottery.sol\":1054:1069  winner.transfer */\n      0xffffffffffffffffffffffffffffffffffffffff\n      and\n        /* \"Practice Projects/Lottery/lottery.sol\":1054:1083  winner.transfer(getBalance()) */\n      0x08fc\n        /* \"Practice Projects/Lottery/lottery.sol\":1070:1082  getBalance() */\n      tag_45\n        /* \"Practice Projects/Lottery/lottery.sol\":1070:1080  getBalance */\n      tag_14\n        /* \"Practice Projects/Lottery/lottery.sol\":1070:1082  getBalance() */\n      jump\t// in\n    tag_45:\n        /* \"Practice Projects/Lottery/lottery.sol\":1054:1083  winner.transfer(getBalance()) */\n      swap1\n      dup2\n      iszero\n      mul\n      swap1\n      mload(0x40)\n      0x00\n      mload(0x40)\n      dup1\n      dup4\n      sub\n      dup2\n      dup6\n      dup9\n      dup9\n      call\n      swap4\n      pop\n      pop\n      pop\n      pop\n      iszero\n      dup1\n      iszero\n      tag_47\n      jumpi\n      returndatasize\n      0x00\n      dup1\n      returndatacopy\n      revert(0x00, returndatasize)\n    tag_47:\n      pop\n        /* \"Practice Projects/Lottery/lottery.sol\":1128:1129  0 */\n      0x00\n        /* \"Practice Projects/Lottery/lottery.sol\":1106:1130  new address payable[](0) */\n      0xffffffffffffffff\n      dup2\n      gt\n      iszero\n      tag_48\n      jumpi\n      tag_49\n      tag_50\n      jump\t// in\n    tag_49:\n    tag_48:\n      mload(0x40)\n      swap1\n      dup1\n      dup3\n      mstore\n      dup1\n      0x20\n      mul\n      0x20\n      add\n      dup3\n      add\n      0x40\n      mstore\n      dup1\n      iszero\n      tag_51\n      jumpi\n      dup2\n      0x20\n      add\n      0x20\n      dup3\n      mul\n      dup1\n      calldatasize\n      dup4\n      calldatacopy\n      dup1\n      dup3\n      add\n      swap2\n      pop\n      pop\n      swap1\n      pop\n    tag_51:\n      pop\n        /* \"Practice Projects/Lottery/lottery.sol\":1096:1103  players */\n      0x00\n        /* \"Practice Projects/Lottery/lottery.sol\":1096:1130  players = new address payable[](0) */\n      swap1\n      dup1\n      mload\n      swap1\n      0x20\n      add\n      swap1\n      tag_52\n      swap3\n      swap2\n      swap1\n      tag_53\n      jump\t// in\n    tag_52:\n      pop\n        /* \"Practice Projects/Lottery/lottery.sol\":788:1138  {\r... */\n      pop\n      pop\n      pop\n        /* \"Practice Projects/Lottery/lottery.sol\":761:1138  function pickWinner()public{\r... */\n      jump\t// out\n        /* \"Practice Projects/Lottery/lottery.sol\":470:622  function random()public view returns(uint){\r... */\n    tag_27:\n        /* \"Practice Projects/Lottery/lottery.sol\":507:511  uint */\n      0x00\n        /* \"Practice Projects/Lottery/lottery.sol\":562:578  block.difficulty */\n      difficulty\n        /* \"Practice Projects/Lottery/lottery.sol\":580:595  block.timestamp */\n      timestamp\n        /* \"Practice Projects/Lottery/lottery.sol\":597:604  players */\n      0x00\n        /* \"Practice Projects/Lottery/lottery.sol\":597:611  players.length */\n      dup1\n      sload\n      swap1\n      pop\n        /* \"Practice Projects/Lottery/lottery.sol\":545:612  abi.encodePacked(block.difficulty, block.timestamp, players.length) */\n      add(0x20, mload(0x40))\n      tag_55\n      swap4\n      swap3\n      swap2\n      swap1\n      tag_56\n      jump\t// in\n    tag_55:\n      mload(0x40)\n      0x20\n      dup2\n      dup4\n      sub\n      sub\n      dup2\n      mstore\n      swap1\n      0x40\n      mstore\n        /* \"Practice Projects/Lottery/lottery.sol\":535:613  keccak256(abi.encodePacked(block.difficulty, block.timestamp, players.length)) */\n      dup1\n      mload\n      swap1\n      0x20\n      add\n      keccak256\n        /* \"Practice Projects/Lottery/lottery.sol\":530:614  uint(keccak256(abi.encodePacked(block.difficulty, block.timestamp, players.length))) */\n      0x00\n      shr\n        /* \"Practice Projects/Lottery/lottery.sol\":523:614  return uint(keccak256(abi.encodePacked(block.difficulty, block.timestamp, players.length))) */\n      swap1\n      pop\n        /* \"Practice Projects/Lottery/lottery.sol\":470:622  function random()public view returns(uint){\r... */\n      swap1\n      jump\t// out\n        /* \"Practice Projects/Lottery/lottery.sol\":50:83  address payable [] public players */\n    tag_33:\n      0x00\n      dup2\n      dup2\n      sload\n      dup2\n      lt\n      tag_57\n      jumpi\n      0x00\n      dup1\n      revert\n    tag_57:\n      swap1\n      0x00\n      mstore\n      keccak256(0x00, 0x20)\n      add\n      0x00\n      swap2\n      pop\n      sload\n      swap1\n      0x0100\n      exp\n      swap1\n      div\n      0xffffffffffffffffffffffffffffffffffffffff\n      and\n      dup2\n      jump\t// out\n    tag_53:\n      dup3\n      dup1\n      sload\n      dup3\n      dup3\n      sstore\n      swap1\n      0x00\n      mstore\n      keccak256(0x00, 0x20)\n      swap1\n      dup2\n      add\n      swap3\n      dup3\n      iszero\n      tag_59\n      jumpi\n      swap2\n      0x20\n      mul\n      dup3\n      add\n    tag_60:\n      dup3\n      dup2\n      gt\n      iszero\n      tag_61\n      jumpi\n      dup3\n      mload\n      dup3\n      exp(0x0100, 0x00)\n      dup2\n      sload\n      dup2\n      0xffffffffffffffffffffffffffffffffffffffff\n      mul\n      not\n      and\n      swap1\n      dup4\n      0xffffffffffffffffffffffffffffffffffffffff\n      and\n      mul\n      or\n      swap1\n      sstore\n      pop\n      swap2\n      0x20\n      add\n      swap2\n      swap1\n      0x01\n      add\n      swap1\n      jump(tag_60)\n    tag_61:\n    tag_59:\n      pop\n      swap1\n      pop\n      tag_62\n      swap2\n      swap1\n      tag_63\n      jump\t// in\n    tag_62:\n      pop\n      swap1\n      jump\t// out\n    tag_63:\n    tag_64:\n      dup1\n      dup3\n      gt\n      iszero\n      tag_65\n      jumpi\n      0x00\n      dup2\n      0x00\n      swap1\n      sstore\n      pop\n      0x01\n      add\n      jump(tag_64)\n    tag_65:\n      pop\n      swap1\n      jump\t// out\n        /* \"#utility.yul\":7:146   */\n    tag_67:\n        /* \"#utility.yul\":53:58   */\n      0x00\n        /* \"#utility.yul\":91:97   */\n      dup2\n        /* \"#utility.yul\":78:98   */\n      calldataload\n        /* \"#utility.yul\":69:98   */\n      swap1\n      pop\n        /* \"#utility.yul\":107:140   */\n      tag_69\n        /* \"#utility.yul\":134:139   */\n      dup2\n        /* \"#utility.yul\":107:140   */\n      tag_70\n      jump\t// in\n    tag_69:\n        /* \"#utility.yul\":7:146   */\n      swap3\n      swap2\n      pop\n      pop\n      jump\t// out\n        /* \"#utility.yul\":152:481   */\n    tag_32:\n        /* \"#utility.yul\":211:217   */\n      0x00\n        /* \"#utility.yul\":260:262   */\n      0x20\n        /* \"#utility.yul\":248:257   */\n      dup3\n        /* \"#utility.yul\":239:246   */\n      dup5\n        /* \"#utility.yul\":235:258   */\n      sub\n        /* \"#utility.yul\":231:263   */\n      slt\n        /* \"#utility.yul\":228:347   */\n      iszero\n      tag_72\n      jumpi\n        /* \"#utility.yul\":266:345   */\n      tag_73\n      tag_74\n      jump\t// in\n    tag_73:\n        /* \"#utility.yul\":228:347   */\n    tag_72:\n        /* \"#utility.yul\":386:387   */\n      0x00\n        /* \"#utility.yul\":411:464   */\n      tag_75\n        /* \"#utility.yul\":456:463   */\n      dup5\n        /* \"#utility.yul\":447:453   */\n      dup3\n        /* \"#utility.yul\":436:445   */\n      dup6\n        /* \"#utility.yul\":432:454   */\n      add\n        /* \"#utility.yul\":411:464   */\n      tag_67\n      jump\t// in\n    tag_75:\n        /* \"#utility.yul\":401:464   */\n      swap2\n      pop\n        /* \"#utility.yul\":357:474   */\n      pop\n        /* \"#utility.yul\":152:481   */\n      swap3\n      swap2\n      pop\n      pop\n      jump\t// out\n        /* \"#utility.yul\":487:629   */\n    tag_76:\n        /* \"#utility.yul\":590:622   */\n      tag_78\n        /* \"#utility.yul\":616:621   */\n      dup2\n        /* \"#utility.yul\":590:622   */\n      tag_79\n      jump\t// in\n    tag_78:\n        /* \"#utility.yul\":585:588   */\n      dup3\n        /* \"#utility.yul\":578:623   */\n      mstore\n        /* \"#utility.yul\":487:629   */\n      pop\n      pop\n      jump\t// out\n        /* \"#utility.yul\":635:753   */\n    tag_80:\n        /* \"#utility.yul\":722:746   */\n      tag_82\n        /* \"#utility.yul\":740:745   */\n      dup2\n        /* \"#utility.yul\":722:746   */\n      tag_83\n      jump\t// in\n    tag_82:\n        /* \"#utility.yul\":717:720   */\n      dup3\n        /* \"#utility.yul\":710:747   */\n      mstore\n        /* \"#utility.yul\":635:753   */\n      pop\n      pop\n      jump\t// out\n        /* \"#utility.yul\":759:916   */\n    tag_84:\n        /* \"#utility.yul\":864:909   */\n      tag_86\n        /* \"#utility.yul\":884:908   */\n      tag_87\n        /* \"#utility.yul\":902:907   */\n      dup3\n        /* \"#utility.yul\":884:908   */\n      tag_83\n      jump\t// in\n    tag_87:\n        /* \"#utility.yul\":864:909   */\n      tag_88\n      jump\t// in\n    tag_86:\n        /* \"#utility.yul\":859:862   */\n      dup3\n        /* \"#utility.yul\":852:910   */\n      mstore\n        /* \"#utility.yul\":759:916   */\n      pop\n      pop\n      jump\t// out\n        /* \"#utility.yul\":922:1460   */\n    tag_56:\n        /* \"#utility.yul\":1090:1093   */\n      0x00\n        /* \"#utility.yul\":1105:1180   */\n      tag_90\n        /* \"#utility.yul\":1176:1179   */\n      dup3\n        /* \"#utility.yul\":1167:1173   */\n      dup7\n        /* \"#utility.yul\":1105:1180   */\n      tag_84\n      jump\t// in\n    tag_90:\n        /* \"#utility.yul\":1205:1207   */\n      0x20\n        /* \"#utility.yul\":1200:1203   */\n      dup3\n        /* \"#utility.yul\":1196:1208   */\n      add\n        /* \"#utility.yul\":1189:1208   */\n      swap2\n      pop\n        /* \"#utility.yul\":1218:1293   */\n      tag_91\n        /* \"#utility.yul\":1289:1292   */\n      dup3\n        /* \"#utility.yul\":1280:1286   */\n      dup6\n        /* \"#utility.yul\":1218:1293   */\n      tag_84\n      jump\t// in\n    tag_91:\n        /* \"#utility.yul\":1318:1320   */\n      0x20\n        /* \"#utility.yul\":1313:1316   */\n      dup3\n        /* \"#utility.yul\":1309:1321   */\n      add\n        /* \"#utility.yul\":1302:1321   */\n      swap2\n      pop\n        /* \"#utility.yul\":1331:1406   */\n      tag_92\n        /* \"#utility.yul\":1402:1405   */\n      dup3\n        /* \"#utility.yul\":1393:1399   */\n      dup5\n        /* \"#utility.yul\":1331:1406   */\n      tag_84\n      jump\t// in\n    tag_92:\n        /* \"#utility.yul\":1431:1433   */\n      0x20\n        /* \"#utility.yul\":1426:1429   */\n      dup3\n        /* \"#utility.yul\":1422:1434   */\n      add\n        /* \"#utility.yul\":1415:1434   */\n      swap2\n      pop\n        /* \"#utility.yul\":1451:1454   */\n      dup2\n        /* \"#utility.yul\":1444:1454   */\n      swap1\n      pop\n        /* \"#utility.yul\":922:1460   */\n      swap5\n      swap4\n      pop\n      pop\n      pop\n      pop\n      jump\t// out\n        /* \"#utility.yul\":1466:1720   */\n    tag_21:\n        /* \"#utility.yul\":1575:1579   */\n      0x00\n        /* \"#utility.yul\":1613:1615   */\n      0x20\n        /* \"#utility.yul\":1602:1611   */\n      dup3\n        /* \"#utility.yul\":1598:1616   */\n      add\n        /* \"#utility.yul\":1590:1616   */\n      swap1\n      pop\n        /* \"#utility.yul\":1626:1713   */\n      tag_94\n        /* \"#utility.yul\":1710:1711   */\n      0x00\n        /* \"#utility.yul\":1699:1708   */\n      dup4\n        /* \"#utility.yul\":1695:1712   */\n      add\n        /* \"#utility.yul\":1686:1692   */\n      dup5\n        /* \"#utility.yul\":1626:1713   */\n      tag_76\n      jump\t// in\n    tag_94:\n        /* \"#utility.yul\":1466:1720   */\n      swap3\n      swap2\n      pop\n      pop\n      jump\t// out\n        /* \"#utility.yul\":1726:1948   */\n    tag_16:\n        /* \"#utility.yul\":1819:1823   */\n      0x00\n        /* \"#utility.yul\":1857:1859   */\n      0x20\n        /* \"#utility.yul\":1846:1855   */\n      dup3\n        /* \"#utility.yul\":1842:1860   */\n      add\n        /* \"#utility.yul\":1834:1860   */\n      swap1\n      pop\n        /* \"#utility.yul\":1870:1941   */\n      tag_96\n        /* \"#utility.yul\":1938:1939   */\n      0x00\n        /* \"#utility.yul\":1927:1936   */\n      dup4\n        /* \"#utility.yul\":1923:1940   */\n      add\n        /* \"#utility.yul\":1914:1920   */\n      dup5\n        /* \"#utility.yul\":1870:1941   */\n      tag_80\n      jump\t// in\n    tag_96:\n        /* \"#utility.yul\":1726:1948   */\n      swap3\n      swap2\n      pop\n      pop\n      jump\t// out\n        /* \"#utility.yul\":2035:2139   */\n    tag_79:\n        /* \"#utility.yul\":2080:2087   */\n      0x00\n        /* \"#utility.yul\":2109:2133   */\n      tag_100\n        /* \"#utility.yul\":2127:2132   */\n      dup3\n        /* \"#utility.yul\":2109:2133   */\n      tag_101\n      jump\t// in\n    tag_100:\n        /* \"#utility.yul\":2098:2133   */\n      swap1\n      pop\n        /* \"#utility.yul\":2035:2139   */\n      swap2\n      swap1\n      pop\n      jump\t// out\n        /* \"#utility.yul\":2145:2271   */\n    tag_101:\n        /* \"#utility.yul\":2182:2189   */\n      0x00\n        /* \"#utility.yul\":2222:2264   */\n      0xffffffffffffffffffffffffffffffffffffffff\n        /* \"#utility.yul\":2215:2220   */\n      dup3\n        /* \"#utility.yul\":2211:2265   */\n      and\n        /* \"#utility.yul\":2200:2265   */\n      swap1\n      pop\n        /* \"#utility.yul\":2145:2271   */\n      swap2\n      swap1\n      pop\n      jump\t// out\n        /* \"#utility.yul\":2277:2354   */\n    tag_83:\n        /* \"#utility.yul\":2314:2321   */\n      0x00\n        /* \"#utility.yul\":2343:2348   */\n      dup2\n        /* \"#utility.yul\":2332:2348   */\n      swap1\n      pop\n        /* \"#utility.yul\":2277:2354   */\n      swap2\n      swap1\n      pop\n      jump\t// out\n        /* \"#utility.yul\":2360:2439   */\n    tag_88:\n        /* \"#utility.yul\":2399:2406   */\n      0x00\n        /* \"#utility.yul\":2428:2433   */\n      dup2\n        /* \"#utility.yul\":2417:2433   */\n      swap1\n      pop\n        /* \"#utility.yul\":2360:2439   */\n      swap2\n      swap1\n      pop\n      jump\t// out\n        /* \"#utility.yul\":2445:2621   */\n    tag_40:\n        /* \"#utility.yul\":2477:2478   */\n      0x00\n        /* \"#utility.yul\":2494:2514   */\n      tag_106\n        /* \"#utility.yul\":2512:2513   */\n      dup3\n        /* \"#utility.yul\":2494:2514   */\n      tag_83\n      jump\t// in\n    tag_106:\n        /* \"#utility.yul\":2489:2514   */\n      swap2\n      pop\n        /* \"#utility.yul\":2528:2548   */\n      tag_107\n        /* \"#utility.yul\":2546:2547   */\n      dup4\n        /* \"#utility.yul\":2528:2548   */\n      tag_83\n      jump\t// in\n    tag_107:\n        /* \"#utility.yul\":2523:2548   */\n      swap3\n      pop\n        /* \"#utility.yul\":2567:2568   */\n      dup3\n        /* \"#utility.yul\":2557:2592   */\n      tag_108\n      jumpi\n        /* \"#utility.yul\":2572:2590   */\n      tag_109\n      tag_110\n      jump\t// in\n    tag_109:\n        /* \"#utility.yul\":2557:2592   */\n    tag_108:\n        /* \"#utility.yul\":2613:2614   */\n      dup3\n        /* \"#utility.yul\":2610:2611   */\n      dup3\n        /* \"#utility.yul\":2606:2615   */\n      mod\n        /* \"#utility.yul\":2601:2615   */\n      swap1\n      pop\n        /* \"#utility.yul\":2445:2621   */\n      swap3\n      swap2\n      pop\n      pop\n      jump\t// out\n        /* \"#utility.yul\":2627:2807   */\n    tag_110:\n        /* \"#utility.yul\":2675:2752   */\n      0x4e487b7100000000000000000000000000000000000000000000000000000000\n        /* \"#utility.yul\":2672:2673   */\n      0x00\n        /* \"#utility.yul\":2665:2753   */\n      mstore\n        /* \"#utility.yul\":2772:2776   */\n      0x12\n        /* \"#utility.yul\":2769:2770   */\n      0x04\n        /* \"#utility.yul\":2762:2777   */\n      mstore\n        /* \"#utility.yul\":2796:2800   */\n      0x24\n        /* \"#utility.yul\":2793:2794   */\n      0x00\n        /* \"#utility.yul\":2786:2801   */\n      revert\n        /* \"#utility.yul\":2813:2993   */\n    tag_43:\n        /* \"#utility.yul\":2861:2938   */\n      0x4e487b7100000000000000000000000000000000000000000000000000000000\n        /* \"#utility.yul\":2858:2859   */\n      0x00\n        /* \"#utility.yul\":2851:2939   */\n      mstore\n        /* \"#utility.yul\":2958:2962   */\n      0x32\n        /* \"#utility.yul\":2955:2956   */\n      0x04\n        /* \"#utility.yul\":2948:2963   */\n      mstore\n        /* \"#utility.yul\":2982:2986   */\n      0x24\n        /* \"#utility.yul\":2979:2980   */\n      0x00\n        /* \"#utility.yul\":2972:2987   */\n      revert\n        /* \"#utility.yul\":2999:3179   */\n    tag_50:\n        /* \"#utility.yul\":3047:3124   */\n      0x4e487b7100000000000000000000000000000000000000000000000000000000\n        /* \"#utility.yul\":3044:3045   */\n      0x00\n        /* \"#utility.yul\":3037:3125   */\n      mstore\n        /* \"#utility.yul\":3144:3148   */\n      0x41\n        /* \"#utility.yul\":3141:3142   */\n      0x04\n        /* \"#utility.yul\":3134:3149   */\n      mstore\n        /* \"#utility.yul\":3168:3172   */\n      0x24\n        /* \"#utility.yul\":3165:3166   */\n      0x00\n        /* \"#utility.yul\":3158:3173   */\n      revert\n        /* \"#utility.yul\":3308:3425   */\n    tag_74:\n        /* \"#utility.yul\":3417:3418   */\n      0x00\n        /* \"#utility.yul\":3414:3415   */\n      dup1\n        /* \"#utility.yul\":3407:3419   */\n      revert\n        /* \"#utility.yul\":3431:3553   */\n    tag_70:\n        /* \"#utility.yul\":3504:3528   */\n      tag_118\n        /* \"#utility.yul\":3522:3527   */\n      dup2\n        /* \"#utility.yul\":3504:3528   */\n      tag_83\n      jump\t// in\n    tag_118:\n        /* \"#utility.yul\":3497:3502   */\n      dup2\n        /* \"#utility.yul\":3494:3529   */\n      eq\n        /* \"#utility.yul\":3484:3547   */\n      tag_119\n      jumpi\n        /* \"#utility.yul\":3543:3544   */\n      0x00\n        /* \"#utility.yul\":3540:3541   */\n      dup1\n        /* \"#utility.yul\":3533:3545   */\n      revert\n        /* \"#utility.yul\":3484:3547   */\n    tag_119:\n        /* \"#utility.yul\":3431:3553   */\n      pop\n      jump\t// out\n\n    auxdata: 0xa26469706673582212204cee1abd5f7ce84226d6d1de371b94cb4ca42d8147b2f4018e2abe29e6bef0a464736f6c63430008070033\n}\n",
				"bytecode": {
					"linkReferences": {},
					"object": "608060405234801561001057600080fd5b5033600160006101000a81548173ffffffffffffffffffffffffffffffffffffffff021916908373ffffffffffffffffffffffffffffffffffffffff16021790555061065c806100616000396000f3fe60806040526004361061004e5760003560e01c806312065fe0146100d1578063481c6a75146100fc5780635d495aea146101275780635ec01e4d1461013e578063f71d96cb14610169576100cc565b366100cc5767016345785d8a0000341461006757600080fd5b6000339080600181540180825580915050600190039060005260206000200160009091909190916101000a81548173ffffffffffffffffffffffffffffffffffffffff021916908373ffffffffffffffffffffffffffffffffffffffff160217905550005b600080fd5b3480156100dd57600080fd5b506100e66101a6565b6040516100f391906104eb565b60405180910390f35b34801561010857600080fd5b506101116101ae565b60405161011e91906104d0565b60405180910390f35b34801561013357600080fd5b5061013c6101d4565b005b34801561014a57600080fd5b506101536102fc565b60405161016091906104eb565b60405180910390f35b34801561017557600080fd5b50610190600480360381019061018b9190610431565b610336565b60405161019d91906104d0565b60405180910390f35b600047905090565b600160009054906101000a900473ffffffffffffffffffffffffffffffffffffffff1681565b600a60008054905010156101e757600080fd5b60006101f16102fc565b90506000808054905082610205919061054c565b9050600080828154811061021c5761021b6105ac565b5b9060005260206000200160009054906101000a900473ffffffffffffffffffffffffffffffffffffffff1690508073ffffffffffffffffffffffffffffffffffffffff166108fc61026b6101a6565b9081150290604051600060405180830381858888f19350505050158015610296573d6000803e3d6000fd5b50600067ffffffffffffffff8111156102b2576102b16105db565b5b6040519080825280602002602001820160405280156102e05781602001602082028036833780820191505090505b50600090805190602001906102f6929190610375565b50505050565b6000444260008054905060405160200161031893929190610493565b6040516020818303038152906040528051906020012060001c905090565b6000818154811061034657600080fd5b906000526020600020016000915054906101000a900473ffffffffffffffffffffffffffffffffffffffff1681565b8280548282559060005260206000209081019282156103ee579160200282015b828111156103ed5782518260006101000a81548173ffffffffffffffffffffffffffffffffffffffff021916908373ffffffffffffffffffffffffffffffffffffffff16021790555091602001919060010190610395565b5b5090506103fb91906103ff565b5090565b5b80821115610418576000816000905550600101610400565b5090565b60008135905061042b8161060f565b92915050565b6000602082840312156104475761044661060a565b5b60006104558482850161041c565b91505092915050565b61046781610506565b82525050565b61047681610538565b82525050565b61048d61048882610538565b610542565b82525050565b600061049f828661047c565b6020820191506104af828561047c565b6020820191506104bf828461047c565b602082019150819050949350505050565b60006020820190506104e5600083018461045e565b92915050565b6000602082019050610500600083018461046d565b92915050565b600061051182610518565b9050919050565b600073ffffffffffffffffffffffffffffffffffffffff82169050919050565b6000819050919050565b6000819050919050565b600061055782610538565b915061056283610538565b9250826105725761057161057d565b5b828206905092915050565b7f4e487b7100000000000000000000000000000000000000000000000000000000600052601260045260246000fd5b7f4e487b7100000000000000000000000000000000000000000000000000000000600052603260045260246000fd5b7f4e487b7100000000000000000000000000000000000000000000000000000000600052604160045260246000fd5b600080fd5b61061881610538565b811461062357600080fd5b5056fea26469706673582212204cee1abd5f7ce84226d6d1de371b94cb4ca42d8147b2f4018e2abe29e6bef0a464736f6c63430008070033",
					"opcodes": "PUSH1 0x80 PUSH1 0x40 MSTORE CALLVALUE DUP1 ISZERO PUSH2 0x10 JUMPI PUSH1 0x0 DUP1 REVERT JUMPDEST POP CALLER PUSH1 0x1 PUSH1 0x0 PUSH2 0x100 EXP DUP2 SLOAD DUP2 PUSH20 0xFFFFFFFFFFFFFFFFFFFFFFFFFFFFFFFFFFFFFFFF MUL NOT AND SWAP1 DUP4 PUSH20 0xFFFFFFFFFFFFFFFFFFFFFFFFFFFFFFFFFFFFFFFF AND MUL OR SWAP1 SSTORE POP PUSH2 0x65C DUP1 PUSH2 0x61 PUSH1 0x0 CODECOPY PUSH1 0x0 RETURN INVALID PUSH1 0x80 PUSH1 0x40 MSTORE PUSH1 0x4 CALLDATASIZE LT PUSH2 0x4E JUMPI PUSH1 0x0 CALLDATALOAD PUSH1 0xE0 SHR DUP1 PUSH4 0x12065FE0 EQ PUSH2 0xD1 JUMPI DUP1 PUSH4 0x481C6A75 EQ PUSH2 0xFC JUMPI DUP1 PUSH4 0x5D495AEA EQ PUSH2 0x127 JUMPI DUP1 PUSH4 0x5EC01E4D EQ PUSH2 0x13E JUMPI DUP1 PUSH4 0xF71D96CB EQ PUSH2 0x169 JUMPI PUSH2 0xCC JUMP JUMPDEST CALLDATASIZE PUSH2 0xCC JUMPI PUSH8 0x16345785D8A0000 CALLVALUE EQ PUSH2 0x67 JUMPI PUSH1 0x0 DUP1 REVERT JUMPDEST PUSH1 0x0 CALLER SWAP1 DUP1 PUSH1 0x1 DUP2 SLOAD ADD DUP1 DUP3 SSTORE DUP1 SWAP2 POP POP PUSH1 0x1 SWAP1 SUB SWAP1 PUSH1 0x0 MSTORE PUSH1 0x20 PUSH1 0x0 KECCAK256 ADD PUSH1 0x0 SWAP1 SWAP2 SWAP1 SWAP2 SWAP1 SWAP2 PUSH2 0x100 EXP DUP2 SLOAD DUP2 PUSH20 0xFFFFFFFFFFFFFFFFFFFFFFFFFFFFFFFFFFFFFFFF MUL NOT AND SWAP1 DUP4 PUSH20 0xFFFFFFFFFFFFFFFFFFFFFFFFFFFFFFFFFFFFFFFF AND MUL OR SWAP1 SSTORE POP STOP JUMPDEST PUSH1 0x0 DUP1 REVERT JUMPDEST CALLVALUE DUP1 ISZERO PUSH2 0xDD JUMPI PUSH1 0x0 DUP1 REVERT JUMPDEST POP PUSH2 0xE6 PUSH2 0x1A6 JUMP JUMPDEST PUSH1 0x40 MLOAD PUSH2 0xF3 SWAP2 SWAP1 PUSH2 0x4EB JUMP JUMPDEST PUSH1 0x40 MLOAD DUP1 SWAP2 SUB SWAP1 RETURN JUMPDEST CALLVALUE DUP1 ISZERO PUSH2 0x108 JUMPI PUSH1 0x0 DUP1 REVERT JUMPDEST POP PUSH2 0x111 PUSH2 0x1AE JUMP JUMPDEST PUSH1 0x40 MLOAD PUSH2 0x11E SWAP2 SWAP1 PUSH2 0x4D0 JUMP JUMPDEST PUSH1 0x40 MLOAD DUP1 SWAP2 SUB SWAP1 RETURN JUMPDEST CALLVALUE DUP1 ISZERO PUSH2 0x133 JUMPI PUSH1 0x0 DUP1 REVERT JUMPDEST POP PUSH2 0x13C PUSH2 0x1D4 JUMP JUMPDEST STOP JUMPDEST CALLVALUE DUP1 ISZERO PUSH2 0x14A JUMPI PUSH1 0x0 DUP1 REVERT JUMPDEST POP PUSH2 0x153 PUSH2 0x2FC JUMP JUMPDEST PUSH1 0x40 MLOAD PUSH2 0x160 SWAP2 SWAP1 PUSH2 0x4EB JUMP JUMPDEST PUSH1 0x40 MLOAD DUP1 SWAP2 SUB SWAP1 RETURN JUMPDEST CALLVALUE DUP1 ISZERO PUSH2 0x175 JUMPI PUSH1 0x0 DUP1 REVERT JUMPDEST POP PUSH2 0x190 PUSH1 0x4 DUP1 CALLDATASIZE SUB DUP2 ADD SWAP1 PUSH2 0x18B SWAP2 SWAP1 PUSH2 0x431 JUMP JUMPDEST PUSH2 0x336 JUMP JUMPDEST PUSH1 0x40 MLOAD PUSH2 0x19D SWAP2 SWAP1 PUSH2 0x4D0 JUMP JUMPDEST PUSH1 0x40 MLOAD DUP1 SWAP2 SUB SWAP1 RETURN JUMPDEST PUSH1 0x0 SELFBALANCE SWAP1 POP SWAP1 JUMP JUMPDEST PUSH1 0x1 PUSH1 0x0 SWAP1 SLOAD SWAP1 PUSH2 0x100 EXP SWAP1 DIV PUSH20 0xFFFFFFFFFFFFFFFFFFFFFFFFFFFFFFFFFFFFFFFF AND DUP2 JUMP JUMPDEST PUSH1 0xA PUSH1 0x0 DUP1 SLOAD SWAP1 POP LT ISZERO PUSH2 0x1E7 JUMPI PUSH1 0x0 DUP1 REVERT JUMPDEST PUSH1 0x0 PUSH2 0x1F1 PUSH2 0x2FC JUMP JUMPDEST SWAP1 POP PUSH1 0x0 DUP1 DUP1 SLOAD SWAP1 POP DUP3 PUSH2 0x205 SWAP2 SWAP1 PUSH2 0x54C JUMP JUMPDEST SWAP1 POP PUSH1 0x0 DUP1 DUP3 DUP2 SLOAD DUP2 LT PUSH2 0x21C JUMPI PUSH2 0x21B PUSH2 0x5AC JUMP JUMPDEST JUMPDEST SWAP1 PUSH1 0x0 MSTORE PUSH1 0x20 PUSH1 0x0 KECCAK256 ADD PUSH1 0x0 SWAP1 SLOAD SWAP1 PUSH2 0x100 EXP SWAP1 DIV PUSH20 0xFFFFFFFFFFFFFFFFFFFFFFFFFFFFFFFFFFFFFFFF AND SWAP1 POP DUP1 PUSH20 0xFFFFFFFFFFFFFFFFFFFFFFFFFFFFFFFFFFFFFFFF AND PUSH2 0x8FC PUSH2 0x26B PUSH2 0x1A6 JUMP JUMPDEST SWAP1 DUP2 ISZERO MUL SWAP1 PUSH1 0x40 MLOAD PUSH1 0x0 PUSH1 0x40 MLOAD DUP1 DUP4 SUB DUP2 DUP6 DUP9 DUP9 CALL SWAP4 POP POP POP POP ISZERO DUP1 ISZERO PUSH2 0x296 JUMPI RETURNDATASIZE PUSH1 0x0 DUP1 RETURNDATACOPY RETURNDATASIZE PUSH1 0x0 REVERT JUMPDEST POP PUSH1 0x0 PUSH8 0xFFFFFFFFFFFFFFFF DUP2 GT ISZERO PUSH2 0x2B2 JUMPI PUSH2 0x2B1 PUSH2 0x5DB JUMP JUMPDEST JUMPDEST PUSH1 0x40 MLOAD SWAP1 DUP1 DUP3 MSTORE DUP1 PUSH1 0x20 MUL PUSH1 0x20 ADD DUP3 ADD PUSH1 0x40 MSTORE DUP1 ISZERO PUSH2 0x2E0 JUMPI DUP2 PUSH1 0x20 ADD PUSH1 0x20 DUP3 MUL DUP1 CALLDATASIZE DUP4 CALLDATACOPY DUP1 DUP3 ADD SWAP2 POP POP SWAP1 POP JUMPDEST POP PUSH1 0x0 SWAP1 DUP1 MLOAD SWAP1 PUSH1 0x20 ADD SWAP1 PUSH2 0x2F6 SWAP3 SWAP2 SWAP1 PUSH2 0x375 JUMP JUMPDEST POP POP POP POP JUMP JUMPDEST PUSH1 0x0 DIFFICULTY TIMESTAMP PUSH1 0x0 DUP1 SLOAD SWAP1 POP PUSH1 0x40 MLOAD PUSH1 0x20 ADD PUSH2 0x318 SWAP4 SWAP3 SWAP2 SWAP1 PUSH2 0x493 JUMP JUMPDEST PUSH1 0x40 MLOAD PUSH1 0x20 DUP2 DUP4 SUB SUB DUP2 MSTORE SWAP1 PUSH1 0x40 MSTORE DUP1 MLOAD SWAP1 PUSH1 0x20 ADD KECCAK256 PUSH1 0x0 SHR SWAP1 POP SWAP1 JUMP JUMPDEST PUSH1 0x0 DUP2 DUP2 SLOAD DUP2 LT PUSH2 0x346 JUMPI PUSH1 0x0 DUP1 REVERT JUMPDEST SWAP1 PUSH1 0x0 MSTORE PUSH1 0x20 PUSH1 0x0 KECCAK256 ADD PUSH1 0x0 SWAP2 POP SLOAD SWAP1 PUSH2 0x100 EXP SWAP1 DIV PUSH20 0xFFFFFFFFFFFFFFFFFFFFFFFFFFFFFFFFFFFFFFFF AND DUP2 JUMP JUMPDEST DUP3 DUP1 SLOAD DUP3 DUP3 SSTORE SWAP1 PUSH1 0x0 MSTORE PUSH1 0x20 PUSH1 0x0 KECCAK256 SWAP1 DUP2 ADD SWAP3 DUP3 ISZERO PUSH2 0x3EE JUMPI SWAP2 PUSH1 0x20 MUL DUP3 ADD JUMPDEST DUP3 DUP2 GT ISZERO PUSH2 0x3ED JUMPI DUP3 MLOAD DUP3 PUSH1 0x0 PUSH2 0x100 EXP DUP2 SLOAD DUP2 PUSH20 0xFFFFFFFFFFFFFFFFFFFFFFFFFFFFFFFFFFFFFFFF MUL NOT AND SWAP1 DUP4 PUSH20 0xFFFFFFFFFFFFFFFFFFFFFFFFFFFFFFFFFFFFFFFF AND MUL OR SWAP1 SSTORE POP SWAP2 PUSH1 0x20 ADD SWAP2 SWAP1 PUSH1 0x1 ADD SWAP1 PUSH2 0x395 JUMP JUMPDEST JUMPDEST POP SWAP1 POP PUSH2 0x3FB SWAP2 SWAP1 PUSH2 0x3FF JUMP JUMPDEST POP SWAP1 JUMP JUMPDEST JUMPDEST DUP1 DUP3 GT ISZERO PUSH2 0x418 JUMPI PUSH1 0x0 DUP2 PUSH1 0x0 SWAP1 SSTORE POP PUSH1 0x1 ADD PUSH2 0x400 JUMP JUMPDEST POP SWAP1 JUMP JUMPDEST PUSH1 0x0 DUP2 CALLDATALOAD SWAP1 POP PUSH2 0x42B DUP2 PUSH2 0x60F JUMP JUMPDEST SWAP3 SWAP2 POP POP JUMP JUMPDEST PUSH1 0x0 PUSH1 0x20 DUP3 DUP5 SUB SLT ISZERO PUSH2 0x447 JUMPI PUSH2 0x446 PUSH2 0x60A JUMP JUMPDEST JUMPDEST PUSH1 0x0 PUSH2 0x455 DUP5 DUP3 DUP6 ADD PUSH2 0x41C JUMP JUMPDEST SWAP2 POP POP SWAP3 SWAP2 POP POP JUMP JUMPDEST PUSH2 0x467 DUP2 PUSH2 0x506 JUMP JUMPDEST DUP3 MSTORE POP POP JUMP JUMPDEST PUSH2 0x476 DUP2 PUSH2 0x538 JUMP JUMPDEST DUP3 MSTORE POP POP JUMP JUMPDEST PUSH2 0x48D PUSH2 0x488 DUP3 PUSH2 0x538 JUMP JUMPDEST PUSH2 0x542 JUMP JUMPDEST DUP3 MSTORE POP POP JUMP JUMPDEST PUSH1 0x0 PUSH2 0x49F DUP3 DUP7 PUSH2 0x47C JUMP JUMPDEST PUSH1 0x20 DUP3 ADD SWAP2 POP PUSH2 0x4AF DUP3 DUP6 PUSH2 0x47C JUMP JUMPDEST PUSH1 0x20 DUP3 ADD SWAP2 POP PUSH2 0x4BF DUP3 DUP5 PUSH2 0x47C JUMP JUMPDEST PUSH1 0x20 DUP3 ADD SWAP2 POP DUP2 SWAP1 POP SWAP5 SWAP4 POP POP POP POP JUMP JUMPDEST PUSH1 0x0 PUSH1 0x20 DUP3 ADD SWAP1 POP PUSH2 0x4E5 PUSH1 0x0 DUP4 ADD DUP5 PUSH2 0x45E JUMP JUMPDEST SWAP3 SWAP2 POP POP JUMP JUMPDEST PUSH1 0x0 PUSH1 0x20 DUP3 ADD SWAP1 POP PUSH2 0x500 PUSH1 0x0 DUP4 ADD DUP5 PUSH2 0x46D JUMP JUMPDEST SWAP3 SWAP2 POP POP JUMP JUMPDEST PUSH1 0x0 PUSH2 0x511 DUP3 PUSH2 0x518 JUMP JUMPDEST SWAP1 POP SWAP2 SWAP1 POP JUMP JUMPDEST PUSH1 0x0 PUSH20 0xFFFFFFFFFFFFFFFFFFFFFFFFFFFFFFFFFFFFFFFF DUP3 AND SWAP1 POP SWAP2 SWAP1 POP JUMP JUMPDEST PUSH1 0x0 DUP2 SWAP1 POP SWAP2 SWAP1 POP JUMP JUMPDEST PUSH1 0x0 DUP2 SWAP1 POP SWAP2 SWAP1 POP JUMP JUMPDEST PUSH1 0x0 PUSH2 0x557 DUP3 PUSH2 0x538 JUMP JUMPDEST SWAP2 POP PUSH2 0x562 DUP4 PUSH2 0x538 JUMP JUMPDEST SWAP3 POP DUP3 PUSH2 0x572 JUMPI PUSH2 0x571 PUSH2 0x57D JUMP JUMPDEST JUMPDEST DUP3 DUP3 MOD SWAP1 POP SWAP3 SWAP2 POP POP JUMP JUMPDEST PUSH32 0x4E487B7100000000000000000000000000000000000000000000000000000000 PUSH1 0x0 MSTORE PUSH1 0x12 PUSH1 0x4 MSTORE PUSH1 0x24 PUSH1 0x0 REVERT JUMPDEST PUSH32 0x4E487B7100000000000000000000000000000000000000000000000000000000 PUSH1 0x0 MSTORE PUSH1 0x32 PUSH1 0x4 MSTORE PUSH1 0x24 PUSH1 0x0 REVERT JUMPDEST PUSH32 0x4E487B7100000000000000000000000000000000000000000000000000000000 PUSH1 0x0 MSTORE PUSH1 0x41 PUSH1 0x4 MSTORE PUSH1 0x24 PUSH1 0x0 REVERT JUMPDEST PUSH1 0x0 DUP1 REVERT JUMPDEST PUSH2 0x618 DUP2 PUSH2 0x538 JUMP JUMPDEST DUP2 EQ PUSH2 0x623 JUMPI PUSH1 0x0 DUP1 REVERT JUMPDEST POP JUMP INVALID LOG2 PUSH5 0x6970667358 0x22 SLT KECCAK256 0x4C 0xEE BYTE 0xBD 0x5F PUSH29 0xE84226D6D1DE371B94CB4CA42D8147B2F4018E2ABE29E6BEF0A464736F PUSH13 0x63430008070033000000000000 "
				},
				"gasEstimates": {
					"creation": {
						"codeDepositCost": "325600",
						"executionCost": "24628",
						"totalCost": "350228"
					},
					"external": {
						"getBalance()": "317",
						"manager()": "2514",
						"pickWinner()": "infinite",
						"players(uint256)": "5022",
						"random()": "infinite"
					},
					"internal": {
						"multiply(uint256,uint256)": "infinite"
					}
				},
				"methodIdentifiers": {
					"getBalance()": "12065fe0",
					"manager()": "481c6a75",
					"pickWinner()": "5d495aea",
					"players(uint256)": "f71d96cb",
					"random()": "5ec01e4d"
				}
			},
			"storageLayout": {
				"storage": [
					{
						"astId": 4,
						"contract": "Practice Projects/Lottery/lottery.sol:Lottery",
						"label": "players",
						"offset": 0,
						"slot": "0",
						"type": "t_array(t_address_payable)dyn_storage"
					},
					{
						"astId": 6,
						"contract": "Practice Projects/Lottery/lottery.sol:Lottery",
						"label": "manager",
						"offset": 0,
						"slot": "1",
						"type": "t_address_payable"
					}
				],
				"types": {
					"t_address_payable": {
						"encoding": "inplace",
						"label": "address payable",
						"numberOfBytes": "20"
					},
					"t_array(t_address_payable)dyn_storage": {
						"base": "t_address_payable",
						"encoding": "dynamic_array",
						"label": "address payable[]",
						"numberOfBytes": "32"
					}
				}
			},
			"userdoc": {
				"kind": "user",
				"methods": {},
				"version": 1
			}
		}
	}
}