{
	"Practice Projects/Lottery/lottery.sol": {
		"Lottery": {
			"abi": [
				{
					"inputs": [],
					"stateMutability": "nonpayable",
					"type": "constructor"
				},
				{
					"inputs": [],
					"name": "getBalance",
					"outputs": [
						{
							"internalType": "uint256",
							"name": "",
							"type": "uint256"
						}
					],
					"stateMutability": "view",
					"type": "function"
				},
				{
					"inputs": [],
					"name": "manager",
					"outputs": [
						{
							"internalType": "address payable",
							"name": "",
							"type": "address"
						}
					],
					"stateMutability": "view",
					"type": "function"
				},
				{
					"inputs": [],
					"name": "pickWinner",
					"outputs": [],
					"stateMutability": "nonpayable",
					"type": "function"
				},
				{
					"inputs": [
						{
							"internalType": "uint256",
							"name": "",
							"type": "uint256"
						}
					],
					"name": "players",
					"outputs": [
						{
							"internalType": "address payable",
							"name": "",
							"type": "address"
						}
					],
					"stateMutability": "view",
					"type": "function"
				},
				{
					"inputs": [],
					"name": "random",
					"outputs": [
						{
							"internalType": "uint256",
							"name": "",
							"type": "uint256"
						}
					],
					"stateMutability": "view",
					"type": "function"
				},
				{
					"stateMutability": "payable",
					"type": "receive"
				}
			],
			"devdoc": {
				"kind": "dev",
				"methods": {},
				"version": 1
			},
			"evm": {
				"assembly": "    /* \"Practice Projects/Lottery/lottery.sol\":27:1278  contract Lottery{\r... */\n  mstore(0x40, 0x80)\n    /* \"Practice Projects/Lottery/lottery.sol\":129:189  constructor(){\r... */\n  callvalue\n  dup1\n  iszero\n  tag_1\n  jumpi\n  0x00\n  dup1\n  revert\ntag_1:\n  pop\n    /* \"Practice Projects/Lottery/lottery.sol\":170:180  msg.sender */\n  caller\n    /* \"Practice Projects/Lottery/lottery.sol\":153:160  manager */\n  0x01\n  0x00\n    /* \"Practice Projects/Lottery/lottery.sol\":153:181  manager =payable(msg.sender) */\n  0x0100\n  exp\n  dup2\n  sload\n  dup2\n  0xffffffffffffffffffffffffffffffffffffffff\n  mul\n  not\n  and\n  swap1\n  dup4\n  0xffffffffffffffffffffffffffffffffffffffff\n  and\n  mul\n  or\n  swap1\n  sstore\n  pop\n    /* \"Practice Projects/Lottery/lottery.sol\":27:1278  contract Lottery{\r... */\n  dataSize(sub_0)\n  dup1\n  dataOffset(sub_0)\n  0x00\n  codecopy\n  0x00\n  return\nstop\n\nsub_0: assembly {\n        /* \"Practice Projects/Lottery/lottery.sol\":27:1278  contract Lottery{\r... */\n      mstore(0x40, 0x80)\n      jumpi(tag_1, lt(calldatasize, 0x04))\n      shr(0xe0, calldataload(0x00))\n      dup1\n      0x12065fe0\n      eq\n      tag_3\n      jumpi\n      dup1\n      0x481c6a75\n      eq\n      tag_4\n      jumpi\n      dup1\n      0x5d495aea\n      eq\n      tag_5\n      jumpi\n      dup1\n      0x5ec01e4d\n      eq\n      tag_6\n      jumpi\n      dup1\n      0xf71d96cb\n      eq\n      tag_7\n      jumpi\n      jump(tag_2)\n    tag_1:\n      jumpi(tag_2, calldatasize)\n        /* \"Practice Projects/Lottery/lottery.sol\":255:264  0.1 ether */\n      0x016345785d8a0000\n        /* \"Practice Projects/Lottery/lottery.sol\":242:251  msg.value */\n      callvalue\n        /* \"Practice Projects/Lottery/lottery.sol\":242:264  msg.value == 0.1 ether */\n      eq\n        /* \"Practice Projects/Lottery/lottery.sol\":234:265  require(msg.value == 0.1 ether) */\n      tag_10\n      jumpi\n      0x00\n      dup1\n      revert\n    tag_10:\n        /* \"Practice Projects/Lottery/lottery.sol\":319:326  players */\n      0x00\n        /* \"Practice Projects/Lottery/lottery.sol\":340:350  msg.sender */\n      caller\n        /* \"Practice Projects/Lottery/lottery.sol\":319:352  players.push(payable(msg.sender)) */\n      swap1\n      dup1\n      0x01\n      dup2\n      sload\n      add\n      dup1\n      dup3\n      sstore\n      dup1\n      swap2\n      pop\n      pop\n      0x01\n      swap1\n      sub\n      swap1\n      0x00\n      mstore\n      keccak256(0x00, 0x20)\n      add\n      0x00\n      swap1\n      swap2\n      swap1\n      swap2\n      swap1\n      swap2\n      0x0100\n      exp\n      dup2\n      sload\n      dup2\n      0xffffffffffffffffffffffffffffffffffffffff\n      mul\n      not\n      and\n      swap1\n      dup4\n      0xffffffffffffffffffffffffffffffffffffffff\n      and\n      mul\n      or\n      swap1\n      sstore\n      pop\n        /* \"Practice Projects/Lottery/lottery.sol\":27:1278  contract Lottery{\r... */\n      stop\n    tag_2:\n      0x00\n      dup1\n      revert\n        /* \"Practice Projects/Lottery/lottery.sol\":368:462  function getBalance() public view returns(uint){\r... */\n    tag_3:\n      callvalue\n      dup1\n      iszero\n      tag_12\n      jumpi\n      0x00\n      dup1\n      revert\n    tag_12:\n      pop\n      tag_13\n      tag_14\n      jump\t// in\n    tag_13:\n      mload(0x40)\n      tag_15\n      swap2\n      swap1\n      tag_16\n      jump\t// in\n    tag_15:\n      mload(0x40)\n      dup1\n      swap2\n      sub\n      swap1\n      return\n        /* \"Practice Projects/Lottery/lottery.sol\":90:120  address payable public manager */\n    tag_4:\n      callvalue\n      dup1\n      iszero\n      tag_17\n      jumpi\n      0x00\n      dup1\n      revert\n    tag_17:\n      pop\n      tag_18\n      tag_19\n      jump\t// in\n    tag_18:\n      mload(0x40)\n      tag_20\n      swap2\n      swap1\n      tag_21\n      jump\t// in\n    tag_20:\n      mload(0x40)\n      dup1\n      swap2\n      sub\n      swap1\n      return\n        /* \"Practice Projects/Lottery/lottery.sol\":761:1275  function pickWinner()public{\r... */\n    tag_5:\n      callvalue\n      dup1\n      iszero\n      tag_22\n      jumpi\n      0x00\n      dup1\n      revert\n    tag_22:\n      pop\n      tag_23\n      tag_24\n      jump\t// in\n    tag_23:\n      stop\n        /* \"Practice Projects/Lottery/lottery.sol\":470:622  function random()public view returns(uint){\r... */\n    tag_6:\n      callvalue\n      dup1\n      iszero\n      tag_25\n      jumpi\n      0x00\n      dup1\n      revert\n    tag_25:\n      pop\n      tag_26\n      tag_27\n      jump\t// in\n    tag_26:\n      mload(0x40)\n      tag_28\n      swap2\n      swap1\n      tag_16\n      jump\t// in\n    tag_28:\n      mload(0x40)\n      dup1\n      swap2\n      sub\n      swap1\n      return\n        /* \"Practice Projects/Lottery/lottery.sol\":50:83  address payable [] public players */\n    tag_7:\n      callvalue\n      dup1\n      iszero\n      tag_29\n      jumpi\n      0x00\n      dup1\n      revert\n    tag_29:\n      pop\n      tag_30\n      0x04\n      dup1\n      calldatasize\n      sub\n      dup2\n      add\n      swap1\n      tag_31\n      swap2\n      swap1\n      tag_32\n      jump\t// in\n    tag_31:\n      tag_33\n      jump\t// in\n    tag_30:\n      mload(0x40)\n      tag_34\n      swap2\n      swap1\n      tag_21\n      jump\t// in\n    tag_34:\n      mload(0x40)\n      dup1\n      swap2\n      sub\n      swap1\n      return\n        /* \"Practice Projects/Lottery/lottery.sol\":368:462  function getBalance() public view returns(uint){\r... */\n    tag_14:\n        /* \"Practice Projects/Lottery/lottery.sol\":410:414  uint */\n      0x00\n        /* \"Practice Projects/Lottery/lottery.sol\":433:454  address(this).balance */\n      selfbalance\n        /* \"Practice Projects/Lottery/lottery.sol\":426:454  return address(this).balance */\n      swap1\n      pop\n        /* \"Practice Projects/Lottery/lottery.sol\":368:462  function getBalance() public view returns(uint){\r... */\n      swap1\n      jump\t// out\n        /* \"Practice Projects/Lottery/lottery.sol\":90:120  address payable public manager */\n    tag_19:\n      0x01\n      0x00\n      swap1\n      sload\n      swap1\n      0x0100\n      exp\n      swap1\n      div\n      0xffffffffffffffffffffffffffffffffffffffff\n      and\n      dup2\n      jump\t// out\n        /* \"Practice Projects/Lottery/lottery.sol\":761:1275  function pickWinner()public{\r... */\n    tag_24:\n        /* \"Practice Projects/Lottery/lottery.sol\":868:869  4 */\n      0x04\n        /* \"Practice Projects/Lottery/lottery.sol\":850:857  players */\n      0x00\n        /* \"Practice Projects/Lottery/lottery.sol\":850:864  players.length */\n      dup1\n      sload\n      swap1\n      pop\n        /* \"Practice Projects/Lottery/lottery.sol\":850:869  players.length >= 4 */\n      lt\n      iszero\n        /* \"Practice Projects/Lottery/lottery.sol\":842:870  require(players.length >= 4) */\n      tag_37\n      jumpi\n      0x00\n      dup1\n      revert\n    tag_37:\n        /* \"Practice Projects/Lottery/lottery.sol\":891:897  uint r */\n      0x00\n        /* \"Practice Projects/Lottery/lottery.sol\":900:908  random() */\n      tag_38\n        /* \"Practice Projects/Lottery/lottery.sol\":900:906  random */\n      tag_27\n        /* \"Practice Projects/Lottery/lottery.sol\":900:908  random() */\n      jump\t// in\n    tag_38:\n        /* \"Practice Projects/Lottery/lottery.sol\":891:908  uint r = random() */\n      swap1\n      pop\n        /* \"Practice Projects/Lottery/lottery.sol\":919:929  uint index */\n      0x00\n        /* \"Practice Projects/Lottery/lottery.sol\":934:941  players */\n      dup1\n        /* \"Practice Projects/Lottery/lottery.sol\":934:948  players.length */\n      dup1\n      sload\n      swap1\n      pop\n        /* \"Practice Projects/Lottery/lottery.sol\":932:933  r */\n      dup3\n        /* \"Practice Projects/Lottery/lottery.sol\":932:948  r%players.length */\n      tag_39\n      swap2\n      swap1\n      tag_40\n      jump\t// in\n    tag_39:\n        /* \"Practice Projects/Lottery/lottery.sol\":919:948  uint index = r%players.length */\n      swap1\n      pop\n        /* \"Practice Projects/Lottery/lottery.sol\":961:983  address payable winner */\n      0x00\n        /* \"Practice Projects/Lottery/lottery.sol\":986:993  players */\n      dup1\n        /* \"Practice Projects/Lottery/lottery.sol\":994:999  index */\n      dup3\n        /* \"Practice Projects/Lottery/lottery.sol\":986:1000  players[index] */\n      dup2\n      sload\n      dup2\n      lt\n      tag_41\n      jumpi\n      tag_42\n      tag_43\n      jump\t// in\n    tag_42:\n    tag_41:\n      swap1\n      0x00\n      mstore\n      keccak256(0x00, 0x20)\n      add\n      0x00\n      swap1\n      sload\n      swap1\n      0x0100\n      exp\n      swap1\n      div\n      0xffffffffffffffffffffffffffffffffffffffff\n      and\n        /* \"Practice Projects/Lottery/lottery.sol\":961:1000  address payable winner = players[index] */\n      swap1\n      pop\n        /* \"Practice Projects/Lottery/lottery.sol\":1021:1043  uint managerCommission */\n      0x00\n        /* \"Practice Projects/Lottery/lottery.sol\":1066:1069  100 */\n      0x64\n        /* \"Practice Projects/Lottery/lottery.sol\":1062:1064  10 */\n      0x0a\n        /* \"Practice Projects/Lottery/lottery.sol\":1047:1059  getBalance() */\n      tag_45\n        /* \"Practice Projects/Lottery/lottery.sol\":1047:1057  getBalance */\n      tag_14\n        /* \"Practice Projects/Lottery/lottery.sol\":1047:1059  getBalance() */\n      jump\t// in\n    tag_45:\n        /* \"Practice Projects/Lottery/lottery.sol\":1047:1064  getBalance() * 10 */\n      tag_46\n      swap2\n      swap1\n      tag_47\n      jump\t// in\n    tag_46:\n        /* \"Practice Projects/Lottery/lottery.sol\":1046:1069  (getBalance() * 10)/100 */\n      tag_48\n      swap2\n      swap1\n      tag_49\n      jump\t// in\n    tag_48:\n        /* \"Practice Projects/Lottery/lottery.sol\":1021:1069  uint managerCommission = (getBalance() * 10)/100 */\n      swap1\n      pop\n        /* \"Practice Projects/Lottery/lottery.sol\":1080:1096  uint winnerPrize */\n      0x00\n        /* \"Practice Projects/Lottery/lottery.sol\":1119:1122  100 */\n      0x64\n        /* \"Practice Projects/Lottery/lottery.sol\":1115:1117  90 */\n      0x5a\n        /* \"Practice Projects/Lottery/lottery.sol\":1100:1112  getBalance() */\n      tag_50\n        /* \"Practice Projects/Lottery/lottery.sol\":1100:1110  getBalance */\n      tag_14\n        /* \"Practice Projects/Lottery/lottery.sol\":1100:1112  getBalance() */\n      jump\t// in\n    tag_50:\n        /* \"Practice Projects/Lottery/lottery.sol\":1100:1117  getBalance() * 90 */\n      tag_51\n      swap2\n      swap1\n      tag_47\n      jump\t// in\n    tag_51:\n        /* \"Practice Projects/Lottery/lottery.sol\":1099:1122  (getBalance() * 90)/100 */\n      tag_52\n      swap2\n      swap1\n      tag_49\n      jump\t// in\n    tag_52:\n        /* \"Practice Projects/Lottery/lottery.sol\":1080:1122  uint winnerPrize = (getBalance() * 90)/100 */\n      swap1\n      pop\n        /* \"Practice Projects/Lottery/lottery.sol\":1143:1150  manager */\n      0x01\n      0x00\n      swap1\n      sload\n      swap1\n      0x0100\n      exp\n      swap1\n      div\n      0xffffffffffffffffffffffffffffffffffffffff\n      and\n        /* \"Practice Projects/Lottery/lottery.sol\":1135:1160  payable(manager).transfer */\n      0xffffffffffffffffffffffffffffffffffffffff\n      and\n        /* \"Practice Projects/Lottery/lottery.sol\":1135:1179  payable(manager).transfer(managerCommission) */\n      0x08fc\n        /* \"Practice Projects/Lottery/lottery.sol\":1161:1178  managerCommission */\n      dup4\n        /* \"Practice Projects/Lottery/lottery.sol\":1135:1179  payable(manager).transfer(managerCommission) */\n      swap1\n      dup2\n      iszero\n      mul\n      swap1\n      mload(0x40)\n      0x00\n      mload(0x40)\n      dup1\n      dup4\n      sub\n      dup2\n      dup6\n      dup9\n      dup9\n      call\n      swap4\n      pop\n      pop\n      pop\n      pop\n      iszero\n      dup1\n      iszero\n      tag_54\n      jumpi\n      returndatasize\n      0x00\n      dup1\n      returndatacopy\n      revert(0x00, returndatasize)\n    tag_54:\n      pop\n        /* \"Practice Projects/Lottery/lottery.sol\":1192:1198  winner */\n      dup3\n        /* \"Practice Projects/Lottery/lottery.sol\":1192:1207  winner.transfer */\n      0xffffffffffffffffffffffffffffffffffffffff\n      and\n        /* \"Practice Projects/Lottery/lottery.sol\":1192:1220  winner.transfer(winnerPrize) */\n      0x08fc\n        /* \"Practice Projects/Lottery/lottery.sol\":1208:1219  winnerPrize */\n      dup3\n        /* \"Practice Projects/Lottery/lottery.sol\":1192:1220  winner.transfer(winnerPrize) */\n      swap1\n      dup2\n      iszero\n      mul\n      swap1\n      mload(0x40)\n      0x00\n      mload(0x40)\n      dup1\n      dup4\n      sub\n      dup2\n      dup6\n      dup9\n      dup9\n      call\n      swap4\n      pop\n      pop\n      pop\n      pop\n      iszero\n      dup1\n      iszero\n      tag_56\n      jumpi\n      returndatasize\n      0x00\n      dup1\n      returndatacopy\n      revert(0x00, returndatasize)\n    tag_56:\n      pop\n        /* \"Practice Projects/Lottery/lottery.sol\":1265:1266  0 */\n      0x00\n        /* \"Practice Projects/Lottery/lottery.sol\":1243:1267  new address payable[](0) */\n      0xffffffffffffffff\n      dup2\n      gt\n      iszero\n      tag_57\n      jumpi\n      tag_58\n      tag_59\n      jump\t// in\n    tag_58:\n    tag_57:\n      mload(0x40)\n      swap1\n      dup1\n      dup3\n      mstore\n      dup1\n      0x20\n      mul\n      0x20\n      add\n      dup3\n      add\n      0x40\n      mstore\n      dup1\n      iszero\n      tag_60\n      jumpi\n      dup2\n      0x20\n      add\n      0x20\n      dup3\n      mul\n      dup1\n      calldatasize\n      dup4\n      calldatacopy\n      dup1\n      dup3\n      add\n      swap2\n      pop\n      pop\n      swap1\n      pop\n    tag_60:\n      pop\n        /* \"Practice Projects/Lottery/lottery.sol\":1233:1240  players */\n      0x00\n        /* \"Practice Projects/Lottery/lottery.sol\":1233:1267  players = new address payable[](0) */\n      swap1\n      dup1\n      mload\n      swap1\n      0x20\n      add\n      swap1\n      tag_61\n      swap3\n      swap2\n      swap1\n      tag_62\n      jump\t// in\n    tag_61:\n      pop\n        /* \"Practice Projects/Lottery/lottery.sol\":788:1275  {\r... */\n      pop\n      pop\n      pop\n      pop\n      pop\n        /* \"Practice Projects/Lottery/lottery.sol\":761:1275  function pickWinner()public{\r... */\n      jump\t// out\n        /* \"Practice Projects/Lottery/lottery.sol\":470:622  function random()public view returns(uint){\r... */\n    tag_27:\n        /* \"Practice Projects/Lottery/lottery.sol\":507:511  uint */\n      0x00\n        /* \"Practice Projects/Lottery/lottery.sol\":562:578  block.difficulty */\n      difficulty\n        /* \"Practice Projects/Lottery/lottery.sol\":580:595  block.timestamp */\n      timestamp\n        /* \"Practice Projects/Lottery/lottery.sol\":597:604  players */\n      0x00\n        /* \"Practice Projects/Lottery/lottery.sol\":597:611  players.length */\n      dup1\n      sload\n      swap1\n      pop\n        /* \"Practice Projects/Lottery/lottery.sol\":545:612  abi.encodePacked(block.difficulty, block.timestamp, players.length) */\n      add(0x20, mload(0x40))\n      tag_64\n      swap4\n      swap3\n      swap2\n      swap1\n      tag_65\n      jump\t// in\n    tag_64:\n      mload(0x40)\n      0x20\n      dup2\n      dup4\n      sub\n      sub\n      dup2\n      mstore\n      swap1\n      0x40\n      mstore\n        /* \"Practice Projects/Lottery/lottery.sol\":535:613  keccak256(abi.encodePacked(block.difficulty, block.timestamp, players.length)) */\n      dup1\n      mload\n      swap1\n      0x20\n      add\n      keccak256\n        /* \"Practice Projects/Lottery/lottery.sol\":530:614  uint(keccak256(abi.encodePacked(block.difficulty, block.timestamp, players.length))) */\n      0x00\n      shr\n        /* \"Practice Projects/Lottery/lottery.sol\":523:614  return uint(keccak256(abi.encodePacked(block.difficulty, block.timestamp, players.length))) */\n      swap1\n      pop\n        /* \"Practice Projects/Lottery/lottery.sol\":470:622  function random()public view returns(uint){\r... */\n      swap1\n      jump\t// out\n        /* \"Practice Projects/Lottery/lottery.sol\":50:83  address payable [] public players */\n    tag_33:\n      0x00\n      dup2\n      dup2\n      sload\n      dup2\n      lt\n      tag_66\n      jumpi\n      0x00\n      dup1\n      revert\n    tag_66:\n      swap1\n      0x00\n      mstore\n      keccak256(0x00, 0x20)\n      add\n      0x00\n      swap2\n      pop\n      sload\n      swap1\n      0x0100\n      exp\n      swap1\n      div\n      0xffffffffffffffffffffffffffffffffffffffff\n      and\n      dup2\n      jump\t// out\n    tag_62:\n      dup3\n      dup1\n      sload\n      dup3\n      dup3\n      sstore\n      swap1\n      0x00\n      mstore\n      keccak256(0x00, 0x20)\n      swap1\n      dup2\n      add\n      swap3\n      dup3\n      iszero\n      tag_68\n      jumpi\n      swap2\n      0x20\n      mul\n      dup3\n      add\n    tag_69:\n      dup3\n      dup2\n      gt\n      iszero\n      tag_70\n      jumpi\n      dup3\n      mload\n      dup3\n      exp(0x0100, 0x00)\n      dup2\n      sload\n      dup2\n      0xffffffffffffffffffffffffffffffffffffffff\n      mul\n      not\n      and\n      swap1\n      dup4\n      0xffffffffffffffffffffffffffffffffffffffff\n      and\n      mul\n      or\n      swap1\n      sstore\n      pop\n      swap2\n      0x20\n      add\n      swap2\n      swap1\n      0x01\n      add\n      swap1\n      jump(tag_69)\n    tag_70:\n    tag_68:\n      pop\n      swap1\n      pop\n      tag_71\n      swap2\n      swap1\n      tag_72\n      jump\t// in\n    tag_71:\n      pop\n      swap1\n      jump\t// out\n    tag_72:\n    tag_73:\n      dup1\n      dup3\n      gt\n      iszero\n      tag_74\n      jumpi\n      0x00\n      dup2\n      0x00\n      swap1\n      sstore\n      pop\n      0x01\n      add\n      jump(tag_73)\n    tag_74:\n      pop\n      swap1\n      jump\t// out\n        /* \"#utility.yul\":7:146   */\n    tag_76:\n        /* \"#utility.yul\":53:58   */\n      0x00\n        /* \"#utility.yul\":91:97   */\n      dup2\n        /* \"#utility.yul\":78:98   */\n      calldataload\n        /* \"#utility.yul\":69:98   */\n      swap1\n      pop\n        /* \"#utility.yul\":107:140   */\n      tag_78\n        /* \"#utility.yul\":134:139   */\n      dup2\n        /* \"#utility.yul\":107:140   */\n      tag_79\n      jump\t// in\n    tag_78:\n        /* \"#utility.yul\":7:146   */\n      swap3\n      swap2\n      pop\n      pop\n      jump\t// out\n        /* \"#utility.yul\":152:481   */\n    tag_32:\n        /* \"#utility.yul\":211:217   */\n      0x00\n        /* \"#utility.yul\":260:262   */\n      0x20\n        /* \"#utility.yul\":248:257   */\n      dup3\n        /* \"#utility.yul\":239:246   */\n      dup5\n        /* \"#utility.yul\":235:258   */\n      sub\n        /* \"#utility.yul\":231:263   */\n      slt\n        /* \"#utility.yul\":228:347   */\n      iszero\n      tag_81\n      jumpi\n        /* \"#utility.yul\":266:345   */\n      tag_82\n      tag_83\n      jump\t// in\n    tag_82:\n        /* \"#utility.yul\":228:347   */\n    tag_81:\n        /* \"#utility.yul\":386:387   */\n      0x00\n        /* \"#utility.yul\":411:464   */\n      tag_84\n        /* \"#utility.yul\":456:463   */\n      dup5\n        /* \"#utility.yul\":447:453   */\n      dup3\n        /* \"#utility.yul\":436:445   */\n      dup6\n        /* \"#utility.yul\":432:454   */\n      add\n        /* \"#utility.yul\":411:464   */\n      tag_76\n      jump\t// in\n    tag_84:\n        /* \"#utility.yul\":401:464   */\n      swap2\n      pop\n        /* \"#utility.yul\":357:474   */\n      pop\n        /* \"#utility.yul\":152:481   */\n      swap3\n      swap2\n      pop\n      pop\n      jump\t// out\n        /* \"#utility.yul\":487:629   */\n    tag_85:\n        /* \"#utility.yul\":590:622   */\n      tag_87\n        /* \"#utility.yul\":616:621   */\n      dup2\n        /* \"#utility.yul\":590:622   */\n      tag_88\n      jump\t// in\n    tag_87:\n        /* \"#utility.yul\":585:588   */\n      dup3\n        /* \"#utility.yul\":578:623   */\n      mstore\n        /* \"#utility.yul\":487:629   */\n      pop\n      pop\n      jump\t// out\n        /* \"#utility.yul\":635:753   */\n    tag_89:\n        /* \"#utility.yul\":722:746   */\n      tag_91\n        /* \"#utility.yul\":740:745   */\n      dup2\n        /* \"#utility.yul\":722:746   */\n      tag_92\n      jump\t// in\n    tag_91:\n        /* \"#utility.yul\":717:720   */\n      dup3\n        /* \"#utility.yul\":710:747   */\n      mstore\n        /* \"#utility.yul\":635:753   */\n      pop\n      pop\n      jump\t// out\n        /* \"#utility.yul\":759:916   */\n    tag_93:\n        /* \"#utility.yul\":864:909   */\n      tag_95\n        /* \"#utility.yul\":884:908   */\n      tag_96\n        /* \"#utility.yul\":902:907   */\n      dup3\n        /* \"#utility.yul\":884:908   */\n      tag_92\n      jump\t// in\n    tag_96:\n        /* \"#utility.yul\":864:909   */\n      tag_97\n      jump\t// in\n    tag_95:\n        /* \"#utility.yul\":859:862   */\n      dup3\n        /* \"#utility.yul\":852:910   */\n      mstore\n        /* \"#utility.yul\":759:916   */\n      pop\n      pop\n      jump\t// out\n        /* \"#utility.yul\":922:1460   */\n    tag_65:\n        /* \"#utility.yul\":1090:1093   */\n      0x00\n        /* \"#utility.yul\":1105:1180   */\n      tag_99\n        /* \"#utility.yul\":1176:1179   */\n      dup3\n        /* \"#utility.yul\":1167:1173   */\n      dup7\n        /* \"#utility.yul\":1105:1180   */\n      tag_93\n      jump\t// in\n    tag_99:\n        /* \"#utility.yul\":1205:1207   */\n      0x20\n        /* \"#utility.yul\":1200:1203   */\n      dup3\n        /* \"#utility.yul\":1196:1208   */\n      add\n        /* \"#utility.yul\":1189:1208   */\n      swap2\n      pop\n        /* \"#utility.yul\":1218:1293   */\n      tag_100\n        /* \"#utility.yul\":1289:1292   */\n      dup3\n        /* \"#utility.yul\":1280:1286   */\n      dup6\n        /* \"#utility.yul\":1218:1293   */\n      tag_93\n      jump\t// in\n    tag_100:\n        /* \"#utility.yul\":1318:1320   */\n      0x20\n        /* \"#utility.yul\":1313:1316   */\n      dup3\n        /* \"#utility.yul\":1309:1321   */\n      add\n        /* \"#utility.yul\":1302:1321   */\n      swap2\n      pop\n        /* \"#utility.yul\":1331:1406   */\n      tag_101\n        /* \"#utility.yul\":1402:1405   */\n      dup3\n        /* \"#utility.yul\":1393:1399   */\n      dup5\n        /* \"#utility.yul\":1331:1406   */\n      tag_93\n      jump\t// in\n    tag_101:\n        /* \"#utility.yul\":1431:1433   */\n      0x20\n        /* \"#utility.yul\":1426:1429   */\n      dup3\n        /* \"#utility.yul\":1422:1434   */\n      add\n        /* \"#utility.yul\":1415:1434   */\n      swap2\n      pop\n        /* \"#utility.yul\":1451:1454   */\n      dup2\n        /* \"#utility.yul\":1444:1454   */\n      swap1\n      pop\n        /* \"#utility.yul\":922:1460   */\n      swap5\n      swap4\n      pop\n      pop\n      pop\n      pop\n      jump\t// out\n        /* \"#utility.yul\":1466:1720   */\n    tag_21:\n        /* \"#utility.yul\":1575:1579   */\n      0x00\n        /* \"#utility.yul\":1613:1615   */\n      0x20\n        /* \"#utility.yul\":1602:1611   */\n      dup3\n        /* \"#utility.yul\":1598:1616   */\n      add\n        /* \"#utility.yul\":1590:1616   */\n      swap1\n      pop\n        /* \"#utility.yul\":1626:1713   */\n      tag_103\n        /* \"#utility.yul\":1710:1711   */\n      0x00\n        /* \"#utility.yul\":1699:1708   */\n      dup4\n        /* \"#utility.yul\":1695:1712   */\n      add\n        /* \"#utility.yul\":1686:1692   */\n      dup5\n        /* \"#utility.yul\":1626:1713   */\n      tag_85\n      jump\t// in\n    tag_103:\n        /* \"#utility.yul\":1466:1720   */\n      swap3\n      swap2\n      pop\n      pop\n      jump\t// out\n        /* \"#utility.yul\":1726:1948   */\n    tag_16:\n        /* \"#utility.yul\":1819:1823   */\n      0x00\n        /* \"#utility.yul\":1857:1859   */\n      0x20\n        /* \"#utility.yul\":1846:1855   */\n      dup3\n        /* \"#utility.yul\":1842:1860   */\n      add\n        /* \"#utility.yul\":1834:1860   */\n      swap1\n      pop\n        /* \"#utility.yul\":1870:1941   */\n      tag_105\n        /* \"#utility.yul\":1938:1939   */\n      0x00\n        /* \"#utility.yul\":1927:1936   */\n      dup4\n        /* \"#utility.yul\":1923:1940   */\n      add\n        /* \"#utility.yul\":1914:1920   */\n      dup5\n        /* \"#utility.yul\":1870:1941   */\n      tag_89\n      jump\t// in\n    tag_105:\n        /* \"#utility.yul\":1726:1948   */\n      swap3\n      swap2\n      pop\n      pop\n      jump\t// out\n        /* \"#utility.yul\":2035:2220   */\n    tag_49:\n        /* \"#utility.yul\":2075:2076   */\n      0x00\n        /* \"#utility.yul\":2092:2112   */\n      tag_109\n        /* \"#utility.yul\":2110:2111   */\n      dup3\n        /* \"#utility.yul\":2092:2112   */\n      tag_92\n      jump\t// in\n    tag_109:\n        /* \"#utility.yul\":2087:2112   */\n      swap2\n      pop\n        /* \"#utility.yul\":2126:2146   */\n      tag_110\n        /* \"#utility.yul\":2144:2145   */\n      dup4\n        /* \"#utility.yul\":2126:2146   */\n      tag_92\n      jump\t// in\n    tag_110:\n        /* \"#utility.yul\":2121:2146   */\n      swap3\n      pop\n        /* \"#utility.yul\":2165:2166   */\n      dup3\n        /* \"#utility.yul\":2155:2190   */\n      tag_111\n      jumpi\n        /* \"#utility.yul\":2170:2188   */\n      tag_112\n      tag_113\n      jump\t// in\n    tag_112:\n        /* \"#utility.yul\":2155:2190   */\n    tag_111:\n        /* \"#utility.yul\":2212:2213   */\n      dup3\n        /* \"#utility.yul\":2209:2210   */\n      dup3\n        /* \"#utility.yul\":2205:2214   */\n      div\n        /* \"#utility.yul\":2200:2214   */\n      swap1\n      pop\n        /* \"#utility.yul\":2035:2220   */\n      swap3\n      swap2\n      pop\n      pop\n      jump\t// out\n        /* \"#utility.yul\":2226:2574   */\n    tag_47:\n        /* \"#utility.yul\":2266:2273   */\n      0x00\n        /* \"#utility.yul\":2289:2309   */\n      tag_115\n        /* \"#utility.yul\":2307:2308   */\n      dup3\n        /* \"#utility.yul\":2289:2309   */\n      tag_92\n      jump\t// in\n    tag_115:\n        /* \"#utility.yul\":2284:2309   */\n      swap2\n      pop\n        /* \"#utility.yul\":2323:2343   */\n      tag_116\n        /* \"#utility.yul\":2341:2342   */\n      dup4\n        /* \"#utility.yul\":2323:2343   */\n      tag_92\n      jump\t// in\n    tag_116:\n        /* \"#utility.yul\":2318:2343   */\n      swap3\n      pop\n        /* \"#utility.yul\":2511:2512   */\n      dup2\n        /* \"#utility.yul\":2443:2509   */\n      0xffffffffffffffffffffffffffffffffffffffffffffffffffffffffffffffff\n        /* \"#utility.yul\":2439:2513   */\n      div\n        /* \"#utility.yul\":2436:2437   */\n      dup4\n        /* \"#utility.yul\":2433:2514   */\n      gt\n        /* \"#utility.yul\":2428:2429   */\n      dup3\n        /* \"#utility.yul\":2421:2430   */\n      iszero\n        /* \"#utility.yul\":2414:2431   */\n      iszero\n        /* \"#utility.yul\":2410:2515   */\n      and\n        /* \"#utility.yul\":2407:2538   */\n      iszero\n      tag_117\n      jumpi\n        /* \"#utility.yul\":2518:2536   */\n      tag_118\n      tag_119\n      jump\t// in\n    tag_118:\n        /* \"#utility.yul\":2407:2538   */\n    tag_117:\n        /* \"#utility.yul\":2566:2567   */\n      dup3\n        /* \"#utility.yul\":2563:2564   */\n      dup3\n        /* \"#utility.yul\":2559:2568   */\n      mul\n        /* \"#utility.yul\":2548:2568   */\n      swap1\n      pop\n        /* \"#utility.yul\":2226:2574   */\n      swap3\n      swap2\n      pop\n      pop\n      jump\t// out\n        /* \"#utility.yul\":2580:2684   */\n    tag_88:\n        /* \"#utility.yul\":2625:2632   */\n      0x00\n        /* \"#utility.yul\":2654:2678   */\n      tag_121\n        /* \"#utility.yul\":2672:2677   */\n      dup3\n        /* \"#utility.yul\":2654:2678   */\n      tag_122\n      jump\t// in\n    tag_121:\n        /* \"#utility.yul\":2643:2678   */\n      swap1\n      pop\n        /* \"#utility.yul\":2580:2684   */\n      swap2\n      swap1\n      pop\n      jump\t// out\n        /* \"#utility.yul\":2690:2816   */\n    tag_122:\n        /* \"#utility.yul\":2727:2734   */\n      0x00\n        /* \"#utility.yul\":2767:2809   */\n      0xffffffffffffffffffffffffffffffffffffffff\n        /* \"#utility.yul\":2760:2765   */\n      dup3\n        /* \"#utility.yul\":2756:2810   */\n      and\n        /* \"#utility.yul\":2745:2810   */\n      swap1\n      pop\n        /* \"#utility.yul\":2690:2816   */\n      swap2\n      swap1\n      pop\n      jump\t// out\n        /* \"#utility.yul\":2822:2899   */\n    tag_92:\n        /* \"#utility.yul\":2859:2866   */\n      0x00\n        /* \"#utility.yul\":2888:2893   */\n      dup2\n        /* \"#utility.yul\":2877:2893   */\n      swap1\n      pop\n        /* \"#utility.yul\":2822:2899   */\n      swap2\n      swap1\n      pop\n      jump\t// out\n        /* \"#utility.yul\":2905:2984   */\n    tag_97:\n        /* \"#utility.yul\":2944:2951   */\n      0x00\n        /* \"#utility.yul\":2973:2978   */\n      dup2\n        /* \"#utility.yul\":2962:2978   */\n      swap1\n      pop\n        /* \"#utility.yul\":2905:2984   */\n      swap2\n      swap1\n      pop\n      jump\t// out\n        /* \"#utility.yul\":2990:3166   */\n    tag_40:\n        /* \"#utility.yul\":3022:3023   */\n      0x00\n        /* \"#utility.yul\":3039:3059   */\n      tag_127\n        /* \"#utility.yul\":3057:3058   */\n      dup3\n        /* \"#utility.yul\":3039:3059   */\n      tag_92\n      jump\t// in\n    tag_127:\n        /* \"#utility.yul\":3034:3059   */\n      swap2\n      pop\n        /* \"#utility.yul\":3073:3093   */\n      tag_128\n        /* \"#utility.yul\":3091:3092   */\n      dup4\n        /* \"#utility.yul\":3073:3093   */\n      tag_92\n      jump\t// in\n    tag_128:\n        /* \"#utility.yul\":3068:3093   */\n      swap3\n      pop\n        /* \"#utility.yul\":3112:3113   */\n      dup3\n        /* \"#utility.yul\":3102:3137   */\n      tag_129\n      jumpi\n        /* \"#utility.yul\":3117:3135   */\n      tag_130\n      tag_113\n      jump\t// in\n    tag_130:\n        /* \"#utility.yul\":3102:3137   */\n    tag_129:\n        /* \"#utility.yul\":3158:3159   */\n      dup3\n        /* \"#utility.yul\":3155:3156   */\n      dup3\n        /* \"#utility.yul\":3151:3160   */\n      mod\n        /* \"#utility.yul\":3146:3160   */\n      swap1\n      pop\n        /* \"#utility.yul\":2990:3166   */\n      swap3\n      swap2\n      pop\n      pop\n      jump\t// out\n        /* \"#utility.yul\":3172:3352   */\n    tag_119:\n        /* \"#utility.yul\":3220:3297   */\n      0x4e487b7100000000000000000000000000000000000000000000000000000000\n        /* \"#utility.yul\":3217:3218   */\n      0x00\n        /* \"#utility.yul\":3210:3298   */\n      mstore\n        /* \"#utility.yul\":3317:3321   */\n      0x11\n        /* \"#utility.yul\":3314:3315   */\n      0x04\n        /* \"#utility.yul\":3307:3322   */\n      mstore\n        /* \"#utility.yul\":3341:3345   */\n      0x24\n        /* \"#utility.yul\":3338:3339   */\n      0x00\n        /* \"#utility.yul\":3331:3346   */\n      revert\n        /* \"#utility.yul\":3358:3538   */\n    tag_113:\n        /* \"#utility.yul\":3406:3483   */\n      0x4e487b7100000000000000000000000000000000000000000000000000000000\n        /* \"#utility.yul\":3403:3404   */\n      0x00\n        /* \"#utility.yul\":3396:3484   */\n      mstore\n        /* \"#utility.yul\":3503:3507   */\n      0x12\n        /* \"#utility.yul\":3500:3501   */\n      0x04\n        /* \"#utility.yul\":3493:3508   */\n      mstore\n        /* \"#utility.yul\":3527:3531   */\n      0x24\n        /* \"#utility.yul\":3524:3525   */\n      0x00\n        /* \"#utility.yul\":3517:3532   */\n      revert\n        /* \"#utility.yul\":3544:3724   */\n    tag_43:\n        /* \"#utility.yul\":3592:3669   */\n      0x4e487b7100000000000000000000000000000000000000000000000000000000\n        /* \"#utility.yul\":3589:3590   */\n      0x00\n        /* \"#utility.yul\":3582:3670   */\n      mstore\n        /* \"#utility.yul\":3689:3693   */\n      0x32\n        /* \"#utility.yul\":3686:3687   */\n      0x04\n        /* \"#utility.yul\":3679:3694   */\n      mstore\n        /* \"#utility.yul\":3713:3717   */\n      0x24\n        /* \"#utility.yul\":3710:3711   */\n      0x00\n        /* \"#utility.yul\":3703:3718   */\n      revert\n        /* \"#utility.yul\":3730:3910   */\n    tag_59:\n        /* \"#utility.yul\":3778:3855   */\n      0x4e487b7100000000000000000000000000000000000000000000000000000000\n        /* \"#utility.yul\":3775:3776   */\n      0x00\n        /* \"#utility.yul\":3768:3856   */\n      mstore\n        /* \"#utility.yul\":3875:3879   */\n      0x41\n        /* \"#utility.yul\":3872:3873   */\n      0x04\n        /* \"#utility.yul\":3865:3880   */\n      mstore\n        /* \"#utility.yul\":3899:3903   */\n      0x24\n        /* \"#utility.yul\":3896:3897   */\n      0x00\n        /* \"#utility.yul\":3889:3904   */\n      revert\n        /* \"#utility.yul\":4039:4156   */\n    tag_83:\n        /* \"#utility.yul\":4148:4149   */\n      0x00\n        /* \"#utility.yul\":4145:4146   */\n      dup1\n        /* \"#utility.yul\":4138:4150   */\n      revert\n        /* \"#utility.yul\":4162:4284   */\n    tag_79:\n        /* \"#utility.yul\":4235:4259   */\n      tag_139\n        /* \"#utility.yul\":4253:4258   */\n      dup2\n        /* \"#utility.yul\":4235:4259   */\n      tag_92\n      jump\t// in\n    tag_139:\n        /* \"#utility.yul\":4228:4233   */\n      dup2\n        /* \"#utility.yul\":4225:4260   */\n      eq\n        /* \"#utility.yul\":4215:4278   */\n      tag_140\n      jumpi\n        /* \"#utility.yul\":4274:4275   */\n      0x00\n        /* \"#utility.yul\":4271:4272   */\n      dup1\n        /* \"#utility.yul\":4264:4276   */\n      revert\n        /* \"#utility.yul\":4215:4278   */\n    tag_140:\n        /* \"#utility.yul\":4162:4284   */\n      pop\n      jump\t// out\n\n    auxdata: 0xa264697066735822122099601a7eb27bd13ef0c337d5f0ade6d1a3bea611da155eabbf1b9e84de2f4b3864736f6c63430008070033\n}\n",
				"bytecode": {
					"linkReferences": {},
					"object": "608060405234801561001057600080fd5b5033600160006101000a81548173ffffffffffffffffffffffffffffffffffffffff021916908373ffffffffffffffffffffffffffffffffffffffff1602179055506107c2806100616000396000f3fe60806040526004361061004e5760003560e01c806312065fe0146100d1578063481c6a75146100fc5780635d495aea146101275780635ec01e4d1461013e578063f71d96cb14610169576100cc565b366100cc5767016345785d8a0000341461006757600080fd5b6000339080600181540180825580915050600190039060005260206000200160009091909190916101000a81548173ffffffffffffffffffffffffffffffffffffffff021916908373ffffffffffffffffffffffffffffffffffffffff160217905550005b600080fd5b3480156100dd57600080fd5b506100e66101a6565b6040516100f39190610597565b60405180910390f35b34801561010857600080fd5b506101116101ae565b60405161011e919061057c565b60405180910390f35b34801561013357600080fd5b5061013c6101d4565b005b34801561014a57600080fd5b506101536103a8565b6040516101609190610597565b60405180910390f35b34801561017557600080fd5b50610190600480360381019061018b91906104dd565b6103e2565b60405161019d919061057c565b60405180910390f35b600047905090565b600160009054906101000a900473ffffffffffffffffffffffffffffffffffffffff1681565b600460008054905010156101e757600080fd5b60006101f16103a8565b905060008080549050826102059190610683565b9050600080828154811061021c5761021b610712565b5b9060005260206000200160009054906101000a900473ffffffffffffffffffffffffffffffffffffffff16905060006064600a6102576101a6565b61026191906105e3565b61026b91906105b2565b905060006064605a61027b6101a6565b61028591906105e3565b61028f91906105b2565b9050600160009054906101000a900473ffffffffffffffffffffffffffffffffffffffff1673ffffffffffffffffffffffffffffffffffffffff166108fc839081150290604051600060405180830381858888f193505050501580156102f9573d6000803e3d6000fd5b508273ffffffffffffffffffffffffffffffffffffffff166108fc829081150290604051600060405180830381858888f19350505050158015610340573d6000803e3d6000fd5b50600067ffffffffffffffff81111561035c5761035b610741565b5b60405190808252806020026020018201604052801561038a5781602001602082028036833780820191505090505b50600090805190602001906103a0929190610421565b505050505050565b600044426000805490506040516020016103c49392919061053f565b6040516020818303038152906040528051906020012060001c905090565b600081815481106103f257600080fd5b906000526020600020016000915054906101000a900473ffffffffffffffffffffffffffffffffffffffff1681565b82805482825590600052602060002090810192821561049a579160200282015b828111156104995782518260006101000a81548173ffffffffffffffffffffffffffffffffffffffff021916908373ffffffffffffffffffffffffffffffffffffffff16021790555091602001919060010190610441565b5b5090506104a791906104ab565b5090565b5b808211156104c45760008160009055506001016104ac565b5090565b6000813590506104d781610775565b92915050565b6000602082840312156104f3576104f2610770565b5b6000610501848285016104c8565b91505092915050565b6105138161063d565b82525050565b6105228161066f565b82525050565b6105396105348261066f565b610679565b82525050565b600061054b8286610528565b60208201915061055b8285610528565b60208201915061056b8284610528565b602082019150819050949350505050565b6000602082019050610591600083018461050a565b92915050565b60006020820190506105ac6000830184610519565b92915050565b60006105bd8261066f565b91506105c88361066f565b9250826105d8576105d76106e3565b5b828204905092915050565b60006105ee8261066f565b91506105f98361066f565b9250817fffffffffffffffffffffffffffffffffffffffffffffffffffffffffffffffff0483118215151615610632576106316106b4565b5b828202905092915050565b60006106488261064f565b9050919050565b600073ffffffffffffffffffffffffffffffffffffffff82169050919050565b6000819050919050565b6000819050919050565b600061068e8261066f565b91506106998361066f565b9250826106a9576106a86106e3565b5b828206905092915050565b7f4e487b7100000000000000000000000000000000000000000000000000000000600052601160045260246000fd5b7f4e487b7100000000000000000000000000000000000000000000000000000000600052601260045260246000fd5b7f4e487b7100000000000000000000000000000000000000000000000000000000600052603260045260246000fd5b7f4e487b7100000000000000000000000000000000000000000000000000000000600052604160045260246000fd5b600080fd5b61077e8161066f565b811461078957600080fd5b5056fea264697066735822122099601a7eb27bd13ef0c337d5f0ade6d1a3bea611da155eabbf1b9e84de2f4b3864736f6c63430008070033",
					"opcodes": "PUSH1 0x80 PUSH1 0x40 MSTORE CALLVALUE DUP1 ISZERO PUSH2 0x10 JUMPI PUSH1 0x0 DUP1 REVERT JUMPDEST POP CALLER PUSH1 0x1 PUSH1 0x0 PUSH2 0x100 EXP DUP2 SLOAD DUP2 PUSH20 0xFFFFFFFFFFFFFFFFFFFFFFFFFFFFFFFFFFFFFFFF MUL NOT AND SWAP1 DUP4 PUSH20 0xFFFFFFFFFFFFFFFFFFFFFFFFFFFFFFFFFFFFFFFF AND MUL OR SWAP1 SSTORE POP PUSH2 0x7C2 DUP1 PUSH2 0x61 PUSH1 0x0 CODECOPY PUSH1 0x0 RETURN INVALID PUSH1 0x80 PUSH1 0x40 MSTORE PUSH1 0x4 CALLDATASIZE LT PUSH2 0x4E JUMPI PUSH1 0x0 CALLDATALOAD PUSH1 0xE0 SHR DUP1 PUSH4 0x12065FE0 EQ PUSH2 0xD1 JUMPI DUP1 PUSH4 0x481C6A75 EQ PUSH2 0xFC JUMPI DUP1 PUSH4 0x5D495AEA EQ PUSH2 0x127 JUMPI DUP1 PUSH4 0x5EC01E4D EQ PUSH2 0x13E JUMPI DUP1 PUSH4 0xF71D96CB EQ PUSH2 0x169 JUMPI PUSH2 0xCC JUMP JUMPDEST CALLDATASIZE PUSH2 0xCC JUMPI PUSH8 0x16345785D8A0000 CALLVALUE EQ PUSH2 0x67 JUMPI PUSH1 0x0 DUP1 REVERT JUMPDEST PUSH1 0x0 CALLER SWAP1 DUP1 PUSH1 0x1 DUP2 SLOAD ADD DUP1 DUP3 SSTORE DUP1 SWAP2 POP POP PUSH1 0x1 SWAP1 SUB SWAP1 PUSH1 0x0 MSTORE PUSH1 0x20 PUSH1 0x0 KECCAK256 ADD PUSH1 0x0 SWAP1 SWAP2 SWAP1 SWAP2 SWAP1 SWAP2 PUSH2 0x100 EXP DUP2 SLOAD DUP2 PUSH20 0xFFFFFFFFFFFFFFFFFFFFFFFFFFFFFFFFFFFFFFFF MUL NOT AND SWAP1 DUP4 PUSH20 0xFFFFFFFFFFFFFFFFFFFFFFFFFFFFFFFFFFFFFFFF AND MUL OR SWAP1 SSTORE POP STOP JUMPDEST PUSH1 0x0 DUP1 REVERT JUMPDEST CALLVALUE DUP1 ISZERO PUSH2 0xDD JUMPI PUSH1 0x0 DUP1 REVERT JUMPDEST POP PUSH2 0xE6 PUSH2 0x1A6 JUMP JUMPDEST PUSH1 0x40 MLOAD PUSH2 0xF3 SWAP2 SWAP1 PUSH2 0x597 JUMP JUMPDEST PUSH1 0x40 MLOAD DUP1 SWAP2 SUB SWAP1 RETURN JUMPDEST CALLVALUE DUP1 ISZERO PUSH2 0x108 JUMPI PUSH1 0x0 DUP1 REVERT JUMPDEST POP PUSH2 0x111 PUSH2 0x1AE JUMP JUMPDEST PUSH1 0x40 MLOAD PUSH2 0x11E SWAP2 SWAP1 PUSH2 0x57C JUMP JUMPDEST PUSH1 0x40 MLOAD DUP1 SWAP2 SUB SWAP1 RETURN JUMPDEST CALLVALUE DUP1 ISZERO PUSH2 0x133 JUMPI PUSH1 0x0 DUP1 REVERT JUMPDEST POP PUSH2 0x13C PUSH2 0x1D4 JUMP JUMPDEST STOP JUMPDEST CALLVALUE DUP1 ISZERO PUSH2 0x14A JUMPI PUSH1 0x0 DUP1 REVERT JUMPDEST POP PUSH2 0x153 PUSH2 0x3A8 JUMP JUMPDEST PUSH1 0x40 MLOAD PUSH2 0x160 SWAP2 SWAP1 PUSH2 0x597 JUMP JUMPDEST PUSH1 0x40 MLOAD DUP1 SWAP2 SUB SWAP1 RETURN JUMPDEST CALLVALUE DUP1 ISZERO PUSH2 0x175 JUMPI PUSH1 0x0 DUP1 REVERT JUMPDEST POP PUSH2 0x190 PUSH1 0x4 DUP1 CALLDATASIZE SUB DUP2 ADD SWAP1 PUSH2 0x18B SWAP2 SWAP1 PUSH2 0x4DD JUMP JUMPDEST PUSH2 0x3E2 JUMP JUMPDEST PUSH1 0x40 MLOAD PUSH2 0x19D SWAP2 SWAP1 PUSH2 0x57C JUMP JUMPDEST PUSH1 0x40 MLOAD DUP1 SWAP2 SUB SWAP1 RETURN JUMPDEST PUSH1 0x0 SELFBALANCE SWAP1 POP SWAP1 JUMP JUMPDEST PUSH1 0x1 PUSH1 0x0 SWAP1 SLOAD SWAP1 PUSH2 0x100 EXP SWAP1 DIV PUSH20 0xFFFFFFFFFFFFFFFFFFFFFFFFFFFFFFFFFFFFFFFF AND DUP2 JUMP JUMPDEST PUSH1 0x4 PUSH1 0x0 DUP1 SLOAD SWAP1 POP LT ISZERO PUSH2 0x1E7 JUMPI PUSH1 0x0 DUP1 REVERT JUMPDEST PUSH1 0x0 PUSH2 0x1F1 PUSH2 0x3A8 JUMP JUMPDEST SWAP1 POP PUSH1 0x0 DUP1 DUP1 SLOAD SWAP1 POP DUP3 PUSH2 0x205 SWAP2 SWAP1 PUSH2 0x683 JUMP JUMPDEST SWAP1 POP PUSH1 0x0 DUP1 DUP3 DUP2 SLOAD DUP2 LT PUSH2 0x21C JUMPI PUSH2 0x21B PUSH2 0x712 JUMP JUMPDEST JUMPDEST SWAP1 PUSH1 0x0 MSTORE PUSH1 0x20 PUSH1 0x0 KECCAK256 ADD PUSH1 0x0 SWAP1 SLOAD SWAP1 PUSH2 0x100 EXP SWAP1 DIV PUSH20 0xFFFFFFFFFFFFFFFFFFFFFFFFFFFFFFFFFFFFFFFF AND SWAP1 POP PUSH1 0x0 PUSH1 0x64 PUSH1 0xA PUSH2 0x257 PUSH2 0x1A6 JUMP JUMPDEST PUSH2 0x261 SWAP2 SWAP1 PUSH2 0x5E3 JUMP JUMPDEST PUSH2 0x26B SWAP2 SWAP1 PUSH2 0x5B2 JUMP JUMPDEST SWAP1 POP PUSH1 0x0 PUSH1 0x64 PUSH1 0x5A PUSH2 0x27B PUSH2 0x1A6 JUMP JUMPDEST PUSH2 0x285 SWAP2 SWAP1 PUSH2 0x5E3 JUMP JUMPDEST PUSH2 0x28F SWAP2 SWAP1 PUSH2 0x5B2 JUMP JUMPDEST SWAP1 POP PUSH1 0x1 PUSH1 0x0 SWAP1 SLOAD SWAP1 PUSH2 0x100 EXP SWAP1 DIV PUSH20 0xFFFFFFFFFFFFFFFFFFFFFFFFFFFFFFFFFFFFFFFF AND PUSH20 0xFFFFFFFFFFFFFFFFFFFFFFFFFFFFFFFFFFFFFFFF AND PUSH2 0x8FC DUP4 SWAP1 DUP2 ISZERO MUL SWAP1 PUSH1 0x40 MLOAD PUSH1 0x0 PUSH1 0x40 MLOAD DUP1 DUP4 SUB DUP2 DUP6 DUP9 DUP9 CALL SWAP4 POP POP POP POP ISZERO DUP1 ISZERO PUSH2 0x2F9 JUMPI RETURNDATASIZE PUSH1 0x0 DUP1 RETURNDATACOPY RETURNDATASIZE PUSH1 0x0 REVERT JUMPDEST POP DUP3 PUSH20 0xFFFFFFFFFFFFFFFFFFFFFFFFFFFFFFFFFFFFFFFF AND PUSH2 0x8FC DUP3 SWAP1 DUP2 ISZERO MUL SWAP1 PUSH1 0x40 MLOAD PUSH1 0x0 PUSH1 0x40 MLOAD DUP1 DUP4 SUB DUP2 DUP6 DUP9 DUP9 CALL SWAP4 POP POP POP POP ISZERO DUP1 ISZERO PUSH2 0x340 JUMPI RETURNDATASIZE PUSH1 0x0 DUP1 RETURNDATACOPY RETURNDATASIZE PUSH1 0x0 REVERT JUMPDEST POP PUSH1 0x0 PUSH8 0xFFFFFFFFFFFFFFFF DUP2 GT ISZERO PUSH2 0x35C JUMPI PUSH2 0x35B PUSH2 0x741 JUMP JUMPDEST JUMPDEST PUSH1 0x40 MLOAD SWAP1 DUP1 DUP3 MSTORE DUP1 PUSH1 0x20 MUL PUSH1 0x20 ADD DUP3 ADD PUSH1 0x40 MSTORE DUP1 ISZERO PUSH2 0x38A JUMPI DUP2 PUSH1 0x20 ADD PUSH1 0x20 DUP3 MUL DUP1 CALLDATASIZE DUP4 CALLDATACOPY DUP1 DUP3 ADD SWAP2 POP POP SWAP1 POP JUMPDEST POP PUSH1 0x0 SWAP1 DUP1 MLOAD SWAP1 PUSH1 0x20 ADD SWAP1 PUSH2 0x3A0 SWAP3 SWAP2 SWAP1 PUSH2 0x421 JUMP JUMPDEST POP POP POP POP POP POP JUMP JUMPDEST PUSH1 0x0 DIFFICULTY TIMESTAMP PUSH1 0x0 DUP1 SLOAD SWAP1 POP PUSH1 0x40 MLOAD PUSH1 0x20 ADD PUSH2 0x3C4 SWAP4 SWAP3 SWAP2 SWAP1 PUSH2 0x53F JUMP JUMPDEST PUSH1 0x40 MLOAD PUSH1 0x20 DUP2 DUP4 SUB SUB DUP2 MSTORE SWAP1 PUSH1 0x40 MSTORE DUP1 MLOAD SWAP1 PUSH1 0x20 ADD KECCAK256 PUSH1 0x0 SHR SWAP1 POP SWAP1 JUMP JUMPDEST PUSH1 0x0 DUP2 DUP2 SLOAD DUP2 LT PUSH2 0x3F2 JUMPI PUSH1 0x0 DUP1 REVERT JUMPDEST SWAP1 PUSH1 0x0 MSTORE PUSH1 0x20 PUSH1 0x0 KECCAK256 ADD PUSH1 0x0 SWAP2 POP SLOAD SWAP1 PUSH2 0x100 EXP SWAP1 DIV PUSH20 0xFFFFFFFFFFFFFFFFFFFFFFFFFFFFFFFFFFFFFFFF AND DUP2 JUMP JUMPDEST DUP3 DUP1 SLOAD DUP3 DUP3 SSTORE SWAP1 PUSH1 0x0 MSTORE PUSH1 0x20 PUSH1 0x0 KECCAK256 SWAP1 DUP2 ADD SWAP3 DUP3 ISZERO PUSH2 0x49A JUMPI SWAP2 PUSH1 0x20 MUL DUP3 ADD JUMPDEST DUP3 DUP2 GT ISZERO PUSH2 0x499 JUMPI DUP3 MLOAD DUP3 PUSH1 0x0 PUSH2 0x100 EXP DUP2 SLOAD DUP2 PUSH20 0xFFFFFFFFFFFFFFFFFFFFFFFFFFFFFFFFFFFFFFFF MUL NOT AND SWAP1 DUP4 PUSH20 0xFFFFFFFFFFFFFFFFFFFFFFFFFFFFFFFFFFFFFFFF AND MUL OR SWAP1 SSTORE POP SWAP2 PUSH1 0x20 ADD SWAP2 SWAP1 PUSH1 0x1 ADD SWAP1 PUSH2 0x441 JUMP JUMPDEST JUMPDEST POP SWAP1 POP PUSH2 0x4A7 SWAP2 SWAP1 PUSH2 0x4AB JUMP JUMPDEST POP SWAP1 JUMP JUMPDEST JUMPDEST DUP1 DUP3 GT ISZERO PUSH2 0x4C4 JUMPI PUSH1 0x0 DUP2 PUSH1 0x0 SWAP1 SSTORE POP PUSH1 0x1 ADD PUSH2 0x4AC JUMP JUMPDEST POP SWAP1 JUMP JUMPDEST PUSH1 0x0 DUP2 CALLDATALOAD SWAP1 POP PUSH2 0x4D7 DUP2 PUSH2 0x775 JUMP JUMPDEST SWAP3 SWAP2 POP POP JUMP JUMPDEST PUSH1 0x0 PUSH1 0x20 DUP3 DUP5 SUB SLT ISZERO PUSH2 0x4F3 JUMPI PUSH2 0x4F2 PUSH2 0x770 JUMP JUMPDEST JUMPDEST PUSH1 0x0 PUSH2 0x501 DUP5 DUP3 DUP6 ADD PUSH2 0x4C8 JUMP JUMPDEST SWAP2 POP POP SWAP3 SWAP2 POP POP JUMP JUMPDEST PUSH2 0x513 DUP2 PUSH2 0x63D JUMP JUMPDEST DUP3 MSTORE POP POP JUMP JUMPDEST PUSH2 0x522 DUP2 PUSH2 0x66F JUMP JUMPDEST DUP3 MSTORE POP POP JUMP JUMPDEST PUSH2 0x539 PUSH2 0x534 DUP3 PUSH2 0x66F JUMP JUMPDEST PUSH2 0x679 JUMP JUMPDEST DUP3 MSTORE POP POP JUMP JUMPDEST PUSH1 0x0 PUSH2 0x54B DUP3 DUP7 PUSH2 0x528 JUMP JUMPDEST PUSH1 0x20 DUP3 ADD SWAP2 POP PUSH2 0x55B DUP3 DUP6 PUSH2 0x528 JUMP JUMPDEST PUSH1 0x20 DUP3 ADD SWAP2 POP PUSH2 0x56B DUP3 DUP5 PUSH2 0x528 JUMP JUMPDEST PUSH1 0x20 DUP3 ADD SWAP2 POP DUP2 SWAP1 POP SWAP5 SWAP4 POP POP POP POP JUMP JUMPDEST PUSH1 0x0 PUSH1 0x20 DUP3 ADD SWAP1 POP PUSH2 0x591 PUSH1 0x0 DUP4 ADD DUP5 PUSH2 0x50A JUMP JUMPDEST SWAP3 SWAP2 POP POP JUMP JUMPDEST PUSH1 0x0 PUSH1 0x20 DUP3 ADD SWAP1 POP PUSH2 0x5AC PUSH1 0x0 DUP4 ADD DUP5 PUSH2 0x519 JUMP JUMPDEST SWAP3 SWAP2 POP POP JUMP JUMPDEST PUSH1 0x0 PUSH2 0x5BD DUP3 PUSH2 0x66F JUMP JUMPDEST SWAP2 POP PUSH2 0x5C8 DUP4 PUSH2 0x66F JUMP JUMPDEST SWAP3 POP DUP3 PUSH2 0x5D8 JUMPI PUSH2 0x5D7 PUSH2 0x6E3 JUMP JUMPDEST JUMPDEST DUP3 DUP3 DIV SWAP1 POP SWAP3 SWAP2 POP POP JUMP JUMPDEST PUSH1 0x0 PUSH2 0x5EE DUP3 PUSH2 0x66F JUMP JUMPDEST SWAP2 POP PUSH2 0x5F9 DUP4 PUSH2 0x66F JUMP JUMPDEST SWAP3 POP DUP2 PUSH32 0xFFFFFFFFFFFFFFFFFFFFFFFFFFFFFFFFFFFFFFFFFFFFFFFFFFFFFFFFFFFFFFFF DIV DUP4 GT DUP3 ISZERO ISZERO AND ISZERO PUSH2 0x632 JUMPI PUSH2 0x631 PUSH2 0x6B4 JUMP JUMPDEST JUMPDEST DUP3 DUP3 MUL SWAP1 POP SWAP3 SWAP2 POP POP JUMP JUMPDEST PUSH1 0x0 PUSH2 0x648 DUP3 PUSH2 0x64F JUMP JUMPDEST SWAP1 POP SWAP2 SWAP1 POP JUMP JUMPDEST PUSH1 0x0 PUSH20 0xFFFFFFFFFFFFFFFFFFFFFFFFFFFFFFFFFFFFFFFF DUP3 AND SWAP1 POP SWAP2 SWAP1 POP JUMP JUMPDEST PUSH1 0x0 DUP2 SWAP1 POP SWAP2 SWAP1 POP JUMP JUMPDEST PUSH1 0x0 DUP2 SWAP1 POP SWAP2 SWAP1 POP JUMP JUMPDEST PUSH1 0x0 PUSH2 0x68E DUP3 PUSH2 0x66F JUMP JUMPDEST SWAP2 POP PUSH2 0x699 DUP4 PUSH2 0x66F JUMP JUMPDEST SWAP3 POP DUP3 PUSH2 0x6A9 JUMPI PUSH2 0x6A8 PUSH2 0x6E3 JUMP JUMPDEST JUMPDEST DUP3 DUP3 MOD SWAP1 POP SWAP3 SWAP2 POP POP JUMP JUMPDEST PUSH32 0x4E487B7100000000000000000000000000000000000000000000000000000000 PUSH1 0x0 MSTORE PUSH1 0x11 PUSH1 0x4 MSTORE PUSH1 0x24 PUSH1 0x0 REVERT JUMPDEST PUSH32 0x4E487B7100000000000000000000000000000000000000000000000000000000 PUSH1 0x0 MSTORE PUSH1 0x12 PUSH1 0x4 MSTORE PUSH1 0x24 PUSH1 0x0 REVERT JUMPDEST PUSH32 0x4E487B7100000000000000000000000000000000000000000000000000000000 PUSH1 0x0 MSTORE PUSH1 0x32 PUSH1 0x4 MSTORE PUSH1 0x24 PUSH1 0x0 REVERT JUMPDEST PUSH32 0x4E487B7100000000000000000000000000000000000000000000000000000000 PUSH1 0x0 MSTORE PUSH1 0x41 PUSH1 0x4 MSTORE PUSH1 0x24 PUSH1 0x0 REVERT JUMPDEST PUSH1 0x0 DUP1 REVERT JUMPDEST PUSH2 0x77E DUP2 PUSH2 0x66F JUMP JUMPDEST DUP2 EQ PUSH2 0x789 JUMPI PUSH1 0x0 DUP1 REVERT JUMPDEST POP JUMP INVALID LOG2 PUSH5 0x6970667358 0x22 SLT KECCAK256 SWAP10 PUSH1 0x1A PUSH31 0xB27BD13EF0C337D5F0ADE6D1A3BEA611DA155EABBF1B9E84DE2F4B3864736F PUSH13 0x63430008070033000000000000 "
				},
				"gasEstimates": {
					"creation": {
						"codeDepositCost": "397200",
						"executionCost": "24702",
						"totalCost": "421902"
					},
					"external": {
						"getBalance()": "317",
						"manager()": "2514",
						"pickWinner()": "infinite",
						"players(uint256)": "5022",
						"random()": "infinite"
					},
					"internal": {
						"multiply(uint256,uint256)": "infinite"
					}
				},
				"methodIdentifiers": {
					"getBalance()": "12065fe0",
					"manager()": "481c6a75",
					"pickWinner()": "5d495aea",
					"players(uint256)": "f71d96cb",
					"random()": "5ec01e4d"
				}
			},
			"storageLayout": {
				"storage": [
					{
						"astId": 4,
						"contract": "Practice Projects/Lottery/lottery.sol:Lottery",
						"label": "players",
						"offset": 0,
						"slot": "0",
						"type": "t_array(t_address_payable)dyn_storage"
					},
					{
						"astId": 6,
						"contract": "Practice Projects/Lottery/lottery.sol:Lottery",
						"label": "manager",
						"offset": 0,
						"slot": "1",
						"type": "t_address_payable"
					}
				],
				"types": {
					"t_address_payable": {
						"encoding": "inplace",
						"label": "address payable",
						"numberOfBytes": "20"
					},
					"t_array(t_address_payable)dyn_storage": {
						"base": "t_address_payable",
						"encoding": "dynamic_array",
						"label": "address payable[]",
						"numberOfBytes": "32"
					}
				}
			},
			"userdoc": {
				"kind": "user",
				"methods": {},
				"version": 1
			}
		}
	}
}